{
  "contractName": "BGLSA",
  "abi": [
    {
      "constant": false,
      "inputs": [
        {
          "name": "values",
          "type": "uint256[]"
        }
      ],
      "name": "testSignature",
      "outputs": [
        {
          "name": "",
          "type": "bool"
        }
      ],
      "payable": false,
      "stateMutability": "nonpayable",
      "type": "function"
    },
    {
      "constant": true,
      "inputs": [
        {
          "name": "b",
          "type": "bytes"
        },
        {
          "name": "x",
          "type": "uint256"
        }
      ],
      "name": "chkBit",
      "outputs": [
        {
          "name": "",
          "type": "bool"
        }
      ],
      "payable": false,
      "stateMutability": "pure",
      "type": "function"
    }
  ],
  "bytecode": "0x6060604052604080519081016040528060018152602001600281525060008082015181600001556020820151816001015550506080604051908101604052807f198e9393920d483a7260bfb731fb5d25f1aa493335a9e71297e485b7aef312c281526020017f1800deef121f1e76426a00665e5c4479674322d4f75edadd46debd5cd992f6ed81526020017f090689d0585ff075ec9e99ad690c3395bc4b313370b38ef355acdadcd122975b81526020017f12c85ea5db8c6deb4aab71808dcb408fe3d1e7690c43d37b4ce6cc0166fa7daa81525060026000820151816000015560208201518160010155604082015181600201556060820151816003015550507f30644e72e131a029b85045b68181585d97816a916871ca8d3c208c16d87cfd476006557f30644e72e131a029b85045b68181585d97816a916871ca8d3c208c16d87cfd466007557f30644e72e131a029b85045b68181585d97816a916871ca8d3c208c16d87cfd48600855341561017757600080fd5b610889806101866000396000f30060606040526004361061004c576000357c0100000000000000000000000000000000000000000000000000000000900463ffffffff1680635641f2a414610051578063bbc48a71146100cf575b600080fd5b341561005c57600080fd5b6100b5600480803590602001908201803590602001908080601f01602080910402602001604051908101604052809392919081815260200183838082843782019150505050505091908035906020019091905050610141565b604051808215151515815260200191505060405180910390f35b34156100da57600080fd5b6101276004808035906020019082018035906020019080806020026020016040519081016040528093929190818152602001838360200280828437820191505050505050919050506101eb565b604051808215151515815260200191505060405180910390f35b60008060088381151561015057fe5b0660019060020a028460088581151561016557fe5b0481518110151561017257fe5b9060200101517f010000000000000000000000000000000000000000000000000000000000000090047f0100000000000000000000000000000000000000000000000000000000000000027f01000000000000000000000000000000000000000000000000000000000000009004161415905092915050565b6000806101f6610752565b6101fe61077b565b61020661077b565b63075bcd1593506080604051908101604052807f1c15df6dc9bd529991343f0a78d9a0d355b1b648567c7ee58d02664c8e2d463181526020017e506c3def7620270716e18bfc554f9f5380ce2b3b425f0a6625d73afb204fff81526020017f302e3e5b6b93a75d13b0a899163155f0a57b5e721277d2c718f2300d10a2989981526020017f17397d778e1a5422e54482feb4199a5249a7a4dbfb3f2bf319520234b3137e0681525092506102b986610313565b91506102c58285610561565b90506103088160026080604051908101604052908160008201548152602001600182015481526020016002820154815260200160038201548152505084866105fd565b945050505050919050565b61031b61077b565b600080600080600093505b6001156105575760065486857f01000000000000000000000000000000000000000000000000000000000000000260405180838051906020019060200280838360005b83811015610384578082015181840152602081019050610369565b50505050905001827effffffffffffffffffffffffffffffffffffffffffffffffffffffffffffff19167effffffffffffffffffffffffffffffffffffffffffffffffffffffffffffff19168152600101925050506040518091039020600190048115156103ee57fe5b06925060036104018460036006546106d5565b019150600161042183600260075481151561041857fe5b046006546106d5565b141561054a5761044282600460085481151561043957fe5b046006546106d5565b9050600060028760ff7f01000000000000000000000000000000000000000000000000000000000000000260405180838051906020019060200280838360005b8381101561049d578082015181840152602081019050610482565b50505050905001827effffffffffffffffffffffffffffffffffffffffffffffffffffffffffffff19167effffffffffffffffffffffffffffffffffffffffffffffffffffffffffffff191681526001019250505060405180910390206001900481151561050757fe5b06141561052a576040805190810160405280848152602001828152509450610558565b604080519081016040528084815260200182600654038152509450610558565b8380600101945050610326565b5b50505050919050565b61056961077b565b610571610795565b6105796107bd565b606060405190810160405280866000015181526020018660200151815260200185815250915060408160608460006007600019f115156105b857600080fd5b60408051908101604052808260006002811015156105d257fe5b602002015181526020018260016002811015156105eb57fe5b60200201518152509250505092915050565b60006106076107e4565b61060f61080d565b61018060405190810160405280886000015181526020018860200151815260200187600001518152602001876020015181526020018760400151815260200187606001518152602001866000015181526020018660200151600654038152602001856000015181526020018560200151815260200185604001518152602001856060015181525091506020816101808460006008600019f115156106b257600080fd5b60018160006001811015156106c357fe5b60200201511492505050949350505050565b60006106df610835565b6106e761080d565b60c06040519081016040528060208152602001602081526020016020815260200187815260200186815260200185815250915060208160c08460006005600019f1151561073357600080fd5b80600060018110151561074257fe5b6020020151925050509392505050565b608060405190810160405280600081526020016000815260200160008152602001600081525090565b604080519081016040528060008152602001600081525090565b6060604051908101604052806003905b60008152602001906001900390816107a55790505090565b60408051908101604052806002905b60008152602001906001900390816107cc5790505090565b61018060405190810160405280600c905b60008152602001906001900390816107f55790505090565b6020604051908101604052806001905b600081526020019060019003908161081d5790505090565b60c0604051908101604052806006905b600081526020019060019003908161084557905050905600a165627a7a72305820edb5de93aafdd2f1cfd27dace262b0c5963232daf2dc288399b9027e8650eb510029",
  "source": "pragma solidity ^0.4.17;\n\ncontract BGLSA {\n    struct G1 {\n        uint x;\n        uint y;\n    }\n\n    G1 g1 = G1(1, 2);\n\n    struct G2 {\n        uint xi;\n        uint xr;\n        uint yi;\n        uint yr;\n    }\n\n    G2 g2 = G2(\n        11559732032986387107991004021392285783925812861821192530917403151452391805634,\n        10857046999023057135944570762232829481370756359578518086990519993285655852781,\n        4082367875863433681332203403145435568316851327593401208105741076214120093531,\n        8495653923123431417604973247489272438418190587263600148770280649306958101930\n    );\n\n    function checkSignature(uint[] message, G1 sig, G2 aggKey) internal returns (bool) {\n        return pairingCheck(sig, g2, hashToG1(message), aggKey);\n    }\n\n    function testSignature(uint[] values) public returns (bool) {\n        uint privKey = 123456789;\n        G2 memory pubKey = G2(\n            12703405598006979409108671416960902338538868397248453921759384556929622558257,\n            142094823562702583669092464225103219873886198373818886253774429994499461119,\n            21792722069934396490667258760160363541978805696356802531479377933366930348185,\n            10504771741599673449168779439288281645955231116910341346670256599842843491846\n        );\n        G1 memory h = hashToG1(values);\n        G1 memory sig = scalarMultiply(h,privKey);\n        return pairingCheck(sig, g2, h, pubKey);\n    }\n\n    function modPow(uint256 base, uint256 exponent, uint256 modulus) internal returns (uint256) {\n        uint256[6] memory input = [32, 32, 32, base, exponent, modulus];\n        uint256[1] memory result;\n        assembly {\n            if iszero(call(not(0), 0x05, 0, input, 0xc0, result, 0x20)) {\n                revert(0, 0)\n            }\n        }\n        return result[0];\n    }\n\n    function addPoints(G1 a, G1 b) internal returns (G1) {\n        uint256[4] memory input = [a.x, a.y, b.x, b.y];\n        uint[2] memory result;\n        assembly {\n            if iszero(call(not(0), 0x06, 0, input, 0x80, result, 0x40)) {\n                revert(0, 0)\n            }\n        }\n        return G1(result[0], result[1]);\n    }\n\n    function chkBit(bytes b, uint x) public pure returns (bool) {\n        return uint(b[x / 8]) & (uint(1) << (x % 8)) != 0;\n    }\n\n    function sumPoints(G1[] points, bytes indices) internal returns (G1) {\n        G1 memory acc = G1(0, 0);\n        for (uint i = 0; i < points.length; i++) {\n            if (chkBit(indices, i)) {\n                acc = addPoints(acc, points[i]);\n            }\n        }\n        return G1(acc.x, acc.y);\n    }\n\n    function scalarMultiply(G1 point, uint256 scalar) internal returns (G1) {\n        uint256[3] memory input = [point.x, point.y, scalar];\n        uint[2] memory result;\n        assembly {\n            if iszero(call(not(0), 0x07, 0, input, 0x60, result, 0x40)) {\n                revert(0, 0)\n            }\n        }\n        return G1(result[0], result[1]);\n    }\n\n    function pairingCheck(G1 a, G2 x, G1 b, G2 y) internal returns (bool) {\n        //returns e(a,x) == e(b,y)\n        uint256[12] memory input = [\n        a.x, a.y, x.xi, x.xr, x.yi, x.yr, b.x, prime - b.y, y.xi, y.xr, y.yi, y.yr\n        ];\n        uint[1] memory result;\n        assembly {\n            if iszero(call(not(0), 0x08, 0, input, 0x180, result, 0x20)) {\n                revert(0, 0)\n            }\n        }\n        return result[0] == 1;\n    }\n\n\n    uint256 prime = 21888242871839275222246405745257275088696311157297823662689037894645226208583;\n    uint256 pminus = 21888242871839275222246405745257275088696311157297823662689037894645226208582;\n    uint256 pplus = 21888242871839275222246405745257275088696311157297823662689037894645226208584;\n\n    function hashToG1(uint[] b) internal returns (G1) {\n        uint x = 0;\n        while (true) {\n            uint256 hx = uint256(keccak256(b, byte(x))) % prime;\n            uint256 px = (modPow(hx, 3, prime) + 3);\n            if (modPow(px, pminus / 2, prime) == 1) {\n                uint256 py = modPow(px, pplus / 4, prime);\n                if (uint(keccak256(b, byte(255))) % 2 == 0)\n                    return G1(hx, py);\n                else\n                    return G1(hx, prime - py);\n            } else {\n                x++;\n            }\n        }\n    }\n}\n",
  "sourcePath": "/home/bjorn/Projects/BGRVerify/contracts/BGLSA.sol",
  "compiler": {
    "name": "solc",
    "version": "0.4.21+commit.dfe3193c.Emscripten.clang"
  },
  "schemaVersion": "2.0.0",
  "updatedAt": "2018-06-21T14:35:59.680Z"
}