{
  "contractName": "BGLS",
  "abi": [
    {
      "constant": false,
      "inputs": [],
      "name": "verifyBLS",
      "outputs": [
        {
          "name": "",
          "type": "bool"
        }
      ],
      "payable": false,
      "stateMutability": "nonpayable",
      "type": "function"
    },
    {
      "constant": false,
      "inputs": [],
      "name": "verifyBGLS",
      "outputs": [
        {
          "name": "",
          "type": "bool"
        }
      ],
      "payable": false,
      "stateMutability": "nonpayable",
      "type": "function"
    }
  ],
  "bytecode": "0x6060604052341561000f57600080fd5b6111158061001e6000396000f30060606040526004361061004c576000357c0100000000000000000000000000000000000000000000000000000000900463ffffffff1680638cd670e514610051578063b2aa0c9e1461007e575b600080fd5b341561005c57600080fd5b6100646100ab565b604051808215151515815260200191505060405180910390f35b341561008957600080fd5b61009161048d565b604051808215151515815260200191505060405180910390f35b6000806100b6610c78565b6100be610c92565b6100c6610c92565b6100ce610ca6565b6100d6610ca6565b6100de610c78565b6100e6610c78565b6100ee610ccd565b6100f6610ce1565b6002995060408051908101604052807f11a77de18b1d616eee1ba5335d541ab6b0214bddea809091251fb2f157c93d0081526020017f0c187d7df8f92f38958e0902b612d5c58874b4380d97e91b6e9c12424de8563081525098506101c0604051908101604052806101948152602001610f56610194913997506101c0604051908101604052806101948152602001610dc261019491399650604080519081016040528060408051908101604052807f224e256f32533cdb3d10e255f40c75b971ad71e1974332a145b523cd1fa5382981526020017f2ab94d907ffd43b92d2d59cd2dc9f277b1dce25112266aa19db9c4af76a43fee815250815260200160408051908101604052807f24976833c58227908501c809826de16eddc884a91369c74647201ad0b1e7c0c081526020017f16733bd92e16d83797dd6378b9cf1d0d6778d12671a8b50144808fceaad9de428152508152509550604080519081016040528060408051908101604052807f1f3aaf10e5e6318ea80a7341bfa157f4daca46e6cc208e27ad81b2238f3b181381526020017f18117401001ec3ab7863213a8887af00ea653fb8550e43aad6149b91cbcff1b8815250815260200160408051908101604052807f1dd5b5f34e47636f307cfa799ccd2a67f8e87272d7e31655f99aa77976bc997081526020017f17649c399e0a257293f4554f1d12107950846cd39e9882c1205d8e4d20eb6c8b815250815250945061031688610613565b935061032187610613565b925060018a016040518059106103345750595b90808252806020026020018201604052801561036a57816020015b610357610cf5565b81526020019060019003908161034f5790505b50915060018a0160405180591061037e5750595b9080825280602002602001820160405280156103b457816020015b6103a1610d0f565b8152602001906001900390816103995790505b5090506103c08961069f565b8260008151811015156103cf57fe5b90602001906020020181905250838260018151811015156103ec57fe5b906020019060200201819052508282600281518110151561040957fe5b9060200190602002018190525061041e61073a565b81600081518110151561042d57fe5b906020019060200201819052508581600181518110151561044a57fe5b906020019060200201819052508481600281518110151561046757fe5b9060200190602002018190525061047e8282610804565b9a505050505050505050505090565b6000610497610c92565b61049f610c78565b6104a7610ca6565b6104af610c78565b6101c0604051908101604052806101948152602001610dc26101949139935060408051908101604052807f18b89d143e40a94525c9e9aaa01317d3a13878fd3f89fe4bfb49825366b837b681526020017f0e536811c346ede14c615d4a0da23cb39bdb13b98f54f8726f4cb1ce0aef31178152509250604080519081016040528060408051908101604052807f28f3c1a3abbcecf79ce9055575c4fc64977ca155d970d0acfacdbd9e955d2cf981526020017f0ca87dc9b1b7f6d50e88661e5d26563d711cd303d1cfd4c41a9f570c59fe3bc6815250815260200160408051908101604052807f087026b1d11d41c57704d49dcc7f06ca45bd645410bcf176625dc1e3fd67090c81526020017f017f53b7486693313c0bcc3b6a2538cc1a56cd56579a7c051779acadb229040e81525081525091506105ed84610613565b905061060a6105fb8461069f565b61060361073a565b8385610a8c565b94505050505090565b61061b610c78565b6000826040518082805190602001908083835b602083101515610653578051825260208201915060208101905060208303925061062e565b6001836020036101000a0380198251168184511680821785525050505050509050019150506040518091039020600190049050610697610691610bb8565b82610bdc565b915050919050565b6106a7610c78565b60007f30644e72e131a029b85045b68181585d97816a916871ca8d3c208c16d87cfd479050600083600001511480156106e4575060008360200151145b156107075760408051908101604052806000815260200160008152509150610734565b60408051908101604052808460000151815260200182856020015181151561072b57fe5b06830381525091505b50919050565b610742610ca6565b604080519081016040528060408051908101604052807f198e9393920d483a7260bfb731fb5d25f1aa493335a9e71297e485b7aef312c281526020017f1800deef121f1e76426a00665e5c4479674322d4f75edadd46debd5cd992f6ed815250815260200160408051908101604052807f090689d0585ff075ec9e99ad690c3395bc4b313370b38ef355acdadcd122975b81526020017f12c85ea5db8c6deb4aab71808dcb408fe3d1e7690c43d37b4ce6cc0166fa7daa815250815250905090565b6000806000610811610d36565b600061081b610d4a565b60008751895114151561082d57600080fd5b88519550600686029450846040518059106108455750595b90808252806020026020018201604052509350600092505b85831015610a3257888381518110151561087357fe5b9060200190602002015160000151846000600686020181518110151561089557fe5b906020019060200201818152505088838151811015156108b157fe5b906020019060200201516020015184600160068602018151811015156108d357fe5b906020019060200201818152505087838151811015156108ef57fe5b9060200190602002015160000151600060028110151561090b57fe5b6020020151846002600686020181518110151561092457fe5b9060200190602002018181525050878381518110151561094057fe5b9060200190602002015160000151600160028110151561095c57fe5b6020020151846003600686020181518110151561097557fe5b9060200190602002018181525050878381518110151561099157fe5b906020019060200201516020015160006002811015156109ad57fe5b602002015184600460068602018151811015156109c657fe5b906020019060200201818152505087838151811015156109e257fe5b906020019060200201516020015160016002811015156109fe57fe5b60200201518460056006860201815181101515610a1757fe5b9060200190602002018181525050828060010193505061085d565b6020826020870260208701600060086107d05a03f190508060008114610a5757610a59565bfe5b50801515610a6657600080fd5b6000826000600181101515610a7757fe5b60200201511415965050505050505092915050565b6000610a96610ccd565b610a9e610ce1565b6002604051805910610aad5750595b908082528060200260200182016040528015610ae357816020015b610ad0610cf5565b815260200190600190039081610ac85790505b5091506002604051805910610af55750595b908082528060200260200182016040528015610b2b57816020015b610b18610d0f565b815260200190600190039081610b105790505b50905086826000815181101515610b3e57fe5b9060200190602002018190525084826001815181101515610b5b57fe5b9060200190602002018190525085816000815181101515610b7857fe5b9060200190602002018190525083816001815181101515610b9557fe5b90602001906020020181905250610bac8282610804565b92505050949350505050565b610bc0610c78565b6040805190810160405280600181526020016002815250905090565b610be4610c78565b610bec610d72565b60008460000151826000600381101515610c0257fe5b6020020181815250508460200151826001600381101515610c1f57fe5b60200201818152505083826002600381101515610c3857fe5b602002018181525050606083608084600060076107d05a03f190508060008114610c6157610c63565bfe5b50801515610c7057600080fd5b505092915050565b604080519081016040528060008152602001600081525090565b602060405190810160405280600081525090565b608060405190810160405280610cba610d9a565b8152602001610cc7610d9a565b81525090565b602060405190810160405280600081525090565b602060405190810160405280600081525090565b604080519081016040528060008152602001600081525090565b608060405190810160405280610d23610d9a565b8152602001610d30610d9a565b81525090565b602060405190810160405280600081525090565b6020604051908101604052806001905b6000815260200190600190039081610d5a5790505090565b6060604051908101604052806003905b6000815260200190600190039081610d825790505090565b60408051908101604052806002905b6000815260200190600190039081610da9579050509056007b0a2020226f70656e223a207b0a20202020227072696365223a2039353931372c0a202020202274696d65223a207b0a20202020202022756e6978223a20313438333134323430302c0a2020202020202269736f223a2022323031362d31322d33315430303a30303a30302e3030305a220a202020207d0a20207d2c0a202022636c6f7365223a207b0a20202020227072696365223a2039363736302c0a202020202274696d65223a207b0a20202020202022756e6978223a20313438333232383830302c0a2020202020202269736f223a2022323031372d30312d30315430303a30303a30302e3030305a220a202020207d0a20207d2c0a2020226c6f6f6b7570223a207b0a20202020227072696365223a2039363736302c0a20202020226b223a20312c0a202020202274696d65223a207b0a20202020202022756e6978223a20313438333232383830302c0a2020202020202269736f223a2022323031372d30312d30315430303a30303a30302e3030305a220a202020207d0a20207d0a7d0a6578616d706c652e636f6d2f6170692f317b0a2020226f70656e223a207b0a20202020227072696365223a2039353931372c0a202020202274696d65223a207b0a20202020202022756e6978223a20313438333134323430302c0a2020202020202269736f223a2022323031362d31322d33315430303a30303a30302e3030305a220a202020207d0a20207d2c0a202022636c6f7365223a207b0a20202020227072696365223a2039363736302c0a202020202274696d65223a207b0a20202020202022756e6978223a20313438333232383830302c0a2020202020202269736f223a2022323031372d30312d30315430303a30303a30302e3030305a220a202020207d0a20207d2c0a2020226c6f6f6b7570223a207b0a20202020227072696365223a2039363736302c0a20202020226b223a20312c0a202020202274696d65223a207b0a20202020202022756e6978223a20313438333232383830302c0a2020202020202269736f223a2022323031372d30312d30315430303a30303a30302e3030305a220a202020207d0a20207d0a7d0a6578616d706c652e636f6d2f6170692f30a165627a7a72305820e6b7edc5120591c24223beaddbf82be2c8544efb95aedb3829446ddf42a113e30029",
  "source": "pragma solidity ^0.4.14;\n\n\n//https://github.com/jstoxrocky/zksnarks_example\ncontract BGLS {\n\n    struct G1Point {\n        uint X;\n        uint Y;\n    }\n    // Encoding of field elements is: X[0] * z + X[1]\n    struct G2Point {\n        uint[2] X;\n        uint[2] Y;\n    }\n\n    /// @return the generator of G1\n    function P1() internal returns (G1Point) {\n        return G1Point(1, 2);\n    }\n\n    /// @return the generator of G2\n    function P2() internal returns (G2Point) {\n        return G2Point(\n            [11559732032986387107991004021392285783925812861821192530917403151452391805634,\n            10857046999023057135944570762232829481370756359578518086990519993285655852781],\n\n            [4082367875863433681332203403145435568316851327593401208105741076214120093531,\n            8495653923123431417604973247489272438418190587263600148770280649306958101930]\n        );\n    }\n\n    function verifyBLS() returns (bool) {\n\n        bytes memory message = hex\"7b0a2020226f70656e223a207b0a20202020227072696365223a2039353931372c0a202020202274696d65223a207b0a20202020202022756e6978223a20313438333134323430302c0a2020202020202269736f223a2022323031362d31322d33315430303a30303a30302e3030305a220a202020207d0a20207d2c0a202022636c6f7365223a207b0a20202020227072696365223a2039363736302c0a202020202274696d65223a207b0a20202020202022756e6978223a20313438333232383830302c0a2020202020202269736f223a2022323031372d30312d30315430303a30303a30302e3030305a220a202020207d0a20207d2c0a2020226c6f6f6b7570223a207b0a20202020227072696365223a2039363736302c0a20202020226b223a20312c0a202020202274696d65223a207b0a20202020202022756e6978223a20313438333232383830302c0a2020202020202269736f223a2022323031372d30312d30315430303a30303a30302e3030305a220a202020207d0a20207d0a7d0a6578616d706c652e636f6d2f6170692f31\";\n\n        G1Point memory signature = G1Point(11181692345848957662074290878138344227085597134981019040735323471731897153462, 6479746447046570360435714249272776082787932146211764251347798668447381926167);\n\n        G2Point memory v = G2Point(\n            [18523194229674161632574346342370534213928970227736813349975332190798837787897, 5725452645840548248571879966249653216818629536104756116202892528545334967238],\n            [3816656720215352836236372430537606984911914992659540439626020770732736710924, 677280212051826798882467475639465784259337739185938192379192340908771705870]\n        );\n\n        G1Point memory h = hashToG1(message);\n\n        return pairing2(negate(signature), P2(), h, v);\n    }\n\n    function verifyBGLS() returns (bool) {\n\n        uint numberOfSigners = 2;\n\n        G1Point memory signature = G1Point(7985250684665362734034207174567341000146996823387166378141631317099216977152, 5471024627060516972461571110176333017668072838695251726406965080926450112048);\n\n        bytes memory message0 = hex\"7b0a2020226f70656e223a207b0a20202020227072696365223a2039353931372c0a202020202274696d65223a207b0a20202020202022756e6978223a20313438333134323430302c0a2020202020202269736f223a2022323031362d31322d33315430303a30303a30302e3030305a220a202020207d0a20207d2c0a202022636c6f7365223a207b0a20202020227072696365223a2039363736302c0a202020202274696d65223a207b0a20202020202022756e6978223a20313438333232383830302c0a2020202020202269736f223a2022323031372d30312d30315430303a30303a30302e3030305a220a202020207d0a20207d2c0a2020226c6f6f6b7570223a207b0a20202020227072696365223a2039363736302c0a20202020226b223a20312c0a202020202274696d65223a207b0a20202020202022756e6978223a20313438333232383830302c0a2020202020202269736f223a2022323031372d30312d30315430303a30303a30302e3030305a220a202020207d0a20207d0a7d0a6578616d706c652e636f6d2f6170692f30\";\n        bytes memory message1 = hex\"7b0a2020226f70656e223a207b0a20202020227072696365223a2039353931372c0a202020202274696d65223a207b0a20202020202022756e6978223a20313438333134323430302c0a2020202020202269736f223a2022323031362d31322d33315430303a30303a30302e3030305a220a202020207d0a20207d2c0a202022636c6f7365223a207b0a20202020227072696365223a2039363736302c0a202020202274696d65223a207b0a20202020202022756e6978223a20313438333232383830302c0a2020202020202269736f223a2022323031372d30312d30315430303a30303a30302e3030305a220a202020207d0a20207d2c0a2020226c6f6f6b7570223a207b0a20202020227072696365223a2039363736302c0a20202020226b223a20312c0a202020202274696d65223a207b0a20202020202022756e6978223a20313438333232383830302c0a2020202020202269736f223a2022323031372d30312d30315430303a30303a30302e3030305a220a202020207d0a20207d0a7d0a6578616d706c652e636f6d2f6170692f31\";\n\n        G2Point memory v0 = G2Point(\n            [15516709285352539082439213720585739724329002971882390582209636960597958801449, 19324541677661060388134143597417835654030498723817274130329567224531700170734],\n            [16550775633156536193089672538964908973667410921848053632462693002610771214528, 10154483139478025296468271477739414260393126999813603835827647034319242387010]\n        );\n\n        G2Point memory v1 = G2Point(\n            [14125383697019450293340447180826714775062600193406387386692146468060627933203, 10886345395648455940547500614900453787797209052692168129177801883734751834552],\n            [13494666809312056575532152175382485778895768300692817869062640713829304801648, 10580958449683540742032499469496205826101096579572266360455646078388895706251]\n        );\n\n        G1Point memory h0 = hashToG1(message0);\n        G1Point memory h1 = hashToG1(message1);\n\n        G1Point[] memory a = new G1Point[](numberOfSigners + 1);\n        G2Point[] memory b = new G2Point[](numberOfSigners + 1);\n        a[0] = negate(signature);\n        a[1] = h0;\n        a[2] = h1;\n        b[0] = P2();\n        b[1] = v0;\n        b[2] = v1;\n\n        return pairing(a, b);\n    }\n\n/// @return the result of computing the pairing check\n    /// e(p1[0], p2[0]) *  .... * e(p1[n], p2[n]) == 1\n    /// For example pairing([P1(), P1().negate()], [P2(), P2()]) should\n    /// return true.\n    function pairing(G1Point[] p1, G2Point[] p2) internal returns (bool) {\n        require(p1.length == p2.length);\n        uint elements = p1.length;\n        uint inputSize = elements * 6;\n        uint[] memory input = new uint[](inputSize);\n\n        for (uint i = 0; i < elements; i++)\n        {\n            input[i * 6 + 0] = p1[i].X;\n            input[i * 6 + 1] = p1[i].Y;\n            input[i * 6 + 2] = p2[i].X[0];\n            input[i * 6 + 3] = p2[i].X[1];\n            input[i * 6 + 4] = p2[i].Y[0];\n            input[i * 6 + 5] = p2[i].Y[1];\n        }\n\n        uint[1] memory out;\n        bool success;\n\n        assembly {\n            success := call(sub(gas, 2000), 8, 0, add(input, 0x20), mul(inputSize, 0x20), out, 0x20)\n        // Use \"invalid\" to make gas estimation work\n            switch success case 0 {invalid}\n        }\n        require(success);\n        return out[0] != 0;\n    }\n\n    /// Convenience method for a pairing check for two pairs.\n    function pairing2(G1Point a1, G2Point a2, G1Point b1, G2Point b2) internal returns (bool) {\n        G1Point[] memory p1 = new G1Point[](2);\n        G2Point[] memory p2 = new G2Point[](2);\n        p1[0] = a1;\n        p1[1] = b1;\n        p2[0] = a2;\n        p2[1] = b2;\n        return pairing(p1, p2);\n    }\n\n    function hashToG1(bytes message) internal returns (G1Point) {\n        uint256 h = uint256(keccak256(message));\n        return mul(P1(), h);\n    }\n\n    function modPow(uint256 base, uint256 exponent, uint256 modulus) internal returns (uint256) {\n        uint256[6] memory input = [32, 32, 32, base, exponent, modulus];\n        uint256[1] memory result;\n        assembly {\n            if iszero(call(not(0), 0x05, 0, input, 0xc0, result, 0x20)) {\n                revert(0, 0)\n            }\n        }\n        return result[0];\n    }\n\n    /// @return the negation of p, i.e. p.add(p.negate()) should be zero.\n    function negate(G1Point p) internal returns (G1Point) {\n        // The prime q in the base field F_q for G1\n        uint q = 21888242871839275222246405745257275088696311157297823662689037894645226208583;\n        if (p.X == 0 && p.Y == 0)\n            return G1Point(0, 0);\n        return G1Point(p.X, q - (p.Y % q));\n    }\n\n    /// @return the sum of two points of G1\n    function add(G1Point p1, G1Point p2) internal returns (G1Point r) {\n        uint[4] memory input;\n        input[0] = p1.X;\n        input[1] = p1.Y;\n        input[2] = p2.X;\n        input[3] = p2.Y;\n        bool success;\n        assembly {\n            success := call(sub(gas, 2000), 6, 0, input, 0xc0, r, 0x60)\n        // Use \"invalid\" to make gas estimation work\n            switch success case 0 {invalid}\n        }\n        require(success);\n    }\n    /// @return the product of a point on G1 and a scalar, i.e.\n    /// p == p.mul(1) and p.add(p) == p.mul(2) for all points p.\n    function mul(G1Point p, uint s) internal returns (G1Point r) {\n        uint[3] memory input;\n        input[0] = p.X;\n        input[1] = p.Y;\n        input[2] = s;\n        bool success;\n        assembly {\n            success := call(sub(gas, 2000), 7, 0, input, 0x80, r, 0x60)\n        // Use \"invalid\" to make gas estimation work\n            switch success case 0 {invalid}\n        }\n        require(success);\n    }\n}\n",
  "sourcePath": "/home/bjorn/Projects/BGRVerify/contracts/BGLS.sol",
  "compiler": {
    "name": "solc",
    "version": "0.4.21+commit.dfe3193c.Emscripten.clang"
  },
  "schemaVersion": "2.0.0",
  "updatedAt": "2018-06-21T07:49:28.340Z"
}