{
  "contractName": "BGLS",
  "abi": [
    {
      "constant": false,
      "inputs": [],
      "name": "verifyBLS",
      "outputs": [
        {
          "name": "",
          "type": "bool"
        }
      ],
      "payable": false,
      "stateMutability": "nonpayable",
      "type": "function"
    }
  ],
  "bytecode": "0x60606040526101c060405190810160405280610194815260200162001bf86101949139600090805190602001906200003992919062001033565b5061328060405190810160405280607b60ff168152602001600a60ff168152602001602060ff168152602001602060ff168152602001602260ff168152602001606f60ff168152602001607060ff168152602001606560ff168152602001606e60ff168152602001602260ff168152602001603a60ff168152602001602060ff168152602001607b60ff168152602001600a60ff168152602001602060ff168152602001602060ff168152602001602060ff168152602001602060ff168152602001602260ff168152602001607060ff168152602001607260ff168152602001606960ff168152602001606360ff168152602001606560ff168152602001602260ff168152602001603a60ff168152602001602060ff168152602001603960ff168152602001603560ff168152602001603960ff168152602001603160ff168152602001603760ff168152602001602c60ff168152602001600a60ff168152602001602060ff168152602001602060ff168152602001602060ff168152602001602060ff168152602001602260ff168152602001607460ff168152602001606960ff168152602001606d60ff168152602001606560ff168152602001602260ff168152602001603a60ff168152602001602060ff168152602001607b60ff168152602001600a60ff168152602001602060ff168152602001602060ff168152602001602060ff168152602001602060ff168152602001602060ff168152602001602060ff168152602001602260ff168152602001607560ff168152602001606e60ff168152602001606960ff168152602001607860ff168152602001602260ff168152602001603a60ff168152602001602060ff168152602001603160ff168152602001603460ff168152602001603860ff168152602001603360ff168152602001603160ff168152602001603460ff168152602001603260ff168152602001603460ff168152602001603060ff168152602001603060ff168152602001602c60ff168152602001600a60ff168152602001602060ff168152602001602060ff168152602001602060ff168152602001602060ff168152602001602060ff168152602001602060ff168152602001602260ff168152602001606960ff168152602001607360ff168152602001606f60ff168152602001602260ff168152602001603a60ff168152602001602060ff168152602001602260ff168152602001603260ff168152602001603060ff168152602001603160ff168152602001603660ff168152602001602d60ff168152602001603160ff168152602001603260ff168152602001602d60ff168152602001603360ff168152602001603160ff168152602001605460ff168152602001603060ff168152602001603060ff168152602001603a60ff168152602001603060ff168152602001603060ff168152602001603a60ff168152602001603060ff168152602001603060ff168152602001602e60ff168152602001603060ff168152602001603060ff168152602001603060ff168152602001605a60ff168152602001602260ff168152602001600a60ff168152602001602060ff168152602001602060ff168152602001602060ff168152602001602060ff168152602001607d60ff168152602001600a60ff168152602001602060ff168152602001602060ff168152602001607d60ff168152602001602c60ff168152602001600a60ff168152602001602060ff168152602001602060ff168152602001602260ff168152602001606360ff168152602001606c60ff168152602001606f60ff168152602001607360ff168152602001606560ff168152602001602260ff168152602001603a60ff168152602001602060ff168152602001607b60ff168152602001600a60ff168152602001602060ff168152602001602060ff168152602001602060ff168152602001602060ff168152602001602260ff168152602001607060ff168152602001607260ff168152602001606960ff168152602001606360ff168152602001606560ff168152602001602260ff168152602001603a60ff168152602001602060ff168152602001603960ff168152602001603660ff168152602001603760ff168152602001603660ff168152602001603060ff168152602001602c60ff168152602001600a60ff168152602001602060ff168152602001602060ff168152602001602060ff168152602001602060ff168152602001602260ff168152602001607460ff168152602001606960ff168152602001606d60ff168152602001606560ff168152602001602260ff168152602001603a60ff168152602001602060ff168152602001607b60ff168152602001600a60ff168152602001602060ff168152602001602060ff168152602001602060ff168152602001602060ff168152602001602060ff168152602001602060ff168152602001602260ff168152602001607560ff168152602001606e60ff168152602001606960ff168152602001607860ff168152602001602260ff168152602001603a60ff168152602001602060ff168152602001603160ff168152602001603460ff168152602001603860ff168152602001603360ff168152602001603260ff168152602001603260ff168152602001603860ff168152602001603860ff168152602001603060ff168152602001603060ff168152602001602c60ff168152602001600a60ff168152602001602060ff168152602001602060ff168152602001602060ff168152602001602060ff168152602001602060ff168152602001602060ff168152602001602260ff168152602001606960ff168152602001607360ff168152602001606f60ff168152602001602260ff168152602001603a60ff168152602001602060ff168152602001602260ff168152602001603260ff168152602001603060ff168152602001603160ff168152602001603760ff168152602001602d60ff168152602001603060ff168152602001603160ff168152602001602d60ff168152602001603060ff168152602001603160ff168152602001605460ff168152602001603060ff168152602001603060ff168152602001603a60ff168152602001603060ff168152602001603060ff168152602001603a60ff168152602001603060ff168152602001603060ff168152602001602e60ff168152602001603060ff168152602001603060ff168152602001603060ff168152602001605a60ff168152602001602260ff168152602001600a60ff168152602001602060ff168152602001602060ff168152602001602060ff168152602001602060ff168152602001607d60ff168152602001600a60ff168152602001602060ff168152602001602060ff168152602001607d60ff168152602001602c60ff168152602001600a60ff168152602001602060ff168152602001602060ff168152602001602260ff168152602001606c60ff168152602001606f60ff168152602001606f60ff168152602001606b60ff168152602001607560ff168152602001607060ff168152602001602260ff168152602001603a60ff168152602001602060ff168152602001607b60ff168152602001600a60ff168152602001602060ff168152602001602060ff168152602001602060ff168152602001602060ff168152602001602260ff168152602001607060ff168152602001607260ff168152602001606960ff168152602001606360ff168152602001606560ff168152602001602260ff168152602001603a60ff168152602001602060ff168152602001603960ff168152602001603660ff168152602001603760ff168152602001603660ff168152602001603060ff168152602001602c60ff168152602001600a60ff168152602001602060ff168152602001602060ff168152602001602060ff168152602001602060ff168152602001602260ff168152602001606b60ff168152602001602260ff168152602001603a60ff168152602001602060ff168152602001603160ff168152602001602c60ff168152602001600a60ff168152602001602060ff168152602001602060ff168152602001602060ff168152602001602060ff168152602001602260ff168152602001607460ff168152602001606960ff168152602001606d60ff168152602001606560ff168152602001602260ff168152602001603a60ff168152602001602060ff168152602001607b60ff168152602001600a60ff168152602001602060ff168152602001602060ff168152602001602060ff168152602001602060ff168152602001602060ff168152602001602060ff168152602001602260ff168152602001607560ff168152602001606e60ff168152602001606960ff168152602001607860ff168152602001602260ff168152602001603a60ff168152602001602060ff168152602001603160ff168152602001603460ff168152602001603860ff168152602001603360ff168152602001603260ff168152602001603260ff168152602001603860ff168152602001603860ff168152602001603060ff168152602001603060ff168152602001602c60ff168152602001600a60ff168152602001602060ff168152602001602060ff168152602001602060ff168152602001602060ff168152602001602060ff168152602001602060ff168152602001602260ff168152602001606960ff168152602001607360ff168152602001606f60ff168152602001602260ff168152602001603a60ff168152602001602060ff168152602001602260ff168152602001603260ff168152602001603060ff168152602001603160ff168152602001603760ff168152602001602d60ff168152602001603060ff168152602001603160ff168152602001602d60ff168152602001603060ff168152602001603160ff168152602001605460ff168152602001603060ff168152602001603060ff168152602001603a60ff168152602001603060ff168152602001603060ff168152602001603a60ff168152602001603060ff168152602001603060ff168152602001602e60ff168152602001603060ff168152602001603060ff168152602001603060ff168152602001605a60ff168152602001602260ff168152602001600a60ff168152602001602060ff168152602001602060ff168152602001602060ff168152602001602060ff168152602001607d60ff168152602001600a60ff168152602001602060ff168152602001602060ff168152602001607d60ff168152602001600a60ff168152602001607d60ff168152602001600a60ff168152602001606560ff168152602001607860ff168152602001606160ff168152602001606d60ff168152602001607060ff168152602001606c60ff168152602001606560ff168152602001602e60ff168152602001606360ff168152602001606f60ff168152602001606d60ff168152602001602f60ff168152602001606160ff168152602001607060ff168152602001606960ff168152602001602f60ff168152602001603160ff1681525060019061019462001020929190620010ba565b5034156200102d57600080fd5b620011c3565b828054600181600116156101000203166002900490600052602060002090601f016020900481019282601f106200107657805160ff1916838001178555620010a7565b82800160010185558215620010a7579182015b82811115620010a657825182559160200191906001019062001089565b5b509050620010b6919062001168565b5090565b82805482825590600052602060002090601f01602090048101928215620011555791602002820160005b838211156200112457835183826101000a81548160ff021916908360ff1602179055509260200192600101602081600001049283019260010302620010e4565b8015620011535782816101000a81549060ff021916905560010160208160000104928301926001030262001124565b505b50905062001164919062001190565b5090565b6200118d91905b80821115620011895760008160009055506001016200116f565b5090565b90565b620011c091905b80821115620011bc57600081816101000a81549060ff02191690555060010162001197565b5090565b90565b610a2580620011d36000396000f300606060405260043610610041576000357c0100000000000000000000000000000000000000000000000000000000900463ffffffff168063b2aa0c9e14610046575b600080fd5b341561005157600080fd5b610059610073565b604051808215151515815260200191505060405180910390f35b600061007d6108c4565b6100856108de565b61008d6108c4565b60408051908101604052807f18b89d143e40a94525c9e9aaa01317d3a13878fd3f89fe4bfb49825366b837b681526020017f0e536811c346ede14c615d4a0da23cb39bdb13b98f54f8726f4cb1ce0aef31178152509250604080519081016040528060408051908101604052807f28f3c1a3abbcecf79ce9055575c4fc64977ca155d970d0acfacdbd9e955d2cf981526020017f0ca87dc9b1b7f6d50e88661e5d26563d711cd303d1cfd4c41a9f570c59fe3bc6815250815260200160408051908101604052807f087026b1d11d41c57704d49dcc7f06ca45bd645410bcf176625dc1e3fd67090c81526020017f017f53b7486693313c0bcc3b6a2538cc1a56cd56579a7c051779acadb229040e815250815250915061024660008054600181600116156101000203166002900480601f01602080910402602001604051908101604052809291908181526020018280546001816001161561010002031660029004801561023c5780601f106102115761010080835404028352916020019161023c565b820191906000526020600020905b81548152906001019060200180831161021f57829003601f168201915b505050505061026b565b9050610263610254846102f7565b61025c610392565b838561045c565b935050505090565b6102736108c4565b6000826040518082805190602001908083835b6020831015156102ab5780518252602082019150602081019050602083039250610286565b6001836020036101000a03801982511681845116808217855250505050505090500191505060405180910390206001900490506102ef6102e9610588565b826105ac565b915050919050565b6102ff6108c4565b60007f30644e72e131a029b85045b68181585d97816a916871ca8d3c208c16d87cfd4790506000836000015114801561033c575060008360200151145b1561035f576040805190810160405280600081526020016000815250915061038c565b60408051908101604052808460000151815260200182856020015181151561038357fe5b06830381525091505b50919050565b61039a6108de565b604080519081016040528060408051908101604052807f198e9393920d483a7260bfb731fb5d25f1aa493335a9e71297e485b7aef312c281526020017f1800deef121f1e76426a00665e5c4479674322d4f75edadd46debd5cd992f6ed815250815260200160408051908101604052807f090689d0585ff075ec9e99ad690c3395bc4b313370b38ef355acdadcd122975b81526020017f12c85ea5db8c6deb4aab71808dcb408fe3d1e7690c43d37b4ce6cc0166fa7daa815250815250905090565b6000610466610905565b61046e610919565b600260405180591061047d5750595b9080825280602002602001820160405280156104b357816020015b6104a061092d565b8152602001906001900390816104985790505b50915060026040518059106104c55750595b9080825280602002602001820160405280156104fb57816020015b6104e8610947565b8152602001906001900390816104e05790505b5090508682600081518110151561050e57fe5b906020019060200201819052508482600181518110151561052b57fe5b906020019060200201819052508581600081518110151561054857fe5b906020019060200201819052508381600181518110151561056557fe5b9060200190602002018190525061057c8282610648565b92505050949350505050565b6105906108c4565b6040805190810160405280600181526020016002815250905090565b6105b46108c4565b6105bc61096e565b600084600001518260006003811015156105d257fe5b60200201818152505084602001518260016003811015156105ef57fe5b6020020181815250508382600260038110151561060857fe5b602002018181525050606083608084600060076107d05a03f19050806000811461063157610633565bfe5b5080151561064057600080fd5b505092915050565b6000806000610655610996565b600061065f6109aa565b60008751895114151561067157600080fd5b88519550600686029450846040518059106106895750595b90808252806020026020018201604052509350600092505b858310156108765788838151811015156106b757fe5b906020019060200201516000015184600060068602018151811015156106d957fe5b906020019060200201818152505088838151811015156106f557fe5b9060200190602002015160200151846001600686020181518110151561071757fe5b9060200190602002018181525050878381518110151561073357fe5b9060200190602002015160000151600060028110151561074f57fe5b6020020151846002600686020181518110151561076857fe5b9060200190602002018181525050878381518110151561078457fe5b906020019060200201516000015160016002811015156107a057fe5b602002015184600360068602018151811015156107b957fe5b906020019060200201818152505087838151811015156107d557fe5b906020019060200201516020015160006002811015156107f157fe5b6020020151846004600686020181518110151561080a57fe5b9060200190602002018181525050878381518110151561082657fe5b9060200190602002015160200151600160028110151561084257fe5b6020020151846005600686020181518110151561085b57fe5b906020019060200201818152505082806001019350506106a1565b6020826020870260208701600060086107d05a03f19050806000811461089b5761089d565bfe5b5060008260006001811015156108af57fe5b60200201511415965050505050505092915050565b604080519081016040528060008152602001600081525090565b6080604051908101604052806108f26109d2565b81526020016108ff6109d2565b81525090565b602060405190810160405280600081525090565b602060405190810160405280600081525090565b604080519081016040528060008152602001600081525090565b60806040519081016040528061095b6109d2565b81526020016109686109d2565b81525090565b6060604051908101604052806003905b600081526020019060019003908161097e5790505090565b602060405190810160405280600081525090565b6020604051908101604052806001905b60008152602001906001900390816109ba5790505090565b60408051908101604052806002905b60008152602001906001900390816109e157905050905600a165627a7a723058204c17f8d7fba36de3b3b35a9d240c3fa17664d4aa7652c1fb5ab05acd509aa47d00297b0a2020226f70656e223a207b0a20202020227072696365223a2039353931372c0a202020202274696d65223a207b0a20202020202022756e6978223a20313438333134323430302c0a2020202020202269736f223a2022323031362d31322d33315430303a30303a30302e3030305a220a202020207d0a20207d2c0a202022636c6f7365223a207b0a20202020227072696365223a2039363736302c0a202020202274696d65223a207b0a20202020202022756e6978223a20313438333232383830302c0a2020202020202269736f223a2022323031372d30312d30315430303a30303a30302e3030305a220a202020207d0a20207d2c0a2020226c6f6f6b7570223a207b0a20202020227072696365223a2039363736302c0a20202020226b223a20312c0a202020202274696d65223a207b0a20202020202022756e6978223a20313438333232383830302c0a2020202020202269736f223a2022323031372d30312d30315430303a30303a30302e3030305a220a202020207d0a20207d0a7d0a6578616d706c652e636f6d2f6170692f31",
  "source": "pragma solidity ^0.4.14;\n\n\n//https://github.com/jstoxrocky/zksnarks_example\ncontract BGLS {\n\n    bytes message = hex\"7b0a2020226f70656e223a207b0a20202020227072696365223a2039353931372c0a202020202274696d65223a207b0a20202020202022756e6978223a20313438333134323430302c0a2020202020202269736f223a2022323031362d31322d33315430303a30303a30302e3030305a220a202020207d0a20207d2c0a202022636c6f7365223a207b0a20202020227072696365223a2039363736302c0a202020202274696d65223a207b0a20202020202022756e6978223a20313438333232383830302c0a2020202020202269736f223a2022323031372d30312d30315430303a30303a30302e3030305a220a202020207d0a20207d2c0a2020226c6f6f6b7570223a207b0a20202020227072696365223a2039363736302c0a20202020226b223a20312c0a202020202274696d65223a207b0a20202020202022756e6978223a20313438333232383830302c0a2020202020202269736f223a2022323031372d30312d30315430303a30303a30302e3030305a220a202020207d0a20207d0a7d0a6578616d706c652e636f6d2f6170692f31\";\n    uint8[] mess = [123,10,32,32,34,111,112,101,110,34,58,32,123,10,32,32,32,32,34,112,114,105,99,101,34,58,32,57,53,57,49,55,44,10,32,32,32,32,34,116,105,109,101,34,58,32,123,10,32,32,32,32,32,32,34,117,110,105,120,34,58,32,49,52,56,51,49,52,50,52,48,48,44,10,32,32,32,32,32,32,34,105,115,111,34,58,32,34,50,48,49,54,45,49,50,45,51,49,84,48,48,58,48,48,58,48,48,46,48,48,48,90,34,10,32,32,32,32,125,10,32,32,125,44,10,32,32,34,99,108,111,115,101,34,58,32,123,10,32,32,32,32,34,112,114,105,99,101,34,58,32,57,54,55,54,48,44,10,32,32,32,32,34,116,105,109,101,34,58,32,123,10,32,32,32,32,32,32,34,117,110,105,120,34,58,32,49,52,56,51,50,50,56,56,48,48,44,10,32,32,32,32,32,32,34,105,115,111,34,58,32,34,50,48,49,55,45,48,49,45,48,49,84,48,48,58,48,48,58,48,48,46,48,48,48,90,34,10,32,32,32,32,125,10,32,32,125,44,10,32,32,34,108,111,111,107,117,112,34,58,32,123,10,32,32,32,32,34,112,114,105,99,101,34,58,32,57,54,55,54,48,44,10,32,32,32,32,34,107,34,58,32,49,44,10,32,32,32,32,34,116,105,109,101,34,58,32,123,10,32,32,32,32,32,32,34,117,110,105,120,34,58,32,49,52,56,51,50,50,56,56,48,48,44,10,32,32,32,32,32,32,34,105,115,111,34,58,32,34,50,48,49,55,45,48,49,45,48,49,84,48,48,58,48,48,58,48,48,46,48,48,48,90,34,10,32,32,32,32,125,10,32,32,125,10,125,10,101,120,97,109,112,108,101,46,99,111,109,47,97,112,105,47,49];\n\n    struct G1Point {\n        uint X;\n        uint Y;\n    }\n    // Encoding of field elements is: X[0] * z + X[1]\n    struct G2Point {\n        uint[2] X;\n        uint[2] Y;\n    }\n\n    /// @return the generator of G1\n    function P1() internal returns (G1Point) {\n        return G1Point(1, 2);\n    }\n\n    /// @return the generator of G2\n    function P2() internal returns (G2Point) {\n        return G2Point(\n            [11559732032986387107991004021392285783925812861821192530917403151452391805634,\n            10857046999023057135944570762232829481370756359578518086990519993285655852781],\n\n            [4082367875863433681332203403145435568316851327593401208105741076214120093531,\n            8495653923123431417604973247489272438418190587263600148770280649306958101930]\n        );\n    }\n\n    //sig = [sig_X, sig_Y]\n    function verifyBLS() returns (bool) {\n\n        G1Point memory signature = G1Point(11181692345848957662074290878138344227085597134981019040735323471731897153462, 6479746447046570360435714249272776082787932146211764251347798668447381926167);\n\n        G2Point memory v = G2Point(\n            [18523194229674161632574346342370534213928970227736813349975332190798837787897, 5725452645840548248571879966249653216818629536104756116202892528545334967238],\n            [3816656720215352836236372430537606984911914992659540439626020770732736710924, 677280212051826798882467475639465784259337739185938192379192340908771705870]\n        );\n\n        G1Point memory h = hashToG1(message);\n\n        return pairing2(negate(signature), P2(), h, v);\n    }\n\n/// @return the result of computing the pairing check\n    /// e(p1[0], p2[0]) *  .... * e(p1[n], p2[n]) == 1\n    /// For example pairing([P1(), P1().negate()], [P2(), P2()]) should\n    /// return true.\n    function pairing(G1Point[] p1, G2Point[] p2) internal returns (bool) {\n        require(p1.length == p2.length);\n        uint elements = p1.length;\n        uint inputSize = elements * 6;\n        uint[] memory input = new uint[](inputSize);\n        for (uint i = 0; i < elements; i++)\n        {\n            input[i * 6 + 0] = p1[i].X;\n            input[i * 6 + 1] = p1[i].Y;\n            input[i * 6 + 2] = p2[i].X[0];\n            input[i * 6 + 3] = p2[i].X[1];\n            input[i * 6 + 4] = p2[i].Y[0];\n            input[i * 6 + 5] = p2[i].Y[1];\n        }\n        uint[1] memory out;\n        bool success;\n        assembly {\n            success := call(sub(gas, 2000), 8, 0, add(input, 0x20), mul(inputSize, 0x20), out, 0x20)\n        // Use \"invalid\" to make gas estimation work\n            switch success case 0 {invalid}\n        }\n        //require(success);\n        return out[0] != 0;\n    }\n\n    /// Convenience method for a pairing check for two pairs.\n    function pairing2(G1Point a1, G2Point a2, G1Point b1, G2Point b2) internal returns (bool) {\n        G1Point[] memory p1 = new G1Point[](2);\n        G2Point[] memory p2 = new G2Point[](2);\n        p1[0] = a1;\n        p1[1] = b1;\n        p2[0] = a2;\n        p2[1] = b2;\n        return pairing(p1, p2);\n    }\n\n    function hashToG1(bytes message) internal returns (G1Point) {\n        uint256 h = uint256(keccak256(message));\n        return mul(P1(), h);\n    }\n\n    function modPow(uint256 base, uint256 exponent, uint256 modulus) internal returns (uint256) {\n        uint256[6] memory input = [32, 32, 32, base, exponent, modulus];\n        uint256[1] memory result;\n        assembly {\n            if iszero(call(not(0), 0x05, 0, input, 0xc0, result, 0x20)) {\n                revert(0, 0)\n            }\n        }\n        return result[0];\n    }\n\n    /// @return the negation of p, i.e. p.add(p.negate()) should be zero.\n    function negate(G1Point p) internal returns (G1Point) {\n        // The prime q in the base field F_q for G1\n        uint q = 21888242871839275222246405745257275088696311157297823662689037894645226208583;\n        if (p.X == 0 && p.Y == 0)\n            return G1Point(0, 0);\n        return G1Point(p.X, q - (p.Y % q));\n    }\n\n    /// @return the sum of two points of G1\n    function add(G1Point p1, G1Point p2) internal returns (G1Point r) {\n        uint[4] memory input;\n        input[0] = p1.X;\n        input[1] = p1.Y;\n        input[2] = p2.X;\n        input[3] = p2.Y;\n        bool success;\n        assembly {\n            success := call(sub(gas, 2000), 6, 0, input, 0xc0, r, 0x60)\n        // Use \"invalid\" to make gas estimation work\n            switch success case 0 {invalid}\n        }\n        require(success);\n    }\n    /// @return the product of a point on G1 and a scalar, i.e.\n    /// p == p.mul(1) and p.add(p) == p.mul(2) for all points p.\n    function mul(G1Point p, uint s) internal returns (G1Point r) {\n        uint[3] memory input;\n        input[0] = p.X;\n        input[1] = p.Y;\n        input[2] = s;\n        bool success;\n        assembly {\n            success := call(sub(gas, 2000), 7, 0, input, 0x80, r, 0x60)\n        // Use \"invalid\" to make gas estimation work\n            switch success case 0 {invalid}\n        }\n        require(success);\n    }\n}\n",
  "sourcePath": "/home/bjorn/Projects/BGRVerify/contracts/BGLS.sol",
  "compiler": {
    "name": "solc",
    "version": "0.4.21+commit.dfe3193c.Emscripten.clang"
  },
  "schemaVersion": "2.0.0",
  "updatedAt": "2018-06-20T20:51:07.561Z"
}