{
  "contractName": "BGLS",
  "abi": [
    {
      "constant": false,
      "inputs": [],
      "name": "verifyBLS",
      "outputs": [
        {
          "name": "",
          "type": "uint256"
        },
        {
          "name": "",
          "type": "uint256"
        }
      ],
      "payable": false,
      "stateMutability": "nonpayable",
      "type": "function"
    }
  ],
  "bytecode": "0x6060604052604080519081016040528060408051908101604052807f198e9393920d483a7260bfb731fb5d25f1aa493335a9e71297e485b7aef312c281526020017f1800deef121f1e76426a00665e5c4479674322d4f75edadd46debd5cd992f6ed815250815260200160408051908101604052807f090689d0585ff075ec9e99ad690c3395bc4b313370b38ef355acdadcd122975b81526020017f12c85ea5db8c6deb4aab71808dcb408fe3d1e7690c43d37b4ce6cc0166fa7daa815250815250600080820151816000019060026100d9929190610170565b506020820151816002019060026100f1929190610170565b5050507f30644e72e131a029b85045b68181585d97816a916871ca8d3c208c16d87cfd476004557f30644e72e131a029b85045b68181585d97816a916871ca8d3c208c16d87cfd466005557f30644e72e131a029b85045b68181585d97816a916871ca8d3c208c16d87cfd48600655341561016b57600080fd5b6101d5565b826002810192821561019f579160200282015b8281111561019e578251825591602001919060010190610183565b5b5090506101ac91906101b0565b5090565b6101d291905b808211156101ce5760008160009055506001016101b6565b5090565b90565b610766806101e46000396000f300606060405260043610610041576000357c0100000000000000000000000000000000000000000000000000000000900463ffffffff168063b2aa0c9e14610046575b600080fd5b341561005157600080fd5b610059610076565b604051808381526020018281526020019250505060405180910390f35b6000806100816104ee565b610089610508565b6100916104ee565b60408051908101604052807f249e68734fe61765de8b7d08b91f70e51f1eb5bb722e0a02175258ecdc8f482b81526020017f0c86b1a69b86d361d0ce1e8d83db10cb267d92857c2234f146e43c864bc4723d8152509250604080519081016040528060408051908101604052807f22a125fc2fedf43ed08730a264beafb33864da4c24f9a97b1da951ef5ea51c6181526020017f28e6b685d81020898e80129ec4d7aaff2e80ae3df26e85e2cfd45dec47e528e2815250815260200160408051908101604052807f2826ce823a7adcdb1873008169800c1fb32dedb6fac8d6102b84464b91b7a26681526020017f2d2601101a4dc3b7918e8192c5f65181c66f2e5b38506e768bfc72e0795331f081525081525091506101cc6101c06040519081016040528061019481526020016105a761019491396101e3565b905080600001518160200151945094505050509091565b6101eb6104ee565b600080600080600093505b6001156104675760045486857f0100000000000000000000000000000000000000000000000000000000000000026040518083805190602001908083835b6020831015156102595780518252602082019150602081019050602083039250610234565b6001836020036101000a038019825116818451168082178552505050505050905001827effffffffffffffffffffffffffffffffffffffffffffffffffffffffffffff19167effffffffffffffffffffffffffffffffffffffffffffffffffffffffffffff19168152600101925050506040518091039020600190048115156102de57fe5b06925060036102f1846003600454610471565b019150600161031183600260055481151561030857fe5b04600454610471565b141561045a5761033282600460065481151561032957fe5b04600454610471565b9050600060028760ff7f0100000000000000000000000000000000000000000000000000000000000000026040518083805190602001908083835b602083101515610392578051825260208201915060208101905060208303925061036d565b6001836020036101000a038019825116818451168082178552505050505050905001827effffffffffffffffffffffffffffffffffffffffffffffffffffffffffffff19167effffffffffffffffffffffffffffffffffffffffffffffffffffffffffffff191681526001019250505060405180910390206001900481151561041757fe5b06141561043a576040805190810160405280848152602001828152509450610468565b604080519081016040528084815260200182600454038152509450610468565b83806001019450506101f6565b5b50505050919050565b600061047b61052f565b610483610557565b60c06040519081016040528060208152602001602081526020016020815260200187815260200186815260200185815250915060208160c08460006005600019f115156104cf57600080fd5b8060006001811015156104de57fe5b6020020151925050509392505050565b604080519081016040528060008152602001600081525090565b60806040519081016040528061051c61057f565b815260200161052961057f565b81525090565b60c0604051908101604052806006905b600081526020019060019003908161053f5790505090565b6020604051908101604052806001905b60008152602001906001900390816105675790505090565b60408051908101604052806002905b600081526020019060019003908161058e579050509056007b0a2020226f70656e223a207b0a20202020227072696365223a2039353931372c0a202020202274696d65223a207b0a20202020202022756e6978223a20313438333134323430302c0a2020202020202269736f223a2022323031362d31322d33315430303a30303a30302e3030305a220a202020207d0a20207d2c0a202022636c6f7365223a207b0a20202020227072696365223a2039363736302c0a202020202274696d65223a207b0a20202020202022756e6978223a20313438333232383830302c0a2020202020202269736f223a2022323031372d30312d30315430303a30303a30302e3030305a220a202020207d0a20207d2c0a2020226c6f6f6b7570223a207b0a20202020227072696365223a2039363736302c0a20202020226b223a20312c0a202020202274696d65223a207b0a20202020202022756e6978223a20313438333232383830302c0a2020202020202269736f223a2022323031372d30312d30315430303a30303a30302e3030305a220a202020207d0a20207d0a7d0a6578616d706c652e636f6d2f6170692f31a165627a7a72305820126ca8eee67b2144102cea09d1d23b6063ea5d6628f66825ea92666f31027eb30029",
  "source": "pragma solidity ^0.4.14;\n\n\n//https://github.com/jstoxrocky/zksnarks_example\ncontract BGLS {\n\n    //Simulation of PKI (assumed to be available)\n    G2Point v1 = G2Point(\n        [11559732032986387107991004021392285783925812861821192530917403151452391805634,\n        10857046999023057135944570762232829481370756359578518086990519993285655852781],\n        [4082367875863433681332203403145435568316851327593401208105741076214120093531,\n        8495653923123431417604973247489272438418190587263600148770280649306958101930]\n    );\n\n    struct G1Point {\n        uint X;\n        uint Y;\n    }\n    // Encoding of field elements is: X[0] * z + X[1]\n    struct G2Point {\n        uint[2] X;\n        uint[2] Y;\n    }\n\n    /// @return the generator of G1\n    function P1() internal returns (G1Point) {\n        return G1Point(1, 2);\n    }\n\n    /// @return the generator of G2\n    function P2() internal returns (G2Point) {\n        return G2Point(\n            [11559732032986387107991004021392285783925812861821192530917403151452391805634,\n            10857046999023057135944570762232829481370756359578518086990519993285655852781],\n            [4082367875863433681332203403145435568316851327593401208105741076214120093531,\n            8495653923123431417604973247489272438418190587263600148770280649306958101930]\n        );\n    }\n\n    //sig = [sig_X, sig_Y]\n    function verifyBLS() returns (uint, uint) {//uint[] sig, bytes message\n\n        G1Point memory signature = G1Point(16563145275660832799352365197639241284953343140725826242383752706768839329835, 5665737790512898126663352445186978566925460476597286031324097317046543741501);\n\n        G2Point memory v = G2Point(\n            [15663361392829334795196965493940217995373780040386573957964957406495685024865, 18500148494491795848493618635456095561012051386737923642764507158528116730082],\n            [18161079402491395432609640507892471258810957233983746169852295999758303470182, 20421225710584169597605983844211939662856310722977431425927402789655639437808]\n        );\n\n        G1Point memory h = hashToG1(hex\"7b0a2020226f70656e223a207b0a20202020227072696365223a2039353931372c0a202020202274696d65223a207b0a20202020202022756e6978223a20313438333134323430302c0a2020202020202269736f223a2022323031362d31322d33315430303a30303a30302e3030305a220a202020207d0a20207d2c0a202022636c6f7365223a207b0a20202020227072696365223a2039363736302c0a202020202274696d65223a207b0a20202020202022756e6978223a20313438333232383830302c0a2020202020202269736f223a2022323031372d30312d30315430303a30303a30302e3030305a220a202020207d0a20207d2c0a2020226c6f6f6b7570223a207b0a20202020227072696365223a2039363736302c0a20202020226b223a20312c0a202020202274696d65223a207b0a20202020202022756e6978223a20313438333232383830302c0a2020202020202269736f223a2022323031372d30312d30315430303a30303a30302e3030305a220a202020207d0a20207d0a7d0a6578616d706c652e636f6d2f6170692f31\");\n\n        return (h.X, h.Y);\n        //return pairing2(signature, P2(), h, v);\n    }\n\n    /// @return the result of computing the pairing check\n    /// e(p1[0], p2[0]) *  .... * e(p1[n], p2[n]) == 1\n    /// For example pairing([P1(), P1().negate()], [P2(), P2()]) should\n    /// return true.\n    function pairing(G1Point[] p1, G2Point[] p2) internal returns (bool) {\n        require(p1.length == p2.length);\n        uint elements = p1.length;\n        uint inputSize = elements * 6;\n        uint[] memory input = new uint[](inputSize);\n        for (uint i = 0; i < elements; i++)\n        {\n            input[i * 6 + 0] = p1[i].X;\n            input[i * 6 + 1] = p1[i].Y;\n            input[i * 6 + 2] = p2[i].X[0];\n            input[i * 6 + 3] = p2[i].X[1];\n            input[i * 6 + 4] = p2[i].Y[0];\n            input[i * 6 + 5] = p2[i].Y[1];\n        }\n        uint[1] memory out;\n        bool success;\n        assembly {\n            success := call(sub(gas, 2000), 8, 0, add(input, 0x20), mul(inputSize, 0x20), out, 0x20)\n        // Use \"invalid\" to make gas estimation work\n            switch success case 0 {invalid}\n        }\n        //require(success);\n        return out[0] != 0;\n    }\n\n    /// Convenience method for a pairing check for two pairs.\n    function pairing2(G1Point a1, G2Point a2, G1Point b1, G2Point b2) internal returns (bool) {\n        G1Point[] memory p1 = new G1Point[](2);\n        G2Point[] memory p2 = new G2Point[](2);\n        p1[0] = a1;\n        p1[1] = b1;\n        p2[0] = a2;\n        p2[1] = b2;\n        return pairing(p1, p2);\n    }\n\n    uint256 prime = 21888242871839275222246405745257275088696311157297823662689037894645226208583;\n    uint256 pminus = 21888242871839275222246405745257275088696311157297823662689037894645226208582;\n    uint256 pplus = 21888242871839275222246405745257275088696311157297823662689037894645226208584;\n\n    function hashToG1(bytes b) internal returns (G1Point) {\n        uint x = 0;\n        while (true) {\n            uint256 hx = uint256(keccak256(b, byte(x))) % prime;\n            uint256 px = (modPow(hx, 3, prime) + 3);\n            if (modPow(px, pminus / 2, prime) == 1) {\n                uint256 py = modPow(px, pplus / 4, prime);\n                if (uint(keccak256(b, byte(255))) % 2 == 0)\n                    return G1Point(hx, py);\n                else\n                    return G1Point(hx, prime - py);\n            } else {\n                x++;\n            }\n        }\n    }\n\n    function modPow(uint256 base, uint256 exponent, uint256 modulus) internal returns (uint256) {\n        uint256[6] memory input = [32, 32, 32, base, exponent, modulus];\n        uint256[1] memory result;\n        assembly {\n            if iszero(call(not(0), 0x05, 0, input, 0xc0, result, 0x20)) {\n                revert(0, 0)\n            }\n        }\n        return result[0];\n    }\n\n    /// @return the negation of p, i.e. p.add(p.negate()) should be zero.\n    function negate(G1Point p) internal returns (G1Point) {\n        // The prime q in the base field F_q for G1\n        uint q = 21888242871839275222246405745257275088696311157297823662689037894645226208583;\n        if (p.X == 0 && p.Y == 0)\n            return G1Point(0, 0);\n        return G1Point(p.X, q - (p.Y % q));\n    }\n\n    /// @return the sum of two points of G1\n    function add(G1Point p1, G1Point p2) internal returns (G1Point r) {\n        uint[4] memory input;\n        input[0] = p1.X;\n        input[1] = p1.Y;\n        input[2] = p2.X;\n        input[3] = p2.Y;\n        bool success;\n        assembly {\n            success := call(sub(gas, 2000), 6, 0, input, 0xc0, r, 0x60)\n        // Use \"invalid\" to make gas estimation work\n            switch success case 0 {invalid}\n        }\n        require(success);\n    }\n    /// @return the product of a point on G1 and a scalar, i.e.\n    /// p == p.mul(1) and p.add(p) == p.mul(2) for all points p.\n    function mul(G1Point p, uint s) internal returns (G1Point r) {\n        uint[3] memory input;\n        input[0] = p.X;\n        input[1] = p.Y;\n        input[2] = s;\n        bool success;\n        assembly {\n            success := call(sub(gas, 2000), 7, 0, input, 0x80, r, 0x60)\n        // Use \"invalid\" to make gas estimation work\n            switch success case 0 {invalid}\n        }\n        require(success);\n    }\n}\n",
  "sourcePath": "/home/bjorn/Projects/BGRVerify/contracts/BGLS.sol",
  "compiler": {
    "name": "solc",
    "version": "0.4.21+commit.dfe3193c.Emscripten.clang"
  },
  "schemaVersion": "2.0.0",
  "updatedAt": "2018-06-20T14:06:19.560Z"
}