{
  "contractName": "BGLS",
  "abi": [
    {
      "constant": false,
      "inputs": [
        {
          "name": "_sig",
          "type": "uint256[]"
        },
        {
          "name": "_messages",
          "type": "bytes"
        }
      ],
      "name": "transactioncost",
      "outputs": [
        {
          "name": "",
          "type": "bool"
        }
      ],
      "payable": false,
      "stateMutability": "nonpayable",
      "type": "function"
    },
    {
      "constant": false,
      "inputs": [],
      "name": "storagecost",
      "outputs": [],
      "payable": false,
      "stateMutability": "nonpayable",
      "type": "function"
    },
    {
      "constant": false,
      "inputs": [],
      "name": "verificationcost",
      "outputs": [],
      "payable": false,
      "stateMutability": "nonpayable",
      "type": "function"
    },
    {
      "constant": false,
      "inputs": [
        {
          "name": "signature_values",
          "type": "uint256[]"
        },
        {
          "name": "messages",
          "type": "bytes"
        },
        {
          "name": "numberOfSigners",
          "type": "uint256"
        }
      ],
      "name": "verifyBGLS",
      "outputs": [
        {
          "name": "",
          "type": "bool"
        }
      ],
      "payable": false,
      "stateMutability": "nonpayable",
      "type": "function"
    }
  ],
  "bytecode": "0x6060604052604080519081016040528060408051908101604052807f2577da83c6af20fcbf5e398885747c9086c9681f4785b1ce27b2fc9216c7993b81526020017f2131070b733fdf1861803556ca0bb4ceb7301c4c2a94d5938dc231dfbd45fa4e815250815260200160408051908101604052807f2c7b35e51e69a072876759ff2b45d9059c115296be38a5110b920a19bb7f376381526020017f0ae036630f4874da06f70f347cde1e25b22e76f38e07acd8469b0b3c7de213b281525081525060008082015181600001906002620000db92919062001027565b50602082015181600201906002620000f592919062001027565b505050604080519081016040528060408051908101604052807f3041b5733af7b4187bc95de465d3019488b16dcd8a39f3846b34c4ffb414974281526020017f14e30056ba6209822faf6961dfed069f2b925773564f0a87f1020a8caecde9d0815250815260200160408051908101604052807f041b0f2a92b1c36aceb2738abf8a94309f5dc9c706cde672cccac2452e1ca45681526020017f07005ca8fe94aa751fc1dbc3e52b917599a2fc495316d19465399d2a87ec86178152508152506004600082015181600001906002620001d092919062001027565b50602082015181600201906002620001ea92919062001027565b505050604080519081016040528060408051908101604052807f09c37889f24e0d6df67815580d03f53234b41e57089b6635659bf58d1c0007f881526020017f24085f338b4db369846912c18d0840b5dbb3c7e38dac33b51f1b183a8e7819c5815250815260200160408051908101604052807f2ba5b2b2487bbccba54ca0fe10684097995df60c3d731077e45e82b7f9c09c0a81526020017f2a0a972d663b9afe9e6ed5571f34452b58d6b2c4716bf0352de133f1e60cce958152508152506008600082015181600001906002620002c592919062001027565b50602082015181600201906002620002df92919062001027565b505050604080519081016040528060408051908101604052807f20ff5e854d092e05c546e5fcaa51ec12bad78027deb24f1a0cbf232914421a2381526020017f0c7d1f7ca94407bcae6d3ca077ce432d65d168869a463513ac4381007cbe4c90815250815260200160408051908101604052807f0fb0f94298eccad9f62f659295268ed8575450195105e404c59be5704b24394981526020017f124b43fe465259ca0c07110568107391ac2d979d59618279880ca8e66a1e4b30815250815250600c600082015181600001906002620003ba92919062001027565b50602082015181600201906002620003d492919062001027565b505050604080519081016040528060408051908101604052807f2d56b426ac142545203e3d94c39a05e1eee99da23184c052378fe89e60b565f181526020017f23d3ccc84364a81ec31099d3b948592281859e92dc93ac79053c9e9733ecf8f5815250815260200160408051908101604052807f15310e646dbf589a9afb4787d1b23bef0afbe749752338d5cab76ad55c7753c081526020017f154aa04f0f47cfde72e60f307683e4e8122d8ccd0b245c5e27991df5f37ecdda8152508152506010600082015181600001906002620004af92919062001027565b50602082015181600201906002620004c992919062001027565b505050604080519081016040528060408051908101604052807f0ef5d8494f8722a9351f7081dcd1aa0a581efa65852e08954b83ab3db27a266e81526020017f0a9be1815f5a039d2a734f18aaa628a3901b6cf98a82cf6c71b53636d8bc1a74815250815260200160408051908101604052807f2d0e9ace65f9e51b915d44ffd8a3fc3307bbfeb04fc4150020032a870199eaf881526020017f1906fd0f7ab7857f336b1201b772281c3b83f3326f7896887c9e04f2a34408008152508152506014600082015181600001906002620005a492919062001027565b50602082015181600201906002620005be92919062001027565b505050604080519081016040528060408051908101604052807f2cf25b478404822793afc0c06b78e838f0d8b41aa9f46899f214b7c639fe8bf481526020017f209f3d3a9815fed3ab6ff6ca5719e596a983580fbfe39b8e94c59dd5afcc6333815250815260200160408051908101604052807f06e926e3605e9fb4d8f892da4b32dda71931e8c6915bb8d8da5b3e17853f137981526020017f106337f8fa3733bb30dc5b40e43e0d80479a1543bd0fbf06df703a89843f30ef81525081525060186000820151816000019060026200069992919062001027565b50602082015181600201906002620006b392919062001027565b505050604080519081016040528060408051908101604052807f029ec729df101672e049209443c64f1e7c891cff9a4ade76f920127a95bd321e81526020017f01ea9506d5f670026f661fe7ef21e48c448fe0d802520b393f127e022894d3b4815250815260200160408051908101604052807f2fbd1c9dccae43306e3723e41739312dc9ac98ca1467d356cb084a9bb1d646e281526020017f2fe7f914f655671fa9d0629f9420e24c23a21b6c7329354532eb809dcc29054d815250815250601c6000820151816000019060026200078e92919062001027565b50602082015181600201906002620007a892919062001027565b505050604080519081016040528060408051908101604052807f239fb7a0632d8a46cdde795622de93c6c43ff32a1af73e1c0982149a2038a66f81526020017f2b42ea6cdf0cfa48be795c8a909081c111fd70756f717535fbbb2de703d3d008815250815260200160408051908101604052807f127128d141576ad2fde77a33990856bd48e05534375202ef424844aa09b6a87181526020017f24da8130dccd016bcfd8f933bcc2ea378868b9327b56158ed3ab4d3fa6ed5dd681525081525060206000820151816000019060026200088392919062001027565b506020820151816002019060026200089d92919062001027565b505050604080519081016040528060408051908101604052807f1a4b1e0e293d02402fef69b95b11441257a54e23de3e057dfea61b21a401cd4281526020017f07c9b85557aad85005d69447b6a2aa64984215c8aaaf28e1df2aa3bd21aaf4b0815250815260200160408051908101604052807f265cec9c614a3c131183a285f2c44c1951d8e90f613ee1010b8c5d9260f875de81526020017f25b7d923233a50fae364c0ed563866542477fe3bdcdb708dc2d04c1c7641e42d81525081525060246000820151816000019060026200097892919062001027565b506020820151816002019060026200099292919062001027565b5050506101c060405190810160405280610194815260200162003545610194913960289080519060200190620009ca9291906200106c565b506101c0604051908101604052806101948152602001620033b161019491396029908051906020019062000a009291906200106c565b506101c06040519081016040528061019481526020016200386d6101949139602a908051906020019062000a369291906200106c565b506101c0604051908101604052806101948152602001620036d96101949139602b908051906020019062000a6c9291906200106c565b506101c0604051908101604052806101948152602001620030896101949139602c908051906020019062000aa29291906200106c565b506101c060405190810160405280610194815260200162003b956101949139602d908051906020019062000ad89291906200106c565b506101c060405190810160405280610194815260200162002d616101949139602e908051906020019062000b0e9291906200106c565b506101c06040519081016040528061019481526020016200321d6101949139602f908051906020019062000b449291906200106c565b506101c060405190810160405280610194815260200162003a0161019491396030908051906020019062000b7a9291906200106c565b506101c060405190810160405280610194815260200162002ef561019491396031908051906020019062000bb09291906200106c565b5060408051908101604052807f0b76699d71aa78a85d6d2a588c1791d2de9b3df75ce7568bc39f6980b7fe26cd81526020017f126b23c79c17a78ee8f846670f5249251515d4145b3b8d70798ac599fdae0fec81525060326000820151816000015560208201518160010155505060408051908101604052807f0af9e946d435e294b1a1c83e0d5086fbbe24b57af7e37fc4ef19c94bd7fa649881526020017f1a50df0a23bfaa9174793bd2739bf01c4696ba67e2813e972a02a727f0d6e23981525060346000820151816000015560208201518160010155505060408051908101604052807f14a3de660c2d2a144fa2eb8a869e545d24adff9a3bebd894e14929f6b5f9627c81526020017f167fcb01a97e7cf8a875dc225b701f13db9d105be46bca6dad250a143105075881525060366000820151816000015560208201518160010155505060408051908101604052807f1637f830e65eae298438e436e9dcff9e4c99744703da98684ba8245e1c9c4bf981526020017f1accdc0dde2250a3605b1245f54b40028437cb9301e2f1ebdb0d69243a0dfbf881525060386000820151816000015560208201518160010155505060408051908101604052807f2e339edd0760ffcb61b97e9a02f24187f9df3a8c9b72ff9210b0548620af92f281526020017f085c0e39097d05e1ba16825d6fee7e02f6350cbf3cf35ca3092f6dedfaa692a1815250603a6000820151816000015560208201518160010155505060408051908101604052807f18b84c4e225cc2126f4a70017a8877d05eaff80633e800b5b05ded03ab70103081526020017f0d075e7c28f797edb331449740f904d5fa2397d2b141a66bef980bc398aab69c815250603c6000820151816000015560208201518160010155505060408051908101604052807f2ea9116145b4efc72f11b53c6425b6fff88402957f2ee70c1c24730498f64d7481526020017f169384d65d33e2d62d07e601fe3f58cc71712be7bf3c38b44ddd6017da28cf64815250603e6000820151816000015560208201518160010155505060408051908101604052807f0a4f278e090f92fddde627f39df2198445175202fa975f9e7e16c50b9c51888481526020017f18c9fa0c82d8809c3bbb79376c0b7547de43111c9382c1210cb0fe38611caa4a81525060406000820151816000015560208201518160010155505060408051908101604052807f2d7306ca5f2cbc880ce8e7da477c82e8ba5d2ad67322876fae7e0c1d463551f681526020017f1fa07916bd1251719c921ef568f32bac6f8499ed2099ff502845e475f55118c681525060426000820151816000015560208201518160010155505060408051908101604052807f1cd42a3edd5fd0b387d011ee2f107b2e24cd9f11c1a8152923de84e89766645981526020017f2c6231d44ee75047ae74d19b6757a81b9269efb5aad329c758d6c078c89f4f708152506044600082015181600001556020820151816001015550506000604660006101000a81548163ffffffff021916908363ffffffff16021790555034156200102157600080fd5b6200111b565b826002810192821562001059579160200282015b82811115620010585782518255916020019190600101906200103b565b5b509050620010689190620010f3565b5090565b828054600181600116156101000203166002900490600052602060002090601f016020900481019282601f10620010af57805160ff1916838001178555620010e0565b82800160010185558215620010e0579182015b82811115620010df578251825591602001919060010190620010c2565b5b509050620010ef9190620010f3565b5090565b6200111891905b8082111562001114576000816000905550600101620010fa565b5090565b90565b611c36806200112b6000396000f300606060405260043610610062576000357c0100000000000000000000000000000000000000000000000000000000900463ffffffff16806312943d6b146100675780632a71482b1461007c5780634d75c6281461013a578063ca647a5d146101ef575b600080fd5b341561007257600080fd5b61007a610204565b005b341561008757600080fd5b61012060048080359060200190820180359060200190808060200260200160405190810160405280939291908181526020018383602002808284378201915050505050509190803590602001908201803590602001908080601f016020809104026020016040519081016040528093929190818152602001838380828437820191505050505050919080359060200190919050506102fe565b604051808215151515815260200191505060405180910390f35b341561014557600080fd5b6101d560048080359060200190820180359060200190808060200260200160405190810160405280939291908181526020018383602002808284378201915050505050509190803590602001908201803590602001908080601f01602080910402602001604051908101604052809392919081815260200183838082843782019150505050505091905050610364565b604051808215151515815260200191505060405180910390f35b34156101fa57600080fd5b61020261036b565b005b6000806001915061021481610422565b60476000604660009054906101000a900463ffffffff1663ffffffff1663ffffffff1681526020019081526020016000206000820151816000015560208201518160010155905050600090505b818110156102fa5761027281610619565b60486000604660009054906101000a900463ffffffff1663ffffffff1663ffffffff16815260200190815260200160002090805190602001906102b6929190611a1c565b506001604660009054906101000a900463ffffffff1601604660006101000a81548163ffffffff021916908363ffffffff1602179055508080600101915050610261565b5050565b6000610308611a9c565b604080519081016040528086600081518110151561032257fe5b90602001906020020151815260200186600181518110151561034057fe5b90602001906020020151815250905061035a818585610cd5565b9150509392505050565b6000806000fd5b6000600a905061041e61037d82610422565b60288054600181600116156101000203166002900480601f0160208091040260200160405190810160405280929190818152602001828054600181600116156101000203166002900480156104135780601f106103e857610100808354040283529160200191610413565b820191906000526020600020905b8154815290600101906020018083116103f657829003601f168201915b505050505083610cd5565b5050565b61042a611a9c565b600082141561045b576032604080519081016040529081600082015481526020016001820154815250509050610614565b600182141561048c576034604080519081016040529081600082015481526020016001820154815250509050610614565b60028214156104bd576036604080519081016040529081600082015481526020016001820154815250509050610614565b60038214156104ee576038604080519081016040529081600082015481526020016001820154815250509050610614565b600482141561051f57603a604080519081016040529081600082015481526020016001820154815250509050610614565b600582141561055057603c604080519081016040529081600082015481526020016001820154815250509050610614565b600682141561058157603e604080519081016040529081600082015481526020016001820154815250509050610614565b60078214156105b15760408080519081016040529081600082015481526020016001820154815250509050610614565b60088214156105e2576042604080519081016040529081600082015481526020016001820154815250509050610614565b6009821415610613576044604080519081016040529081600082015481526020016001820154815250509050610614565b5b919050565b610621611ab6565b60008214156106cc5760288054600181600116156101000203166002900480601f0160208091040260200160405190810160405280929190818152602001828054600181600116156101000203166002900480156106c05780601f10610695576101008083540402835291602001916106c0565b820191906000526020600020905b8154815290600101906020018083116106a357829003601f168201915b50505050509050610cd0565b60018214156107775760298054600181600116156101000203166002900480601f01602080910402602001604051908101604052809291908181526020018280546001816001161561010002031660029004801561076b5780601f106107405761010080835404028352916020019161076b565b820191906000526020600020905b81548152906001019060200180831161074e57829003601f168201915b50505050509050610cd0565b600282141561082257602a8054600181600116156101000203166002900480601f0160208091040260200160405190810160405280929190818152602001828054600181600116156101000203166002900480156108165780601f106107eb57610100808354040283529160200191610816565b820191906000526020600020905b8154815290600101906020018083116107f957829003601f168201915b50505050509050610cd0565b60038214156108cd57602b8054600181600116156101000203166002900480601f0160208091040260200160405190810160405280929190818152602001828054600181600116156101000203166002900480156108c15780601f10610896576101008083540402835291602001916108c1565b820191906000526020600020905b8154815290600101906020018083116108a457829003601f168201915b50505050509050610cd0565b600482141561097857602c8054600181600116156101000203166002900480601f01602080910402602001604051908101604052809291908181526020018280546001816001161561010002031660029004801561096c5780601f106109415761010080835404028352916020019161096c565b820191906000526020600020905b81548152906001019060200180831161094f57829003601f168201915b50505050509050610cd0565b6005821415610a2357602d8054600181600116156101000203166002900480601f016020809104026020016040519081016040528092919081815260200182805460018160011615610100020316600290048015610a175780601f106109ec57610100808354040283529160200191610a17565b820191906000526020600020905b8154815290600101906020018083116109fa57829003601f168201915b50505050509050610cd0565b6006821415610ace57602e8054600181600116156101000203166002900480601f016020809104026020016040519081016040528092919081815260200182805460018160011615610100020316600290048015610ac25780601f10610a9757610100808354040283529160200191610ac2565b820191906000526020600020905b815481529060010190602001808311610aa557829003601f168201915b50505050509050610cd0565b6007821415610b7957602f8054600181600116156101000203166002900480601f016020809104026020016040519081016040528092919081815260200182805460018160011615610100020316600290048015610b6d5780601f10610b4257610100808354040283529160200191610b6d565b820191906000526020600020905b815481529060010190602001808311610b5057829003601f168201915b50505050509050610cd0565b6008821415610c245760308054600181600116156101000203166002900480601f016020809104026020016040519081016040528092919081815260200182805460018160011615610100020316600290048015610c185780601f10610bed57610100808354040283529160200191610c18565b820191906000526020600020905b815481529060010190602001808311610bfb57829003601f168201915b50505050509050610cd0565b6009821415610ccf5760318054600181600116156101000203166002900480601f016020809104026020016040519081016040528092919081815260200182805460018160011615610100020316600290048015610cc35780601f10610c9857610100808354040283529160200191610cc3565b820191906000526020600020905b815481529060010190602001808311610ca657829003601f168201915b50505050509050610cd0565b5b919050565b6000610cdf611aca565b610ce7611ade565b600060018501604051805910610cfa5750595b908082528060200260200182016040528015610d3057816020015b610d1d611af2565b815260200190600190039081610d155790505b50925060018501604051805910610d445750595b908082528060200260200182016040528015610d7a57816020015b610d67611b0c565b815260200190600190039081610d5f5790505b509150610d8687610e4f565b836000815181101515610d9557fe5b90602001906020020181905250610daa610eea565b826000815181101515610db957fe5b90602001906020020181905250600190505b60018501811015610e3957610dea610de560018303610619565b610fb4565b8382815181101515610df857fe5b90602001906020020181905250610e1160018203611040565b8282815181101515610e1f57fe5b906020019060200201819052508080600101915050610dcb565b610e4383836116d4565b93505050509392505050565b610e57611a9c565b60007f30644e72e131a029b85045b68181585d97816a916871ca8d3c208c16d87cfd47905060008360000151148015610e94575060008360200151145b15610eb75760408051908101604052806000815260200160008152509150610ee4565b604080519081016040528084600001518152602001828560200151811515610edb57fe5b06830381525091505b50919050565b610ef2611b33565b604080519081016040528060408051908101604052807f198e9393920d483a7260bfb731fb5d25f1aa493335a9e71297e485b7aef312c281526020017f1800deef121f1e76426a00665e5c4479674322d4f75edadd46debd5cd992f6ed815250815260200160408051908101604052807f090689d0585ff075ec9e99ad690c3395bc4b313370b38ef355acdadcd122975b81526020017f12c85ea5db8c6deb4aab71808dcb408fe3d1e7690c43d37b4ce6cc0166fa7daa815250815250905090565b610fbc611a9c565b6000826040518082805190602001908083835b602083101515610ff45780518252602082019150602081019050602083039250610fcf565b6001836020036101000a038019825116818451168082178552505050505050905001915050604051809103902060019004905061103861103261195c565b82611980565b915050919050565b611048611b33565b60008214156110ef5760006040805190810160405290816000820160028060200260405190810160405280929190826002801561109a576020028201915b815481526020019060010190808311611086575b50505050508152602001600282016002806020026040519081016040528092919082600280156110df576020028201915b8154815260200190600101908083116110cb575b50505050508152505090506116cf565b600182141561119657600460408051908101604052908160008201600280602002604051908101604052809291908260028015611141576020028201915b81548152602001906001019080831161112d575b5050505050815260200160028201600280602002604051908101604052809291908260028015611186576020028201915b815481526020019060010190808311611172575b50505050508152505090506116cf565b600282141561123d576008604080519081016040529081600082016002806020026040519081016040528092919082600280156111e8576020028201915b8154815260200190600101908083116111d4575b505050505081526020016002820160028060200260405190810160405280929190826002801561122d576020028201915b815481526020019060010190808311611219575b50505050508152505090506116cf565b60038214156112e457600c6040805190810160405290816000820160028060200260405190810160405280929190826002801561128f576020028201915b81548152602001906001019080831161127b575b50505050508152602001600282016002806020026040519081016040528092919082600280156112d4576020028201915b8154815260200190600101908083116112c0575b50505050508152505090506116cf565b600482141561138b57601060408051908101604052908160008201600280602002604051908101604052809291908260028015611336576020028201915b815481526020019060010190808311611322575b505050505081526020016002820160028060200260405190810160405280929190826002801561137b576020028201915b815481526020019060010190808311611367575b50505050508152505090506116cf565b6005821415611432576014604080519081016040529081600082016002806020026040519081016040528092919082600280156113dd576020028201915b8154815260200190600101908083116113c9575b5050505050815260200160028201600280602002604051908101604052809291908260028015611422576020028201915b81548152602001906001019080831161140e575b50505050508152505090506116cf565b60068214156114d957601860408051908101604052908160008201600280602002604051908101604052809291908260028015611484576020028201915b815481526020019060010190808311611470575b50505050508152602001600282016002806020026040519081016040528092919082600280156114c9576020028201915b8154815260200190600101908083116114b5575b50505050508152505090506116cf565b600782141561158057601c6040805190810160405290816000820160028060200260405190810160405280929190826002801561152b576020028201915b815481526020019060010190808311611517575b5050505050815260200160028201600280602002604051908101604052809291908260028015611570576020028201915b81548152602001906001019080831161155c575b50505050508152505090506116cf565b6008821415611627576020604080519081016040529081600082016002806020026040519081016040528092919082600280156115d2576020028201915b8154815260200190600101908083116115be575b5050505050815260200160028201600280602002604051908101604052809291908260028015611617576020028201915b815481526020019060010190808311611603575b50505050508152505090506116cf565b60098214156116ce57602460408051908101604052908160008201600280602002604051908101604052809291908260028015611679576020028201915b815481526020019060010190808311611665575b50505050508152602001600282016002806020026040519081016040528092919082600280156116be576020028201915b8154815260200190600101908083116116aa575b50505050508152505090506116cf565b5b919050565b60008060006116e1611b5a565b60006116eb611b6e565b6000875189511415156116fd57600080fd5b88519550600686029450846040518059106117155750595b90808252806020026020018201604052509350600092505b8583101561190257888381518110151561174357fe5b9060200190602002015160000151846000600686020181518110151561176557fe5b9060200190602002018181525050888381518110151561178157fe5b906020019060200201516020015184600160068602018151811015156117a357fe5b906020019060200201818152505087838151811015156117bf57fe5b906020019060200201516000015160006002811015156117db57fe5b602002015184600260068602018151811015156117f457fe5b9060200190602002018181525050878381518110151561181057fe5b9060200190602002015160000151600160028110151561182c57fe5b6020020151846003600686020181518110151561184557fe5b9060200190602002018181525050878381518110151561186157fe5b9060200190602002015160200151600060028110151561187d57fe5b6020020151846004600686020181518110151561189657fe5b906020019060200201818152505087838151811015156118b257fe5b906020019060200201516020015160016002811015156118ce57fe5b602002015184600560068602018151811015156118e757fe5b9060200190602002018181525050828060010193505061172d565b6020826020870260208701600060086107d05a03f19050806000811461192757611929565bfe5b5080151561193657600080fd5b600082600060018110151561194757fe5b60200201511415965050505050505092915050565b611964611a9c565b6040805190810160405280600181526020016002815250905090565b611988611a9c565b611990611b96565b600084600001518260006003811015156119a657fe5b60200201818152505084602001518260016003811015156119c357fe5b602002018181525050838260026003811015156119dc57fe5b602002018181525050606083608084600060076107d05a03f190508060008114611a0557611a07565bfe5b50801515611a1457600080fd5b505092915050565b828054600181600116156101000203166002900490600052602060002090601f016020900481019282601f10611a5d57805160ff1916838001178555611a8b565b82800160010185558215611a8b579182015b82811115611a8a578251825591602001919060010190611a6f565b5b509050611a989190611bbe565b5090565b604080519081016040528060008152602001600081525090565b602060405190810160405280600081525090565b602060405190810160405280600081525090565b602060405190810160405280600081525090565b604080519081016040528060008152602001600081525090565b608060405190810160405280611b20611be3565b8152602001611b2d611be3565b81525090565b608060405190810160405280611b47611be3565b8152602001611b54611be3565b81525090565b602060405190810160405280600081525090565b6020604051908101604052806001905b6000815260200190600190039081611b7e5790505090565b6060604051908101604052806003905b6000815260200190600190039081611ba65790505090565b611be091905b80821115611bdc576000816000905550600101611bc4565b5090565b90565b60408051908101604052806002905b6000815260200190600190039081611bf257905050905600a165627a7a723058206c8bf6b8f245c5594f5fe021f9100e0bacd526ec6cac82c5ca574df276fc7a1000297b0a2020226f70656e223a207b0a20202020227072696365223a2039353931372c0a202020202274696d65223a207b0a20202020202022756e6978223a20313438333134323430302c0a2020202020202269736f223a2022323031362d31322d33315430303a30303a30302e3030305a220a202020207d0a20207d2c0a202022636c6f7365223a207b0a20202020227072696365223a2039363736302c0a202020202274696d65223a207b0a20202020202022756e6978223a20313438333232383830302c0a2020202020202269736f223a2022323031372d30312d30315430303a30303a30302e3030305a220a202020207d0a20207d2c0a2020226c6f6f6b7570223a207b0a20202020227072696365223a2039363736302c0a20202020226b223a20312c0a202020202274696d65223a207b0a20202020202022756e6978223a20313438333232383830302c0a2020202020202269736f223a2022323031372d30312d30315430303a30303a30302e3030305a220a202020207d0a20207d0a7d0a6578616d706c652e636f6d2f6170692f367b0a2020226f70656e223a207b0a20202020227072696365223a2039353931372c0a202020202274696d65223a207b0a20202020202022756e6978223a20313438333134323430302c0a2020202020202269736f223a2022323031362d31322d33315430303a30303a30302e3030305a220a202020207d0a20207d2c0a202022636c6f7365223a207b0a20202020227072696365223a2039363736302c0a202020202274696d65223a207b0a20202020202022756e6978223a20313438333232383830302c0a2020202020202269736f223a2022323031372d30312d30315430303a30303a30302e3030305a220a202020207d0a20207d2c0a2020226c6f6f6b7570223a207b0a20202020227072696365223a2039363736302c0a20202020226b223a20312c0a202020202274696d65223a207b0a20202020202022756e6978223a20313438333232383830302c0a2020202020202269736f223a2022323031372d30312d30315430303a30303a30302e3030305a220a202020207d0a20207d0a7d0a6578616d706c652e636f6d2f6170692f397b0a2020226f70656e223a207b0a20202020227072696365223a2039353931372c0a202020202274696d65223a207b0a20202020202022756e6978223a20313438333134323430302c0a2020202020202269736f223a2022323031362d31322d33315430303a30303a30302e3030305a220a202020207d0a20207d2c0a202022636c6f7365223a207b0a20202020227072696365223a2039363736302c0a202020202274696d65223a207b0a20202020202022756e6978223a20313438333232383830302c0a2020202020202269736f223a2022323031372d30312d30315430303a30303a30302e3030305a220a202020207d0a20207d2c0a2020226c6f6f6b7570223a207b0a20202020227072696365223a2039363736302c0a20202020226b223a20312c0a202020202274696d65223a207b0a20202020202022756e6978223a20313438333232383830302c0a2020202020202269736f223a2022323031372d30312d30315430303a30303a30302e3030305a220a202020207d0a20207d0a7d0a6578616d706c652e636f6d2f6170692f347b0a2020226f70656e223a207b0a20202020227072696365223a2039353931372c0a202020202274696d65223a207b0a20202020202022756e6978223a20313438333134323430302c0a2020202020202269736f223a2022323031362d31322d33315430303a30303a30302e3030305a220a202020207d0a20207d2c0a202022636c6f7365223a207b0a20202020227072696365223a2039363736302c0a202020202274696d65223a207b0a20202020202022756e6978223a20313438333232383830302c0a2020202020202269736f223a2022323031372d30312d30315430303a30303a30302e3030305a220a202020207d0a20207d2c0a2020226c6f6f6b7570223a207b0a20202020227072696365223a2039363736302c0a20202020226b223a20312c0a202020202274696d65223a207b0a20202020202022756e6978223a20313438333232383830302c0a2020202020202269736f223a2022323031372d30312d30315430303a30303a30302e3030305a220a202020207d0a20207d0a7d0a6578616d706c652e636f6d2f6170692f377b0a2020226f70656e223a207b0a20202020227072696365223a2039353931372c0a202020202274696d65223a207b0a20202020202022756e6978223a20313438333134323430302c0a2020202020202269736f223a2022323031362d31322d33315430303a30303a30302e3030305a220a202020207d0a20207d2c0a202022636c6f7365223a207b0a20202020227072696365223a2039363736302c0a202020202274696d65223a207b0a20202020202022756e6978223a20313438333232383830302c0a2020202020202269736f223a2022323031372d30312d30315430303a30303a30302e3030305a220a202020207d0a20207d2c0a2020226c6f6f6b7570223a207b0a20202020227072696365223a2039363736302c0a20202020226b223a20312c0a202020202274696d65223a207b0a20202020202022756e6978223a20313438333232383830302c0a2020202020202269736f223a2022323031372d30312d30315430303a30303a30302e3030305a220a202020207d0a20207d0a7d0a6578616d706c652e636f6d2f6170692f317b0a2020226f70656e223a207b0a20202020227072696365223a2039353931372c0a202020202274696d65223a207b0a20202020202022756e6978223a20313438333134323430302c0a2020202020202269736f223a2022323031362d31322d33315430303a30303a30302e3030305a220a202020207d0a20207d2c0a202022636c6f7365223a207b0a20202020227072696365223a2039363736302c0a202020202274696d65223a207b0a20202020202022756e6978223a20313438333232383830302c0a2020202020202269736f223a2022323031372d30312d30315430303a30303a30302e3030305a220a202020207d0a20207d2c0a2020226c6f6f6b7570223a207b0a20202020227072696365223a2039363736302c0a20202020226b223a20312c0a202020202274696d65223a207b0a20202020202022756e6978223a20313438333232383830302c0a2020202020202269736f223a2022323031372d30312d30315430303a30303a30302e3030305a220a202020207d0a20207d0a7d0a6578616d706c652e636f6d2f6170692f307b0a2020226f70656e223a207b0a20202020227072696365223a2039353931372c0a202020202274696d65223a207b0a20202020202022756e6978223a20313438333134323430302c0a2020202020202269736f223a2022323031362d31322d33315430303a30303a30302e3030305a220a202020207d0a20207d2c0a202022636c6f7365223a207b0a20202020227072696365223a2039363736302c0a202020202274696d65223a207b0a20202020202022756e6978223a20313438333232383830302c0a2020202020202269736f223a2022323031372d30312d30315430303a30303a30302e3030305a220a202020207d0a20207d2c0a2020226c6f6f6b7570223a207b0a20202020227072696365223a2039363736302c0a20202020226b223a20312c0a202020202274696d65223a207b0a20202020202022756e6978223a20313438333232383830302c0a2020202020202269736f223a2022323031372d30312d30315430303a30303a30302e3030305a220a202020207d0a20207d0a7d0a6578616d706c652e636f6d2f6170692f337b0a2020226f70656e223a207b0a20202020227072696365223a2039353931372c0a202020202274696d65223a207b0a20202020202022756e6978223a20313438333134323430302c0a2020202020202269736f223a2022323031362d31322d33315430303a30303a30302e3030305a220a202020207d0a20207d2c0a202022636c6f7365223a207b0a20202020227072696365223a2039363736302c0a202020202274696d65223a207b0a20202020202022756e6978223a20313438333232383830302c0a2020202020202269736f223a2022323031372d30312d30315430303a30303a30302e3030305a220a202020207d0a20207d2c0a2020226c6f6f6b7570223a207b0a20202020227072696365223a2039363736302c0a20202020226b223a20312c0a202020202274696d65223a207b0a20202020202022756e6978223a20313438333232383830302c0a2020202020202269736f223a2022323031372d30312d30315430303a30303a30302e3030305a220a202020207d0a20207d0a7d0a6578616d706c652e636f6d2f6170692f327b0a2020226f70656e223a207b0a20202020227072696365223a2039353931372c0a202020202274696d65223a207b0a20202020202022756e6978223a20313438333134323430302c0a2020202020202269736f223a2022323031362d31322d33315430303a30303a30302e3030305a220a202020207d0a20207d2c0a202022636c6f7365223a207b0a20202020227072696365223a2039363736302c0a202020202274696d65223a207b0a20202020202022756e6978223a20313438333232383830302c0a2020202020202269736f223a2022323031372d30312d30315430303a30303a30302e3030305a220a202020207d0a20207d2c0a2020226c6f6f6b7570223a207b0a20202020227072696365223a2039363736302c0a20202020226b223a20312c0a202020202274696d65223a207b0a20202020202022756e6978223a20313438333232383830302c0a2020202020202269736f223a2022323031372d30312d30315430303a30303a30302e3030305a220a202020207d0a20207d0a7d0a6578616d706c652e636f6d2f6170692f387b0a2020226f70656e223a207b0a20202020227072696365223a2039353931372c0a202020202274696d65223a207b0a20202020202022756e6978223a20313438333134323430302c0a2020202020202269736f223a2022323031362d31322d33315430303a30303a30302e3030305a220a202020207d0a20207d2c0a202022636c6f7365223a207b0a20202020227072696365223a2039363736302c0a202020202274696d65223a207b0a20202020202022756e6978223a20313438333232383830302c0a2020202020202269736f223a2022323031372d30312d30315430303a30303a30302e3030305a220a202020207d0a20207d2c0a2020226c6f6f6b7570223a207b0a20202020227072696365223a2039363736302c0a20202020226b223a20312c0a202020202274696d65223a207b0a20202020202022756e6978223a20313438333232383830302c0a2020202020202269736f223a2022323031372d30312d30315430303a30303a30302e3030305a220a202020207d0a20207d0a7d0a6578616d706c652e636f6d2f6170692f35",
  "source": "pragma solidity ^0.4.14;\n\n\n//https://github.com/jstoxrocky/zksnarks_example\ncontract BGLS {\n\n    //Simulation of PKI (assumed to be available)\n    G2Point v0 = G2Point(\n        [16947338331669975427969390853393455056721191898897124559844537433001713703227, 15012948130342961259959738518224698592877351229088695512847520584235261229646],\n        [20119459496218450112025421673934482132430051740350834699521991670189443200867, 4919277593289959942369996418027754195467044062199630502263083558910503818162]\n    );\n    G2Point v1 = G2Point(\n        [21827114113900029663436124002198195963153464619787622412980917721250615564098, 9447333593553850776877782027779642010248698236814111234172522743635966290384],\n        [1857060939043765992806153194961695561060011256203772317109968791715780011094, 3166829456828289198890721476008699226980276269729290063423591849314617165335]\n    );\n    G2Point v2 = G2Point(\n        [4416182743473174210021475868304947668753157984502997880762797955328021366776, 16298054381046414993228953320630459596046604209373977604729170953656625273285],\n        [19742215572122511235533075130914368891074531048354139971522142925344762534922, 19015851498807311561026883070417431134929734321961830467535142213036452662933]\n    );\n    G2Point v3 = G2Point(\n        [14925209514125340275126862887503433674751829919507923288479492494106118199843, 5648827381092395238233538641141569955171163878032692071287987622908098661520],\n        [7097378142451701422086923052048837570483738365518138107094211502526171461961, 8274614076594599785454341540008283666362544335990365792555699762736234646320]\n    );\n    G2Point v4 = G2Point(\n        [20507270390760325762746499890970628157465141580759018178737242289209154561521, 16205167786423972706162842371266515966401672448102322338990767575857659443445],\n        [9585244658424011786452912273337482417384665313980814110120692657110774141888, 9630422913902693904765367966162546607510975609264035456697719918819580759514]\n    );\n    G2Point v5 = G2Point(\n        [6766750164698709580401111110113671915737228646461377866193684433051946985070, 4798546161676158762516005560182625771392795826952488144327765253584546699892],\n        [20379882478579646316344542225084432413813028085893002557892382423916306098936, 11320168856118863973482422158771655199142202593132548343699479882214089689088]\n    );\n    G2Point v6 = G2Point(\n        [20329972314316938560366357525718405740564812468408205244932656351885458836468, 14755362424184865178960227522294601123096508361036350375552257135623164158771],\n        [3125820854010939359278010217234330874262271921118051594179004441179392512889, 7412309745211950930627718519034393598676676656882194465598374441570218750191]\n    );\n    G2Point v7 = G2Point(\n        [1185162109773601310234317631613102599551086815948032413301272378414706012702, 866783606239656766428571415022807963991565844808652848669801871446333772724],\n        [21592835481821366687755435426338193277495819972250002444345478216236603426530, 21668564655358567662756527712139652578319293276820827030689292415370646848845]\n    );\n    G2Point v8 = G2Point(\n        [16113145727331667122097706032146248728507108940235063843222745383999100200559, 19567682339165196856893810592867773498537003535768816246612996976550585028616],\n        [8341566704182737819425684302427424355626817779676806526437710327485262375025, 16669326851728492330577747836823280661024745148087394571063665484627950001622]\n    );\n    G2Point v9 = G2Point(\n        [11892855027195863499143716129934836643437449648872555123027109848009383464258, 3522598422259047060180259982411678441033562607431252848302911879922924057776],\n        [17352071204259087427199148862492629152758993952986847225283218652156873176542, 17060407036700607759116311197123050005508712556542556806657412939394834359341]\n    );\n\n    //Example to measure storage and total costs\n    bytes message0 = hex\"7b0a2020226f70656e223a207b0a20202020227072696365223a2039353931372c0a202020202274696d65223a207b0a20202020202022756e6978223a20313438333134323430302c0a2020202020202269736f223a2022323031362d31322d33315430303a30303a30302e3030305a220a202020207d0a20207d2c0a202022636c6f7365223a207b0a20202020227072696365223a2039363736302c0a202020202274696d65223a207b0a20202020202022756e6978223a20313438333232383830302c0a2020202020202269736f223a2022323031372d30312d30315430303a30303a30302e3030305a220a202020207d0a20207d2c0a2020226c6f6f6b7570223a207b0a20202020227072696365223a2039363736302c0a20202020226b223a20312c0a202020202274696d65223a207b0a20202020202022756e6978223a20313438333232383830302c0a2020202020202269736f223a2022323031372d30312d30315430303a30303a30302e3030305a220a202020207d0a20207d0a7d0a6578616d706c652e636f6d2f6170692f30\";\n    bytes message1 = hex\"7b0a2020226f70656e223a207b0a20202020227072696365223a2039353931372c0a202020202274696d65223a207b0a20202020202022756e6978223a20313438333134323430302c0a2020202020202269736f223a2022323031362d31322d33315430303a30303a30302e3030305a220a202020207d0a20207d2c0a202022636c6f7365223a207b0a20202020227072696365223a2039363736302c0a202020202274696d65223a207b0a20202020202022756e6978223a20313438333232383830302c0a2020202020202269736f223a2022323031372d30312d30315430303a30303a30302e3030305a220a202020207d0a20207d2c0a2020226c6f6f6b7570223a207b0a20202020227072696365223a2039363736302c0a20202020226b223a20312c0a202020202274696d65223a207b0a20202020202022756e6978223a20313438333232383830302c0a2020202020202269736f223a2022323031372d30312d30315430303a30303a30302e3030305a220a202020207d0a20207d0a7d0a6578616d706c652e636f6d2f6170692f31\";\n    bytes message2 = hex\"7b0a2020226f70656e223a207b0a20202020227072696365223a2039353931372c0a202020202274696d65223a207b0a20202020202022756e6978223a20313438333134323430302c0a2020202020202269736f223a2022323031362d31322d33315430303a30303a30302e3030305a220a202020207d0a20207d2c0a202022636c6f7365223a207b0a20202020227072696365223a2039363736302c0a202020202274696d65223a207b0a20202020202022756e6978223a20313438333232383830302c0a2020202020202269736f223a2022323031372d30312d30315430303a30303a30302e3030305a220a202020207d0a20207d2c0a2020226c6f6f6b7570223a207b0a20202020227072696365223a2039363736302c0a20202020226b223a20312c0a202020202274696d65223a207b0a20202020202022756e6978223a20313438333232383830302c0a2020202020202269736f223a2022323031372d30312d30315430303a30303a30302e3030305a220a202020207d0a20207d0a7d0a6578616d706c652e636f6d2f6170692f32\";\n    bytes message3 = hex\"7b0a2020226f70656e223a207b0a20202020227072696365223a2039353931372c0a202020202274696d65223a207b0a20202020202022756e6978223a20313438333134323430302c0a2020202020202269736f223a2022323031362d31322d33315430303a30303a30302e3030305a220a202020207d0a20207d2c0a202022636c6f7365223a207b0a20202020227072696365223a2039363736302c0a202020202274696d65223a207b0a20202020202022756e6978223a20313438333232383830302c0a2020202020202269736f223a2022323031372d30312d30315430303a30303a30302e3030305a220a202020207d0a20207d2c0a2020226c6f6f6b7570223a207b0a20202020227072696365223a2039363736302c0a20202020226b223a20312c0a202020202274696d65223a207b0a20202020202022756e6978223a20313438333232383830302c0a2020202020202269736f223a2022323031372d30312d30315430303a30303a30302e3030305a220a202020207d0a20207d0a7d0a6578616d706c652e636f6d2f6170692f33\";\n    bytes message4 = hex\"7b0a2020226f70656e223a207b0a20202020227072696365223a2039353931372c0a202020202274696d65223a207b0a20202020202022756e6978223a20313438333134323430302c0a2020202020202269736f223a2022323031362d31322d33315430303a30303a30302e3030305a220a202020207d0a20207d2c0a202022636c6f7365223a207b0a20202020227072696365223a2039363736302c0a202020202274696d65223a207b0a20202020202022756e6978223a20313438333232383830302c0a2020202020202269736f223a2022323031372d30312d30315430303a30303a30302e3030305a220a202020207d0a20207d2c0a2020226c6f6f6b7570223a207b0a20202020227072696365223a2039363736302c0a20202020226b223a20312c0a202020202274696d65223a207b0a20202020202022756e6978223a20313438333232383830302c0a2020202020202269736f223a2022323031372d30312d30315430303a30303a30302e3030305a220a202020207d0a20207d0a7d0a6578616d706c652e636f6d2f6170692f34\";\n    bytes message5 = hex\"7b0a2020226f70656e223a207b0a20202020227072696365223a2039353931372c0a202020202274696d65223a207b0a20202020202022756e6978223a20313438333134323430302c0a2020202020202269736f223a2022323031362d31322d33315430303a30303a30302e3030305a220a202020207d0a20207d2c0a202022636c6f7365223a207b0a20202020227072696365223a2039363736302c0a202020202274696d65223a207b0a20202020202022756e6978223a20313438333232383830302c0a2020202020202269736f223a2022323031372d30312d30315430303a30303a30302e3030305a220a202020207d0a20207d2c0a2020226c6f6f6b7570223a207b0a20202020227072696365223a2039363736302c0a20202020226b223a20312c0a202020202274696d65223a207b0a20202020202022756e6978223a20313438333232383830302c0a2020202020202269736f223a2022323031372d30312d30315430303a30303a30302e3030305a220a202020207d0a20207d0a7d0a6578616d706c652e636f6d2f6170692f35\";\n    bytes message6 = hex\"7b0a2020226f70656e223a207b0a20202020227072696365223a2039353931372c0a202020202274696d65223a207b0a20202020202022756e6978223a20313438333134323430302c0a2020202020202269736f223a2022323031362d31322d33315430303a30303a30302e3030305a220a202020207d0a20207d2c0a202022636c6f7365223a207b0a20202020227072696365223a2039363736302c0a202020202274696d65223a207b0a20202020202022756e6978223a20313438333232383830302c0a2020202020202269736f223a2022323031372d30312d30315430303a30303a30302e3030305a220a202020207d0a20207d2c0a2020226c6f6f6b7570223a207b0a20202020227072696365223a2039363736302c0a20202020226b223a20312c0a202020202274696d65223a207b0a20202020202022756e6978223a20313438333232383830302c0a2020202020202269736f223a2022323031372d30312d30315430303a30303a30302e3030305a220a202020207d0a20207d0a7d0a6578616d706c652e636f6d2f6170692f36\";\n    bytes message7 = hex\"7b0a2020226f70656e223a207b0a20202020227072696365223a2039353931372c0a202020202274696d65223a207b0a20202020202022756e6978223a20313438333134323430302c0a2020202020202269736f223a2022323031362d31322d33315430303a30303a30302e3030305a220a202020207d0a20207d2c0a202022636c6f7365223a207b0a20202020227072696365223a2039363736302c0a202020202274696d65223a207b0a20202020202022756e6978223a20313438333232383830302c0a2020202020202269736f223a2022323031372d30312d30315430303a30303a30302e3030305a220a202020207d0a20207d2c0a2020226c6f6f6b7570223a207b0a20202020227072696365223a2039363736302c0a20202020226b223a20312c0a202020202274696d65223a207b0a20202020202022756e6978223a20313438333232383830302c0a2020202020202269736f223a2022323031372d30312d30315430303a30303a30302e3030305a220a202020207d0a20207d0a7d0a6578616d706c652e636f6d2f6170692f37\";\n    bytes message8 = hex\"7b0a2020226f70656e223a207b0a20202020227072696365223a2039353931372c0a202020202274696d65223a207b0a20202020202022756e6978223a20313438333134323430302c0a2020202020202269736f223a2022323031362d31322d33315430303a30303a30302e3030305a220a202020207d0a20207d2c0a202022636c6f7365223a207b0a20202020227072696365223a2039363736302c0a202020202274696d65223a207b0a20202020202022756e6978223a20313438333232383830302c0a2020202020202269736f223a2022323031372d30312d30315430303a30303a30302e3030305a220a202020207d0a20207d2c0a2020226c6f6f6b7570223a207b0a20202020227072696365223a2039363736302c0a20202020226b223a20312c0a202020202274696d65223a207b0a20202020202022756e6978223a20313438333232383830302c0a2020202020202269736f223a2022323031372d30312d30315430303a30303a30302e3030305a220a202020207d0a20207d0a7d0a6578616d706c652e636f6d2f6170692f38\";\n    bytes message9 = hex\"7b0a2020226f70656e223a207b0a20202020227072696365223a2039353931372c0a202020202274696d65223a207b0a20202020202022756e6978223a20313438333134323430302c0a2020202020202269736f223a2022323031362d31322d33315430303a30303a30302e3030305a220a202020207d0a20207d2c0a202022636c6f7365223a207b0a20202020227072696365223a2039363736302c0a202020202274696d65223a207b0a20202020202022756e6978223a20313438333232383830302c0a2020202020202269736f223a2022323031372d30312d30315430303a30303a30302e3030305a220a202020207d0a20207d2c0a2020226c6f6f6b7570223a207b0a20202020227072696365223a2039363736302c0a20202020226b223a20312c0a202020202274696d65223a207b0a20202020202022756e6978223a20313438333232383830302c0a2020202020202269736f223a2022323031372d30312d30315430303a30303a30302e3030305a220a202020207d0a20207d0a7d0a6578616d706c652e636f6d2f6170692f39\";\n    G1Point signature0 = G1Point(5184658216108236166487848590876511837733486685529854097237373095672855537357, 8330930853020054953908886276405410407605755848046343130652944150060164059116);\n    G1Point signature1 = G1Point(4964683421405923354189952561127131299600678657175782192782812654459615339672, 11903021191146774954818876248058294968399466569679779846266461117746825847353);\n    G1Point signature2 = G1Point(9335787982110079012899752669336264719999639595771323406104569023183351014012, 10176673345376872012380837139327929658295429681445767283777625906774299445080);\n    G1Point signature3 = G1Point(10049772208826892074078360049754757547383458472865127955279550289645720587257, 12122089622448762217663659173606664038196539482239647295165165052693230517240);\n    G1Point signature4 = G1Point(20897596669982047012256216358436682714326423527671525130369975433938653385458, 3781150880790799654822025846563667085269458113748431789740014171763402773153);\n    G1Point signature5 = G1Point(11181134865134588541447446956736695081803467720433999740984747105416723304496, 5893087072540242491704103065445282485279471840155944935944912730441101522588);\n    G1Point signature6 = G1Point(21105108140921504108768791246247952056709049914278198591148085663886850018676, 10211525997116033986002324660156156491953065524860727343769001798578345660260);\n    G1Point signature7 = G1Point(4662982401324325286758001774585824577368567647331459015103880114724655958148, 11212370399904568049730506319952152449400183976378849307210770959770456992330);\n    G1Point signature8 = G1Point(20557312465106880399511799333507484461854746082438075734535340786441577124342, 14305229560784146638837170918963079144014433376829690716613557252611680311494);\n    G1Point signature9 = G1Point(13039622906241167481375528011380905714713410136392551797917354560189440091225, 20075260259401204569614827720682174091453991454301770386233592927370082209648);\n\n    struct G1Point {\n        uint X;\n        uint Y;\n    }\n    // Encoding of field elements is: X[0] * z + X[1]\n    struct G2Point {\n        uint[2] X;\n        uint[2] Y;\n    }\n\n    /// @return the generator of G1\n    function P1() internal returns (G1Point) {\n        return G1Point(1, 2);\n    }\n\n    /// @return the generator of G2\n    function P2() internal returns (G2Point) {\n        return G2Point(\n            [11559732032986387107991004021392285783925812861821192530917403151452391805634,\n            10857046999023057135944570762232829481370756359578518086990519993285655852781],\n\n            [4082367875863433681332203403145435568316851327593401208105741076214120093531,\n            8495653923123431417604973247489272438418190587263600148770280649306958101930]\n        );\n    }\n\n    /**\n    This method is used to measure only the transaction costs\n    */\n    function transactioncost(uint[] _sig, bytes _messages) returns (bool) {\n        revert();\n    }\n\n    /**\n    This method is used to measure only the storage costs\n    */\n    uint32 counter = 0;\n    mapping(uint32 => G1Point) sig_storage;\n    mapping(uint32 => bytes) msg_storage;\n    function storagecost() {\n\n        uint n = 1; //NOTE: change this parameter to set the number of messages signatures that will be stored\n\n        sig_storage[counter] = getSignature(i);\n        for (uint i = 0; i < n; i++) {\n            msg_storage[counter] = getMessage(i);\n            counter = counter + 1;\n        }\n    }\n\n    /**\n    This method is used to measure only the verification costs\n    */\n    function verificationcost() {\n        uint n = 10; //NOTE: change this parameter to set the amount of signatures that will be verified\n        verifyBGLSInternal(getSignature(n), message0, n);\n    }\n\n    /**\n    This method is used to measure the total costs\n    */\n    function verifyBGLS(uint[] signature_values, bytes messages, uint numberOfSigners) returns (bool) {\n        G1Point memory signature = G1Point(signature_values[0], signature_values[1]);\n        return verifyBGLSInternal(signature, messages, numberOfSigners);\n    }\n\n\n    function verifyBGLSInternal(G1Point signature, bytes messages, uint numberOfSigners) internal returns (bool) {\n\n        //Create arrays for pairing\n        G1Point[] memory a = new G1Point[](numberOfSigners + 1);\n        G2Point[] memory b = new G2Point[](numberOfSigners + 1);\n\n        //Add lefthand side\n        a[0] = negate(signature);\n        b[0] = P2();\n\n        //Add righthand side hashes and keys\n        for(uint i = 1; i < numberOfSigners + 1; i++) {\n            a[i] = hashToG1(getMessage(i - 1));\n            b[i] = getKey(i - 1);\n        }\n\n        return pairing(a, b);\n    }\n\n    /// @return the result of computing the pairing check\n    /// e(p1[0], p2[0]) *  .... * e(p1[n], p2[n]) == 1\n    /// For example pairing([P1(), P1().negate()], [P2(), P2()]) should\n    /// return true.\n    function pairing(G1Point[] p1, G2Point[] p2) internal returns (bool) {\n        require(p1.length == p2.length);\n        uint elements = p1.length;\n        uint inputSize = elements * 6;\n        uint[] memory input = new uint[](inputSize);\n\n        for (uint i = 0; i < elements; i++)\n        {\n            input[i * 6 + 0] = p1[i].X;\n            input[i * 6 + 1] = p1[i].Y;\n            input[i * 6 + 2] = p2[i].X[0];\n            input[i * 6 + 3] = p2[i].X[1];\n            input[i * 6 + 4] = p2[i].Y[0];\n            input[i * 6 + 5] = p2[i].Y[1];\n        }\n\n        uint[1] memory out;\n        bool success;\n\n        assembly {\n            success := call(sub(gas, 2000), 8, 0, add(input, 0x20), mul(inputSize, 0x20), out, 0x20)\n        // Use \"invalid\" to make gas estimation work\n            switch success case 0 {invalid}\n        }\n        require(success);\n        return out[0] != 0;\n    }\n\n    /// Convenience method for a pairing check for two pairs.\n    function pairing2(G1Point a1, G2Point a2, G1Point b1, G2Point b2) internal returns (bool) {\n        G1Point[] memory p1 = new G1Point[](2);\n        G2Point[] memory p2 = new G2Point[](2);\n        p1[0] = a1;\n        p1[1] = b1;\n        p2[0] = a2;\n        p2[1] = b2;\n        return pairing(p1, p2);\n    }\n\n    function hashToG1(bytes message) internal returns (G1Point) {\n        uint256 h = uint256(keccak256(message));\n        return mul(P1(), h);\n    }\n\n    function modPow(uint256 base, uint256 exponent, uint256 modulus) internal returns (uint256) {\n        uint256[6] memory input = [32, 32, 32, base, exponent, modulus];\n        uint256[1] memory result;\n        assembly {\n            if iszero(call(not(0), 0x05, 0, input, 0xc0, result, 0x20)) {\n                revert(0, 0)\n            }\n        }\n        return result[0];\n    }\n\n    /// @return the negation of p, i.e. p.add(p.negate()) should be zero.\n    function negate(G1Point p) internal returns (G1Point) {\n        // The prime q in the base field F_q for G1\n        uint q = 21888242871839275222246405745257275088696311157297823662689037894645226208583;\n        if (p.X == 0 && p.Y == 0)\n            return G1Point(0, 0);\n        return G1Point(p.X, q - (p.Y % q));\n    }\n\n    /// @return the sum of two points of G1\n    function add(G1Point p1, G1Point p2) internal returns (G1Point r) {\n        uint[4] memory input;\n        input[0] = p1.X;\n        input[1] = p1.Y;\n        input[2] = p2.X;\n        input[3] = p2.Y;\n        bool success;\n        assembly {\n            success := call(sub(gas, 2000), 6, 0, input, 0xc0, r, 0x60)\n        // Use \"invalid\" to make gas estimation work\n            switch success case 0 {invalid}\n        }\n        require(success);\n    }\n    /// @return the product of a point on G1 and a scalar, i.e.\n    /// p == p.mul(1) and p.add(p) == p.mul(2) for all points p.\n    function mul(G1Point p, uint s) internal returns (G1Point r) {\n        uint[3] memory input;\n        input[0] = p.X;\n        input[1] = p.Y;\n        input[2] = s;\n        bool success;\n        assembly {\n            success := call(sub(gas, 2000), 7, 0, input, 0x80, r, 0x60)\n        // Use \"invalid\" to make gas estimation work\n            switch success case 0 {invalid}\n        }\n        require(success);\n    }\n\n    function getSignature(uint i) view internal returns (G1Point) {\n        if (i == 0) {\n            return signature0;\n        } else if (i == 1) {\n            return signature1;\n        } else if (i == 2) {\n            return signature2;\n        } else if (i == 3) {\n            return signature3;\n        } else if (i == 4) {\n            return signature4;\n        } else if (i == 5) {\n            return signature5;\n        } else if (i == 6) {\n            return signature6;\n        } else if (i == 7) {\n            return signature7;\n        } else if (i == 8) {\n            return signature8;\n        } else if (i == 9) {\n            return signature9;\n        }\n    }\n\n    function getKey(uint i) view internal returns (G2Point) {\n        if (i == 0) {\n            return v0;\n        } else if (i == 1) {\n            return v1;\n        } else if (i == 2) {\n            return v2;\n        } else if (i == 3) {\n            return v3;\n        } else if (i == 4) {\n            return v4;\n        } else if (i == 5) {\n            return v5;\n        } else if (i == 6) {\n            return v6;\n        } else if (i == 7) {\n            return v7;\n        } else if (i == 8) {\n            return v8;\n        } else if (i == 9) {\n            return v9;\n        }\n    }\n\n    function getMessage(uint i) internal returns (bytes) {\n        if (i == 0) {\n            return message0;\n        } else if (i == 1) {\n            return message1;\n        } else if (i == 2) {\n            return message2;\n        } else if (i == 3) {\n            return message3;\n        } else if (i == 4) {\n            return message4;\n        } else if (i == 5) {\n            return message5;\n        } else if (i == 6) {\n            return message6;\n        } else if (i == 7) {\n            return message7;\n        } else if (i == 8) {\n            return message8;\n        } else if (i == 9) {\n            return message9;\n        }\n    }\n\n    /*function verifyBGLS2() returns (bool) {\n\n        uint numberOfSigners = 2;\n\n        G1Point memory signature = G1Point(7985250684665362734034207174567341000146996823387166378141631317099216977152, 5471024627060516972461571110176333017668072838695251726406965080926450112048);\n\n        bytes memory message0 = hex\"7b0a2020226f70656e223a207b0a20202020227072696365223a2039353931372c0a202020202274696d65223a207b0a20202020202022756e6978223a20313438333134323430302c0a2020202020202269736f223a2022323031362d31322d33315430303a30303a30302e3030305a220a202020207d0a20207d2c0a202022636c6f7365223a207b0a20202020227072696365223a2039363736302c0a202020202274696d65223a207b0a20202020202022756e6978223a20313438333232383830302c0a2020202020202269736f223a2022323031372d30312d30315430303a30303a30302e3030305a220a202020207d0a20207d2c0a2020226c6f6f6b7570223a207b0a20202020227072696365223a2039363736302c0a20202020226b223a20312c0a202020202274696d65223a207b0a20202020202022756e6978223a20313438333232383830302c0a2020202020202269736f223a2022323031372d30312d30315430303a30303a30302e3030305a220a202020207d0a20207d0a7d0a6578616d706c652e636f6d2f6170692f30\";\n        bytes memory message1 = hex\"7b0a2020226f70656e223a207b0a20202020227072696365223a2039353931372c0a202020202274696d65223a207b0a20202020202022756e6978223a20313438333134323430302c0a2020202020202269736f223a2022323031362d31322d33315430303a30303a30302e3030305a220a202020207d0a20207d2c0a202022636c6f7365223a207b0a20202020227072696365223a2039363736302c0a202020202274696d65223a207b0a20202020202022756e6978223a20313438333232383830302c0a2020202020202269736f223a2022323031372d30312d30315430303a30303a30302e3030305a220a202020207d0a20207d2c0a2020226c6f6f6b7570223a207b0a20202020227072696365223a2039363736302c0a20202020226b223a20312c0a202020202274696d65223a207b0a20202020202022756e6978223a20313438333232383830302c0a2020202020202269736f223a2022323031372d30312d30315430303a30303a30302e3030305a220a202020207d0a20207d0a7d0a6578616d706c652e636f6d2f6170692f31\";\n\n        G2Point memory v0 = G2Point(\n            [15516709285352539082439213720585739724329002971882390582209636960597958801449, 19324541677661060388134143597417835654030498723817274130329567224531700170734],\n            [16550775633156536193089672538964908973667410921848053632462693002610771214528, 10154483139478025296468271477739414260393126999813603835827647034319242387010]\n        );\n\n        G2Point memory v1 = G2Point(\n            [14125383697019450293340447180826714775062600193406387386692146468060627933203, 10886345395648455940547500614900453787797209052692168129177801883734751834552],\n            [13494666809312056575532152175382485778895768300692817869062640713829304801648, 10580958449683540742032499469496205826101096579572266360455646078388895706251]\n        );\n\n        G1Point memory h0 = hashToG1(message0);\n        G1Point memory h1 = hashToG1(message1);\n\n        G1Point[] memory a = new G1Point[](numberOfSigners + 1);\n        G2Point[] memory b = new G2Point[](numberOfSigners + 1);\n        a[0] = negate(signature);\n        a[1] = h0;\n        a[2] = h1;\n        b[0] = P2();\n        b[1] = v0;\n        b[2] = v1;\n\n        return pairing(a, b);\n    }\n\n    function verifyBGLS3() returns (bool) {\n\n        uint numberOfSigners = 3;\n\n        G1Point memory signature = G1Point(385846518441062319503502284295243290270560187383398932887791670182362540842, 19731933537428695151702009864745685458233056709189425720845387511061953267292);\n\n        bytes memory message0 = hex\"7b0a2020226f70656e223a207b0a20202020227072696365223a2039353931372c0a202020202274696d65223a207b0a20202020202022756e6978223a20313438333134323430302c0a2020202020202269736f223a2022323031362d31322d33315430303a30303a30302e3030305a220a202020207d0a20207d2c0a202022636c6f7365223a207b0a20202020227072696365223a2039363736302c0a202020202274696d65223a207b0a20202020202022756e6978223a20313438333232383830302c0a2020202020202269736f223a2022323031372d30312d30315430303a30303a30302e3030305a220a202020207d0a20207d2c0a2020226c6f6f6b7570223a207b0a20202020227072696365223a2039363736302c0a20202020226b223a20312c0a202020202274696d65223a207b0a20202020202022756e6978223a20313438333232383830302c0a2020202020202269736f223a2022323031372d30312d30315430303a30303a30302e3030305a220a202020207d0a20207d0a7d0a6578616d706c652e636f6d2f6170692f30\";\n        bytes memory message1 = hex\"7b0a2020226f70656e223a207b0a20202020227072696365223a2039353931372c0a202020202274696d65223a207b0a20202020202022756e6978223a20313438333134323430302c0a2020202020202269736f223a2022323031362d31322d33315430303a30303a30302e3030305a220a202020207d0a20207d2c0a202022636c6f7365223a207b0a20202020227072696365223a2039363736302c0a202020202274696d65223a207b0a20202020202022756e6978223a20313438333232383830302c0a2020202020202269736f223a2022323031372d30312d30315430303a30303a30302e3030305a220a202020207d0a20207d2c0a2020226c6f6f6b7570223a207b0a20202020227072696365223a2039363736302c0a20202020226b223a20312c0a202020202274696d65223a207b0a20202020202022756e6978223a20313438333232383830302c0a2020202020202269736f223a2022323031372d30312d30315430303a30303a30302e3030305a220a202020207d0a20207d0a7d0a6578616d706c652e636f6d2f6170692f31\";\n        bytes memory message2 = hex\"7b0a2020226f70656e223a207b0a20202020227072696365223a2039353931372c0a202020202274696d65223a207b0a20202020202022756e6978223a20313438333134323430302c0a2020202020202269736f223a2022323031362d31322d33315430303a30303a30302e3030305a220a202020207d0a20207d2c0a202022636c6f7365223a207b0a20202020227072696365223a2039363736302c0a202020202274696d65223a207b0a20202020202022756e6978223a20313438333232383830302c0a2020202020202269736f223a2022323031372d30312d30315430303a30303a30302e3030305a220a202020207d0a20207d2c0a2020226c6f6f6b7570223a207b0a20202020227072696365223a2039363736302c0a20202020226b223a20312c0a202020202274696d65223a207b0a20202020202022756e6978223a20313438333232383830302c0a2020202020202269736f223a2022323031372d30312d30315430303a30303a30302e3030305a220a202020207d0a20207d0a7d0a6578616d706c652e636f6d2f6170692f32\";\n\n        G2Point memory v0 = G2Point(\n            [1787282038370667094324364195810339512415273589223814213215040505578200405366, 414568866548933554513940840943382696902163788831396286279770126458218272940],\n            [6560020551439455112781785895092032589010633560844445112872109862153018855017, 19411093226570397520343120724285433000937737461010544490862811136406407315543]\n        );\n\n        G2Point memory v1 = G2Point(\n            [14831125462625540363404323739936082597729714855858291605999144010730542058037, 8342129546329626371616639780890580451066604883761980695690870205390518348707],\n            [808186590373043742842665711030588185456231663895663328011864547134240543671, 1856705676948889458735296604372981546875220644939188415241687241562401814459]\n        );\n\n        G2Point memory v2 = G2Point(\n            [12507030828714819990408995725310388936101611986473926829733453468215798265704, 16402225253711577242710704509153100189802817297679524801952098990526969620006],\n            [18717845356690477533392378472300056893077745517009561191866660997312973511514, 20124563173642533900823905467925868861151292863229012000403558815142682516349]\n        );\n\n        G1Point memory h0 = hashToG1(message0);\n        G1Point memory h1 = hashToG1(message1);\n        G1Point memory h2 = hashToG1(message2);\n\n        G1Point[] memory a = new G1Point[](numberOfSigners + 1);\n        G2Point[] memory b = new G2Point[](numberOfSigners + 1);\n        a[0] = negate(signature);\n        a[1] = h0;\n        a[2] = h1;\n        a[3] = h2;\n        b[0] = P2();\n        b[1] = v0;\n        b[2] = v1;\n        b[3] = v2;\n\n        return pairing(a, b);\n    }*/\n}\n",
  "sourcePath": "/home/bjorn/Projects/BGRVerify/contracts/BGLS.sol",
  "compiler": {
    "name": "solc",
    "version": "0.4.21+commit.dfe3193c.Emscripten.clang"
  },
  "schemaVersion": "2.0.0",
  "updatedAt": "2018-06-21T15:44:12.290Z"
}