{
  "contractName": "BGLS",
  "abi": [
    {
      "constant": false,
      "inputs": [
        {
          "name": "_sig",
          "type": "uint256[]"
        },
        {
          "name": "_messages",
          "type": "bytes"
        }
      ],
      "name": "doNothing",
      "outputs": [
        {
          "name": "",
          "type": "bool"
        }
      ],
      "payable": false,
      "stateMutability": "nonpayable",
      "type": "function"
    },
    {
      "constant": false,
      "inputs": [],
      "name": "store",
      "outputs": [],
      "payable": false,
      "stateMutability": "nonpayable",
      "type": "function"
    },
    {
      "constant": false,
      "inputs": [],
      "name": "sendNothing",
      "outputs": [],
      "payable": false,
      "stateMutability": "nonpayable",
      "type": "function"
    },
    {
      "constant": false,
      "inputs": [],
      "name": "verifyBGLS2",
      "outputs": [
        {
          "name": "",
          "type": "bool"
        }
      ],
      "payable": false,
      "stateMutability": "nonpayable",
      "type": "function"
    },
    {
      "constant": false,
      "inputs": [],
      "name": "verifyBGLS3",
      "outputs": [
        {
          "name": "",
          "type": "bool"
        }
      ],
      "payable": false,
      "stateMutability": "nonpayable",
      "type": "function"
    },
    {
      "constant": false,
      "inputs": [],
      "name": "verifyBLS",
      "outputs": [
        {
          "name": "",
          "type": "bool"
        }
      ],
      "payable": false,
      "stateMutability": "nonpayable",
      "type": "function"
    }
  ],
  "bytecode": "0x606060405260008060006101000a81548163ffffffff021916908363ffffffff160217905550341561003057600080fd5b6119898061003f6000396000f300606060405260043610610078576000357c0100000000000000000000000000000000000000000000000000000000900463ffffffff16806315c48a6d1461007d5780633f16ddcb146100aa578063975057e71461015f578063b2aa0c9e14610174578063b9e3117f146101a1578063ffeaa596146101ce575b600080fd5b341561008857600080fd5b6100906101e3565b604051808215151515815260200191505060405180910390f35b34156100b557600080fd5b61014560048080359060200190820180359060200190808060200260200160405190810160405280939291908181526020018383602002808284378201915050505050509190803590602001908201803590602001908080601f01602080910402602001604051908101604052809392919081815260200183838082843782019150505050505091905050610701565b604051808215151515815260200191505060405180910390f35b341561016a57600080fd5b61017261070d565b005b341561017f57600080fd5b610187610766565b604051808215151515815260200191505060405180910390f35b34156101ac57600080fd5b6101b46108ec565b604051808215151515815260200191505060405180910390f35b34156101d957600080fd5b6101e1610cce565b005b6000806101ee611358565b6101f6611372565b6101fe611372565b610206611372565b61020e611386565b610216611386565b61021e611386565b610226611358565b61022e611358565b610236611358565b61023e6113ad565b6102466113c1565b60039c5060408051908101604052807eda61a2cb529a2823d137c972abfd1e54adce4068725ef37fb93119bef8eb2a81526020017f2b9fe0ec6b7be5374483bc5c452b7855789bb13b8ec6780fe1ab74be7256465c8152509b506101c060405190810160405280610194815260200161163661019491399a506101c06040519081016040528061019481526020016114a2610194913999506101c06040519081016040528061019481526020016117ca61019491399850604080519081016040528060408051908101604052807f03f390d74c20da7654ea80a8d0e54e5169cb8f90087561795d3dbf52ee2a957681526020017eeaa33de59927082c58f70bd81e8126d4ec7171c0b824512db112de3ef6d8ac815250815260200160408051908101604052807f0e80d70dc7c5181494dafa2d8cc2aacd685dcac9b00d9ab505a572b31c92ce6981526020017f2aea4a17e0288acdeb5210cae8ce6255f955bcac208649a559f38173c94380578152508152509750604080519081016040528060408051908101604052807f20ca1e99e03955175640507ad54e6bdc604cea22e1f3b91353a13b3fc029ca3581526020017f12717a5e3b13d1fc98794cb3cf027e3a08c65b5b03fe36bb57731e867b61eba3815250815260200160408051908101604052807f01c96adab81a138d554597d4f34d171846cad90068a762f0fa04a353f94953b781526020017f041adbb12b67ad412ed08f06499286f0a3b8440509dec18bb33a3dee005c37bb8152508152509650604080519081016040528060408051908101604052807f1ba6ba84c45e2e1877b06258df9ef2a55b7c8e8337680e81f63f0f964b09f76881526020017f2443549bf5d49aa38f95e74daf0d5a4a3fa44b9ffa8513cbc25fd7cf4ea72626815250815260200160408051908101604052807f2961eccf3f1c2350c636d29eff5b9711247a86929d9fadae830bfd4a67ee1b5a81526020017f2c7e195f09253f49f35cc90e76ed8781abf82e147e68aa02013e0cdeb11f5b7d81525081525095506105428b610cf3565b945061054d8a610cf3565b935061055889610cf3565b925060018d0160405180591061056b5750595b9080825280602002602001820160405280156105a157816020015b61058e6113d5565b8152602001906001900390816105865790505b50915060018d016040518059106105b55750595b9080825280602002602001820160405280156105eb57816020015b6105d86113ef565b8152602001906001900390816105d05790505b5090506105f78c610d7f565b82600081518110151561060657fe5b906020019060200201819052508482600181518110151561062357fe5b906020019060200201819052508382600281518110151561064057fe5b906020019060200201819052508282600381518110151561065d57fe5b90602001906020020181905250610672610e1a565b81600081518110151561068157fe5b906020019060200201819052508781600181518110151561069e57fe5b90602001906020020181905250868160028151811015156106bb57fe5b90602001906020020181905250858160038151811015156106d857fe5b906020019060200201819052506106ef8282610ee4565b9d505050505050505050505050505090565b60006001905092915050565b60008060019150600090505b818110156107625760016000809054906101000a900463ffffffff16016000806101000a81548163ffffffff021916908363ffffffff1602179055508080600101915050610719565b5050565b6000610770611372565b610778611358565b610780611386565b610788611358565b6101c06040519081016040528061019481526020016114a26101949139935060408051908101604052807f18b89d143e40a94525c9e9aaa01317d3a13878fd3f89fe4bfb49825366b837b681526020017f0e536811c346ede14c615d4a0da23cb39bdb13b98f54f8726f4cb1ce0aef31178152509250604080519081016040528060408051908101604052807f28f3c1a3abbcecf79ce9055575c4fc64977ca155d970d0acfacdbd9e955d2cf981526020017f0ca87dc9b1b7f6d50e88661e5d26563d711cd303d1cfd4c41a9f570c59fe3bc6815250815260200160408051908101604052807f087026b1d11d41c57704d49dcc7f06ca45bd645410bcf176625dc1e3fd67090c81526020017f017f53b7486693313c0bcc3b6a2538cc1a56cd56579a7c051779acadb229040e81525081525091506108c684610cf3565b90506108e36108d484610d7f565b6108dc610e1a565b838561116c565b94505050505090565b6000806108f7611358565b6108ff611372565b610907611372565b61090f611386565b610917611386565b61091f611358565b610927611358565b61092f6113ad565b6109376113c1565b6002995060408051908101604052807f11a77de18b1d616eee1ba5335d541ab6b0214bddea809091251fb2f157c93d0081526020017f0c187d7df8f92f38958e0902b612d5c58874b4380d97e91b6e9c12424de8563081525098506101c0604051908101604052806101948152602001611636610194913997506101c06040519081016040528061019481526020016114a261019491399650604080519081016040528060408051908101604052807f224e256f32533cdb3d10e255f40c75b971ad71e1974332a145b523cd1fa5382981526020017f2ab94d907ffd43b92d2d59cd2dc9f277b1dce25112266aa19db9c4af76a43fee815250815260200160408051908101604052807f24976833c58227908501c809826de16eddc884a91369c74647201ad0b1e7c0c081526020017f16733bd92e16d83797dd6378b9cf1d0d6778d12671a8b50144808fceaad9de428152508152509550604080519081016040528060408051908101604052807f1f3aaf10e5e6318ea80a7341bfa157f4daca46e6cc208e27ad81b2238f3b181381526020017f18117401001ec3ab7863213a8887af00ea653fb8550e43aad6149b91cbcff1b8815250815260200160408051908101604052807f1dd5b5f34e47636f307cfa799ccd2a67f8e87272d7e31655f99aa77976bc997081526020017f17649c399e0a257293f4554f1d12107950846cd39e9882c1205d8e4d20eb6c8b8152508152509450610b5788610cf3565b9350610b6287610cf3565b925060018a01604051805910610b755750595b908082528060200260200182016040528015610bab57816020015b610b986113d5565b815260200190600190039081610b905790505b50915060018a01604051805910610bbf5750595b908082528060200260200182016040528015610bf557816020015b610be26113ef565b815260200190600190039081610bda5790505b509050610c0189610d7f565b826000815181101515610c1057fe5b9060200190602002018190525083826001815181101515610c2d57fe5b9060200190602002018190525082826002815181101515610c4a57fe5b90602001906020020181905250610c5f610e1a565b816000815181101515610c6e57fe5b9060200190602002018190525085816001815181101515610c8b57fe5b9060200190602002018190525084816002815181101515610ca857fe5b90602001906020020181905250610cbf8282610ee4565b9a505050505050505050505090565b600080600a9150600090505b81811015610cef578080600101915050610cda565b5050565b610cfb611358565b6000826040518082805190602001908083835b602083101515610d335780518252602082019150602081019050602083039250610d0e565b6001836020036101000a0380198251168184511680821785525050505050509050019150506040518091039020600190049050610d77610d71611298565b826112bc565b915050919050565b610d87611358565b60007f30644e72e131a029b85045b68181585d97816a916871ca8d3c208c16d87cfd47905060008360000151148015610dc4575060008360200151145b15610de75760408051908101604052806000815260200160008152509150610e14565b604080519081016040528084600001518152602001828560200151811515610e0b57fe5b06830381525091505b50919050565b610e22611386565b604080519081016040528060408051908101604052807f198e9393920d483a7260bfb731fb5d25f1aa493335a9e71297e485b7aef312c281526020017f1800deef121f1e76426a00665e5c4479674322d4f75edadd46debd5cd992f6ed815250815260200160408051908101604052807f090689d0585ff075ec9e99ad690c3395bc4b313370b38ef355acdadcd122975b81526020017f12c85ea5db8c6deb4aab71808dcb408fe3d1e7690c43d37b4ce6cc0166fa7daa815250815250905090565b6000806000610ef1611416565b6000610efb61142a565b600087518951141515610f0d57600080fd5b8851955060068602945084604051805910610f255750595b90808252806020026020018201604052509350600092505b85831015611112578883815181101515610f5357fe5b90602001906020020151600001518460006006860201815181101515610f7557fe5b90602001906020020181815250508883815181101515610f9157fe5b90602001906020020151602001518460016006860201815181101515610fb357fe5b90602001906020020181815250508783815181101515610fcf57fe5b90602001906020020151600001516000600281101515610feb57fe5b6020020151846002600686020181518110151561100457fe5b9060200190602002018181525050878381518110151561102057fe5b9060200190602002015160000151600160028110151561103c57fe5b6020020151846003600686020181518110151561105557fe5b9060200190602002018181525050878381518110151561107157fe5b9060200190602002015160200151600060028110151561108d57fe5b602002015184600460068602018151811015156110a657fe5b906020019060200201818152505087838151811015156110c257fe5b906020019060200201516020015160016002811015156110de57fe5b602002015184600560068602018151811015156110f757fe5b90602001906020020181815250508280600101935050610f3d565b6020826020870260208701600060086107d05a03f19050806000811461113757611139565bfe5b5080151561114657600080fd5b600082600060018110151561115757fe5b60200201511415965050505050505092915050565b60006111766113ad565b61117e6113c1565b600260405180591061118d5750595b9080825280602002602001820160405280156111c357816020015b6111b06113d5565b8152602001906001900390816111a85790505b50915060026040518059106111d55750595b90808252806020026020018201604052801561120b57816020015b6111f86113ef565b8152602001906001900390816111f05790505b5090508682600081518110151561121e57fe5b906020019060200201819052508482600181518110151561123b57fe5b906020019060200201819052508581600081518110151561125857fe5b906020019060200201819052508381600181518110151561127557fe5b9060200190602002018190525061128c8282610ee4565b92505050949350505050565b6112a0611358565b6040805190810160405280600181526020016002815250905090565b6112c4611358565b6112cc611452565b600084600001518260006003811015156112e257fe5b60200201818152505084602001518260016003811015156112ff57fe5b6020020181815250508382600260038110151561131857fe5b602002018181525050606083608084600060076107d05a03f19050806000811461134157611343565bfe5b5080151561135057600080fd5b505092915050565b604080519081016040528060008152602001600081525090565b602060405190810160405280600081525090565b60806040519081016040528061139a61147a565b81526020016113a761147a565b81525090565b602060405190810160405280600081525090565b602060405190810160405280600081525090565b604080519081016040528060008152602001600081525090565b60806040519081016040528061140361147a565b815260200161141061147a565b81525090565b602060405190810160405280600081525090565b6020604051908101604052806001905b600081526020019060019003908161143a5790505090565b6060604051908101604052806003905b60008152602001906001900390816114625790505090565b60408051908101604052806002905b6000815260200190600190039081611489579050509056007b0a2020226f70656e223a207b0a20202020227072696365223a2039353931372c0a202020202274696d65223a207b0a20202020202022756e6978223a20313438333134323430302c0a2020202020202269736f223a2022323031362d31322d33315430303a30303a30302e3030305a220a202020207d0a20207d2c0a202022636c6f7365223a207b0a20202020227072696365223a2039363736302c0a202020202274696d65223a207b0a20202020202022756e6978223a20313438333232383830302c0a2020202020202269736f223a2022323031372d30312d30315430303a30303a30302e3030305a220a202020207d0a20207d2c0a2020226c6f6f6b7570223a207b0a20202020227072696365223a2039363736302c0a20202020226b223a20312c0a202020202274696d65223a207b0a20202020202022756e6978223a20313438333232383830302c0a2020202020202269736f223a2022323031372d30312d30315430303a30303a30302e3030305a220a202020207d0a20207d0a7d0a6578616d706c652e636f6d2f6170692f317b0a2020226f70656e223a207b0a20202020227072696365223a2039353931372c0a202020202274696d65223a207b0a20202020202022756e6978223a20313438333134323430302c0a2020202020202269736f223a2022323031362d31322d33315430303a30303a30302e3030305a220a202020207d0a20207d2c0a202022636c6f7365223a207b0a20202020227072696365223a2039363736302c0a202020202274696d65223a207b0a20202020202022756e6978223a20313438333232383830302c0a2020202020202269736f223a2022323031372d30312d30315430303a30303a30302e3030305a220a202020207d0a20207d2c0a2020226c6f6f6b7570223a207b0a20202020227072696365223a2039363736302c0a20202020226b223a20312c0a202020202274696d65223a207b0a20202020202022756e6978223a20313438333232383830302c0a2020202020202269736f223a2022323031372d30312d30315430303a30303a30302e3030305a220a202020207d0a20207d0a7d0a6578616d706c652e636f6d2f6170692f307b0a2020226f70656e223a207b0a20202020227072696365223a2039353931372c0a202020202274696d65223a207b0a20202020202022756e6978223a20313438333134323430302c0a2020202020202269736f223a2022323031362d31322d33315430303a30303a30302e3030305a220a202020207d0a20207d2c0a202022636c6f7365223a207b0a20202020227072696365223a2039363736302c0a202020202274696d65223a207b0a20202020202022756e6978223a20313438333232383830302c0a2020202020202269736f223a2022323031372d30312d30315430303a30303a30302e3030305a220a202020207d0a20207d2c0a2020226c6f6f6b7570223a207b0a20202020227072696365223a2039363736302c0a20202020226b223a20312c0a202020202274696d65223a207b0a20202020202022756e6978223a20313438333232383830302c0a2020202020202269736f223a2022323031372d30312d30315430303a30303a30302e3030305a220a202020207d0a20207d0a7d0a6578616d706c652e636f6d2f6170692f32a165627a7a72305820ec6f399827108f231a675800db58d5fc9374af7add82c270164d63a87a88443c0029",
  "source": "pragma solidity ^0.4.14;\n\n\n//https://github.com/jstoxrocky/zksnarks_example\ncontract BGLS {\n\n    struct G1Point {\n        uint X;\n        uint Y;\n    }\n    // Encoding of field elements is: X[0] * z + X[1]\n    struct G2Point {\n        uint[2] X;\n        uint[2] Y;\n    }\n\n    /// @return the generator of G1\n    function P1() internal returns (G1Point) {\n        return G1Point(1, 2);\n    }\n\n    /// @return the generator of G2\n    function P2() internal returns (G2Point) {\n        return G2Point(\n            [11559732032986387107991004021392285783925812861821192530917403151452391805634,\n            10857046999023057135944570762232829481370756359578518086990519993285655852781],\n\n            [4082367875863433681332203403145435568316851327593401208105741076214120093531,\n            8495653923123431417604973247489272438418190587263600148770280649306958101930]\n        );\n    }\n\n    /**\n    This method is used to measure only the transaction costs\n    */\n    function doNothing(uint[] _sig, bytes _messages) returns (bool) {\n        return true;\n    }\n\n    /**\n    This method is used to measure only the storage costs\n    */\n    uint32 counter = 0;\n    mapping(uint32 => uint[]) sig_storage;\n    mapping(uint32 => bytes) msg_storage;\n    function store() {\n\n        uint n = 1; //NOTE: change this parameter to set the number of messages signatures that will be stored\n\n        for (uint i = 0; i < n; i++) {\n            //msg_storage[counter] = message;\n            //sig_storage[counter] = getSignature(i);\n\n            counter = counter + 1;\n        }\n    }\n\n    /**\n    This method is used to measure only the verification costs\n    */\n    function sendNothing() {\n        uint n = 10; //NOTE: change this parameter to set the amount of signatures that will be verified\n\n        for (uint i = 0; i < n; i++) {\n            //verifyBGLS(message, getSignature(i), e, getModulus(i));\n        }\n    }\n\n    function verifyBGLS(G1Point signature, bytes[] messages ) internal returns (bool) {\n\n        uint numberOfSigners = 2;\n\n        //G1Point memory signature = G1Point(7985250684665362734034207174567341000146996823387166378141631317099216977152, 5471024627060516972461571110176333017668072838695251726406965080926450112048);\n\n        //bytes memory message0 = hex\"7b0a2020226f70656e223a207b0a20202020227072696365223a2039353931372c0a202020202274696d65223a207b0a20202020202022756e6978223a20313438333134323430302c0a2020202020202269736f223a2022323031362d31322d33315430303a30303a30302e3030305a220a202020207d0a20207d2c0a202022636c6f7365223a207b0a20202020227072696365223a2039363736302c0a202020202274696d65223a207b0a20202020202022756e6978223a20313438333232383830302c0a2020202020202269736f223a2022323031372d30312d30315430303a30303a30302e3030305a220a202020207d0a20207d2c0a2020226c6f6f6b7570223a207b0a20202020227072696365223a2039363736302c0a20202020226b223a20312c0a202020202274696d65223a207b0a20202020202022756e6978223a20313438333232383830302c0a2020202020202269736f223a2022323031372d30312d30315430303a30303a30302e3030305a220a202020207d0a20207d0a7d0a6578616d706c652e636f6d2f6170692f30\";\n        //bytes memory message1 = hex\"7b0a2020226f70656e223a207b0a20202020227072696365223a2039353931372c0a202020202274696d65223a207b0a20202020202022756e6978223a20313438333134323430302c0a2020202020202269736f223a2022323031362d31322d33315430303a30303a30302e3030305a220a202020207d0a20207d2c0a202022636c6f7365223a207b0a20202020227072696365223a2039363736302c0a202020202274696d65223a207b0a20202020202022756e6978223a20313438333232383830302c0a2020202020202269736f223a2022323031372d30312d30315430303a30303a30302e3030305a220a202020207d0a20207d2c0a2020226c6f6f6b7570223a207b0a20202020227072696365223a2039363736302c0a20202020226b223a20312c0a202020202274696d65223a207b0a20202020202022756e6978223a20313438333232383830302c0a2020202020202269736f223a2022323031372d30312d30315430303a30303a30302e3030305a220a202020207d0a20207d0a7d0a6578616d706c652e636f6d2f6170692f31\";\n\n        bytes memory message0 = messages[0];\n        bytes memory message1 = messages[1];\n\n        G2Point memory v0 = G2Point(\n            [15516709285352539082439213720585739724329002971882390582209636960597958801449, 19324541677661060388134143597417835654030498723817274130329567224531700170734],\n            [16550775633156536193089672538964908973667410921848053632462693002610771214528, 10154483139478025296468271477739414260393126999813603835827647034319242387010]\n        );\n\n        G2Point memory v1 = G2Point(\n            [14125383697019450293340447180826714775062600193406387386692146468060627933203, 10886345395648455940547500614900453787797209052692168129177801883734751834552],\n            [13494666809312056575532152175382485778895768300692817869062640713829304801648, 10580958449683540742032499469496205826101096579572266360455646078388895706251]\n        );\n\n        G1Point memory h0 = hashToG1(message0);\n        G1Point memory h1 = hashToG1(message1);\n\n        G1Point[] memory a = new G1Point[](numberOfSigners + 1);\n        G2Point[] memory b = new G2Point[](numberOfSigners + 1);\n        a[0] = negate(signature);\n        a[1] = h0;\n        a[2] = h1;\n        b[0] = P2();\n        b[1] = v0;\n        b[2] = v1;\n\n        return pairing(a, b);\n    }\n\n    function verifyBGLS2() returns (bool) {\n\n        uint numberOfSigners = 2;\n\n        G1Point memory signature = G1Point(7985250684665362734034207174567341000146996823387166378141631317099216977152, 5471024627060516972461571110176333017668072838695251726406965080926450112048);\n\n        bytes memory message0 = hex\"7b0a2020226f70656e223a207b0a20202020227072696365223a2039353931372c0a202020202274696d65223a207b0a20202020202022756e6978223a20313438333134323430302c0a2020202020202269736f223a2022323031362d31322d33315430303a30303a30302e3030305a220a202020207d0a20207d2c0a202022636c6f7365223a207b0a20202020227072696365223a2039363736302c0a202020202274696d65223a207b0a20202020202022756e6978223a20313438333232383830302c0a2020202020202269736f223a2022323031372d30312d30315430303a30303a30302e3030305a220a202020207d0a20207d2c0a2020226c6f6f6b7570223a207b0a20202020227072696365223a2039363736302c0a20202020226b223a20312c0a202020202274696d65223a207b0a20202020202022756e6978223a20313438333232383830302c0a2020202020202269736f223a2022323031372d30312d30315430303a30303a30302e3030305a220a202020207d0a20207d0a7d0a6578616d706c652e636f6d2f6170692f30\";\n        bytes memory message1 = hex\"7b0a2020226f70656e223a207b0a20202020227072696365223a2039353931372c0a202020202274696d65223a207b0a20202020202022756e6978223a20313438333134323430302c0a2020202020202269736f223a2022323031362d31322d33315430303a30303a30302e3030305a220a202020207d0a20207d2c0a202022636c6f7365223a207b0a20202020227072696365223a2039363736302c0a202020202274696d65223a207b0a20202020202022756e6978223a20313438333232383830302c0a2020202020202269736f223a2022323031372d30312d30315430303a30303a30302e3030305a220a202020207d0a20207d2c0a2020226c6f6f6b7570223a207b0a20202020227072696365223a2039363736302c0a20202020226b223a20312c0a202020202274696d65223a207b0a20202020202022756e6978223a20313438333232383830302c0a2020202020202269736f223a2022323031372d30312d30315430303a30303a30302e3030305a220a202020207d0a20207d0a7d0a6578616d706c652e636f6d2f6170692f31\";\n\n        G2Point memory v0 = G2Point(\n            [15516709285352539082439213720585739724329002971882390582209636960597958801449, 19324541677661060388134143597417835654030498723817274130329567224531700170734],\n            [16550775633156536193089672538964908973667410921848053632462693002610771214528, 10154483139478025296468271477739414260393126999813603835827647034319242387010]\n        );\n\n        G2Point memory v1 = G2Point(\n            [14125383697019450293340447180826714775062600193406387386692146468060627933203, 10886345395648455940547500614900453787797209052692168129177801883734751834552],\n            [13494666809312056575532152175382485778895768300692817869062640713829304801648, 10580958449683540742032499469496205826101096579572266360455646078388895706251]\n        );\n\n        G1Point memory h0 = hashToG1(message0);\n        G1Point memory h1 = hashToG1(message1);\n\n        G1Point[] memory a = new G1Point[](numberOfSigners + 1);\n        G2Point[] memory b = new G2Point[](numberOfSigners + 1);\n        a[0] = negate(signature);\n        a[1] = h0;\n        a[2] = h1;\n        b[0] = P2();\n        b[1] = v0;\n        b[2] = v1;\n\n        return pairing(a, b);\n    }\n\n    function verifyBGLS3() returns (bool) {\n\n        uint numberOfSigners = 3;\n\n        G1Point memory signature = G1Point(385846518441062319503502284295243290270560187383398932887791670182362540842, 19731933537428695151702009864745685458233056709189425720845387511061953267292);\n\n        bytes memory message0 = hex\"7b0a2020226f70656e223a207b0a20202020227072696365223a2039353931372c0a202020202274696d65223a207b0a20202020202022756e6978223a20313438333134323430302c0a2020202020202269736f223a2022323031362d31322d33315430303a30303a30302e3030305a220a202020207d0a20207d2c0a202022636c6f7365223a207b0a20202020227072696365223a2039363736302c0a202020202274696d65223a207b0a20202020202022756e6978223a20313438333232383830302c0a2020202020202269736f223a2022323031372d30312d30315430303a30303a30302e3030305a220a202020207d0a20207d2c0a2020226c6f6f6b7570223a207b0a20202020227072696365223a2039363736302c0a20202020226b223a20312c0a202020202274696d65223a207b0a20202020202022756e6978223a20313438333232383830302c0a2020202020202269736f223a2022323031372d30312d30315430303a30303a30302e3030305a220a202020207d0a20207d0a7d0a6578616d706c652e636f6d2f6170692f30\";\n        bytes memory message1 = hex\"7b0a2020226f70656e223a207b0a20202020227072696365223a2039353931372c0a202020202274696d65223a207b0a20202020202022756e6978223a20313438333134323430302c0a2020202020202269736f223a2022323031362d31322d33315430303a30303a30302e3030305a220a202020207d0a20207d2c0a202022636c6f7365223a207b0a20202020227072696365223a2039363736302c0a202020202274696d65223a207b0a20202020202022756e6978223a20313438333232383830302c0a2020202020202269736f223a2022323031372d30312d30315430303a30303a30302e3030305a220a202020207d0a20207d2c0a2020226c6f6f6b7570223a207b0a20202020227072696365223a2039363736302c0a20202020226b223a20312c0a202020202274696d65223a207b0a20202020202022756e6978223a20313438333232383830302c0a2020202020202269736f223a2022323031372d30312d30315430303a30303a30302e3030305a220a202020207d0a20207d0a7d0a6578616d706c652e636f6d2f6170692f31\";\n        bytes memory message2 = hex\"7b0a2020226f70656e223a207b0a20202020227072696365223a2039353931372c0a202020202274696d65223a207b0a20202020202022756e6978223a20313438333134323430302c0a2020202020202269736f223a2022323031362d31322d33315430303a30303a30302e3030305a220a202020207d0a20207d2c0a202022636c6f7365223a207b0a20202020227072696365223a2039363736302c0a202020202274696d65223a207b0a20202020202022756e6978223a20313438333232383830302c0a2020202020202269736f223a2022323031372d30312d30315430303a30303a30302e3030305a220a202020207d0a20207d2c0a2020226c6f6f6b7570223a207b0a20202020227072696365223a2039363736302c0a20202020226b223a20312c0a202020202274696d65223a207b0a20202020202022756e6978223a20313438333232383830302c0a2020202020202269736f223a2022323031372d30312d30315430303a30303a30302e3030305a220a202020207d0a20207d0a7d0a6578616d706c652e636f6d2f6170692f32\";\n\n        G2Point memory v0 = G2Point(\n            [1787282038370667094324364195810339512415273589223814213215040505578200405366, 414568866548933554513940840943382696902163788831396286279770126458218272940],\n            [6560020551439455112781785895092032589010633560844445112872109862153018855017, 19411093226570397520343120724285433000937737461010544490862811136406407315543]\n        );\n\n        G2Point memory v1 = G2Point(\n            [14831125462625540363404323739936082597729714855858291605999144010730542058037, 8342129546329626371616639780890580451066604883761980695690870205390518348707],\n            [808186590373043742842665711030588185456231663895663328011864547134240543671, 1856705676948889458735296604372981546875220644939188415241687241562401814459]\n        );\n\n        G2Point memory v2 = G2Point(\n            [12507030828714819990408995725310388936101611986473926829733453468215798265704, 16402225253711577242710704509153100189802817297679524801952098990526969620006],\n            [18717845356690477533392378472300056893077745517009561191866660997312973511514, 20124563173642533900823905467925868861151292863229012000403558815142682516349]\n        );\n\n        G1Point memory h0 = hashToG1(message0);\n        G1Point memory h1 = hashToG1(message1);\n        G1Point memory h2 = hashToG1(message2);\n\n        G1Point[] memory a = new G1Point[](numberOfSigners + 1);\n        G2Point[] memory b = new G2Point[](numberOfSigners + 1);\n        a[0] = negate(signature);\n        a[1] = h0;\n        a[2] = h1;\n        a[3] = h2;\n        b[0] = P2();\n        b[1] = v0;\n        b[2] = v1;\n        b[3] = v2;\n\n        return pairing(a, b);\n    }\n\n    /// @return the result of computing the pairing check\n    /// e(p1[0], p2[0]) *  .... * e(p1[n], p2[n]) == 1\n    /// For example pairing([P1(), P1().negate()], [P2(), P2()]) should\n    /// return true.\n    function pairing(G1Point[] p1, G2Point[] p2) internal returns (bool) {\n        require(p1.length == p2.length);\n        uint elements = p1.length;\n        uint inputSize = elements * 6;\n        uint[] memory input = new uint[](inputSize);\n\n        for (uint i = 0; i < elements; i++)\n        {\n            input[i * 6 + 0] = p1[i].X;\n            input[i * 6 + 1] = p1[i].Y;\n            input[i * 6 + 2] = p2[i].X[0];\n            input[i * 6 + 3] = p2[i].X[1];\n            input[i * 6 + 4] = p2[i].Y[0];\n            input[i * 6 + 5] = p2[i].Y[1];\n        }\n\n        uint[1] memory out;\n        bool success;\n\n        assembly {\n            success := call(sub(gas, 2000), 8, 0, add(input, 0x20), mul(inputSize, 0x20), out, 0x20)\n        // Use \"invalid\" to make gas estimation work\n            switch success case 0 {invalid}\n        }\n        require(success);\n        return out[0] != 0;\n    }\n\n    /// Convenience method for a pairing check for two pairs.\n    function pairing2(G1Point a1, G2Point a2, G1Point b1, G2Point b2) internal returns (bool) {\n        G1Point[] memory p1 = new G1Point[](2);\n        G2Point[] memory p2 = new G2Point[](2);\n        p1[0] = a1;\n        p1[1] = b1;\n        p2[0] = a2;\n        p2[1] = b2;\n        return pairing(p1, p2);\n    }\n\n    function hashToG1(bytes message) internal returns (G1Point) {\n        uint256 h = uint256(keccak256(message));\n        return mul(P1(), h);\n    }\n\n    function modPow(uint256 base, uint256 exponent, uint256 modulus) internal returns (uint256) {\n        uint256[6] memory input = [32, 32, 32, base, exponent, modulus];\n        uint256[1] memory result;\n        assembly {\n            if iszero(call(not(0), 0x05, 0, input, 0xc0, result, 0x20)) {\n                revert(0, 0)\n            }\n        }\n        return result[0];\n    }\n\n    /// @return the negation of p, i.e. p.add(p.negate()) should be zero.\n    function negate(G1Point p) internal returns (G1Point) {\n        // The prime q in the base field F_q for G1\n        uint q = 21888242871839275222246405745257275088696311157297823662689037894645226208583;\n        if (p.X == 0 && p.Y == 0)\n            return G1Point(0, 0);\n        return G1Point(p.X, q - (p.Y % q));\n    }\n\n    /// @return the sum of two points of G1\n    function add(G1Point p1, G1Point p2) internal returns (G1Point r) {\n        uint[4] memory input;\n        input[0] = p1.X;\n        input[1] = p1.Y;\n        input[2] = p2.X;\n        input[3] = p2.Y;\n        bool success;\n        assembly {\n            success := call(sub(gas, 2000), 6, 0, input, 0xc0, r, 0x60)\n        // Use \"invalid\" to make gas estimation work\n            switch success case 0 {invalid}\n        }\n        require(success);\n    }\n    /// @return the product of a point on G1 and a scalar, i.e.\n    /// p == p.mul(1) and p.add(p) == p.mul(2) for all points p.\n    function mul(G1Point p, uint s) internal returns (G1Point r) {\n        uint[3] memory input;\n        input[0] = p.X;\n        input[1] = p.Y;\n        input[2] = s;\n        bool success;\n        assembly {\n            success := call(sub(gas, 2000), 7, 0, input, 0x80, r, 0x60)\n        // Use \"invalid\" to make gas estimation work\n            switch success case 0 {invalid}\n        }\n        require(success);\n    }\n\n    /*function getSignature(uint i) view internal returns (bytes) {\n        if (i == 0) {\n            return signature0;\n        } else if (i == 1) {\n            return signature1;\n        } else if (i == 2) {\n            return signature2;\n        } else if (i == 3) {\n            return signature3;\n        } else if (i == 4) {\n            return signature4;\n        } else if (i == 5) {\n            return signature5;\n        } else if (i == 6) {\n            return signature6;\n        } else if (i == 7) {\n            return signature7;\n        } else if (i == 8) {\n            return signature8;\n        } else if (i == 9) {\n            return signature9;\n        }\n    }*/\n\n    function verifyBLS() returns (bool) {\n\n        bytes memory message = hex\"7b0a2020226f70656e223a207b0a20202020227072696365223a2039353931372c0a202020202274696d65223a207b0a20202020202022756e6978223a20313438333134323430302c0a2020202020202269736f223a2022323031362d31322d33315430303a30303a30302e3030305a220a202020207d0a20207d2c0a202022636c6f7365223a207b0a20202020227072696365223a2039363736302c0a202020202274696d65223a207b0a20202020202022756e6978223a20313438333232383830302c0a2020202020202269736f223a2022323031372d30312d30315430303a30303a30302e3030305a220a202020207d0a20207d2c0a2020226c6f6f6b7570223a207b0a20202020227072696365223a2039363736302c0a20202020226b223a20312c0a202020202274696d65223a207b0a20202020202022756e6978223a20313438333232383830302c0a2020202020202269736f223a2022323031372d30312d30315430303a30303a30302e3030305a220a202020207d0a20207d0a7d0a6578616d706c652e636f6d2f6170692f31\";\n\n        G1Point memory signature = G1Point(11181692345848957662074290878138344227085597134981019040735323471731897153462, 6479746447046570360435714249272776082787932146211764251347798668447381926167);\n\n        G2Point memory v = G2Point(\n            [18523194229674161632574346342370534213928970227736813349975332190798837787897, 5725452645840548248571879966249653216818629536104756116202892528545334967238],\n            [3816656720215352836236372430537606984911914992659540439626020770732736710924, 677280212051826798882467475639465784259337739185938192379192340908771705870]\n        );\n\n        G1Point memory h = hashToG1(message);\n\n        return pairing2(negate(signature), P2(), h, v);\n    }\n}\n",
  "sourcePath": "/home/bjorn/Projects/BGRVerify/contracts/BGLS.sol",
  "compiler": {
    "name": "solc",
    "version": "0.4.21+commit.dfe3193c.Emscripten.clang"
  },
  "schemaVersion": "2.0.0",
  "updatedAt": "2018-06-21T12:16:33.346Z"
}