{
  "contractName": "BGR",
  "abi": [
    {
      "constant": false,
      "inputs": [
        {
          "name": "data",
          "type": "bytes"
        },
        {
          "name": "x",
          "type": "bytes"
        },
        {
          "name": "h",
          "type": "bytes32"
        },
        {
          "name": "b",
          "type": "bool[]"
        },
        {
          "name": "r",
          "type": "bytes16[]"
        }
      ],
      "name": "doNothing",
      "outputs": [
        {
          "name": "",
          "type": "bool"
        }
      ],
      "payable": false,
      "stateMutability": "nonpayable",
      "type": "function"
    },
    {
      "constant": false,
      "inputs": [
        {
          "name": "data",
          "type": "bytes"
        },
        {
          "name": "x",
          "type": "bytes"
        },
        {
          "name": "h",
          "type": "bytes32"
        },
        {
          "name": "b",
          "type": "bool[]"
        },
        {
          "name": "r",
          "type": "bytes16[]"
        }
      ],
      "name": "verify",
      "outputs": [
        {
          "name": "",
          "type": "bool"
        }
      ],
      "payable": false,
      "stateMutability": "nonpayable",
      "type": "function"
    }
  ],
  "bytecode": "0x6060604052610140604051908101604052806040805190810160405280601181526020017f6578616d706c652e636f6d2f6170692f3000000000000000000000000000000081525081526020016040805190810160405280601181526020017f6578616d706c652e636f6d2f6170692f3100000000000000000000000000000081525081526020016040805190810160405280601181526020017f6578616d706c652e636f6d2f6170692f3200000000000000000000000000000081525081526020016040805190810160405280601181526020017f6578616d706c652e636f6d2f6170692f3300000000000000000000000000000081525081526020016040805190810160405280601181526020017f6578616d706c652e636f6d2f6170692f3400000000000000000000000000000081525081526020016040805190810160405280601181526020017f6578616d706c652e636f6d2f6170692f3500000000000000000000000000000081525081526020016040805190810160405280601181526020017f6578616d706c652e636f6d2f6170692f3600000000000000000000000000000081525081526020016040805190810160405280601181526020017f6578616d706c652e636f6d2f6170692f3700000000000000000000000000000081525081526020016040805190810160405280601181526020017f6578616d706c652e636f6d2f6170692f3800000000000000000000000000000081525081526020016040805190810160405280601181526020017f6578616d706c652e636f6d2f6170692f39000000000000000000000000000000815250815250600090600a6200026f929190620004d4565b506101c06040519081016040528061018381526020016200270f610183913960019080519060200190620002a59291906200053b565b506101206040519081016040528061010081526020016200240f610100913960029080519060200190620002db9291906200053b565b5061012060405190810160405280610100815260200162002b92610100913960039080519060200190620003119291906200053b565b5061012060405190810160405280610100815260200162002892610100913960049080519060200190620003479291906200053b565b506101206040519081016040528061010081526020016200260f6101009139600590805190602001906200037d9291906200053b565b5061012060405190810160405280610100815260200162002d92610100913960069080519060200190620003b39291906200053b565b506101206040519081016040528061010081526020016200250f610100913960079080519060200190620003e99291906200053b565b5061012060405190810160405280610100815260200162002c926101009139600890805190602001906200041f9291906200053b565b5061012060405190810160405280610100815260200162002992610100913960099080519060200190620004559291906200053b565b506101206040519081016040528061010081526020016200230f6101009139600a90805190602001906200048b9291906200053b565b5061012060405190810160405280610100815260200162002a926101009139600b9080519060200190620004c19291906200053b565b503415620004ce57600080fd5b620006ee565b82805482825590600052602060002090810192821562000528579160200282015b828111156200052757825182908051906020019062000516929190620005c2565b5091602001919060010190620004f5565b5b50905062000537919062000649565b5090565b828054600181600116156101000203166002900490600052602060002090601f016020900481019282601f106200057e57805160ff1916838001178555620005af565b82800160010185558215620005af579182015b82811115620005ae57825182559160200191906001019062000591565b5b509050620005be91906200067a565b5090565b828054600181600116156101000203166002900490600052602060002090601f016020900481019282601f106200060557805160ff191683800117855562000636565b8280016001018555821562000636579182015b828111156200063557825182559160200191906001019062000618565b5b5090506200064591906200067a565b5090565b6200067791905b80821115620006735760008181620006699190620006a2565b5060010162000650565b5090565b90565b6200069f91905b808211156200069b57600081600090555060010162000681565b5090565b90565b50805460018160011615610100020316600290046000825580601f10620006ca5750620006eb565b601f016020900490600052602060002090810190620006ea91906200067a565b5b50565b611c1180620006fe6000396000f30060606040526004361061004c576000357c0100000000000000000000000000000000000000000000000000000000900463ffffffff1680632beb6b20146100515780636dadf3c014610087575b600080fd5b341561005c57600080fd5b610071600461006c9036906118d0565b6100bd565b60405161007e91906119b6565b60405180910390f35b341561009257600080fd5b6100a760046100a29036906118d0565b6100c4565b6040516100b491906119b6565b60405180910390f35b6000806000fd5b60006100ce611720565b6000806000806100dc611720565b6100e4611720565b8b96508a9550885194506001850393505b600084111561023f5761014561010a8761042e565b61014061012e8a8e8981518110151561011f57fe5b90602001906020020151610523565b6201000161013b8961061c565b610cd8565b610da4565b965061022d6101538561061c565b61015c866112fc565b60008781548110151561016b57fe5b90600052602060002090018054600181600116156101000203166002900480601f01602080910402602001604051908101604052809291908181526020018280546001816001161561010002031660029004801561020a5780601f106101df5761010080835404028352916020019161020a565b820191906000526020600020905b8154815290600101906020018083116101ed57829003601f168201915b50505050508c8881518110151561021d57fe5b906020019060200201518b6113a6565b861895508380600190039450506100f5565b61032761024c600061061c565b61025660006112fc565b60008081548110151561026557fe5b90600052602060002090018054600181600116156101000203166002900480601f0160208091040260200160405190810160405280929190818152602001828054600181600116156101000203166002900480156103045780601f106102d957610100808354040283529160200191610304565b820191906000526020600020905b8154815290600101906020018083116102e757829003601f168201915b50505050508c600081518110151561031857fe5b90602001906020020151611543565b92506103328661042e565b91506103fd610359888c600081518110151561034a57fe5b90602001906020020151610523565b6201000160028054600181600116156101000203166002900480601f0160208091040260200160405190810160405280929190818152602001828054600181600116156101000203166002900480156103f35780601f106103c8576101008083540402835291602001916103f3565b820191906000526020600020905b8154815290600101906020018083116103d657829003601f168201915b5050505050610cd8565b90508560001916836000191614801561041c575061041b828261168a565b5b97505050505050505095945050505050565b610436611720565b6000610440611720565b60008460405180826000191660001916815260200191505060405180910390209250610120604051908101604052806101008152602001611ad861010091399150600190505b610100811015610518578260208281151561049d57fe5b066020811015156104aa57fe5b1a7f01000000000000000000000000000000000000000000000000000000000000000282828151811015156104db57fe5b9060200101907effffffffffffffffffffffffffffffffffffffffffffffffffffffffffffff1916908160001a9053508080600101915050610486565b819350505050919050565b61052b611720565b811561061357608083600081518110151561054257fe5b9060200101517f010000000000000000000000000000000000000000000000000000000000000090047f0100000000000000000000000000000000000000000000000000000000000000027f01000000000000000000000000000000000000000000000000000000000000009004017f0100000000000000000000000000000000000000000000000000000000000000028360008151811015156105e257fe5b9060200101907effffffffffffffffffffffffffffffffffffffffffffffffffffffffffffff1916908160001a9053505b82905092915050565b610624611720565b60008214156106cf5760028054600181600116156101000203166002900480601f0160208091040260200160405190810160405280929190818152602001828054600181600116156101000203166002900480156106c35780601f10610698576101008083540402835291602001916106c3565b820191906000526020600020905b8154815290600101906020018083116106a657829003601f168201915b50505050509050610cd3565b600182141561077a5760038054600181600116156101000203166002900480601f01602080910402602001604051908101604052809291908181526020018280546001816001161561010002031660029004801561076e5780601f106107435761010080835404028352916020019161076e565b820191906000526020600020905b81548152906001019060200180831161075157829003601f168201915b50505050509050610cd3565b60028214156108255760048054600181600116156101000203166002900480601f0160208091040260200160405190810160405280929190818152602001828054600181600116156101000203166002900480156108195780601f106107ee57610100808354040283529160200191610819565b820191906000526020600020905b8154815290600101906020018083116107fc57829003601f168201915b50505050509050610cd3565b60038214156108d05760058054600181600116156101000203166002900480601f0160208091040260200160405190810160405280929190818152602001828054600181600116156101000203166002900480156108c45780601f10610899576101008083540402835291602001916108c4565b820191906000526020600020905b8154815290600101906020018083116108a757829003601f168201915b50505050509050610cd3565b600482141561097b5760068054600181600116156101000203166002900480601f01602080910402602001604051908101604052809291908181526020018280546001816001161561010002031660029004801561096f5780601f106109445761010080835404028352916020019161096f565b820191906000526020600020905b81548152906001019060200180831161095257829003601f168201915b50505050509050610cd3565b6005821415610a265760078054600181600116156101000203166002900480601f016020809104026020016040519081016040528092919081815260200182805460018160011615610100020316600290048015610a1a5780601f106109ef57610100808354040283529160200191610a1a565b820191906000526020600020905b8154815290600101906020018083116109fd57829003601f168201915b50505050509050610cd3565b6006821415610ad15760088054600181600116156101000203166002900480601f016020809104026020016040519081016040528092919081815260200182805460018160011615610100020316600290048015610ac55780601f10610a9a57610100808354040283529160200191610ac5565b820191906000526020600020905b815481529060010190602001808311610aa857829003601f168201915b50505050509050610cd3565b6007821415610b7c5760098054600181600116156101000203166002900480601f016020809104026020016040519081016040528092919081815260200182805460018160011615610100020316600290048015610b705780601f10610b4557610100808354040283529160200191610b70565b820191906000526020600020905b815481529060010190602001808311610b5357829003601f168201915b50505050509050610cd3565b6008821415610c2757600a8054600181600116156101000203166002900480601f016020809104026020016040519081016040528092919081815260200182805460018160011615610100020316600290048015610c1b5780601f10610bf057610100808354040283529160200191610c1b565b820191906000526020600020905b815481529060010190602001808311610bfe57829003601f168201915b50505050509050610cd3565b6009821415610cd257600b8054600181600116156101000203166002900480601f016020809104026020016040519081016040528092919081815260200182805460018160011615610100020316600290048015610cc65780601f10610c9b57610100808354040283529160200191610cc6565b820191906000526020600020905b815481529060010190602001808311610ca957829003601f168201915b50505050509050610cd3565b5b919050565b610ce0611720565b6000806000610ced611720565b8751935085519250826020856060010101915081604051805910610d0e5750595b9080825280601f01601f1916602001820160405250905082604051805910610d335750595b9080825280601f01601f19166020018201604052509450836020820152602060408201528260608201528684608001820152610d74886000836060886116c7565b610d888660008360208860600101876116c7565b82602086018360208401600060055af150505050509392505050565b610dac611720565b600080600080600080600080610dc0611720565b60008060208d015160208f0151189a5060408d015160408f015118995060608d015160608f015118985060808d015160808f015118975060a08d015160a08f015118965060c08d015160c08f015118955060e08d015160e08f01511894506101008d01516101008f0151189350610100604051805910610e3d5750595b9080825280601f01601f1916602001820160405250925060009150600090505b6020811015610eea578a81602081101515610e7457fe5b1a7f0100000000000000000000000000000000000000000000000000000000000000028383815181101515610ea557fe5b9060200101907effffffffffffffffffffffffffffffffffffffffffffffffffffffffffffff1916908160001a90535081806001019250508080600101915050610e5d565b600090505b6020811015610f7c578981602081101515610f0657fe5b1a7f0100000000000000000000000000000000000000000000000000000000000000028383815181101515610f3757fe5b9060200101907effffffffffffffffffffffffffffffffffffffffffffffffffffffffffffff1916908160001a90535081806001019250508080600101915050610eef565b600090505b602081101561100e578881602081101515610f9857fe5b1a7f0100000000000000000000000000000000000000000000000000000000000000028383815181101515610fc957fe5b9060200101907effffffffffffffffffffffffffffffffffffffffffffffffffffffffffffff1916908160001a90535081806001019250508080600101915050610f81565b600090505b60208110156110a057878160208110151561102a57fe5b1a7f010000000000000000000000000000000000000000000000000000000000000002838381518110151561105b57fe5b9060200101907effffffffffffffffffffffffffffffffffffffffffffffffffffffffffffff1916908160001a90535081806001019250508080600101915050611013565b600090505b60208110156111325786816020811015156110bc57fe5b1a7f01000000000000000000000000000000000000000000000000000000000000000283838151811015156110ed57fe5b9060200101907effffffffffffffffffffffffffffffffffffffffffffffffffffffffffffff1916908160001a905350818060010192505080806001019150506110a5565b600090505b60208110156111c457858160208110151561114e57fe5b1a7f010000000000000000000000000000000000000000000000000000000000000002838381518110151561117f57fe5b9060200101907effffffffffffffffffffffffffffffffffffffffffffffffffffffffffffff1916908160001a90535081806001019250508080600101915050611137565b600090505b60208110156112565784816020811015156111e057fe5b1a7f010000000000000000000000000000000000000000000000000000000000000002838381518110151561121157fe5b9060200101907effffffffffffffffffffffffffffffffffffffffffffffffffffffffffffff1916908160001a905350818060010192505080806001019150506111c9565b600090505b60208110156112e857838160208110151561127257fe5b1a7f01000000000000000000000000000000000000000000000000000000000000000283838151811015156112a357fe5b9060200101907effffffffffffffffffffffffffffffffffffffffffffffffffffffffffffff1916908160001a9053508180600101925050808060010191505061125b565b829b50505050505050505050505092915050565b611304611720565b60018054600181600116156101000203166002900480601f01602080910402602001604051908101604052809291908181526020018280546001816001161561010002031660029004801561139a5780601f1061136f5761010080835404028352916020019161139a565b820191906000526020600020905b81548152906001019060200180831161137d57829003601f168201915b50505050509050919050565b600085858585856040518086805190602001908083835b6020831015156113e257805182526020820191506020810190506020830392506113bd565b6001836020036101000a03801982511681845116808217855250505050505090500185805190602001908083835b6020831015156114355780518252602082019150602081019050602083039250611410565b6001836020036101000a03801982511681845116808217855250505050505090500184805190602001908083835b6020831015156114885780518252602082019150602081019050602083039250611463565b6001836020036101000a038019825116818451168082178552505050505050905001836fffffffffffffffffffffffffffffffff19166fffffffffffffffffffffffffffffffff1916815260100182805190602001908083835b60208310151561150757805182526020820191506020810190506020830392506114e2565b6001836020036101000a038019825116818451168082178552505050505050905001955050505050506040518091039020905095945050505050565b6000848484846040518085805190602001908083835b60208310151561157e5780518252602082019150602081019050602083039250611559565b6001836020036101000a03801982511681845116808217855250505050505090500184805190602001908083835b6020831015156115d157805182526020820191506020810190506020830392506115ac565b6001836020036101000a03801982511681845116808217855250505050505090500183805190602001908083835b60208310151561162457805182526020820191506020810190506020830392506115ff565b6001836020036101000a038019825116818451168082178552505050505050905001826fffffffffffffffffffffffffffffffff19166fffffffffffffffffffffffffffffffff1916815260100194505050505060405180910390209050949350505050565b600080600080845186511415156116a457600093506116be565b855190506020860192506020850191508082208184201493505b50505092915050565b836020018501945081602001830192505b6020811015156116fd57845183526020830192506020850194506020810390506116d8565b6001816020036101000a0380198651168185511680821786525050505050505050565b602060405190810160405280600081525090565b600082601f830112151561174757600080fd5b813561175a611755826119fe565b6119d1565b9150818183526020840193506020810190508385602084028201111561177f57600080fd5b60005b838110156117af5781611795888261183e565b845260208401935060208301925050600181019050611782565b5050505092915050565b600082601f83011215156117cc57600080fd5b81356117df6117da82611a26565b6119d1565b9150818183526020840193506020810190508385602084028201111561180457600080fd5b60005b83811015611834578161181a8882611852565b845260208401935060208301925050600181019050611807565b5050505092915050565b600061184a8235611a86565b905092915050565b600061185e8235611a92565b905092915050565b60006118728235611abe565b905092915050565b600082601f830112151561188d57600080fd5b81356118a061189b82611a4e565b6119d1565b915080825260208301602083018583830111156118bc57600080fd5b6118c7838284611ac8565b50505092915050565b600080600080600060a086880312156118e857600080fd5b600086013567ffffffffffffffff81111561190257600080fd5b61190e8882890161187a565b955050602086013567ffffffffffffffff81111561192b57600080fd5b6119378882890161187a565b945050604061194888828901611866565b935050606086013567ffffffffffffffff81111561196557600080fd5b61197188828901611734565b925050608086013567ffffffffffffffff81111561198e57600080fd5b61199a888289016117b9565b9150509295509295909350565b6119b081611a7a565b82525050565b60006020820190506119cb60008301846119a7565b92915050565b6000604051905081810181811067ffffffffffffffff821117156119f457600080fd5b8060405250919050565b600067ffffffffffffffff821115611a1557600080fd5b602082029050602081019050919050565b600067ffffffffffffffff821115611a3d57600080fd5b602082029050602081019050919050565b600067ffffffffffffffff821115611a6557600080fd5b601f19601f8301169050602081019050919050565b60008115159050919050565b60008115159050919050565b60007fffffffffffffffffffffffffffffffff0000000000000000000000000000000082169050919050565b6000819050919050565b82818337600083830152505050560000000000000000000000000000000000000000000000000000000000000000000000000000000000000000000000000000000000000000000000000000000000000000000000000000000000000000000000000000000000000000000000000000000000000000000000000000000000000000000000000000000000000000000000000000000000000000000000000000000000000000000000000000000000000000000000000000000000000000000000000000000000000000000000000000000000000000000000000000000000000000000000000000000000000000000000000000000000000000000000000000000000000000000000000000000000a265627a7a72305820266a97241caec71bdaa95748fd722351b16676fdd0651f95591e53cfdec33b566c6578706572696d656e74616cf50037b5be3e236c62a3e03d0d993ba5ccfc639620e5237bdc53e7dd52d24a0b7236f3143b16c7ff4d1cf31a5f9c6671f303a1504a50fd91137b4edf5e37fdb672b68ad14ace39d968da3ae3cfb83b1ee0a2550903e98d21b122a6fc34fa5f4ddc1f06fe659ccad06df638abf858019af66e291f84c5f394211764c50cdc46786a30d874cfcd0046e3e5d9ad899eaad543e32a3b1437088b22bbf443332026a1e46c7574713da7d0a6ab0a1822f9fda463c561d8d5d503dde26dfd323c80d8bb6831cfc9872b647d7ced6683125ec816a00e721f65b4aca5e1d861aa50901d9bbb5e9d9266122e39725b2ca7e575d3cbdab5f75a562d586a0b157acf8468757f78ce25cfb816f2802a2f0712795ff0bf5e557dbe22051b165bb59572cc968e54e2d11f2effcd42c2de87c066c48b3e45b1976cdfe0cecc06ce66611995266ac338880597523b8406a6d93b278ebd2198c8815e5a8e275e8f7dc1129eca4ad27e1d1b41aeeacc1f77c9fc4f100dcccd6d0671d54052d771782e5c06144d5d0f13403203c2958a3dba69f8c8a178a5ec9e82c06e69af9ed98502f375b1efa57b2f2a9d2d3b20233d06b62d960d319f1102fdcb6eab142c003410c45e47bbd780d53daa3ed08f5356b174eeaff6ef2370c3315166fecde2c1cd5b4dea99e6d612b7ef436fd3f39999fa15d762fd610e3c35c1f0a5ab42044adf0ab2b43eaa2e8439927a3dd1ad7c55feffeb0d8bae01c0df90381968e3151d2ff65f5d4dc4532453a8e6adcf5fdcf50ff5c090ce62e562dbda88b48983396bb3138e802d45ee7b03b9cd29c992027111771039b4683b06d8b2ad10dccf291b6ed6f817920e99a4e5066ca560a0df409f82b3af0ad9bb631cb634e28dee91d2b249cbdcb77625e6b538ce119e3c16e959dd1135acdb9c3550519ee56c04cd86cd9b5847c4f9a6e99e17b5783a88c447a133533ee68f53bdb961694d629a7080921831dfe185a623fb6e60f3dc0133e68559702ee68f3cc83465d449db44feee7e48cfe4e59fa4334edb52906ed51986bf453e8a623301457457bc16e83d7b2354dd457ee14e6c15279ef613f659dc051e02f69f4b449e425737c22c263c44c6e4e70c54afbb1148550d907b7ef05880b83fac5d2691a3578955f264a2b9b4343e13fa617a2ff38d1719e55bbe002b5a40bfd00744cd40e5ced0c1981d46243181cd2c3c41b8447c368316b4e62b121ff1a5b49278c5765e44c2859fa436c72831c28c00d43467c0fa6ba5a9d928d76283efb1fc91e5b34a3197daedf0e85b491c1150bcb232799f16572e49760327d405fc9f058fce5a9c54f076a1f00c70beb98b557405d1777a86e3c97f36a3bbb6155edf06e604c1db93939c7bf4e1ea042d1907b6c14c0bab0be9cc9085aaa92f6847dad5272afa2b6299ae2c62666e2a38263aed35ce47a6eb5a6fb17b0a2020226f70656e223a207b0a20202020227072696365223a2039353931372c0a202020202274696d65223a207b0a20202020202022756e6978223a20313438333134323430302c0a2020202020202269736f223a2022323031362d31322d33315430303a30303a30302e3030305a220a202020207d0a20207d2c0a202022636c6f7365223a207b0a20202020227072696365223a2039363736302c0a202020202274696d65223a207b0a20202020202022756e6978223a20313438333232383830302c0a2020202020202269736f223a2022323031372d30312d30315430303a30303a30302e3030305a220a202020207d0a20207d2c0a2020226c6f6f6b7570223a207b0a20202020227072696365223a2039363736302c0a20202020226b223a20312c0a202020202274696d65223a207b0a20202020202022756e6978223a20313438333232383830302c0a2020202020202269736f223a2022323031372d30312d30315430303a30303a30302e3030305a220a202020207d0a20207d0a7d0ad3098e76c3ca004ad6482977e00e65d981f1a0bc9acdf6d6b5ae95b4d2751a47057fa363286aa9039b191268a305b656e4980987be0f6f523bda2cf89765ac5bf2ae0a9c5630af56f21bd97f4e91784183a052932d7a16a4e8ee6e7ae21ad5cb4cd99bfb3167d0ff3fd5376ccaaf4169e4630b623f278019aa03ae79b3516124afe8df70c19c0315034876200f58edf4d83dbf25e60af76f5e97bac967a11f813132ee6e7db6c47c6b75cc30d527c30c04e0ea06c4a784697195d16fa5041cd4cd08e238add5c5149e47a3fd8472363f646786baf1a477f394f2f6e4af7e06e0339aff913f9a0cfbba42e3858a685a66f43dfdfe6885ce5f8d27cbcd773dfed9e14891ebd21199f04c85d8fce03494fb6e6b7d43db1af62b4e13dc7594834c20cd805cd63f8fa4d27ee788a37ef133e1068d91f4539f81facdaa9e613757ca15659fb43165ad6bd47b62edfac11a08ca931d24d8090071a4f062fcadb5a5aa33d7b100dd46c9df0d18ad98757d056741a1b89f595632f62906bcb09a84c2eb63e868a97aafa89c49e9c38bbc6cf295e47676b2c6e3a978e670e3122b62ae39d4e568dc828e87182d90e3a4ffdc213f370e426d730fe98dd20a1548192f629290d98dd58f2a1f1e9abd59f116b47b0f8b7066e3de17f347025548d457fc53d24bd3294e2b4d9839a4687adc8ceb203f862f2f9e6bd2cbd4427aeec125515bbc47a68c37147fb740f3007c0794d7ece6168c6c465ee1c562cd22578fef2a6e884ba149bbc979e2463bde14fe21c3ae0ae34257156fa92db4e6c7eb6fc0597a4b5196fdc9be4032c47f4a4d76211244361b1a9b7d2629610fbe10ae6811ca1ccf0686198fe158d7d932a20bdf7a02e6ea9208f33fb989952cedb6c64db4a15cac40d053746499b9d6682974f911a403ea5add15c2a7f918cbfad784ef7536a68ef7678a613fe45aed0cfd5e4ae772f41b4f5f43129fcf7e550268f0781bc26e721bea3893b02c52a537e3a342833117b9c419fda280f307a258ef162c5b2dc0d48ae88de34f785b0368dca5310cbf5f434843d77797898a6b4faebb89079d15a60b993c748cc9038c603b288a48e0c23bf95ebe6a398e75f93b61be08b2410cf68dd9f1a3e4847b01ab3e6ac376474e97f6d4d21fabc31dd871340a657b0adcf89ada9e664114d1673c3a62d12aed027adccaeef28c112e91f76d7ce7c6f603dc6eae170ebe57e0eea617986ca3e48cb24c139f0c2f7406b58de98b65ad3ef9fdc728177d225a363eff1ccd9e8b0672a0457aa25008facb8984d7834c47be9f701ff406adcb4de0eebedd3dc9e3ee6acadbf0a897311e4622a22edc09dacb49e892622ad7f3d9139ed66122c2fad081e4260c38b8697c49012a8e023bb24519d13ba9d6262b9e3922988dc395497e3540c1157eaef83fb0b75a77f7512ea1d634b9ebe1f9ac4b09b2ebbbf82e7f3b7c0b623a3ea71f636ffd4cb9919d294eb15565ed84b955f375d0b6ab8124024600296c77dae4eb631a925e41ba015f62ae818412a99e51c4a281b3fd7b4a042996864e4463c709c6277f26fd257ae16439ce7a395216c908e43727cdc0462c0f43ceff48983dd637e80cd7ec9959f2ce4404f0edf5bdba1b99337ebe4a7147309545d760e8a4db6747d95dbee6620be2a0e408379afbcfe26d696db41351d95c323afc536a240b845eb5321e28a4a9640866bb3e26af3866a4bb0272d3e4076f91f70451a208b888a7e7cb29c8c6b988d35e0f8126e1d6c09b6e1a6acfb0885ad5ba94d4ac6e609dbac5ff7e02203c2bdb7507c4f7e1e0085843c11cd19f91deaefb01611761802717f326726137a5255a0a2da709f9d55d445657b3e2945b67ff1a077d0d108df931ba184974dcbd017d3127b21e8331caf836b8aa4ba03ac4695541ee0590ae34bc36d95f23a78b5df5588340db247a499f55dbecaed1f780a41400a57ab508dba210e1047f5bab1fa079ac994a846be936701e9bfadc081f657a040db446da525fab4b0c9cd45d6b81c7940f4b2f95ac531d68ac28b6feb23d9fd4685d503c6f3c24e64bb3ed7a281b1f729ab6c32440bd158655db11c3401f1849af2438789c7835228edb63ab81e6384db3ca441dd9850b1578a1ee98a64506f766200890a16916e98fc66117fe2bca09",
  "source": "pragma solidity 0.4.21;\npragma experimental ABIEncoderV2;\n\ncontract BGR {\n\n    string[] labels = [\n    \"example.com/api/0\",\n    \"example.com/api/1\",\n    \"example.com/api/2\",\n    \"example.com/api/3\",\n    \"example.com/api/4\",\n    \"example.com/api/5\",\n    \"example.com/api/6\",\n    \"example.com/api/7\",\n    \"example.com/api/8\",\n    \"example.com/api/9\"\n    ];\n\n    bytes message = hex\"7b0a2020226f70656e223a207b0a20202020227072696365223a2039353931372c0a202020202274696d65223a207b0a20202020202022756e6978223a20313438333134323430302c0a2020202020202269736f223a2022323031362d31322d33315430303a30303a30302e3030305a220a202020207d0a20207d2c0a202022636c6f7365223a207b0a20202020227072696365223a2039363736302c0a202020202274696d65223a207b0a20202020202022756e6978223a20313438333232383830302c0a2020202020202269736f223a2022323031372d30312d30315430303a30303a30302e3030305a220a202020207d0a20207d2c0a2020226c6f6f6b7570223a207b0a20202020227072696365223a2039363736302c0a20202020226b223a20312c0a202020202274696d65223a207b0a20202020202022756e6978223a20313438333232383830302c0a2020202020202269736f223a2022323031372d30312d30315430303a30303a30302e3030305a220a202020207d0a20207d0a7d0a\";\n\n    //Simulation of PKI (assumed to be available)\n    uint256 constant e = 65537;\n    bytes modulus0 = hex\"cfb816f2802a2f0712795ff0bf5e557dbe22051b165bb59572cc968e54e2d11f2effcd42c2de87c066c48b3e45b1976cdfe0cecc06ce66611995266ac338880597523b8406a6d93b278ebd2198c8815e5a8e275e8f7dc1129eca4ad27e1d1b41aeeacc1f77c9fc4f100dcccd6d0671d54052d771782e5c06144d5d0f13403203c2958a3dba69f8c8a178a5ec9e82c06e69af9ed98502f375b1efa57b2f2a9d2d3b20233d06b62d960d319f1102fdcb6eab142c003410c45e47bbd780d53daa3ed08f5356b174eeaff6ef2370c3315166fecde2c1cd5b4dea99e6d612b7ef436fd3f39999fa15d762fd610e3c35c1f0a5ab42044adf0ab2b43eaa2e8439927a3d\";\n    bytes modulus1 = hex\"993c748cc9038c603b288a48e0c23bf95ebe6a398e75f93b61be08b2410cf68dd9f1a3e4847b01ab3e6ac376474e97f6d4d21fabc31dd871340a657b0adcf89ada9e664114d1673c3a62d12aed027adccaeef28c112e91f76d7ce7c6f603dc6eae170ebe57e0eea617986ca3e48cb24c139f0c2f7406b58de98b65ad3ef9fdc728177d225a363eff1ccd9e8b0672a0457aa25008facb8984d7834c47be9f701ff406adcb4de0eebedd3dc9e3ee6acadbf0a897311e4622a22edc09dacb49e892622ad7f3d9139ed66122c2fad081e4260c38b8697c49012a8e023bb24519d13ba9d6262b9e3922988dc395497e3540c1157eaef83fb0b75a77f7512ea1d634b9\";\n    bytes modulus2 = hex\"d3098e76c3ca004ad6482977e00e65d981f1a0bc9acdf6d6b5ae95b4d2751a47057fa363286aa9039b191268a305b656e4980987be0f6f523bda2cf89765ac5bf2ae0a9c5630af56f21bd97f4e91784183a052932d7a16a4e8ee6e7ae21ad5cb4cd99bfb3167d0ff3fd5376ccaaf4169e4630b623f278019aa03ae79b3516124afe8df70c19c0315034876200f58edf4d83dbf25e60af76f5e97bac967a11f813132ee6e7db6c47c6b75cc30d527c30c04e0ea06c4a784697195d16fa5041cd4cd08e238add5c5149e47a3fd8472363f646786baf1a477f394f2f6e4af7e06e0339aff913f9a0cfbba42e3858a685a66f43dfdfe6885ce5f8d27cbcd773dfed9\";\n    bytes modulus3 = hex\"f659dc051e02f69f4b449e425737c22c263c44c6e4e70c54afbb1148550d907b7ef05880b83fac5d2691a3578955f264a2b9b4343e13fa617a2ff38d1719e55bbe002b5a40bfd00744cd40e5ced0c1981d46243181cd2c3c41b8447c368316b4e62b121ff1a5b49278c5765e44c2859fa436c72831c28c00d43467c0fa6ba5a9d928d76283efb1fc91e5b34a3197daedf0e85b491c1150bcb232799f16572e49760327d405fc9f058fce5a9c54f076a1f00c70beb98b557405d1777a86e3c97f36a3bbb6155edf06e604c1db93939c7bf4e1ea042d1907b6c14c0bab0be9cc9085aaa92f6847dad5272afa2b6299ae2c62666e2a38263aed35ce47a6eb5a6fb1\";\n    bytes modulus4 = hex\"c4f7e1e0085843c11cd19f91deaefb01611761802717f326726137a5255a0a2da709f9d55d445657b3e2945b67ff1a077d0d108df931ba184974dcbd017d3127b21e8331caf836b8aa4ba03ac4695541ee0590ae34bc36d95f23a78b5df5588340db247a499f55dbecaed1f780a41400a57ab508dba210e1047f5bab1fa079ac994a846be936701e9bfadc081f657a040db446da525fab4b0c9cd45d6b81c7940f4b2f95ac531d68ac28b6feb23d9fd4685d503c6f3c24e64bb3ed7a281b1f729ab6c32440bd158655db11c3401f1849af2438789c7835228edb63ab81e6384db3ca441dd9850b1578a1ee98a64506f766200890a16916e98fc66117fe2bca09\";\n    bytes modulus5 = hex\"d1ad7c55feffeb0d8bae01c0df90381968e3151d2ff65f5d4dc4532453a8e6adcf5fdcf50ff5c090ce62e562dbda88b48983396bb3138e802d45ee7b03b9cd29c992027111771039b4683b06d8b2ad10dccf291b6ed6f817920e99a4e5066ca560a0df409f82b3af0ad9bb631cb634e28dee91d2b249cbdcb77625e6b538ce119e3c16e959dd1135acdb9c3550519ee56c04cd86cd9b5847c4f9a6e99e17b5783a88c447a133533ee68f53bdb961694d629a7080921831dfe185a623fb6e60f3dc0133e68559702ee68f3cc83465d449db44feee7e48cfe4e59fa4334edb52906ed51986bf453e8a623301457457bc16e83d7b2354dd457ee14e6c15279ef613\";\n    bytes modulus6 = hex\"ebe1f9ac4b09b2ebbbf82e7f3b7c0b623a3ea71f636ffd4cb9919d294eb15565ed84b955f375d0b6ab8124024600296c77dae4eb631a925e41ba015f62ae818412a99e51c4a281b3fd7b4a042996864e4463c709c6277f26fd257ae16439ce7a395216c908e43727cdc0462c0f43ceff48983dd637e80cd7ec9959f2ce4404f0edf5bdba1b99337ebe4a7147309545d760e8a4db6747d95dbee6620be2a0e408379afbcfe26d696db41351d95c323afc536a240b845eb5321e28a4a9640866bb3e26af3866a4bb0272d3e4076f91f70451a208b888a7e7cb29c8c6b988d35e0f8126e1d6c09b6e1a6acfb0885ad5ba94d4ac6e609dbac5ff7e02203c2bdb7507\";\n    bytes modulus7 = hex\"e14891ebd21199f04c85d8fce03494fb6e6b7d43db1af62b4e13dc7594834c20cd805cd63f8fa4d27ee788a37ef133e1068d91f4539f81facdaa9e613757ca15659fb43165ad6bd47b62edfac11a08ca931d24d8090071a4f062fcadb5a5aa33d7b100dd46c9df0d18ad98757d056741a1b89f595632f62906bcb09a84c2eb63e868a97aafa89c49e9c38bbc6cf295e47676b2c6e3a978e670e3122b62ae39d4e568dc828e87182d90e3a4ffdc213f370e426d730fe98dd20a1548192f629290d98dd58f2a1f1e9abd59f116b47b0f8b7066e3de17f347025548d457fc53d24bd3294e2b4d9839a4687adc8ceb203f862f2f9e6bd2cbd4427aeec125515bbc47\";\n    bytes modulus8 = hex\"b5be3e236c62a3e03d0d993ba5ccfc639620e5237bdc53e7dd52d24a0b7236f3143b16c7ff4d1cf31a5f9c6671f303a1504a50fd91137b4edf5e37fdb672b68ad14ace39d968da3ae3cfb83b1ee0a2550903e98d21b122a6fc34fa5f4ddc1f06fe659ccad06df638abf858019af66e291f84c5f394211764c50cdc46786a30d874cfcd0046e3e5d9ad899eaad543e32a3b1437088b22bbf443332026a1e46c7574713da7d0a6ab0a1822f9fda463c561d8d5d503dde26dfd323c80d8bb6831cfc9872b647d7ced6683125ec816a00e721f65b4aca5e1d861aa50901d9bbb5e9d9266122e39725b2ca7e575d3cbdab5f75a562d586a0b157acf8468757f78ce25\";\n    bytes modulus9 = hex\"a68c37147fb740f3007c0794d7ece6168c6c465ee1c562cd22578fef2a6e884ba149bbc979e2463bde14fe21c3ae0ae34257156fa92db4e6c7eb6fc0597a4b5196fdc9be4032c47f4a4d76211244361b1a9b7d2629610fbe10ae6811ca1ccf0686198fe158d7d932a20bdf7a02e6ea9208f33fb989952cedb6c64db4a15cac40d053746499b9d6682974f911a403ea5add15c2a7f918cbfad784ef7536a68ef7678a613fe45aed0cfd5e4ae772f41b4f5f43129fcf7e550268f0781bc26e721bea3893b02c52a537e3a342833117b9c419fda280f307a258ef162c5b2dc0d48ae88de34f785b0368dca5310cbf5f434843d77797898a6b4faebb89079d15a60b\";\n\n    /**\n    This method is used to measure only the transaction costs\n    */\n    function doNothing(bytes data, bytes x, bytes32 h, bool[] b, bytes16[] r) returns (bool) {\n        revert();\n    }\n\n    function verify(bytes data, bytes x, bytes32 h, bool[] b, bytes16[] r) returns (bool) {\n        bytes memory x_prev = x;\n        bytes32 h_prev = h;\n\n        uint n_signers = r.length;\n\n        for (uint i = n_signers - 1; i > 0; i--) {\n            //Line 2, 3 and 4\n            x_prev = xorbytes(ghash(h_prev), modexp(split_inverse(x_prev, b[i]), e, getModulus(i)));\n\n            //Line 5 and 6\n            h_prev = h_prev ^ hhash(getModulus(i), getMessage(i), labels[i], r[i], x_prev);\n        }\n\n        //Line 7\n        bytes32 h_hash = hhashbase(getModulus(0), getMessage(0), labels[0], r[0]);\n        bytes memory g_hash = ghash(h_prev);\n\n        bytes memory pig = modexp(split_inverse(x_prev, b[0]), e, modulus0);\n\n        return h_hash == h_prev && equals(g_hash, pig);\n    }\n\n    function getModulus(uint i) view internal returns (bytes) {\n        if (i == 0) {\n            return modulus0;\n        } else if (i == 1) {\n            return modulus1;\n        } else if (i == 2) {\n            return modulus2;\n        } else if (i == 3) {\n            return modulus3;\n        } else if (i == 4) {\n            return modulus4;\n        } else if (i == 5) {\n            return modulus5;\n        } else if (i == 6) {\n            return modulus6;\n        } else if (i == 7) {\n            return modulus7;\n        } else if (i == 8) {\n            return modulus8;\n        } else if (i == 9) {\n            return modulus9;\n        }\n    }\n\n    function getMessage(uint i) internal returns (bytes) {\n        return message;\n    }\n\n    function modexp(bytes base, uint exponent, bytes modulus) internal returns (bytes output) {\n        //bytes memory modulus = bytes(modulus_str);\n        uint base_length = base.length;\n        uint modulus_length = modulus.length;\n\n        uint size = (32 * 3) + base_length + 32 + modulus_length;\n        bytes memory input = new bytes(size);\n        output = new bytes(modulus_length);\n\n        assembly {\n            mstore(add(input, 32), base_length)\n            mstore(add(input, 64), 32)\n            mstore(add(input, 96), modulus_length)\n\n            mstore(add(input, add(128, base_length)), exponent)\n        }\n\n        memcopy(base, 0, input, 96, base_length);\n        memcopy(modulus, 0, input, 96 + base_length + 32, modulus_length);\n\n        assembly {\n            pop(call(gas(), 5, 0, add(input, 32), size, add(output, 32), modulus_length))\n        }\n    }\n\n    function split_inverse(bytes xi, bool bi) internal pure returns (bytes) {\n        if (bi) {\n            xi[0] = byte(uint(xi[0]) + 128);\n        }\n\n        return xi;\n    }\n\n    function ghash(bytes32 y) internal pure returns (bytes) {\n        bytes32 hash = keccak256(y);\n        bytes memory res = hex\"00000000000000000000000000000000000000000000000000000000000000000000000000000000000000000000000000000000000000000000000000000000000000000000000000000000000000000000000000000000000000000000000000000000000000000000000000000000000000000000000000000000000000000000000000000000000000000000000000000000000000000000000000000000000000000000000000000000000000000000000000000000000000000000000000000000000000000000000000000000000000000000000000000000000000000000000000000000000000000000000000000000000000000000000000000000\";\n\n        for(uint i = 1; i < 256; i++) {\n            res[i] = hash[i % 32];\n        }\n\n        return res;\n    }\n\n    function hhash(bytes modulus, bytes message, string label, bytes16 random, bytes x_prev) internal pure returns (bytes32) {\n        return keccak256(modulus, message, label, random, x_prev);\n    }\n\n    function hhashbase(bytes modulus, bytes message, string label, bytes16 random) internal pure returns (bytes32) {\n        return keccak256(modulus, message, label, random);\n    }\n\n    function cut(bytes i) internal pure returns (bytes32 part1, bytes32 part2, bytes32 part3, bytes32 part4, bytes32 part5, bytes32 part6, bytes32 part7, bytes32 part8) {\n\n        assembly {\n            part1 := mload(add(i, 32))\n            part2 := mload(add(i, 64))\n            part3 := mload(add(i, 96))\n            part4 := mload(add(i, 128))\n            part5 := mload(add(i, 160))\n            part6 := mload(add(i, 192))\n            part7 := mload(add(i, 224))\n            part8 := mload(add(i, 256))\n        }\n    }\n\n    function xorbytes(bytes a, bytes y) internal pure returns (bytes) {\n        bytes32 c1;\n        bytes32 c2;\n        bytes32 c3;\n        bytes32 c4;\n        bytes32 c5;\n        bytes32 c6;\n        bytes32 c7;\n        bytes32 c8;\n\n        assembly {\n            c1 := xor(mload(add(a, 32)), mload(add(y, 32)))\n            c2 := xor(mload(add(a, 64)), mload(add(y, 64)))\n            c3 := xor(mload(add(a, 96)), mload(add(y, 96)))\n            c4 := xor(mload(add(a, 128)), mload(add(y, 128)))\n            c5 := xor(mload(add(a, 160)), mload(add(y, 160)))\n            c6 := xor(mload(add(a, 192)), mload(add(y, 192)))\n            c7 := xor(mload(add(a, 224)), mload(add(y, 224)))\n            c8 := xor(mload(add(a, 256)), mload(add(y, 256)))\n        }\n\n        bytes memory merged = new bytes(256);\n\n        uint k = 0;\n\n        for (uint i = 0; i < 32; i++) {\n            merged[k] = c1[i];\n            k++;\n        }\n\n        for (i = 0; i < 32; i++) {\n            merged[k] = c2[i];\n            k++;\n        }\n\n        for (i = 0; i < 32; i++) {\n            merged[k] = c3[i];\n            k++;\n        }\n\n        for (i = 0; i < 32; i++) {\n            merged[k] = c4[i];\n            k++;\n        }\n\n        for (i = 0; i < 32; i++) {\n            merged[k] = c5[i];\n            k++;\n        }\n\n        for (i = 0; i < 32; i++) {\n            merged[k] = c6[i];\n            k++;\n        }\n\n        for (i = 0; i < 32; i++) {\n            merged[k] = c7[i];\n            k++;\n        }\n\n        for (i = 0; i < 32; i++) {\n            merged[k] = c8[i];\n            k++;\n        }\n\n        return merged;\n    }\n\n    function memcopy(bytes src, uint srcoffset, bytes dst, uint dstoffset, uint len) pure internal {\n        assembly {\n            src := add(src, add(32, srcoffset))\n            dst := add(dst, add(32, dstoffset))\n\n        // copy 32 bytes at once\n            for\n            {}\n            iszero(lt(len, 32))\n            {\n                dst := add(dst, 32)\n                src := add(src, 32)\n                len := sub(len, 32)\n            }\n            {mstore(dst, mload(src))}\n\n        // copy the remainder (0 < len < 32)\n            let mask := sub(exp(256, sub(32, len)), 1)\n            let srcpart := and(mload(src), not(mask))\n            let dstpart := and(mload(dst), mask)\n            mstore(dst, or(srcpart, dstpart))\n        }\n    }\n\n    function equals(bytes memory self, bytes memory other) internal pure returns (bool equal) {\n        if (self.length != other.length) {\n            return false;\n        }\n\n        uint addr;\n        uint addr2;\n        uint len = self.length;\n\n        assembly {\n            addr := add(self, /*BYTES_HEADER_SIZE*/32)\n            addr2 := add(other, /*BYTES_HEADER_SIZE*/32)\n            equal := eq(keccak256(addr, len), keccak256(addr2, len))\n        }\n    }\n\n}\n",
  "sourcePath": "/home/bjorn/Projects/BGRVerify/contracts/BGR.sol",
  "compiler": {
    "name": "solc",
    "version": "0.4.21+commit.dfe3193c.Emscripten.clang"
  },
  "schemaVersion": "2.0.0",
  "updatedAt": "2018-06-07T12:48:33.696Z"
}