{
  "contractName": "BGR",
  "abi": [
    {
      "constant": false,
      "inputs": [
        {
          "name": "data",
          "type": "bytes"
        },
        {
          "name": "x",
          "type": "bytes"
        },
        {
          "name": "h",
          "type": "bytes32"
        },
        {
          "name": "b",
          "type": "bool[]"
        },
        {
          "name": "r",
          "type": "bytes16[]"
        }
      ],
      "name": "doNothing",
      "outputs": [
        {
          "name": "",
          "type": "bool"
        }
      ],
      "payable": false,
      "stateMutability": "nonpayable",
      "type": "function"
    },
    {
      "constant": false,
      "inputs": [],
      "name": "store",
      "outputs": [],
      "payable": false,
      "stateMutability": "nonpayable",
      "type": "function"
    },
    {
      "constant": false,
      "inputs": [
        {
          "name": "data",
          "type": "bytes"
        },
        {
          "name": "x",
          "type": "bytes"
        },
        {
          "name": "h",
          "type": "bytes32"
        },
        {
          "name": "b",
          "type": "bool[]"
        },
        {
          "name": "r",
          "type": "bytes16[]"
        }
      ],
      "name": "verify",
      "outputs": [
        {
          "name": "",
          "type": "bool"
        }
      ],
      "payable": false,
      "stateMutability": "nonpayable",
      "type": "function"
    }
  ],
  "bytecode": "0x6060604052610140604051908101604052806040805190810160405280601181526020017f6578616d706c652e636f6d2f6170692f3000000000000000000000000000000081525081526020016040805190810160405280601181526020017f6578616d706c652e636f6d2f6170692f3100000000000000000000000000000081525081526020016040805190810160405280601181526020017f6578616d706c652e636f6d2f6170692f3200000000000000000000000000000081525081526020016040805190810160405280601181526020017f6578616d706c652e636f6d2f6170692f3300000000000000000000000000000081525081526020016040805190810160405280601181526020017f6578616d706c652e636f6d2f6170692f3400000000000000000000000000000081525081526020016040805190810160405280601181526020017f6578616d706c652e636f6d2f6170692f3500000000000000000000000000000081525081526020016040805190810160405280601181526020017f6578616d706c652e636f6d2f6170692f3600000000000000000000000000000081525081526020016040805190810160405280601181526020017f6578616d706c652e636f6d2f6170692f3700000000000000000000000000000081525081526020016040805190810160405280601181526020017f6578616d706c652e636f6d2f6170692f3800000000000000000000000000000081525081526020016040805190810160405280601181526020017f6578616d706c652e636f6d2f6170692f39000000000000000000000000000000815250815250600090600a6200026f929190620009f3565b506101c06040519081016040528061018381526020016200353f610183913960019080519060200190620002a592919062000a5a565b506101206040519081016040528061010081526020016200323f610100913960029080519060200190620002db92919062000a5a565b50610120604051908101604052806101008152602001620039c26101009139600390805190602001906200031192919062000a5a565b50610120604051908101604052806101008152602001620036c26101009139600490805190602001906200034792919062000a5a565b506101206040519081016040528061010081526020016200343f6101009139600590805190602001906200037d92919062000a5a565b5061012060405190810160405280610100815260200162003cc2610100913960069080519060200190620003b392919062000a5a565b506101206040519081016040528061010081526020016200333f610100913960079080519060200190620003e992919062000a5a565b5061012060405190810160405280610100815260200162003bc26101009139600890805190602001906200041f92919062000a5a565b50610120604051908101604052806101008152602001620037c26101009139600990805190602001906200045592919062000a5a565b506101206040519081016040528061010081526020016200313f6101009139600a90805190602001906200048b92919062000a5a565b50610120604051908101604052806101008152602001620038c26101009139600b9080519060200190620004c192919062000a5a565b5061012060405190810160405280610100815260200162003ac26101009139600c9080519060200190620004f792919062000a5a565b507f382c197defb54043b80875be1de7fa4bb210c183e2e274c25296d9de5da09df1600d906000191690556f1dc90aba6d82db9297efe010b13c619770010000000000000000000000000000000002600e60006101000a8154816fffffffffffffffffffffffffffffffff0219169083700100000000000000000000000000000000900402179055506000600e60106101000a81548160ff02191690831515021790555061014060405190810160405280600e60009054906101000a9004700100000000000000000000000000000000026fffffffffffffffffffffffffffffffff19166fffffffffffffffffffffffffffffffff19168152602001600e60009054906101000a9004700100000000000000000000000000000000026fffffffffffffffffffffffffffffffff19166fffffffffffffffffffffffffffffffff19168152602001600e60009054906101000a9004700100000000000000000000000000000000026fffffffffffffffffffffffffffffffff19166fffffffffffffffffffffffffffffffff19168152602001600e60009054906101000a9004700100000000000000000000000000000000026fffffffffffffffffffffffffffffffff19166fffffffffffffffffffffffffffffffff19168152602001600e60009054906101000a9004700100000000000000000000000000000000026fffffffffffffffffffffffffffffffff19166fffffffffffffffffffffffffffffffff19168152602001600e60009054906101000a9004700100000000000000000000000000000000026fffffffffffffffffffffffffffffffff19166fffffffffffffffffffffffffffffffff19168152602001600e60009054906101000a9004700100000000000000000000000000000000026fffffffffffffffffffffffffffffffff19166fffffffffffffffffffffffffffffffff19168152602001600e60009054906101000a9004700100000000000000000000000000000000026fffffffffffffffffffffffffffffffff19166fffffffffffffffffffffffffffffffff19168152602001600e60009054906101000a9004700100000000000000000000000000000000026fffffffffffffffffffffffffffffffff19166fffffffffffffffffffffffffffffffff19168152602001600e60009054906101000a9004700100000000000000000000000000000000026fffffffffffffffffffffffffffffffff19166fffffffffffffffffffffffffffffffff1916815250600f90600a620008a692919062000ae1565b5061014060405190810160405280600e60109054906101000a900460ff16151515158152602001600e60109054906101000a900460ff16151515158152602001600e60109054906101000a900460ff16151515158152602001600e60109054906101000a900460ff16151515158152602001600e60109054906101000a900460ff16151515158152602001600e60109054906101000a900460ff16151515158152602001600e60109054906101000a900460ff16151515158152602001600e60109054906101000a900460ff16151515158152602001600e60109054906101000a900460ff16151515158152602001600e60109054906101000a900460ff1615151515815250601090600a620009be92919062000bbe565b506000601160006101000a81548163ffffffff021916908363ffffffff1602179055503415620009ed57600080fd5b62000e0c565b82805482825590600052602060002090810192821562000a47579160200282015b8281111562000a4657825182908051906020019062000a3592919062000c6b565b509160200191906001019062000a14565b5b50905062000a56919062000cf2565b5090565b828054600181600116156101000203166002900490600052602060002090601f016020900481019282601f1062000a9d57805160ff191683800117855562000ace565b8280016001018555821562000ace579182015b8281111562000acd57825182559160200191906001019062000ab0565b5b50905062000add919062000d23565b5090565b8280548282559060005260206000209060010160029004810192821562000bab5791602002820160005b8382111562000b6b57835183826101000a8154816fffffffffffffffffffffffffffffffff0219169083700100000000000000000000000000000000900402179055509260200192601001602081600f0104928301926001030262000b0b565b801562000ba95782816101000a8154906fffffffffffffffffffffffffffffffff0219169055601001602081600f0104928301926001030262000b6b565b505b50905062000bba919062000d4b565b5090565b82805482825590600052602060002090601f0160209004810192821562000c585791602002820160005b8382111562000c2757835183826101000a81548160ff021916908315150217905550926020019260010160208160000104928301926001030262000be8565b801562000c565782816101000a81549060ff021916905560010160208160000104928301926001030262000c27565b505b50905062000c67919062000d8d565b5090565b828054600181600116156101000203166002900490600052602060002090601f016020900481019282601f1062000cae57805160ff191683800117855562000cdf565b8280016001018555821562000cdf579182015b8281111562000cde57825182559160200191906001019062000cc1565b5b50905062000cee919062000d23565b5090565b62000d2091905b8082111562000d1c576000818162000d12919062000dc0565b5060010162000cf9565b5090565b90565b62000d4891905b8082111562000d4457600081600090555060010162000d2a565b5090565b90565b62000d8a91905b8082111562000d8657600081816101000a8154906fffffffffffffffffffffffffffffffff02191690555060010162000d52565b5090565b90565b62000dbd91905b8082111562000db957600081816101000a81549060ff02191690555060010162000d94565b5090565b90565b50805460018160011615610100020316600290046000825580601f1062000de8575062000e09565b601f01602090049060005260206000209081019062000e08919062000d23565b5b50565b6123238062000e1c6000396000f300606060405260043610610057576000357c0100000000000000000000000000000000000000000000000000000000900463ffffffff1680632beb6b201461005c5780636dadf3c014610092578063975057e7146100c8575b600080fd5b341561006757600080fd5b61007c6004610077903690611fe2565b6100dd565b60405161008991906120c8565b60405180910390f35b341561009d57600080fd5b6100b260046100ad903690611fe2565b6100e4565b6040516100bf91906120c8565b60405180910390f35b34156100d357600080fd5b6100db6105e5565b005b6000806000fd5b60006100ee611a5b565b6000806000806100fc611a5b565b610104611a5b565b60008c97508b9650895195506001860394505b60008511156102615761016761012c886107a6565b6101626101508b8f8a81518110151561014157fe5b9060200190602002015161089b565b6201000161015d8a610994565b611050565b61111c565b975061024f61017586610994565b61017e87611674565b60008881548110151561018d57fe5b90600052602060002090018054600181600116156101000203166002900480601f01602080910402602001604051908101604052809291908181526020018280546001816001161561010002031660029004801561022c5780601f106102015761010080835404028352916020019161022c565b820191906000526020600020905b81548152906001019060200180831161020f57829003601f168201915b50505050508d8981518110151561023f57fe5b906020019060200201518c61171e565b87189650848060019003955050610117565b61034961026e6000610994565b6102786000611674565b60008081548110151561028757fe5b90600052602060002090018054600181600116156101000203166002900480601f0160208091040260200160405190810160405280929190818152602001828054600181600116156101000203166002900480156103265780601f106102fb57610100808354040283529160200191610326565b820191906000526020600020905b81548152906001019060200180831161030957829003601f168201915b50505050508d600081518110151561033a57fe5b906020019060200201516118bb565b9350610354876107a6565b925061041f61037b898d600081518110151561036c57fe5b9060200190602002015161089b565b6201000160028054600181600116156101000203166002900480601f0160208091040260200160405190810160405280929190818152602001828054600181600116156101000203166002900480156104155780601f106103ea57610100808354040283529160200191610415565b820191906000526020600020905b8154815290600101906020018083116103f857829003601f168201915b5050505050611050565b91508760136000601160009054906101000a900463ffffffff1663ffffffff1663ffffffff1681526020019081526020016000209080519060200190610466929190611a6f565b508660146000601160009054906101000a900463ffffffff1663ffffffff1663ffffffff16815260200190815260200160002081600019169055508960156000601160009054906101000a900463ffffffff1663ffffffff1663ffffffff16815260200190815260200160002090805190602001906104e6929190611aef565b508a60166000601160009054906101000a900463ffffffff1663ffffffff1663ffffffff168152602001908152602001600020908051906020019061052c929190611bc5565b50600090505b858110156105d057600160126000601160009054906101000a900463ffffffff1663ffffffff1663ffffffff168152602001908152602001600020908054600181600116156101000203166002900461058c929190611c6b565b506001601160009054906101000a900463ffffffff1601601160006101000a81548163ffffffff021916908363ffffffff1602179055508080600101915050610532565b60019850505050505050505095945050505050565b600080600a9150600c60136000601160009054906101000a900463ffffffff1663ffffffff1663ffffffff168152602001908152602001600020908054600181600116156101000203166002900461063e929190611c6b565b50600d5460146000601160009054906101000a900463ffffffff1663ffffffff1663ffffffff1681526020019081526020016000208160001916905550600f60156000601160009054906101000a900463ffffffff1663ffffffff1663ffffffff1681526020019081526020016000209080546106bc929190611cf2565b50601060166000601160009054906101000a900463ffffffff1663ffffffff1663ffffffff1681526020019081526020016000209080546106fe929190611d52565b50600090505b818110156107a257600160126000601160009054906101000a900463ffffffff1663ffffffff1663ffffffff168152602001908152602001600020908054600181600116156101000203166002900461075e929190611c6b565b506001601160009054906101000a900463ffffffff1601601160006101000a81548163ffffffff021916908363ffffffff1602179055508080600101915050610704565b5050565b6107ae611a5b565b60006107b8611a5b565b600084604051808260001916600019168152602001915050604051809103902092506101206040519081016040528061010081526020016121ea61010091399150600190505b610100811015610890578260208281151561081557fe5b0660208110151561082257fe5b1a7f010000000000000000000000000000000000000000000000000000000000000002828281518110151561085357fe5b9060200101907effffffffffffffffffffffffffffffffffffffffffffffffffffffffffffff1916908160001a90535080806001019150506107fe565b819350505050919050565b6108a3611a5b565b811561098b5760808360008151811015156108ba57fe5b9060200101517f010000000000000000000000000000000000000000000000000000000000000090047f0100000000000000000000000000000000000000000000000000000000000000027f01000000000000000000000000000000000000000000000000000000000000009004017f01000000000000000000000000000000000000000000000000000000000000000283600081518110151561095a57fe5b9060200101907effffffffffffffffffffffffffffffffffffffffffffffffffffffffffffff1916908160001a9053505b82905092915050565b61099c611a5b565b6000821415610a475760028054600181600116156101000203166002900480601f016020809104026020016040519081016040528092919081815260200182805460018160011615610100020316600290048015610a3b5780601f10610a1057610100808354040283529160200191610a3b565b820191906000526020600020905b815481529060010190602001808311610a1e57829003601f168201915b5050505050905061104b565b6001821415610af25760038054600181600116156101000203166002900480601f016020809104026020016040519081016040528092919081815260200182805460018160011615610100020316600290048015610ae65780601f10610abb57610100808354040283529160200191610ae6565b820191906000526020600020905b815481529060010190602001808311610ac957829003601f168201915b5050505050905061104b565b6002821415610b9d5760048054600181600116156101000203166002900480601f016020809104026020016040519081016040528092919081815260200182805460018160011615610100020316600290048015610b915780601f10610b6657610100808354040283529160200191610b91565b820191906000526020600020905b815481529060010190602001808311610b7457829003601f168201915b5050505050905061104b565b6003821415610c485760058054600181600116156101000203166002900480601f016020809104026020016040519081016040528092919081815260200182805460018160011615610100020316600290048015610c3c5780601f10610c1157610100808354040283529160200191610c3c565b820191906000526020600020905b815481529060010190602001808311610c1f57829003601f168201915b5050505050905061104b565b6004821415610cf35760068054600181600116156101000203166002900480601f016020809104026020016040519081016040528092919081815260200182805460018160011615610100020316600290048015610ce75780601f10610cbc57610100808354040283529160200191610ce7565b820191906000526020600020905b815481529060010190602001808311610cca57829003601f168201915b5050505050905061104b565b6005821415610d9e5760078054600181600116156101000203166002900480601f016020809104026020016040519081016040528092919081815260200182805460018160011615610100020316600290048015610d925780601f10610d6757610100808354040283529160200191610d92565b820191906000526020600020905b815481529060010190602001808311610d7557829003601f168201915b5050505050905061104b565b6006821415610e495760088054600181600116156101000203166002900480601f016020809104026020016040519081016040528092919081815260200182805460018160011615610100020316600290048015610e3d5780601f10610e1257610100808354040283529160200191610e3d565b820191906000526020600020905b815481529060010190602001808311610e2057829003601f168201915b5050505050905061104b565b6007821415610ef45760098054600181600116156101000203166002900480601f016020809104026020016040519081016040528092919081815260200182805460018160011615610100020316600290048015610ee85780601f10610ebd57610100808354040283529160200191610ee8565b820191906000526020600020905b815481529060010190602001808311610ecb57829003601f168201915b5050505050905061104b565b6008821415610f9f57600a8054600181600116156101000203166002900480601f016020809104026020016040519081016040528092919081815260200182805460018160011615610100020316600290048015610f935780601f10610f6857610100808354040283529160200191610f93565b820191906000526020600020905b815481529060010190602001808311610f7657829003601f168201915b5050505050905061104b565b600982141561104a57600b8054600181600116156101000203166002900480601f01602080910402602001604051908101604052809291908181526020018280546001816001161561010002031660029004801561103e5780601f106110135761010080835404028352916020019161103e565b820191906000526020600020905b81548152906001019060200180831161102157829003601f168201915b5050505050905061104b565b5b919050565b611058611a5b565b6000806000611065611a5b565b87519350855192508260208560600101019150816040518059106110865750595b9080825280601f01601f19166020018201604052509050826040518059106110ab5750595b9080825280601f01601f191660200182016040525094508360208201526020604082015282606082015286846080018201526110ec88600083606088611a02565b611100866000836020886060010187611a02565b82602086018360208401600060055af150505050509392505050565b611124611a5b565b600080600080600080600080611138611a5b565b60008060208d015160208f0151189a5060408d015160408f015118995060608d015160608f015118985060808d015160808f015118975060a08d015160a08f015118965060c08d015160c08f015118955060e08d015160e08f01511894506101008d01516101008f01511893506101006040518059106111b55750595b9080825280601f01601f1916602001820160405250925060009150600090505b6020811015611262578a816020811015156111ec57fe5b1a7f010000000000000000000000000000000000000000000000000000000000000002838381518110151561121d57fe5b9060200101907effffffffffffffffffffffffffffffffffffffffffffffffffffffffffffff1916908160001a905350818060010192505080806001019150506111d5565b600090505b60208110156112f457898160208110151561127e57fe5b1a7f01000000000000000000000000000000000000000000000000000000000000000283838151811015156112af57fe5b9060200101907effffffffffffffffffffffffffffffffffffffffffffffffffffffffffffff1916908160001a90535081806001019250508080600101915050611267565b600090505b602081101561138657888160208110151561131057fe5b1a7f010000000000000000000000000000000000000000000000000000000000000002838381518110151561134157fe5b9060200101907effffffffffffffffffffffffffffffffffffffffffffffffffffffffffffff1916908160001a905350818060010192505080806001019150506112f9565b600090505b60208110156114185787816020811015156113a257fe5b1a7f01000000000000000000000000000000000000000000000000000000000000000283838151811015156113d357fe5b9060200101907effffffffffffffffffffffffffffffffffffffffffffffffffffffffffffff1916908160001a9053508180600101925050808060010191505061138b565b600090505b60208110156114aa57868160208110151561143457fe5b1a7f010000000000000000000000000000000000000000000000000000000000000002838381518110151561146557fe5b9060200101907effffffffffffffffffffffffffffffffffffffffffffffffffffffffffffff1916908160001a9053508180600101925050808060010191505061141d565b600090505b602081101561153c5785816020811015156114c657fe5b1a7f01000000000000000000000000000000000000000000000000000000000000000283838151811015156114f757fe5b9060200101907effffffffffffffffffffffffffffffffffffffffffffffffffffffffffffff1916908160001a905350818060010192505080806001019150506114af565b600090505b60208110156115ce57848160208110151561155857fe5b1a7f010000000000000000000000000000000000000000000000000000000000000002838381518110151561158957fe5b9060200101907effffffffffffffffffffffffffffffffffffffffffffffffffffffffffffff1916908160001a90535081806001019250508080600101915050611541565b600090505b60208110156116605783816020811015156115ea57fe5b1a7f010000000000000000000000000000000000000000000000000000000000000002838381518110151561161b57fe5b9060200101907effffffffffffffffffffffffffffffffffffffffffffffffffffffffffffff1916908160001a905350818060010192505080806001019150506115d3565b829b50505050505050505050505092915050565b61167c611a5b565b60018054600181600116156101000203166002900480601f0160208091040260200160405190810160405280929190818152602001828054600181600116156101000203166002900480156117125780601f106116e757610100808354040283529160200191611712565b820191906000526020600020905b8154815290600101906020018083116116f557829003601f168201915b50505050509050919050565b600085858585856040518086805190602001908083835b60208310151561175a5780518252602082019150602081019050602083039250611735565b6001836020036101000a03801982511681845116808217855250505050505090500185805190602001908083835b6020831015156117ad5780518252602082019150602081019050602083039250611788565b6001836020036101000a03801982511681845116808217855250505050505090500184805190602001908083835b60208310151561180057805182526020820191506020810190506020830392506117db565b6001836020036101000a038019825116818451168082178552505050505050905001836fffffffffffffffffffffffffffffffff19166fffffffffffffffffffffffffffffffff1916815260100182805190602001908083835b60208310151561187f578051825260208201915060208101905060208303925061185a565b6001836020036101000a038019825116818451168082178552505050505050905001955050505050506040518091039020905095945050505050565b6000848484846040518085805190602001908083835b6020831015156118f657805182526020820191506020810190506020830392506118d1565b6001836020036101000a03801982511681845116808217855250505050505090500184805190602001908083835b6020831015156119495780518252602082019150602081019050602083039250611924565b6001836020036101000a03801982511681845116808217855250505050505090500183805190602001908083835b60208310151561199c5780518252602082019150602081019050602083039250611977565b6001836020036101000a038019825116818451168082178552505050505050905001826fffffffffffffffffffffffffffffffff19166fffffffffffffffffffffffffffffffff1916815260100194505050505060405180910390209050949350505050565b836020018501945081602001830192505b602081101515611a385784518352602083019250602085019450602081039050611a13565b6001816020036101000a0380198651168185511680821786525050505050505050565b602060405190810160405280600081525090565b828054600181600116156101000203166002900490600052602060002090601f016020900481019282601f10611ab057805160ff1916838001178555611ade565b82800160010185558215611ade579182015b82811115611add578251825591602001919060010190611ac2565b5b509050611aeb9190611db2565b5090565b82805482825590600052602060002090600101600290048101928215611bb45791602002820160005b83821115611b7657835183826101000a8154816fffffffffffffffffffffffffffffffff0219169083700100000000000000000000000000000000900402179055509260200192601001602081600f01049283019260010302611b18565b8015611bb25782816101000a8154906fffffffffffffffffffffffffffffffff0219169055601001602081600f01049283019260010302611b76565b505b509050611bc19190611dd7565b5090565b82805482825590600052602060002090601f01602090048101928215611c5a5791602002820160005b83821115611c2b57835183826101000a81548160ff0219169083151502179055509260200192600101602081600001049283019260010302611bee565b8015611c585782816101000a81549060ff0219169055600101602081600001049283019260010302611c2b565b505b509050611c679190611e16565b5090565b828054600181600116156101000203166002900490600052602060002090601f016020900481019282601f10611ca45780548555611ce1565b82800160010185558215611ce157600052602060002091601f016020900482015b82811115611ce0578254825591600101919060010190611cc5565b5b509050611cee9190611db2565b5090565b82805482825590600052602060002090600101600290048101928215611d41576000526020600020916001016002900482015b82811115611d40578254825591600101919060010190611d25565b5b509050611d4e9190611dd7565b5090565b82805482825590600052602060002090601f01602090048101928215611da157600052602060002091601f016020900482015b82811115611da0578254825591600101919060010190611d85565b5b509050611dae9190611e16565b5090565b611dd491905b80821115611dd0576000816000905550600101611db8565b5090565b90565b611e1391905b80821115611e0f57600081816101000a8154906fffffffffffffffffffffffffffffffff021916905550600101611ddd565b5090565b90565b611e4391905b80821115611e3f57600081816101000a81549060ff021916905550600101611e1c565b5090565b90565b600082601f8301121515611e5957600080fd5b8135611e6c611e6782612110565b6120e3565b91508181835260208401935060208101905083856020840282011115611e9157600080fd5b60005b83811015611ec15781611ea78882611f50565b845260208401935060208301925050600181019050611e94565b5050505092915050565b600082601f8301121515611ede57600080fd5b8135611ef1611eec82612138565b6120e3565b91508181835260208401935060208101905083856020840282011115611f1657600080fd5b60005b83811015611f465781611f2c8882611f64565b845260208401935060208301925050600181019050611f19565b5050505092915050565b6000611f5c8235612198565b905092915050565b6000611f7082356121a4565b905092915050565b6000611f8482356121d0565b905092915050565b600082601f8301121515611f9f57600080fd5b8135611fb2611fad82612160565b6120e3565b91508082526020830160208301858383011115611fce57600080fd5b611fd98382846121da565b50505092915050565b600080600080600060a08688031215611ffa57600080fd5b600086013567ffffffffffffffff81111561201457600080fd5b61202088828901611f8c565b955050602086013567ffffffffffffffff81111561203d57600080fd5b61204988828901611f8c565b945050604061205a88828901611f78565b935050606086013567ffffffffffffffff81111561207757600080fd5b61208388828901611e46565b925050608086013567ffffffffffffffff8111156120a057600080fd5b6120ac88828901611ecb565b9150509295509295909350565b6120c28161218c565b82525050565b60006020820190506120dd60008301846120b9565b92915050565b6000604051905081810181811067ffffffffffffffff8211171561210657600080fd5b8060405250919050565b600067ffffffffffffffff82111561212757600080fd5b602082029050602081019050919050565b600067ffffffffffffffff82111561214f57600080fd5b602082029050602081019050919050565b600067ffffffffffffffff82111561217757600080fd5b601f19601f8301169050602081019050919050565b60008115159050919050565b60008115159050919050565b60007fffffffffffffffffffffffffffffffff0000000000000000000000000000000082169050919050565b6000819050919050565b82818337600083830152505050560000000000000000000000000000000000000000000000000000000000000000000000000000000000000000000000000000000000000000000000000000000000000000000000000000000000000000000000000000000000000000000000000000000000000000000000000000000000000000000000000000000000000000000000000000000000000000000000000000000000000000000000000000000000000000000000000000000000000000000000000000000000000000000000000000000000000000000000000000000000000000000000000000000000000000000000000000000000000000000000000000000000000000000000000000000000a265627a7a72305820b6eae5826d7f3a08201fb4e4643b44809a71707c0bff0c4641e0d49be82097e86c6578706572696d656e74616cf50037b5be3e236c62a3e03d0d993ba5ccfc639620e5237bdc53e7dd52d24a0b7236f3143b16c7ff4d1cf31a5f9c6671f303a1504a50fd91137b4edf5e37fdb672b68ad14ace39d968da3ae3cfb83b1ee0a2550903e98d21b122a6fc34fa5f4ddc1f06fe659ccad06df638abf858019af66e291f84c5f394211764c50cdc46786a30d874cfcd0046e3e5d9ad899eaad543e32a3b1437088b22bbf443332026a1e46c7574713da7d0a6ab0a1822f9fda463c561d8d5d503dde26dfd323c80d8bb6831cfc9872b647d7ced6683125ec816a00e721f65b4aca5e1d861aa50901d9bbb5e9d9266122e39725b2ca7e575d3cbdab5f75a562d586a0b157acf8468757f78ce25cfb816f2802a2f0712795ff0bf5e557dbe22051b165bb59572cc968e54e2d11f2effcd42c2de87c066c48b3e45b1976cdfe0cecc06ce66611995266ac338880597523b8406a6d93b278ebd2198c8815e5a8e275e8f7dc1129eca4ad27e1d1b41aeeacc1f77c9fc4f100dcccd6d0671d54052d771782e5c06144d5d0f13403203c2958a3dba69f8c8a178a5ec9e82c06e69af9ed98502f375b1efa57b2f2a9d2d3b20233d06b62d960d319f1102fdcb6eab142c003410c45e47bbd780d53daa3ed08f5356b174eeaff6ef2370c3315166fecde2c1cd5b4dea99e6d612b7ef436fd3f39999fa15d762fd610e3c35c1f0a5ab42044adf0ab2b43eaa2e8439927a3dd1ad7c55feffeb0d8bae01c0df90381968e3151d2ff65f5d4dc4532453a8e6adcf5fdcf50ff5c090ce62e562dbda88b48983396bb3138e802d45ee7b03b9cd29c992027111771039b4683b06d8b2ad10dccf291b6ed6f817920e99a4e5066ca560a0df409f82b3af0ad9bb631cb634e28dee91d2b249cbdcb77625e6b538ce119e3c16e959dd1135acdb9c3550519ee56c04cd86cd9b5847c4f9a6e99e17b5783a88c447a133533ee68f53bdb961694d629a7080921831dfe185a623fb6e60f3dc0133e68559702ee68f3cc83465d449db44feee7e48cfe4e59fa4334edb52906ed51986bf453e8a623301457457bc16e83d7b2354dd457ee14e6c15279ef613f659dc051e02f69f4b449e425737c22c263c44c6e4e70c54afbb1148550d907b7ef05880b83fac5d2691a3578955f264a2b9b4343e13fa617a2ff38d1719e55bbe002b5a40bfd00744cd40e5ced0c1981d46243181cd2c3c41b8447c368316b4e62b121ff1a5b49278c5765e44c2859fa436c72831c28c00d43467c0fa6ba5a9d928d76283efb1fc91e5b34a3197daedf0e85b491c1150bcb232799f16572e49760327d405fc9f058fce5a9c54f076a1f00c70beb98b557405d1777a86e3c97f36a3bbb6155edf06e604c1db93939c7bf4e1ea042d1907b6c14c0bab0be9cc9085aaa92f6847dad5272afa2b6299ae2c62666e2a38263aed35ce47a6eb5a6fb17b0a2020226f70656e223a207b0a20202020227072696365223a2039353931372c0a202020202274696d65223a207b0a20202020202022756e6978223a20313438333134323430302c0a2020202020202269736f223a2022323031362d31322d33315430303a30303a30302e3030305a220a202020207d0a20207d2c0a202022636c6f7365223a207b0a20202020227072696365223a2039363736302c0a202020202274696d65223a207b0a20202020202022756e6978223a20313438333232383830302c0a2020202020202269736f223a2022323031372d30312d30315430303a30303a30302e3030305a220a202020207d0a20207d2c0a2020226c6f6f6b7570223a207b0a20202020227072696365223a2039363736302c0a20202020226b223a20312c0a202020202274696d65223a207b0a20202020202022756e6978223a20313438333232383830302c0a2020202020202269736f223a2022323031372d30312d30315430303a30303a30302e3030305a220a202020207d0a20207d0a7d0ad3098e76c3ca004ad6482977e00e65d981f1a0bc9acdf6d6b5ae95b4d2751a47057fa363286aa9039b191268a305b656e4980987be0f6f523bda2cf89765ac5bf2ae0a9c5630af56f21bd97f4e91784183a052932d7a16a4e8ee6e7ae21ad5cb4cd99bfb3167d0ff3fd5376ccaaf4169e4630b623f278019aa03ae79b3516124afe8df70c19c0315034876200f58edf4d83dbf25e60af76f5e97bac967a11f813132ee6e7db6c47c6b75cc30d527c30c04e0ea06c4a784697195d16fa5041cd4cd08e238add5c5149e47a3fd8472363f646786baf1a477f394f2f6e4af7e06e0339aff913f9a0cfbba42e3858a685a66f43dfdfe6885ce5f8d27cbcd773dfed9e14891ebd21199f04c85d8fce03494fb6e6b7d43db1af62b4e13dc7594834c20cd805cd63f8fa4d27ee788a37ef133e1068d91f4539f81facdaa9e613757ca15659fb43165ad6bd47b62edfac11a08ca931d24d8090071a4f062fcadb5a5aa33d7b100dd46c9df0d18ad98757d056741a1b89f595632f62906bcb09a84c2eb63e868a97aafa89c49e9c38bbc6cf295e47676b2c6e3a978e670e3122b62ae39d4e568dc828e87182d90e3a4ffdc213f370e426d730fe98dd20a1548192f629290d98dd58f2a1f1e9abd59f116b47b0f8b7066e3de17f347025548d457fc53d24bd3294e2b4d9839a4687adc8ceb203f862f2f9e6bd2cbd4427aeec125515bbc47a68c37147fb740f3007c0794d7ece6168c6c465ee1c562cd22578fef2a6e884ba149bbc979e2463bde14fe21c3ae0ae34257156fa92db4e6c7eb6fc0597a4b5196fdc9be4032c47f4a4d76211244361b1a9b7d2629610fbe10ae6811ca1ccf0686198fe158d7d932a20bdf7a02e6ea9208f33fb989952cedb6c64db4a15cac40d053746499b9d6682974f911a403ea5add15c2a7f918cbfad784ef7536a68ef7678a613fe45aed0cfd5e4ae772f41b4f5f43129fcf7e550268f0781bc26e721bea3893b02c52a537e3a342833117b9c419fda280f307a258ef162c5b2dc0d48ae88de34f785b0368dca5310cbf5f434843d77797898a6b4faebb89079d15a60b993c748cc9038c603b288a48e0c23bf95ebe6a398e75f93b61be08b2410cf68dd9f1a3e4847b01ab3e6ac376474e97f6d4d21fabc31dd871340a657b0adcf89ada9e664114d1673c3a62d12aed027adccaeef28c112e91f76d7ce7c6f603dc6eae170ebe57e0eea617986ca3e48cb24c139f0c2f7406b58de98b65ad3ef9fdc728177d225a363eff1ccd9e8b0672a0457aa25008facb8984d7834c47be9f701ff406adcb4de0eebedd3dc9e3ee6acadbf0a897311e4622a22edc09dacb49e892622ad7f3d9139ed66122c2fad081e4260c38b8697c49012a8e023bb24519d13ba9d6262b9e3922988dc395497e3540c1157eaef83fb0b75a77f7512ea1d634b9040bb2f2151be77a766ffa74256a1f778bc45c4027d7ff6de44c14d77fc33a17efb6b18059af36d3a3c9b9db710412b25ad0393901f9877bf48bb95dbcc9b0a5679a52a92d32aac97d5f9b7e242c87049e528c31f229b3b2e115c80a0699ae25cd5564ba0056cc897126cba89221a2a6e516553c591f3406f05267513db8434d3ecf336bfc28b6998c12b5f07d96597ac32ea81a8e5f71b3ad37d4bda7ebd90a8c6fb2b27be797ac1ed1719f9978a55b98d194c55886b0db3dde6f8933632d0466a52a30944c877bcff04f79862a377d4779d5fcf69590bbedc39aaf0c1c2a3b29cbcd2e6c826ce4fb1f6ade94492ff8640412277e27ae86e7527d05da9c4d58ebe1f9ac4b09b2ebbbf82e7f3b7c0b623a3ea71f636ffd4cb9919d294eb15565ed84b955f375d0b6ab8124024600296c77dae4eb631a925e41ba015f62ae818412a99e51c4a281b3fd7b4a042996864e4463c709c6277f26fd257ae16439ce7a395216c908e43727cdc0462c0f43ceff48983dd637e80cd7ec9959f2ce4404f0edf5bdba1b99337ebe4a7147309545d760e8a4db6747d95dbee6620be2a0e408379afbcfe26d696db41351d95c323afc536a240b845eb5321e28a4a9640866bb3e26af3866a4bb0272d3e4076f91f70451a208b888a7e7cb29c8c6b988d35e0f8126e1d6c09b6e1a6acfb0885ad5ba94d4ac6e609dbac5ff7e02203c2bdb7507c4f7e1e0085843c11cd19f91deaefb01611761802717f326726137a5255a0a2da709f9d55d445657b3e2945b67ff1a077d0d108df931ba184974dcbd017d3127b21e8331caf836b8aa4ba03ac4695541ee0590ae34bc36d95f23a78b5df5588340db247a499f55dbecaed1f780a41400a57ab508dba210e1047f5bab1fa079ac994a846be936701e9bfadc081f657a040db446da525fab4b0c9cd45d6b81c7940f4b2f95ac531d68ac28b6feb23d9fd4685d503c6f3c24e64bb3ed7a281b1f729ab6c32440bd158655db11c3401f1849af2438789c7835228edb63ab81e6384db3ca441dd9850b1578a1ee98a64506f766200890a16916e98fc66117fe2bca09",
  "source": "pragma solidity 0.4.21;\npragma experimental ABIEncoderV2;\n\ncontract BGR {\n\n    string[] labels = [\n    \"example.com/api/0\",\n    \"example.com/api/1\",\n    \"example.com/api/2\",\n    \"example.com/api/3\",\n    \"example.com/api/4\",\n    \"example.com/api/5\",\n    \"example.com/api/6\",\n    \"example.com/api/7\",\n    \"example.com/api/8\",\n    \"example.com/api/9\"\n    ];\n\n    bytes message = hex\"7b0a2020226f70656e223a207b0a20202020227072696365223a2039353931372c0a202020202274696d65223a207b0a20202020202022756e6978223a20313438333134323430302c0a2020202020202269736f223a2022323031362d31322d33315430303a30303a30302e3030305a220a202020207d0a20207d2c0a202022636c6f7365223a207b0a20202020227072696365223a2039363736302c0a202020202274696d65223a207b0a20202020202022756e6978223a20313438333232383830302c0a2020202020202269736f223a2022323031372d30312d30315430303a30303a30302e3030305a220a202020207d0a20207d2c0a2020226c6f6f6b7570223a207b0a20202020227072696365223a2039363736302c0a20202020226b223a20312c0a202020202274696d65223a207b0a20202020202022756e6978223a20313438333232383830302c0a2020202020202269736f223a2022323031372d30312d30315430303a30303a30302e3030305a220a202020207d0a20207d0a7d0a\";\n\n    //Simulation of PKI (assumed to be available)\n    uint256 constant e = 65537;\n    bytes modulus0 = hex\"cfb816f2802a2f0712795ff0bf5e557dbe22051b165bb59572cc968e54e2d11f2effcd42c2de87c066c48b3e45b1976cdfe0cecc06ce66611995266ac338880597523b8406a6d93b278ebd2198c8815e5a8e275e8f7dc1129eca4ad27e1d1b41aeeacc1f77c9fc4f100dcccd6d0671d54052d771782e5c06144d5d0f13403203c2958a3dba69f8c8a178a5ec9e82c06e69af9ed98502f375b1efa57b2f2a9d2d3b20233d06b62d960d319f1102fdcb6eab142c003410c45e47bbd780d53daa3ed08f5356b174eeaff6ef2370c3315166fecde2c1cd5b4dea99e6d612b7ef436fd3f39999fa15d762fd610e3c35c1f0a5ab42044adf0ab2b43eaa2e8439927a3d\";\n    bytes modulus1 = hex\"993c748cc9038c603b288a48e0c23bf95ebe6a398e75f93b61be08b2410cf68dd9f1a3e4847b01ab3e6ac376474e97f6d4d21fabc31dd871340a657b0adcf89ada9e664114d1673c3a62d12aed027adccaeef28c112e91f76d7ce7c6f603dc6eae170ebe57e0eea617986ca3e48cb24c139f0c2f7406b58de98b65ad3ef9fdc728177d225a363eff1ccd9e8b0672a0457aa25008facb8984d7834c47be9f701ff406adcb4de0eebedd3dc9e3ee6acadbf0a897311e4622a22edc09dacb49e892622ad7f3d9139ed66122c2fad081e4260c38b8697c49012a8e023bb24519d13ba9d6262b9e3922988dc395497e3540c1157eaef83fb0b75a77f7512ea1d634b9\";\n    bytes modulus2 = hex\"d3098e76c3ca004ad6482977e00e65d981f1a0bc9acdf6d6b5ae95b4d2751a47057fa363286aa9039b191268a305b656e4980987be0f6f523bda2cf89765ac5bf2ae0a9c5630af56f21bd97f4e91784183a052932d7a16a4e8ee6e7ae21ad5cb4cd99bfb3167d0ff3fd5376ccaaf4169e4630b623f278019aa03ae79b3516124afe8df70c19c0315034876200f58edf4d83dbf25e60af76f5e97bac967a11f813132ee6e7db6c47c6b75cc30d527c30c04e0ea06c4a784697195d16fa5041cd4cd08e238add5c5149e47a3fd8472363f646786baf1a477f394f2f6e4af7e06e0339aff913f9a0cfbba42e3858a685a66f43dfdfe6885ce5f8d27cbcd773dfed9\";\n    bytes modulus3 = hex\"f659dc051e02f69f4b449e425737c22c263c44c6e4e70c54afbb1148550d907b7ef05880b83fac5d2691a3578955f264a2b9b4343e13fa617a2ff38d1719e55bbe002b5a40bfd00744cd40e5ced0c1981d46243181cd2c3c41b8447c368316b4e62b121ff1a5b49278c5765e44c2859fa436c72831c28c00d43467c0fa6ba5a9d928d76283efb1fc91e5b34a3197daedf0e85b491c1150bcb232799f16572e49760327d405fc9f058fce5a9c54f076a1f00c70beb98b557405d1777a86e3c97f36a3bbb6155edf06e604c1db93939c7bf4e1ea042d1907b6c14c0bab0be9cc9085aaa92f6847dad5272afa2b6299ae2c62666e2a38263aed35ce47a6eb5a6fb1\";\n    bytes modulus4 = hex\"c4f7e1e0085843c11cd19f91deaefb01611761802717f326726137a5255a0a2da709f9d55d445657b3e2945b67ff1a077d0d108df931ba184974dcbd017d3127b21e8331caf836b8aa4ba03ac4695541ee0590ae34bc36d95f23a78b5df5588340db247a499f55dbecaed1f780a41400a57ab508dba210e1047f5bab1fa079ac994a846be936701e9bfadc081f657a040db446da525fab4b0c9cd45d6b81c7940f4b2f95ac531d68ac28b6feb23d9fd4685d503c6f3c24e64bb3ed7a281b1f729ab6c32440bd158655db11c3401f1849af2438789c7835228edb63ab81e6384db3ca441dd9850b1578a1ee98a64506f766200890a16916e98fc66117fe2bca09\";\n    bytes modulus5 = hex\"d1ad7c55feffeb0d8bae01c0df90381968e3151d2ff65f5d4dc4532453a8e6adcf5fdcf50ff5c090ce62e562dbda88b48983396bb3138e802d45ee7b03b9cd29c992027111771039b4683b06d8b2ad10dccf291b6ed6f817920e99a4e5066ca560a0df409f82b3af0ad9bb631cb634e28dee91d2b249cbdcb77625e6b538ce119e3c16e959dd1135acdb9c3550519ee56c04cd86cd9b5847c4f9a6e99e17b5783a88c447a133533ee68f53bdb961694d629a7080921831dfe185a623fb6e60f3dc0133e68559702ee68f3cc83465d449db44feee7e48cfe4e59fa4334edb52906ed51986bf453e8a623301457457bc16e83d7b2354dd457ee14e6c15279ef613\";\n    bytes modulus6 = hex\"ebe1f9ac4b09b2ebbbf82e7f3b7c0b623a3ea71f636ffd4cb9919d294eb15565ed84b955f375d0b6ab8124024600296c77dae4eb631a925e41ba015f62ae818412a99e51c4a281b3fd7b4a042996864e4463c709c6277f26fd257ae16439ce7a395216c908e43727cdc0462c0f43ceff48983dd637e80cd7ec9959f2ce4404f0edf5bdba1b99337ebe4a7147309545d760e8a4db6747d95dbee6620be2a0e408379afbcfe26d696db41351d95c323afc536a240b845eb5321e28a4a9640866bb3e26af3866a4bb0272d3e4076f91f70451a208b888a7e7cb29c8c6b988d35e0f8126e1d6c09b6e1a6acfb0885ad5ba94d4ac6e609dbac5ff7e02203c2bdb7507\";\n    bytes modulus7 = hex\"e14891ebd21199f04c85d8fce03494fb6e6b7d43db1af62b4e13dc7594834c20cd805cd63f8fa4d27ee788a37ef133e1068d91f4539f81facdaa9e613757ca15659fb43165ad6bd47b62edfac11a08ca931d24d8090071a4f062fcadb5a5aa33d7b100dd46c9df0d18ad98757d056741a1b89f595632f62906bcb09a84c2eb63e868a97aafa89c49e9c38bbc6cf295e47676b2c6e3a978e670e3122b62ae39d4e568dc828e87182d90e3a4ffdc213f370e426d730fe98dd20a1548192f629290d98dd58f2a1f1e9abd59f116b47b0f8b7066e3de17f347025548d457fc53d24bd3294e2b4d9839a4687adc8ceb203f862f2f9e6bd2cbd4427aeec125515bbc47\";\n    bytes modulus8 = hex\"b5be3e236c62a3e03d0d993ba5ccfc639620e5237bdc53e7dd52d24a0b7236f3143b16c7ff4d1cf31a5f9c6671f303a1504a50fd91137b4edf5e37fdb672b68ad14ace39d968da3ae3cfb83b1ee0a2550903e98d21b122a6fc34fa5f4ddc1f06fe659ccad06df638abf858019af66e291f84c5f394211764c50cdc46786a30d874cfcd0046e3e5d9ad899eaad543e32a3b1437088b22bbf443332026a1e46c7574713da7d0a6ab0a1822f9fda463c561d8d5d503dde26dfd323c80d8bb6831cfc9872b647d7ced6683125ec816a00e721f65b4aca5e1d861aa50901d9bbb5e9d9266122e39725b2ca7e575d3cbdab5f75a562d586a0b157acf8468757f78ce25\";\n    bytes modulus9 = hex\"a68c37147fb740f3007c0794d7ece6168c6c465ee1c562cd22578fef2a6e884ba149bbc979e2463bde14fe21c3ae0ae34257156fa92db4e6c7eb6fc0597a4b5196fdc9be4032c47f4a4d76211244361b1a9b7d2629610fbe10ae6811ca1ccf0686198fe158d7d932a20bdf7a02e6ea9208f33fb989952cedb6c64db4a15cac40d053746499b9d6682974f911a403ea5add15c2a7f918cbfad784ef7536a68ef7678a613fe45aed0cfd5e4ae772f41b4f5f43129fcf7e550268f0781bc26e721bea3893b02c52a537e3a342833117b9c419fda280f307a258ef162c5b2dc0d48ae88de34f785b0368dca5310cbf5f434843d77797898a6b4faebb89079d15a60b\";\n\n    //example signature for measuring storage\n    bytes x_ex = hex\"040bb2f2151be77a766ffa74256a1f778bc45c4027d7ff6de44c14d77fc33a17efb6b18059af36d3a3c9b9db710412b25ad0393901f9877bf48bb95dbcc9b0a5679a52a92d32aac97d5f9b7e242c87049e528c31f229b3b2e115c80a0699ae25cd5564ba0056cc897126cba89221a2a6e516553c591f3406f05267513db8434d3ecf336bfc28b6998c12b5f07d96597ac32ea81a8e5f71b3ad37d4bda7ebd90a8c6fb2b27be797ac1ed1719f9978a55b98d194c55886b0db3dde6f8933632d0466a52a30944c877bcff04f79862a377d4779d5fcf69590bbedc39aaf0c1c2a3b29cbcd2e6c826ce4fb1f6ade94492ff8640412277e27ae86e7527d05da9c4d58\";\n    bytes32 h_ex = hex\"382c197defb54043b80875be1de7fa4bb210c183e2e274c25296d9de5da09df1\";\n    bytes16 r_ex = bytes16(39591481140754388166925179461058716055);\n    bool b_ex = false;\n\n    //NOTE: add elements to set the number of messages signatures that will be stored in function store.\n    bytes16[] r_arr = [r_ex, r_ex, r_ex, r_ex, r_ex,\n                        r_ex, r_ex, r_ex, r_ex, r_ex];\n    bool[] b_arr = [b_ex, b_ex, b_ex, b_ex, b_ex,\n                        b_ex, b_ex, b_ex, b_ex, b_ex];\n\n    /**\n    This method is used to measure only the transaction costs\n    */\n    function doNothing(bytes data, bytes x, bytes32 h, bool[] b, bytes16[] r) returns (bool) {\n        revert();\n    }\n\n    /**\n    This method is used to measure only the storage costs\n    */\n    uint32 counter = 0;\n    mapping(uint32 => bytes) msg_storage;\n    mapping(uint32 => bytes) x_storage;\n    mapping(uint32 => bytes32) h_storage;\n    mapping(uint32 => bytes16[]) r_storage;\n    mapping(uint32 => bool[]) b_storage;\n    function store() {\n\n        uint n = 10; //NOTE: change this parameter to set the number of messages signatures that will be stored\n\n        x_storage[counter] = x_ex;\n        h_storage[counter] = h_ex;\n        r_storage[counter] = r_arr;\n        b_storage[counter] = b_arr;\n\n        for (uint i = 0; i < n; i++) {\n            msg_storage[counter] = message;\n            counter = counter + 1;\n        }\n    }\n\n    /**\n    This method is used to measure the total costs\n    */\n    function verify(bytes data, bytes x, bytes32 h, bool[] b, bytes16[] r) returns (bool) {\n        bytes memory x_prev = x;\n        bytes32 h_prev = h;\n\n        uint n_signers = r.length;\n\n        for (uint i = n_signers - 1; i > 0; i--) {\n            //Line 2, 3 and 4\n            x_prev = xorbytes(ghash(h_prev), modexp(split_inverse(x_prev, b[i]), e, getModulus(i)));\n\n            //Line 5 and 6\n            h_prev = h_prev ^ hhash(getModulus(i), getMessage(i), labels[i], r[i], x_prev);\n        }\n\n        //Line 7\n        bytes32 h_hash = hhashbase(getModulus(0), getMessage(0), labels[0], r[0]);\n        bytes memory g_hash = ghash(h_prev);\n\n        bytes memory pig = modexp(split_inverse(x_prev, b[0]), e, modulus0);\n\n        //Perform check\n        //require(h_hash == h_prev && equals(g_hash, pig));\n\n        //Store proof and messages\n        x_storage[counter] = x_prev;\n        h_storage[counter] = h_prev;\n        r_storage[counter] = r;\n        b_storage[counter] = b;\n        for (uint j = 0; j < n_signers; j++) {\n            msg_storage[counter] = message;\n            counter = counter + 1;\n        }\n\n        return true;\n    }\n\n    function getModulus(uint i) view internal returns (bytes) {\n        if (i == 0) {\n            return modulus0;\n        } else if (i == 1) {\n            return modulus1;\n        } else if (i == 2) {\n            return modulus2;\n        } else if (i == 3) {\n            return modulus3;\n        } else if (i == 4) {\n            return modulus4;\n        } else if (i == 5) {\n            return modulus5;\n        } else if (i == 6) {\n            return modulus6;\n        } else if (i == 7) {\n            return modulus7;\n        } else if (i == 8) {\n            return modulus8;\n        } else if (i == 9) {\n            return modulus9;\n        }\n    }\n\n    function getMessage(uint i) internal returns (bytes) {\n        return message;\n    }\n\n    function modexp(bytes base, uint exponent, bytes modulus) internal returns (bytes output) {\n        //bytes memory modulus = bytes(modulus_str);\n        uint base_length = base.length;\n        uint modulus_length = modulus.length;\n\n        uint size = (32 * 3) + base_length + 32 + modulus_length;\n        bytes memory input = new bytes(size);\n        output = new bytes(modulus_length);\n\n        assembly {\n            mstore(add(input, 32), base_length)\n            mstore(add(input, 64), 32)\n            mstore(add(input, 96), modulus_length)\n\n            mstore(add(input, add(128, base_length)), exponent)\n        }\n\n        memcopy(base, 0, input, 96, base_length);\n        memcopy(modulus, 0, input, 96 + base_length + 32, modulus_length);\n\n        assembly {\n            pop(call(gas(), 5, 0, add(input, 32), size, add(output, 32), modulus_length))\n        }\n    }\n\n    function split_inverse(bytes xi, bool bi) internal pure returns (bytes) {\n        if (bi) {\n            xi[0] = byte(uint(xi[0]) + 128);\n        }\n\n        return xi;\n    }\n\n    function ghash(bytes32 y) internal pure returns (bytes) {\n        bytes32 hash = keccak256(y);\n        bytes memory res = hex\"00000000000000000000000000000000000000000000000000000000000000000000000000000000000000000000000000000000000000000000000000000000000000000000000000000000000000000000000000000000000000000000000000000000000000000000000000000000000000000000000000000000000000000000000000000000000000000000000000000000000000000000000000000000000000000000000000000000000000000000000000000000000000000000000000000000000000000000000000000000000000000000000000000000000000000000000000000000000000000000000000000000000000000000000000000000\";\n\n        for(uint i = 1; i < 256; i++) {\n            res[i] = hash[i % 32];\n        }\n\n        return res;\n    }\n\n    function hhash(bytes modulus, bytes message, string label, bytes16 random, bytes x_prev) internal pure returns (bytes32) {\n        return keccak256(modulus, message, label, random, x_prev);\n    }\n\n    function hhashbase(bytes modulus, bytes message, string label, bytes16 random) internal pure returns (bytes32) {\n        return keccak256(modulus, message, label, random);\n    }\n\n    function cut(bytes i) internal pure returns (bytes32 part1, bytes32 part2, bytes32 part3, bytes32 part4, bytes32 part5, bytes32 part6, bytes32 part7, bytes32 part8) {\n\n        assembly {\n            part1 := mload(add(i, 32))\n            part2 := mload(add(i, 64))\n            part3 := mload(add(i, 96))\n            part4 := mload(add(i, 128))\n            part5 := mload(add(i, 160))\n            part6 := mload(add(i, 192))\n            part7 := mload(add(i, 224))\n            part8 := mload(add(i, 256))\n        }\n    }\n\n    function xorbytes(bytes a, bytes y) internal pure returns (bytes) {\n        bytes32 c1;\n        bytes32 c2;\n        bytes32 c3;\n        bytes32 c4;\n        bytes32 c5;\n        bytes32 c6;\n        bytes32 c7;\n        bytes32 c8;\n\n        assembly {\n            c1 := xor(mload(add(a, 32)), mload(add(y, 32)))\n            c2 := xor(mload(add(a, 64)), mload(add(y, 64)))\n            c3 := xor(mload(add(a, 96)), mload(add(y, 96)))\n            c4 := xor(mload(add(a, 128)), mload(add(y, 128)))\n            c5 := xor(mload(add(a, 160)), mload(add(y, 160)))\n            c6 := xor(mload(add(a, 192)), mload(add(y, 192)))\n            c7 := xor(mload(add(a, 224)), mload(add(y, 224)))\n            c8 := xor(mload(add(a, 256)), mload(add(y, 256)))\n        }\n\n        bytes memory merged = new bytes(256);\n\n        uint k = 0;\n\n        for (uint i = 0; i < 32; i++) {\n            merged[k] = c1[i];\n            k++;\n        }\n\n        for (i = 0; i < 32; i++) {\n            merged[k] = c2[i];\n            k++;\n        }\n\n        for (i = 0; i < 32; i++) {\n            merged[k] = c3[i];\n            k++;\n        }\n\n        for (i = 0; i < 32; i++) {\n            merged[k] = c4[i];\n            k++;\n        }\n\n        for (i = 0; i < 32; i++) {\n            merged[k] = c5[i];\n            k++;\n        }\n\n        for (i = 0; i < 32; i++) {\n            merged[k] = c6[i];\n            k++;\n        }\n\n        for (i = 0; i < 32; i++) {\n            merged[k] = c7[i];\n            k++;\n        }\n\n        for (i = 0; i < 32; i++) {\n            merged[k] = c8[i];\n            k++;\n        }\n\n        return merged;\n    }\n\n    function memcopy(bytes src, uint srcoffset, bytes dst, uint dstoffset, uint len) pure internal {\n        assembly {\n            src := add(src, add(32, srcoffset))\n            dst := add(dst, add(32, dstoffset))\n\n        // copy 32 bytes at once\n            for\n            {}\n            iszero(lt(len, 32))\n            {\n                dst := add(dst, 32)\n                src := add(src, 32)\n                len := sub(len, 32)\n            }\n            {mstore(dst, mload(src))}\n\n        // copy the remainder (0 < len < 32)\n            let mask := sub(exp(256, sub(32, len)), 1)\n            let srcpart := and(mload(src), not(mask))\n            let dstpart := and(mload(dst), mask)\n            mstore(dst, or(srcpart, dstpart))\n        }\n    }\n\n    function equals(bytes memory self, bytes memory other) internal pure returns (bool equal) {\n        if (self.length != other.length) {\n            return false;\n        }\n\n        uint addr;\n        uint addr2;\n        uint len = self.length;\n\n        assembly {\n            addr := add(self, /*BYTES_HEADER_SIZE*/32)\n            addr2 := add(other, /*BYTES_HEADER_SIZE*/32)\n            equal := eq(keccak256(addr, len), keccak256(addr2, len))\n        }\n    }\n\n}\n",
  "sourcePath": "/home/bjorn/Projects/BGRVerify/contracts/BGR.sol",
  "compiler": {
    "name": "solc",
    "version": "0.4.21+commit.dfe3193c.Emscripten.clang"
  },
  "schemaVersion": "2.0.0",
  "updatedAt": "2018-06-21T12:16:33.334Z"
}