{
  "contractName": "BGR",
  "abi": [
    {
      "constant": false,
      "inputs": [
        {
          "name": "x",
          "type": "bytes"
        },
        {
          "name": "h",
          "type": "bytes"
        },
        {
          "name": "r",
          "type": "bytes32[]"
        },
        {
          "name": "b",
          "type": "bytes32[]"
        }
      ],
      "name": "verify",
      "outputs": [],
      "payable": false,
      "stateMutability": "nonpayable",
      "type": "function"
    },
    {
      "constant": false,
      "inputs": [
        {
          "name": "a_val",
          "type": "bytes"
        },
        {
          "name": "a_extra",
          "type": "bytes"
        },
        {
          "name": "b_val",
          "type": "bytes"
        },
        {
          "name": "b_extra",
          "type": "bytes"
        },
        {
          "name": "mod_val",
          "type": "bytes"
        },
        {
          "name": "mod_extra",
          "type": "bytes"
        }
      ],
      "name": "modexp",
      "outputs": [
        {
          "name": "",
          "type": "bytes"
        },
        {
          "name": "",
          "type": "bool"
        },
        {
          "name": "",
          "type": "uint256"
        }
      ],
      "payable": false,
      "stateMutability": "nonpayable",
      "type": "function"
    }
  ],
  "bytecode": "0x60606040526201041060005560408051908101604052806040805190810160405280600381526020017f616263000000000000000000000000000000000000000000000000000000000081525081526020016040805190810160405280600381526020017f646566000000000000000000000000000000000000000000000000000000000081525081525060019060026200009c929190620000af565b503415620000a957600080fd5b62000242565b82805482825590600052602060002090810192821562000103579160200282015b8281111562000102578251829080519060200190620000f192919062000116565b5091602001919060010190620000d0565b5b5090506200011291906200019d565b5090565b828054600181600116156101000203166002900490600052602060002090601f016020900481019282601f106200015957805160ff19168380011785556200018a565b828001600101855582156200018a579182015b82811115620001895782518255916020019190600101906200016c565b5b509050620001999190620001ce565b5090565b620001cb91905b80821115620001c75760008181620001bd9190620001f6565b50600101620001a4565b5090565b90565b620001f391905b80821115620001ef576000816000905550600101620001d5565b5090565b90565b50805460018160011615610100020316600290046000825580601f106200021e57506200023f565b601f0160209004906000526020600020908101906200023e9190620001ce565b5b50565b6109ab80620002526000396000f30060606040526004361061004c576000357c0100000000000000000000000000000000000000000000000000000000900463ffffffff168063116b5776146100515780633030e8d014610288575b600080fd5b341561005c57600080fd5b6101fb600480803590602001908201803590602001908080601f0160208091040260200160405190810160405280939291908181526020018383808284378201915050505050509190803590602001908201803590602001908080601f0160208091040260200160405190810160405280939291908181526020018383808284378201915050505050509190803590602001908201803590602001908080601f0160208091040260200160405190810160405280939291908181526020018383808284378201915050505050509190803590602001908201803590602001908080601f0160208091040260200160405190810160405280939291908181526020018383808284378201915050505050509190803590602001908201803590602001908080601f0160208091040260200160405190810160405280939291908181526020018383808284378201915050505050509190803590602001908201803590602001908080601f016020809104026020016040519081016040528093929190818152602001838380828437820191505050505050919050506103a8565b604051808060200184151515158152602001838152602001828103825285818151815260200191508051906020019080838360005b8381101561024b578082015181840152602081019050610230565b50505050905090810190601f1680156102785780820380516001836020036101000a031916815260200191505b5094505050505060405180910390f35b341561029357600080fd5b6103a6600480803590602001908201803590602001908080601f0160208091040260200160405190810160405280939291908181526020018383808284378201915050505050509190803590602001908201803590602001908080601f0160208091040260200160405190810160405280939291908181526020018383808284378201915050505050509190803590602001908201803590602001908080602002602001604051908101604052809392919081815260200183836020028082843782019150505050505091908035906020019082018035906020019080806020026020016040519081016040528093929190818152602001838360200280828437820191505050505050919050506104dd565b005b6103b061092d565b6000806103bb610941565b6103c3610941565b6103cb610941565b6000806103d6610941565b60208e0151925060408e015191508e86600001819052508186604001818152505060018314610406576000610409565b60015b86602001901515908115158152505060208c0151925060408c015191508c8560000181905250818560400181815250506001831461044857600061044b565b60015b85602001901515908115158152505060208a0151925060408a015191508a8460000181905250818460400181815250506001831461048a57600061048d565b60015b8460200190151590811515815250506104b185858861051e9092919063ffffffff16565b905080600001518160200151826040015182925098509850985050505050505096509650969350505050565b6104e561092d565b6104ed61092d565b600086925085915060018054905090505b6000811115610515578080600190039150506104fe565b50505050505050565b610526610941565b61052e61092d565b60008015158560200151151514151561054657600080fd5b61055d8660000151866000015186600001516105ef565b91506020820151905061010060016020845181151561057857fe5b040302610584826106c7565b019050818360000181905250600015158660200151151514806105bc5750856020015180156105bb575060006105b986610918565b145b5b6105c75760016105ca565b60005b8360200190151590811515815250508083604001818152505082925050509392505050565b6105f761092d565b83518351835160405183815282602082015281604082015283606082018560208b0160046101c2fa84606001848184018660208c0160046101c2fa91508481019050838184018560208b0160046101c2fa915081600081146106585761065a565bfe5b5083810190508383606001828560056105465a03fa9150816000811461067f57610681565bfe5b5083836060015b6001600082511414156106a657602081019050602082039150610688565b60208103985081895285856060010160405250505050505050509392505050565b60008082905060018303925060028304831792506004830483179250601083048317925061010083048317925062010000830483179250640100000000830483179250680100000000000000008304831792507001000000000000000000000000000000008304831792506001830192506040517ff8f9cbfae6cc78fbefe7cdc3a1793dfcf4f0e8bbd8cec470b6a28a7a5a3e1efd81527ff5ecf1b3e9debc68e1d9cfabc5997135bfb7a7a3938b7b606b5b4b3f2f1f0ffe60208201527ff6e4ed9ff2d6b458eadcdf97bd91692de2d4da8fd2d0ac50c6ae9a827252361660408201527fc8c0b887b0a8a4489c948c7f847c6125746c645c544c444038302820181008ff60608201527ff7cae577eec2a03cf3bad76fb589591debb2dd67e0aa9834bea6925f6a4a2e0e60808201527fe39ed557db96902cd38ed14fad815115c786af479b7e8324736353433727170760a08201527fc976c13bb96e881cb166a933a55e490d9d56952b8d4e801485467d236242260660c08201527f753a6d1b65325d0c552a4d1345224105391a310b29122104190a11030902010060e082015261010081016040527e818283848586878898a8b8c8d8e8f929395969799a9b9d9e9faaeb6bedeeff7f01000000000000000000000000000000000000000000000000000000000000008082870204818160ff038501510495507f800000000000000000000000000000000000000000000000000000000000000085116101000286019550505050506000600182038216148015610906575060008314155b15610912578160010191505b50919050565b60008151518251016002815106915050919050565b602060405190810160405280600081525090565b60606040519081016040528061095561096b565b8152602001600015158152602001600081525090565b6020604051908101604052806000815250905600a165627a7a723058202b0af1591a1df12bff5cfdb70e068dbacf93d95a682ee31acaea90cfef4bda620029",
  "source": "pragma solidity 0.4.21;\n\nimport \"./BigNumber.sol\";\n\ncontract BGR {\n    using BigNumber for *;\n\n    //Simulation of PKI\n    uint e = 66576; //TODO check this number.\n    string[] modulus = [\"abc\", \"def\"]; //TODO put keys here\n\n    function verify(bytes x, bytes h, bytes32[] r, bytes32[] b) {\n        bytes memory x_prev = x;\n        bytes memory h_prev = h;\n\n        for (uint i = modulus.length; i > 0; i--) {\n            //Line 2\n            //X := split_inverse(signature.b[i], x_prev)\n            //y := pi(X, publickeys[i])\n\n            //Line 3\n            //g := G(h_prev)\n\n            //Line 4\n            //x_prev = xor(g, y)\n\n            //Line 5\n            //eta := H(publickeys[i], messages[i], r[i], x_prev)\n\n            //Line 6\n            //h_prev = xor(h_prev, eta)\n        }\n\n\n        //Line 7\n        //HHash := H(publickeys[0], messages[0], r[0], []byte{})\n        //GHash := G(h_prev)\n        //pig := pi(split_inverse(signature.b[0], x_prev), publickeys[0])\n\n        //convert everything to numbers for comparison\n        //h_prev_num := new(big.Int).SetBytes(h_prev)\n        //HHash_num := new(big.Int).SetBytes(HHash)\n        //pig_num := new(big.Int).SetBytes(pig)\n        //GHash_num := new(big.Int).SetBytes(GHash)\n\n        //return h_prev_num.Cmp(HHash_num) == 0 && pig_num.Cmp(GHash_num) == 0;\n    }\n\n    //stack too deep error when passing in 9 distinct variables as arguments where 3 bignums are expected.\n    //instead we encode each bitlen/neg value in a bytes array and decode.\n    function modexp(bytes a_val, bytes a_extra, bytes b_val, bytes b_extra, bytes mod_val, bytes mod_extra) public returns(bytes, bool, uint){\n        BigNumber.instance memory a;\n        BigNumber.instance memory b;\n        BigNumber.instance memory mod;\n\n        uint neg;\n        uint bitlen;\n\n        assembly {\n            neg := mload(add(a_extra,0x20))\n            bitlen := mload(add(a_extra,0x40))\n        }\n\n        a.val = a_val;\n        a.bitlen = bitlen;\n        a.neg = (neg==1) ? true : false;\n\n        assembly {\n            neg := mload(add(b_extra,0x20))\n            bitlen := mload(add(b_extra,0x40))\n        }\n\n        b.val = b_val;\n        b.bitlen = bitlen;\n        b.neg = (neg==1) ? true : false;\n\n        assembly {\n            neg := mload(add(mod_extra,0x20))\n            bitlen := mload(add(mod_extra,0x40))\n        }\n\n        mod.val = mod_val;\n        mod.bitlen = bitlen;\n        mod.neg = (neg==1) ? true : false;\n\n        BigNumber.instance memory res = a.prepare_modexp(b,mod);\n\n        return (res.val, res.neg, res.bitlen);\n    }\n\n}\n",
  "sourcePath": "/home/bjorn/Projects/BGRVerify/contracts/BGR.sol",
  "compiler": {
    "name": "solc",
    "version": "0.4.21+commit.dfe3193c.Emscripten.clang"
  },
  "schemaVersion": "2.0.0",
  "updatedAt": "2018-05-28T13:14:47.561Z"
}