{
  "contractName": "BGR",
  "abi": [
    {
      "constant": false,
      "inputs": [
        {
          "name": "a_val",
          "type": "bytes"
        },
        {
          "name": "a_extra",
          "type": "bytes"
        },
        {
          "name": "b_val",
          "type": "bytes"
        },
        {
          "name": "b_extra",
          "type": "bytes"
        },
        {
          "name": "mod_val",
          "type": "bytes"
        },
        {
          "name": "mod_extra",
          "type": "bytes"
        }
      ],
      "name": "modexp",
      "outputs": [
        {
          "name": "",
          "type": "bytes"
        },
        {
          "name": "",
          "type": "bool"
        },
        {
          "name": "",
          "type": "uint256"
        }
      ],
      "payable": false,
      "stateMutability": "nonpayable",
      "type": "function"
    }
  ],
  "bytecode": "0x6060604052341561000f57600080fd5b61083f8061001e6000396000f300606060405260043610610041576000357c0100000000000000000000000000000000000000000000000000000000900463ffffffff168063116b577614610046575b600080fd5b341561005157600080fd5b6101f0600480803590602001908201803590602001908080601f0160208091040260200160405190810160405280939291908181526020018383808284378201915050505050509190803590602001908201803590602001908080601f0160208091040260200160405190810160405280939291908181526020018383808284378201915050505050509190803590602001908201803590602001908080601f0160208091040260200160405190810160405280939291908181526020018383808284378201915050505050509190803590602001908201803590602001908080601f0160208091040260200160405190810160405280939291908181526020018383808284378201915050505050509190803590602001908201803590602001908080601f0160208091040260200160405190810160405280939291908181526020018383808284378201915050505050509190803590602001908201803590602001908080601f0160208091040260200160405190810160405280939291908181526020018383808284378201915050505050509190505061027d565b604051808060200184151515158152602001838152602001828103825285818151815260200191508051906020019080838360005b83811015610240578082015181840152602081019050610225565b50505050905090810190601f16801561026d5780820380516001836020036101000a031916815260200191505b5094505050505060405180910390f35b6102856107c1565b6000806102906107d5565b6102986107d5565b6102a06107d5565b6000806102ab6107d5565b60208e0151925060408e015191508e866000018190525081866040018181525050600183146102db5760006102de565b60015b86602001901515908115158152505060208c0151925060408c015191508c8560000181905250818560400181815250506001831461031d576000610320565b60015b85602001901515908115158152505060208a0151925060408a015191508a8460000181905250818460400181815250506001831461035f576000610362565b60015b8460200190151590811515815250506103868585886103b29092919063ffffffff16565b905080600001518160200151826040015182925098509850985050505050505096509650969350505050565b6103ba6107d5565b6103c26107c1565b6000801515856020015115151415156103da57600080fd5b6103f1866000015186600001518660000151610483565b91506020820151905061010060016020845181151561040c57fe5b0403026104188261055b565b0190508183600001819052506000151586602001511515148061045057508560200151801561044f5750600061044d866107ac565b145b5b61045b57600161045e565b60005b8360200190151590811515815250508083604001818152505082925050509392505050565b61048b6107c1565b83518351835160405183815282602082015281604082015283606082018560208b0160046101c2fa84606001848184018660208c0160046101c2fa91508481019050838184018560208b0160046101c2fa915081600081146104ec576104ee565bfe5b5083810190508383606001828560056105465a03fa9150816000811461051357610515565bfe5b5083836060015b60016000825114141561053a5760208101905060208203915061051c565b60208103985081895285856060010160405250505050505050509392505050565b60008082905060018303925060028304831792506004830483179250601083048317925061010083048317925062010000830483179250640100000000830483179250680100000000000000008304831792507001000000000000000000000000000000008304831792506001830192506040517ff8f9cbfae6cc78fbefe7cdc3a1793dfcf4f0e8bbd8cec470b6a28a7a5a3e1efd81527ff5ecf1b3e9debc68e1d9cfabc5997135bfb7a7a3938b7b606b5b4b3f2f1f0ffe60208201527ff6e4ed9ff2d6b458eadcdf97bd91692de2d4da8fd2d0ac50c6ae9a827252361660408201527fc8c0b887b0a8a4489c948c7f847c6125746c645c544c444038302820181008ff60608201527ff7cae577eec2a03cf3bad76fb589591debb2dd67e0aa9834bea6925f6a4a2e0e60808201527fe39ed557db96902cd38ed14fad815115c786af479b7e8324736353433727170760a08201527fc976c13bb96e881cb166a933a55e490d9d56952b8d4e801485467d236242260660c08201527f753a6d1b65325d0c552a4d1345224105391a310b29122104190a11030902010060e082015261010081016040527e818283848586878898a8b8c8d8e8f929395969799a9b9d9e9faaeb6bedeeff7f01000000000000000000000000000000000000000000000000000000000000008082870204818160ff038501510495507f80000000000000000000000000000000000000000000000000000000000000008511610100028601955050505050600060018203821614801561079a575060008314155b156107a6578160010191505b50919050565b60008151518251016002815106915050919050565b602060405190810160405280600081525090565b6060604051908101604052806107e96107ff565b8152602001600015158152602001600081525090565b6020604051908101604052806000815250905600a165627a7a72305820633953853e6d0225791ae03167e69d5909047477be121e4bf870cf16140e364f0029",
  "source": "pragma solidity 0.4.21;\n\nimport \"./BigNumber.sol\";\n\ncontract BGR {\n    using BigNumber for *;\n\n\n    //stack too deep error when passing in 9 distinct variables as arguments where 3 bignums are expected.\n    //instead we encode each bitlen/neg value in a bytes array and decode.\n    function modexp(bytes a_val, bytes a_extra, bytes b_val, bytes b_extra, bytes mod_val, bytes mod_extra) public returns(bytes, bool, uint){\n        BigNumber.instance memory a;\n        BigNumber.instance memory b;\n        BigNumber.instance memory mod;\n\n        uint neg;\n        uint bitlen;\n\n        assembly {\n            neg := mload(add(a_extra,0x20))\n            bitlen := mload(add(a_extra,0x40))\n        }\n\n        a.val = a_val;\n        a.bitlen = bitlen;\n        a.neg = (neg==1) ? true : false;\n\n        assembly {\n            neg := mload(add(b_extra,0x20))\n            bitlen := mload(add(b_extra,0x40))\n        }\n\n        b.val = b_val;\n        b.bitlen = bitlen;\n        b.neg = (neg==1) ? true : false;\n\n        assembly {\n            neg := mload(add(mod_extra,0x20))\n            bitlen := mload(add(mod_extra,0x40))\n        }\n\n        mod.val = mod_val;\n        mod.bitlen = bitlen;\n        mod.neg = (neg==1) ? true : false;\n\n        BigNumber.instance memory res = a.prepare_modexp(b,mod);\n\n        return (res.val, res.neg, res.bitlen);\n    }\n\n}\n",
  "sourcePath": "/home/bjorn/Projects/BGR/contracts/BGR.sol",
  "compiler": {
    "name": "solc",
    "version": "0.4.21+commit.dfe3193c.Emscripten.clang"
  },
  "schemaVersion": "2.0.0",
  "updatedAt": "2018-05-27T15:01:06.101Z"
}