{
  "contractName": "BGR2",
  "abi": [
    {
      "constant": false,
      "inputs": [
        {
          "name": "m",
          "type": "bytes"
        },
        {
          "name": "x",
          "type": "bytes"
        },
        {
          "name": "h",
          "type": "bytes32"
        },
        {
          "name": "b",
          "type": "bool[]"
        },
        {
          "name": "r",
          "type": "bytes16[]"
        }
      ],
      "name": "verify",
      "outputs": [
        {
          "name": "",
          "type": "bool"
        }
      ],
      "payable": false,
      "stateMutability": "nonpayable",
      "type": "function"
    }
  ],
  "bytecode": "0x606060405260408051908101604052806040805190810160405280600981526020017f4d4553534147452030000000000000000000000000000000000000000000000081525081526020016040805190810160405280600981526020017f4d45535341474520310000000000000000000000000000000000000000000000815250815250600090600262000095929190620001aa565b5060408051908101604052806040805190810160405280601181526020017f6578616d706c652e636f6d2f6170692f3000000000000000000000000000000081525081526020016040805190810160405280601181526020017f6578616d706c652e636f6d2f6170692f31000000000000000000000000000000815250815250600190600262000127929190620001aa565b506002805561012060405190810160405280610100815260200162001ca66101009139600390805190602001906200016192919062000211565b5061012060405190810160405280610100815260200162001ba66101009139600490805190602001906200019792919062000211565b503415620001a457600080fd5b620003c4565b828054828255906000526020600020908101928215620001fe579160200282015b82811115620001fd578251829080519060200190620001ec92919062000298565b5091602001919060010190620001cb565b5b5090506200020d91906200031f565b5090565b828054600181600116156101000203166002900490600052602060002090601f016020900481019282601f106200025457805160ff191683800117855562000285565b8280016001018555821562000285579182015b828111156200028457825182559160200191906001019062000267565b5b50905062000294919062000350565b5090565b828054600181600116156101000203166002900490600052602060002090601f016020900481019282601f10620002db57805160ff19168380011785556200030c565b828001600101855582156200030c579182015b828111156200030b578251825591602001919060010190620002ee565b5b5090506200031b919062000350565b5090565b6200034d91905b808211156200034957600081816200033f919062000378565b5060010162000326565b5090565b90565b6200037591905b808211156200037157600081600090555060010162000357565b5090565b90565b50805460018160011615610100020316600290046000825580601f10620003a05750620003c1565b601f016020900490600052602060002090810190620003c0919062000350565b5b50565b6117d280620003d46000396000f300606060405260043610610041576000357c0100000000000000000000000000000000000000000000000000000000900463ffffffff1680636dadf3c014610046575b600080fd5b341561005157600080fd5b6100666004610061903690611491565b61007c565b6040516100739190611577565b60405180910390f35b60006100866112e1565b60006100906112e1565b6100986112e1565b6100a06112e1565b60008060006100ad6112e1565b6100b56112e1565b8e99508d985060016002540393505b60008411156102c4576100ee8a8e868151811015156100df57fe5b906020019060200201516105f1565b95506101068662010001610101876106ea565b61084e565b96506101118961091a565b975061011d8888610a0f565b99506102af61012b856106ea565b60008681548110151561013a57fe5b90600052602060002090018054600181600116156101000203166002900480601f0160208091040260200160405190810160405280929190818152602001828054600181600116156101000203166002900480156101d95780601f106101ae576101008083540402835291602001916101d9565b820191906000526020600020905b8154815290600101906020018083116101bc57829003601f168201915b50505050506001878154811015156101ed57fe5b90600052602060002090018054600181600116156101000203166002900480601f01602080910402602001604051908101604052809291908181526020018280546001816001161561010002031660029004801561028c5780601f106102615761010080835404028352916020019161028c565b820191906000526020600020905b81548152906001019060200180831161026f57829003601f168201915b50505050508f8881518110151561029f57fe5b906020019060200201518e610f67565b945084891898508380600190039450506100c4565b6104e760038054600181600116156101000203166002900480601f01602080910402602001604051908101604052809291908181526020018280546001816001161561010002031660029004801561035d5780601f106103325761010080835404028352916020019161035d565b820191906000526020600020905b81548152906001019060200180831161034057829003601f168201915b505050505060008081548110151561037157fe5b90600052602060002090018054600181600116156101000203166002900480601f0160208091040260200160405190810160405280929190818152602001828054600181600116156101000203166002900480156104105780601f106103e557610100808354040283529160200191610410565b820191906000526020600020905b8154815290600101906020018083116103f357829003601f168201915b50505050506001600081548110151561042557fe5b90600052602060002090018054600181600116156101000203166002900480601f0160208091040260200160405190810160405280929190818152602001828054600181600116156101000203166002900480156104c45780601f10610499576101008083540402835291602001916104c4565b820191906000526020600020905b8154815290600101906020018083116104a757829003601f168201915b50505050508f60008151811015156104d857fe5b90602001906020020151611104565b92506104f28961091a565b91506105bd6105198b8f600081518110151561050a57fe5b906020019060200201516105f1565b6201000160038054600181600116156101000203166002900480601f0160208091040260200160405190810160405280929190818152602001828054600181600116156101000203166002900480156105b35780601f10610588576101008083540402835291602001916105b3565b820191906000526020600020905b81548152906001019060200180831161059657829003601f168201915b505050505061084e565b9050886000191683600019161480156105dc57506105db828261124b565b5b9a505050505050505050505095945050505050565b6105f96112e1565b81156106e157608083600081518110151561061057fe5b9060200101517f010000000000000000000000000000000000000000000000000000000000000090047f0100000000000000000000000000000000000000000000000000000000000000027f01000000000000000000000000000000000000000000000000000000000000009004017f0100000000000000000000000000000000000000000000000000000000000000028360008151811015156106b057fe5b9060200101907effffffffffffffffffffffffffffffffffffffffffffffffffffffffffffff1916908160001a9053505b82905092915050565b6106f26112e1565b600082141561079d5760038054600181600116156101000203166002900480601f0160208091040260200160405190810160405280929190818152602001828054600181600116156101000203166002900480156107915780601f1061076657610100808354040283529160200191610791565b820191906000526020600020905b81548152906001019060200180831161077457829003601f168201915b50505050509050610849565b60018214156108485760048054600181600116156101000203166002900480601f01602080910402602001604051908101604052809291908181526020018280546001816001161561010002031660029004801561083c5780601f106108115761010080835404028352916020019161083c565b820191906000526020600020905b81548152906001019060200180831161081f57829003601f168201915b50505050509050610849565b5b919050565b6108566112e1565b60008060006108636112e1565b87519350855192508260208560600101019150816040518059106108845750595b9080825280601f01601f19166020018201604052509050826040518059106108a95750595b9080825280601f01601f191660200182016040525094508360208201526020604082015282606082015286846080018201526108ea88600083606088611288565b6108fe866000836020886060010187611288565b82602086018360208401600060055af150505050509392505050565b6109226112e1565b600061092c6112e1565b6000846040518082600019166000191681526020019150506040518091039020925061012060405190810160405280610100815260200161169961010091399150602090505b610100811015610a04578260208281151561098957fe5b0660208110151561099657fe5b1a7f01000000000000000000000000000000000000000000000000000000000000000282828151811015156109c757fe5b9060200101907effffffffffffffffffffffffffffffffffffffffffffffffffffffffffffff1916908160001a9053508080600101915050610972565b819350505050919050565b610a176112e1565b600080600080600080600080610a2b6112e1565b60008060208d015160208f0151189a5060408d015160408f015118995060608d015160608f015118985060808d015160808f015118975060a08d015160a08f015118965060c08d015160c08f015118955060e08d015160e08f01511894506101008d01516101008f0151189350610100604051805910610aa85750595b9080825280601f01601f1916602001820160405250925060009150600090505b6020811015610b55578a81602081101515610adf57fe5b1a7f0100000000000000000000000000000000000000000000000000000000000000028383815181101515610b1057fe5b9060200101907effffffffffffffffffffffffffffffffffffffffffffffffffffffffffffff1916908160001a90535081806001019250508080600101915050610ac8565b600090505b6020811015610be7578981602081101515610b7157fe5b1a7f0100000000000000000000000000000000000000000000000000000000000000028383815181101515610ba257fe5b9060200101907effffffffffffffffffffffffffffffffffffffffffffffffffffffffffffff1916908160001a90535081806001019250508080600101915050610b5a565b600090505b6020811015610c79578881602081101515610c0357fe5b1a7f0100000000000000000000000000000000000000000000000000000000000000028383815181101515610c3457fe5b9060200101907effffffffffffffffffffffffffffffffffffffffffffffffffffffffffffff1916908160001a90535081806001019250508080600101915050610bec565b600090505b6020811015610d0b578781602081101515610c9557fe5b1a7f0100000000000000000000000000000000000000000000000000000000000000028383815181101515610cc657fe5b9060200101907effffffffffffffffffffffffffffffffffffffffffffffffffffffffffffff1916908160001a90535081806001019250508080600101915050610c7e565b600090505b6020811015610d9d578681602081101515610d2757fe5b1a7f0100000000000000000000000000000000000000000000000000000000000000028383815181101515610d5857fe5b9060200101907effffffffffffffffffffffffffffffffffffffffffffffffffffffffffffff1916908160001a90535081806001019250508080600101915050610d10565b600090505b6020811015610e2f578581602081101515610db957fe5b1a7f0100000000000000000000000000000000000000000000000000000000000000028383815181101515610dea57fe5b9060200101907effffffffffffffffffffffffffffffffffffffffffffffffffffffffffffff1916908160001a90535081806001019250508080600101915050610da2565b600090505b6020811015610ec1578481602081101515610e4b57fe5b1a7f0100000000000000000000000000000000000000000000000000000000000000028383815181101515610e7c57fe5b9060200101907effffffffffffffffffffffffffffffffffffffffffffffffffffffffffffff1916908160001a90535081806001019250508080600101915050610e34565b600090505b6020811015610f53578381602081101515610edd57fe5b1a7f0100000000000000000000000000000000000000000000000000000000000000028383815181101515610f0e57fe5b9060200101907effffffffffffffffffffffffffffffffffffffffffffffffffffffffffffff1916908160001a90535081806001019250508080600101915050610ec6565b829b50505050505050505050505092915050565b600085858585856040518086805190602001908083835b602083101515610fa35780518252602082019150602081019050602083039250610f7e565b6001836020036101000a03801982511681845116808217855250505050505090500185805190602001908083835b602083101515610ff65780518252602082019150602081019050602083039250610fd1565b6001836020036101000a03801982511681845116808217855250505050505090500184805190602001908083835b6020831015156110495780518252602082019150602081019050602083039250611024565b6001836020036101000a038019825116818451168082178552505050505050905001836fffffffffffffffffffffffffffffffff19166fffffffffffffffffffffffffffffffff1916815260100182805190602001908083835b6020831015156110c857805182526020820191506020810190506020830392506110a3565b6001836020036101000a038019825116818451168082178552505050505050905001955050505050506040518091039020905095945050505050565b6000848484846040518085805190602001908083835b60208310151561113f578051825260208201915060208101905060208303925061111a565b6001836020036101000a03801982511681845116808217855250505050505090500184805190602001908083835b602083101515611192578051825260208201915060208101905060208303925061116d565b6001836020036101000a03801982511681845116808217855250505050505090500183805190602001908083835b6020831015156111e557805182526020820191506020810190506020830392506111c0565b6001836020036101000a038019825116818451168082178552505050505050905001826fffffffffffffffffffffffffffffffff19166fffffffffffffffffffffffffffffffff1916815260100194505050505060405180910390209050949350505050565b60008060008084518651141515611265576000935061127f565b855190506020860192506020850191508082208184201493505b50505092915050565b836020018501945081602001830192505b6020811015156112be5784518352602083019250602085019450602081039050611299565b6001816020036101000a0380198651168185511680821786525050505050505050565b602060405190810160405280600081525090565b600082601f830112151561130857600080fd5b813561131b611316826115bf565b611592565b9150818183526020840193506020810190508385602084028201111561134057600080fd5b60005b83811015611370578161135688826113ff565b845260208401935060208301925050600181019050611343565b5050505092915050565b600082601f830112151561138d57600080fd5b81356113a061139b826115e7565b611592565b915081818352602084019350602081019050838560208402820111156113c557600080fd5b60005b838110156113f557816113db8882611413565b8452602084019350602083019250506001810190506113c8565b5050505092915050565b600061140b8235611647565b905092915050565b600061141f8235611653565b905092915050565b6000611433823561167f565b905092915050565b600082601f830112151561144e57600080fd5b813561146161145c8261160f565b611592565b9150808252602083016020830185838301111561147d57600080fd5b611488838284611689565b50505092915050565b600080600080600060a086880312156114a957600080fd5b600086013567ffffffffffffffff8111156114c357600080fd5b6114cf8882890161143b565b955050602086013567ffffffffffffffff8111156114ec57600080fd5b6114f88882890161143b565b945050604061150988828901611427565b935050606086013567ffffffffffffffff81111561152657600080fd5b611532888289016112f5565b925050608086013567ffffffffffffffff81111561154f57600080fd5b61155b8882890161137a565b9150509295509295909350565b6115718161163b565b82525050565b600060208201905061158c6000830184611568565b92915050565b6000604051905081810181811067ffffffffffffffff821117156115b557600080fd5b8060405250919050565b600067ffffffffffffffff8211156115d657600080fd5b602082029050602081019050919050565b600067ffffffffffffffff8211156115fe57600080fd5b602082029050602081019050919050565b600067ffffffffffffffff82111561162657600080fd5b601f19601f8301169050602081019050919050565b60008115159050919050565b60008115159050919050565b60007fffffffffffffffffffffffffffffffff0000000000000000000000000000000082169050919050565b6000819050919050565b82818337600083830152505050560000000000000000000000000000000000000000000000000000000000000000000000000000000000000000000000000000000000000000000000000000000000000000000000000000000000000000000000000000000000000000000000000000000000000000000000000000000000000000000000000000000000000000000000000000000000000000000000000000000000000000000000000000000000000000000000000000000000000000000000000000000000000000000000000000000000000000000000000000000000000000000000000000000000000000000000000000000000000000000000000000000000000000000000000000000000a265627a7a72305820b6ee6b5e2ea2c7d891fd84dcd77e2459fefd9cf448dae7e4dedebf48a5ce8bce6c6578706572696d656e74616cf50037c07bf6cc4968c602d0ce8462516f52a34a09d1cc090740a9d3dd3e4ebefaf8abbe8e2d06708eafb81a4031dddce4c49dceb391bdac17c7b257aa8921986d1b56569a2c284ebf9ecbd396f198c2ac131f43665cb017f14b32e542c7fac13e3b98f99faa86825ad9649d072f695005549ac1491ac73f00f7f45a5d8dcd242c6c2f67a31dac2c9a4909e11ca6c8b9f508a2956d92234b7f6800e64788054bfe88ed23dfd39e063bf1c51ba85fabd55be532d97fff6ce3af806495009facf5d67c42eacf6b9f804158f7eb61cec258fa247559301862e71996b28b5374194eed11ecf2d53b3907d8c76f6ee48698a9b031ea386f73020ea259682209173dd85d83d3ca9c7205d8e71151167175bddf1fb2673e2040753c61680c30d2184d5cd12dcca014c933eb7f62f235db19d1f588f347b4920b70837f01370905e03285e96a895dc9eb318338138f35d8c48fcee94572feaff3b087d9c9fc4719fbac9d0aee454cb7c3cac16262c8b17dbd8ff421d0c565f9fba2ddf3b95c9652f559a7999c16460cc2bb8b2482c7fea91c63a69f072c1fbc385e93de13b4b1bac4f220236ffc2d0418d456a5dd9b79ed5f59c00821d2cc556c1cabc43950be08a5d6a567de28f69fae4d881d2751b08cc7365c027fb8b448a987d016025a2c79be1c06eb31c58a087657a4788ed749dff124c9727c21f221263742c30f55e438cf820f9aa135",
  "source": "pragma solidity 0.4.21;\npragma experimental ABIEncoderV2;\n\ncontract BGR2 {\n\n   string[] messages = [\n   \"MESSAGE 0\",\n   \"MESSAGE 1\"\n   ];\n\n    string[] labels = [\n    \"example.com/api/0\",\n    \"example.com/api/1\"\n    ];\n\n    //Simulation of PKI (assumed to be available)\n    uint n_signers = 2;\n    uint256 constant e = 65537;\n    bytes modulus0 = hex\"ca9c7205d8e71151167175bddf1fb2673e2040753c61680c30d2184d5cd12dcca014c933eb7f62f235db19d1f588f347b4920b70837f01370905e03285e96a895dc9eb318338138f35d8c48fcee94572feaff3b087d9c9fc4719fbac9d0aee454cb7c3cac16262c8b17dbd8ff421d0c565f9fba2ddf3b95c9652f559a7999c16460cc2bb8b2482c7fea91c63a69f072c1fbc385e93de13b4b1bac4f220236ffc2d0418d456a5dd9b79ed5f59c00821d2cc556c1cabc43950be08a5d6a567de28f69fae4d881d2751b08cc7365c027fb8b448a987d016025a2c79be1c06eb31c58a087657a4788ed749dff124c9727c21f221263742c30f55e438cf820f9aa135\";\n    bytes modulus1 = hex\"c07bf6cc4968c602d0ce8462516f52a34a09d1cc090740a9d3dd3e4ebefaf8abbe8e2d06708eafb81a4031dddce4c49dceb391bdac17c7b257aa8921986d1b56569a2c284ebf9ecbd396f198c2ac131f43665cb017f14b32e542c7fac13e3b98f99faa86825ad9649d072f695005549ac1491ac73f00f7f45a5d8dcd242c6c2f67a31dac2c9a4909e11ca6c8b9f508a2956d92234b7f6800e64788054bfe88ed23dfd39e063bf1c51ba85fabd55be532d97fff6ce3af806495009facf5d67c42eacf6b9f804158f7eb61cec258fa247559301862e71996b28b5374194eed11ecf2d53b3907d8c76f6ee48698a9b031ea386f73020ea259682209173dd85d83d3\";\n\n    function verify(bytes m, bytes x, bytes32 h, bool[] b, bytes16[] r) returns (bool) {\n        bytes memory x_prev = x;\n        bytes32 h_prev = h;\n\n        bytes memory g;\n        bytes memory y;\n        bytes memory X;\n        bytes32 eta;\n\n        for (uint i = n_signers - 1; i > 0; i--) {\n            //Line 2\n            X = split_inverse(x_prev, b[i]);\n            y = modexp(X, e, getModulus(i));\n\n            //Line 3\n            g = ghash(h_prev);\n\n            //Line 4\n            x_prev = xorbytes(g, y);\n\n            //Line 5\n            eta = hhash(getModulus(i), messages[i], labels[i], r[i], x_prev);\n\n            //Line 6\n            h_prev = h_prev ^ eta;\n        }\n\n        //Line 7\n        bytes32 h_hash = hhashbase(modulus0, messages[0], labels[0], r[0]);\n        bytes memory g_hash = ghash(h_prev);\n\n        bytes memory pig = modexp(split_inverse(x_prev, b[0]), e, modulus0);\n\n        return h_hash == h_prev && equals(g_hash, pig);\n    }\n\n    function getModulus(uint i) view internal returns (bytes) {\n        if (i == 0) {\n            return modulus0;\n        } else if (i == 1) {\n            return modulus1;\n        }\n    }\n\n    function modexp(bytes base, uint exponent, bytes modulus) internal returns (bytes output) {\n        uint base_length = base.length;\n        uint modulus_length = modulus.length;\n\n        uint size = (32 * 3) + base_length + 32 + modulus_length;\n        bytes memory input = new bytes(size);\n        output = new bytes(modulus_length);\n\n        assembly {\n            mstore(add(input, 32), base_length)\n            mstore(add(input, 64), 32)\n            mstore(add(input, 96), modulus_length)\n\n            mstore(add(input, add(128, base_length)), exponent)\n        }\n\n        memcopy(base, 0, input, 96, base_length);\n        memcopy(modulus, 0, input, 96 + base_length + 32, modulus_length);\n\n        assembly {\n            pop(call(gas(), 5, 0, add(input, 32), size, add(output, 32), modulus_length))\n        }\n    }\n\n    function split_inverse(bytes xi, bool bi) internal pure returns (bytes) {\n        if (bi) {\n            xi[0] = byte(uint(xi[0]) + 128);\n        }\n\n        return xi;\n    }\n\n    function ghash(bytes32 y) internal pure returns (bytes) {\n        bytes32 hash = keccak256(y);\n        bytes memory res = hex\"00000000000000000000000000000000000000000000000000000000000000000000000000000000000000000000000000000000000000000000000000000000000000000000000000000000000000000000000000000000000000000000000000000000000000000000000000000000000000000000000000000000000000000000000000000000000000000000000000000000000000000000000000000000000000000000000000000000000000000000000000000000000000000000000000000000000000000000000000000000000000000000000000000000000000000000000000000000000000000000000000000000000000000000000000000000\";\n\n        for(uint i = 32; i < 256; i++) {\n            res[i] = hash[i % 32];\n        }\n\n        return res;\n    }\n\n    function hhash(bytes modulus, string message, string label, bytes16 random, bytes x_prev) internal pure returns (bytes32) {\n        return keccak256(modulus, message, label, random, x_prev);\n    }\n\n    function hhashbase(bytes modulus, string message, string label, bytes16 random) internal pure returns (bytes32) {\n        return keccak256(modulus, message, label, random);\n    }\n\n    function cut(bytes i) internal pure returns (bytes32 part1, bytes32 part2, bytes32 part3, bytes32 part4, bytes32 part5, bytes32 part6, bytes32 part7, bytes32 part8) {\n\n        assembly {\n            part1 := mload(add(i, 32))\n            part2 := mload(add(i, 64))\n            part3 := mload(add(i, 96))\n            part4 := mload(add(i, 128))\n            part5 := mload(add(i, 160))\n            part6 := mload(add(i, 192))\n            part7 := mload(add(i, 224))\n            part8 := mload(add(i, 256))\n        }\n    }\n\n    function xorbytes(bytes a, bytes y) internal pure returns (bytes) {\n        bytes32 c1;\n        bytes32 c2;\n        bytes32 c3;\n        bytes32 c4;\n        bytes32 c5;\n        bytes32 c6;\n        bytes32 c7;\n        bytes32 c8;\n\n        assembly {\n            c1 := xor(mload(add(a, 32)), mload(add(y, 32)))\n            c2 := xor(mload(add(a, 64)), mload(add(y, 64)))\n            c3 := xor(mload(add(a, 96)), mload(add(y, 96)))\n            c4 := xor(mload(add(a, 128)), mload(add(y, 128)))\n            c5 := xor(mload(add(a, 160)), mload(add(y, 160)))\n            c6 := xor(mload(add(a, 192)), mload(add(y, 192)))\n            c7 := xor(mload(add(a, 224)), mload(add(y, 224)))\n            c8 := xor(mload(add(a, 256)), mload(add(y, 256)))\n        }\n\n        bytes memory merged = new bytes(256);\n\n        uint k = 0;\n\n        for (uint i = 0; i < 32; i++) {\n            merged[k] = c1[i];\n            k++;\n        }\n\n        for (i = 0; i < 32; i++) {\n            merged[k] = c2[i];\n            k++;\n        }\n\n        for (i = 0; i < 32; i++) {\n            merged[k] = c3[i];\n            k++;\n        }\n\n        for (i = 0; i < 32; i++) {\n            merged[k] = c4[i];\n            k++;\n        }\n\n        for (i = 0; i < 32; i++) {\n            merged[k] = c5[i];\n            k++;\n        }\n\n        for (i = 0; i < 32; i++) {\n            merged[k] = c6[i];\n            k++;\n        }\n\n        for (i = 0; i < 32; i++) {\n            merged[k] = c7[i];\n            k++;\n        }\n\n        for (i = 0; i < 32; i++) {\n            merged[k] = c8[i];\n            k++;\n        }\n\n        return merged;\n    }\n\n    function memcopy(bytes src, uint srcoffset, bytes dst, uint dstoffset, uint len) pure internal {\n        assembly {\n            src := add(src, add(32, srcoffset))\n            dst := add(dst, add(32, dstoffset))\n\n        // copy 32 bytes at once\n            for\n            {}\n            iszero(lt(len, 32))\n            {\n                dst := add(dst, 32)\n                src := add(src, 32)\n                len := sub(len, 32)\n            }\n            {mstore(dst, mload(src))}\n\n        // copy the remainder (0 < len < 32)\n            let mask := sub(exp(256, sub(32, len)), 1)\n            let srcpart := and(mload(src), not(mask))\n            let dstpart := and(mload(dst), mask)\n            mstore(dst, or(srcpart, dstpart))\n        }\n    }\n\n    function equals(bytes memory self, bytes memory other) internal pure returns (bool equal) {\n        if (self.length != other.length) {\n            return false;\n        }\n\n        uint addr;\n        uint addr2;\n        uint len = self.length;\n\n        assembly {\n            addr := add(self, /*BYTES_HEADER_SIZE*/32)\n            addr2 := add(other, /*BYTES_HEADER_SIZE*/32)\n            equal := eq(keccak256(addr, len), keccak256(addr2, len))\n        }\n    }\n\n}\n",
  "sourcePath": "/home/bjorn/Projects/BGRVerify/contracts/BGR2.sol",
  "compiler": {
    "name": "solc",
    "version": "0.4.21+commit.dfe3193c.Emscripten.clang"
  },
  "schemaVersion": "2.0.0",
  "updatedAt": "2018-06-06T14:45:32.187Z"
}