{
  "contractName": "BGR3",
  "abi": [
    {
      "constant": false,
      "inputs": [
        {
          "name": "data",
          "type": "bytes"
        },
        {
          "name": "x",
          "type": "bytes"
        },
        {
          "name": "h",
          "type": "bytes32"
        },
        {
          "name": "b",
          "type": "bool[]"
        },
        {
          "name": "r",
          "type": "bytes16[]"
        }
      ],
      "name": "verify",
      "outputs": [
        {
          "name": "",
          "type": "bool"
        }
      ],
      "payable": false,
      "stateMutability": "nonpayable",
      "type": "function"
    }
  ],
  "bytecode": "0x60606040526060604051908101604052806040805190810160405280601181526020017f6578616d706c652e636f6d2f6170692f3000000000000000000000000000000081525081526020016040805190810160405280601181526020017f6578616d706c652e636f6d2f6170692f3100000000000000000000000000000081525081526020016040805190810160405280601181526020017f6578616d706c652e636f6d2f6170692f320000000000000000000000000000008152508152506000906003620000d1929190620001c1565b506101c060405190810160405280610183815260200162001c036101839139600190805190602001906200010792919062000228565b50600360025561012060405190810160405280610100815260200162001d866101009139600390805190602001906200014292919062000228565b5061012060405190810160405280610100815260200162001b036101009139600490805190602001906200017892919062000228565b5061012060405190810160405280610100815260200162001e86610100913960059080519060200190620001ae92919062000228565b503415620001bb57600080fd5b620003db565b82805482825590600052602060002090810192821562000215579160200282015b828111156200021457825182908051906020019062000203929190620002af565b5091602001919060010190620001e2565b5b50905062000224919062000336565b5090565b828054600181600116156101000203166002900490600052602060002090601f016020900481019282601f106200026b57805160ff19168380011785556200029c565b828001600101855582156200029c579182015b828111156200029b5782518255916020019190600101906200027e565b5b509050620002ab919062000367565b5090565b828054600181600116156101000203166002900490600052602060002090601f016020900481019282601f10620002f257805160ff191683800117855562000323565b8280016001018555821562000323579182015b828111156200032257825182559160200191906001019062000305565b5b50905062000332919062000367565b5090565b6200036491905b808211156200036057600081816200035691906200038f565b506001016200033d565b5090565b90565b6200038c91905b80821115620003885760008160009055506001016200036e565b5090565b90565b50805460018160011615610100020316600290046000825580601f10620003b75750620003d8565b601f016020900490600052602060002090810190620003d7919062000367565b5b50565b61171880620003eb6000396000f300606060405260043610610041576000357c0100000000000000000000000000000000000000000000000000000000900463ffffffff1680636dadf3c014610046575b600080fd5b341561005157600080fd5b61006660046100619036906113d7565b61007c565b60405161007391906114bd565b60405180910390f35b6000610086611227565b6000806000610093611227565b61009b611227565b8a955089945060016002540393505b60008411156101f4576100fa6100bf866103e2565b6100f56100e3898d898151811015156100d457fe5b906020019060200201516104d7565b620100016100f0896105d0565b6107df565b6108ab565b95506101e2610108856105d0565b61011186610e03565b60008781548110151561012057fe5b90600052602060002090018054600181600116156101000203166002900480601f0160208091040260200160405190810160405280929190818152602001828054600181600116156101000203166002900480156101bf5780601f10610194576101008083540402835291602001916101bf565b820191906000526020600020905b8154815290600101906020018083116101a257829003601f168201915b50505050508b888151811015156101d257fe5b906020019060200201518a610ead565b851894508380600190039450506100aa565b6102dc61020160006105d0565b61020b6000610e03565b60008081548110151561021a57fe5b90600052602060002090018054600181600116156101000203166002900480601f0160208091040260200160405190810160405280929190818152602001828054600181600116156101000203166002900480156102b95780601f1061028e576101008083540402835291602001916102b9565b820191906000526020600020905b81548152906001019060200180831161029c57829003601f168201915b50505050508b60008151811015156102cd57fe5b9060200190602002015161104a565b92506102e7856103e2565b91506103b261030e878b60008151811015156102ff57fe5b906020019060200201516104d7565b6201000160038054600181600116156101000203166002900480601f0160208091040260200160405190810160405280929190818152602001828054600181600116156101000203166002900480156103a85780601f1061037d576101008083540402835291602001916103a8565b820191906000526020600020905b81548152906001019060200180831161038b57829003601f168201915b50505050506107df565b9050846000191683600019161480156103d157506103d08282611191565b5b965050505050505095945050505050565b6103ea611227565b60006103f4611227565b600084604051808260001916600019168152602001915050604051809103902092506101206040519081016040528061010081526020016115df61010091399150600190505b6101008110156104cc578260208281151561045157fe5b0660208110151561045e57fe5b1a7f010000000000000000000000000000000000000000000000000000000000000002828281518110151561048f57fe5b9060200101907effffffffffffffffffffffffffffffffffffffffffffffffffffffffffffff1916908160001a905350808060010191505061043a565b819350505050919050565b6104df611227565b81156105c75760808360008151811015156104f657fe5b9060200101517f010000000000000000000000000000000000000000000000000000000000000090047f0100000000000000000000000000000000000000000000000000000000000000027f01000000000000000000000000000000000000000000000000000000000000009004017f01000000000000000000000000000000000000000000000000000000000000000283600081518110151561059657fe5b9060200101907effffffffffffffffffffffffffffffffffffffffffffffffffffffffffffff1916908160001a9053505b82905092915050565b6105d8611227565b60008214156106835760038054600181600116156101000203166002900480601f0160208091040260200160405190810160405280929190818152602001828054600181600116156101000203166002900480156106775780601f1061064c57610100808354040283529160200191610677565b820191906000526020600020905b81548152906001019060200180831161065a57829003601f168201915b505050505090506107da565b600182141561072e5760048054600181600116156101000203166002900480601f0160208091040260200160405190810160405280929190818152602001828054600181600116156101000203166002900480156107225780601f106106f757610100808354040283529160200191610722565b820191906000526020600020905b81548152906001019060200180831161070557829003601f168201915b505050505090506107da565b60028214156107d95760058054600181600116156101000203166002900480601f0160208091040260200160405190810160405280929190818152602001828054600181600116156101000203166002900480156107cd5780601f106107a2576101008083540402835291602001916107cd565b820191906000526020600020905b8154815290600101906020018083116107b057829003601f168201915b505050505090506107da565b5b919050565b6107e7611227565b60008060006107f4611227565b87519350855192508260208560600101019150816040518059106108155750595b9080825280601f01601f191660200182016040525090508260405180591061083a5750595b9080825280601f01601f1916602001820160405250945083602082015260206040820152826060820152868460800182015261087b886000836060886111ce565b61088f8660008360208860600101876111ce565b82602086018360208401600060055af150505050509392505050565b6108b3611227565b6000806000806000806000806108c7611227565b60008060208d015160208f0151189a5060408d015160408f015118995060608d015160608f015118985060808d015160808f015118975060a08d015160a08f015118965060c08d015160c08f015118955060e08d015160e08f01511894506101008d01516101008f01511893506101006040518059106109445750595b9080825280601f01601f1916602001820160405250925060009150600090505b60208110156109f1578a8160208110151561097b57fe5b1a7f01000000000000000000000000000000000000000000000000000000000000000283838151811015156109ac57fe5b9060200101907effffffffffffffffffffffffffffffffffffffffffffffffffffffffffffff1916908160001a90535081806001019250508080600101915050610964565b600090505b6020811015610a83578981602081101515610a0d57fe5b1a7f0100000000000000000000000000000000000000000000000000000000000000028383815181101515610a3e57fe5b9060200101907effffffffffffffffffffffffffffffffffffffffffffffffffffffffffffff1916908160001a905350818060010192505080806001019150506109f6565b600090505b6020811015610b15578881602081101515610a9f57fe5b1a7f0100000000000000000000000000000000000000000000000000000000000000028383815181101515610ad057fe5b9060200101907effffffffffffffffffffffffffffffffffffffffffffffffffffffffffffff1916908160001a90535081806001019250508080600101915050610a88565b600090505b6020811015610ba7578781602081101515610b3157fe5b1a7f0100000000000000000000000000000000000000000000000000000000000000028383815181101515610b6257fe5b9060200101907effffffffffffffffffffffffffffffffffffffffffffffffffffffffffffff1916908160001a90535081806001019250508080600101915050610b1a565b600090505b6020811015610c39578681602081101515610bc357fe5b1a7f0100000000000000000000000000000000000000000000000000000000000000028383815181101515610bf457fe5b9060200101907effffffffffffffffffffffffffffffffffffffffffffffffffffffffffffff1916908160001a90535081806001019250508080600101915050610bac565b600090505b6020811015610ccb578581602081101515610c5557fe5b1a7f0100000000000000000000000000000000000000000000000000000000000000028383815181101515610c8657fe5b9060200101907effffffffffffffffffffffffffffffffffffffffffffffffffffffffffffff1916908160001a90535081806001019250508080600101915050610c3e565b600090505b6020811015610d5d578481602081101515610ce757fe5b1a7f0100000000000000000000000000000000000000000000000000000000000000028383815181101515610d1857fe5b9060200101907effffffffffffffffffffffffffffffffffffffffffffffffffffffffffffff1916908160001a90535081806001019250508080600101915050610cd0565b600090505b6020811015610def578381602081101515610d7957fe5b1a7f0100000000000000000000000000000000000000000000000000000000000000028383815181101515610daa57fe5b9060200101907effffffffffffffffffffffffffffffffffffffffffffffffffffffffffffff1916908160001a90535081806001019250508080600101915050610d62565b829b50505050505050505050505092915050565b610e0b611227565b60018054600181600116156101000203166002900480601f016020809104026020016040519081016040528092919081815260200182805460018160011615610100020316600290048015610ea15780601f10610e7657610100808354040283529160200191610ea1565b820191906000526020600020905b815481529060010190602001808311610e8457829003601f168201915b50505050509050919050565b600085858585856040518086805190602001908083835b602083101515610ee95780518252602082019150602081019050602083039250610ec4565b6001836020036101000a03801982511681845116808217855250505050505090500185805190602001908083835b602083101515610f3c5780518252602082019150602081019050602083039250610f17565b6001836020036101000a03801982511681845116808217855250505050505090500184805190602001908083835b602083101515610f8f5780518252602082019150602081019050602083039250610f6a565b6001836020036101000a038019825116818451168082178552505050505050905001836fffffffffffffffffffffffffffffffff19166fffffffffffffffffffffffffffffffff1916815260100182805190602001908083835b60208310151561100e5780518252602082019150602081019050602083039250610fe9565b6001836020036101000a038019825116818451168082178552505050505050905001955050505050506040518091039020905095945050505050565b6000848484846040518085805190602001908083835b6020831015156110855780518252602082019150602081019050602083039250611060565b6001836020036101000a03801982511681845116808217855250505050505090500184805190602001908083835b6020831015156110d857805182526020820191506020810190506020830392506110b3565b6001836020036101000a03801982511681845116808217855250505050505090500183805190602001908083835b60208310151561112b5780518252602082019150602081019050602083039250611106565b6001836020036101000a038019825116818451168082178552505050505050905001826fffffffffffffffffffffffffffffffff19166fffffffffffffffffffffffffffffffff1916815260100194505050505060405180910390209050949350505050565b600080600080845186511415156111ab57600093506111c5565b855190506020860192506020850191508082208184201493505b50505092915050565b836020018501945081602001830192505b60208110151561120457845183526020830192506020850194506020810390506111df565b6001816020036101000a0380198651168185511680821786525050505050505050565b602060405190810160405280600081525090565b600082601f830112151561124e57600080fd5b813561126161125c82611505565b6114d8565b9150818183526020840193506020810190508385602084028201111561128657600080fd5b60005b838110156112b6578161129c8882611345565b845260208401935060208301925050600181019050611289565b5050505092915050565b600082601f83011215156112d357600080fd5b81356112e66112e18261152d565b6114d8565b9150818183526020840193506020810190508385602084028201111561130b57600080fd5b60005b8381101561133b57816113218882611359565b84526020840193506020830192505060018101905061130e565b5050505092915050565b6000611351823561158d565b905092915050565b60006113658235611599565b905092915050565b600061137982356115c5565b905092915050565b600082601f830112151561139457600080fd5b81356113a76113a282611555565b6114d8565b915080825260208301602083018583830111156113c357600080fd5b6113ce8382846115cf565b50505092915050565b600080600080600060a086880312156113ef57600080fd5b600086013567ffffffffffffffff81111561140957600080fd5b61141588828901611381565b955050602086013567ffffffffffffffff81111561143257600080fd5b61143e88828901611381565b945050604061144f8882890161136d565b935050606086013567ffffffffffffffff81111561146c57600080fd5b6114788882890161123b565b925050608086013567ffffffffffffffff81111561149557600080fd5b6114a1888289016112c0565b9150509295509295909350565b6114b781611581565b82525050565b60006020820190506114d260008301846114ae565b92915050565b6000604051905081810181811067ffffffffffffffff821117156114fb57600080fd5b8060405250919050565b600067ffffffffffffffff82111561151c57600080fd5b602082029050602081019050919050565b600067ffffffffffffffff82111561154457600080fd5b602082029050602081019050919050565b600067ffffffffffffffff82111561156c57600080fd5b601f19601f8301169050602081019050919050565b60008115159050919050565b60008115159050919050565b60007fffffffffffffffffffffffffffffffff0000000000000000000000000000000082169050919050565b6000819050919050565b82818337600083830152505050560000000000000000000000000000000000000000000000000000000000000000000000000000000000000000000000000000000000000000000000000000000000000000000000000000000000000000000000000000000000000000000000000000000000000000000000000000000000000000000000000000000000000000000000000000000000000000000000000000000000000000000000000000000000000000000000000000000000000000000000000000000000000000000000000000000000000000000000000000000000000000000000000000000000000000000000000000000000000000000000000000000000000000000000000000000000a265627a7a7230582046b824cfc72f36579ea87eb662ece9db815c3fbb37dd5232690d418ce8f186746c6578706572696d656e74616cf50037c5052db994c14fd03a0805b8124fd4f7ec36a25042b0db447c29545377f6b5ae8b1c8d001774194e1af7665ed62c2b8df15bb93ddeb39cfc2d0a2c19596cc41cd2da65c75c9787a7de80a0a123f910332162580f6f1f51e9723e325c132bac7627a377ffbe3a8d615c8f38596235b22de4b30ba3d51d657f190e5083641866d0e180a230ba3f7d8a784a0ac47bab01896ad2317a312df70d21f82a008899c67a194799442ba42517d51ed2a2b2c538882577fa2690266d3c31e749d3901a1bc430fa3f4191027c7c627930ea16043e1da02908c3f4b9f9cf2a5f4a0ef4e3f8f6e0243176cbe1a48962e1a76149ffb1a576c8ab0ccacabe01bc77224cb27a5e397b0a2020226f70656e223a207b0a20202020227072696365223a2039353931372c0a202020202274696d65223a207b0a20202020202022756e6978223a20313438333134323430302c0a2020202020202269736f223a2022323031362d31322d33315430303a30303a30302e3030305a220a202020207d0a20207d2c0a202022636c6f7365223a207b0a20202020227072696365223a2039363736302c0a202020202274696d65223a207b0a20202020202022756e6978223a20313438333232383830302c0a2020202020202269736f223a2022323031372d30312d30315430303a30303a30302e3030305a220a202020207d0a20207d2c0a2020226c6f6f6b7570223a207b0a20202020227072696365223a2039363736302c0a20202020226b223a20312c0a202020202274696d65223a207b0a20202020202022756e6978223a20313438333232383830302c0a2020202020202269736f223a2022323031372d30312d30315430303a30303a30302e3030305a220a202020207d0a20207d0a7d0af5407d119e5e43d17b48e6b441132680009ec0997862d873b8b4345120de55e8ae85529346ec57f526119fb2dbb7d8b83b249799be37a880d6efc04793319b43ec8190ae95ac1654492666406178e8699445d96dd437a6250caf49b61e10817fb9382c5d9c46fc490a631879ba7f111a00a2d135d6608b4fbdae383241cbd4bbf2ec317b292a6121082c4dd48ff8b91c717de3b144f0838e949cb06bddde59a3b34666736dd70ff2714f2af432665efefd4193b7ecf28bc8ba47e56cf29cbaf829e8ddd56261fa9f07f4d8f3af277ece37224cbfd6b4eb2d3e3c9bb08329eff1aa4d9e8b936037244119bd1e7352a18464575cf23e959cffa8c303c47b29aad7bda76ec96b85fad66d75c60fd010042ad9d8d4cc7d52adc3540d8e491cacc316de7c8067bfd96f5ef3ce628d35b5acaad357d47f3e2fa3e2211c04b99a53dddf83b56f94c91a2a13e366cfde4f1d724cda23e6433328946a8931e0b4e2f5567d0fc06ca94217c840b96841b32e63b3692fe1e4c83072636b5e2c441ae361028414aa02ad564285306bc322b1765739b5e22bd9206acb55dd67a8abb529f771867e9e326ec8053a399144401dc1db90c3899c5fa5eb4385a36e6193610db7e5903bd010794e5aa0debe4f0ab0d2360faa5f35bf14a5c4079dddb35a4decb4faed268c3f41464249f3d09b6c390ebdd9a5a5b16100df259602e29b7bd64abfa96b",
  "source": "pragma solidity 0.4.21;\npragma experimental ABIEncoderV2;\n\ncontract BGR3 {\n\n    string[] labels = [\n    \"example.com/api/0\",\n    \"example.com/api/1\",\n    \"example.com/api/2\"\n    ];\n\n    bytes message = hex\"7b0a2020226f70656e223a207b0a20202020227072696365223a2039353931372c0a202020202274696d65223a207b0a20202020202022756e6978223a20313438333134323430302c0a2020202020202269736f223a2022323031362d31322d33315430303a30303a30302e3030305a220a202020207d0a20207d2c0a202022636c6f7365223a207b0a20202020227072696365223a2039363736302c0a202020202274696d65223a207b0a20202020202022756e6978223a20313438333232383830302c0a2020202020202269736f223a2022323031372d30312d30315430303a30303a30302e3030305a220a202020207d0a20207d2c0a2020226c6f6f6b7570223a207b0a20202020227072696365223a2039363736302c0a20202020226b223a20312c0a202020202274696d65223a207b0a20202020202022756e6978223a20313438333232383830302c0a2020202020202269736f223a2022323031372d30312d30315430303a30303a30302e3030305a220a202020207d0a20207d0a7d0a\";\n\n    //Simulation of PKI (assumed to be available)\n    uint n_signers = 3;\n    uint256 constant e = 65537;\n    bytes modulus0 = hex\"f5407d119e5e43d17b48e6b441132680009ec0997862d873b8b4345120de55e8ae85529346ec57f526119fb2dbb7d8b83b249799be37a880d6efc04793319b43ec8190ae95ac1654492666406178e8699445d96dd437a6250caf49b61e10817fb9382c5d9c46fc490a631879ba7f111a00a2d135d6608b4fbdae383241cbd4bbf2ec317b292a6121082c4dd48ff8b91c717de3b144f0838e949cb06bddde59a3b34666736dd70ff2714f2af432665efefd4193b7ecf28bc8ba47e56cf29cbaf829e8ddd56261fa9f07f4d8f3af277ece37224cbfd6b4eb2d3e3c9bb08329eff1aa4d9e8b936037244119bd1e7352a18464575cf23e959cffa8c303c47b29aad7\";\n    bytes modulus1 = hex\"c5052db994c14fd03a0805b8124fd4f7ec36a25042b0db447c29545377f6b5ae8b1c8d001774194e1af7665ed62c2b8df15bb93ddeb39cfc2d0a2c19596cc41cd2da65c75c9787a7de80a0a123f910332162580f6f1f51e9723e325c132bac7627a377ffbe3a8d615c8f38596235b22de4b30ba3d51d657f190e5083641866d0e180a230ba3f7d8a784a0ac47bab01896ad2317a312df70d21f82a008899c67a194799442ba42517d51ed2a2b2c538882577fa2690266d3c31e749d3901a1bc430fa3f4191027c7c627930ea16043e1da02908c3f4b9f9cf2a5f4a0ef4e3f8f6e0243176cbe1a48962e1a76149ffb1a576c8ab0ccacabe01bc77224cb27a5e39\";\n    bytes modulus2 = hex\"bda76ec96b85fad66d75c60fd010042ad9d8d4cc7d52adc3540d8e491cacc316de7c8067bfd96f5ef3ce628d35b5acaad357d47f3e2fa3e2211c04b99a53dddf83b56f94c91a2a13e366cfde4f1d724cda23e6433328946a8931e0b4e2f5567d0fc06ca94217c840b96841b32e63b3692fe1e4c83072636b5e2c441ae361028414aa02ad564285306bc322b1765739b5e22bd9206acb55dd67a8abb529f771867e9e326ec8053a399144401dc1db90c3899c5fa5eb4385a36e6193610db7e5903bd010794e5aa0debe4f0ab0d2360faa5f35bf14a5c4079dddb35a4decb4faed268c3f41464249f3d09b6c390ebdd9a5a5b16100df259602e29b7bd64abfa96b\";\n\n    function verify(bytes data, bytes x, bytes32 h, bool[] b, bytes16[] r) returns (bool) {\n        bytes memory x_prev = x;\n        bytes32 h_prev = h;\n\n        for (uint i = n_signers - 1; i > 0; i--) {\n            //Line 2, 3 and 4\n            x_prev = xorbytes(ghash(h_prev), modexp(split_inverse(x_prev, b[i]), e, getModulus(i)));\n\n            //Line 5 and 6\n            h_prev = h_prev ^ hhash(getModulus(i), getMessage(i), labels[i], r[i], x_prev);\n        }\n\n        //Line 7\n        bytes32 h_hash = hhashbase(getModulus(0), getMessage(0), labels[0], r[0]);\n        bytes memory g_hash = ghash(h_prev);\n\n        bytes memory pig = modexp(split_inverse(x_prev, b[0]), e, modulus0);\n\n        return h_hash == h_prev && equals(g_hash, pig);\n    }\n\n    function getModulus(uint i) view internal returns (bytes) {\n        if (i == 0) {\n            return modulus0;\n        } else if (i == 1) {\n            return modulus1;\n        } else if (i == 2) {\n            return modulus2;\n        }\n    }\n\n    function getMessage(uint i) internal returns (bytes) {\n        return message;\n    }\n\n    function modexp(bytes base, uint exponent, bytes modulus) internal returns (bytes output) {\n        //bytes memory modulus = bytes(modulus_str);\n        uint base_length = base.length;\n        uint modulus_length = modulus.length;\n\n        uint size = (32 * 3) + base_length + 32 + modulus_length;\n        bytes memory input = new bytes(size);\n        output = new bytes(modulus_length);\n\n        assembly {\n            mstore(add(input, 32), base_length)\n            mstore(add(input, 64), 32)\n            mstore(add(input, 96), modulus_length)\n\n            mstore(add(input, add(128, base_length)), exponent)\n        }\n\n        memcopy(base, 0, input, 96, base_length);\n        memcopy(modulus, 0, input, 96 + base_length + 32, modulus_length);\n\n        assembly {\n            pop(call(gas(), 5, 0, add(input, 32), size, add(output, 32), modulus_length))\n        }\n    }\n\n    function split_inverse(bytes xi, bool bi) internal pure returns (bytes) {\n        if (bi) {\n            xi[0] = byte(uint(xi[0]) + 128);\n        }\n\n        return xi;\n    }\n\n    function ghash(bytes32 y) internal pure returns (bytes) {\n        bytes32 hash = keccak256(y);\n        bytes memory res = hex\"00000000000000000000000000000000000000000000000000000000000000000000000000000000000000000000000000000000000000000000000000000000000000000000000000000000000000000000000000000000000000000000000000000000000000000000000000000000000000000000000000000000000000000000000000000000000000000000000000000000000000000000000000000000000000000000000000000000000000000000000000000000000000000000000000000000000000000000000000000000000000000000000000000000000000000000000000000000000000000000000000000000000000000000000000000000\";\n\n        for(uint i = 1; i < 256; i++) {\n            res[i] = hash[i % 32];\n        }\n\n        return res;\n    }\n\n    function hhash(bytes modulus, bytes message, string label, bytes16 random, bytes x_prev) internal pure returns (bytes32) {\n        return keccak256(modulus, message, label, random, x_prev);\n    }\n\n    function hhashbase(bytes modulus, bytes message, string label, bytes16 random) internal pure returns (bytes32) {\n        return keccak256(modulus, message, label, random);\n    }\n\n    function cut(bytes i) internal pure returns (bytes32 part1, bytes32 part2, bytes32 part3, bytes32 part4, bytes32 part5, bytes32 part6, bytes32 part7, bytes32 part8) {\n\n        assembly {\n            part1 := mload(add(i, 32))\n            part2 := mload(add(i, 64))\n            part3 := mload(add(i, 96))\n            part4 := mload(add(i, 128))\n            part5 := mload(add(i, 160))\n            part6 := mload(add(i, 192))\n            part7 := mload(add(i, 224))\n            part8 := mload(add(i, 256))\n        }\n    }\n\n    function xorbytes(bytes a, bytes y) internal pure returns (bytes) {\n        bytes32 c1;\n        bytes32 c2;\n        bytes32 c3;\n        bytes32 c4;\n        bytes32 c5;\n        bytes32 c6;\n        bytes32 c7;\n        bytes32 c8;\n\n        assembly {\n            c1 := xor(mload(add(a, 32)), mload(add(y, 32)))\n            c2 := xor(mload(add(a, 64)), mload(add(y, 64)))\n            c3 := xor(mload(add(a, 96)), mload(add(y, 96)))\n            c4 := xor(mload(add(a, 128)), mload(add(y, 128)))\n            c5 := xor(mload(add(a, 160)), mload(add(y, 160)))\n            c6 := xor(mload(add(a, 192)), mload(add(y, 192)))\n            c7 := xor(mload(add(a, 224)), mload(add(y, 224)))\n            c8 := xor(mload(add(a, 256)), mload(add(y, 256)))\n        }\n\n        bytes memory merged = new bytes(256);\n\n        uint k = 0;\n\n        for (uint i = 0; i < 32; i++) {\n            merged[k] = c1[i];\n            k++;\n        }\n\n        for (i = 0; i < 32; i++) {\n            merged[k] = c2[i];\n            k++;\n        }\n\n        for (i = 0; i < 32; i++) {\n            merged[k] = c3[i];\n            k++;\n        }\n\n        for (i = 0; i < 32; i++) {\n            merged[k] = c4[i];\n            k++;\n        }\n\n        for (i = 0; i < 32; i++) {\n            merged[k] = c5[i];\n            k++;\n        }\n\n        for (i = 0; i < 32; i++) {\n            merged[k] = c6[i];\n            k++;\n        }\n\n        for (i = 0; i < 32; i++) {\n            merged[k] = c7[i];\n            k++;\n        }\n\n        for (i = 0; i < 32; i++) {\n            merged[k] = c8[i];\n            k++;\n        }\n\n        return merged;\n    }\n\n    function memcopy(bytes src, uint srcoffset, bytes dst, uint dstoffset, uint len) pure internal {\n        assembly {\n            src := add(src, add(32, srcoffset))\n            dst := add(dst, add(32, dstoffset))\n\n        // copy 32 bytes at once\n            for\n            {}\n            iszero(lt(len, 32))\n            {\n                dst := add(dst, 32)\n                src := add(src, 32)\n                len := sub(len, 32)\n            }\n            {mstore(dst, mload(src))}\n\n        // copy the remainder (0 < len < 32)\n            let mask := sub(exp(256, sub(32, len)), 1)\n            let srcpart := and(mload(src), not(mask))\n            let dstpart := and(mload(dst), mask)\n            mstore(dst, or(srcpart, dstpart))\n        }\n    }\n\n    function equals(bytes memory self, bytes memory other) internal pure returns (bool equal) {\n        if (self.length != other.length) {\n            return false;\n        }\n\n        uint addr;\n        uint addr2;\n        uint len = self.length;\n\n        assembly {\n            addr := add(self, /*BYTES_HEADER_SIZE*/32)\n            addr2 := add(other, /*BYTES_HEADER_SIZE*/32)\n            equal := eq(keccak256(addr, len), keccak256(addr2, len))\n        }\n    }\n\n}\n",
  "sourcePath": "/home/bjorn/Projects/BGRVerify/contracts/BGR3.sol",
  "compiler": {
    "name": "solc",
    "version": "0.4.21+commit.dfe3193c.Emscripten.clang"
  },
  "schemaVersion": "2.0.0",
  "updatedAt": "2018-06-06T16:11:51.956Z"
}