{
  "contractName": "BGRBig",
  "abi": [
    {
      "constant": false,
      "inputs": [
        {
          "name": "m",
          "type": "string[]"
        }
      ],
      "name": "test",
      "outputs": [
        {
          "name": "",
          "type": "string"
        }
      ],
      "payable": false,
      "stateMutability": "nonpayable",
      "type": "function"
    },
    {
      "constant": false,
      "inputs": [
        {
          "name": "messages",
          "type": "string[]"
        },
        {
          "name": "b",
          "type": "bool[]"
        },
        {
          "name": "r",
          "type": "bytes16[]"
        }
      ],
      "name": "verify",
      "outputs": [
        {
          "name": "",
          "type": "bool"
        }
      ],
      "payable": false,
      "stateMutability": "nonpayable",
      "type": "function"
    },
    {
      "constant": false,
      "inputs": [
        {
          "name": "i",
          "type": "uint256"
        }
      ],
      "name": "getModulus",
      "outputs": [
        {
          "name": "",
          "type": "bytes"
        }
      ],
      "payable": false,
      "stateMutability": "nonpayable",
      "type": "function"
    }
  ],
  "bytecode": "0x6060604052610120604051908101604052806101008152602001620020be6101009139600090805190602001906200003992919062000336565b507f95d43dcce97089b9af3e01dffdc75bc34525a3f7c4601998dd2c428438f56061600102600190600019169055606060405190810160405280600015151515815260200160001515151581526020016001151515158152506002906003620000a4929190620003bd565b506060604051908101604052806fdc1074804914a49b00fe002c32a5bdee700100000000000000000000000000000000026fffffffffffffffffffffffffffffffff19166fffffffffffffffffffffffffffffffff191681526020016f6c21cf5b5baaa99ce3650b93422b5ae6700100000000000000000000000000000000026fffffffffffffffffffffffffffffffff19166fffffffffffffffffffffffffffffffff191681526020016f749defc8f44e85a2385adad64dde6353700100000000000000000000000000000000026fffffffffffffffffffffffffffffffff19166fffffffffffffffffffffffffffffffff19168152506003906003620001ae9291906200046a565b506060604051908101604052806040805190810160405280600981526020017f4d4553534147452030000000000000000000000000000000000000000000000081525081526020016040805190810160405280600981526020017f4d4553534147452031000000000000000000000000000000000000000000000081525081526020016040805190810160405280600981526020017f4d4553534147452032000000000000000000000000000000000000000000000081525081525060049060036200027c92919062000547565b506003600555610120604051908101604052806101008152602001620021be610100913960069080519060200190620002b792919062000336565b5061012060405190810160405280610100815260200162001fbe610100913960079080519060200190620002ed92919062000336565b50610120604051908101604052806101008152602001620022be6101009139600890805190602001906200032392919062000336565b5034156200033057600080fd5b6200074f565b828054600181600116156101000203166002900490600052602060002090601f016020900481019282601f106200037957805160ff1916838001178555620003aa565b82800160010185558215620003aa579182015b82811115620003a95782518255916020019190600101906200038c565b5b509050620003b99190620005ae565b5090565b82805482825590600052602060002090601f01602090048101928215620004575791602002820160005b838211156200042657835183826101000a81548160ff0219169083151502179055509260200192600101602081600001049283019260010302620003e7565b8015620004555782816101000a81549060ff021916905560010160208160000104928301926001030262000426565b505b509050620004669190620005d6565b5090565b82805482825590600052602060002090600101600290048101928215620005345791602002820160005b83821115620004f457835183826101000a8154816fffffffffffffffffffffffffffffffff0219169083700100000000000000000000000000000000900402179055509260200192601001602081600f0104928301926001030262000494565b8015620005325782816101000a8154906fffffffffffffffffffffffffffffffff0219169055601001602081600f01049283019260010302620004f4565b505b50905062000543919062000609565b5090565b8280548282559060005260206000209081019282156200059b579160200282015b828111156200059a578251829080519060200190620005899291906200064b565b509160200191906001019062000568565b5b509050620005aa9190620006d2565b5090565b620005d391905b80821115620005cf576000816000905550600101620005b5565b5090565b90565b6200060691905b808211156200060257600081816101000a81549060ff021916905550600101620005dd565b5090565b90565b6200064891905b808211156200064457600081816101000a8154906fffffffffffffffffffffffffffffffff02191690555060010162000610565b5090565b90565b828054600181600116156101000203166002900490600052602060002090601f016020900481019282601f106200068e57805160ff1916838001178555620006bf565b82800160010185558215620006bf579182015b82811115620006be578251825591602001919060010190620006a1565b5b509050620006ce9190620005ae565b5090565b6200070091905b80821115620006fc5760008181620006f2919062000703565b50600101620006d9565b5090565b90565b50805460018160011615610100020316600290046000825580601f106200072b57506200074c565b601f0160209004906000526020600020908101906200074b9190620005ae565b5b50565b61185f806200075f6000396000f300606060405260043610610057576000357c0100000000000000000000000000000000000000000000000000000000900463ffffffff168063ada1d4e81461005c578063c295eabe14610092578063e21b90eb146100c8575b600080fd5b341561006757600080fd5b61007c6004610077903690611403565b6100fe565b604051610089919061153e565b60405180910390f35b341561009d57600080fd5b6100b260046100ad90369061149a565b610471565b6040516100bf9190611559565b60405180910390f35b34156100d357600080fd5b6100e860046100e39036906113c2565b610680565b6040516100f5919061157b565b60405180910390f35b6000610108611188565b6000610112611188565b61011a611188565b610122611188565b600080600061012f611188565b610137611188565b60008054600181600116156101000203166002900480601f0160208091040260200160405190810160405280929190818152602001828054600181600116156101000203166002900480156101cd5780601f106101a2576101008083540402835291602001916101cd565b820191906000526020600020905b8154815290600101906020018083116101b057829003601f168201915b50505050509950600154985060016005540393505b60008411156102945761020c8a8e868151811015156101fd57fe5b906020019060200201516106a8565b9550610224866201000161021f87610471565b6107a1565b965061022f8961086d565b975061023b8888610962565b995061027f61024985610471565b8f8681518110151561025757fe5b906020019060200201518e8781518110151561026f57fe5b906020019060200201518d610eba565b945084891898508380600190039450506101e2565b61036960068054600181600116156101000203166002900480601f01602080910402602001604051908101604052809291908181526020018280546001816001161561010002031660029004801561032d5780601f106103025761010080835404028352916020019161032d565b820191906000526020600020905b81548152906001019060200180831161031057829003601f168201915b50505050508f600081518110151561034157fe5b906020019060200201518e600081518110151561035a57fe5b90602001906020020151611001565b92506103748961086d565b915061043f61039b8b8f600081518110151561038c57fe5b906020019060200201516106a8565b6201000160068054600181600116156101000203166002900480601f0160208091040260200160405190810160405280929190818152602001828054600181600116156101000203166002900480156104355780601f1061040a57610100808354040283529160200191610435565b820191906000526020600020905b81548152906001019060200180831161041857829003601f168201915b50505050506107a1565b90508860001916836000191614801561045e575061045d82826110f2565b5b9a50505050505050505050509392505050565b610479611188565b60008214156105245760068054600181600116156101000203166002900480601f0160208091040260200160405190810160405280929190818152602001828054600181600116156101000203166002900480156105185780601f106104ed57610100808354040283529160200191610518565b820191906000526020600020905b8154815290600101906020018083116104fb57829003601f168201915b5050505050905061067b565b60018214156105cf5760078054600181600116156101000203166002900480601f0160208091040260200160405190810160405280929190818152602001828054600181600116156101000203166002900480156105c35780601f10610598576101008083540402835291602001916105c3565b820191906000526020600020905b8154815290600101906020018083116105a657829003601f168201915b5050505050905061067b565b600282141561067a5760088054600181600116156101000203166002900480601f01602080910402602001604051908101604052809291908181526020018280546001816001161561010002031660029004801561066e5780601f106106435761010080835404028352916020019161066e565b820191906000526020600020905b81548152906001019060200180831161065157829003601f168201915b5050505050905061067b565b5b919050565b61068861119c565b81600081518110151561069757fe5b906020019060200201519050919050565b6106b0611188565b81156107985760808360008151811015156106c757fe5b9060200101517f010000000000000000000000000000000000000000000000000000000000000090047f0100000000000000000000000000000000000000000000000000000000000000027f01000000000000000000000000000000000000000000000000000000000000009004017f01000000000000000000000000000000000000000000000000000000000000000283600081518110151561076757fe5b9060200101907effffffffffffffffffffffffffffffffffffffffffffffffffffffffffffff1916908160001a9053505b82905092915050565b6107a9611188565b60008060006107b6611188565b87519350855192508260208560600101019150816040518059106107d75750595b9080825280601f01601f19166020018201604052509050826040518059106107fc5750595b9080825280601f01601f1916602001820160405250945083602082015260206040820152826060820152868460800182015261083d8860008360608861112f565b61085186600083602088606001018761112f565b82602086018360208401600060055af150505050509392505050565b610875611188565b600061087f611188565b6000846040518082600019166000191681526020019150506040518091039020925061012060405190810160405280610100815260200161172661010091399150602090505b61010081101561095757826020828115156108dc57fe5b066020811015156108e957fe5b1a7f010000000000000000000000000000000000000000000000000000000000000002828281518110151561091a57fe5b9060200101907effffffffffffffffffffffffffffffffffffffffffffffffffffffffffffff1916908160001a90535080806001019150506108c5565b819350505050919050565b61096a611188565b60008060008060008060008061097e611188565b60008060208d015160208f0151189a5060408d015160408f015118995060608d015160608f015118985060808d015160808f015118975060a08d015160a08f015118965060c08d015160c08f015118955060e08d015160e08f01511894506101008d01516101008f01511893506101006040518059106109fb5750595b9080825280601f01601f1916602001820160405250925060009150600090505b6020811015610aa8578a81602081101515610a3257fe5b1a7f0100000000000000000000000000000000000000000000000000000000000000028383815181101515610a6357fe5b9060200101907effffffffffffffffffffffffffffffffffffffffffffffffffffffffffffff1916908160001a90535081806001019250508080600101915050610a1b565b600090505b6020811015610b3a578981602081101515610ac457fe5b1a7f0100000000000000000000000000000000000000000000000000000000000000028383815181101515610af557fe5b9060200101907effffffffffffffffffffffffffffffffffffffffffffffffffffffffffffff1916908160001a90535081806001019250508080600101915050610aad565b600090505b6020811015610bcc578881602081101515610b5657fe5b1a7f0100000000000000000000000000000000000000000000000000000000000000028383815181101515610b8757fe5b9060200101907effffffffffffffffffffffffffffffffffffffffffffffffffffffffffffff1916908160001a90535081806001019250508080600101915050610b3f565b600090505b6020811015610c5e578781602081101515610be857fe5b1a7f0100000000000000000000000000000000000000000000000000000000000000028383815181101515610c1957fe5b9060200101907effffffffffffffffffffffffffffffffffffffffffffffffffffffffffffff1916908160001a90535081806001019250508080600101915050610bd1565b600090505b6020811015610cf0578681602081101515610c7a57fe5b1a7f0100000000000000000000000000000000000000000000000000000000000000028383815181101515610cab57fe5b9060200101907effffffffffffffffffffffffffffffffffffffffffffffffffffffffffffff1916908160001a90535081806001019250508080600101915050610c63565b600090505b6020811015610d82578581602081101515610d0c57fe5b1a7f0100000000000000000000000000000000000000000000000000000000000000028383815181101515610d3d57fe5b9060200101907effffffffffffffffffffffffffffffffffffffffffffffffffffffffffffff1916908160001a90535081806001019250508080600101915050610cf5565b600090505b6020811015610e14578481602081101515610d9e57fe5b1a7f0100000000000000000000000000000000000000000000000000000000000000028383815181101515610dcf57fe5b9060200101907effffffffffffffffffffffffffffffffffffffffffffffffffffffffffffff1916908160001a90535081806001019250508080600101915050610d87565b600090505b6020811015610ea6578381602081101515610e3057fe5b1a7f0100000000000000000000000000000000000000000000000000000000000000028383815181101515610e6157fe5b9060200101907effffffffffffffffffffffffffffffffffffffffffffffffffffffffffffff1916908160001a90535081806001019250508080600101915050610e19565b829b50505050505050505050505092915050565b6000848484846040518085805190602001908083835b602083101515610ef55780518252602082019150602081019050602083039250610ed0565b6001836020036101000a03801982511681845116808217855250505050505090500184805190602001908083835b602083101515610f485780518252602082019150602081019050602083039250610f23565b6001836020036101000a038019825116818451168082178552505050505050905001836fffffffffffffffffffffffffffffffff19166fffffffffffffffffffffffffffffffff1916815260100182805190602001908083835b602083101515610fc75780518252602082019150602081019050602083039250610fa2565b6001836020036101000a03801982511681845116808217855250505050505090500194505050505060405180910390209050949350505050565b60008383836040518084805190602001908083835b60208310151561103b5780518252602082019150602081019050602083039250611016565b6001836020036101000a03801982511681845116808217855250505050505090500183805190602001908083835b60208310151561108e5780518252602082019150602081019050602083039250611069565b6001836020036101000a038019825116818451168082178552505050505050905001826fffffffffffffffffffffffffffffffff19166fffffffffffffffffffffffffffffffff191681526010019350505050604051809103902090509392505050565b6000806000808451865114151561110c5760009350611126565b855190506020860192506020850191508082208184201493505b50505092915050565b836020018501945081602001830192505b6020811015156111655784518352602083019250602085019450602081039050611140565b6001816020036101000a0380198651168185511680821786525050505050505050565b602060405190810160405280600081525090565b602060405190810160405280600081525090565b600082601f83011215156111c357600080fd5b81356111d66111d1826115ca565b61159d565b915081818352602084019350602081019050838560208402820111156111fb57600080fd5b60005b8381101561122b57816112118882611330565b8452602084019350602083019250506001810190506111fe565b5050505092915050565b600082601f830112151561124857600080fd5b813561125b611256826115f2565b61159d565b9150818183526020840193506020810190508385602084028201111561128057600080fd5b60005b838110156112b057816112968882611344565b845260208401935060208301925050600181019050611283565b5050505092915050565b600082601f83011215156112cd57600080fd5b81356112e06112db8261161a565b61159d565b9150818183526020840193506020810190508360005b83811015611326578135860161130c8882611358565b8452602084019350602083019250506001810190506112f6565b5050505092915050565b600061133c8235611690565b905092915050565b6000611350823561169c565b905092915050565b600082601f830112151561136b57600080fd5b813561137e61137982611642565b61159d565b9150808252602083016020830185838301111561139a57600080fd5b6113a58382846116d2565b50505092915050565b60006113ba82356116c8565b905092915050565b6000602082840312156113d457600080fd5b600082013567ffffffffffffffff8111156113ee57600080fd5b6113fa848285016112ba565b91505092915050565b60008060006060848603121561141857600080fd5b600084013567ffffffffffffffff81111561143257600080fd5b61143e868287016112ba565b935050602084013567ffffffffffffffff81111561145b57600080fd5b611467868287016111b0565b925050604084013567ffffffffffffffff81111561148457600080fd5b61149086828701611235565b9150509250925092565b6000602082840312156114ac57600080fd5b60006114ba848285016113ae565b91505092915050565b6114cc81611684565b82525050565b60006114dd8261166e565b8084526114f18160208601602086016116e1565b6114fa81611714565b602085010191505092915050565b600061151382611679565b8084526115278160208601602086016116e1565b61153081611714565b602085010191505092915050565b600060208201905061155360008301846114c3565b92915050565b6000602082019050818103600083015261157381846114d2565b905092915050565b600060208201905081810360008301526115958184611508565b905092915050565b6000604051905081810181811067ffffffffffffffff821117156115c057600080fd5b8060405250919050565b600067ffffffffffffffff8211156115e157600080fd5b602082029050602081019050919050565b600067ffffffffffffffff82111561160957600080fd5b602082029050602081019050919050565b600067ffffffffffffffff82111561163157600080fd5b602082029050602081019050919050565b600067ffffffffffffffff82111561165957600080fd5b601f19601f8301169050602081019050919050565b600081519050919050565b600081519050919050565b60008115159050919050565b60008115159050919050565b60007fffffffffffffffffffffffffffffffff0000000000000000000000000000000082169050919050565b6000819050919050565b82818337600083830152505050565b60005b838110156116ff5780820151818401526020810190506116e4565b8381111561170e576000848401525b50505050565b6000601f19601f8301169050919050560000000000000000000000000000000000000000000000000000000000000000000000000000000000000000000000000000000000000000000000000000000000000000000000000000000000000000000000000000000000000000000000000000000000000000000000000000000000000000000000000000000000000000000000000000000000000000000000000000000000000000000000000000000000000000000000000000000000000000000000000000000000000000000000000000000000000000000000000000000000000000000000000000000000000000000000000000000000000000000000000000000000000000000000000000000000a265627a7a72305820dd167f1f73f674238917fc862e668c2ce36eaacca2865654839ad6d22d4afffd6c6578706572696d656e74616cf50037ccd3cd5659e9ef107a3678459259bdca6917ce14406365123586795e378b99823912434ce21e6bc435b837c919c25667229423d123b0c57d6d9eacdb5415d896bd26b7b4f94f578bf45d34200f765945bb051cf154e2222e0ef5ba2bc87df22f10cc4f504c9e094d91e135e5d4fef65888d57d284550070824cdcbbe7b1056f67e3c5513777f45490376e35271890f136f961d5d62dfcce3da283d1c2922d15b7235b2eedc4ac212d88b64877463e2e2745159053c8a66e586ab86c90c00614d7321728891e9ad5ffdfc7ee8861d7bab95662eba1623fd1dbf38642f3218a2eea720f3e2660bac1bc76893e3d324edd91449d6af1f18289b305d2ba6f44197d52c8b8992f7eee1937afc9c3c9a708faed52aaf463189281058e7d9bf24718efcebc3c4fbc55ecce8b6bcd0a69e479b39df0324b53e1a92395767aa15e651501148b92c8e3ea2def9571a469e9e22fc8463fcfcf7319f6da24ad8578f978b114954edbea9c915236b8fa2fe88addbb571b8a1647ea22b47401e20e48e58f00e997099fecf6dd6791d820346a9313a74be3e77a4fcbf36da840fb29717bb9883504aa3be4b3e7982c32c412429890e53175e6dd263456b352fe36f9d264936ac4d0b18d6e7b448d12e4416e65fa86b1b236e7b9142d794ac747b07ffc4770a0ce2ec26ed298efb58cf72739c98175fd246ec4953ae41fbf29b0e5f9178493dfc21c3f8da94ac41be90e0e4a89720b1ff18ffa4e910415165880e437d6cb36c39aef02a15b83dfbf6a38390d01bdefcfc6886ef922ead9a7b44b51b62008db6b70f50e4a30d33c43622be3bd1fcb29d84d7fb13dbfc1214f829f41875c796dacbb384b297b279aabb633d7fe1186edd2560ea5131f2eefb0c20863866356d4c3c9b53647de6a54e1b1b4c14d714beaf1495cdbf956a741cf0ad56f75b5ea1d81d3d9f36d9243ba7ccc2e21d2019e5b5c7469302cd2f9c3ed764b9ed2fdc9c4297c60f96c07b7ff9c5402c1865b95ff3389a49ace631919e48a19678ae8a4b7d6da6df28c556e75c29a2ef2ddbb31f2e62cc657499c23288df8b90fbc33c42d83ccfbda03f516f29b82db329b8485d9e8b661d30f435ef956a36bd7b11f496ff5ea185946d06c606ac4202a33422cf659376f0ed171d8a7e32c3174abbb74052309ef3dc02d690599cd26700792f0bfb7961ef9d78abd76ba4ba3ec9dcb257062e5342f93a182e5beed2fe3768c540299db1bd05f61468b8eba6ce39821451d329b79e8b79511d5bd7f6fb81f1f0cbb876867be3822cd8f61c61116b959548e6119237cfda119c6b940d454fa002c322ddd05faa677ef120cee096231f7c6f27453eaa065b9161b539cacb23cfe16431f4185bf30cb3ecf782a411da855fc4b73bd66d778e5c9dfd77448bc4ffd3ff36309482733a6531a64650c2b495b487e0686b",
  "source": "pragma solidity 0.4.21;\npragma experimental ABIEncoderV2;\n\ncontract BGRBig {\n\n   bytes x = hex\"2c8b8992f7eee1937afc9c3c9a708faed52aaf463189281058e7d9bf24718efcebc3c4fbc55ecce8b6bcd0a69e479b39df0324b53e1a92395767aa15e651501148b92c8e3ea2def9571a469e9e22fc8463fcfcf7319f6da24ad8578f978b114954edbea9c915236b8fa2fe88addbb571b8a1647ea22b47401e20e48e58f00e997099fecf6dd6791d820346a9313a74be3e77a4fcbf36da840fb29717bb9883504aa3be4b3e7982c32c412429890e53175e6dd263456b352fe36f9d264936ac4d0b18d6e7b448d12e4416e65fa86b1b236e7b9142d794ac747b07ffc4770a0ce2ec26ed298efb58cf72739c98175fd246ec4953ae41fbf29b0e5f9178493dfc21\";\n    bytes32 h = bytes32(67769612547580043071070140004826438300680680461396437723132034795480894759009);\n\n    bool[] bg = [false, false, true];\n    bytes16[] rg = [bytes16(292515598745754236261268930538829626862), bytes16(143732175038022762536275231211399109350), bytes16(155010501534977254474133447094281593683)];\n\n\n   string[] messages = [\n   \"MESSAGE 0\",\n   \"MESSAGE 1\",\n   \"MESSAGE 2\"\n   ];\n\n    //Simulation of PKI\n    uint n_signers = 3;\n    uint256 constant e = 65537;\n    bytes modulus0 = hex\"c3f8da94ac41be90e0e4a89720b1ff18ffa4e910415165880e437d6cb36c39aef02a15b83dfbf6a38390d01bdefcfc6886ef922ead9a7b44b51b62008db6b70f50e4a30d33c43622be3bd1fcb29d84d7fb13dbfc1214f829f41875c796dacbb384b297b279aabb633d7fe1186edd2560ea5131f2eefb0c20863866356d4c3c9b53647de6a54e1b1b4c14d714beaf1495cdbf956a741cf0ad56f75b5ea1d81d3d9f36d9243ba7ccc2e21d2019e5b5c7469302cd2f9c3ed764b9ed2fdc9c4297c60f96c07b7ff9c5402c1865b95ff3389a49ace631919e48a19678ae8a4b7d6da6df28c556e75c29a2ef2ddbb31f2e62cc657499c23288df8b90fbc33c42d83ccf\";\n    bytes modulus1 = hex\"ccd3cd5659e9ef107a3678459259bdca6917ce14406365123586795e378b99823912434ce21e6bc435b837c919c25667229423d123b0c57d6d9eacdb5415d896bd26b7b4f94f578bf45d34200f765945bb051cf154e2222e0ef5ba2bc87df22f10cc4f504c9e094d91e135e5d4fef65888d57d284550070824cdcbbe7b1056f67e3c5513777f45490376e35271890f136f961d5d62dfcce3da283d1c2922d15b7235b2eedc4ac212d88b64877463e2e2745159053c8a66e586ab86c90c00614d7321728891e9ad5ffdfc7ee8861d7bab95662eba1623fd1dbf38642f3218a2eea720f3e2660bac1bc76893e3d324edd91449d6af1f18289b305d2ba6f44197d5\";\n    bytes modulus2 = hex\"bda03f516f29b82db329b8485d9e8b661d30f435ef956a36bd7b11f496ff5ea185946d06c606ac4202a33422cf659376f0ed171d8a7e32c3174abbb74052309ef3dc02d690599cd26700792f0bfb7961ef9d78abd76ba4ba3ec9dcb257062e5342f93a182e5beed2fe3768c540299db1bd05f61468b8eba6ce39821451d329b79e8b79511d5bd7f6fb81f1f0cbb876867be3822cd8f61c61116b959548e6119237cfda119c6b940d454fa002c322ddd05faa677ef120cee096231f7c6f27453eaa065b9161b539cacb23cfe16431f4185bf30cb3ecf782a411da855fc4b73bd66d778e5c9dfd77448bc4ffd3ff36309482733a6531a64650c2b495b487e0686b\";\n\n    function test(string[] m) returns (string) {\n        return m[0];\n    }\n\n    function verify(string[] messages, bool[] b, bytes16[] r) returns (bool) {\n        bytes memory x_prev = x;\n        bytes32 h_prev = h;\n\n        bytes memory g;\n        bytes memory y;\n        bytes memory X;\n        bytes32 eta;\n\n        for (uint i = n_signers - 1; i > 0; i--) {\n            //Line 2\n            X = split_inverse(x_prev, b[i]);\n            y = modexp(X, e, getModulus(i));\n\n            //Line 3\n            g = ghash(h_prev);\n\n            //Line 4\n            x_prev = xorbytes(g, y);\n\n            //Line 5\n            eta = hhash(getModulus(i), messages[i], r[i], x_prev);\n\n            //Line 6\n            h_prev = h_prev ^ eta;\n        }\n\n        //Line 7\n        bytes32 h_hash = hhashbase(modulus0, messages[0], r[0]);\n        bytes memory g_hash = ghash(h_prev);\n\n        bytes memory pig = modexp(split_inverse(x_prev, b[0]), e, modulus0);\n\n        return h_hash == h_prev && equals(g_hash, pig);\n    }\n\n    function getModulus(uint i) returns (bytes) {\n        if (i == 0) {\n            return modulus0;\n        } else if (i == 1) {\n            return modulus1;\n        } else if (i == 2) {\n            return modulus2;\n        }\n    }\n\n    function modexp(bytes base, uint exponent, bytes modulus) internal returns (bytes output) {\n        //bytes memory modulus = bytes(modulus_str);\n        uint base_length = base.length;\n        uint modulus_length = modulus.length;\n\n        uint size = (32 * 3) + base_length + 32 + modulus_length;\n        bytes memory input = new bytes(size);\n        output = new bytes(modulus_length);\n\n        assembly {\n            mstore(add(input, 32), base_length)\n            mstore(add(input, 64), 32)\n            mstore(add(input, 96), modulus_length)\n\n            mstore(add(input, add(128, base_length)), exponent)\n        }\n\n        memcopy(base, 0, input, 96, base_length);\n        memcopy(modulus, 0, input, 96 + base_length + 32, modulus_length);\n\n        assembly {\n            pop(call(gas(), 5, 0, add(input, 32), size, add(output, 32), modulus_length))\n        }\n    }\n\n    function split_inverse(bytes xi, bool bi) internal pure returns (bytes) {\n        if (bi) {\n            xi[0] = byte(uint(xi[0]) + 128);\n        }\n\n        return xi;\n    }\n\n    function ghash(bytes32 y) internal pure returns (bytes) {\n        bytes32 hash = keccak256(y);\n        bytes memory res = hex\"00000000000000000000000000000000000000000000000000000000000000000000000000000000000000000000000000000000000000000000000000000000000000000000000000000000000000000000000000000000000000000000000000000000000000000000000000000000000000000000000000000000000000000000000000000000000000000000000000000000000000000000000000000000000000000000000000000000000000000000000000000000000000000000000000000000000000000000000000000000000000000000000000000000000000000000000000000000000000000000000000000000000000000000000000000000\";\n\n        for(uint i = 32; i < 256; i++) {\n            res[i] = hash[i % 32];\n        }\n\n        return res;\n    }\n\n    function cut(bytes i) internal pure returns (bytes32 part1, bytes32 part2, bytes32 part3, bytes32 part4, bytes32 part5, bytes32 part6, bytes32 part7, bytes32 part8) {\n\n        assembly {\n            part1 := mload(add(i, 32))\n            part2 := mload(add(i, 64))\n            part3 := mload(add(i, 96))\n            part4 := mload(add(i, 128))\n            part5 := mload(add(i, 160))\n            part6 := mload(add(i, 192))\n            part7 := mload(add(i, 224))\n            part8 := mload(add(i, 256))\n        }\n    }\n\n    function xorbytes(bytes a, bytes y) internal pure returns (bytes) {\n        bytes32 c1;\n        bytes32 c2;\n        bytes32 c3;\n        bytes32 c4;\n        bytes32 c5;\n        bytes32 c6;\n        bytes32 c7;\n        bytes32 c8;\n\n        assembly {\n            c1 := xor(mload(add(a, 32)), mload(add(y, 32)))\n            c2 := xor(mload(add(a, 64)), mload(add(y, 64)))\n            c3 := xor(mload(add(a, 96)), mload(add(y, 96)))\n            c4 := xor(mload(add(a, 128)), mload(add(y, 128)))\n            c5 := xor(mload(add(a, 160)), mload(add(y, 160)))\n            c6 := xor(mload(add(a, 192)), mload(add(y, 192)))\n            c7 := xor(mload(add(a, 224)), mload(add(y, 224)))\n            c8 := xor(mload(add(a, 256)), mload(add(y, 256)))\n        }\n\n        bytes memory merged = new bytes(256);\n\n        uint k = 0;\n\n        for (uint i = 0; i < 32; i++) {\n            merged[k] = c1[i];\n            k++;\n        }\n\n        for (i = 0; i < 32; i++) {\n            merged[k] = c2[i];\n            k++;\n        }\n\n        for (i = 0; i < 32; i++) {\n            merged[k] = c3[i];\n            k++;\n        }\n\n        for (i = 0; i < 32; i++) {\n            merged[k] = c4[i];\n            k++;\n        }\n\n        for (i = 0; i < 32; i++) {\n            merged[k] = c5[i];\n            k++;\n        }\n\n        for (i = 0; i < 32; i++) {\n            merged[k] = c6[i];\n            k++;\n        }\n\n        for (i = 0; i < 32; i++) {\n            merged[k] = c7[i];\n            k++;\n        }\n\n        for (i = 0; i < 32; i++) {\n            merged[k] = c8[i];\n            k++;\n        }\n\n        return merged;\n    }\n\n    function hhash(bytes modulus, string message, bytes16 random, bytes x_prev) internal pure returns (bytes32) {\n        return keccak256(modulus, message, random, x_prev);\n    }\n\n    function hhashbase(bytes modulus, string message, bytes16 random) internal pure returns (bytes32) {\n        return keccak256(modulus, message, random);\n    }\n\n    function memcopy(bytes src, uint srcoffset, bytes dst, uint dstoffset, uint len) pure internal {\n        assembly {\n            src := add(src, add(32, srcoffset))\n            dst := add(dst, add(32, dstoffset))\n\n        // copy 32 bytes at once\n            for\n            {}\n            iszero(lt(len, 32))\n            {\n                dst := add(dst, 32)\n                src := add(src, 32)\n                len := sub(len, 32)\n            }\n            {mstore(dst, mload(src))}\n\n        // copy the remainder (0 < len < 32)\n            let mask := sub(exp(256, sub(32, len)), 1)\n            let srcpart := and(mload(src), not(mask))\n            let dstpart := and(mload(dst), mask)\n            mstore(dst, or(srcpart, dstpart))\n        }\n    }\n\n    function equals(bytes memory self, bytes memory other) internal pure returns (bool equal) {\n        if (self.length != other.length) {\n            return false;\n        }\n\n        uint addr;\n        uint addr2;\n        uint len = self.length;\n\n        assembly {\n            addr := add(self, /*BYTES_HEADER_SIZE*/32)\n            addr2 := add(other, /*BYTES_HEADER_SIZE*/32)\n            equal := eq(keccak256(addr, len), keccak256(addr2, len))\n        }\n    }\n\n}\n",
  "sourcePath": "/home/bjorn/Projects/BGRVerify/contracts/BGRBig.sol",
  "compiler": {
    "name": "solc",
    "version": "0.4.21+commit.dfe3193c.Emscripten.clang"
  },
  "schemaVersion": "2.0.0",
  "updatedAt": "2018-06-03T20:24:52.851Z"
}