{
  "contractName": "BGRBig",
  "abi": [
    {
      "constant": false,
      "inputs": [
        {
          "name": "i",
          "type": "uint256"
        }
      ],
      "name": "getModulus",
      "outputs": [
        {
          "name": "",
          "type": "bytes"
        }
      ],
      "payable": false,
      "stateMutability": "nonpayable",
      "type": "function"
    },
    {
      "constant": false,
      "inputs": [],
      "name": "verify",
      "outputs": [
        {
          "name": "",
          "type": "bool"
        }
      ],
      "payable": false,
      "stateMutability": "nonpayable",
      "type": "function"
    }
  ],
  "bytecode": "0x606060405261012060405190810160405280610100815260200162001d8e6101009139600090805190602001906200003992919062000331565b507f95d43dcce97089b9af3e01dffdc75bc34525a3f7c4601998dd2c428438f56061600102600190600019169055606060405190810160405280600015151515815260200160001515151581526020016001151515158152506002906003620000a4929190620003b8565b506060604051908101604052806fdc1074804914a49b00fe002c32a5bdee700100000000000000000000000000000000026fffffffffffffffffffffffffffffffff19166fffffffffffffffffffffffffffffffff191681526020016f6c21cf5b5baaa99ce3650b93422b5ae6700100000000000000000000000000000000026fffffffffffffffffffffffffffffffff19166fffffffffffffffffffffffffffffffff191681526020016f749defc8f44e85a2385adad64dde6353700100000000000000000000000000000000026fffffffffffffffffffffffffffffffff19166fffffffffffffffffffffffffffffffff19168152506003906003620001ae92919062000465565b506060604051908101604052806040805190810160405280600981526020017f4d4553534147452030000000000000000000000000000000000000000000000081525081526020016040805190810160405280600981526020017f4d4553534147452031000000000000000000000000000000000000000000000081525081526020016040805190810160405280600981526020017f4d4553534147452032000000000000000000000000000000000000000000000081525081525060049060036200027c92919062000542565b5061012060405190810160405280610100815260200162001e8e610100913960059080519060200190620002b292919062000331565b5061012060405190810160405280610100815260200162001c8e610100913960069080519060200190620002e892919062000331565b5061012060405190810160405280610100815260200162001f8e6101009139600790805190602001906200031e92919062000331565b5034156200032b57600080fd5b6200074a565b828054600181600116156101000203166002900490600052602060002090601f016020900481019282601f106200037457805160ff1916838001178555620003a5565b82800160010185558215620003a5579182015b82811115620003a457825182559160200191906001019062000387565b5b509050620003b49190620005a9565b5090565b82805482825590600052602060002090601f01602090048101928215620004525791602002820160005b838211156200042157835183826101000a81548160ff0219169083151502179055509260200192600101602081600001049283019260010302620003e2565b8015620004505782816101000a81549060ff021916905560010160208160000104928301926001030262000421565b505b509050620004619190620005d1565b5090565b828054828255906000526020600020906001016002900481019282156200052f5791602002820160005b83821115620004ef57835183826101000a8154816fffffffffffffffffffffffffffffffff0219169083700100000000000000000000000000000000900402179055509260200192601001602081600f010492830192600103026200048f565b80156200052d5782816101000a8154906fffffffffffffffffffffffffffffffff0219169055601001602081600f01049283019260010302620004ef565b505b5090506200053e919062000604565b5090565b82805482825590600052602060002090810192821562000596579160200282015b82811115620005955782518290805190602001906200058492919062000646565b509160200191906001019062000563565b5b509050620005a59190620006cd565b5090565b620005ce91905b80821115620005ca576000816000905550600101620005b0565b5090565b90565b6200060191905b80821115620005fd57600081816101000a81549060ff021916905550600101620005d8565b5090565b90565b6200064391905b808211156200063f57600081816101000a8154906fffffffffffffffffffffffffffffffff0219169055506001016200060b565b5090565b90565b828054600181600116156101000203166002900490600052602060002090601f016020900481019282601f106200068957805160ff1916838001178555620006ba565b82800160010185558215620006ba579182015b82811115620006b95782518255916020019190600101906200069c565b5b509050620006c99190620005a9565b5090565b620006fb91905b80821115620006f75760008181620006ed9190620006fe565b50600101620006d4565b5090565b90565b50805460018160011615610100020316600290046000825580601f1062000726575062000747565b601f016020900490600052602060002090810190620007469190620005a9565b5b50565b611534806200075a6000396000f30060606040526004361061004c576000357c0100000000000000000000000000000000000000000000000000000000900463ffffffff168063c295eabe14610051578063fc735e9914610087575b600080fd5b341561005c57600080fd5b610071600461006c9036906112ea565b6100b0565b60405161007e9190611373565b60405180910390f35b341561009257600080fd5b61009a6102bf565b6040516100a79190611358565b60405180910390f35b6100b86112c2565b60008214156101635760058054600181600116156101000203166002900480601f0160208091040260200160405190810160405280929190818152602001828054600181600116156101000203166002900480156101575780601f1061012c57610100808354040283529160200191610157565b820191906000526020600020905b81548152906001019060200180831161013a57829003601f168201915b505050505090506102ba565b600182141561020e5760068054600181600116156101000203166002900480601f0160208091040260200160405190810160405280929190818152602001828054600181600116156101000203166002900480156102025780601f106101d757610100808354040283529160200191610202565b820191906000526020600020905b8154815290600101906020018083116101e557829003601f168201915b505050505090506102ba565b60028214156102b95760078054600181600116156101000203166002900480601f0160208091040260200160405190810160405280929190818152602001828054600181600116156101000203166002900480156102ad5780601f10610282576101008083540402835291602001916102ad565b820191906000526020600020905b81548152906001019060200180831161029057829003601f168201915b505050505090506102ba565b5b919050565b60006102c96112c2565b60006102d36112c2565b6102db6112c2565b6102e36112c2565b60008060006102f06112c2565b6102f86112c2565b60008054600181600116156101000203166002900480601f01602080910402602001604051908101604052809291908181526020018280546001816001161561010002031660029004801561038e5780601f106103635761010080835404028352916020019161038e565b820191906000526020600020905b81548152906001019060200180831161037157829003601f168201915b505050505099506001549850600293505b600084111561052d576103e08a6002868154811015156103bb57fe5b90600052602060002090602091828204019190069054906101000a900460ff166107e2565b95506103f886620100016103f3876100b0565b6108db565b9650610403896109a7565b975061040f8888610a9c565b995061051861041d856100b0565b60048681548110151561042c57fe5b90600052602060002090018054600181600116156101000203166002900480601f0160208091040260200160405190810160405280929190818152602001828054600181600116156101000203166002900480156104cb5780601f106104a0576101008083540402835291602001916104cb565b820191906000526020600020905b8154815290600101906020018083116104ae57829003601f168201915b50505050506003878154811015156104df57fe5b90600052602060002090600291828204019190066010029054906101000a9004700100000000000000000000000000000000028d610ff4565b9450848918985083806001900394505061039f565b6106c760058054600181600116156101000203166002900480601f0160208091040260200160405190810160405280929190818152602001828054600181600116156101000203166002900480156105c65780601f1061059b576101008083540402835291602001916105c6565b820191906000526020600020905b8154815290600101906020018083116105a957829003601f168201915b5050505050600460008154811015156105db57fe5b90600052602060002090018054600181600116156101000203166002900480601f01602080910402602001604051908101604052809291908181526020018280546001816001161561010002031660029004801561067a5780601f1061064f5761010080835404028352916020019161067a565b820191906000526020600020905b81548152906001019060200180831161065d57829003601f168201915b50505050506003600081548110151561068f57fe5b90600052602060002090600291828204019190066010029054906101000a90047001000000000000000000000000000000000261113b565b92506106d2896109a7565b91506107b46107108b600260008154811015156106eb57fe5b90600052602060002090602091828204019190069054906101000a900460ff166107e2565b6201000160058054600181600116156101000203166002900480601f0160208091040260200160405190810160405280929190818152602001828054600181600116156101000203166002900480156107aa5780601f1061077f576101008083540402835291602001916107aa565b820191906000526020600020905b81548152906001019060200180831161078d57829003601f168201915b50505050506108db565b9050886000191683600019161480156107d357506107d2828261122c565b5b9a505050505050505050505090565b6107ea6112c2565b81156108d257608083600081518110151561080157fe5b9060200101517f010000000000000000000000000000000000000000000000000000000000000090047f0100000000000000000000000000000000000000000000000000000000000000027f01000000000000000000000000000000000000000000000000000000000000009004017f0100000000000000000000000000000000000000000000000000000000000000028360008151811015156108a157fe5b9060200101907effffffffffffffffffffffffffffffffffffffffffffffffffffffffffffff1916908160001a9053505b82905092915050565b6108e36112c2565b60008060006108f06112c2565b87519350855192508260208560600101019150816040518059106109115750595b9080825280601f01601f19166020018201604052509050826040518059106109365750595b9080825280601f01601f1916602001820160405250945083602082015260206040820152826060820152868460800182015261097788600083606088611269565b61098b866000836020886060010187611269565b82602086018360208401600060055af150505050509392505050565b6109af6112c2565b60006109b96112c2565b600084604051808260001916600019168152602001915050604051809103902092506101206040519081016040528061010081526020016113fb61010091399150602090505b610100811015610a915782602082811515610a1657fe5b06602081101515610a2357fe5b1a7f0100000000000000000000000000000000000000000000000000000000000000028282815181101515610a5457fe5b9060200101907effffffffffffffffffffffffffffffffffffffffffffffffffffffffffffff1916908160001a90535080806001019150506109ff565b819350505050919050565b610aa46112c2565b600080600080600080600080610ab86112c2565b60008060208d015160208f0151189a5060408d015160408f015118995060608d015160608f015118985060808d015160808f015118975060a08d015160a08f015118965060c08d015160c08f015118955060e08d015160e08f01511894506101008d01516101008f0151189350610100604051805910610b355750595b9080825280601f01601f1916602001820160405250925060009150600090505b6020811015610be2578a81602081101515610b6c57fe5b1a7f0100000000000000000000000000000000000000000000000000000000000000028383815181101515610b9d57fe5b9060200101907effffffffffffffffffffffffffffffffffffffffffffffffffffffffffffff1916908160001a90535081806001019250508080600101915050610b55565b600090505b6020811015610c74578981602081101515610bfe57fe5b1a7f0100000000000000000000000000000000000000000000000000000000000000028383815181101515610c2f57fe5b9060200101907effffffffffffffffffffffffffffffffffffffffffffffffffffffffffffff1916908160001a90535081806001019250508080600101915050610be7565b600090505b6020811015610d06578881602081101515610c9057fe5b1a7f0100000000000000000000000000000000000000000000000000000000000000028383815181101515610cc157fe5b9060200101907effffffffffffffffffffffffffffffffffffffffffffffffffffffffffffff1916908160001a90535081806001019250508080600101915050610c79565b600090505b6020811015610d98578781602081101515610d2257fe5b1a7f0100000000000000000000000000000000000000000000000000000000000000028383815181101515610d5357fe5b9060200101907effffffffffffffffffffffffffffffffffffffffffffffffffffffffffffff1916908160001a90535081806001019250508080600101915050610d0b565b600090505b6020811015610e2a578681602081101515610db457fe5b1a7f0100000000000000000000000000000000000000000000000000000000000000028383815181101515610de557fe5b9060200101907effffffffffffffffffffffffffffffffffffffffffffffffffffffffffffff1916908160001a90535081806001019250508080600101915050610d9d565b600090505b6020811015610ebc578581602081101515610e4657fe5b1a7f0100000000000000000000000000000000000000000000000000000000000000028383815181101515610e7757fe5b9060200101907effffffffffffffffffffffffffffffffffffffffffffffffffffffffffffff1916908160001a90535081806001019250508080600101915050610e2f565b600090505b6020811015610f4e578481602081101515610ed857fe5b1a7f0100000000000000000000000000000000000000000000000000000000000000028383815181101515610f0957fe5b9060200101907effffffffffffffffffffffffffffffffffffffffffffffffffffffffffffff1916908160001a90535081806001019250508080600101915050610ec1565b600090505b6020811015610fe0578381602081101515610f6a57fe5b1a7f0100000000000000000000000000000000000000000000000000000000000000028383815181101515610f9b57fe5b9060200101907effffffffffffffffffffffffffffffffffffffffffffffffffffffffffffff1916908160001a90535081806001019250508080600101915050610f53565b829b50505050505050505050505092915050565b6000848484846040518085805190602001908083835b60208310151561102f578051825260208201915060208101905060208303925061100a565b6001836020036101000a03801982511681845116808217855250505050505090500184805190602001908083835b602083101515611082578051825260208201915060208101905060208303925061105d565b6001836020036101000a038019825116818451168082178552505050505050905001836fffffffffffffffffffffffffffffffff19166fffffffffffffffffffffffffffffffff1916815260100182805190602001908083835b60208310151561110157805182526020820191506020810190506020830392506110dc565b6001836020036101000a03801982511681845116808217855250505050505090500194505050505060405180910390209050949350505050565b60008383836040518084805190602001908083835b6020831015156111755780518252602082019150602081019050602083039250611150565b6001836020036101000a03801982511681845116808217855250505050505090500183805190602001908083835b6020831015156111c857805182526020820191506020810190506020830392506111a3565b6001836020036101000a038019825116818451168082178552505050505050905001826fffffffffffffffffffffffffffffffff19166fffffffffffffffffffffffffffffffff191681526010019350505050604051809103902090509392505050565b600080600080845186511415156112465760009350611260565b855190506020860192506020850191508082208184201493505b50505092915050565b836020018501945081602001830192505b60208110151561129f578451835260208301925060208501945060208103905061127a565b6001816020036101000a0380198651168185511680821786525050505050505050565b602060405190810160405280600081525090565b60006112e282356113ac565b905092915050565b6000602082840312156112fc57600080fd5b600061130a848285016112d6565b91505092915050565b61131c816113a0565b82525050565b600061132d82611395565b8084526113418160208601602086016113b6565b61134a816113e9565b602085010191505092915050565b600060208201905061136d6000830184611313565b92915050565b6000602082019050818103600083015261138d8184611322565b905092915050565b600081519050919050565b60008115159050919050565b6000819050919050565b60005b838110156113d45780820151818401526020810190506113b9565b838111156113e3576000848401525b50505050565b6000601f19601f8301169050919050560000000000000000000000000000000000000000000000000000000000000000000000000000000000000000000000000000000000000000000000000000000000000000000000000000000000000000000000000000000000000000000000000000000000000000000000000000000000000000000000000000000000000000000000000000000000000000000000000000000000000000000000000000000000000000000000000000000000000000000000000000000000000000000000000000000000000000000000000000000000000000000000000000000000000000000000000000000000000000000000000000000000000000000000000000000000a265627a7a7230582088828512bc9c204bf6693151d151209e32a0c1129dea38d411b551392fcc11ff6c6578706572696d656e74616cf50037ccd3cd5659e9ef107a3678459259bdca6917ce14406365123586795e378b99823912434ce21e6bc435b837c919c25667229423d123b0c57d6d9eacdb5415d896bd26b7b4f94f578bf45d34200f765945bb051cf154e2222e0ef5ba2bc87df22f10cc4f504c9e094d91e135e5d4fef65888d57d284550070824cdcbbe7b1056f67e3c5513777f45490376e35271890f136f961d5d62dfcce3da283d1c2922d15b7235b2eedc4ac212d88b64877463e2e2745159053c8a66e586ab86c90c00614d7321728891e9ad5ffdfc7ee8861d7bab95662eba1623fd1dbf38642f3218a2eea720f3e2660bac1bc76893e3d324edd91449d6af1f18289b305d2ba6f44197d52c8b8992f7eee1937afc9c3c9a708faed52aaf463189281058e7d9bf24718efcebc3c4fbc55ecce8b6bcd0a69e479b39df0324b53e1a92395767aa15e651501148b92c8e3ea2def9571a469e9e22fc8463fcfcf7319f6da24ad8578f978b114954edbea9c915236b8fa2fe88addbb571b8a1647ea22b47401e20e48e58f00e997099fecf6dd6791d820346a9313a74be3e77a4fcbf36da840fb29717bb9883504aa3be4b3e7982c32c412429890e53175e6dd263456b352fe36f9d264936ac4d0b18d6e7b448d12e4416e65fa86b1b236e7b9142d794ac747b07ffc4770a0ce2ec26ed298efb58cf72739c98175fd246ec4953ae41fbf29b0e5f9178493dfc21c3f8da94ac41be90e0e4a89720b1ff18ffa4e910415165880e437d6cb36c39aef02a15b83dfbf6a38390d01bdefcfc6886ef922ead9a7b44b51b62008db6b70f50e4a30d33c43622be3bd1fcb29d84d7fb13dbfc1214f829f41875c796dacbb384b297b279aabb633d7fe1186edd2560ea5131f2eefb0c20863866356d4c3c9b53647de6a54e1b1b4c14d714beaf1495cdbf956a741cf0ad56f75b5ea1d81d3d9f36d9243ba7ccc2e21d2019e5b5c7469302cd2f9c3ed764b9ed2fdc9c4297c60f96c07b7ff9c5402c1865b95ff3389a49ace631919e48a19678ae8a4b7d6da6df28c556e75c29a2ef2ddbb31f2e62cc657499c23288df8b90fbc33c42d83ccfbda03f516f29b82db329b8485d9e8b661d30f435ef956a36bd7b11f496ff5ea185946d06c606ac4202a33422cf659376f0ed171d8a7e32c3174abbb74052309ef3dc02d690599cd26700792f0bfb7961ef9d78abd76ba4ba3ec9dcb257062e5342f93a182e5beed2fe3768c540299db1bd05f61468b8eba6ce39821451d329b79e8b79511d5bd7f6fb81f1f0cbb876867be3822cd8f61c61116b959548e6119237cfda119c6b940d454fa002c322ddd05faa677ef120cee096231f7c6f27453eaa065b9161b539cacb23cfe16431f4185bf30cb3ecf782a411da855fc4b73bd66d778e5c9dfd77448bc4ffd3ff36309482733a6531a64650c2b495b487e0686b",
  "source": "pragma solidity 0.4.21;\npragma experimental ABIEncoderV2;\n\ncontract BGRBig {\n\n    bytes x = hex\"2c8b8992f7eee1937afc9c3c9a708faed52aaf463189281058e7d9bf24718efcebc3c4fbc55ecce8b6bcd0a69e479b39df0324b53e1a92395767aa15e651501148b92c8e3ea2def9571a469e9e22fc8463fcfcf7319f6da24ad8578f978b114954edbea9c915236b8fa2fe88addbb571b8a1647ea22b47401e20e48e58f00e997099fecf6dd6791d820346a9313a74be3e77a4fcbf36da840fb29717bb9883504aa3be4b3e7982c32c412429890e53175e6dd263456b352fe36f9d264936ac4d0b18d6e7b448d12e4416e65fa86b1b236e7b9142d794ac747b07ffc4770a0ce2ec26ed298efb58cf72739c98175fd246ec4953ae41fbf29b0e5f9178493dfc21\";\n    bytes32 h = bytes32(67769612547580043071070140004826438300680680461396437723132034795480894759009);\n\n    bool[] b = [false, false, true];\n    bytes16[] r = [bytes16(292515598745754236261268930538829626862), bytes16(143732175038022762536275231211399109350), bytes16(155010501534977254474133447094281593683)];\n\n    string[] messages = [\n    \"MESSAGE 0\",\n    \"MESSAGE 1\",\n    \"MESSAGE 2\"\n    ];\n\n    /*\n        TODO:\n        - Betere oplossing voor moduli\n        - testen met de splits\n    */\n\n    //Simulation of PKI\n    uint256 constant e = 65537;\n    bytes modulus0 = hex\"c3f8da94ac41be90e0e4a89720b1ff18ffa4e910415165880e437d6cb36c39aef02a15b83dfbf6a38390d01bdefcfc6886ef922ead9a7b44b51b62008db6b70f50e4a30d33c43622be3bd1fcb29d84d7fb13dbfc1214f829f41875c796dacbb384b297b279aabb633d7fe1186edd2560ea5131f2eefb0c20863866356d4c3c9b53647de6a54e1b1b4c14d714beaf1495cdbf956a741cf0ad56f75b5ea1d81d3d9f36d9243ba7ccc2e21d2019e5b5c7469302cd2f9c3ed764b9ed2fdc9c4297c60f96c07b7ff9c5402c1865b95ff3389a49ace631919e48a19678ae8a4b7d6da6df28c556e75c29a2ef2ddbb31f2e62cc657499c23288df8b90fbc33c42d83ccf\";\n    bytes modulus1 = hex\"ccd3cd5659e9ef107a3678459259bdca6917ce14406365123586795e378b99823912434ce21e6bc435b837c919c25667229423d123b0c57d6d9eacdb5415d896bd26b7b4f94f578bf45d34200f765945bb051cf154e2222e0ef5ba2bc87df22f10cc4f504c9e094d91e135e5d4fef65888d57d284550070824cdcbbe7b1056f67e3c5513777f45490376e35271890f136f961d5d62dfcce3da283d1c2922d15b7235b2eedc4ac212d88b64877463e2e2745159053c8a66e586ab86c90c00614d7321728891e9ad5ffdfc7ee8861d7bab95662eba1623fd1dbf38642f3218a2eea720f3e2660bac1bc76893e3d324edd91449d6af1f18289b305d2ba6f44197d5\";\n    bytes modulus2 = hex\"bda03f516f29b82db329b8485d9e8b661d30f435ef956a36bd7b11f496ff5ea185946d06c606ac4202a33422cf659376f0ed171d8a7e32c3174abbb74052309ef3dc02d690599cd26700792f0bfb7961ef9d78abd76ba4ba3ec9dcb257062e5342f93a182e5beed2fe3768c540299db1bd05f61468b8eba6ce39821451d329b79e8b79511d5bd7f6fb81f1f0cbb876867be3822cd8f61c61116b959548e6119237cfda119c6b940d454fa002c322ddd05faa677ef120cee096231f7c6f27453eaa065b9161b539cacb23cfe16431f4185bf30cb3ecf782a411da855fc4b73bd66d778e5c9dfd77448bc4ffd3ff36309482733a6531a64650c2b495b487e0686b\";\n\n\nfunction getModulus(uint i) returns (bytes) {\n        if (i == 0) {\n            return modulus0;\n        } else if (i == 1) {\n            return modulus1;\n        } else if (i == 2) {\n            return modulus2;\n        }\n    }\n\n    function verify() returns (bool) {\n        bytes memory x_prev = x;\n        bytes32 h_prev = h;\n\n        bytes memory g;\n        bytes memory y;\n        bytes memory X;\n        bytes32 eta;\n\n        for (uint i = 2; i > 0; i--) { //moduli.length - 1\n            //Line 2\n            X = split_inverse(x_prev, b[i]);\n            y = modexp(X, e, getModulus(i));\n\n            //Line 3\n            g = ghash(h_prev);\n\n            //Line 4\n            x_prev = xorbytes(g, y);\n\n            //Line 5\n            eta = hhash(getModulus(i), messages[i], r[i], x_prev);\n\n            //Line 6\n            h_prev = h_prev ^ eta;\n        }\n\n        //Line 7\n        bytes32 h_hash = hhashbase(modulus0, messages[0], r[0]);\n        bytes memory g_hash = ghash(h_prev);\n\n        bytes memory pig = modexp(split_inverse(x_prev, b[0]), e, modulus0);\n\n        return h_hash == h_prev && equals(g_hash, pig);\n    }\n\n    function modexp(bytes base, uint exponent, bytes modulus) internal returns (bytes output) {\n        //bytes memory modulus = bytes(modulus_str);\n        uint base_length = base.length;\n        uint modulus_length = modulus.length;\n\n        uint size = (32 * 3) + base_length + 32 + modulus_length;\n        bytes memory input = new bytes(size);\n        output = new bytes(modulus_length);\n\n        assembly {\n            mstore(add(input, 32), base_length)\n            mstore(add(input, 64), 32)\n            mstore(add(input, 96), modulus_length)\n\n            mstore(add(input, add(128, base_length)), exponent)\n        }\n\n        memcopy(base, 0, input, 96, base_length);\n        memcopy(modulus, 0, input, 96 + base_length + 32, modulus_length);\n\n        assembly {\n            pop(call(gas(), 5, 0, add(input, 32), size, add(output, 32), modulus_length))\n        }\n    }\n\n    function split_inverse(bytes xi, bool bi) internal pure returns (bytes) {\n        if (bi) {\n            xi[0] = byte(uint(xi[0]) + 128);\n        }\n\n        return xi;\n    }\n\n    function ghash(bytes32 y) internal pure returns (bytes) {\n        bytes32 hash = keccak256(y);\n        bytes memory res = hex\"00000000000000000000000000000000000000000000000000000000000000000000000000000000000000000000000000000000000000000000000000000000000000000000000000000000000000000000000000000000000000000000000000000000000000000000000000000000000000000000000000000000000000000000000000000000000000000000000000000000000000000000000000000000000000000000000000000000000000000000000000000000000000000000000000000000000000000000000000000000000000000000000000000000000000000000000000000000000000000000000000000000000000000000000000000000\";\n\n        for(uint i = 32; i < 256; i++) {\n            res[i] = hash[i % 32];\n        }\n\n        return res;\n    }\n\n    function cut(bytes i) internal pure returns (bytes32 part1, bytes32 part2, bytes32 part3, bytes32 part4, bytes32 part5, bytes32 part6, bytes32 part7, bytes32 part8) {\n\n        assembly {\n            part1 := mload(add(i, 32))\n            part2 := mload(add(i, 64))\n            part3 := mload(add(i, 96))\n            part4 := mload(add(i, 128))\n            part5 := mload(add(i, 160))\n            part6 := mload(add(i, 192))\n            part7 := mload(add(i, 224))\n            part8 := mload(add(i, 256))\n        }\n    }\n\n    function xorbytes(bytes a, bytes y) internal pure returns (bytes) {\n        bytes32 c1;\n        bytes32 c2;\n        bytes32 c3;\n        bytes32 c4;\n        bytes32 c5;\n        bytes32 c6;\n        bytes32 c7;\n        bytes32 c8;\n\n        assembly {\n            c1 := xor(mload(add(a, 32)), mload(add(y, 32)))\n            c2 := xor(mload(add(a, 64)), mload(add(y, 64)))\n            c3 := xor(mload(add(a, 96)), mload(add(y, 96)))\n            c4 := xor(mload(add(a, 128)), mload(add(y, 128)))\n            c5 := xor(mload(add(a, 160)), mload(add(y, 160)))\n            c6 := xor(mload(add(a, 192)), mload(add(y, 192)))\n            c7 := xor(mload(add(a, 224)), mload(add(y, 224)))\n            c8 := xor(mload(add(a, 256)), mload(add(y, 256)))\n        }\n\n        bytes memory merged = new bytes(256);\n\n        uint k = 0;\n\n        for (uint i = 0; i < 32; i++) {\n            merged[k] = c1[i];\n            k++;\n        }\n\n        for (i = 0; i < 32; i++) {\n            merged[k] = c2[i];\n            k++;\n        }\n\n        for (i = 0; i < 32; i++) {\n            merged[k] = c3[i];\n            k++;\n        }\n\n        for (i = 0; i < 32; i++) {\n            merged[k] = c4[i];\n            k++;\n        }\n\n        for (i = 0; i < 32; i++) {\n            merged[k] = c5[i];\n            k++;\n        }\n\n        for (i = 0; i < 32; i++) {\n            merged[k] = c6[i];\n            k++;\n        }\n\n        for (i = 0; i < 32; i++) {\n            merged[k] = c7[i];\n            k++;\n        }\n\n        for (i = 0; i < 32; i++) {\n            merged[k] = c8[i];\n            k++;\n        }\n\n        return merged;\n    }\n\n    function hhash(bytes modulus, string message, bytes16 random, bytes x_prev) internal pure returns (bytes32) {\n        return keccak256(modulus, message, random, x_prev);\n    }\n\n    function hhashbase(bytes modulus, string message, bytes16 random) internal pure returns (bytes32) {\n        return keccak256(modulus, message, random);\n    }\n\n    function memcopy(bytes src, uint srcoffset, bytes dst, uint dstoffset, uint len) pure internal {\n        assembly {\n            src := add(src, add(32, srcoffset))\n            dst := add(dst, add(32, dstoffset))\n\n        // copy 32 bytes at once\n            for\n            {}\n            iszero(lt(len, 32))\n            {\n                dst := add(dst, 32)\n                src := add(src, 32)\n                len := sub(len, 32)\n            }\n            {mstore(dst, mload(src))}\n\n        // copy the remainder (0 < len < 32)\n            let mask := sub(exp(256, sub(32, len)), 1)\n            let srcpart := and(mload(src), not(mask))\n            let dstpart := and(mload(dst), mask)\n            mstore(dst, or(srcpart, dstpart))\n        }\n    }\n\n    function equals(bytes memory self, bytes memory other) internal pure returns (bool equal) {\n        if (self.length != other.length) {\n            return false;\n        }\n\n        uint addr;\n        uint addr2;\n        uint len = self.length;\n\n        assembly {\n            addr := add(self, /*BYTES_HEADER_SIZE*/32)\n            addr2 := add(other, /*BYTES_HEADER_SIZE*/32)\n            equal := eq(keccak256(addr, len), keccak256(addr2, len))\n        }\n    }\n\n}\n",
  "sourcePath": "/home/bjorn/Projects/BGRVerify/contracts/BGRBig.sol",
  "compiler": {
    "name": "solc",
    "version": "0.4.21+commit.dfe3193c.Emscripten.clang"
  },
  "schemaVersion": "2.0.0",
  "updatedAt": "2018-06-03T15:42:26.538Z"
}