{
  "contractName": "BGRBig",
  "abi": [
    {
      "constant": false,
      "inputs": [],
      "name": "verify",
      "outputs": [
        {
          "name": "",
          "type": "bool"
        }
      ],
      "payable": false,
      "stateMutability": "nonpayable",
      "type": "function"
    }
  ],
  "bytecode": "0x6060604052610120604051908101604052806101008152602001620019ba6101009139600090805190602001906200003992919062000369565b507f48ae08a9b3de7014167900822ca49ed0def5fb38ce433822364623127f98b3bc600102600190600019169055606060405190810160405280600015151515815260200160001515151581526020016000151515158152506002906003620000a4929190620003f0565b5060606040519081016040528061d7357e01000000000000000000000000000000000000000000000000000000000000027dffffffffffffffffffffffffffffffffffffffffffffffffffffffffffff19167dffffffffffffffffffffffffffffffffffffffffffffffffffffffffffff1916815260200161fd107e01000000000000000000000000000000000000000000000000000000000000027dffffffffffffffffffffffffffffffffffffffffffffffffffffffffffff19167dffffffffffffffffffffffffffffffffffffffffffffffffffffffffffff1916815260200161368e7e01000000000000000000000000000000000000000000000000000000000000027dffffffffffffffffffffffffffffffffffffffffffffffffffffffffffff19167dffffffffffffffffffffffffffffffffffffffffffffffffffffffffffff19168152506003906003620002029291906200049d565b506060604051908101604052806040805190810160405280600981526020017f4d4553534147452030000000000000000000000000000000000000000000000081525081526020016040805190810160405280600981526020017f4d4553534147452031000000000000000000000000000000000000000000000081525081526020016040805190810160405280600981526020017f4d455353414745203200000000000000000000000000000000000000000000008152508152506004906003620002d09291906200056c565b50606060405190810160405280610120604051908101604052806101008152602001620019ba61010091398152602001610120604051908101604052806101008152602001620019ba61010091398152602001610120604051908101604052806101008152602001620019ba61010091398152506005906003620003569291906200056c565b5034156200036357600080fd5b62000766565b828054600181600116156101000203166002900490600052602060002090601f016020900481019282601f10620003ac57805160ff1916838001178555620003dd565b82800160010185558215620003dd579182015b82811115620003dc578251825591602001919060010190620003bf565b5b509050620003ec9190620005d3565b5090565b82805482825590600052602060002090601f016020900481019282156200048a5791602002820160005b838211156200045957835183826101000a81548160ff02191690831515021790555092602001926001016020816000010492830192600103026200041a565b8015620004885782816101000a81549060ff021916905560010160208160000104928301926001030262000459565b505b509050620004999190620005fb565b5090565b82805482825590600052602060002090600f01601090048101928215620005595791602002820160005b838211156200052757835183826101000a81548161ffff02191690837e01000000000000000000000000000000000000000000000000000000000000900402179055509260200192600201602081600101049283019260010302620004c7565b8015620005575782816101000a81549061ffff021916905560020160208160010104928301926001030262000527565b505b5090506200056891906200062e565b5090565b828054828255906000526020600020908101928215620005c0579160200282015b82811115620005bf578251829080519060200190620005ae92919062000662565b50916020019190600101906200058d565b5b509050620005cf9190620006e9565b5090565b620005f891905b80821115620005f4576000816000905550600101620005da565b5090565b90565b6200062b91905b808211156200062757600081816101000a81549060ff02191690555060010162000602565b5090565b90565b6200065f91905b808211156200065b57600081816101000a81549061ffff02191690555060010162000635565b5090565b90565b828054600181600116156101000203166002900490600052602060002090601f016020900481019282601f10620006a557805160ff1916838001178555620006d6565b82800160010185558215620006d6579182015b82811115620006d5578251825591602001919060010190620006b8565b5b509050620006e59190620005d3565b5090565b6200071791905b808211156200071357600081816200070991906200071a565b50600101620006f0565b5090565b90565b50805460018160011615610100020316600290046000825580601f1062000742575062000763565b601f016020900490600052602060002090810190620007629190620005d3565b5b50565b61124480620007766000396000f300606060405260043610610041576000357c0100000000000000000000000000000000000000000000000000000000900463ffffffff168063fc735e9914610046575b600080fd5b341561005157600080fd5b61005961006f565b60405161006691906110e3565b60405180910390f35b60006100796110c0565b60006100836110c0565b61008b6110c0565b6100936110c0565b60008060006100a06110c0565b6100a86110c0565b60008054600181600116156101000203166002900480601f01602080910402602001604051908101604052809291908181526020018280546001816001161561010002031660029004801561013e5780601f106101135761010080835404028352916020019161013e565b820191906000526020600020905b81548152906001019060200180831161012157829003601f168201915b50505050509950600154985060016005805490500393505b6000841115610446576101978a60028681548110151561017257fe5b90600052602060002090602091828204019190069054906101000a900460ff16610720565b955061025986620100016005878154811015156101b057fe5b90600052602060002090018054600181600116156101000203166002900480601f01602080910402602001604051908101604052809291908181526020018280546001816001161561010002031660029004801561024f5780601f106102245761010080835404028352916020019161024f565b820191906000526020600020905b81548152906001019060200180831161023257829003601f168201915b505050505061079b565b965061026489610873565b9750610270888861089f565b995061043160058581548110151561028457fe5b90600052602060002090018054600181600116156101000203166002900480601f0160208091040260200160405190810160405280929190818152602001828054600181600116156101000203166002900480156103235780601f106102f857610100808354040283529160200191610323565b820191906000526020600020905b81548152906001019060200180831161030657829003601f168201915b505050505060048681548110151561033757fe5b90600052602060002090018054600181600116156101000203166002900480601f0160208091040260200160405190810160405280929190818152602001828054600181600116156101000203166002900480156103d65780601f106103ab576101008083540402835291602001916103d6565b820191906000526020600020905b8154815290600101906020018083116103b957829003601f168201915b50505050506003878154811015156103ea57fe5b90600052602060002090601091828204019190066002029054906101000a90047e01000000000000000000000000000000000000000000000000000000000000028d610df7565b94508489189850838060019003945050610156565b6106076005600081548110151561045957fe5b90600052602060002090018054600181600116156101000203166002900480601f0160208091040260200160405190810160405280929190818152602001828054600181600116156101000203166002900480156104f85780601f106104cd576101008083540402835291602001916104f8565b820191906000526020600020905b8154815290600101906020018083116104db57829003601f168201915b50505050506004600081548110151561050d57fe5b90600052602060002090018054600181600116156101000203166002900480601f0160208091040260200160405190810160405280929190818152602001828054600181600116156101000203166002900480156105ac5780601f10610581576101008083540402835291602001916105ac565b820191906000526020600020905b81548152906001019060200180831161058f57829003601f168201915b5050505050600360008154811015156105c157fe5b90600052602060002090601091828204019190066002029054906101000a90047e0100000000000000000000000000000000000000000000000000000000000002610f5a565b925061061289610873565b915061070d6106508b6002600081548110151561062b57fe5b90600052602060002090602091828204019190069054906101000a900460ff16610720565b620100016005600081548110151561066457fe5b90600052602060002090018054600181600116156101000203166002900480601f0160208091040260200160405190810160405280929190818152602001828054600181600116156101000203166002900480156107035780601f106106d857610100808354040283529160200191610703565b820191906000526020600020905b8154815290600101906020018083116106e657829003601f168201915b505050505061079b565b905060019a505050505050505050505090565b6107286110c0565b81156107925760007f01000000000000000000000000000000000000000000000000000000000000000283600081518110151561076157fe5b9060200101907effffffffffffffffffffffffffffffffffffffffffffffffffffffffffffff1916908160001a9053505b82905092915050565b6107a36110c0565b6107ab6110c0565b60008060006107b86110c0565b86945088519350845192508260208560600101019150816040518059106107dc5750595b9080825280601f01601f19166020018201604052509050826040518059106108015750595b9080825280601f01601f1916602001820160405250955083602082015260206040820152826060820152878460800182015261084289600083606088611067565b610856856000836020886060010187611067565b82602087018360208401600060055af15050505050509392505050565b61087b6110c0565b61012060405190810160405280610100815260200161110b61010091399050919050565b6108a76110c0565b6000806000806000806000806108bb6110c0565b60008060208d015160208f0151189a5060408d015160408f015118995060608d015160608f015118985060808d015160808f015118975060a08d015160a08f015118965060c08d015160c08f015118955060e08d015160e08f01511894506101008d01516101008f01511893506101006040518059106109385750595b9080825280601f01601f1916602001820160405250925060009150600090505b60208110156109e5578a8160208110151561096f57fe5b1a7f01000000000000000000000000000000000000000000000000000000000000000283838151811015156109a057fe5b9060200101907effffffffffffffffffffffffffffffffffffffffffffffffffffffffffffff1916908160001a90535081806001019250508080600101915050610958565b600090505b6020811015610a77578981602081101515610a0157fe5b1a7f0100000000000000000000000000000000000000000000000000000000000000028383815181101515610a3257fe5b9060200101907effffffffffffffffffffffffffffffffffffffffffffffffffffffffffffff1916908160001a905350818060010192505080806001019150506109ea565b600090505b6020811015610b09578881602081101515610a9357fe5b1a7f0100000000000000000000000000000000000000000000000000000000000000028383815181101515610ac457fe5b9060200101907effffffffffffffffffffffffffffffffffffffffffffffffffffffffffffff1916908160001a90535081806001019250508080600101915050610a7c565b600090505b6020811015610b9b578781602081101515610b2557fe5b1a7f0100000000000000000000000000000000000000000000000000000000000000028383815181101515610b5657fe5b9060200101907effffffffffffffffffffffffffffffffffffffffffffffffffffffffffffff1916908160001a90535081806001019250508080600101915050610b0e565b600090505b6020811015610c2d578681602081101515610bb757fe5b1a7f0100000000000000000000000000000000000000000000000000000000000000028383815181101515610be857fe5b9060200101907effffffffffffffffffffffffffffffffffffffffffffffffffffffffffffff1916908160001a90535081806001019250508080600101915050610ba0565b600090505b6020811015610cbf578581602081101515610c4957fe5b1a7f0100000000000000000000000000000000000000000000000000000000000000028383815181101515610c7a57fe5b9060200101907effffffffffffffffffffffffffffffffffffffffffffffffffffffffffffff1916908160001a90535081806001019250508080600101915050610c32565b600090505b6020811015610d51578481602081101515610cdb57fe5b1a7f0100000000000000000000000000000000000000000000000000000000000000028383815181101515610d0c57fe5b9060200101907effffffffffffffffffffffffffffffffffffffffffffffffffffffffffffff1916908160001a90535081806001019250508080600101915050610cc4565b600090505b6020811015610de3578381602081101515610d6d57fe5b1a7f0100000000000000000000000000000000000000000000000000000000000000028383815181101515610d9e57fe5b9060200101907effffffffffffffffffffffffffffffffffffffffffffffffffffffffffffff1916908160001a90535081806001019250508080600101915050610d56565b829b50505050505050505050505092915050565b6000848484846040518085805190602001908083835b602083101515610e325780518252602082019150602081019050602083039250610e0d565b6001836020036101000a03801982511681845116808217855250505050505090500184805190602001908083835b602083101515610e855780518252602082019150602081019050602083039250610e60565b6001836020036101000a038019825116818451168082178552505050505050905001837dffffffffffffffffffffffffffffffffffffffffffffffffffffffffffff19167dffffffffffffffffffffffffffffffffffffffffffffffffffffffffffff1916815260020182805190602001908083835b602083101515610f205780518252602082019150602081019050602083039250610efb565b6001836020036101000a03801982511681845116808217855250505050505090500194505050505060405180910390209050949350505050565b60008383836040518084805190602001908083835b602083101515610f945780518252602082019150602081019050602083039250610f6f565b6001836020036101000a03801982511681845116808217855250505050505090500183805190602001908083835b602083101515610fe75780518252602082019150602081019050602083039250610fc2565b6001836020036101000a038019825116818451168082178552505050505050905001827dffffffffffffffffffffffffffffffffffffffffffffffffffffffffffff19167dffffffffffffffffffffffffffffffffffffffffffffffffffffffffffff191681526002019350505050604051809103902090509392505050565b836020018501945081602001830192505b60208110151561109d5784518352602083019250602085019450602081039050611078565b6001816020036101000a0380198651168185511680821786525050505050505050565b602060405190810160405280600081525090565b6110dd816110fe565b82525050565b60006020820190506110f860008301846110d4565b92915050565b600081151590509190505600c96b966f08643fcb17d438dc949c746817ec9fae47bc4917b5f66c8d55f6902683fb760490ab181af74c0fd52a5bf492e338871e3e209014ad8ca4308569c1b2a7db5bdceb676b7a244565dd466234dde9ec0d3922c8defcff9d348c20e140fc23239ff9d65e9828022f0fb58d804d84a76b527ab4e87e2f83816d158ea18a206195a9d4025b948fd26cbd98c756229d6670c7c461ba68e4dca6bbcbb1ea745019d2bff4728f3b6ff2734e42843c1a548909952aebe5003efe418d315cec58ce6a906e01ba33c11505f79a451fc21d3f50b78719d455e2691e2cf818298879fbe6ea93eca4aa7562834e39eb5835f16aec4427cf8e71d3dcefb62a6bd9fda18ba265627a7a72305820716cdd61e25abe0af337be373072a51828bf0e252907fdff10fba38859ad5a366c6578706572696d656e74616cf50037c96b966f08643fcb17d438dc949c746817ec9fae47bc4917b5f66c8d55f6902683fb760490ab181af74c0fd52a5bf492e338871e3e209014ad8ca4308569c1b2a7db5bdceb676b7a244565dd466234dde9ec0d3922c8defcff9d348c20e140fc23239ff9d65e9828022f0fb58d804d84a76b527ab4e87e2f83816d158ea18a206195a9d4025b948fd26cbd98c756229d6670c7c461ba68e4dca6bbcbb1ea745019d2bff4728f3b6ff2734e42843c1a548909952aebe5003efe418d315cec58ce6a906e01ba33c11505f79a451fc21d3f50b78719d455e2691e2cf818298879fbe6ea93eca4aa7562834e39eb5835f16aec4427cf8e71d3dcefb62a6bd9fda18b",
  "source": "pragma solidity 0.4.21;\npragma experimental ABIEncoderV2;\n\ncontract BGRBig {\n\n    bytes x = hex\"c96b966f08643fcb17d438dc949c746817ec9fae47bc4917b5f66c8d55f6902683fb760490ab181af74c0fd52a5bf492e338871e3e209014ad8ca4308569c1b2a7db5bdceb676b7a244565dd466234dde9ec0d3922c8defcff9d348c20e140fc23239ff9d65e9828022f0fb58d804d84a76b527ab4e87e2f83816d158ea18a206195a9d4025b948fd26cbd98c756229d6670c7c461ba68e4dca6bbcbb1ea745019d2bff4728f3b6ff2734e42843c1a548909952aebe5003efe418d315cec58ce6a906e01ba33c11505f79a451fc21d3f50b78719d455e2691e2cf818298879fbe6ea93eca4aa7562834e39eb5835f16aec4427cf8e71d3dcefb62a6bd9fda18b\";\n    bytes32 h = bytes32(32874016276410785723952341262669264316082375692834943036671182319508755362748);\n\n    bool[] b = [false, false, false];\n    bytes2[] r = [bytes2(55093), bytes2(64784), bytes2(13966)];\n\n    string[] messages = [\n    \"MESSAGE 0\",\n    \"MESSAGE 1\",\n    \"MESSAGE 2\"\n    ];\n\n    //Simulation of PKI\n    uint256 constant e = 65537;\n    string[] moduli = [\n    hex\"c96b966f08643fcb17d438dc949c746817ec9fae47bc4917b5f66c8d55f6902683fb760490ab181af74c0fd52a5bf492e338871e3e209014ad8ca4308569c1b2a7db5bdceb676b7a244565dd466234dde9ec0d3922c8defcff9d348c20e140fc23239ff9d65e9828022f0fb58d804d84a76b527ab4e87e2f83816d158ea18a206195a9d4025b948fd26cbd98c756229d6670c7c461ba68e4dca6bbcbb1ea745019d2bff4728f3b6ff2734e42843c1a548909952aebe5003efe418d315cec58ce6a906e01ba33c11505f79a451fc21d3f50b78719d455e2691e2cf818298879fbe6ea93eca4aa7562834e39eb5835f16aec4427cf8e71d3dcefb62a6bd9fda18b\",\n    hex\"c96b966f08643fcb17d438dc949c746817ec9fae47bc4917b5f66c8d55f6902683fb760490ab181af74c0fd52a5bf492e338871e3e209014ad8ca4308569c1b2a7db5bdceb676b7a244565dd466234dde9ec0d3922c8defcff9d348c20e140fc23239ff9d65e9828022f0fb58d804d84a76b527ab4e87e2f83816d158ea18a206195a9d4025b948fd26cbd98c756229d6670c7c461ba68e4dca6bbcbb1ea745019d2bff4728f3b6ff2734e42843c1a548909952aebe5003efe418d315cec58ce6a906e01ba33c11505f79a451fc21d3f50b78719d455e2691e2cf818298879fbe6ea93eca4aa7562834e39eb5835f16aec4427cf8e71d3dcefb62a6bd9fda18b\",\n    hex\"c96b966f08643fcb17d438dc949c746817ec9fae47bc4917b5f66c8d55f6902683fb760490ab181af74c0fd52a5bf492e338871e3e209014ad8ca4308569c1b2a7db5bdceb676b7a244565dd466234dde9ec0d3922c8defcff9d348c20e140fc23239ff9d65e9828022f0fb58d804d84a76b527ab4e87e2f83816d158ea18a206195a9d4025b948fd26cbd98c756229d6670c7c461ba68e4dca6bbcbb1ea745019d2bff4728f3b6ff2734e42843c1a548909952aebe5003efe418d315cec58ce6a906e01ba33c11505f79a451fc21d3f50b78719d455e2691e2cf818298879fbe6ea93eca4aa7562834e39eb5835f16aec4427cf8e71d3dcefb62a6bd9fda18b\"\n    ];\n\n    /*function test() returns (bytes32) {\n        bytes memory xl = hex\"c96b966f08643fcb17d438dc949c746817ec9fae47bc4917b5f66c8d55f6902683fb760490ab181af74c0fd52a5bf492e338871e3e209014ad8ca4308569c1b2a7db5bdceb676b7a244565dd466234dde9ec0d3922c8defcff9d348c20e140fc23239ff9d65e9828022f0fb58d804d84a76b527ab4e87e2f83816d158ea18a206195a9d4025b948fd26cbd98c756229d6670c7c461ba68e4dca6bbcbb1ea745019d2bff4728f3b6ff2734e42843c1a548909952aebe5003efe418d315cec58ce6a906e01ba33c11505f79a451fc21d3f50b78719d455e2691e2cf818298879fbe6ea93eca4aa7562834e39eb5835f16aec4427cf8e71d3dcefb62a6bd9fda18b\";\n        bytes memory x3 = hex\"c96b946f08643fcb17d438dc949c746817ec9fae47bc4917b5f66c8d55f6902683fb760490ab181af74c0fd52a5bf492e338871e3e209014ad8ca4308569c1b2a7db5bdceb676b7a244565dd466234dde9ec0d3922c8defcff9d348c20e140fc23239ff9d65e9828022f0fb58d804d84a76b527ab4e87e2f83816d158ea18a206195a9d4025b948fd26cbd98c756229d6670c7c461ba68e4dca6bbcbb1ea745019d2bff4728f3b6ff2734e42843c1a548909952aebe5003efe418d315cec58ce6a906e01ba33c11505f79a451fc21d3f50b78719d455e2691e2cf818298879fbe6ea93eca4aa7562834e39eb5835f16aec4427cf8e71d3dcefb62a6bd9fda18b\";\n        return\n    }*/\n\n    //function verify(string[] messages, bytes32 x, bytes32 h, bytes2[] r, bool[] b) returns (bool) {\n    function verify() returns (bool) {\n        bytes memory x_prev = x;\n        bytes32 h_prev = h;\n\n        bytes memory g;\n        bytes memory y;\n        bytes memory X;\n        bytes32 eta;\n\n        for (uint i = moduli.length - 1; i > 0; i--) {\n            //Line 2\n            X = split_inverse(x_prev, b[i]);\n            y = modexp(X, e, moduli[i]);\n\n            //Line 3\n            g = ghash(h_prev);\n            //256 -> 2048\n\n            //Line 4\n            x_prev = xorbytes(g, y);\n\n            //Line 5\n            eta = hhash(moduli[i], messages[i], r[i], x_prev);\n\n            //Line 6\n            h_prev = h_prev ^ eta;\n        }\n\n        //Line 7\n        bytes32 h_hash = hhashbase(moduli[0], messages[0], r[0]);\n        bytes memory g_hash = ghash(h_prev);\n\n        bytes memory pig = modexp(split_inverse(x_prev, b[0]), e, moduli[0]);\n\n        return true;\n        //return g_hash == pig && h_hash == h_prev;\n    }\n\n    function modexp(bytes base, uint exponent, string modulus_str) internal returns (bytes output) {\n        bytes memory modulus = bytes(modulus_str);\n        uint base_length = base.length;\n        uint modulus_length = modulus.length;\n\n        uint size = (32 * 3) + base_length + 32 + modulus_length;\n        bytes memory input = new bytes(size);\n        output = new bytes(modulus_length);\n\n        assembly {\n            mstore(add(input, 32), base_length)\n            mstore(add(input, 64), 32)\n            mstore(add(input, 96), modulus_length)\n\n            mstore(add(input, add(128, base_length)), exponent)\n        }\n\n        memcopy(base, 0, input, 96, base_length);\n        memcopy(modulus, 0, input, 96 + base_length + 32, modulus_length);\n\n        assembly {\n            pop(call(gas(), 5, 0, add(input, 32), size, add(output, 32), modulus_length))\n        }\n    }\n\n    function split_inverse(bytes x, bool b) internal pure returns (bytes) {\n        if (b) {\n            x[0] = byte(0);\n        }\n\n        return x;\n    }\n\n    //not implemented yet\n    function ghash(bytes32 h) internal pure returns (bytes) {\n        return hex\"c96b966f08643fcb17d438dc949c746817ec9fae47bc4917b5f66c8d55f6902683fb760490ab181af74c0fd52a5bf492e338871e3e209014ad8ca4308569c1b2a7db5bdceb676b7a244565dd466234dde9ec0d3922c8defcff9d348c20e140fc23239ff9d65e9828022f0fb58d804d84a76b527ab4e87e2f83816d158ea18a206195a9d4025b948fd26cbd98c756229d6670c7c461ba68e4dca6bbcbb1ea745019d2bff4728f3b6ff2734e42843c1a548909952aebe5003efe418d315cec58ce6a906e01ba33c11505f79a451fc21d3f50b78719d455e2691e2cf818298879fbe6ea93eca4aa7562834e39eb5835f16aec4427cf8e71d3dcefb62a6bd9fda18b\";\n    }\n\n    function cut(bytes x) internal pure returns (bytes32 part1, bytes32 part2, bytes32 part3, bytes32 part4, bytes32 part5, bytes32 part6, bytes32 part7, bytes32 part8) {\n\n        assembly {\n            part1 := mload(add(x, 32))\n            part2 := mload(add(x, 64))\n            part3 := mload(add(x, 96))\n            part4 := mload(add(x, 128))\n            part5 := mload(add(x, 160))\n            part6 := mload(add(x, 192))\n            part7 := mload(add(x, 224))\n            part8 := mload(add(x, 256))\n        }\n    }\n\n    function xorbytes(bytes a, bytes b) internal pure returns (bytes) {\n        bytes32 c1;\n        bytes32 c2;\n        bytes32 c3;\n        bytes32 c4;\n        bytes32 c5;\n        bytes32 c6;\n        bytes32 c7;\n        bytes32 c8;\n\n        assembly {\n            c1 := xor(mload(add(a, 32)), mload(add(b, 32)))\n            c2 := xor(mload(add(a, 64)), mload(add(b, 64)))\n            c3 := xor(mload(add(a, 96)), mload(add(b, 96)))\n            c4 := xor(mload(add(a, 128)), mload(add(b, 128)))\n            c5 := xor(mload(add(a, 160)), mload(add(b, 160)))\n            c6 := xor(mload(add(a, 192)), mload(add(b, 192)))\n            c7 := xor(mload(add(a, 224)), mload(add(b, 224)))\n            c8 := xor(mload(add(a, 256)), mload(add(b, 256)))\n        }\n\n        bytes memory merged = new bytes(256);\n\n        uint k = 0;\n\n        for (uint i = 0; i < 32; i++) {\n            merged[k] = c1[i];\n            k++;\n        }\n\n       for (i = 0; i < 32; i++) {\n            merged[k] = c2[i];\n            k++;\n       }\n\n        for (i = 0; i < 32; i++) {\n            merged[k] = c3[i];\n            k++;\n        }\n\n        for (i = 0; i < 32; i++) {\n            merged[k] = c4[i];\n            k++;\n        }\n\n        for (i = 0; i < 32; i++) {\n            merged[k] = c5[i];\n            k++;\n        }\n\n        for (i = 0; i < 32; i++) {\n            merged[k] = c6[i];\n            k++;\n        }\n\n        for (i = 0; i < 32; i++) {\n            merged[k] = c7[i];\n            k++;\n        }\n\n        for (i = 0; i < 32; i++) {\n            merged[k] = c8[i];\n            k++;\n        }\n\n        return merged;\n    }\n\n    function hhash(string modulus, string message, bytes2 random, bytes x_prev) internal pure returns (bytes32) {\n        return keccak256(modulus, message, random, x_prev);\n    }\n\n    function hhashbase(string modulus, string message, bytes2 random) internal pure returns (bytes32) {\n        return keccak256(modulus, message, random);\n    }\n\n    function memcopy(bytes src, uint srcoffset, bytes dst, uint dstoffset, uint len) pure internal {\n        assembly {\n            src := add(src, add(32, srcoffset))\n            dst := add(dst, add(32, dstoffset))\n\n        // copy 32 bytes at once\n            for\n            {}\n            iszero(lt(len, 32))\n            {\n                dst := add(dst, 32)\n                src := add(src, 32)\n                len := sub(len, 32)\n            }\n            {mstore(dst, mload(src))}\n\n        // copy the remainder (0 < len < 32)\n            let mask := sub(exp(256, sub(32, len)), 1)\n            let srcpart := and(mload(src), not(mask))\n            let dstpart := and(mload(dst), mask)\n            mstore(dst, or(srcpart, dstpart))\n        }\n    }\n\n}\n",
  "sourcePath": "/home/bjorn/Projects/BGRVerify/contracts/BGRBig.sol",
  "compiler": {
    "name": "solc",
    "version": "0.4.21+commit.dfe3193c.Emscripten.clang"
  },
  "schemaVersion": "2.0.0",
  "updatedAt": "2018-06-02T19:40:29.352Z"
}