{
  "contractName": "BGRBig",
  "abi": [
    {
      "constant": false,
      "inputs": [],
      "name": "test",
      "outputs": [
        {
          "name": "",
          "type": "bytes"
        }
      ],
      "payable": false,
      "stateMutability": "nonpayable",
      "type": "function"
    },
    {
      "constant": false,
      "inputs": [],
      "name": "verify",
      "outputs": [
        {
          "name": "",
          "type": "bool"
        }
      ],
      "payable": false,
      "stateMutability": "nonpayable",
      "type": "function"
    }
  ],
  "bytecode": "0x606060405261012060405190810160405280610100815260200162001b4061010091396000908051906020019062000039929190620002ab565b507f4cc76a324d0a71454c8b35a3712135cd9fea0f6bf48e6eb0d65cc0f28c622e2f600102600190600019169055606060405190810160405280600015151515815260200160001515151581526020016000151515158152506002906003620000a492919062000332565b5060408051908101604052806f13caffeacb03e2a568df62c54f0a0517700100000000000000000000000000000000026fffffffffffffffffffffffffffffffff19166fffffffffffffffffffffffffffffffff191681526020016f51253e8efe5bf3ca33f17c05aa4e27a2700100000000000000000000000000000000026fffffffffffffffffffffffffffffffff19166fffffffffffffffffffffffffffffffff191681525060039060026200015e929190620003df565b506060604051908101604052806040805190810160405280600981526020017f4d4553534147452030000000000000000000000000000000000000000000000081525081526020016040805190810160405280600981526020017f4d4553534147452031000000000000000000000000000000000000000000000081525081526020016040805190810160405280600981526020017f4d4553534147452032000000000000000000000000000000000000000000000081525081525060049060036200022c929190620004bc565b5061012060405190810160405280610100815260200162001c4061010091396005908051906020019062000262929190620002ab565b5061012060405190810160405280610100815260200162001d4061010091396006908051906020019062000298929190620002ab565b503415620002a557600080fd5b620006c4565b828054600181600116156101000203166002900490600052602060002090601f016020900481019282601f10620002ee57805160ff19168380011785556200031f565b828001600101855582156200031f579182015b828111156200031e57825182559160200191906001019062000301565b5b5090506200032e919062000523565b5090565b82805482825590600052602060002090601f01602090048101928215620003cc5791602002820160005b838211156200039b57835183826101000a81548160ff02191690831515021790555092602001926001016020816000010492830192600103026200035c565b8015620003ca5782816101000a81549060ff02191690556001016020816000010492830192600103026200039b565b505b509050620003db91906200054b565b5090565b82805482825590600052602060002090600101600290048101928215620004a95791602002820160005b838211156200046957835183826101000a8154816fffffffffffffffffffffffffffffffff0219169083700100000000000000000000000000000000900402179055509260200192601001602081600f0104928301926001030262000409565b8015620004a75782816101000a8154906fffffffffffffffffffffffffffffffff0219169055601001602081600f0104928301926001030262000469565b505b509050620004b891906200057e565b5090565b82805482825590600052602060002090810192821562000510579160200282015b828111156200050f578251829080519060200190620004fe929190620005c0565b5091602001919060010190620004dd565b5b5090506200051f919062000647565b5090565b6200054891905b80821115620005445760008160009055506001016200052a565b5090565b90565b6200057b91905b808211156200057757600081816101000a81549060ff02191690555060010162000552565b5090565b90565b620005bd91905b80821115620005b957600081816101000a8154906fffffffffffffffffffffffffffffffff02191690555060010162000585565b5090565b90565b828054600181600116156101000203166002900490600052602060002090601f016020900481019282601f106200060357805160ff191683800117855562000634565b8280016001018555821562000634579182015b828111156200063357825182559160200191906001019062000616565b5b50905062000643919062000523565b5090565b6200067591905b8082111562000671576000818162000667919062000678565b506001016200064e565b5090565b90565b50805460018160011615610100020316600290046000825580601f10620006a05750620006c1565b601f016020900490600052602060002090810190620006c0919062000523565b5b50565b61146c80620006d46000396000f30060606040526004361061004c576000357c0100000000000000000000000000000000000000000000000000000000900463ffffffff168063f8a8fd6d14610051578063fc735e991461007a575b600080fd5b341561005c57600080fd5b6100646100a3565b60405161007191906112b5565b60405180910390f35b341561008557600080fd5b61008d610198565b60405161009a919061129a565b60405180910390f35b6100ab611241565b60006100b5611241565b60006001546040518082600019166000191681526020019150506040518091039020925061012060405190810160405280610100815260200161133361010091399150602090505b61010081101561018f578260208281151561011457fe5b0660208110151561012157fe5b1a7f010000000000000000000000000000000000000000000000000000000000000002828281518110151561015257fe5b9060200101907effffffffffffffffffffffffffffffffffffffffffffffffffffffffffffff1916908160001a90535080806001019150506100fd565b81935050505090565b60006101a2611241565b60006101ac611241565b6101b4611241565b6101bc611241565b60008060006101c9611241565b6101d1611241565b60008054600181600116156101000203166002900480601f0160208091040260200160405190810160405280929190818152602001828054600181600116156101000203166002900480156102675780601f1061023c57610100808354040283529160200191610267565b820191906000526020600020905b81548152906001019060200180831161024a57829003601f168201915b505050505099506001549850600193505b600084111561052a576102b98a60028681548110151561029457fe5b90600052602060002090602091828204019190069054906101000a900460ff166107df565b9550610363866201000160068054600181600116156101000203166002900480601f0160208091040260200160405190810160405280929190818152602001828054600181600116156101000203166002900480156103595780601f1061032e57610100808354040283529160200191610359565b820191906000526020600020905b81548152906001019060200180831161033c57829003601f168201915b505050505061085a565b965061036e89610926565b975061037a8888610a1b565b995061051560068054600181600116156101000203166002900480601f0160208091040260200160405190810160405280929190818152602001828054600181600116156101000203166002900480156104155780601f106103ea57610100808354040283529160200191610415565b820191906000526020600020905b8154815290600101906020018083116103f857829003601f168201915b505050505060048681548110151561042957fe5b90600052602060002090018054600181600116156101000203166002900480601f0160208091040260200160405190810160405280929190818152602001828054600181600116156101000203166002900480156104c85780601f1061049d576101008083540402835291602001916104c8565b820191906000526020600020905b8154815290600101906020018083116104ab57829003601f168201915b50505050506003878154811015156104dc57fe5b90600052602060002090600291828204019190066010029054906101000a9004700100000000000000000000000000000000028d610f73565b94508489189850838060019003945050610278565b6106c460058054600181600116156101000203166002900480601f0160208091040260200160405190810160405280929190818152602001828054600181600116156101000203166002900480156105c35780601f10610598576101008083540402835291602001916105c3565b820191906000526020600020905b8154815290600101906020018083116105a657829003601f168201915b5050505050600460008154811015156105d857fe5b90600052602060002090018054600181600116156101000203166002900480601f0160208091040260200160405190810160405280929190818152602001828054600181600116156101000203166002900480156106775780601f1061064c57610100808354040283529160200191610677565b820191906000526020600020905b81548152906001019060200180831161065a57829003601f168201915b50505050506003600081548110151561068c57fe5b90600052602060002090600291828204019190066010029054906101000a9004700100000000000000000000000000000000026110ba565b92506106cf89610926565b91506107b161070d8b600260008154811015156106e857fe5b90600052602060002090602091828204019190069054906101000a900460ff166107df565b6201000160058054600181600116156101000203166002900480601f0160208091040260200160405190810160405280929190818152602001828054600181600116156101000203166002900480156107a75780601f1061077c576101008083540402835291602001916107a7565b820191906000526020600020905b81548152906001019060200180831161078a57829003601f168201915b505050505061085a565b9050886000191683600019161480156107d057506107cf82826111ab565b5b9a505050505050505050505090565b6107e7611241565b81156108515760007f01000000000000000000000000000000000000000000000000000000000000000283600081518110151561082057fe5b9060200101907effffffffffffffffffffffffffffffffffffffffffffffffffffffffffffff1916908160001a9053505b82905092915050565b610862611241565b600080600061086f611241565b87519350855192508260208560600101019150816040518059106108905750595b9080825280601f01601f19166020018201604052509050826040518059106108b55750595b9080825280601f01601f191660200182016040525094508360208201526020604082015282606082015286846080018201526108f6886000836060886111e8565b61090a8660008360208860600101876111e8565b82602086018360208401600060055af150505050509392505050565b61092e611241565b6000610938611241565b6000846040518082600019166000191681526020019150506040518091039020925061012060405190810160405280610100815260200161133361010091399150602090505b610100811015610a10578260208281151561099557fe5b066020811015156109a257fe5b1a7f01000000000000000000000000000000000000000000000000000000000000000282828151811015156109d357fe5b9060200101907effffffffffffffffffffffffffffffffffffffffffffffffffffffffffffff1916908160001a905350808060010191505061097e565b819350505050919050565b610a23611241565b600080600080600080600080610a37611241565b60008060208d015160208f0151189a5060408d015160408f015118995060608d015160608f015118985060808d015160808f015118975060a08d015160a08f015118965060c08d015160c08f015118955060e08d015160e08f01511894506101008d01516101008f0151189350610100604051805910610ab45750595b9080825280601f01601f1916602001820160405250925060009150600090505b6020811015610b61578a81602081101515610aeb57fe5b1a7f0100000000000000000000000000000000000000000000000000000000000000028383815181101515610b1c57fe5b9060200101907effffffffffffffffffffffffffffffffffffffffffffffffffffffffffffff1916908160001a90535081806001019250508080600101915050610ad4565b600090505b6020811015610bf3578981602081101515610b7d57fe5b1a7f0100000000000000000000000000000000000000000000000000000000000000028383815181101515610bae57fe5b9060200101907effffffffffffffffffffffffffffffffffffffffffffffffffffffffffffff1916908160001a90535081806001019250508080600101915050610b66565b600090505b6020811015610c85578881602081101515610c0f57fe5b1a7f0100000000000000000000000000000000000000000000000000000000000000028383815181101515610c4057fe5b9060200101907effffffffffffffffffffffffffffffffffffffffffffffffffffffffffffff1916908160001a90535081806001019250508080600101915050610bf8565b600090505b6020811015610d17578781602081101515610ca157fe5b1a7f0100000000000000000000000000000000000000000000000000000000000000028383815181101515610cd257fe5b9060200101907effffffffffffffffffffffffffffffffffffffffffffffffffffffffffffff1916908160001a90535081806001019250508080600101915050610c8a565b600090505b6020811015610da9578681602081101515610d3357fe5b1a7f0100000000000000000000000000000000000000000000000000000000000000028383815181101515610d6457fe5b9060200101907effffffffffffffffffffffffffffffffffffffffffffffffffffffffffffff1916908160001a90535081806001019250508080600101915050610d1c565b600090505b6020811015610e3b578581602081101515610dc557fe5b1a7f0100000000000000000000000000000000000000000000000000000000000000028383815181101515610df657fe5b9060200101907effffffffffffffffffffffffffffffffffffffffffffffffffffffffffffff1916908160001a90535081806001019250508080600101915050610dae565b600090505b6020811015610ecd578481602081101515610e5757fe5b1a7f0100000000000000000000000000000000000000000000000000000000000000028383815181101515610e8857fe5b9060200101907effffffffffffffffffffffffffffffffffffffffffffffffffffffffffffff1916908160001a90535081806001019250508080600101915050610e40565b600090505b6020811015610f5f578381602081101515610ee957fe5b1a7f0100000000000000000000000000000000000000000000000000000000000000028383815181101515610f1a57fe5b9060200101907effffffffffffffffffffffffffffffffffffffffffffffffffffffffffffff1916908160001a90535081806001019250508080600101915050610ed2565b829b50505050505050505050505092915050565b6000848484846040518085805190602001908083835b602083101515610fae5780518252602082019150602081019050602083039250610f89565b6001836020036101000a03801982511681845116808217855250505050505090500184805190602001908083835b6020831015156110015780518252602082019150602081019050602083039250610fdc565b6001836020036101000a038019825116818451168082178552505050505050905001836fffffffffffffffffffffffffffffffff19166fffffffffffffffffffffffffffffffff1916815260100182805190602001908083835b602083101515611080578051825260208201915060208101905060208303925061105b565b6001836020036101000a03801982511681845116808217855250505050505090500194505050505060405180910390209050949350505050565b60008383836040518084805190602001908083835b6020831015156110f457805182526020820191506020810190506020830392506110cf565b6001836020036101000a03801982511681845116808217855250505050505090500183805190602001908083835b6020831015156111475780518252602082019150602081019050602083039250611122565b6001836020036101000a038019825116818451168082178552505050505050905001826fffffffffffffffffffffffffffffffff19166fffffffffffffffffffffffffffffffff191681526010019350505050604051809103902090509392505050565b600080600080845186511415156111c557600093506111df565b855190506020860192506020850191508082208184201493505b50505092915050565b836020018501945081602001830192505b60208110151561121e57845183526020830192506020850194506020810390506111f9565b6001816020036101000a0380198651168185511680821786525050505050505050565b602060405190810160405280600081525090565b61125e816112e2565b82525050565b600061126f826112d7565b8084526112838160208601602086016112ee565b61128c81611321565b602085010191505092915050565b60006020820190506112af6000830184611255565b92915050565b600060208201905081810360008301526112cf8184611264565b905092915050565b600081519050919050565b60008115159050919050565b60005b8381101561130c5780820151818401526020810190506112f1565b8381111561131b576000848401525b50505050565b6000601f19601f8301169050919050560000000000000000000000000000000000000000000000000000000000000000000000000000000000000000000000000000000000000000000000000000000000000000000000000000000000000000000000000000000000000000000000000000000000000000000000000000000000000000000000000000000000000000000000000000000000000000000000000000000000000000000000000000000000000000000000000000000000000000000000000000000000000000000000000000000000000000000000000000000000000000000000000000000000000000000000000000000000000000000000000000000000000000000000000000000000a265627a7a72305820252815141814ffb5d1f4eb4fb78571837f5891cfb762e312c587e974ebe09f336c6578706572696d656e74616cf500370a6b001601d88e4ef03dce9243eb59c0980c707f1056b025af99c68918167697cd486b818e3bda3a6421cd66e5bc5743bf3bc1db6dd41026720740bc78465b5b3b20f489dd2f993371e6a09ad86db50256df8d14856dc3bb8448f23f7995334b0721ac307d6673fad215d3f7ece97949cd083c598f8cf7beb557fd51f73a262aac5f71682280301340b6d5137d5f52cf0531ea4322d583f7e6bd338393570411645e7bf76bc4b9a9a8eb8324f05a62275066455a7e33b1659cfcb80771fceb3bb560a8b966f2cd0996eccd77f8904d6ea65642e9c59b7fafe42a7df190e9770018fe54a6db71074f4e1fdd834eff5273d7c57c1e4273158e87ff880557a14c08d2264650bddeeb673c103af54ea8427b10f9ae12174168216ddb611b0c2e07c8d35fa3a8e110102a50183006d085925adeb6c3d8e234407601d098e5cef3649eebabcb55eebe4b2a7cb79278de0fcf5f6f93379a7ad631d1962fbd7166e9a4722c453ffcfacc7e69f9049e144d5d4a7f486fa7beb68afaf710633ea77b40f75ecc29f9a94594b89368de81cc6381f5054131e546634ebe2943b588344be75907817d5d6b46240c2e7be86e3fc8993209a05ac47d0e48a160c0c9cd0e0ef3e45ac8324d77d6772be05834ca05e9d60997af9a4042619b2afcd81299cd85ce0f43a8892fe0b027ec82c152f20a3ae43b0fb754c6d94cf622abfc3fdbbc30ed9117d80e31c5ccb3ed3661803eedb1bc701f3726b4628c66098d7c7ec0ec39645f8c0c50fb166160ed9ede5074cff7040082590994bf599f04976d7792ee5b47f5a89318fc8ed290eb8cd754861107ca4030ff7618294cef4a8bcbcc8cc5e6ea590ee96a2b196827ae9aab14a64d2f6a2315cf329d43778339d2e3788ee125ed25a6dbc52f505749fa7329e96e228270aa1ca6ac659c91fc3383116f85b107c86e2ba5099c100ec77717beda0c1bc645a1e070a0bcfecb56c042d76a072880957ae0c9b6786ca074527eacbb2b936571d4fa17345b0e277eae2fb767afb6b7917648262916e8a956b0b64db3cc25c01d69bd03e0836de169f7f3f0771081fc001377",
  "source": "pragma solidity 0.4.21;\npragma experimental ABIEncoderV2;\n\ncontract BGRBig {\n\n    bytes x = hex\"0a6b001601d88e4ef03dce9243eb59c0980c707f1056b025af99c68918167697cd486b818e3bda3a6421cd66e5bc5743bf3bc1db6dd41026720740bc78465b5b3b20f489dd2f993371e6a09ad86db50256df8d14856dc3bb8448f23f7995334b0721ac307d6673fad215d3f7ece97949cd083c598f8cf7beb557fd51f73a262aac5f71682280301340b6d5137d5f52cf0531ea4322d583f7e6bd338393570411645e7bf76bc4b9a9a8eb8324f05a62275066455a7e33b1659cfcb80771fceb3bb560a8b966f2cd0996eccd77f8904d6ea65642e9c59b7fafe42a7df190e9770018fe54a6db71074f4e1fdd834eff5273d7c57c1e4273158e87ff880557a14c08\";\n    bytes32 h = bytes32(34728111999442579394121245794230435665718566430100006988781986548790054759983);\n\n    bool[] b = [false, false, false];\n    bytes16[] r = [bytes16(26309366502006550357235258682065421591), bytes16(107860851480858833765813351312914261922)];\n\n    string[] messages = [\n    \"MESSAGE 0\",\n    \"MESSAGE 1\",\n    \"MESSAGE 2\"\n    ];\n\n    //Simulation of PKI\n    uint256 constant e = 65537;\n    bytes modulus0 = hex\"d2264650bddeeb673c103af54ea8427b10f9ae12174168216ddb611b0c2e07c8d35fa3a8e110102a50183006d085925adeb6c3d8e234407601d098e5cef3649eebabcb55eebe4b2a7cb79278de0fcf5f6f93379a7ad631d1962fbd7166e9a4722c453ffcfacc7e69f9049e144d5d4a7f486fa7beb68afaf710633ea77b40f75ecc29f9a94594b89368de81cc6381f5054131e546634ebe2943b588344be75907817d5d6b46240c2e7be86e3fc8993209a05ac47d0e48a160c0c9cd0e0ef3e45ac8324d77d6772be05834ca05e9d60997af9a4042619b2afcd81299cd85ce0f43a8892fe0b027ec82c152f20a3ae43b0fb754c6d94cf622abfc3fdbbc30ed9117\";\n    bytes modulus1 = hex\"d80e31c5ccb3ed3661803eedb1bc701f3726b4628c66098d7c7ec0ec39645f8c0c50fb166160ed9ede5074cff7040082590994bf599f04976d7792ee5b47f5a89318fc8ed290eb8cd754861107ca4030ff7618294cef4a8bcbcc8cc5e6ea590ee96a2b196827ae9aab14a64d2f6a2315cf329d43778339d2e3788ee125ed25a6dbc52f505749fa7329e96e228270aa1ca6ac659c91fc3383116f85b107c86e2ba5099c100ec77717beda0c1bc645a1e070a0bcfecb56c042d76a072880957ae0c9b6786ca074527eacbb2b936571d4fa17345b0e277eae2fb767afb6b7917648262916e8a956b0b64db3cc25c01d69bd03e0836de169f7f3f0771081fc001377\";\n\n    function test() returns (bytes) {\n        bytes32 hash = keccak256(h);\n        bytes memory res = hex\"00000000000000000000000000000000000000000000000000000000000000000000000000000000000000000000000000000000000000000000000000000000000000000000000000000000000000000000000000000000000000000000000000000000000000000000000000000000000000000000000000000000000000000000000000000000000000000000000000000000000000000000000000000000000000000000000000000000000000000000000000000000000000000000000000000000000000000000000000000000000000000000000000000000000000000000000000000000000000000000000000000000000000000000000000000000\";\n\n        for(uint i = 32; i < 256; i++) {\n            res[i] = hash[i % 32];\n        }\n\n        return res;\n    }\n\n    function verify() returns (bool) {\n        bytes memory x_prev = x;\n        bytes32 h_prev = h;\n\n        bytes memory g;\n        bytes memory y;\n        bytes memory X;\n        bytes32 eta;\n\n        for (uint i = 1; i > 0; i--) { //moduli.length - 1\n            //Line 2\n            X = split_inverse(x_prev, b[i]);\n            y = modexp(X, e, modulus1);\n\n            //Line 3\n            g = ghash(h_prev);\n\n            //Line 4\n            x_prev = xorbytes(g, y);\n\n            //Line 5\n            eta = hhash(modulus1, messages[i], r[i], x_prev);\n\n            //Line 6\n            h_prev = h_prev ^ eta;\n        }\n\n        //Line 7\n        bytes32 h_hash = hhashbase(modulus0, messages[0], r[0]);\n        bytes memory g_hash = ghash(h_prev);\n\n        bytes memory pig = modexp(split_inverse(x_prev, b[0]), e, modulus0);\n\n        return h_hash == h_prev && equals(g_hash, pig);\n    }\n\n    function modexp(bytes base, uint exponent, bytes modulus) internal returns (bytes output) {\n        //bytes memory modulus = bytes(modulus_str);\n        uint base_length = base.length;\n        uint modulus_length = modulus.length;\n\n        uint size = (32 * 3) + base_length + 32 + modulus_length;\n        bytes memory input = new bytes(size);\n        output = new bytes(modulus_length);\n\n        assembly {\n            mstore(add(input, 32), base_length)\n            mstore(add(input, 64), 32)\n            mstore(add(input, 96), modulus_length)\n\n            mstore(add(input, add(128, base_length)), exponent)\n        }\n\n        memcopy(base, 0, input, 96, base_length);\n        memcopy(modulus, 0, input, 96 + base_length + 32, modulus_length);\n\n        assembly {\n            pop(call(gas(), 5, 0, add(input, 32), size, add(output, 32), modulus_length))\n        }\n    }\n\n    function split_inverse(bytes xi, bool bi) internal pure returns (bytes) {\n        if (bi) {\n            xi[0] = byte(0);\n        }\n\n        return xi;\n    }\n\n    function ghash(bytes32 y) internal pure returns (bytes) {\n        bytes32 hash = keccak256(y);\n        bytes memory res = hex\"00000000000000000000000000000000000000000000000000000000000000000000000000000000000000000000000000000000000000000000000000000000000000000000000000000000000000000000000000000000000000000000000000000000000000000000000000000000000000000000000000000000000000000000000000000000000000000000000000000000000000000000000000000000000000000000000000000000000000000000000000000000000000000000000000000000000000000000000000000000000000000000000000000000000000000000000000000000000000000000000000000000000000000000000000000000\";\n\n        for(uint i = 32; i < 256; i++) {\n            res[i] = hash[i % 32];\n        }\n\n        return res;\n    }\n\n    function cut(bytes i) internal pure returns (bytes32 part1, bytes32 part2, bytes32 part3, bytes32 part4, bytes32 part5, bytes32 part6, bytes32 part7, bytes32 part8) {\n\n        assembly {\n            part1 := mload(add(i, 32))\n            part2 := mload(add(i, 64))\n            part3 := mload(add(i, 96))\n            part4 := mload(add(i, 128))\n            part5 := mload(add(i, 160))\n            part6 := mload(add(i, 192))\n            part7 := mload(add(i, 224))\n            part8 := mload(add(i, 256))\n        }\n    }\n\n    function xorbytes(bytes a, bytes y) internal pure returns (bytes) {\n        bytes32 c1;\n        bytes32 c2;\n        bytes32 c3;\n        bytes32 c4;\n        bytes32 c5;\n        bytes32 c6;\n        bytes32 c7;\n        bytes32 c8;\n\n        assembly {\n            c1 := xor(mload(add(a, 32)), mload(add(y, 32)))\n            c2 := xor(mload(add(a, 64)), mload(add(y, 64)))\n            c3 := xor(mload(add(a, 96)), mload(add(y, 96)))\n            c4 := xor(mload(add(a, 128)), mload(add(y, 128)))\n            c5 := xor(mload(add(a, 160)), mload(add(y, 160)))\n            c6 := xor(mload(add(a, 192)), mload(add(y, 192)))\n            c7 := xor(mload(add(a, 224)), mload(add(y, 224)))\n            c8 := xor(mload(add(a, 256)), mload(add(y, 256)))\n        }\n\n        bytes memory merged = new bytes(256);\n\n        uint k = 0;\n\n        for (uint i = 0; i < 32; i++) {\n            merged[k] = c1[i];\n            k++;\n        }\n\n        for (i = 0; i < 32; i++) {\n            merged[k] = c2[i];\n            k++;\n        }\n\n        for (i = 0; i < 32; i++) {\n            merged[k] = c3[i];\n            k++;\n        }\n\n        for (i = 0; i < 32; i++) {\n            merged[k] = c4[i];\n            k++;\n        }\n\n        for (i = 0; i < 32; i++) {\n            merged[k] = c5[i];\n            k++;\n        }\n\n        for (i = 0; i < 32; i++) {\n            merged[k] = c6[i];\n            k++;\n        }\n\n        for (i = 0; i < 32; i++) {\n            merged[k] = c7[i];\n            k++;\n        }\n\n        for (i = 0; i < 32; i++) {\n            merged[k] = c8[i];\n            k++;\n        }\n\n        return merged;\n    }\n\n    function hhash(bytes modulus, string message, bytes16 random, bytes x_prev) internal pure returns (bytes32) {\n        return keccak256(modulus, message, random, x_prev);\n    }\n\n    function hhashbase(bytes modulus, string message, bytes16 random) internal pure returns (bytes32) {\n        return keccak256(modulus, message, random);\n    }\n\n    function memcopy(bytes src, uint srcoffset, bytes dst, uint dstoffset, uint len) pure internal {\n        assembly {\n            src := add(src, add(32, srcoffset))\n            dst := add(dst, add(32, dstoffset))\n\n        // copy 32 bytes at once\n            for\n            {}\n            iszero(lt(len, 32))\n            {\n                dst := add(dst, 32)\n                src := add(src, 32)\n                len := sub(len, 32)\n            }\n            {mstore(dst, mload(src))}\n\n        // copy the remainder (0 < len < 32)\n            let mask := sub(exp(256, sub(32, len)), 1)\n            let srcpart := and(mload(src), not(mask))\n            let dstpart := and(mload(dst), mask)\n            mstore(dst, or(srcpart, dstpart))\n        }\n    }\n\n    function equals(bytes memory self, bytes memory other) internal pure returns (bool equal) {\n        if (self.length != other.length) {\n            return false;\n        }\n\n        uint addr;\n        uint addr2;\n        uint len = self.length;\n\n        assembly {\n            addr := add(self, /*BYTES_HEADER_SIZE*/32)\n            addr2 := add(other, /*BYTES_HEADER_SIZE*/32)\n            equal := eq(keccak256(addr, len), keccak256(addr2, len))\n        }\n    }\n\n}\n",
  "sourcePath": "/home/bjorn/Projects/BGRVerify/contracts/BGRBig.sol",
  "compiler": {
    "name": "solc",
    "version": "0.4.21+commit.dfe3193c.Emscripten.clang"
  },
  "schemaVersion": "2.0.0",
  "updatedAt": "2018-06-03T14:46:06.365Z"
}