{
  "contractName": "BGRBig",
  "abi": [
    {
      "constant": false,
      "inputs": [],
      "name": "test",
      "outputs": [
        {
          "name": "",
          "type": "bytes"
        }
      ],
      "payable": false,
      "stateMutability": "nonpayable",
      "type": "function"
    },
    {
      "constant": false,
      "inputs": [],
      "name": "verify",
      "outputs": [
        {
          "name": "",
          "type": "bool"
        }
      ],
      "payable": false,
      "stateMutability": "nonpayable",
      "type": "function"
    }
  ],
  "bytecode": "0x6060604052610120604051908101604052806101008152602001620012456101009139600090805190602001906200003992919062000227565b507f6fa18b938c816e789956511dbc7790d378a8ac01d37273dba209f1a0061ed2a7600102600190600019169055606060405190810160405280600015151515815260200160001515151581526020016000151515158152506002906003620000a4929190620002ae565b506020604051908101604052806fbfe2092e3cb6f636329f96caabbfcc0e700100000000000000000000000000000000026fffffffffffffffffffffffffffffffff19166fffffffffffffffffffffffffffffffff19168152506003906001620001109291906200035b565b506060604051908101604052806040805190810160405280600981526020017f4d4553534147452030000000000000000000000000000000000000000000000081525081526020016040805190810160405280600981526020017f4d4553534147452031000000000000000000000000000000000000000000000081525081526020016040805190810160405280600981526020017f4d455353414745203200000000000000000000000000000000000000000000008152508152506004906003620001de92919062000438565b50610120604051908101604052806101008152602001620011456101009139600590805190602001906200021492919062000227565b5034156200022157600080fd5b62000640565b828054600181600116156101000203166002900490600052602060002090601f016020900481019282601f106200026a57805160ff19168380011785556200029b565b828001600101855582156200029b579182015b828111156200029a5782518255916020019190600101906200027d565b5b509050620002aa91906200049f565b5090565b82805482825590600052602060002090601f01602090048101928215620003485791602002820160005b838211156200031757835183826101000a81548160ff0219169083151502179055509260200192600101602081600001049283019260010302620002d8565b8015620003465782816101000a81549060ff021916905560010160208160000104928301926001030262000317565b505b509050620003579190620004c7565b5090565b82805482825590600052602060002090600101600290048101928215620004255791602002820160005b83821115620003e557835183826101000a8154816fffffffffffffffffffffffffffffffff0219169083700100000000000000000000000000000000900402179055509260200192601001602081600f0104928301926001030262000385565b8015620004235782816101000a8154906fffffffffffffffffffffffffffffffff0219169055601001602081600f01049283019260010302620003e5565b505b509050620004349190620004fa565b5090565b8280548282559060005260206000209081019282156200048c579160200282015b828111156200048b5782518290805190602001906200047a9291906200053c565b509160200191906001019062000459565b5b5090506200049b9190620005c3565b5090565b620004c491905b80821115620004c0576000816000905550600101620004a6565b5090565b90565b620004f791905b80821115620004f357600081816101000a81549060ff021916905550600101620004ce565b5090565b90565b6200053991905b808211156200053557600081816101000a8154906fffffffffffffffffffffffffffffffff02191690555060010162000501565b5090565b90565b828054600181600116156101000203166002900490600052602060002090601f016020900481019282601f106200057f57805160ff1916838001178555620005b0565b82800160010185558215620005b0579182015b82811115620005af57825182559160200191906001019062000592565b5b509050620005bf91906200049f565b5090565b620005f191905b80821115620005ed5760008181620005e39190620005f4565b50600101620005ca565b5090565b90565b50805460018160011615610100020316600290046000825580601f106200061c57506200063d565b601f0160209004906000526020600020908101906200063c91906200049f565b5b50565b610af580620006506000396000f30060606040526004361061004c576000357c0100000000000000000000000000000000000000000000000000000000900463ffffffff168063f8a8fd6d14610051578063fc735e991461007a575b600080fd5b341561005c57600080fd5b6100646100a3565b604051610071919061093e565b60405180910390f35b341561008557600080fd5b61008d610198565b60405161009a9190610923565b60405180910390f35b6100ab6108ca565b60006100b56108ca565b6000600154604051808260001916600019168152602001915050604051809103902092506101206040519081016040528061010081526020016109bc61010091399150602090505b61010081101561018f578260208281151561011457fe5b0660208110151561012157fe5b1a7f010000000000000000000000000000000000000000000000000000000000000002828281518110151561015257fe5b9060200101907effffffffffffffffffffffffffffffffffffffffffffffffffffffffffffff1916908160001a90535080806001019150506100fd565b81935050505090565b60006101a26108ca565b6000806101ad6108ca565b6101b56108ca565b60008054600181600116156101000203166002900480601f01602080910402602001604051908101604052809291908181526020018280546001816001161561010002031660029004801561024b5780601f106102205761010080835404028352916020019161024b565b820191906000526020600020905b81548152906001019060200180831161022e57829003601f168201915b5050505050945060015493506103f160058054600181600116156101000203166002900480601f0160208091040260200160405190810160405280929190818152602001828054600181600116156101000203166002900480156102f05780601f106102c5576101008083540402835291602001916102f0565b820191906000526020600020905b8154815290600101906020018083116102d357829003601f168201915b50505050506004600081548110151561030557fe5b90600052602060002090018054600181600116156101000203166002900480601f0160208091040260200160405190810160405280929190818152602001828054600181600116156101000203166002900480156103a45780601f10610379576101008083540402835291602001916103a4565b820191906000526020600020905b81548152906001019060200180831161038757829003601f168201915b5050505050600360008154811015156103b957fe5b90600052602060002090600291828204019190066010029054906101000a900470010000000000000000000000000000000002610507565b92506103fc846105f8565b91506104de61043a866002600081548110151561041557fe5b90600052602060002090602091828204019190069054906101000a900460ff166106ed565b6201000160058054600181600116156101000203166002900480601f0160208091040260200160405190810160405280929190818152602001828054600181600116156101000203166002900480156104d45780601f106104a9576101008083540402835291602001916104d4565b820191906000526020600020905b8154815290600101906020018083116104b757829003601f168201915b5050505050610768565b9050836000191683600019161480156104fd57506104fc8282610834565b5b9550505050505090565b60008383836040518084805190602001908083835b602083101515610541578051825260208201915060208101905060208303925061051c565b6001836020036101000a03801982511681845116808217855250505050505090500183805190602001908083835b602083101515610594578051825260208201915060208101905060208303925061056f565b6001836020036101000a038019825116818451168082178552505050505050905001826fffffffffffffffffffffffffffffffff19166fffffffffffffffffffffffffffffffff191681526010019350505050604051809103902090509392505050565b6106006108ca565b600061060a6108ca565b600084604051808260001916600019168152602001915050604051809103902092506101206040519081016040528061010081526020016109bc61010091399150602090505b6101008110156106e2578260208281151561066757fe5b0660208110151561067457fe5b1a7f01000000000000000000000000000000000000000000000000000000000000000282828151811015156106a557fe5b9060200101907effffffffffffffffffffffffffffffffffffffffffffffffffffffffffffff1916908160001a9053508080600101915050610650565b819350505050919050565b6106f56108ca565b811561075f5760007f01000000000000000000000000000000000000000000000000000000000000000283600081518110151561072e57fe5b9060200101907effffffffffffffffffffffffffffffffffffffffffffffffffffffffffffff1916908160001a9053505b82905092915050565b6107706108ca565b600080600061077d6108ca565b875193508551925082602085606001010191508160405180591061079e5750595b9080825280601f01601f19166020018201604052509050826040518059106107c35750595b9080825280601f01601f1916602001820160405250945083602082015260206040820152826060820152868460800182015261080488600083606088610871565b610818866000836020886060010187610871565b82602086018360208401600060055af150505050509392505050565b6000806000808451865114151561084e5760009350610868565b855190506020860192506020850191508082208184201493505b50505092915050565b836020018501945081602001830192505b6020811015156108a75784518352602083019250602085019450602081039050610882565b6001816020036101000a0380198651168185511680821786525050505050505050565b602060405190810160405280600081525090565b6108e78161096b565b82525050565b60006108f882610960565b80845261090c816020860160208601610977565b610915816109aa565b602085010191505092915050565b600060208201905061093860008301846108de565b92915050565b6000602082019050818103600083015261095881846108ed565b905092915050565b600081519050919050565b60008115159050919050565b60005b8381101561099557808201518184015260208101905061097a565b838111156109a4576000848401525b50505050565b6000601f19601f8301169050919050560000000000000000000000000000000000000000000000000000000000000000000000000000000000000000000000000000000000000000000000000000000000000000000000000000000000000000000000000000000000000000000000000000000000000000000000000000000000000000000000000000000000000000000000000000000000000000000000000000000000000000000000000000000000000000000000000000000000000000000000000000000000000000000000000000000000000000000000000000000000000000000000000000000000000000000000000000000000000000000000000000000000000000000000000000000000a265627a7a723058208b33ff9eb320a3ddfccbf1386595bfe813ee399704cea2f2b7e5e38a990a5b426c6578706572696d656e74616cf50037a6c9b442f07d31c5f7d421412d04a0672c6627bb78cd3d629c2d8a13815d1263ce2a04da9e023ce867bdfad79760861a7b85c54cb47fe4e3d5995cdf1ddd111ba4e48e5402be0921099c41e6bb067c39e4311fd03444be028973425f7385f2138841b08935083a973a2c830d806374541bba92d4360210146ca35828efd9de506f78cbc71419c0e9eda85424d424d54b5f8d1b53e8251b1fc533e36587128c1349c7856f152941853eadd6354dac5b19ee9ce424449f60a5b22006ac48d416852264c4f2f4936915253e9ee53c632348abbe6682aecb9639551145da5a9b5b52fb041dd0672ef389550bf01cc7cfe94be3a3ec0ba0df1132e545d561221a24697b49500fca7f1f4aa1da9d04f09d4dc02351dfe01974c97cb9ae78d03c419a19bd69c480a0ece0ee2cb55d9ca33507719058ac03c8c81ee90d1d8313a124949dfef01ee44a1aa1fe8b3a7804eedebea92cfcd79ac1e033dc431c5dd1dca9030704bea183318c80045c709d5266c6b8f46d5216223208b03c349ab257e31080cf2fb7351077c82e366c0a9c465b93dc611ccc6249288982368fd99cb44100b15850b6fe0ffb76451f1cbb562fba1163f05995ea54ab68d3ece8aaa9c4c0bceeefc7a7cc8516dbca2ad51ecc96a0022ef4cd3f085226f9732a2fe200bf9ac94205e199a6da1f8a31b70c7b438d5b851301b4a78dd656e6abe55bd9f677b3874a84",
  "source": "pragma solidity 0.4.21;\npragma experimental ABIEncoderV2;\n\ncontract BGRBig {\n\n    bytes x = hex\"7b49500fca7f1f4aa1da9d04f09d4dc02351dfe01974c97cb9ae78d03c419a19bd69c480a0ece0ee2cb55d9ca33507719058ac03c8c81ee90d1d8313a124949dfef01ee44a1aa1fe8b3a7804eedebea92cfcd79ac1e033dc431c5dd1dca9030704bea183318c80045c709d5266c6b8f46d5216223208b03c349ab257e31080cf2fb7351077c82e366c0a9c465b93dc611ccc6249288982368fd99cb44100b15850b6fe0ffb76451f1cbb562fba1163f05995ea54ab68d3ece8aaa9c4c0bceeefc7a7cc8516dbca2ad51ecc96a0022ef4cd3f085226f9732a2fe200bf9ac94205e199a6da1f8a31b70c7b438d5b851301b4a78dd656e6abe55bd9f677b3874a84\";\n    bytes32 h = bytes32(50492151890823218821780904290475785556998480300898370025014579691936177640103);\n\n    bool[] b = [false, false, false];\n    bytes16[] r = [bytes16(255056192489919999080245718078957014030)];\n\n    string[] messages = [\n    \"MESSAGE 0\",\n    \"MESSAGE 1\",\n    \"MESSAGE 2\"\n    ];\n\n    //Simulation of PKI\n    uint256 constant e = 65537;\n    bytes modulus0 = hex\"a6c9b442f07d31c5f7d421412d04a0672c6627bb78cd3d629c2d8a13815d1263ce2a04da9e023ce867bdfad79760861a7b85c54cb47fe4e3d5995cdf1ddd111ba4e48e5402be0921099c41e6bb067c39e4311fd03444be028973425f7385f2138841b08935083a973a2c830d806374541bba92d4360210146ca35828efd9de506f78cbc71419c0e9eda85424d424d54b5f8d1b53e8251b1fc533e36587128c1349c7856f152941853eadd6354dac5b19ee9ce424449f60a5b22006ac48d416852264c4f2f4936915253e9ee53c632348abbe6682aecb9639551145da5a9b5b52fb041dd0672ef389550bf01cc7cfe94be3a3ec0ba0df1132e545d561221a2469\";\n\n    function test() returns (bytes) {\n        bytes32 hash = keccak256(h);\n        bytes memory res = hex\"00000000000000000000000000000000000000000000000000000000000000000000000000000000000000000000000000000000000000000000000000000000000000000000000000000000000000000000000000000000000000000000000000000000000000000000000000000000000000000000000000000000000000000000000000000000000000000000000000000000000000000000000000000000000000000000000000000000000000000000000000000000000000000000000000000000000000000000000000000000000000000000000000000000000000000000000000000000000000000000000000000000000000000000000000000000\";\n\n        for(uint i = 32; i < 256; i++) {\n            res[i] = hash[i % 32];\n        }\n\n        return res;\n    }\n\n    function verify() returns (bool) {\n        bytes memory x_prev = x;\n        bytes32 h_prev = h;\n\n\n    /*bytes memory g;\n    bytes memory y;\n    bytes memory X;\n    bytes32 eta;*/\n\n        /*\n        for (uint i = moduli.length - 1; i > 0; i--) {\n            //Line 2\n            X = split_inverse(x_prev, b[i]);\n            y = modexp(X, e, moduli[i]);\n\n            //Line 3\n            g = ghash(h_prev);\n\n            //Line 4\n            x_prev = xorbytes(g, y);\n\n            //Line 5\n            eta = hhash(moduli[i], messages[i], r[i], x_prev);\n\n            //Line 6\n            h_prev = h_prev ^ eta;\n        }\n        */\n\n        //Line 7\n        bytes32 h_hash = hhashbase(modulus0, messages[0], r[0]);\n        bytes memory g_hash = ghash(h_prev);\n\n        bytes memory pig = modexp(split_inverse(x_prev, b[0]), e, modulus0);\n\n        return h_hash == h_prev && equals(g_hash, pig);\n    }\n\n    function modexp(bytes base, uint exponent, bytes modulus) internal returns (bytes output) {\n        //bytes memory modulus = bytes(modulus_str);\n        uint base_length = base.length;\n        uint modulus_length = modulus.length;\n\n        uint size = (32 * 3) + base_length + 32 + modulus_length;\n        bytes memory input = new bytes(size);\n        output = new bytes(modulus_length);\n\n        assembly {\n            mstore(add(input, 32), base_length)\n            mstore(add(input, 64), 32)\n            mstore(add(input, 96), modulus_length)\n\n            mstore(add(input, add(128, base_length)), exponent)\n        }\n\n        memcopy(base, 0, input, 96, base_length);\n        memcopy(modulus, 0, input, 96 + base_length + 32, modulus_length);\n\n        assembly {\n            pop(call(gas(), 5, 0, add(input, 32), size, add(output, 32), modulus_length))\n        }\n    }\n\n    function split_inverse(bytes xi, bool bi) internal pure returns (bytes) {\n        if (bi) {\n            xi[0] = byte(0);\n        }\n\n        return xi;\n    }\n\n    function ghash(bytes32 y) internal pure returns (bytes) {\n        bytes32 hash = keccak256(y);\n        bytes memory res = hex\"00000000000000000000000000000000000000000000000000000000000000000000000000000000000000000000000000000000000000000000000000000000000000000000000000000000000000000000000000000000000000000000000000000000000000000000000000000000000000000000000000000000000000000000000000000000000000000000000000000000000000000000000000000000000000000000000000000000000000000000000000000000000000000000000000000000000000000000000000000000000000000000000000000000000000000000000000000000000000000000000000000000000000000000000000000000\";\n\n        for(uint i = 32; i < 256; i++) {\n            res[i] = hash[i % 32];\n        }\n\n        return res;\n    }\n\n    function cut(bytes i) internal pure returns (bytes32 part1, bytes32 part2, bytes32 part3, bytes32 part4, bytes32 part5, bytes32 part6, bytes32 part7, bytes32 part8) {\n\n        assembly {\n            part1 := mload(add(i, 32))\n            part2 := mload(add(i, 64))\n            part3 := mload(add(i, 96))\n            part4 := mload(add(i, 128))\n            part5 := mload(add(i, 160))\n            part6 := mload(add(i, 192))\n            part7 := mload(add(i, 224))\n            part8 := mload(add(i, 256))\n        }\n    }\n\n    function xorbytes(bytes a, bytes y) internal pure returns (bytes) {\n        bytes32 c1;\n        bytes32 c2;\n        bytes32 c3;\n        bytes32 c4;\n        bytes32 c5;\n        bytes32 c6;\n        bytes32 c7;\n        bytes32 c8;\n\n        assembly {\n            c1 := xor(mload(add(a, 32)), mload(add(y, 32)))\n            c2 := xor(mload(add(a, 64)), mload(add(y, 64)))\n            c3 := xor(mload(add(a, 96)), mload(add(y, 96)))\n            c4 := xor(mload(add(a, 128)), mload(add(y, 128)))\n            c5 := xor(mload(add(a, 160)), mload(add(y, 160)))\n            c6 := xor(mload(add(a, 192)), mload(add(y, 192)))\n            c7 := xor(mload(add(a, 224)), mload(add(y, 224)))\n            c8 := xor(mload(add(a, 256)), mload(add(y, 256)))\n        }\n\n        bytes memory merged = new bytes(256);\n\n        uint k = 0;\n\n        for (uint i = 0; i < 32; i++) {\n            merged[k] = c1[i];\n            k++;\n        }\n\n        for (i = 0; i < 32; i++) {\n            merged[k] = c2[i];\n            k++;\n        }\n\n        for (i = 0; i < 32; i++) {\n            merged[k] = c3[i];\n            k++;\n        }\n\n        for (i = 0; i < 32; i++) {\n            merged[k] = c4[i];\n            k++;\n        }\n\n        for (i = 0; i < 32; i++) {\n            merged[k] = c5[i];\n            k++;\n        }\n\n        for (i = 0; i < 32; i++) {\n            merged[k] = c6[i];\n            k++;\n        }\n\n        for (i = 0; i < 32; i++) {\n            merged[k] = c7[i];\n            k++;\n        }\n\n        for (i = 0; i < 32; i++) {\n            merged[k] = c8[i];\n            k++;\n        }\n\n        return merged;\n    }\n\n    function hhash(bytes modulus, string message, bytes16 random, bytes x_prev) internal pure returns (bytes32) {\n        return keccak256(modulus, message, random, x_prev);\n    }\n\n    function hhashbase(bytes modulus, string message, bytes16 random) internal pure returns (bytes32) {\n        return keccak256(modulus, message, random);\n    }\n\n    function memcopy(bytes src, uint srcoffset, bytes dst, uint dstoffset, uint len) pure internal {\n        assembly {\n            src := add(src, add(32, srcoffset))\n            dst := add(dst, add(32, dstoffset))\n\n        // copy 32 bytes at once\n            for\n            {}\n            iszero(lt(len, 32))\n            {\n                dst := add(dst, 32)\n                src := add(src, 32)\n                len := sub(len, 32)\n            }\n            {mstore(dst, mload(src))}\n\n        // copy the remainder (0 < len < 32)\n            let mask := sub(exp(256, sub(32, len)), 1)\n            let srcpart := and(mload(src), not(mask))\n            let dstpart := and(mload(dst), mask)\n            mstore(dst, or(srcpart, dstpart))\n        }\n    }\n\n    function equals(bytes memory self, bytes memory other) internal pure returns (bool equal) {\n        if (self.length != other.length) {\n            return false;\n        }\n\n        uint addr;\n        uint addr2;\n        uint len = self.length;\n\n        assembly {\n            addr := add(self, /*BYTES_HEADER_SIZE*/32)\n            addr2 := add(other, /*BYTES_HEADER_SIZE*/32)\n            equal := eq(keccak256(addr, len), keccak256(addr2, len))\n        }\n    }\n\n}\n",
  "sourcePath": "/home/bjorn/Projects/BGRVerify/contracts/BGRBig.sol",
  "compiler": {
    "name": "solc",
    "version": "0.4.21+commit.dfe3193c.Emscripten.clang"
  },
  "schemaVersion": "2.0.0",
  "updatedAt": "2018-06-03T14:14:21.566Z"
}