{
  "contractName": "BGRBig",
  "abi": [
    {
      "constant": false,
      "inputs": [],
      "name": "test",
      "outputs": [
        {
          "name": "",
          "type": "bytes32"
        }
      ],
      "payable": false,
      "stateMutability": "nonpayable",
      "type": "function"
    },
    {
      "constant": false,
      "inputs": [
        {
          "name": "val",
          "type": "bytes32"
        },
        {
          "name": "mod",
          "type": "uint256"
        }
      ],
      "name": "pi",
      "outputs": [
        {
          "name": "",
          "type": "bytes32"
        }
      ],
      "payable": false,
      "stateMutability": "nonpayable",
      "type": "function"
    }
  ],
  "bytecode": "0x60606040527f6b644a0285a3f0d04c0b4834d63a35caef12dd70100cde98d25fcef09c01d16d6001026000906000191690557f48ae08a9b3de7014167900822ca49ed0def5fb38ce433822364623127f98b3bc600102600190600019169055606060405190810160405280600015151515815260200160001515151581526020016000151515158152506002906003610099929190610366565b5060606040519081016040528061d7357e01000000000000000000000000000000000000000000000000000000000000027dffffffffffffffffffffffffffffffffffffffffffffffffffffffffffff19167dffffffffffffffffffffffffffffffffffffffffffffffffffffffffffff1916815260200161fd107e01000000000000000000000000000000000000000000000000000000000000027dffffffffffffffffffffffffffffffffffffffffffffffffffffffffffff19167dffffffffffffffffffffffffffffffffffffffffffffffffffffffffffff1916815260200161368e7e01000000000000000000000000000000000000000000000000000000000000027dffffffffffffffffffffffffffffffffffffffffffffffffffffffffffff19167dffffffffffffffffffffffffffffffffffffffffffffffffffffffffffff191681525060039060036101f592919061040c565b506060604051908101604052806040805190810160405280600981526020017f4d4553534147452030000000000000000000000000000000000000000000000081525081526020016040805190810160405280600981526020017f4d4553534147452031000000000000000000000000000000000000000000000081525081526020016040805190810160405280600981526020017f4d4553534147452032000000000000000000000000000000000000000000000081525081525060049060036102c19291906104d4565b50620100016005556060604051908101604052807f9e47e564ee6522b07565e376323b836e0747a976f23cdad8cd14ffc7346b49f781526020017fa99fccad3011949d9c1ee10ab55f805d025cdd858cdd38eecd921ae6533a031b81526020017fcd0522e56e0068d12522426d2c76fc18b0e333638a892b1cc590abd09dc2c1338152506006906003610355929190610534565b50341561036157600080fd5b6106fb565b82805482825590600052602060002090601f016020900481019282156103fb5791602002820160005b838211156103cc57835183826101000a81548160ff021916908315150217905550926020019260010160208160000104928301926001030261038f565b80156103f95782816101000a81549060ff02191690556001016020816000010492830192600103026103cc565b505b5090506104089190610581565b5090565b82805482825590600052602060002090600f016010900481019282156104c35791602002820160005b8382111561049357835183826101000a81548161ffff02191690837e01000000000000000000000000000000000000000000000000000000000000900402179055509260200192600201602081600101049283019260010302610435565b80156104c15782816101000a81549061ffff0219169055600201602081600101049283019260010302610493565b505b5090506104d091906105b1565b5090565b828054828255906000526020600020908101928215610523579160200282015b828111156105225782518290805190602001906105129291906105e2565b50916020019190600101906104f4565b5b5090506105309190610662565b5090565b828054828255906000526020600020908101928215610570579160200282015b8281111561056f578251825591602001919060010190610554565b5b50905061057d919061068e565b5090565b6105ae91905b808211156105aa57600081816101000a81549060ff021916905550600101610587565b5090565b90565b6105df91905b808211156105db57600081816101000a81549061ffff0219169055506001016105b7565b5090565b90565b828054600181600116156101000203166002900490600052602060002090601f016020900481019282601f1061062357805160ff1916838001178555610651565b82800160010185558215610651579182015b82811115610650578251825591602001919060010190610635565b5b50905061065e919061068e565b5090565b61068b91905b80821115610687576000818161067e91906106b3565b50600101610668565b5090565b90565b6106b091905b808211156106ac576000816000905550600101610694565b5090565b90565b50805460018160011615610100020316600290046000825580601f106106d957506106f8565b601f0160209004906000526020600020908101906106f7919061068e565b5b50565b6104a38061070a6000396000f30060606040526004361061004c576000357c0100000000000000000000000000000000000000000000000000000000900463ffffffff168063f394a6bd14610051578063f8a8fd6d14610087575b600080fd5b341561005c57600080fd5b610071600461006c9036906101e5565b6100b0565b60405161007e9190610230565b60405180910390f35b341561009257600080fd5b61009a6100ce565b6040516100a79190610230565b60405180910390f35b60006100c383600190046005548461012f565b600102905092915050565b60006100d86101a9565b6100e06101a9565b61012060405190810160405280610100815260200161036a6101009139915061012060405190810160405280610100815260200161026a610100913990506101288282610182565b9250505090565b60008060019150600190505b838111151561017a576000818516141515610160578280151561015a57fe5b85830991505b8280151561016a57fe5b858609945060028102905061013b565b509392505050565b60008060006020850151915060208401519050604051818318815280935050505092915050565b602060405190810160405280600081525090565b60006101c98235610255565b905092915050565b60006101dd823561025f565b905092915050565b600080604083850312156101f857600080fd5b6000610206858286016101bd565b9250506020610217858286016101d1565b9150509250929050565b61022a8161024b565b82525050565b60006020820190506102456000830184610221565b92915050565b6000819050919050565b6000819050919050565b60008190509190505600c96b946f08643fcb17d438dc949c746817ec9fae47bc4917b5f66c8d55f6902683fb760490ab181af74c0fd52a5bf492e338871e3e209014ad8ca4308569c1b2a7db5bdceb676b7a244565dd466234dde9ec0d3922c8defcff9d348c20e140fc23239ff9d65e9828022f0fb58d804d84a76b527ab4e87e2f83816d158ea18a206195a9d4025b948fd26cbd98c756229d6670c7c461ba68e4dca6bbcbb1ea745019d2bff4728f3b6ff2734e42843c1a548909952aebe5003efe418d315cec58ce6a906e01ba33c11505f79a451fc21d3f50b78719d455e2691e2cf818298879fbe6ea93eca4aa7562834e39eb5835f16aec4427cf8e71d3dcefb62a6bd9fda18bc96b966f08643fcb17d438dc949c746817ec9fae47bc4917b5f66c8d55f6902683fb760490ab181af74c0fd52a5bf492e338871e3e209014ad8ca4308569c1b2a7db5bdceb676b7a244565dd466234dde9ec0d3922c8defcff9d348c20e140fc23239ff9d65e9828022f0fb58d804d84a76b527ab4e87e2f83816d158ea18a206195a9d4025b948fd26cbd98c756229d6670c7c461ba68e4dca6bbcbb1ea745019d2bff4728f3b6ff2734e42843c1a548909952aebe5003efe418d315cec58ce6a906e01ba33c11505f79a451fc21d3f50b78719d455e2691e2cf818298879fbe6ea93eca4aa7562834e39eb5835f16aec4427cf8e71d3dcefb62a6bd9fda18ba265627a7a7230582007e560ad1f10dd680bcf078b4c90ca650e4cdb5382b78d56d644fe17b66667f76c6578706572696d656e74616cf50037",
  "source": "pragma solidity 0.4.21;\npragma experimental ABIEncoderV2;\n\ncontract BGRBig {\n\n    bytes32 x = bytes32(48574670302110873900186887930825348864862875264737285835557344117607811371373);\n    bytes32 h = bytes32(32874016276410785723952341262669264316082375692834943036671182319508755362748);\n\n    bool[] b = [false, false, false];\n    bytes2[] r = [bytes2(55093), bytes2(64784), bytes2(13966)];\n\n    string[] messages = [\n    \"MESSAGE 0\",\n    \"MESSAGE 1\",\n    \"MESSAGE 2\"\n    ];\n\n    //Simulation of PKI\n    uint256 e = 65537;\n    uint256[] modulus = [\n    71592459438769366555287905212920150282388951853471084808236715516732226882039,\n    76723212719259523646191797913083315208539844433174054239968451621612127126299,\n    92733209039681599712767330020819907773031548378901671974778944208981299740979\n    ];\n\n    function test() returns (bytes32) {\n        bytes memory xl = hex\"c96b966f08643fcb17d438dc949c746817ec9fae47bc4917b5f66c8d55f6902683fb760490ab181af74c0fd52a5bf492e338871e3e209014ad8ca4308569c1b2a7db5bdceb676b7a244565dd466234dde9ec0d3922c8defcff9d348c20e140fc23239ff9d65e9828022f0fb58d804d84a76b527ab4e87e2f83816d158ea18a206195a9d4025b948fd26cbd98c756229d6670c7c461ba68e4dca6bbcbb1ea745019d2bff4728f3b6ff2734e42843c1a548909952aebe5003efe418d315cec58ce6a906e01ba33c11505f79a451fc21d3f50b78719d455e2691e2cf818298879fbe6ea93eca4aa7562834e39eb5835f16aec4427cf8e71d3dcefb62a6bd9fda18b\";\n        bytes memory x3 = hex\"c96b946f08643fcb17d438dc949c746817ec9fae47bc4917b5f66c8d55f6902683fb760490ab181af74c0fd52a5bf492e338871e3e209014ad8ca4308569c1b2a7db5bdceb676b7a244565dd466234dde9ec0d3922c8defcff9d348c20e140fc23239ff9d65e9828022f0fb58d804d84a76b527ab4e87e2f83816d158ea18a206195a9d4025b948fd26cbd98c756229d6670c7c461ba68e4dca6bbcbb1ea745019d2bff4728f3b6ff2734e42843c1a548909952aebe5003efe418d315cec58ce6a906e01ba33c11505f79a451fc21d3f50b78719d455e2691e2cf818298879fbe6ea93eca4aa7562834e39eb5835f16aec4427cf8e71d3dcefb62a6bd9fda18b\";\n        return Bytes.xor(xl, x3);\n    }\n\n    //function verify(string[] messages, bytes32 x, bytes32 h, bytes2[] r, bool[] b) returns (bool) {\n    /*function verify() returns (bool) {\n        bytes x_prev = x;\n        bytes32 h_prev = h;\n\n        bytes g;\n        bytes y;\n        bytes X;\n        bytes32 eta;\n\n        for (uint i = modulus.length - 1; i > 0; i--) {\n            //Line 2\n            X = Bytes.split_inverse(x_prev, b[i]);\n            y = Bytes.modexp(X, e, modulus[i]); //pi\n\n            var (y1,y2,y3,y4,y5,y6,y7,y8) = Bytes.cut(y);\n\n            //Line 3 G\n            g = Bytes.ghash(h_prev); //256 -> 2048\n\n            //Line 4\n            x_prev = Bytes.xor(g, y);   //2048 ^ 2048\n\n            //Line 5 H\n            eta = Bytes.hhash(modulus[i], messages[i], r[i], x_prev); //256\n\n            //Line 6\n            h_prev = h_prev ^ eta; //256 ^ 256 normal hash\n        }\n\n        //Line 7\n        bytes32 h_hash = HHashBase(modulus[0], messages[0], r[0]);\n        bytes32 g_hash = GHash(h_prev);\n\n        bytes32 pig = pi(split_inverse(b[0], x_prev), modulus[0]);\n\n        return g_hash == pig && h_hash == h_prev;\n    }*/\n\n    function GHash(bytes32 x) internal pure returns (bytes32) {\n        bytes32 hash = keccak256(x);\n        return hash & 0x00ffffffffffffffffffffffffffffffffffffffffffffffffffffffffffffff;\n    }\n\n    function HHash(uint256 pk, string m, bytes2 r, bytes32 x) internal pure returns (bytes32) {\n        return keccak256(pk, m, r, x);\n    }\n\n    function HHashBase(uint256 pk, string m, bytes2 r) internal pure returns (bytes32) {\n        // this seems to work if Go uses x=nil\n        return keccak256(pk, m, r);\n    }\n\n    function pi(bytes32 val, uint256 mod) returns (bytes32) {\n        return bytes32(modExp(uint256(val), e, mod));\n    }\n\n    function modExp(uint256 base, uint256 exp, uint256 mod) internal pure returns (uint256 result)  {\n        result = 1;\n        for (uint count = 1; count <= exp; count *= 2) {\n            if (exp & count != 0)\n                result = mulmod(result, base, mod);\n            base = mulmod(base, base, mod);\n        }\n    }\n\n    function split_inverse(bool b, bytes32 x) internal pure returns (bytes32) {\n        if (b) {\n            return bytes32(uint256(x) + uint256(57896044618658097711785492504343953926634992332820282019728792003956564819968));\n            //NOTE: 2 ** 255 = 57896044618658097711785492504343953926634992332820282019728792003956564819968\n        }\n        else {\n            return x;\n        }\n    }\n\n}\n\nlibrary Bytes {\n    function memcopy(bytes src, uint srcoffset, bytes dst, uint dstoffset, uint len) pure internal {\n        assembly {\n            src := add(src, add(32, srcoffset))\n            dst := add(dst, add(32, dstoffset))\n\n        // copy 32 bytes at once\n            for\n            {}\n            iszero(lt(len, 32))\n            {\n                dst := add(dst, 32)\n                src := add(src, 32)\n                len := sub(len, 32)\n            }\n            { mstore(dst, mload(src)) }\n\n        // copy the remainder (0 < len < 32)\n            let mask := sub(exp(256, sub(32, len)), 1)\n            let srcpart := and(mload(src), not(mask))\n            let dstpart := and(mload(dst), mask)\n            mstore(dst, or(srcpart, dstpart))\n        }\n    }\n\n    function modexp(bytes base, uint exponent, bytes modulus) internal returns (bool success, bytes output) {\n        uint base_length = base.length;\n        uint modulus_length = modulus.length;\n\n        uint size = (32 * 3) + base_length + 32 + modulus_length;\n        bytes memory input = new bytes(size);\n        output = new bytes(modulus_length);\n\n        assembly {\n            mstore(add(input, 32), base_length)\n            mstore(add(input, 64), 32)\n            mstore(add(input, 96), modulus_length)\n\n            mstore(add(input, add(128, base_length)), exponent)\n        }\n\n        memcopy(base, 0, input, 96, base_length);\n        memcopy(modulus, 0, input, 96 + base_length + 32, modulus_length);\n\n        assembly {\n            success := call(gas(), 5, 0, add(input, 32), size, add(output, 32), modulus_length)\n        }\n    }\n\n    function split_inverse(bytes x, bool b) internal pure returns (bytes) {\n        if (b) {\n            x[0] = 0;\n        }\n\n        return x;\n    }\n\n    function cut(bytes x) internal pure returns (bytes32 part1, bytes32 part2, bytes32 part3, bytes32 part4, bytes32 part5, bytes32 part6, bytes32 part7, bytes32 part8) {\n\n        assembly {\n            part1 := mload(add(x,32))\n            part2 := mload(add(x,64))\n            part3 := mload(add(x,96))\n            part4 := mload(add(x,128))\n            part5 := mload(add(x,160))\n            part6 := mload(add(x,192))\n            part7 := mload(add(x,224))\n            part8 := mload(add(x,256))\n        }\n    }\n\n    /*function ghash(bytes32 h) internal pure returns (bytes) {\n\n    }*/\n\n    function xor(bytes a, bytes b) internal pure returns (bytes32 c) {\n        bytes32 part1;\n        bytes32 part2;\n\n        assembly {\n            part1 := mload(add(a,32))\n            part2 := mload(add(b,32))\n            let m := mload(0x40)\n            mstore(m, xor(part1, part2))\n            c := m\n        }\n\n    }\n}\n",
  "sourcePath": "/home/bjorn/Projects/BGRVerify/contracts/BGRBig.sol",
  "compiler": {
    "name": "solc",
    "version": "0.4.21+commit.dfe3193c.Emscripten.clang"
  },
  "schemaVersion": "2.0.0",
  "updatedAt": "2018-06-02T14:28:23.201Z"
}