{
  "contractName": "BGRSmall",
  "abi": [
    {
      "constant": false,
      "inputs": [],
      "name": "verify",
      "outputs": [
        {
          "name": "",
          "type": "bool"
        }
      ],
      "payable": false,
      "stateMutability": "nonpayable",
      "type": "function"
    },
    {
      "constant": true,
      "inputs": [
        {
          "name": "x",
          "type": "bytes32"
        }
      ],
      "name": "GHash",
      "outputs": [
        {
          "name": "",
          "type": "bytes32"
        }
      ],
      "payable": false,
      "stateMutability": "pure",
      "type": "function"
    },
    {
      "constant": true,
      "inputs": [
        {
          "name": "pk",
          "type": "uint256"
        },
        {
          "name": "m",
          "type": "string"
        },
        {
          "name": "r",
          "type": "bytes2"
        },
        {
          "name": "x",
          "type": "bytes32"
        }
      ],
      "name": "HHash",
      "outputs": [
        {
          "name": "",
          "type": "bytes32"
        }
      ],
      "payable": false,
      "stateMutability": "pure",
      "type": "function"
    },
    {
      "constant": true,
      "inputs": [
        {
          "name": "pk",
          "type": "uint256"
        },
        {
          "name": "m",
          "type": "string"
        },
        {
          "name": "r",
          "type": "bytes2"
        }
      ],
      "name": "HHashBase",
      "outputs": [
        {
          "name": "",
          "type": "bytes32"
        }
      ],
      "payable": false,
      "stateMutability": "pure",
      "type": "function"
    },
    {
      "constant": false,
      "inputs": [
        {
          "name": "val",
          "type": "bytes32"
        },
        {
          "name": "signer",
          "type": "uint256"
        }
      ],
      "name": "pi",
      "outputs": [
        {
          "name": "",
          "type": "bytes32"
        }
      ],
      "payable": false,
      "stateMutability": "nonpayable",
      "type": "function"
    },
    {
      "constant": false,
      "inputs": [
        {
          "name": "source",
          "type": "string"
        }
      ],
      "name": "stringToBytes32",
      "outputs": [
        {
          "name": "result",
          "type": "bytes32"
        }
      ],
      "payable": false,
      "stateMutability": "nonpayable",
      "type": "function"
    }
  ],
  "bytecode": "0x60606040527f280cf29f95f9027c8f8002fbba0e742ef087f7e508659b2ef5f0b7004b8b224d6001026000906000191690557f198e99efa8cabcb4438cb003481042807040d70908ae73075425fdc656c6c67e6001026001906000191690556060604051908101604052806000151515158152602001600015151515815260200160001515151581525060029060036200009b92919062000370565b506060604051908101604052806119a67e01000000000000000000000000000000000000000000000000000000000000027dffffffffffffffffffffffffffffffffffffffffffffffffffffffffffff19167dffffffffffffffffffffffffffffffffffffffffffffffffffffffffffff19168152602001617cde7e01000000000000000000000000000000000000000000000000000000000000027dffffffffffffffffffffffffffffffffffffffffffffffffffffffffffff19167dffffffffffffffffffffffffffffffffffffffffffffffffffffffffffff1916815260200161ecda7e01000000000000000000000000000000000000000000000000000000000000027dffffffffffffffffffffffffffffffffffffffffffffffffffffffffffff19167dffffffffffffffffffffffffffffffffffffffffffffffffffffffffffff19168152506003906003620001f99291906200041d565b506060604051908101604052806040805190810160405280600981526020017f4d4553534147452030000000000000000000000000000000000000000000000081525081526020016040805190810160405280600981526020017f4d4553534147452031000000000000000000000000000000000000000000000081525081526020016040805190810160405280600981526020017f4d455353414745203200000000000000000000000000000000000000000000008152508152506004906003620002c7929190620004ec565b50620100016005556060604051908101604052807fd869127e9b7217052d61714bf2b2f14f43ca2e255d004560155a02a150aabfc981526020017fca62f25db66246eb26d7f96e97a744c131717a2f099aa11ba77d9656ab2ba34581526020017fd501f6da7bc0f758109fad3cae91fd90c9881357d511d3ba5f799c56a123efe981525060069060036200035d92919062000553565b5034156200036a57600080fd5b62000738565b82805482825590600052602060002090601f016020900481019282156200040a5791602002820160005b83821115620003d957835183826101000a81548160ff02191690831515021790555092602001926001016020816000010492830192600103026200039a565b8015620004085782816101000a81549060ff0219169055600101602081600001049283019260010302620003d9565b505b509050620004199190620005a5565b5090565b82805482825590600052602060002090600f01601090048101928215620004d95791602002820160005b83821115620004a757835183826101000a81548161ffff02191690837e0100000000000000000000000000000000000000000000000000000000000090040217905550926020019260020160208160010104928301926001030262000447565b8015620004d75782816101000a81549061ffff0219169055600201602081600101049283019260010302620004a7565b505b509050620004e89190620005d8565b5090565b82805482825590600052602060002090810192821562000540579160200282015b828111156200053f5782518290805190602001906200052e9291906200060c565b50916020019190600101906200050d565b5b5090506200054f919062000693565b5090565b82805482825590600052602060002090810192821562000592579160200282015b828111156200059157825182559160200191906001019062000574565b5b509050620005a19190620006c4565b5090565b620005d591905b80821115620005d157600081816101000a81549060ff021916905550600101620005ac565b5090565b90565b6200060991905b808211156200060557600081816101000a81549061ffff021916905550600101620005df565b5090565b90565b828054600181600116156101000203166002900490600052602060002090601f016020900481019282601f106200064f57805160ff191683800117855562000680565b8280016001018555821562000680579182015b828111156200067f57825182559160200191906001019062000662565b5b5090506200068f9190620006c4565b5090565b620006c191905b80821115620006bd5760008181620006b39190620006ec565b506001016200069a565b5090565b90565b620006e991905b80821115620006e5576000816000905550600101620006cb565b5090565b90565b50805460018160011615610100020316600290046000825580601f1062000714575062000735565b601f016020900490600052602060002090810190620007349190620006c4565b5b50565b610b3a80620007486000396000f300606060405260043610610078576000357c0100000000000000000000000000000000000000000000000000000000900463ffffffff168063318afc441461007d57806357db91fc146100b3578063b99c5ce9146100e9578063cfb519281461011f578063f394a6bd14610155578063fc735e991461018b575b600080fd5b341561008857600080fd5b61009d600461009890369061090c565b6101b4565b6040516100aa9190610a27565b60405180910390f35b34156100be57600080fd5b6100d360046100ce903690610973565b610274565b6040516100e09190610a27565b60405180910390f35b34156100f457600080fd5b6101096004610104903690610866565b610345565b6040516101169190610a27565b60405180910390f35b341561012a57600080fd5b61013f600461013a9036906108cb565b610371565b60405161014c9190610a27565b60405180910390f35b341561016057600080fd5b610175600461017090369061088f565b6103a2565b6040516101829190610a27565b60405180910390f35b341561019657600080fd5b61019e6103da565b6040516101ab9190610a0c565b60405180910390f35b60008383836040518084815260200183805190602001908083835b6020831015156101f457805182526020820191506020810190506020830392506101cf565b6001836020036101000a038019825116818451168082178552505050505050905001827dffffffffffffffffffffffffffffffffffffffffffffffffffffffffffff19167dffffffffffffffffffffffffffffffffffffffffffffffffffffffffffff191681526002019350505050604051809103902090509392505050565b6000848484846040518085815260200184805190602001908083835b6020831015156102b55780518252602082019150602081019050602083039250610290565b6001836020036101000a038019825116818451168082178552505050505050905001837dffffffffffffffffffffffffffffffffffffffffffffffffffffffffffff19167dffffffffffffffffffffffffffffffffffffffffffffffffffffffffffff19168152600201826000191660001916815260200194505050505060405180910390209050949350505050565b600080826040518082600019166000191681526020019150506040518091039020905080915050919050565b600061037b6107c0565b829050600081511415610394576000600102915061039c565b602083015191505b50919050565b60006103cf83600190046005546006858154811015156103be57fe5b906000526020600020900154610746565b600102905092915050565b600080600080600080600080600080600080549950600154985060016006805490500393505b60008411156105d65761044160028581548110151561041b57fe5b90600052602060002090602091828204019190069054906101000a900460ff168b610799565b945061044d8a856103a2565b95508860405180826000191660001916815260200191505060405180910390209750858818995060068481548110151561048357fe5b90600052602060002090015460048581548110151561049e57fe5b90600052602060002090016003868154811015156104b857fe5b90600052602060002090601091828204019190066002029054906101000a90047e01000000000000000000000000000000000000000000000000000000000000028c604051808581526020018480546001816001161561010002031660029004801561055b5780601f1061053957610100808354040283529182019161055b565b820191906000526020600020905b815481529060010190602001808311610547575b5050837dffffffffffffffffffffffffffffffffffffffffffffffffffffffffffff19167dffffffffffffffffffffffffffffffffffffffffffffffffffffffffffff191681526002018260001916600019168152602001945050505050604051809103902096508689189850838060019003945050610400565b6106ff600660008154811015156105e957fe5b9060005260206000209001546004600081548110151561060557fe5b90600052602060002090018054600181600116156101000203166002900480601f0160208091040260200160405190810160405280929190818152602001828054600181600116156101000203166002900480156106a45780601f10610679576101008083540402835291602001916106a4565b820191906000526020600020905b81548152906001019060200180831161068757829003601f168201915b5050505050600360008154811015156106b957fe5b90600052602060002090601091828204019190066002029054906101000a90047e01000000000000000000000000000000000000000000000000000000000000026101b4565b925061070a89610345565b91506107178a60006103a2565b905080600019168260001916148015610737575088600019168360001916145b9a505050505050505050505090565b60008060019150600190505b8381111515610791576000818516141515610777578280151561077157fe5b85830991505b8280151561078157fe5b8586099450600281029050610752565b509392505050565b600082156107b657638000000082600190040360010290506107ba565b8190505b92915050565b602060405190810160405280600081525090565b60006107e08235610ab1565b905092915050565b60006107f48235610add565b905092915050565b600082601f830112151561080f57600080fd5b813561082261081d82610a6f565b610a42565b9150808252602083016020830185838301111561083e57600080fd5b610849838284610af1565b50505092915050565b600061085e8235610ae7565b905092915050565b60006020828403121561087857600080fd5b6000610886848285016107e8565b91505092915050565b600080604083850312156108a257600080fd5b60006108b0858286016107e8565b92505060206108c185828601610852565b9150509250929050565b6000602082840312156108dd57600080fd5b600082013567ffffffffffffffff8111156108f757600080fd5b610903848285016107fc565b91505092915050565b60008060006060848603121561092157600080fd5b600061092f86828701610852565b935050602084013567ffffffffffffffff81111561094c57600080fd5b610958868287016107fc565b9250506040610969868287016107d4565b9150509250925092565b6000806000806080858703121561098957600080fd5b600061099787828801610852565b945050602085013567ffffffffffffffff8111156109b457600080fd5b6109c0878288016107fc565b93505060406109d1878288016107d4565b92505060606109e2878288016107e8565b91505092959194509250565b6109f781610a9b565b82525050565b610a0681610aa7565b82525050565b6000602082019050610a2160008301846109ee565b92915050565b6000602082019050610a3c60008301846109fd565b92915050565b6000604051905081810181811067ffffffffffffffff82111715610a6557600080fd5b8060405250919050565b600067ffffffffffffffff821115610a8657600080fd5b601f19601f8301169050602081019050919050565b60008115159050919050565b6000819050919050565b60007fffff00000000000000000000000000000000000000000000000000000000000082169050919050565b6000819050919050565b6000819050919050565b828183376000838301525050505600a265627a7a72305820fed5f110909d89250bf2c4a6d1e4585361b3df009e56357266fbd03cff7030836c6578706572696d656e74616cf50037",
  "source": "pragma solidity 0.4.21;\npragma experimental ABIEncoderV2;\n\ncontract BGRSmall {\n\n    bytes32 x = bytes32(18115390633149407653339833018649393973660880445469525020077358032081985937997);\n    bytes32 h = bytes32(11559775926174368905745592433081596904384683309495480316690029641247127684734);\n\n    bool[] b = [false, false, false];\n    bytes2[] r = [bytes2(6566), bytes2(31966), bytes2(60634)];\n\n    string[] messages = [\n    \"MESSAGE 0\",\n    \"MESSAGE 1\",\n    \"MESSAGE 2\"\n    ];\n\n    //Simulation of PKI\n    uint256 e = 65537;\n    uint256[] modulus = [\n    97885221880545131614956327669353796100886093042909598927834387463561749905353,\n    91542019175266321384222930621953011415273958814303191515601836249299334964037,\n    96346107315202996585852262992425589636144460118263479845834058492693067329513\n    ];\n\n    //function verify(string[] messages, bytes32 x, bytes32 h, bytes2[] r, bool[] b) returns (bool) {\n    function verify() returns (bool) {\n        bytes32 x_prev = x;\n        bytes32 h_prev = h;\n\n        bytes32 g;\n        bytes32 eta;\n        bytes32 y;\n        bytes32 X;\n\n        for (uint i = modulus.length - 1; i > 0; i--) {\n            //Line 2\n            X = split_inverse(b[i], x_prev);\n            y = pi(x_prev, i);\n\n            //Line 3 G\n            g = keccak256(h_prev);\n\n            //Line 4\n            x_prev = g ^ y;\n\n            //Line 5 H\n            eta = keccak256(modulus[i], messages[i], r[i], x_prev);\n\n            //Line 6\n            h_prev = h_prev ^ eta;\n        }\n\n        //Line 7\n        //bytes32 h_hash = HHash(modulus[0], messages[0], r[0], bytes32(0)); //this is tested\n        bytes32 h_hash = HHashBase(modulus[0], messages[0], r[0]); // this seems to work if Go uses nil\n        bytes32 g_hash = GHash(h_prev); //this is tested\n\n        bytes32 pig = pi(x_prev, 0); //this is tested\n\n        return g_hash == pig && h_hash == h_prev;\n    }\n\n    function GHash(bytes32 x) pure returns (bytes32) {\n        bytes32 hash = keccak256(x);\n        //hash[0] = 0x00;\n        return hash;\n    }\n\n    function HHash(uint256 pk, string m, bytes2 r, bytes32 x) pure returns (bytes32) {\n        return keccak256(pk, m, r, x);\n        //return keccak256(pk, m, r, x);\n    }\n\n    function HHashBase(uint256 pk, string m, bytes2 r) pure returns (bytes32) {\n        return keccak256(pk, m, r);\n        //return keccak256(pk, m, r, x);\n    }\n\n    function pi(bytes32 val, uint256 signer) returns (bytes32) {\n        return bytes32(modExp(uint256(val), e, modulus[signer]));\n    }\n\n    function modExp(uint256 base, uint256 exp, uint256 mod) internal returns (uint256 result)  {\n        result = 1;\n        for (uint count = 1; count <= exp; count *= 2) {\n            if (exp & count != 0)\n                result = mulmod(result, base, mod);\n            base = mulmod(base, base, mod);\n        }\n    }\n\n    function stringToBytes32(string memory source) returns (bytes32 result) {\n        bytes memory tempEmptyStringTest = bytes(source);\n        if (tempEmptyStringTest.length == 0) {\n            return 0x0;\n        }\n\n        assembly {\n            result := mload(add(source, 32))\n        }\n    }\n\n    function split_inverse(bool b, bytes32 x) internal returns (bytes32) {\n        if (b) {\n            return bytes32(uint256(x) - 2147483648); //2 ** 31\n        }\n        else {\n            return x;\n        }\n    }\n}\n",
  "sourcePath": "/home/bjorn/Projects/BGRVerify/contracts/BGRSmall.sol",
  "compiler": {
    "name": "solc",
    "version": "0.4.21+commit.dfe3193c.Emscripten.clang"
  },
  "schemaVersion": "2.0.0",
  "updatedAt": "2018-05-29T12:38:38.670Z"
}