{
  "contractName": "BGRSmall",
  "abi": [
    {
      "constant": false,
      "inputs": [],
      "name": "test",
      "outputs": [
        {
          "name": "",
          "type": "bool"
        }
      ],
      "payable": false,
      "stateMutability": "nonpayable",
      "type": "function"
    },
    {
      "constant": false,
      "inputs": [],
      "name": "verify",
      "outputs": [
        {
          "name": "",
          "type": "bool"
        }
      ],
      "payable": false,
      "stateMutability": "nonpayable",
      "type": "function"
    },
    {
      "constant": true,
      "inputs": [
        {
          "name": "x",
          "type": "bytes32"
        }
      ],
      "name": "GHash",
      "outputs": [
        {
          "name": "",
          "type": "bytes32"
        }
      ],
      "payable": false,
      "stateMutability": "pure",
      "type": "function"
    },
    {
      "constant": true,
      "inputs": [
        {
          "name": "pk",
          "type": "uint256"
        },
        {
          "name": "m",
          "type": "string"
        },
        {
          "name": "r",
          "type": "bytes2"
        },
        {
          "name": "x",
          "type": "bytes32"
        }
      ],
      "name": "HHash",
      "outputs": [
        {
          "name": "",
          "type": "bytes32"
        }
      ],
      "payable": false,
      "stateMutability": "pure",
      "type": "function"
    },
    {
      "constant": true,
      "inputs": [
        {
          "name": "pk",
          "type": "uint256"
        },
        {
          "name": "m",
          "type": "string"
        },
        {
          "name": "r",
          "type": "bytes2"
        }
      ],
      "name": "HHashBase",
      "outputs": [
        {
          "name": "",
          "type": "bytes32"
        }
      ],
      "payable": false,
      "stateMutability": "pure",
      "type": "function"
    },
    {
      "constant": false,
      "inputs": [
        {
          "name": "val",
          "type": "bytes32"
        },
        {
          "name": "mod",
          "type": "uint256"
        }
      ],
      "name": "pi",
      "outputs": [
        {
          "name": "",
          "type": "bytes32"
        }
      ],
      "payable": false,
      "stateMutability": "nonpayable",
      "type": "function"
    },
    {
      "constant": false,
      "inputs": [
        {
          "name": "source",
          "type": "string"
        }
      ],
      "name": "stringToBytes32",
      "outputs": [
        {
          "name": "result",
          "type": "bytes32"
        }
      ],
      "payable": false,
      "stateMutability": "nonpayable",
      "type": "function"
    },
    {
      "constant": false,
      "inputs": [],
      "name": "testsplitreverse",
      "outputs": [
        {
          "name": "",
          "type": "bytes32"
        }
      ],
      "payable": false,
      "stateMutability": "nonpayable",
      "type": "function"
    },
    {
      "constant": false,
      "inputs": [],
      "name": "testIterationWhereBFalse",
      "outputs": [
        {
          "name": "",
          "type": "bool"
        }
      ],
      "payable": false,
      "stateMutability": "nonpayable",
      "type": "function"
    }
  ],
  "bytecode": "0x60606040527f280cf29f95f9027c8f8002fbba0e742ef087f7e508659b2ef5f0b7004b8b224d6001026000906000191690557f198e99efa8cabcb4438cb003481042807040d70908ae73075425fdc656c6c67e6001026001906000191690556060604051908101604052806000151515158152602001600015151515815260200160001515151581525060029060036200009b92919062000370565b506060604051908101604052806119a67e01000000000000000000000000000000000000000000000000000000000000027dffffffffffffffffffffffffffffffffffffffffffffffffffffffffffff19167dffffffffffffffffffffffffffffffffffffffffffffffffffffffffffff19168152602001617cde7e01000000000000000000000000000000000000000000000000000000000000027dffffffffffffffffffffffffffffffffffffffffffffffffffffffffffff19167dffffffffffffffffffffffffffffffffffffffffffffffffffffffffffff1916815260200161ecda7e01000000000000000000000000000000000000000000000000000000000000027dffffffffffffffffffffffffffffffffffffffffffffffffffffffffffff19167dffffffffffffffffffffffffffffffffffffffffffffffffffffffffffff19168152506003906003620001f99291906200041d565b506060604051908101604052806040805190810160405280600981526020017f4d4553534147452030000000000000000000000000000000000000000000000081525081526020016040805190810160405280600981526020017f4d4553534147452031000000000000000000000000000000000000000000000081525081526020016040805190810160405280600981526020017f4d455353414745203200000000000000000000000000000000000000000000008152508152506004906003620002c7929190620004ec565b50620100016005556060604051908101604052807fd869127e9b7217052d61714bf2b2f14f43ca2e255d004560155a02a150aabfc981526020017fca62f25db66246eb26d7f96e97a744c131717a2f099aa11ba77d9656ab2ba34581526020017fd501f6da7bc0f758109fad3cae91fd90c9881357d511d3ba5f799c56a123efe981525060069060036200035d92919062000553565b5034156200036a57600080fd5b62000738565b82805482825590600052602060002090601f016020900481019282156200040a5791602002820160005b83821115620003d957835183826101000a81548160ff02191690831515021790555092602001926001016020816000010492830192600103026200039a565b8015620004085782816101000a81549060ff0219169055600101602081600001049283019260010302620003d9565b505b509050620004199190620005a5565b5090565b82805482825590600052602060002090600f01601090048101928215620004d95791602002820160005b83821115620004a757835183826101000a81548161ffff02191690837e0100000000000000000000000000000000000000000000000000000000000090040217905550926020019260020160208160010104928301926001030262000447565b8015620004d75782816101000a81549061ffff0219169055600201602081600101049283019260010302620004a7565b505b509050620004e89190620005d8565b5090565b82805482825590600052602060002090810192821562000540579160200282015b828111156200053f5782518290805190602001906200052e9291906200060c565b50916020019190600101906200050d565b5b5090506200054f919062000693565b5090565b82805482825590600052602060002090810192821562000592579160200282015b828111156200059157825182559160200191906001019062000574565b5b509050620005a19190620006c4565b5090565b620005d591905b80821115620005d157600081816101000a81549060ff021916905550600101620005ac565b5090565b90565b6200060991905b808211156200060557600081816101000a81549061ffff021916905550600101620005df565b5090565b90565b828054600181600116156101000203166002900490600052602060002090601f016020900481019282601f106200064f57805160ff191683800117855562000680565b8280016001018555821562000680579182015b828111156200067f57825182559160200191906001019062000662565b5b5090506200068f9190620006c4565b5090565b620006c191905b80821115620006bd5760008181620006b39190620006ec565b506001016200069a565b5090565b90565b620006e991905b80821115620006e5576000816000905550600101620006cb565b5090565b90565b50805460018160011615610100020316600290046000825580601f1062000714575062000735565b601f016020900490600052602060002090810190620007349190620006c4565b5b50565b61101180620007486000396000f300606060405260043610610099576000357c0100000000000000000000000000000000000000000000000000000000900463ffffffff16806322c8833b1461009e578063318afc44146100c757806357db91fc146100fd578063b99c5ce914610133578063cfb5192814610169578063f394a6bd1461019f578063f538705b146101d5578063f8a8fd6d146101fe578063fc735e9914610227575b600080fd5b34156100a957600080fd5b6100b1610250565b6040516100be9190610efe565b60405180910390f35b34156100d257600080fd5b6100e760046100e2903690610de3565b610290565b6040516100f49190610efe565b60405180910390f35b341561010857600080fd5b61011d6004610118903690610e4a565b610350565b60405161012a9190610efe565b60405180910390f35b341561013e57600080fd5b610153600461014e903690610d3d565b610421565b6040516101609190610efe565b60405180910390f35b341561017457600080fd5b6101896004610184903690610da2565b61044d565b6040516101969190610efe565b60405180910390f35b34156101aa57600080fd5b6101bf60046101ba903690610d66565b61047e565b6040516101cc9190610efe565b60405180910390f35b34156101e057600080fd5b6101e861049c565b6040516101f59190610ee3565b60405180910390f35b341561020957600080fd5b610211610641565b60405161021e9190610ee3565b60405180910390f35b341561023257600080fd5b61023a610864565b6040516102479190610ee3565b60405180910390f35b60008060007f4e77dff73283c2bc58f889e982028d470ba4e97fdb86dc26ff99c6786ed65ce56001029150610286600183610c01565b9050809250505090565b60008383836040518084815260200183805190602001908083835b6020831015156102d057805182526020820191506020810190506020830392506102ab565b6001836020036101000a038019825116818451168082178552505050505050905001827dffffffffffffffffffffffffffffffffffffffffffffffffffffffffffff19167dffffffffffffffffffffffffffffffffffffffffffffffffffffffffffff191681526002019350505050604051809103902090509392505050565b6000848484846040518085815260200184805190602001908083835b602083101515610391578051825260208201915060208101905060208303925061036c565b6001836020036101000a038019825116818451168082178552505050505050905001837dffffffffffffffffffffffffffffffffffffffffffffffffffffffffffff19167dffffffffffffffffffffffffffffffffffffffffffffffffffffffffffff19168152600201826000191660001916815260200194505050505060405180910390209050949350505050565b600080826040518082600019166000191681526020019150506040518091039020905080915050919050565b6000610457610c97565b8290506000815114156104705760006001029150610478565b602083015191505b50919050565b6000610491836001900460055484610c44565b600102905092915050565b60008060008060008060008060007f5c35cd6f663b714ffcd4dee2b8bc165ad1aad93878ec0fee4f3406e35e63e7c260010297507f7dfe12a4d84102968982d60d491c2090afc72230982f3c12d6f8001010ebf1d76001029650610501600089610c01565b925061052d887fcfa8ccdd093a9f6c873e1aa45d977651c27007444a08d41bff2288a9cab58b6361047e565b935061053887610421565b955083861897506105c37fcfa8ccdd093a9f6c873e1aa45d977651c27007444a08d41bff2288a9cab58b636040805190810160405280600981526020017f4d4553534147452031000000000000000000000000000000000000000000000081525061186a7e01000000000000000000000000000000000000000000000000000000000000028b610350565b945084871896507f78a04764b973c95ddad5b3a467c4eb0619e0b42541ae0cf696322bd4a216cc7b60010291507f432f802170be57ab797350bbffe065081389093a2a17a7bad57b7f2055e9b38b600102905080600019168760001916148015610634575081600019168860001916145b9850505050505050505090565b60008060008060008060008060007f0c1c9f3c3766d25b908917a89cbed045c6a36c58b9ecb9be9598b17df57ba90b60010297507f468bcf51c1b980d9dab3cf126bac5e8f7d65d4c2ac669b937460e87f32c0e9a960010296506106a6600189610c01565b92506106d2887fa6f37bfe56d3c0545904a0f996a4003425207c3b9323921182e525fe934dd05b61047e565b93506106dd87610421565b955083861897506107e67fa6f37bfe56d3c0545904a0f996a4003425207c3b9323921182e525fe934dd05b6004600181548110151561071857fe5b90600052602060002090018054600181600116156101000203166002900480601f0160208091040260200160405190810160405280929190818152602001828054600181600116156101000203166002900480156107b75780601f1061078c576101008083540402835291602001916107b7565b820191906000526020600020905b81548152906001019060200180831161079a57829003601f168201915b5050505050613f357e01000000000000000000000000000000000000000000000000000000000000028b610350565b945084871896507f6a455479acc2827713ff460444bcc76e0d2a35ec0c04eb935ea14c5cc9adbea760010291507ff4bd28d50132e5e66aaaae4cd5c799254c7e675f394c41e8b67f2214f6e59370600102905080600019168760001916148015610857575081600019168860001916145b9850505050505050505090565b600080600080600080600080600080600080549950600154985060016006805490500393505b6000841115610a3f576108cb6002858154811015156108a557fe5b90600052602060002090602091828204019190069054906101000a900460ff168b610c01565b94506108f18a6006868154811015156108e057fe5b90600052602060002090015461047e565b95506108fc89610421565b97508588189950610a2a60068581548110151561091557fe5b90600052602060002090015460048681548110151561093057fe5b90600052602060002090018054600181600116156101000203166002900480601f0160208091040260200160405190810160405280929190818152602001828054600181600116156101000203166002900480156109cf5780601f106109a4576101008083540402835291602001916109cf565b820191906000526020600020905b8154815290600101906020018083116109b257829003601f168201915b50505050506003878154811015156109e357fe5b90600052602060002090601091828204019190066002029054906101000a90047e01000000000000000000000000000000000000000000000000000000000000028d610350565b9650868918985083806001900394505061088a565b610b6860066000815481101515610a5257fe5b90600052602060002090015460046000815481101515610a6e57fe5b90600052602060002090018054600181600116156101000203166002900480601f016020809104026020016040519081016040528092919081815260200182805460018160011615610100020316600290048015610b0d5780601f10610ae257610100808354040283529160200191610b0d565b820191906000526020600020905b815481529060010190602001808311610af057829003601f168201915b505050505060036000815481101515610b2257fe5b90600052602060002090601091828204019190066002029054906101000a90047e0100000000000000000000000000000000000000000000000000000000000002610290565b9250610b7389610421565b9150610bd2610bb160026000815481101515610b8b57fe5b90600052602060002090602091828204019190069054906101000a900460ff168c610c01565b60066000815481101515610bc157fe5b90600052602060002090015461047e565b905080600019168260001916148015610bf2575088600019168360001916145b9a505050505050505050505090565b60008215610c3a577f80000000000000000000000000000000000000000000000000000000000000008260019004016001029050610c3e565b8190505b92915050565b60008060019150600190505b8381111515610c8f576000818516141515610c755782801515610c6f57fe5b85830991505b82801515610c7f57fe5b8586099450600281029050610c50565b509392505050565b602060405190810160405280600081525090565b6000610cb78235610f88565b905092915050565b6000610ccb8235610fb4565b905092915050565b600082601f8301121515610ce657600080fd5b8135610cf9610cf482610f46565b610f19565b91508082526020830160208301858383011115610d1557600080fd5b610d20838284610fc8565b50505092915050565b6000610d358235610fbe565b905092915050565b600060208284031215610d4f57600080fd5b6000610d5d84828501610cbf565b91505092915050565b60008060408385031215610d7957600080fd5b6000610d8785828601610cbf565b9250506020610d9885828601610d29565b9150509250929050565b600060208284031215610db457600080fd5b600082013567ffffffffffffffff811115610dce57600080fd5b610dda84828501610cd3565b91505092915050565b600080600060608486031215610df857600080fd5b6000610e0686828701610d29565b935050602084013567ffffffffffffffff811115610e2357600080fd5b610e2f86828701610cd3565b9250506040610e4086828701610cab565b9150509250925092565b60008060008060808587031215610e6057600080fd5b6000610e6e87828801610d29565b945050602085013567ffffffffffffffff811115610e8b57600080fd5b610e9787828801610cd3565b9350506040610ea887828801610cab565b9250506060610eb987828801610cbf565b91505092959194509250565b610ece81610f72565b82525050565b610edd81610f7e565b82525050565b6000602082019050610ef86000830184610ec5565b92915050565b6000602082019050610f136000830184610ed4565b92915050565b6000604051905081810181811067ffffffffffffffff82111715610f3c57600080fd5b8060405250919050565b600067ffffffffffffffff821115610f5d57600080fd5b601f19601f8301169050602081019050919050565b60008115159050919050565b6000819050919050565b60007fffff00000000000000000000000000000000000000000000000000000000000082169050919050565b6000819050919050565b6000819050919050565b828183376000838301525050505600a265627a7a72305820dd9641242a3ce57a33145c73b78aadb928b8268c61eda882dd95475efa8f3de96c6578706572696d656e74616cf50037",
  "source": "pragma solidity 0.4.21;\npragma experimental ABIEncoderV2;\n\ncontract BGRSmall {\n\n    bytes32 x = bytes32(18115390633149407653339833018649393973660880445469525020077358032081985937997);\n    bytes32 h = bytes32(11559775926174368905745592433081596904384683309495480316690029641247127684734);\n\n    bool[] b = [false, false, false];\n    bytes2[] r = [bytes2(6566), bytes2(31966), bytes2(60634)];\n\n    string[] messages = [\n    \"MESSAGE 0\",\n    \"MESSAGE 1\",\n    \"MESSAGE 2\"\n    ];\n\n    //Simulation of PKI\n    uint256 e = 65537;\n    uint256[] modulus = [\n    97885221880545131614956327669353796100886093042909598927834387463561749905353,\n    91542019175266321384222930621953011415273958814303191515601836249299334964037,\n    96346107315202996585852262992425589636144460118263479845834058492693067329513\n    ];\n\n    function test() returns(bool) {\n        /*\n       x0 48067657424336353606332271955203152262108042684260758989777771218257675402919\n       h0 110698550962008875660816179094143079823491013343052579972863588172519883248496\n       b: [false true]\n       pk0: [{100559639697891460902764141020356907258428814093396659529555505846242710753001 65537}\n       pk1: {75514132473334443068127286379962420780446675478900207212147158057076204097627 65537}]\n       sigx 5478324901913405590120700960084756849033925727756286198862916110070595692811\n       sigh 31908922008483892227221543185441079020097797844702142216235016446839414122921\n       r0  31713\n       r1 16181\n       */\n\n        bytes32 x_prev = bytes32(5478324901913405590120700960084756849033925727756286198862916110070595692811); //sig.x\n        bytes32 h_prev = bytes32(31908922008483892227221543185441079020097797844702142216235016446839414122921); //sig.h\n\n        bytes32 g;\n        bytes32 eta;\n        bytes32 y;\n        bytes32 X;\n\n        //Line 2\n        X = split_inverse(true, x_prev);\n        y = pi(x_prev, 75514132473334443068127286379962420780446675478900207212147158057076204097627);\n\n        //Line 3 G\n        g = GHash(h_prev);\n\n        //Line 4\n        x_prev = g ^ y;\n\n        //Line 5 H\n        eta = HHash(75514132473334443068127286379962420780446675478900207212147158057076204097627, messages[1], 16181, x_prev);\n\n        //Line 6\n        h_prev = h_prev ^ eta;\n\n        //Now should be x1 h1\n        bytes32 x_0 = bytes32(48067657424336353606332271955203152262108042684260758989777771218257675402919);\n        bytes32 h_0 = bytes32(110698550962008875660816179094143079823491013343052579972863588172519883248496);\n        return h_prev == h_0 && x_prev == x_0;\n    }\n\n    //function verify(string[] messages, bytes32 x, bytes32 h, bytes2[] r, bool[] b) returns (bool) {\n    function verify() returns (bool) {\n        bytes32 x_prev = x;\n        bytes32 h_prev = h;\n\n        bytes32 g;\n        bytes32 eta;\n        bytes32 y;\n        bytes32 X;\n\n        for (uint i = modulus.length - 1; i > 0; i--) {\n            //Line 2\n            X = split_inverse(b[i], x_prev);\n            y = pi(x_prev, modulus[i]);\n\n            //Line 3 G\n            g = GHash(h_prev);\n\n            //Line 4\n            x_prev = g ^ y;\n\n            //Line 5 H\n            eta = HHash(modulus[i], messages[i], r[i], x_prev);\n\n            //Line 6\n            h_prev = h_prev ^ eta;\n        }\n\n        //Line 7\n        //bytes32 h_hash = HHash(modulus[0], messages[0], r[0], bytes32(0)); //this is tested\n        bytes32 h_hash = HHashBase(modulus[0], messages[0], r[0]);\n        bytes32 g_hash = GHash(h_prev); //this is tested\n\n        bytes32 pig = pi(split_inverse(b[0], x_prev), modulus[0]); //this is tested\n\n        return g_hash == pig && h_hash == h_prev;\n    }\n\n    function GHash(bytes32 x) pure returns (bytes32) {\n        bytes32 hash = keccak256(x);\n        //hash[0] = 0x00;\n        return hash;\n    }\n\n    function HHash(uint256 pk, string m, bytes2 r, bytes32 x) pure returns (bytes32) {\n        return keccak256(pk, m, r, x);\n    }\n\n    function HHashBase(uint256 pk, string m, bytes2 r) pure returns (bytes32) {\n        // this seems to work if Go uses x=nil\n        return keccak256(pk, m, r);\n    }\n\n    function pi(bytes32 val, uint256 mod) returns (bytes32) {\n        return bytes32(modExp(uint256(val), e, mod));\n    }\n\n    function modExp(uint256 base, uint256 exp, uint256 mod) internal returns (uint256 result)  {\n        result = 1;\n        for (uint count = 1; count <= exp; count *= 2) {\n            if (exp & count != 0)\n                result = mulmod(result, base, mod);\n            base = mulmod(base, base, mod);\n        }\n    }\n\n    function stringToBytes32(string memory source) returns (bytes32 result) {\n        bytes memory tempEmptyStringTest = bytes(source);\n        if (tempEmptyStringTest.length == 0) {\n            return 0x0;\n        }\n\n        assembly {\n            result := mload(add(source, 32))\n        }\n    }\n\n    function split_inverse(bool b, bytes32 x) internal returns (bytes32) {\n        if (b) {\n            return bytes32(uint256(x) + uint256(57896044618658097711785492504343953926634992332820282019728792003956564819968));\n            //NOTE: 2 ** 255 = 57896044618658097711785492504343953926634992332820282019728792003956564819968\n        }\n        else {\n            return x;\n        }\n    }\n\n\n    function testsplitreverse() returns (bytes32) {\n        //output should be\n        //{206, 119, 223, 247, 50, 131, 194, 188, 88, 248, 137, 233, 130, 2, 141, 71, 11, 164, 233, 127, 219, 134, 220, 38, 255, 153, 198, 120, 110, 214, 92, 229}\n        bytes32 test = bytes32(35492202744065384896209724461799058330743915199574411635769998350682397498597);\n        bytes32 test_joined = split_inverse(true, test);\n        return test_joined;\n    }\n\n    function testIterationWhereBFalse() returns(bool) {\n        /**\n        x0 [120 160 71 100 185 115 201 93 218 213 179 164 103 196 235 6 25 224 180 37 65 174 12 246 150 50 43 212 162 22 204 123]\n        x0 54560730099872202741014348823700252121970690209029593489829040881417946844283\n        h0 [67 47 128 33 112 190 87 171 121 115 80 187 255 224 101 8 19 137 9 58 42 23 167 186 213 123 127 32 85 233 179 139]\n        h0 30388886992207340305962404453616357726282684957228414817761178193477287654283\n\n        b: [false false]\n        pk0: [{102743022338080698399822885770321843460142630877362568352134398440806099155583 65537}\n        pk1: {93927003878993796301442461976674285725878507388897556398417324507303901498211 65537}]\n        x 41707842825415241247613949009888182739661538314057289794544731069070621009858\n        h 56988013903001702417510710329046235085305234412217927901605658221842631750103\n        r0 61769\n        r1 6250\n        */\n\n        bytes32 x_prev = bytes32(41707842825415241247613949009888182739661538314057289794544731069070621009858); //sig.x\n        bytes32 h_prev = bytes32(56988013903001702417510710329046235085305234412217927901605658221842631750103); //sig.h\n\n        bytes32 g;\n        bytes32 eta;\n        bytes32 y;\n        bytes32 X;\n\n        //Line 2\n        X = split_inverse(false, x_prev);\n        y = pi(x_prev, 93927003878993796301442461976674285725878507388897556398417324507303901498211);\n\n        //Line 3 G\n        g = GHash(h_prev);\n\n        //Line 4\n        x_prev = g ^ y;\n\n        //Line 5 H\n        eta = HHash(93927003878993796301442461976674285725878507388897556398417324507303901498211, \"MESSAGE 1\", 6250, x_prev);\n\n        //Line 6\n        h_prev = h_prev ^ eta;\n\n        //Now should be x1 h1\n        bytes32 x_0 = bytes32(54560730099872202741014348823700252121970690209029593489829040881417946844283);\n        bytes32 h_0 = bytes32(30388886992207340305962404453616357726282684957228414817761178193477287654283);\n        return h_prev == h_0 && x_prev == x_0;\n    }\n\n}\n",
  "sourcePath": "/home/bjorn/Projects/BGRVerify/contracts/BGRSmall.sol",
  "compiler": {
    "name": "solc",
    "version": "0.4.21+commit.dfe3193c.Emscripten.clang"
  },
  "schemaVersion": "2.0.0",
  "updatedAt": "2018-05-29T15:09:56.526Z"
}