{
  "contractName": "BGRSmall",
  "abi": [
    {
      "constant": false,
      "inputs": [],
      "name": "verify",
      "outputs": [
        {
          "name": "",
          "type": "bool"
        }
      ],
      "payable": false,
      "stateMutability": "nonpayable",
      "type": "function"
    },
    {
      "constant": true,
      "inputs": [
        {
          "name": "x",
          "type": "bytes32"
        }
      ],
      "name": "GHash",
      "outputs": [
        {
          "name": "",
          "type": "bytes32"
        }
      ],
      "payable": false,
      "stateMutability": "pure",
      "type": "function"
    },
    {
      "constant": true,
      "inputs": [
        {
          "name": "pk",
          "type": "uint256"
        },
        {
          "name": "m",
          "type": "string"
        },
        {
          "name": "r",
          "type": "bytes2"
        },
        {
          "name": "x",
          "type": "bytes32"
        }
      ],
      "name": "HHash",
      "outputs": [
        {
          "name": "",
          "type": "bytes32"
        }
      ],
      "payable": false,
      "stateMutability": "pure",
      "type": "function"
    },
    {
      "constant": false,
      "inputs": [
        {
          "name": "val",
          "type": "bytes32"
        },
        {
          "name": "signer",
          "type": "uint256"
        }
      ],
      "name": "pi",
      "outputs": [
        {
          "name": "",
          "type": "bytes32"
        }
      ],
      "payable": false,
      "stateMutability": "nonpayable",
      "type": "function"
    },
    {
      "constant": false,
      "inputs": [
        {
          "name": "source",
          "type": "string"
        }
      ],
      "name": "stringToBytes32",
      "outputs": [
        {
          "name": "result",
          "type": "bytes32"
        }
      ],
      "payable": false,
      "stateMutability": "nonpayable",
      "type": "function"
    },
    {
      "constant": false,
      "inputs": [
        {
          "name": "b",
          "type": "bool"
        },
        {
          "name": "x",
          "type": "bytes32"
        }
      ],
      "name": "split_inverse",
      "outputs": [
        {
          "name": "",
          "type": "bytes32"
        }
      ],
      "payable": false,
      "stateMutability": "nonpayable",
      "type": "function"
    }
  ],
  "bytecode": "0x6060604052670dd8055bea70f477600102600090600019169055670dd8055bea70f4776001026001906000191690556040805190810160405280600115151515815260200160001515151581525060029060026200005f92919062000263565b50604080519081016040528060027e01000000000000000000000000000000000000000000000000000000000000027dffffffffffffffffffffffffffffffffffffffffffffffffffffffffffff19167dffffffffffffffffffffffffffffffffffffffffffffffffffffffffffff1916815260200160027e01000000000000000000000000000000000000000000000000000000000000027dffffffffffffffffffffffffffffffffffffffffffffffffffffffffffff19167dffffffffffffffffffffffffffffffffffffffffffffffffffffffffffff191681525060039060026200014f92919062000310565b5060408051908101604052806040805190810160405280600981526020017f4d4553534147452031000000000000000000000000000000000000000000000081525081526020016040805190810160405280600981526020017f4d455353414745203200000000000000000000000000000000000000000000008152508152506004906002620001e1929190620003df565b506201000160055560408051908101604052807ff64e362569e2a50f90204d9a16f6834e130c8b9f2a590feecfa21a37487344d381526020017fe222aa72c1f6d4178b34005d1c3a4b7b523163379e643ab5c6a2ea0a78740e9b81525060069060026200025092919062000446565b5034156200025d57600080fd5b6200062b565b82805482825590600052602060002090601f01602090048101928215620002fd5791602002820160005b83821115620002cc57835183826101000a81548160ff02191690831515021790555092602001926001016020816000010492830192600103026200028d565b8015620002fb5782816101000a81549060ff0219169055600101602081600001049283019260010302620002cc565b505b5090506200030c919062000498565b5090565b82805482825590600052602060002090600f01601090048101928215620003cc5791602002820160005b838211156200039a57835183826101000a81548161ffff02191690837e010000000000000000000000000000000000000000000000000000000000009004021790555092602001926002016020816001010492830192600103026200033a565b8015620003ca5782816101000a81549061ffff02191690556002016020816001010492830192600103026200039a565b505b509050620003db9190620004cb565b5090565b82805482825590600052602060002090810192821562000433579160200282015b828111156200043257825182908051906020019062000421929190620004ff565b509160200191906001019062000400565b5b50905062000442919062000586565b5090565b82805482825590600052602060002090810192821562000485579160200282015b828111156200048457825182559160200191906001019062000467565b5b509050620004949190620005b7565b5090565b620004c891905b80821115620004c457600081816101000a81549060ff0219169055506001016200049f565b5090565b90565b620004fc91905b80821115620004f857600081816101000a81549061ffff021916905550600101620004d2565b5090565b90565b828054600181600116156101000203166002900490600052602060002090601f016020900481019282601f106200054257805160ff191683800117855562000573565b8280016001018555821562000573579182015b828111156200057257825182559160200191906001019062000555565b5b509050620005829190620005b7565b5090565b620005b491905b80821115620005b05760008181620005a69190620005df565b506001016200058d565b5090565b90565b620005dc91905b80821115620005d8576000816000905550600101620005be565b5090565b90565b50805460018160011615610100020316600290046000825580601f1062000607575062000628565b601f016020900490600052602060002090810190620006279190620005b7565b5b50565b610a99806200063b6000396000f300606060405260043610610078576000357c0100000000000000000000000000000000000000000000000000000000900463ffffffff16806357db91fc1461007d578063b99c5ce9146100b3578063cfb51928146100e9578063d912fb971461011f578063f394a6bd14610155578063fc735e991461018b575b600080fd5b341561008857600080fd5b61009d60046100989036906108c6565b6101b4565b6040516100aa919061097a565b60405180910390f35b34156100be57600080fd5b6100d360046100ce903690610820565b610285565b6040516100e0919061097a565b60405180910390f35b34156100f457600080fd5b6101096004610104903690610885565b6102b1565b604051610116919061097a565b60405180910390f35b341561012a57600080fd5b61013f600461013a9036906107e4565b6102e2565b60405161014c919061097a565b60405180910390f35b341561016057600080fd5b6101756004610170903690610849565b610306565b604051610182919061097a565b60405180910390f35b341561019657600080fd5b61019e610346565b6040516101ab919061095f565b60405180910390f35b6000848484846040518085815260200184805190602001908083835b6020831015156101f557805182526020820191506020810190506020830392506101d0565b6001836020036101000a038019825116818451168082178552505050505050905001837dffffffffffffffffffffffffffffffffffffffffffffffffffffffffffff19167dffffffffffffffffffffffffffffffffffffffffffffffffffffffffffff19168152600201826000191660001916815260200194505050505060405180910390209050949350505050565b600080826040518082600019166000191681526020019150506040518091039020905080915050919050565b60006102bb61072a565b8290506000815114156102d457600060010291506102dc565b602083015191505b50919050565b600082156102fc5760808260019004036001029050610300565b8190505b92915050565b60008060068381548110151561031857fe5b90600052602060002090015460055485600190041881151561033657fe5b0690508060010291505092915050565b600080600080600080600080600080600080549950600154985060016006805490500393505b6000841115610542576103ad60028581548110151561038757fe5b90600052602060002090602091828204019190069054906101000a900460ff168b6102e2565b94506103b98a85610306565b9550886040518082600019166000191681526020019150506040518091039020975085881899506006848154811015156103ef57fe5b90600052602060002090015460048581548110151561040a57fe5b906000526020600020900160038681548110151561042457fe5b90600052602060002090601091828204019190066002029054906101000a90047e01000000000000000000000000000000000000000000000000000000000000028c60405180858152602001848054600181600116156101000203166002900480156104c75780601f106104a55761010080835404028352918201916104c7565b820191906000526020600020905b8154815290600101906020018083116104b3575b5050837dffffffffffffffffffffffffffffffffffffffffffffffffffffffffffff19167dffffffffffffffffffffffffffffffffffffffffffffffffffffffffffff19168152600201826000191660001916815260200194505050505060405180910390209650868918985083806001900394505061036c565b6006600081548110151561055257fe5b9060005260206000209001546004600081548110151561056e57fe5b90600052602060002090016003600081548110151561058957fe5b90600052602060002090601091828204019190066002029054906101000a90047e0100000000000000000000000000000000000000000000000000000000000002600060010260405180858152602001848054600181600116156101000203166002900480156106305780601f1061060e576101008083540402835291820191610630565b820191906000526020600020905b81548152906001019060200180831161061c575b5050837dffffffffffffffffffffffffffffffffffffffffffffffffffffffffffff19167dffffffffffffffffffffffffffffffffffffffffffffffffffffffffffff1916815260020182600019166000191681526020019450505050506040518091039020925088604051808260001916600019168152602001915050604051809103902091506106fb6106f4600260008154811015156106ce57fe5b90600052602060002090602091828204019190069054906101000a900460ff168c6102e2565b6000610306565b90508260001916896000191614801561071b575081600019168160001916145b9a505050505050505050505090565b602060405190810160405280600081525090565b600061074a8235610a04565b905092915050565b600061075e8235610a10565b905092915050565b60006107728235610a3c565b905092915050565b600082601f830112151561078d57600080fd5b81356107a061079b826109c2565b610995565b915080825260208301602083018583830111156107bc57600080fd5b6107c7838284610a50565b50505092915050565b60006107dc8235610a46565b905092915050565b600080604083850312156107f757600080fd5b60006108058582860161073e565b925050602061081685828601610766565b9150509250929050565b60006020828403121561083257600080fd5b600061084084828501610766565b91505092915050565b6000806040838503121561085c57600080fd5b600061086a85828601610766565b925050602061087b858286016107d0565b9150509250929050565b60006020828403121561089757600080fd5b600082013567ffffffffffffffff8111156108b157600080fd5b6108bd8482850161077a565b91505092915050565b600080600080608085870312156108dc57600080fd5b60006108ea878288016107d0565b945050602085013567ffffffffffffffff81111561090757600080fd5b6109138782880161077a565b935050604061092487828801610752565b925050606061093587828801610766565b91505092959194509250565b61094a816109ee565b82525050565b610959816109fa565b82525050565b60006020820190506109746000830184610941565b92915050565b600060208201905061098f6000830184610950565b92915050565b6000604051905081810181811067ffffffffffffffff821117156109b857600080fd5b8060405250919050565b600067ffffffffffffffff8211156109d957600080fd5b601f19601f8301169050602081019050919050565b60008115159050919050565b6000819050919050565b60008115159050919050565b60007fffff00000000000000000000000000000000000000000000000000000000000082169050919050565b6000819050919050565b6000819050919050565b828183376000838301525050505600a265627a7a723058202052d6138f6e0a3085ef1b08b94783de31a11b33dccb953a7b831b91468b1afd6c6578706572696d656e74616cf50037",
  "source": "pragma solidity 0.4.21;\npragma experimental ABIEncoderV2;\n\ncontract BGRSmall {\n\n    bytes32 x = bytes32(997553209795998839);\n    bytes32 h = bytes32(997553209795998839);\n\n    bool[] b = [true, false];\n    bytes2[] r = [bytes2(2), bytes2(2)];\n\n    string[] messages = [\n    \"MESSAGE 1\",\n    \"MESSAGE 2\"\n    ];\n\n    //Simulation of PKI\n    uint e = 65537;\n    uint[] modulus = [\n        111407148525508025767718379751758291964614386688624532754672299329456855794899,\n        102283952970760354931552657672140997299422871062984001550601562917514908012187\n    ];\n\n    //function verify(string[] messages, bytes32 x, bytes32 h, bytes2[] r, bool[] b) returns (bool) {\n    function verify() returns (bool) {\n        bytes32 x_prev = x;\n        bytes32 h_prev = h;\n\n        bytes32 g;\n        bytes32 eta;\n        bytes32 y;\n        bytes32 X;\n\n        for (uint i = modulus.length - 1; i > 0; i--) {\n            //Line 2\n            X = split_inverse(b[i], x_prev);\n            y = pi(x_prev, i);\n\n            //Line 3 G\n            g = keccak256(h_prev);\n\n            //Line 4\n            x_prev = g ^ y;\n\n            //Line 5 H\n            eta = keccak256(modulus[i], messages[i], r[i], x_prev);\n\n            //Line 6\n            h_prev = h_prev ^ eta;\n        }\n\n        //Line 7\n        bytes32 h_hash = keccak256(modulus[0], messages[0], r[0], bytes32(0));\n        bytes32 g_hash = keccak256(h_prev);\n        bytes32 pig = pi(split_inverse(b[0], x_prev), 0);\n\n        return (h_prev == h_hash) && (pig == g_hash);\n    }\n\n    function GHash(bytes32 x) pure returns (bytes32) {\n        bytes32 hash = keccak256(x);\n        //hash[0] = 0x00;\n        return hash;\n    }\n\n    function HHash(uint pk, string m, bytes2 r, bytes32 x) pure returns (bytes32) {\n        return keccak256(pk, m, r, x);\n    }\n\n    function pi(bytes32 val, uint signer) returns (bytes32) {\n        uint res = (uint(val)^e) % modulus[signer];\n        return bytes32(res);\n    }\n\n    function stringToBytes32(string memory source) returns (bytes32 result) {\n        bytes memory tempEmptyStringTest = bytes(source);\n        if (tempEmptyStringTest.length == 0) {\n            return 0x0;\n        }\n\n        assembly {\n            result := mload(add(source, 32))\n        }\n    }\n\n    function split_inverse(bool b, bytes32 x) returns (bytes32) {\n        if (b) {\n            return bytes32(uint(x) - 128);\n        }\n        else {\n            return x;\n        }\n    }\n}\n",
  "sourcePath": "/home/bjorn/Projects/BGRVerify/contracts/BGRSmall.sol",
  "compiler": {
    "name": "solc",
    "version": "0.4.21+commit.dfe3193c.Emscripten.clang"
  },
  "schemaVersion": "2.0.0",
  "updatedAt": "2018-05-28T15:34:26.818Z"
}