{
  "contractName": "BGRSmall",
  "abi": [
    {
      "constant": false,
      "inputs": [],
      "name": "test",
      "outputs": [
        {
          "name": "",
          "type": "bytes32"
        }
      ],
      "payable": false,
      "stateMutability": "nonpayable",
      "type": "function"
    },
    {
      "constant": false,
      "inputs": [],
      "name": "verify",
      "outputs": [
        {
          "name": "",
          "type": "bool"
        }
      ],
      "payable": false,
      "stateMutability": "nonpayable",
      "type": "function"
    },
    {
      "constant": true,
      "inputs": [
        {
          "name": "x",
          "type": "bytes32"
        }
      ],
      "name": "GHash",
      "outputs": [
        {
          "name": "",
          "type": "bytes32"
        }
      ],
      "payable": false,
      "stateMutability": "pure",
      "type": "function"
    },
    {
      "constant": true,
      "inputs": [
        {
          "name": "pk",
          "type": "uint256"
        },
        {
          "name": "m",
          "type": "string"
        },
        {
          "name": "r",
          "type": "bytes2"
        },
        {
          "name": "x",
          "type": "bytes32"
        }
      ],
      "name": "HHash",
      "outputs": [
        {
          "name": "",
          "type": "bytes32"
        }
      ],
      "payable": false,
      "stateMutability": "pure",
      "type": "function"
    },
    {
      "constant": true,
      "inputs": [
        {
          "name": "pk",
          "type": "uint256"
        },
        {
          "name": "m",
          "type": "string"
        },
        {
          "name": "r",
          "type": "bytes2"
        }
      ],
      "name": "HHashBase",
      "outputs": [
        {
          "name": "",
          "type": "bytes32"
        }
      ],
      "payable": false,
      "stateMutability": "pure",
      "type": "function"
    },
    {
      "constant": false,
      "inputs": [
        {
          "name": "val",
          "type": "bytes32"
        },
        {
          "name": "signer",
          "type": "uint256"
        }
      ],
      "name": "pi",
      "outputs": [
        {
          "name": "",
          "type": "bytes32"
        }
      ],
      "payable": false,
      "stateMutability": "nonpayable",
      "type": "function"
    },
    {
      "constant": false,
      "inputs": [
        {
          "name": "source",
          "type": "string"
        }
      ],
      "name": "stringToBytes32",
      "outputs": [
        {
          "name": "result",
          "type": "bytes32"
        }
      ],
      "payable": false,
      "stateMutability": "nonpayable",
      "type": "function"
    }
  ],
  "bytecode": "0x60606040527f280cf29f95f9027c8f8002fbba0e742ef087f7e508659b2ef5f0b7004b8b224d6001026000906000191690557f198e99efa8cabcb4438cb003481042807040d70908ae73075425fdc656c6c67e6001026001906000191690556060604051908101604052806000151515158152602001600015151515815260200160001515151581525060029060036200009b92919062000370565b506060604051908101604052806119a67e01000000000000000000000000000000000000000000000000000000000000027dffffffffffffffffffffffffffffffffffffffffffffffffffffffffffff19167dffffffffffffffffffffffffffffffffffffffffffffffffffffffffffff19168152602001617cde7e01000000000000000000000000000000000000000000000000000000000000027dffffffffffffffffffffffffffffffffffffffffffffffffffffffffffff19167dffffffffffffffffffffffffffffffffffffffffffffffffffffffffffff1916815260200161ecda7e01000000000000000000000000000000000000000000000000000000000000027dffffffffffffffffffffffffffffffffffffffffffffffffffffffffffff19167dffffffffffffffffffffffffffffffffffffffffffffffffffffffffffff19168152506003906003620001f99291906200041d565b506060604051908101604052806040805190810160405280600981526020017f4d4553534147452030000000000000000000000000000000000000000000000081525081526020016040805190810160405280600981526020017f4d4553534147452031000000000000000000000000000000000000000000000081525081526020016040805190810160405280600981526020017f4d455353414745203200000000000000000000000000000000000000000000008152508152506004906003620002c7929190620004ec565b50620100016005556060604051908101604052807fd869127e9b7217052d61714bf2b2f14f43ca2e255d004560155a02a150aabfc981526020017fca62f25db66246eb26d7f96e97a744c131717a2f099aa11ba77d9656ab2ba34581526020017fd501f6da7bc0f758109fad3cae91fd90c9881357d511d3ba5f799c56a123efe981525060069060036200035d92919062000553565b5034156200036a57600080fd5b62000738565b82805482825590600052602060002090601f016020900481019282156200040a5791602002820160005b83821115620003d957835183826101000a81548160ff02191690831515021790555092602001926001016020816000010492830192600103026200039a565b8015620004085782816101000a81549060ff0219169055600101602081600001049283019260010302620003d9565b505b509050620004199190620005a5565b5090565b82805482825590600052602060002090600f01601090048101928215620004d95791602002820160005b83821115620004a757835183826101000a81548161ffff02191690837e0100000000000000000000000000000000000000000000000000000000000090040217905550926020019260020160208160010104928301926001030262000447565b8015620004d75782816101000a81549061ffff0219169055600201602081600101049283019260010302620004a7565b505b509050620004e89190620005d8565b5090565b82805482825590600052602060002090810192821562000540579160200282015b828111156200053f5782518290805190602001906200052e9291906200060c565b50916020019190600101906200050d565b5b5090506200054f919062000693565b5090565b82805482825590600052602060002090810192821562000592579160200282015b828111156200059157825182559160200191906001019062000574565b5b509050620005a19190620006c4565b5090565b620005d591905b80821115620005d157600081816101000a81549060ff021916905550600101620005ac565b5090565b90565b6200060991905b808211156200060557600081816101000a81549061ffff021916905550600101620005df565b5090565b90565b828054600181600116156101000203166002900490600052602060002090601f016020900481019282601f106200064f57805160ff191683800117855562000680565b8280016001018555821562000680579182015b828111156200067f57825182559160200191906001019062000662565b5b5090506200068f9190620006c4565b5090565b620006c191905b80821115620006bd5760008181620006b39190620006ec565b506001016200069a565b5090565b90565b620006e991905b80821115620006e5576000816000905550600101620006cb565b5090565b90565b50805460018160011615610100020316600290046000825580601f1062000714575062000735565b601f016020900490600052602060002090810190620007349190620006c4565b5b50565b610b8f80620007486000396000f300606060405260043610610083576000357c0100000000000000000000000000000000000000000000000000000000900463ffffffff168063318afc441461008857806357db91fc146100be578063b99c5ce9146100f4578063cfb519281461012a578063f394a6bd14610160578063f8a8fd6d14610196578063fc735e99146101bf575b600080fd5b341561009357600080fd5b6100a860046100a3903690610961565b6101e8565b6040516100b59190610a7c565b60405180910390f35b34156100c957600080fd5b6100de60046100d99036906109c8565b6102a8565b6040516100eb9190610a7c565b60405180910390f35b34156100ff57600080fd5b610114600461010f9036906108bb565b610379565b6040516101219190610a7c565b60405180910390f35b341561013557600080fd5b61014a6004610145903690610920565b6103a5565b6040516101579190610a7c565b60405180910390f35b341561016b57600080fd5b610180600461017b9036906108e4565b6103d6565b60405161018d9190610a7c565b60405180910390f35b34156101a157600080fd5b6101a961040e565b6040516101b69190610a7c565b60405180910390f35b34156101ca57600080fd5b6101d261044e565b6040516101df9190610a61565b60405180910390f35b60008383836040518084815260200183805190602001908083835b6020831015156102285780518252602082019150602081019050602083039250610203565b6001836020036101000a038019825116818451168082178552505050505050905001827dffffffffffffffffffffffffffffffffffffffffffffffffffffffffffff19167dffffffffffffffffffffffffffffffffffffffffffffffffffffffffffff191681526002019350505050604051809103902090509392505050565b6000848484846040518085815260200184805190602001908083835b6020831015156102e957805182526020820191506020810190506020830392506102c4565b6001836020036101000a038019825116818451168082178552505050505050905001837dffffffffffffffffffffffffffffffffffffffffffffffffffffffffffff19167dffffffffffffffffffffffffffffffffffffffffffffffffffffffffffff19168152600201826000191660001916815260200194505050505060405180910390209050949350505050565b600080826040518082600019166000191681526020019150506040518091039020905080915050919050565b60006103af610815565b8290506000815114156103c857600060010291506103d0565b602083015191505b50919050565b600061040383600190046005546006858154811015156103f257fe5b90600052602060002090015461077f565b600102905092915050565b60008060007f4e77dff73283c2bc58f889e982028d470ba4e97fdb86dc26ff99c6786ed65ce560010291506104446001836107d2565b9050809250505090565b600080600080600080600080600080600080549950600154985060016006805490500393505b600084111561060f576104b560028581548110151561048f57fe5b90600052602060002090602091828204019190069054906101000a900460ff168b6107d2565b94506104c18a856103d6565b95506104cc89610379565b975085881899506105fa6006858154811015156104e557fe5b90600052602060002090015460048681548110151561050057fe5b90600052602060002090018054600181600116156101000203166002900480601f01602080910402602001604051908101604052809291908181526020018280546001816001161561010002031660029004801561059f5780601f106105745761010080835404028352916020019161059f565b820191906000526020600020905b81548152906001019060200180831161058257829003601f168201915b50505050506003878154811015156105b357fe5b90600052602060002090601091828204019190066002029054906101000a90047e01000000000000000000000000000000000000000000000000000000000000028d6102a8565b96508689189850838060019003945050610474565b6107386006600081548110151561062257fe5b9060005260206000209001546004600081548110151561063e57fe5b90600052602060002090018054600181600116156101000203166002900480601f0160208091040260200160405190810160405280929190818152602001828054600181600116156101000203166002900480156106dd5780601f106106b2576101008083540402835291602001916106dd565b820191906000526020600020905b8154815290600101906020018083116106c057829003601f168201915b5050505050600360008154811015156106f257fe5b90600052602060002090601091828204019190066002029054906101000a90047e01000000000000000000000000000000000000000000000000000000000000026101e8565b925061074389610379565b91506107508a60006103d6565b905080600019168260001916148015610770575088600019168360001916145b9a505050505050505050505090565b60008060019150600190505b83811115156107ca5760008185161415156107b057828015156107aa57fe5b85830991505b828015156107ba57fe5b858609945060028102905061078b565b509392505050565b6000821561080b577f8000000000000000000000000000000000000000000000000000000000000000826001900401600102905061080f565b8190505b92915050565b602060405190810160405280600081525090565b60006108358235610b06565b905092915050565b60006108498235610b32565b905092915050565b600082601f830112151561086457600080fd5b813561087761087282610ac4565b610a97565b9150808252602083016020830185838301111561089357600080fd5b61089e838284610b46565b50505092915050565b60006108b38235610b3c565b905092915050565b6000602082840312156108cd57600080fd5b60006108db8482850161083d565b91505092915050565b600080604083850312156108f757600080fd5b60006109058582860161083d565b9250506020610916858286016108a7565b9150509250929050565b60006020828403121561093257600080fd5b600082013567ffffffffffffffff81111561094c57600080fd5b61095884828501610851565b91505092915050565b60008060006060848603121561097657600080fd5b6000610984868287016108a7565b935050602084013567ffffffffffffffff8111156109a157600080fd5b6109ad86828701610851565b92505060406109be86828701610829565b9150509250925092565b600080600080608085870312156109de57600080fd5b60006109ec878288016108a7565b945050602085013567ffffffffffffffff811115610a0957600080fd5b610a1587828801610851565b9350506040610a2687828801610829565b9250506060610a378782880161083d565b91505092959194509250565b610a4c81610af0565b82525050565b610a5b81610afc565b82525050565b6000602082019050610a766000830184610a43565b92915050565b6000602082019050610a916000830184610a52565b92915050565b6000604051905081810181811067ffffffffffffffff82111715610aba57600080fd5b8060405250919050565b600067ffffffffffffffff821115610adb57600080fd5b601f19601f8301169050602081019050919050565b60008115159050919050565b6000819050919050565b60007fffff00000000000000000000000000000000000000000000000000000000000082169050919050565b6000819050919050565b6000819050919050565b828183376000838301525050505600a265627a7a72305820086b56f5dbc9490e6843d297e9b1da9d34bb8a14d88953ff0bb1c17fef1c8ee56c6578706572696d656e74616cf50037",
  "source": "pragma solidity 0.4.21;\npragma experimental ABIEncoderV2;\n\ncontract BGRSmall {\n\n    bytes32 x = bytes32(18115390633149407653339833018649393973660880445469525020077358032081985937997);\n    bytes32 h = bytes32(11559775926174368905745592433081596904384683309495480316690029641247127684734);\n\n    bool[] b = [false, false, false];\n    bytes2[] r = [bytes2(6566), bytes2(31966), bytes2(60634)];\n\n    string[] messages = [\n    \"MESSAGE 0\",\n    \"MESSAGE 1\",\n    \"MESSAGE 2\"\n    ];\n\n    //Simulation of PKI\n    uint256 e = 65537;\n    uint256[] modulus = [\n    97885221880545131614956327669353796100886093042909598927834387463561749905353,\n    91542019175266321384222930621953011415273958814303191515601836249299334964037,\n    96346107315202996585852262992425589636144460118263479845834058492693067329513\n    ];\n\n    function test() returns (bytes32) {\n        //output should be\n        //{206, 119, 223, 247, 50, 131, 194, 188, 88, 248, 137, 233, 130, 2, 141, 71, 11, 164, 233, 127, 219, 134, 220, 38, 255, 153, 198, 120, 110, 214, 92, 229}\n        bytes32 test = bytes32(35492202744065384896209724461799058330743915199574411635769998350682397498597);\n        bytes32 test_joined = split_inverse(true, test);\n        return test_joined;\n        //the inverse seems to have no effect.\n    }\n\n    //function verify(string[] messages, bytes32 x, bytes32 h, bytes2[] r, bool[] b) returns (bool) {\n    function verify() returns (bool) {\n        bytes32 x_prev = x;\n        bytes32 h_prev = h;\n\n        bytes32 g;\n        bytes32 eta;\n        bytes32 y;\n        bytes32 X;\n\n        for (uint i = modulus.length - 1; i > 0; i--) {\n            //Line 2\n            X = split_inverse(b[i], x_prev);\n            y = pi(x_prev, i);\n\n            //Line 3 G\n            g = GHash(h_prev);\n\n            //Line 4\n            x_prev = g ^ y;\n\n            //Line 5 H\n            eta = HHash(modulus[i], messages[i], r[i], x_prev);\n\n            //Line 6\n            h_prev = h_prev ^ eta;\n        }\n\n        //Line 7\n        //bytes32 h_hash = HHash(modulus[0], messages[0], r[0], bytes32(0)); //this is tested\n        bytes32 h_hash = HHashBase(modulus[0], messages[0], r[0]); // this seems to work if Go uses nil\n        bytes32 g_hash = GHash(h_prev); //this is tested\n\n        bytes32 pig = pi(x_prev, 0); //this is tested\n\n        return g_hash == pig && h_hash == h_prev;\n    }\n\n    function GHash(bytes32 x) pure returns (bytes32) {\n        bytes32 hash = keccak256(x);\n        //hash[0] = 0x00;\n        return hash;\n    }\n\n    function HHash(uint256 pk, string m, bytes2 r, bytes32 x) pure returns (bytes32) {\n        return keccak256(pk, m, r, x);\n        //return keccak256(pk, m, r, x);\n    }\n\n    function HHashBase(uint256 pk, string m, bytes2 r) pure returns (bytes32) {\n        return keccak256(pk, m, r);\n        //return keccak256(pk, m, r, x);\n    }\n\n    function pi(bytes32 val, uint256 signer) returns (bytes32) {\n        return bytes32(modExp(uint256(val), e, modulus[signer]));\n    }\n\n    function modExp(uint256 base, uint256 exp, uint256 mod) internal returns (uint256 result)  {\n        result = 1;\n        for (uint count = 1; count <= exp; count *= 2) {\n            if (exp & count != 0)\n                result = mulmod(result, base, mod);\n            base = mulmod(base, base, mod);\n        }\n    }\n\n    function stringToBytes32(string memory source) returns (bytes32 result) {\n        bytes memory tempEmptyStringTest = bytes(source);\n        if (tempEmptyStringTest.length == 0) {\n            return 0x0;\n        }\n\n        assembly {\n            result := mload(add(source, 32))\n        }\n    }\n\n    function split_inverse(bool b, bytes32 x) internal returns (bytes32) {\n        if (b) {\n            return bytes32(uint256(x) + uint256(57896044618658097711785492504343953926634992332820282019728792003956564819968));\n            //NOTE: 2 ** 255 = 57896044618658097711785492504343953926634992332820282019728792003956564819968\n        }\n        else {\n            return x;\n        }\n    }\n}\n",
  "sourcePath": "/home/bjorn/Projects/BGRVerify/contracts/BGRSmall.sol",
  "compiler": {
    "name": "solc",
    "version": "0.4.21+commit.dfe3193c.Emscripten.clang"
  },
  "schemaVersion": "2.0.0",
  "updatedAt": "2018-05-29T13:28:51.624Z"
}