{
  "contractName": "BGRSmall",
  "abi": [
    {
      "constant": false,
      "inputs": [],
      "name": "verify",
      "outputs": [
        {
          "name": "",
          "type": "bool"
        }
      ],
      "payable": false,
      "stateMutability": "nonpayable",
      "type": "function"
    },
    {
      "constant": false,
      "inputs": [
        {
          "name": "val",
          "type": "bytes32"
        },
        {
          "name": "mod",
          "type": "uint256"
        }
      ],
      "name": "pi",
      "outputs": [
        {
          "name": "",
          "type": "bytes32"
        }
      ],
      "payable": false,
      "stateMutability": "nonpayable",
      "type": "function"
    },
    {
      "constant": false,
      "inputs": [],
      "name": "testsplitinverse",
      "outputs": [
        {
          "name": "",
          "type": "bytes32"
        }
      ],
      "payable": false,
      "stateMutability": "nonpayable",
      "type": "function"
    },
    {
      "constant": false,
      "inputs": [],
      "name": "testIterationWhereBFalse",
      "outputs": [
        {
          "name": "",
          "type": "bool"
        }
      ],
      "payable": false,
      "stateMutability": "nonpayable",
      "type": "function"
    },
    {
      "constant": false,
      "inputs": [],
      "name": "testIterationWhereBTrue",
      "outputs": [
        {
          "name": "",
          "type": "bool"
        }
      ],
      "payable": false,
      "stateMutability": "nonpayable",
      "type": "function"
    },
    {
      "constant": false,
      "inputs": [],
      "name": "testIterationWhereBTrue2",
      "outputs": [
        {
          "name": "",
          "type": "bytes32"
        }
      ],
      "payable": false,
      "stateMutability": "nonpayable",
      "type": "function"
    },
    {
      "constant": false,
      "inputs": [],
      "name": "testsplitpi",
      "outputs": [
        {
          "name": "",
          "type": "bytes32"
        }
      ],
      "payable": false,
      "stateMutability": "nonpayable",
      "type": "function"
    }
  ],
  "bytecode": "0x60606040527f3ec032e4858571910403e8b17b560b8c7be4aad2419a2202c8ed3f66fef591566001026000906000191690557f401540b4dd7b1c75d1fa90e332eb5744372093402d8661561add9db63dbed8cb600102600190600019169055602060405190810160405280600115151515815250600290600162000085929190620001c2565b50602060405190810160405280612e827e01000000000000000000000000000000000000000000000000000000000000027dffffffffffffffffffffffffffffffffffffffffffffffffffffffffffff19167dffffffffffffffffffffffffffffffffffffffffffffffffffffffffffff191681525060039060016200010d9291906200026f565b506020604051908101604052806040805190810160405280600981526020017f4d455353414745203000000000000000000000000000000000000000000000008152508152506004906001620001659291906200033e565b50620100016005556020604051908101604052807fc1ee36a7904df61eb2b8f5d82868f1872ccfff8cfc4123cadcf39ddda7af1dad8152506006906001620001af929190620003a5565b503415620001bc57600080fd5b6200058a565b82805482825590600052602060002090601f016020900481019282156200025c5791602002820160005b838211156200022b57835183826101000a81548160ff0219169083151502179055509260200192600101602081600001049283019260010302620001ec565b80156200025a5782816101000a81549060ff02191690556001016020816000010492830192600103026200022b565b505b5090506200026b9190620003f7565b5090565b82805482825590600052602060002090600f016010900481019282156200032b5791602002820160005b83821115620002f957835183826101000a81548161ffff02191690837e0100000000000000000000000000000000000000000000000000000000000090040217905550926020019260020160208160010104928301926001030262000299565b8015620003295782816101000a81549061ffff0219169055600201602081600101049283019260010302620002f9565b505b5090506200033a91906200042a565b5090565b82805482825590600052602060002090810192821562000392579160200282015b8281111562000391578251829080519060200190620003809291906200045e565b50916020019190600101906200035f565b5b509050620003a19190620004e5565b5090565b828054828255906000526020600020908101928215620003e4579160200282015b82811115620003e3578251825591602001919060010190620003c6565b5b509050620003f3919062000516565b5090565b6200042791905b808211156200042357600081816101000a81549060ff021916905550600101620003fe565b5090565b90565b6200045b91905b808211156200045757600081816101000a81549061ffff02191690555060010162000431565b5090565b90565b828054600181600116156101000203166002900490600052602060002090601f016020900481019282601f10620004a157805160ff1916838001178555620004d2565b82800160010185558215620004d2579182015b82811115620004d1578251825591602001919060010190620004b4565b5b509050620004e1919062000516565b5090565b6200051391905b808211156200050f57600081816200050591906200053e565b50600101620004ec565b5090565b90565b6200053b91905b80821115620005375760008160009055506001016200051d565b5090565b90565b50805460018160011615610100020316600290046000825580601f1062000566575062000587565b601f01602090049060005260206000209081019062000586919062000516565b5b50565b610e13806200059a6000396000f300606060405260043610610083576000357c0100000000000000000000000000000000000000000000000000000000900463ffffffff168063311aa03414610088578063ca495a35146100b1578063ea5249cf146100da578063f394a6bd14610103578063f428b37c14610139578063f538705b14610162578063fc735e991461018b575b600080fd5b341561009357600080fd5b61009b6101b4565b6040516100a89190610d94565b60405180910390f35b34156100bc57600080fd5b6100c4610217565b6040516100d19190610d79565b60405180910390f35b34156100e557600080fd5b6100ed6103a9565b6040516100fa9190610d94565b60405180910390f35b341561010e57600080fd5b610123600461011e903690610d1f565b6104e0565b6040516101309190610d94565b60405180910390f35b341561014457600080fd5b61014c6104fe565b6040516101599190610d94565b60405180910390f35b341561016d57600080fd5b61017561053e565b6040516101829190610d79565b60405180910390f35b341561019657600080fd5b61019e6106e3565b6040516101ab9190610d79565b60405180910390f35b6000806101e560017f3dbbf318a7eae0be5e3e57c64ec4e8b576b231d8845a203791f66be595e2d9ba600102610a80565b9050610211817fedbdba1ff3182627afda776c1d6c2a25d1ef1a381dbe441ac7567682453c03336104e0565b91505090565b60008060008060008060008060007f0c1c9f3c3766d25b908917a89cbed045c6a36c58b9ecb9be9598b17df57ba90b60010297507f468bcf51c1b980d9dab3cf126bac5e8f7d65d4c2ac669b937460e87f32c0e9a9600102965061027c600189610a80565b92506102a8887fa6f37bfe56d3c0545904a0f996a4003425207c3b9323921182e525fe934dd05b6104e0565b93506102b387610ac3565b9550838618975061033e7fa6f37bfe56d3c0545904a0f996a4003425207c3b9323921182e525fe934dd05b6040805190810160405280600981526020017f4d45535341474520310000000000000000000000000000000000000000000000815250613f357e01000000000000000000000000000000000000000000000000000000000000028b610b13565b945084871896507f6a455479acc2827713ff460444bcc76e0d2a35ec0c04eb935ea14c5cc9adbea760010291507ff4bd28d50132e5e66aaaae4cd5c799254c7e675f394c41e8b67f2214f6e59370600102905081600019168860001916149850505050505050505090565b60008060008060008060007f26591383526b273047f597130042026356aea4d2aaafb667a8fa5f2e6dcfb7f960010295507fa04e52b4bb4d6bfed8b5ebed23788e908e3292b1bb0681f8235167575c6be3a2600102945061040b600187610a80565b9050610437867fdc7d53788469e6fcb9bcb47af11bdd270f3f0154476b6b89aae900f02fe4a4016104e0565b915061044285610ac3565b935081841895506104cd7fdc7d53788469e6fcb9bcb47af11bdd270f3f0154476b6b89aae900f02fe4a4016040805190810160405280600981526020017f4d45535341474520310000000000000000000000000000000000000000000000815250615a507e010000000000000000000000000000000000000000000000000000000000000289610b13565b9250828518945085965050505050505090565b60006104f3836001900460055484610be4565b600102905092915050565b60008060007f4e77dff73283c2bc58f889e982028d470ba4e97fdb86dc26ff99c6786ed65ce56001029150610534600183610a80565b9050809250505090565b60008060008060008060008060007f5c35cd6f663b714ffcd4dee2b8bc165ad1aad93878ec0fee4f3406e35e63e7c260010297507f7dfe12a4d84102968982d60d491c2090afc72230982f3c12d6f8001010ebf1d760010296506105a3600089610a80565b92506105cf887fcfa8ccdd093a9f6c873e1aa45d977651c27007444a08d41bff2288a9cab58b636104e0565b93506105da87610ac3565b955083861897506106657fcfa8ccdd093a9f6c873e1aa45d977651c27007444a08d41bff2288a9cab58b636040805190810160405280600981526020017f4d4553534147452031000000000000000000000000000000000000000000000081525061186a7e01000000000000000000000000000000000000000000000000000000000000028b610b13565b945084871896507f78a04764b973c95ddad5b3a467c4eb0619e0b42541ae0cf696322bd4a216cc7b60010291507f432f802170be57ab797350bbffe065081389093a2a17a7bad57b7f2055e9b38b6001029050806000191687600019161480156106d6575081600019168860001916145b9850505050505050505090565b600080600080600080600080600080600080549950600154985060016006805490500393505b60008411156108be5761074a60028581548110151561072457fe5b90600052602060002090602091828204019190069054906101000a900460ff168b610a80565b94506107708a60068681548110151561075f57fe5b9060005260206000209001546104e0565b955061077b89610ac3565b975085881899506108a960068581548110151561079457fe5b9060005260206000209001546004868154811015156107af57fe5b90600052602060002090018054600181600116156101000203166002900480601f01602080910402602001604051908101604052809291908181526020018280546001816001161561010002031660029004801561084e5780601f106108235761010080835404028352916020019161084e565b820191906000526020600020905b81548152906001019060200180831161083157829003601f168201915b505050505060038781548110151561086257fe5b90600052602060002090601091828204019190066002029054906101000a90047e01000000000000000000000000000000000000000000000000000000000000028d610b13565b96508689189850838060019003945050610709565b6109e7600660008154811015156108d157fe5b906000526020600020900154600460008154811015156108ed57fe5b90600052602060002090018054600181600116156101000203166002900480601f01602080910402602001604051908101604052809291908181526020018280546001816001161561010002031660029004801561098c5780601f106109615761010080835404028352916020019161098c565b820191906000526020600020905b81548152906001019060200180831161096f57829003601f168201915b5050505050600360008154811015156109a157fe5b90600052602060002090601091828204019190066002029054906101000a90047e0100000000000000000000000000000000000000000000000000000000000002610c37565b92506109f289610ac3565b9150610a51610a3060026000815481101515610a0a57fe5b90600052602060002090602091828204019190069054906101000a900460ff168c610a80565b60066000815481101515610a4057fe5b9060005260206000209001546104e0565b905080600019168260001916148015610a71575088600019168360001916145b9a505050505050505050505090565b60008215610ab9577f80000000000000000000000000000000000000000000000000000000000000008260019004016001029050610abd565b8190505b92915050565b60008082604051808260001916600019168152602001915050604051809103902090507effffffffffffffffffffffffffffffffffffffffffffffffffffffffffffff6001028116915050919050565b6000848484846040518085815260200184805190602001908083835b602083101515610b545780518252602082019150602081019050602083039250610b2f565b6001836020036101000a038019825116818451168082178552505050505050905001837dffffffffffffffffffffffffffffffffffffffffffffffffffffffffffff19167dffffffffffffffffffffffffffffffffffffffffffffffffffffffffffff19168152600201826000191660001916815260200194505050505060405180910390209050949350505050565b60008060019150600190505b8381111515610c2f576000818516141515610c155782801515610c0f57fe5b85830991505b82801515610c1f57fe5b8586099450600281029050610bf0565b509392505050565b60008383836040518084815260200183805190602001908083835b602083101515610c775780518252602082019150602081019050602083039250610c52565b6001836020036101000a038019825116818451168082178552505050505050905001827dffffffffffffffffffffffffffffffffffffffffffffffffffffffffffff19167dffffffffffffffffffffffffffffffffffffffffffffffffffffffffffff191681526002019350505050604051809103902090509392505050565b6000610d038235610dc5565b905092915050565b6000610d178235610dcf565b905092915050565b60008060408385031215610d3257600080fd5b6000610d4085828601610cf7565b9250506020610d5185828601610d0b565b9150509250929050565b610d6481610daf565b82525050565b610d7381610dbb565b82525050565b6000602082019050610d8e6000830184610d5b565b92915050565b6000602082019050610da96000830184610d6a565b92915050565b60008115159050919050565b6000819050919050565b6000819050919050565b60008190509190505600a265627a7a7230582086219522b15f89628f7a98d180258b9b5c441eb87ff4c813ad853655ec101a686c6578706572696d656e74616cf50037",
  "source": "pragma solidity 0.4.21;\npragma experimental ABIEncoderV2;\n\ncontract BGRSmall {\n\n    bytes32 x = bytes32(28382982496846575821687578920925882275744793523622016317564012175120064155990);\n    bytes32 h = bytes32(28985572685570651067735126542460483521419604682504347023579801604738275793099);\n\n    bool[] b = [true];\n    bytes2[] r = [bytes2(11906)];\n\n    string[] messages = [\n    \"MESSAGE 0\"\n    ];\n\n    //Simulation of PKI\n    uint256 e = 65537;\n    uint256[] modulus = [\n    87717266589798529993548625762514656705959139540962453387006116321928477089197\n    ];\n\n    /*\n        NOTE: test de split en split_inverse of die ook problemen hebben door circular.\n    */\n\n    //function verify(string[] messages, bytes32 x, bytes32 h, bytes2[] r, bool[] b) returns (bool) {\n    function verify() returns (bool) {\n        bytes32 x_prev = x;\n        bytes32 h_prev = h;\n\n        bytes32 g;\n        bytes32 eta;\n        bytes32 y;\n        bytes32 X;\n\n        for (uint i = modulus.length - 1; i > 0; i--) {\n            //Line 2\n            X = split_inverse(b[i], x_prev);\n            y = pi(x_prev, modulus[i]);\n\n            //Line 3 G\n            g = GHash(h_prev);\n\n            //Line 4\n            x_prev = g ^ y;\n\n            //Line 5 H\n            eta = HHash(modulus[i], messages[i], r[i], x_prev);\n\n            //Line 6\n            h_prev = h_prev ^ eta;\n        }\n\n        //Line 7\n        bytes32 h_hash = HHashBase(modulus[0], messages[0], r[0]);\n        bytes32 g_hash = GHash(h_prev);\n\n        bytes32 pig = pi(split_inverse(b[0], x_prev), modulus[0]);\n\n        return g_hash == pig && h_hash == h_prev;\n    }\n\n    function GHash(bytes32 x) internal pure returns (bytes32) {\n        bytes32 hash = keccak256(x);\n        return hash & 0x00ffffffffffffffffffffffffffffffffffffffffffffffffffffffffffffff;\n        //return bytes32(uint256(hash) - uint256(57896044618658097711785492504343953926634992332820282019728792003956564819968));\n    }\n\n    function HHash(uint256 pk, string m, bytes2 r, bytes32 x) internal pure returns (bytes32) {\n        return keccak256(pk, m, r, x);\n    }\n\n    function HHashBase(uint256 pk, string m, bytes2 r) internal pure returns (bytes32) {\n        // this seems to work if Go uses x=nil\n        return keccak256(pk, m, r);\n    }\n\n    function pi(bytes32 val, uint256 mod) returns (bytes32) {\n        return bytes32(modExp(uint256(val), e, mod));\n    }\n\n    function modExp(uint256 base, uint256 exp, uint256 mod) internal pure returns (uint256 result)  {\n        result = 1;\n        for (uint count = 1; count <= exp; count *= 2) {\n            if (exp & count != 0)\n                result = mulmod(result, base, mod);\n            base = mulmod(base, base, mod);\n        }\n    }\n\n    function split_inverse(bool b, bytes32 x) internal pure returns (bytes32) {\n        if (b) {\n            return bytes32(uint256(x) + uint256(57896044618658097711785492504343953926634992332820282019728792003956564819968));\n            //NOTE: 2 ** 255 = 57896044618658097711785492504343953926634992332820282019728792003956564819968\n        }\n        else {\n            return x;\n        }\n    }\n\n    function testsplitinverse() returns (bytes32) {\n        //output should be\n        //{206, 119, 223, 247, 50, 131, 194, 188, 88, 248, 137, 233, 130, 2, 141, 71, 11, 164, 233, 127, 219, 134, 220, 38, 255, 153, 198, 120, 110, 214, 92, 229}\n        bytes32 test = bytes32(35492202744065384896209724461799058330743915199574411635769998350682397498597);\n        bytes32 test_joined = split_inverse(true, test);\n        return test_joined;\n    }\n\n    function testIterationWhereBFalse() returns(bool) {\n        /**\n        x0 [120 160 71 100 185 115 201 93 218 213 179 164 103 196 235 6 25 224 180 37 65 174 12 246 150 50 43 212 162 22 204 123]\n        x0 54560730099872202741014348823700252121970690209029593489829040881417946844283\n        h0 [67 47 128 33 112 190 87 171 121 115 80 187 255 224 101 8 19 137 9 58 42 23 167 186 213 123 127 32 85 233 179 139]\n        h0 30388886992207340305962404453616357726282684957228414817761178193477287654283\n\n        b: [false false]\n        pk0: [{102743022338080698399822885770321843460142630877362568352134398440806099155583 65537}\n        pk1: {93927003878993796301442461976674285725878507388897556398417324507303901498211 65537}]\n        x 41707842825415241247613949009888182739661538314057289794544731069070621009858\n        h 56988013903001702417510710329046235085305234412217927901605658221842631750103\n        r0 61769\n        r1 6250\n        */\n\n        bytes32 x_prev = bytes32(41707842825415241247613949009888182739661538314057289794544731069070621009858); //sig.x\n        bytes32 h_prev = bytes32(56988013903001702417510710329046235085305234412217927901605658221842631750103); //sig.h\n\n        bytes32 g;\n        bytes32 eta;\n        bytes32 y;\n        bytes32 X;\n\n        //Line 2\n        X = split_inverse(false, x_prev);\n        y = pi(x_prev, 93927003878993796301442461976674285725878507388897556398417324507303901498211);\n\n        //Line 3 G\n        g = GHash(h_prev);\n\n        //Line 4\n        x_prev = g ^ y;\n\n        //Line 5 H\n        eta = HHash(93927003878993796301442461976674285725878507388897556398417324507303901498211, \"MESSAGE 1\", 6250, x_prev);\n\n        //Line 6\n        h_prev = h_prev ^ eta;\n\n        //Now should be x1 h1\n        bytes32 x_0 = bytes32(54560730099872202741014348823700252121970690209029593489829040881417946844283);\n        bytes32 h_0 = bytes32(30388886992207340305962404453616357726282684957228414817761178193477287654283);\n        return h_prev == h_0 && x_prev == x_0;\n    }\n\n    function testIterationWhereBTrue() returns(bool) {\n        //Not working yet\n        /*\n       b: [false true]\n       pk0: [{100559639697891460902764141020356907258428814093396659529555505846242710753001 65537}\n       pk1: {75514132473334443068127286379962420780446675478900207212147158057076204097627 65537}]\n       sigx 5478324901913405590120700960084756849033925727756286198862916110070595692811\n       sigh 31908922008483892227221543185441079020097797844702142216235016446839414122921\n       r0  31713\n       r1 16181\n\n       x0 48067657424336353606332271955203152262108042684260758989777771218257675402919\n       h0 110698550962008875660816179094143079823491013343052579972863588172519883248496\n       */\n\n        bytes32 x_prev = bytes32(5478324901913405590120700960084756849033925727756286198862916110070595692811); //sig.x\n        bytes32 h_prev = bytes32(31908922008483892227221543185441079020097797844702142216235016446839414122921); //sig.h\n\n        bytes32 g;\n        bytes32 eta;\n        bytes32 y;\n        bytes32 X;\n\n        //Line 2\n        X = split_inverse(true, x_prev);\n        y = pi(x_prev, 75514132473334443068127286379962420780446675478900207212147158057076204097627);\n\n        //Line 3 G\n        g = GHash(h_prev);\n\n        //Line 4\n        x_prev = g ^ y;\n\n        //Line 5 H\n        eta = HHash(75514132473334443068127286379962420780446675478900207212147158057076204097627, \"MESSAGE 1\", 16181, x_prev);\n\n        //Line 6\n        h_prev = h_prev ^ eta;\n\n        //Now should be x1 h1\n        bytes32 x_0 = bytes32(48067657424336353606332271955203152262108042684260758989777771218257675402919);\n        bytes32 h_0 = bytes32(110698550962008875660816179094143079823491013343052579972863588172519883248496);\n        return x_prev == x_0;\n    }\n\n    function testIterationWhereBTrue2() returns(bytes32) {\n        //Not working yet\n        /**\n        b: [false true]\n        pk0: [{103461757571518832622635512335759653289686535967345491211562066594885636499703 65537}\n        pk1: {99730258665501075335213668211394431132735782537502029889654257709728791831553 65537}]\n        x 17345272308542689518344084692542391725387407987955954252876114177875730479097\n        h 72508440660091421077602028370085314092271011290385113018893260330849832526754\n        r0  27913\n        r1 23120\n\n        x0: [16 117 168 232 232 6 14 60 61 167 169 42 196 223 3 180 96 96 224 244 134 86 114 132 48 192 49 62 102 141 90 86]\n        x0: 7444892456440163573410901007413933802788727521996010232230772429884100532822\n        h0 [148 245 112 65 234 115 82 244 229 242 6 16 107 207 73 11 245 140 187 179 248 150 57 138 67 128 252 117 2 51 194 171]\n        h0: 67375953893872021360571726900073981219547307846512650979748574264878368539307\n        */\n\n        bytes32 x_prev = bytes32(17345272308542689518344084692542391725387407987955954252876114177875730479097); //sig.x\n        bytes32 h_prev = bytes32(72508440660091421077602028370085314092271011290385113018893260330849832526754); //sig.h\n\n        bytes32 g;\n        bytes32 eta;\n        bytes32 y;\n        bytes32 X;\n\n        //Line 2\n        X = split_inverse(true, x_prev);\n        y = pi(x_prev, 99730258665501075335213668211394431132735782537502029889654257709728791831553);\n\n        //Line 3 G\n        g = GHash(h_prev);\n\n        //Line 4\n        x_prev = g ^ y;\n\n        //Line 5 H\n        eta = HHash(99730258665501075335213668211394431132735782537502029889654257709728791831553, \"MESSAGE 1\", 23120, x_prev);\n\n        //Line 6\n        h_prev = h_prev ^ eta;\n\n        //Now should be x1 h1\n        return x_prev;\n    }\n\n    function testsplitpi() returns(bytes32) {\n        bytes32 a = split_inverse(true, 27923161953777573553354981145307315045607106610564892606139996960213013027258);\n        return pi(a, 107533363795656919624871251264905461846385118845249129805258716736864472793907);\n\n        //should be:\n        //x [216 46 187 241 18 138 216 192 50 31 82 230 180 8 62 173 220 7 1 115 32 178 191 228 32 170 158 48 43 241 198 23]\n        //x 97782147384832081648842991865189261321407426024020293440409439033677455672855\n    }\n\n}\n",
  "sourcePath": "/home/bjorn/Projects/BGRVerify/contracts/BGRSmall.sol",
  "compiler": {
    "name": "solc",
    "version": "0.4.21+commit.dfe3193c.Emscripten.clang"
  },
  "schemaVersion": "2.0.0",
  "updatedAt": "2018-06-01T10:35:30.901Z"
}