{
  "contractName": "BGRSmall",
  "abi": [
    {
      "constant": false,
      "inputs": [],
      "name": "test",
      "outputs": [
        {
          "name": "",
          "type": "bytes32"
        }
      ],
      "payable": false,
      "stateMutability": "nonpayable",
      "type": "function"
    },
    {
      "constant": false,
      "inputs": [],
      "name": "verify",
      "outputs": [
        {
          "name": "",
          "type": "bytes32"
        }
      ],
      "payable": false,
      "stateMutability": "nonpayable",
      "type": "function"
    },
    {
      "constant": true,
      "inputs": [
        {
          "name": "x",
          "type": "bytes32"
        }
      ],
      "name": "GHash",
      "outputs": [
        {
          "name": "",
          "type": "bytes32"
        }
      ],
      "payable": false,
      "stateMutability": "pure",
      "type": "function"
    },
    {
      "constant": true,
      "inputs": [
        {
          "name": "pk",
          "type": "uint256"
        },
        {
          "name": "m",
          "type": "string"
        },
        {
          "name": "r",
          "type": "bytes2"
        },
        {
          "name": "x",
          "type": "bytes32"
        }
      ],
      "name": "HHash",
      "outputs": [
        {
          "name": "",
          "type": "bytes32"
        }
      ],
      "payable": false,
      "stateMutability": "pure",
      "type": "function"
    },
    {
      "constant": false,
      "inputs": [
        {
          "name": "val",
          "type": "bytes32"
        },
        {
          "name": "signer",
          "type": "uint256"
        }
      ],
      "name": "pi",
      "outputs": [
        {
          "name": "",
          "type": "bytes32"
        }
      ],
      "payable": false,
      "stateMutability": "nonpayable",
      "type": "function"
    },
    {
      "constant": false,
      "inputs": [
        {
          "name": "source",
          "type": "string"
        }
      ],
      "name": "stringToBytes32",
      "outputs": [
        {
          "name": "result",
          "type": "bytes32"
        }
      ],
      "payable": false,
      "stateMutability": "nonpayable",
      "type": "function"
    }
  ],
  "bytecode": "0x60606040527f303adbcfd0f93c821ca3e64911ac8873d98a636e42bfaaa8dbac6367c9faff656001026000906000191690557fb188d9104dcb96aa03f011ed09a2044ab8a20de00521599a71cd0d1f7fe16516600102600190600019169055602060405190810160405280600015151515815250600290600162000085929190620001c2565b506020604051908101604052806173357e01000000000000000000000000000000000000000000000000000000000000027dffffffffffffffffffffffffffffffffffffffffffffffffffffffffffff19167dffffffffffffffffffffffffffffffffffffffffffffffffffffffffffff191681525060039060016200010d9291906200026f565b506020604051908101604052806040805190810160405280600981526020017f4d455353414745203000000000000000000000000000000000000000000000008152508152506004906001620001659291906200033e565b50620100016005556020604051908101604052807fa3965d4f8a3c1f7f257c1594d96a81238433865200bf0ba7b9b5f0092f4b94358152506006906001620001af929190620003a5565b503415620001bc57600080fd5b6200058a565b82805482825590600052602060002090601f016020900481019282156200025c5791602002820160005b838211156200022b57835183826101000a81548160ff0219169083151502179055509260200192600101602081600001049283019260010302620001ec565b80156200025a5782816101000a81549060ff02191690556001016020816000010492830192600103026200022b565b505b5090506200026b9190620003f7565b5090565b82805482825590600052602060002090600f016010900481019282156200032b5791602002820160005b83821115620002f957835183826101000a81548161ffff02191690837e0100000000000000000000000000000000000000000000000000000000000090040217905550926020019260020160208160010104928301926001030262000299565b8015620003295782816101000a81549061ffff0219169055600201602081600101049283019260010302620002f9565b505b5090506200033a91906200042a565b5090565b82805482825590600052602060002090810192821562000392579160200282015b8281111562000391578251829080519060200190620003809291906200045e565b50916020019190600101906200035f565b5b509050620003a19190620004e5565b5090565b828054828255906000526020600020908101928215620003e4579160200282015b82811115620003e3578251825591602001919060010190620003c6565b5b509050620003f3919062000516565b5090565b6200042791905b808211156200042357600081816101000a81549060ff021916905550600101620003fe565b5090565b90565b6200045b91905b808211156200045757600081816101000a81549061ffff02191690555060010162000431565b5090565b90565b828054600181600116156101000203166002900490600052602060002090601f016020900481019282601f10620004a157805160ff1916838001178555620004d2565b82800160010185558215620004d2579182015b82811115620004d1578251825591602001919060010190620004b4565b5b509050620004e1919062000516565b5090565b6200051391905b808211156200050f57600081816200050591906200053e565b50600101620004ec565b5090565b90565b6200053b91905b80821115620005375760008160009055506001016200051d565b5090565b90565b50805460018160011615610100020316600290046000825580601f1062000566575062000587565b601f01602090049060005260206000209081019062000586919062000516565b5b50565b61085b806200059a6000396000f300606060405260043610610078576000357c0100000000000000000000000000000000000000000000000000000000900463ffffffff16806357db91fc1461007d578063b99c5ce9146100b3578063cfb51928146100e9578063f394a6bd1461011f578063f8a8fd6d14610155578063fc735e991461017e575b600080fd5b341561008857600080fd5b61009d60046100989036906106ca565b6101a7565b6040516100aa9190610754565b60405180910390f35b34156100be57600080fd5b6100d360046100ce903690610624565b610278565b6040516100e09190610754565b60405180910390f35b34156100f457600080fd5b6101096004610104903690610689565b6102a4565b6040516101169190610754565b60405180910390f35b341561012a57600080fd5b61013f600461013a90369061064d565b6102d5565b60405161014c9190610754565b60405180910390f35b341561016057600080fd5b61016861030d565b6040516101759190610754565b60405180910390f35b341561018957600080fd5b61019161035f565b60405161019e9190610754565b60405180910390f35b6000848484846040518085815260200184805190602001908083835b6020831015156101e857805182526020820191506020810190506020830392506101c3565b6001836020036101000a038019825116818451168082178552505050505050905001837dffffffffffffffffffffffffffffffffffffffffffffffffffffffffffff19167dffffffffffffffffffffffffffffffffffffffffffffffffffffffffffff19168152600201826000191660001916815260200194505050505060405180910390209050949350505050565b600080826040518082600019166000191681526020019150506040518091039020905080915050919050565b60006102ae61057e565b8290506000815114156102c757600060010291506102cf565b602083015191505b50919050565b600061030283600190046005546006858154811015156102f157fe5b906000526020600020900154610507565b600102905092915050565b60006103577f303adbcfd0f93c821ca3e64911ac8873d98a636e42bfaaa8dbac6367c9faff656005546006600081548110151561034657fe5b906000526020600020900154610507565b600102905090565b600080600080600080600080600080600054985060015497506104a66006600081548110151561038b57fe5b906000526020600020900154600460008154811015156103a757fe5b90600052602060002090018054600181600116156101000203166002900480601f0160208091040260200160405190810160405280929190818152602001828054600181600116156101000203166002900480156104465780601f1061041b57610100808354040283529160200191610446565b820191906000526020600020905b81548152906001019060200180831161042957829003601f168201915b50505050506003600081548110151561045b57fe5b90600052602060002090601091828204019190066002029054906101000a90047e010000000000000000000000000000000000000000000000000000000000000260006001026101a7565b92506104b188610278565b91506104f66104ef600260008154811015156104c957fe5b90600052602060002090602091828204019190069054906101000a900460ff168b61055a565b60006102d5565b905080995050505050505050505090565b60008060019150600190505b8381111515610552576000818516141515610538578280151561053257fe5b85830991505b8280151561054257fe5b8586099450600281029050610513565b509392505050565b600082156105745760808260019004036001029050610578565b8190505b92915050565b602060405190810160405280600081525090565b600061059e82356107d2565b905092915050565b60006105b282356107fe565b905092915050565b600082601f83011215156105cd57600080fd5b81356105e06105db8261079c565b61076f565b915080825260208301602083018583830111156105fc57600080fd5b610607838284610812565b50505092915050565b600061061c8235610808565b905092915050565b60006020828403121561063657600080fd5b6000610644848285016105a6565b91505092915050565b6000806040838503121561066057600080fd5b600061066e858286016105a6565b925050602061067f85828601610610565b9150509250929050565b60006020828403121561069b57600080fd5b600082013567ffffffffffffffff8111156106b557600080fd5b6106c1848285016105ba565b91505092915050565b600080600080608085870312156106e057600080fd5b60006106ee87828801610610565b945050602085013567ffffffffffffffff81111561070b57600080fd5b610717878288016105ba565b935050604061072887828801610592565b9250506060610739878288016105a6565b91505092959194509250565b61074e816107c8565b82525050565b60006020820190506107696000830184610745565b92915050565b6000604051905081810181811067ffffffffffffffff8211171561079257600080fd5b8060405250919050565b600067ffffffffffffffff8211156107b357600080fd5b601f19601f8301169050602081019050919050565b6000819050919050565b60007fffff00000000000000000000000000000000000000000000000000000000000082169050919050565b6000819050919050565b6000819050919050565b828183376000838301525050505600a265627a7a72305820a0293487d76821a04144c0de77759080a99204a44efd1a09c53c07df049017d66c6578706572696d656e74616cf50037",
  "source": "pragma solidity 0.4.21;\npragma experimental ABIEncoderV2;\n\ncontract BGRSmall {\n\n    bytes32 x = bytes32(21815010946920326725448554161391577562219037378072594164779468615641707773797);\n    bytes32 h = bytes32(80301163518557209160327257243075188899345325040434022335849314277093177124118);\n\n    bool[] b = [false];\n    bytes2[] r = [bytes2(29493)];\n\n\n    string[] messages = [\n        \"MESSAGE 0\"\n    ];\n\n    //Simulation of PKI\n    uint256 e = 65537;\n    uint256[] modulus = [\n    73992665385593046613433232500063923994334720920550463039164095254361992303669\n    ];\n\n    function test() returns (bytes32) {\n        return bytes32(modExp(uint256(21815010946920326725448554161391577562219037378072594164779468615641707773797), e, modulus[0]));\n    }\n\n    //function verify(string[] messages, bytes32 x, bytes32 h, bytes2[] r, bool[] b) returns (bool) {\n    function verify() returns (bytes32) {\n        bytes32 x_prev = x;\n        bytes32 h_prev = h;\n\n        bytes32 g;\n        bytes32 eta;\n        bytes32 y;\n        bytes32 X;\n\n        /*\n        for (uint i = modulus.length - 1; i > 0; i--) {\n            //Line 2\n            X = split_inverse(b[i], x_prev);\n            y = pi(x_prev, i);\n\n            //Line 3 G\n            g = keccak256(h_prev);\n\n            //Line 4\n            x_prev = g ^ y;\n\n            //Line 5 H\n            eta = keccak256(modulus[i], messages[i], r[i], x_prev);\n\n            //Line 6\n            h_prev = h_prev ^ eta;\n        }\n        */\n\n        //Line 7\n        bytes32 h_hash = HHash(modulus[0], messages[0], r[0], bytes32(0));// this is tested\n        bytes32 g_hash = GHash(h_prev); //this is tested\n\n        //bytes32 pig = pi(x_prev, 0);\n        bytes32 pig = pi(split_inverse(b[0], x_prev), 0); //this is not tested\n\n        return pig;\n        //return (h_prev == h_hash) && (pig == g_hash);\n    }\n\n    function GHash(bytes32 x) pure returns (bytes32) {\n        bytes32 hash = keccak256(x);\n        //hash[0] = 0x00;\n        return hash;\n    }\n\n    function HHash(uint256 pk, string m, bytes2 r, bytes32 x) pure returns (bytes32) {\n        return keccak256(pk, m, r, x);\n        //return keccak256(pk, m, r, x);\n    }\n\n    function pi(bytes32 val, uint256 signer) returns (bytes32) {\n        return bytes32(modExp(uint256(val), e, modulus[signer]));\n    }\n\n    function modExp(uint256 base, uint256 exp, uint256 mod) internal returns (uint256 result)  {\n        result = 1;\n        for (uint count = 1; count <= exp; count *= 2) {\n            if (exp & count != 0)\n                result = mulmod(result, base, mod);\n            base = mulmod(base, base, mod);\n        }\n    }\n\n    function stringToBytes32(string memory source) returns (bytes32 result) {\n        bytes memory tempEmptyStringTest = bytes(source);\n        if (tempEmptyStringTest.length == 0) {\n            return 0x0;\n        }\n\n        assembly {\n            result := mload(add(source, 32))\n        }\n    }\n\n    function split_inverse(bool b, bytes32 x) internal returns (bytes32) {\n        if (b) {\n            return bytes32(uint256(x) - 128);\n        }\n        else {\n            return x;\n        }\n    }\n}\n",
  "sourcePath": "/home/bjorn/Projects/BGRVerify/contracts/BGRSmall.sol",
  "compiler": {
    "name": "solc",
    "version": "0.4.21+commit.dfe3193c.Emscripten.clang"
  },
  "schemaVersion": "2.0.0",
  "updatedAt": "2018-05-29T08:45:59.111Z"
}