{
  "contractName": "BGRSmall",
  "abi": [
    {
      "constant": false,
      "inputs": [],
      "name": "verify",
      "outputs": [
        {
          "name": "",
          "type": "bool"
        }
      ],
      "payable": false,
      "stateMutability": "nonpayable",
      "type": "function"
    },
    {
      "constant": false,
      "inputs": [
        {
          "name": "val",
          "type": "bytes32"
        },
        {
          "name": "mod",
          "type": "uint256"
        }
      ],
      "name": "pi",
      "outputs": [
        {
          "name": "",
          "type": "bytes32"
        }
      ],
      "payable": false,
      "stateMutability": "nonpayable",
      "type": "function"
    }
  ],
  "bytecode": "0x60606040527f6b644a0285a3f0d04c0b4834d63a35caef12dd70100cde98d25fcef09c01d16d6001026000906000191690557f48ae08a9b3de7014167900822ca49ed0def5fb38ce433822364623127f98b3bc6001026001906000191690556060604051908101604052806000151515158152602001600015151515815260200160001515151581525060029060036200009b92919062000370565b5060606040519081016040528061d7357e01000000000000000000000000000000000000000000000000000000000000027dffffffffffffffffffffffffffffffffffffffffffffffffffffffffffff19167dffffffffffffffffffffffffffffffffffffffffffffffffffffffffffff1916815260200161fd107e01000000000000000000000000000000000000000000000000000000000000027dffffffffffffffffffffffffffffffffffffffffffffffffffffffffffff19167dffffffffffffffffffffffffffffffffffffffffffffffffffffffffffff1916815260200161368e7e01000000000000000000000000000000000000000000000000000000000000027dffffffffffffffffffffffffffffffffffffffffffffffffffffffffffff19167dffffffffffffffffffffffffffffffffffffffffffffffffffffffffffff19168152506003906003620001f99291906200041d565b506060604051908101604052806040805190810160405280600981526020017f4d4553534147452030000000000000000000000000000000000000000000000081525081526020016040805190810160405280600981526020017f4d4553534147452031000000000000000000000000000000000000000000000081525081526020016040805190810160405280600981526020017f4d455353414745203200000000000000000000000000000000000000000000008152508152506004906003620002c7929190620004ec565b50620100016005556060604051908101604052807f9e47e564ee6522b07565e376323b836e0747a976f23cdad8cd14ffc7346b49f781526020017fa99fccad3011949d9c1ee10ab55f805d025cdd858cdd38eecd921ae6533a031b81526020017fcd0522e56e0068d12522426d2c76fc18b0e333638a892b1cc590abd09dc2c13381525060069060036200035d92919062000553565b5034156200036a57600080fd5b62000738565b82805482825590600052602060002090601f016020900481019282156200040a5791602002820160005b83821115620003d957835183826101000a81548160ff02191690831515021790555092602001926001016020816000010492830192600103026200039a565b8015620004085782816101000a81549060ff0219169055600101602081600001049283019260010302620003d9565b505b509050620004199190620005a5565b5090565b82805482825590600052602060002090600f01601090048101928215620004d95791602002820160005b83821115620004a757835183826101000a81548161ffff02191690837e0100000000000000000000000000000000000000000000000000000000000090040217905550926020019260020160208160010104928301926001030262000447565b8015620004d75782816101000a81549061ffff0219169055600201602081600101049283019260010302620004a7565b505b509050620004e89190620005d8565b5090565b82805482825590600052602060002090810192821562000540579160200282015b828111156200053f5782518290805190602001906200052e9291906200060c565b50916020019190600101906200050d565b5b5090506200054f919062000693565b5090565b82805482825590600052602060002090810192821562000592579160200282015b828111156200059157825182559160200191906001019062000574565b5b509050620005a19190620006c4565b5090565b620005d591905b80821115620005d157600081816101000a81549060ff021916905550600101620005ac565b5090565b90565b6200060991905b808211156200060557600081816101000a81549061ffff021916905550600101620005df565b5090565b90565b828054600181600116156101000203166002900490600052602060002090601f016020900481019282601f106200064f57805160ff191683800117855562000680565b8280016001018555821562000680579182015b828111156200067f57825182559160200191906001019062000662565b5b5090506200068f9190620006c4565b5090565b620006c191905b80821115620006bd5760008181620006b39190620006ec565b506001016200069a565b5090565b90565b620006e991905b80821115620006e5576000816000905550600101620006cb565b5090565b90565b50805460018160011615610100020316600290046000825580601f1062000714575062000735565b601f016020900490600052602060002090810190620007349190620006c4565b5b50565b6107fe80620007486000396000f30060606040526004361061004c576000357c0100000000000000000000000000000000000000000000000000000000900463ffffffff168063f394a6bd14610051578063fc735e9914610087575b600080fd5b341561005c57600080fd5b610071600461006c90369061070a565b6100b0565b60405161007e919061077f565b60405180910390f35b341561009257600080fd5b61009a6100ce565b6040516100a79190610764565b60405180910390f35b60006100c383600190046005548461046b565b600102905092915050565b600080600080600080600080600080600080549950600154985060016006805490500393505b60008411156102a95761013560028581548110151561010f57fe5b90600052602060002090602091828204019190069054906101000a900460ff168b6104be565b945061015b8560068681548110151561014a57fe5b9060005260206000209001546100b0565b955061016689610501565b9750858818995061029460068581548110151561017f57fe5b90600052602060002090015460048681548110151561019a57fe5b90600052602060002090018054600181600116156101000203166002900480601f0160208091040260200160405190810160405280929190818152602001828054600181600116156101000203166002900480156102395780601f1061020e57610100808354040283529160200191610239565b820191906000526020600020905b81548152906001019060200180831161021c57829003601f168201915b505050505060038781548110151561024d57fe5b90600052602060002090601091828204019190066002029054906101000a90047e01000000000000000000000000000000000000000000000000000000000000028d610551565b965086891898508380600190039450506100f4565b6103d2600660008154811015156102bc57fe5b906000526020600020900154600460008154811015156102d857fe5b90600052602060002090018054600181600116156101000203166002900480601f0160208091040260200160405190810160405280929190818152602001828054600181600116156101000203166002900480156103775780601f1061034c57610100808354040283529160200191610377565b820191906000526020600020905b81548152906001019060200180831161035a57829003601f168201915b50505050506003600081548110151561038c57fe5b90600052602060002090601091828204019190066002029054906101000a90047e0100000000000000000000000000000000000000000000000000000000000002610622565b92506103dd89610501565b915061043c61041b600260008154811015156103f557fe5b90600052602060002090602091828204019190069054906101000a900460ff168c6104be565b6006600081548110151561042b57fe5b9060005260206000209001546100b0565b90508060001916826000191614801561045c575088600019168360001916145b9a505050505050505050505090565b60008060019150600190505b83811115156104b657600081851614151561049c578280151561049657fe5b85830991505b828015156104a657fe5b8586099450600281029050610477565b509392505050565b600082156104f7577f800000000000000000000000000000000000000000000000000000000000000082600190040160010290506104fb565b8190505b92915050565b60008082604051808260001916600019168152602001915050604051809103902090507effffffffffffffffffffffffffffffffffffffffffffffffffffffffffffff6001028116915050919050565b6000848484846040518085815260200184805190602001908083835b602083101515610592578051825260208201915060208101905060208303925061056d565b6001836020036101000a038019825116818451168082178552505050505050905001837dffffffffffffffffffffffffffffffffffffffffffffffffffffffffffff19167dffffffffffffffffffffffffffffffffffffffffffffffffffffffffffff19168152600201826000191660001916815260200194505050505060405180910390209050949350505050565b60008383836040518084815260200183805190602001908083835b602083101515610662578051825260208201915060208101905060208303925061063d565b6001836020036101000a038019825116818451168082178552505050505050905001827dffffffffffffffffffffffffffffffffffffffffffffffffffffffffffff19167dffffffffffffffffffffffffffffffffffffffffffffffffffffffffffff191681526002019350505050604051809103902090509392505050565b60006106ee82356107b0565b905092915050565b600061070282356107ba565b905092915050565b6000806040838503121561071d57600080fd5b600061072b858286016106e2565b925050602061073c858286016106f6565b9150509250929050565b61074f8161079a565b82525050565b61075e816107a6565b82525050565b60006020820190506107796000830184610746565b92915050565b60006020820190506107946000830184610755565b92915050565b60008115159050919050565b6000819050919050565b6000819050919050565b60008190509190505600a265627a7a72305820a1eca473019f31b6f0a1d3b353985ded0879f4f505506e3bc5117ba394f090bd6c6578706572696d656e74616cf50037",
  "source": "pragma solidity 0.4.21;\npragma experimental ABIEncoderV2;\n\ncontract BGRSmall {\n\n    bytes32 x = bytes32(48574670302110873900186887930825348864862875264737285835557344117607811371373);\n    bytes32 h = bytes32(32874016276410785723952341262669264316082375692834943036671182319508755362748);\n\n    bool[] b = [false, false, false];\n    bytes2[] r = [bytes2(55093), bytes2(64784), bytes2(13966)];\n\n    string[] messages = [\n    \"MESSAGE 0\",\n    \"MESSAGE 1\",\n    \"MESSAGE 2\"\n    ];\n\n    //Simulation of PKI\n    uint256 e = 65537;\n    uint256[] modulus = [\n    71592459438769366555287905212920150282388951853471084808236715516732226882039,\n    76723212719259523646191797913083315208539844433174054239968451621612127126299,\n    92733209039681599712767330020819907773031548378901671974778944208981299740979\n    ];\n\n    //function verify(string[] messages, bytes32 x, bytes32 h, bytes2[] r, bool[] b) returns (bool) {\n    function verify() returns (bool) {\n        bytes32 x_prev = x;\n        bytes32 h_prev = h;\n\n        bytes32 g;\n        bytes32 eta;\n        bytes32 y;\n        bytes32 X;\n\n        for (uint i = modulus.length - 1; i > 0; i--) {\n            //Line 2\n            X = split_inverse(b[i], x_prev);\n            y = pi(X, modulus[i]);\n\n            //Line 3 G\n            g = GHash(h_prev);\n\n            //Line 4\n            x_prev = g ^ y;\n\n            //Line 5 H\n            eta = HHash(modulus[i], messages[i], r[i], x_prev);\n\n            //Line 6\n            h_prev = h_prev ^ eta;\n        }\n\n        //Line 7\n        bytes32 h_hash = HHashBase(modulus[0], messages[0], r[0]);\n        bytes32 g_hash = GHash(h_prev);\n\n        bytes32 pig = pi(split_inverse(b[0], x_prev), modulus[0]);\n\n        return g_hash == pig && h_hash == h_prev;\n    }\n\n    function GHash(bytes32 x) internal pure returns (bytes32) {\n        bytes32 hash = keccak256(x);\n        return hash & 0x00ffffffffffffffffffffffffffffffffffffffffffffffffffffffffffffff;\n    }\n\n    function HHash(uint256 pk, string m, bytes2 r, bytes32 x) internal pure returns (bytes32) {\n        return keccak256(pk, m, r, x);\n    }\n\n    function HHashBase(uint256 pk, string m, bytes2 r) internal pure returns (bytes32) {\n        // this seems to work if Go uses x=nil\n        return keccak256(pk, m, r);\n    }\n\n    function pi(bytes32 val, uint256 mod) returns (bytes32) {\n        return bytes32(modExp(uint256(val), e, mod));\n    }\n\n    function modExp(uint256 base, uint256 exp, uint256 mod) internal pure returns (uint256 result)  {\n        result = 1;\n        for (uint count = 1; count <= exp; count *= 2) {\n            if (exp & count != 0)\n                result = mulmod(result, base, mod);\n            base = mulmod(base, base, mod);\n        }\n    }\n\n    function split_inverse(bool b, bytes32 x) internal pure returns (bytes32) {\n        if (b) {\n            return bytes32(uint256(x) + uint256(57896044618658097711785492504343953926634992332820282019728792003956564819968));\n            //NOTE: 2 ** 255 = 57896044618658097711785492504343953926634992332820282019728792003956564819968\n        }\n        else {\n            return x;\n        }\n    }\n\n    function bytesToBytes32(bytes b, uint offset) private pure returns (bytes32) {\n        bytes32 out;\n\n        for (uint i = 0; i < 32; i++) {\n            out |= bytes32(b[offset + i] & 0xFF) >> (i * 8);\n        }\n        return out;\n    }\n\n}\n",
  "sourcePath": "/home/bjorn/Projects/BGRVerify/contracts/BGRSmall.sol",
  "compiler": {
    "name": "solc",
    "version": "0.4.21+commit.dfe3193c.Emscripten.clang"
  },
  "schemaVersion": "2.0.0",
  "updatedAt": "2018-06-01T12:59:41.363Z"
}