{
  "contractName": "BGRSmall",
  "abi": [
    {
      "constant": false,
      "inputs": [],
      "name": "test",
      "outputs": [
        {
          "name": "",
          "type": "bytes32"
        }
      ],
      "payable": false,
      "stateMutability": "nonpayable",
      "type": "function"
    },
    {
      "constant": false,
      "inputs": [],
      "name": "verify",
      "outputs": [
        {
          "name": "",
          "type": "bytes32"
        }
      ],
      "payable": false,
      "stateMutability": "nonpayable",
      "type": "function"
    },
    {
      "constant": false,
      "inputs": [
        {
          "name": "val",
          "type": "bytes32"
        },
        {
          "name": "mod",
          "type": "uint256"
        }
      ],
      "name": "pi",
      "outputs": [
        {
          "name": "",
          "type": "bytes32"
        }
      ],
      "payable": false,
      "stateMutability": "nonpayable",
      "type": "function"
    },
    {
      "constant": false,
      "inputs": [],
      "name": "testsplitinverse",
      "outputs": [
        {
          "name": "",
          "type": "bytes32"
        }
      ],
      "payable": false,
      "stateMutability": "nonpayable",
      "type": "function"
    },
    {
      "constant": false,
      "inputs": [],
      "name": "testIterationWhereBFalse",
      "outputs": [
        {
          "name": "",
          "type": "bool"
        }
      ],
      "payable": false,
      "stateMutability": "nonpayable",
      "type": "function"
    },
    {
      "constant": false,
      "inputs": [],
      "name": "testIterationWhereBTrue",
      "outputs": [
        {
          "name": "",
          "type": "bool"
        }
      ],
      "payable": false,
      "stateMutability": "nonpayable",
      "type": "function"
    },
    {
      "constant": false,
      "inputs": [],
      "name": "testIterationWhereBTrue2",
      "outputs": [
        {
          "name": "",
          "type": "bytes32"
        }
      ],
      "payable": false,
      "stateMutability": "nonpayable",
      "type": "function"
    },
    {
      "constant": false,
      "inputs": [],
      "name": "testsplitpi",
      "outputs": [
        {
          "name": "",
          "type": "bytes32"
        }
      ],
      "payable": false,
      "stateMutability": "nonpayable",
      "type": "function"
    }
  ],
  "bytecode": "0x60606040527f5eae0195d126f184c64d7fc7e4b29d74e95bbef073eb259b53e8c0edb978ec4a6001026000906000191690557f0c29fcef389ee7ddad8fdbb9c42efe02234f9ba201560c426a7cd665f28cfe82600102600190600019169055602060405190810160405280600015151515815250600290600162000085929190620001c2565b5060206040519081016040528061edd47e01000000000000000000000000000000000000000000000000000000000000027dffffffffffffffffffffffffffffffffffffffffffffffffffffffffffff19167dffffffffffffffffffffffffffffffffffffffffffffffffffffffffffff191681525060039060016200010d9291906200026f565b506020604051908101604052806040805190810160405280600981526020017f4d455353414745203000000000000000000000000000000000000000000000008152508152506004906001620001659291906200033e565b50620100016005556020604051908101604052807fa13c8638c21bac4e3683ed0b429656717a212a955e3b564186e5235a52f8428b8152506006906001620001af929190620003a5565b503415620001bc57600080fd5b6200058a565b82805482825590600052602060002090601f016020900481019282156200025c5791602002820160005b838211156200022b57835183826101000a81548160ff0219169083151502179055509260200192600101602081600001049283019260010302620001ec565b80156200025a5782816101000a81549060ff02191690556001016020816000010492830192600103026200022b565b505b5090506200026b9190620003f7565b5090565b82805482825590600052602060002090600f016010900481019282156200032b5791602002820160005b83821115620002f957835183826101000a81548161ffff02191690837e0100000000000000000000000000000000000000000000000000000000000090040217905550926020019260020160208160010104928301926001030262000299565b8015620003295782816101000a81549061ffff0219169055600201602081600101049283019260010302620002f9565b505b5090506200033a91906200042a565b5090565b82805482825590600052602060002090810192821562000392579160200282015b8281111562000391578251829080519060200190620003809291906200045e565b50916020019190600101906200035f565b5b509050620003a19190620004e5565b5090565b828054828255906000526020600020908101928215620003e4579160200282015b82811115620003e3578251825591602001919060010190620003c6565b5b509050620003f3919062000516565b5090565b6200042791905b808211156200042357600081816101000a81549060ff021916905550600101620003fe565b5090565b90565b6200045b91905b808211156200045757600081816101000a81549061ffff02191690555060010162000431565b5090565b90565b828054600181600116156101000203166002900490600052602060002090601f016020900481019282601f10620004a157805160ff1916838001178555620004d2565b82800160010185558215620004d2579182015b82811115620004d1578251825591602001919060010190620004b4565b5b509050620004e1919062000516565b5090565b6200051391905b808211156200050f57600081816200050591906200053e565b50600101620004ec565b5090565b90565b6200053b91905b80821115620005375760008160009055506001016200051d565b5090565b90565b50805460018160011615610100020316600290046000825580601f1062000566575062000587565b601f01602090049060005260206000209081019062000586919062000516565b5b50565b610e2f806200059a6000396000f30060606040526004361061008e576000357c0100000000000000000000000000000000000000000000000000000000900463ffffffff168063311aa03414610093578063ca495a35146100bc578063ea5249cf146100e5578063f394a6bd1461010e578063f428b37c14610144578063f538705b1461016d578063f8a8fd6d14610196578063fc735e99146101bf575b600080fd5b341561009e57600080fd5b6100a66101e8565b6040516100b39190610db0565b60405180910390f35b34156100c757600080fd5b6100cf61024b565b6040516100dc9190610d95565b60405180910390f35b34156100f057600080fd5b6100f86103dd565b6040516101059190610db0565b60405180910390f35b341561011957600080fd5b61012e6004610129903690610d3b565b610514565b60405161013b9190610db0565b60405180910390f35b341561014f57600080fd5b610157610532565b6040516101649190610db0565b60405180910390f35b341561017857600080fd5b610180610572565b60405161018d9190610d95565b60405180910390f35b34156101a157600080fd5b6101a9610717565b6040516101b69190610db0565b60405180910390f35b34156101ca57600080fd5b6101d261074f565b6040516101df9190610db0565b60405180910390f35b60008061021960017f3dbbf318a7eae0be5e3e57c64ec4e8b576b231d8845a203791f66be595e2d9ba600102610a97565b9050610245817fedbdba1ff3182627afda776c1d6c2a25d1ef1a381dbe441ac7567682453c0333610514565b91505090565b60008060008060008060008060007f0c1c9f3c3766d25b908917a89cbed045c6a36c58b9ecb9be9598b17df57ba90b60010297507f468bcf51c1b980d9dab3cf126bac5e8f7d65d4c2ac669b937460e87f32c0e9a960010296506102b0600189610a97565b92506102dc887fa6f37bfe56d3c0545904a0f996a4003425207c3b9323921182e525fe934dd05b610514565b93506102e787610ada565b955083861897506103727fa6f37bfe56d3c0545904a0f996a4003425207c3b9323921182e525fe934dd05b6040805190810160405280600981526020017f4d45535341474520310000000000000000000000000000000000000000000000815250613f357e01000000000000000000000000000000000000000000000000000000000000028b610b2f565b945084871896507f6a455479acc2827713ff460444bcc76e0d2a35ec0c04eb935ea14c5cc9adbea760010291507ff4bd28d50132e5e66aaaae4cd5c799254c7e675f394c41e8b67f2214f6e59370600102905081600019168860001916149850505050505050505090565b60008060008060008060007f26591383526b273047f597130042026356aea4d2aaafb667a8fa5f2e6dcfb7f960010295507fa04e52b4bb4d6bfed8b5ebed23788e908e3292b1bb0681f8235167575c6be3a2600102945061043f600187610a97565b905061046b867fdc7d53788469e6fcb9bcb47af11bdd270f3f0154476b6b89aae900f02fe4a401610514565b915061047685610ada565b935081841895506105017fdc7d53788469e6fcb9bcb47af11bdd270f3f0154476b6b89aae900f02fe4a4016040805190810160405280600981526020017f4d45535341474520310000000000000000000000000000000000000000000000815250615a507e010000000000000000000000000000000000000000000000000000000000000289610b2f565b9250828518945085965050505050505090565b6000610527836001900460055484610c00565b600102905092915050565b60008060007f4e77dff73283c2bc58f889e982028d470ba4e97fdb86dc26ff99c6786ed65ce56001029150610568600183610a97565b9050809250505090565b60008060008060008060008060007f5c35cd6f663b714ffcd4dee2b8bc165ad1aad93878ec0fee4f3406e35e63e7c260010297507f7dfe12a4d84102968982d60d491c2090afc72230982f3c12d6f8001010ebf1d760010296506105d7600089610a97565b9250610603887fcfa8ccdd093a9f6c873e1aa45d977651c27007444a08d41bff2288a9cab58b63610514565b935061060e87610ada565b955083861897506106997fcfa8ccdd093a9f6c873e1aa45d977651c27007444a08d41bff2288a9cab58b636040805190810160405280600981526020017f4d4553534147452031000000000000000000000000000000000000000000000081525061186a7e01000000000000000000000000000000000000000000000000000000000000028b610b2f565b945084871896507f78a04764b973c95ddad5b3a467c4eb0619e0b42541ae0cf696322bd4a216cc7b60010291507f432f802170be57ab797350bbffe065081389093a2a17a7bad57b7f2055e9b38b60010290508060001916876000191614801561070a575081600019168860001916145b9850505050505050505090565b6000807f1f140303a87b34068bb81401f7640322c232e0c62bbacdec2115b1d3e3959ee2600102905061074981610ada565b91505090565b600080600080600080600080600080600080549950600154985060016006805490500393505b600084111561092a576107b660028581548110151561079057fe5b90600052602060002090602091828204019190069054906101000a900460ff168b610a97565b94506107dc8a6006868154811015156107cb57fe5b906000526020600020900154610514565b95506107e789610ada565b9750858818995061091560068581548110151561080057fe5b90600052602060002090015460048681548110151561081b57fe5b90600052602060002090018054600181600116156101000203166002900480601f0160208091040260200160405190810160405280929190818152602001828054600181600116156101000203166002900480156108ba5780601f1061088f576101008083540402835291602001916108ba565b820191906000526020600020905b81548152906001019060200180831161089d57829003601f168201915b50505050506003878154811015156108ce57fe5b90600052602060002090601091828204019190066002029054906101000a90047e01000000000000000000000000000000000000000000000000000000000000028d610b2f565b96508689189850838060019003945050610775565b610a536006600081548110151561093d57fe5b9060005260206000209001546004600081548110151561095957fe5b90600052602060002090018054600181600116156101000203166002900480601f0160208091040260200160405190810160405280929190818152602001828054600181600116156101000203166002900480156109f85780601f106109cd576101008083540402835291602001916109f8565b820191906000526020600020905b8154815290600101906020018083116109db57829003601f168201915b505050505060036000815481101515610a0d57fe5b90600052602060002090601091828204019190066002029054906101000a90047e0100000000000000000000000000000000000000000000000000000000000002610c53565b9250610a5e89610ada565b9150610a858a60066000815481101515610a7457fe5b906000526020600020900154610514565b9050819a505050505050505050505090565b60008215610ad0577f80000000000000000000000000000000000000000000000000000000000000008260019004016001029050610ad4565b8190505b92915050565b60008082604051808260001916600019168152602001915050604051809103902090507f8000000000000000000000000000000000000000000000000000000000000000816001900403600102915050919050565b6000848484846040518085815260200184805190602001908083835b602083101515610b705780518252602082019150602081019050602083039250610b4b565b6001836020036101000a038019825116818451168082178552505050505050905001837dffffffffffffffffffffffffffffffffffffffffffffffffffffffffffff19167dffffffffffffffffffffffffffffffffffffffffffffffffffffffffffff19168152600201826000191660001916815260200194505050505060405180910390209050949350505050565b60008060019150600190505b8381111515610c4b576000818516141515610c315782801515610c2b57fe5b85830991505b82801515610c3b57fe5b8586099450600281029050610c0c565b509392505050565b60008383836040518084815260200183805190602001908083835b602083101515610c935780518252602082019150602081019050602083039250610c6e565b6001836020036101000a038019825116818451168082178552505050505050905001827dffffffffffffffffffffffffffffffffffffffffffffffffffffffffffff19167dffffffffffffffffffffffffffffffffffffffffffffffffffffffffffff191681526002019350505050604051809103902090509392505050565b6000610d1f8235610de1565b905092915050565b6000610d338235610deb565b905092915050565b60008060408385031215610d4e57600080fd5b6000610d5c85828601610d13565b9250506020610d6d85828601610d27565b9150509250929050565b610d8081610dcb565b82525050565b610d8f81610dd7565b82525050565b6000602082019050610daa6000830184610d77565b92915050565b6000602082019050610dc56000830184610d86565b92915050565b60008115159050919050565b6000819050919050565b6000819050919050565b60008190509190505600a265627a7a723058208e838d74035f1dbab3a0da08253a36696531a89ffc6638458ea143589e1935ee6c6578706572696d656e74616cf50037",
  "source": "pragma solidity 0.4.21;\npragma experimental ABIEncoderV2;\n\ncontract BGRSmall {\n\n    bytes32 x = bytes32(42824850096903168933980549444850820531267307277747638740663904061453936159818);\n    bytes32 h = bytes32(5501940602124613446706973589804112402000519963019969627929571506777536396930);\n\n    bool[] b = [false];\n    bytes2[] r = [bytes2(60884)];\n\n    string[] messages = [\n    \"MESSAGE 0\"\n    ];\n\n    //Simulation of PKI\n    uint256 e = 65537;\n    uint256[] modulus = [\n    72929305810002043507619804809205202485847149948104996985858670357851653292683\n    ];\n\n    function test() returns (bytes32) {\n        bytes32 x = bytes32(14057056051238853966630044202408128904814383695727292847851000326720893329122);\n        return GHash(x);\n        //return hash;//uint256(hash);\n\n    }\n    //Solidity uint is circular and Go big int can go negative. int works, but does not work for modexp.\n\n    /*\n    x_i: [94 174 1 149 209 38 241 132 198 77 127 199 228 178 157 116 233 91 190 240 115 235 37 155 83 232 192 237 185 120 236 74]\n    h_i: [12 41 252 239 56 158 231 221 173 143 219 185 196 46 254 2 35 79 155 162 1 86 12 66 106 124 214 101 242 140 254 130]\n    b: [false]\n    pk: [{72929305810002043507619804809205202485847149948104996985858670357851653292683 65537}]\n    x 42824850096903168933980549444850820531267307277747638740663904061453936159818\n    h 5501940602124613446706973589804112402000519963019969627929571506777536396930\n    r  60884\n    */\n\n    //function verify(string[] messages, bytes32 x, bytes32 h, bytes2[] r, bool[] b) returns (bool) {\n    function verify() returns (bytes32) {\n        bytes32 x_prev = x;\n        bytes32 h_prev = h;\n\n        bytes32 g;\n        bytes32 eta;\n        bytes32 y;\n        bytes32 X;\n\n        for (uint i = modulus.length - 1; i > 0; i--) {\n            //Line 2\n            X = split_inverse(b[i], x_prev);\n            y = pi(x_prev, modulus[i]);\n\n            //Line 3 G\n            g = GHash(h_prev);\n\n            //Line 4\n            x_prev = g ^ y;\n\n            //Line 5 H\n            eta = HHash(modulus[i], messages[i], r[i], x_prev);\n\n            //Line 6\n            h_prev = h_prev ^ eta;\n        }\n\n        //Line 7\n        bytes32 h_hash = HHashBase(modulus[0], messages[0], r[0]);\n        bytes32 g_hash = GHash(h_prev);\n\n        bytes32 pig = pi(x_prev, modulus[0]); //split_inverse(b[0], x_prev)\n\n        return g_hash;\n        //return g_hash == pig && h_hash == h_prev;\n    }\n\n    function GHash(bytes32 x) internal pure returns (bytes32) {\n        bytes32 hash = keccak256(x);\n        return bytes32(uint256(hash) - uint256(57896044618658097711785492504343953926634992332820282019728792003956564819968));\n    }\n\n    function HHash(uint256 pk, string m, bytes2 r, bytes32 x) internal pure returns (bytes32) {\n        return keccak256(pk, m, r, x);\n    }\n\n    function HHashBase(uint256 pk, string m, bytes2 r) internal pure returns (bytes32) {\n        // this seems to work if Go uses x=nil\n        return keccak256(pk, m, r);\n    }\n\n    function pi(bytes32 val, uint256 mod) returns (bytes32) {\n        return bytes32(modExp(uint256(val), e, mod));\n    }\n\n    function modExp(uint256 base, uint256 exp, uint256 mod) internal pure returns (uint256 result)  {\n        result = 1;\n        for (uint count = 1; count <= exp; count *= 2) {\n            if (exp & count != 0)\n                result = mulmod(result, base, mod);\n            base = mulmod(base, base, mod);\n        }\n    }\n\n    function split_inverse(bool b, bytes32 x) internal pure returns (bytes32) {\n        if (b) {\n            return bytes32(uint256(x) + uint256(57896044618658097711785492504343953926634992332820282019728792003956564819968));\n            //NOTE: 2 ** 255 = 57896044618658097711785492504343953926634992332820282019728792003956564819968\n        }\n        else {\n            return x;\n        }\n    }\n\n    function testsplitinverse() returns (bytes32) {\n        //output should be\n        //{206, 119, 223, 247, 50, 131, 194, 188, 88, 248, 137, 233, 130, 2, 141, 71, 11, 164, 233, 127, 219, 134, 220, 38, 255, 153, 198, 120, 110, 214, 92, 229}\n        bytes32 test = bytes32(35492202744065384896209724461799058330743915199574411635769998350682397498597);\n        bytes32 test_joined = split_inverse(true, test);\n        return test_joined;\n    }\n\n    function testIterationWhereBFalse() returns(bool) {\n        /**\n        x0 [120 160 71 100 185 115 201 93 218 213 179 164 103 196 235 6 25 224 180 37 65 174 12 246 150 50 43 212 162 22 204 123]\n        x0 54560730099872202741014348823700252121970690209029593489829040881417946844283\n        h0 [67 47 128 33 112 190 87 171 121 115 80 187 255 224 101 8 19 137 9 58 42 23 167 186 213 123 127 32 85 233 179 139]\n        h0 30388886992207340305962404453616357726282684957228414817761178193477287654283\n\n        b: [false false]\n        pk0: [{102743022338080698399822885770321843460142630877362568352134398440806099155583 65537}\n        pk1: {93927003878993796301442461976674285725878507388897556398417324507303901498211 65537}]\n        x 41707842825415241247613949009888182739661538314057289794544731069070621009858\n        h 56988013903001702417510710329046235085305234412217927901605658221842631750103\n        r0 61769\n        r1 6250\n        */\n\n        bytes32 x_prev = bytes32(41707842825415241247613949009888182739661538314057289794544731069070621009858); //sig.x\n        bytes32 h_prev = bytes32(56988013903001702417510710329046235085305234412217927901605658221842631750103); //sig.h\n\n        bytes32 g;\n        bytes32 eta;\n        bytes32 y;\n        bytes32 X;\n\n        //Line 2\n        X = split_inverse(false, x_prev);\n        y = pi(x_prev, 93927003878993796301442461976674285725878507388897556398417324507303901498211);\n\n        //Line 3 G\n        g = GHash(h_prev);\n\n        //Line 4\n        x_prev = g ^ y;\n\n        //Line 5 H\n        eta = HHash(93927003878993796301442461976674285725878507388897556398417324507303901498211, \"MESSAGE 1\", 6250, x_prev);\n\n        //Line 6\n        h_prev = h_prev ^ eta;\n\n        //Now should be x1 h1\n        bytes32 x_0 = bytes32(54560730099872202741014348823700252121970690209029593489829040881417946844283);\n        bytes32 h_0 = bytes32(30388886992207340305962404453616357726282684957228414817761178193477287654283);\n        return h_prev == h_0 && x_prev == x_0;\n    }\n\n    function testIterationWhereBTrue() returns(bool) {\n        //Not working yet\n        /*\n       b: [false true]\n       pk0: [{100559639697891460902764141020356907258428814093396659529555505846242710753001 65537}\n       pk1: {75514132473334443068127286379962420780446675478900207212147158057076204097627 65537}]\n       sigx 5478324901913405590120700960084756849033925727756286198862916110070595692811\n       sigh 31908922008483892227221543185441079020097797844702142216235016446839414122921\n       r0  31713\n       r1 16181\n\n       x0 48067657424336353606332271955203152262108042684260758989777771218257675402919\n       h0 110698550962008875660816179094143079823491013343052579972863588172519883248496\n       */\n\n        bytes32 x_prev = bytes32(5478324901913405590120700960084756849033925727756286198862916110070595692811); //sig.x\n        bytes32 h_prev = bytes32(31908922008483892227221543185441079020097797844702142216235016446839414122921); //sig.h\n\n        bytes32 g;\n        bytes32 eta;\n        bytes32 y;\n        bytes32 X;\n\n        //Line 2\n        X = split_inverse(true, x_prev);\n        y = pi(x_prev, 75514132473334443068127286379962420780446675478900207212147158057076204097627);\n\n        //Line 3 G\n        g = GHash(h_prev);\n\n        //Line 4\n        x_prev = g ^ y;\n\n        //Line 5 H\n        eta = HHash(75514132473334443068127286379962420780446675478900207212147158057076204097627, \"MESSAGE 1\", 16181, x_prev);\n\n        //Line 6\n        h_prev = h_prev ^ eta;\n\n        //Now should be x1 h1\n        bytes32 x_0 = bytes32(48067657424336353606332271955203152262108042684260758989777771218257675402919);\n        bytes32 h_0 = bytes32(110698550962008875660816179094143079823491013343052579972863588172519883248496);\n        return x_prev == x_0;\n    }\n\n    function testIterationWhereBTrue2() returns(bytes32) {\n        //Not working yet\n        /**\n        b: [false true]\n        pk0: [{103461757571518832622635512335759653289686535967345491211562066594885636499703 65537}\n        pk1: {99730258665501075335213668211394431132735782537502029889654257709728791831553 65537}]\n        x 17345272308542689518344084692542391725387407987955954252876114177875730479097\n        h 72508440660091421077602028370085314092271011290385113018893260330849832526754\n        r0  27913\n        r1 23120\n\n        x0: [16 117 168 232 232 6 14 60 61 167 169 42 196 223 3 180 96 96 224 244 134 86 114 132 48 192 49 62 102 141 90 86]\n        x0: 7444892456440163573410901007413933802788727521996010232230772429884100532822\n        h0 [148 245 112 65 234 115 82 244 229 242 6 16 107 207 73 11 245 140 187 179 248 150 57 138 67 128 252 117 2 51 194 171]\n        h0: 67375953893872021360571726900073981219547307846512650979748574264878368539307\n        */\n\n        bytes32 x_prev = bytes32(17345272308542689518344084692542391725387407987955954252876114177875730479097); //sig.x\n        bytes32 h_prev = bytes32(72508440660091421077602028370085314092271011290385113018893260330849832526754); //sig.h\n\n        bytes32 g;\n        bytes32 eta;\n        bytes32 y;\n        bytes32 X;\n\n        //Line 2\n        X = split_inverse(true, x_prev);\n        y = pi(x_prev, 99730258665501075335213668211394431132735782537502029889654257709728791831553);\n\n        //Line 3 G\n        g = GHash(h_prev);\n\n        //Line 4\n        x_prev = g ^ y;\n\n        //Line 5 H\n        eta = HHash(99730258665501075335213668211394431132735782537502029889654257709728791831553, \"MESSAGE 1\", 23120, x_prev);\n\n        //Line 6\n        h_prev = h_prev ^ eta;\n\n        //Now should be x1 h1\n        return x_prev;\n    }\n\n    function testsplitpi() returns(bytes32) {\n        bytes32 a = split_inverse(true, 27923161953777573553354981145307315045607106610564892606139996960213013027258);\n        return pi(a, 107533363795656919624871251264905461846385118845249129805258716736864472793907);\n\n        //should be:\n        //x [216 46 187 241 18 138 216 192 50 31 82 230 180 8 62 173 220 7 1 115 32 178 191 228 32 170 158 48 43 241 198 23]\n        //x 97782147384832081648842991865189261321407426024020293440409439033677455672855\n    }\n\n}\n",
  "sourcePath": "/home/bjorn/Projects/BGRVerify/contracts/BGRSmall.sol",
  "compiler": {
    "name": "solc",
    "version": "0.4.21+commit.dfe3193c.Emscripten.clang"
  },
  "schemaVersion": "2.0.0",
  "updatedAt": "2018-05-29T19:13:04.498Z"
}