{
  "contractName": "BGRSmall",
  "abi": [
    {
      "constant": false,
      "inputs": [],
      "name": "test",
      "outputs": [
        {
          "name": "",
          "type": "bytes32"
        }
      ],
      "payable": false,
      "stateMutability": "nonpayable",
      "type": "function"
    },
    {
      "constant": false,
      "inputs": [],
      "name": "verify",
      "outputs": [
        {
          "name": "",
          "type": "bool"
        }
      ],
      "payable": false,
      "stateMutability": "nonpayable",
      "type": "function"
    },
    {
      "constant": true,
      "inputs": [
        {
          "name": "x",
          "type": "bytes32"
        }
      ],
      "name": "GHash",
      "outputs": [
        {
          "name": "",
          "type": "bytes32"
        }
      ],
      "payable": false,
      "stateMutability": "pure",
      "type": "function"
    },
    {
      "constant": true,
      "inputs": [
        {
          "name": "pk",
          "type": "uint256"
        },
        {
          "name": "m",
          "type": "string"
        },
        {
          "name": "r",
          "type": "bytes2"
        },
        {
          "name": "x",
          "type": "bytes32"
        }
      ],
      "name": "HHash",
      "outputs": [
        {
          "name": "",
          "type": "bytes32"
        }
      ],
      "payable": false,
      "stateMutability": "pure",
      "type": "function"
    },
    {
      "constant": true,
      "inputs": [
        {
          "name": "pk",
          "type": "uint256"
        },
        {
          "name": "m",
          "type": "string"
        },
        {
          "name": "r",
          "type": "bytes2"
        }
      ],
      "name": "HHashBase",
      "outputs": [
        {
          "name": "",
          "type": "bytes32"
        }
      ],
      "payable": false,
      "stateMutability": "pure",
      "type": "function"
    },
    {
      "constant": false,
      "inputs": [
        {
          "name": "val",
          "type": "bytes32"
        },
        {
          "name": "signer",
          "type": "uint256"
        }
      ],
      "name": "pi",
      "outputs": [
        {
          "name": "",
          "type": "bytes32"
        }
      ],
      "payable": false,
      "stateMutability": "nonpayable",
      "type": "function"
    },
    {
      "constant": false,
      "inputs": [
        {
          "name": "source",
          "type": "string"
        }
      ],
      "name": "stringToBytes32",
      "outputs": [
        {
          "name": "result",
          "type": "bytes32"
        }
      ],
      "payable": false,
      "stateMutability": "nonpayable",
      "type": "function"
    },
    {
      "constant": false,
      "inputs": [],
      "name": "testsplitreverse",
      "outputs": [
        {
          "name": "",
          "type": "bytes32"
        }
      ],
      "payable": false,
      "stateMutability": "nonpayable",
      "type": "function"
    }
  ],
  "bytecode": "0x60606040527f654133600fda068cd12802d8976e2d01df90498bdcc8ab57c5eb335fd65c21656001026000906000191690557f368a9602d813fb30d4dbf6f7614cd440ddfe89d626eee8bff6bfea34030023456001026001906000191690556040805190810160405280600015151515815260200160001515151581525060029060026200008f92919062000295565b5060408051908101604052806159e87e01000000000000000000000000000000000000000000000000000000000000027dffffffffffffffffffffffffffffffffffffffffffffffffffffffffffff19167dffffffffffffffffffffffffffffffffffffffffffffffffffffffffffff1916815260200161d4137e01000000000000000000000000000000000000000000000000000000000000027dffffffffffffffffffffffffffffffffffffffffffffffffffffffffffff19167dffffffffffffffffffffffffffffffffffffffffffffffffffffffffffff191681525060039060026200018192919062000342565b5060408051908101604052806040805190810160405280600981526020017f4d4553534147452030000000000000000000000000000000000000000000000081525081526020016040805190810160405280600981526020017f4d4553534147452031000000000000000000000000000000000000000000000081525081525060049060026200021392919062000411565b506201000160055560408051908101604052807fa4dc86c1aa79ce85484fca700862b21ff592701ee6d208f1da3abad1ff48e92d81526020017fba2597132fbf105e8e78df63ee8e8e441cd46a274f8b3af24e52b259f61fbad181525060069060026200028292919062000478565b5034156200028f57600080fd5b6200065d565b82805482825590600052602060002090601f016020900481019282156200032f5791602002820160005b83821115620002fe57835183826101000a81548160ff0219169083151502179055509260200192600101602081600001049283019260010302620002bf565b80156200032d5782816101000a81549060ff0219169055600101602081600001049283019260010302620002fe565b505b5090506200033e9190620004ca565b5090565b82805482825590600052602060002090600f01601090048101928215620003fe5791602002820160005b83821115620003cc57835183826101000a81548161ffff02191690837e010000000000000000000000000000000000000000000000000000000000009004021790555092602001926002016020816001010492830192600103026200036c565b8015620003fc5782816101000a81549061ffff0219169055600201602081600101049283019260010302620003cc565b505b5090506200040d9190620004fd565b5090565b82805482825590600052602060002090810192821562000465579160200282015b82811115620004645782518290805190602001906200045392919062000531565b509160200191906001019062000432565b5b509050620004749190620005b8565b5090565b828054828255906000526020600020908101928215620004b7579160200282015b82811115620004b657825182559160200191906001019062000499565b5b509050620004c69190620005e9565b5090565b620004fa91905b80821115620004f657600081816101000a81549060ff021916905550600101620004d1565b5090565b90565b6200052e91905b808211156200052a57600081816101000a81549061ffff02191690555060010162000504565b5090565b90565b828054600181600116156101000203166002900490600052602060002090601f016020900481019282601f106200057457805160ff1916838001178555620005a5565b82800160010185558215620005a5579182015b82811115620005a457825182559160200191906001019062000587565b5b509050620005b49190620005e9565b5090565b620005e691905b80821115620005e25760008181620005d8919062000611565b50600101620005bf565b5090565b90565b6200060e91905b808211156200060a576000816000905550600101620005f0565b5090565b90565b50805460018160011615610100020316600290046000825580601f106200063957506200065a565b601f016020900490600052602060002090810190620006599190620005e9565b5b50565b610c05806200066d6000396000f30060606040526004361061008e576000357c0100000000000000000000000000000000000000000000000000000000900463ffffffff16806322c8833b14610093578063318afc44146100bc57806357db91fc146100f2578063b99c5ce914610128578063cfb519281461015e578063f394a6bd14610194578063f8a8fd6d146101ca578063fc735e99146101f3575b600080fd5b341561009e57600080fd5b6100a661021c565b6040516100b39190610af2565b60405180910390f35b34156100c757600080fd5b6100dc60046100d79036906109d7565b61025c565b6040516100e99190610af2565b60405180910390f35b34156100fd57600080fd5b610112600461010d903690610a3e565b61031c565b60405161011f9190610af2565b60405180910390f35b341561013357600080fd5b6101486004610143903690610931565b6103ed565b6040516101559190610af2565b60405180910390f35b341561016957600080fd5b61017e6004610179903690610996565b610419565b60405161018b9190610af2565b60405180910390f35b341561019f57600080fd5b6101b460046101af90369061095a565b61044a565b6040516101c19190610af2565b60405180910390f35b34156101d557600080fd5b6101dd610482565b6040516101ea9190610af2565b60405180910390f35b34156101fe57600080fd5b61020661048c565b6040516102139190610ad7565b60405180910390f35b60008060007f4e77dff73283c2bc58f889e982028d470ba4e97fdb86dc26ff99c6786ed65ce560010291506102526001836107f5565b9050809250505090565b60008383836040518084815260200183805190602001908083835b60208310151561029c5780518252602082019150602081019050602083039250610277565b6001836020036101000a038019825116818451168082178552505050505050905001827dffffffffffffffffffffffffffffffffffffffffffffffffffffffffffff19167dffffffffffffffffffffffffffffffffffffffffffffffffffffffffffff191681526002019350505050604051809103902090509392505050565b6000848484846040518085815260200184805190602001908083835b60208310151561035d5780518252602082019150602081019050602083039250610338565b6001836020036101000a038019825116818451168082178552505050505050905001837dffffffffffffffffffffffffffffffffffffffffffffffffffffffffffff19167dffffffffffffffffffffffffffffffffffffffffffffffffffffffffffff19168152600201826000191660001916815260200194505050505060405180910390209050949350505050565b600080826040518082600019166000191681526020019150506040518091039020905080915050919050565b600061042361088b565b82905060008151141561043c5760006001029150610444565b602083015191505b50919050565b6000610477836001900460055460068581548110151561046657fe5b906000526020600020900154610838565b600102905092915050565b6000600154905090565b600080600080600080600080600080600080549950600154985060016006805490500393505b600084111561064d576104f36002858154811015156104cd57fe5b90600052602060002090602091828204019190069054906101000a900460ff168b6107f5565b94506104ff8a8561044a565b955061050a896103ed565b9750858818995061063860068581548110151561052357fe5b90600052602060002090015460048681548110151561053e57fe5b90600052602060002090018054600181600116156101000203166002900480601f0160208091040260200160405190810160405280929190818152602001828054600181600116156101000203166002900480156105dd5780601f106105b2576101008083540402835291602001916105dd565b820191906000526020600020905b8154815290600101906020018083116105c057829003601f168201915b50505050506003878154811015156105f157fe5b90600052602060002090601091828204019190066002029054906101000a90047e01000000000000000000000000000000000000000000000000000000000000028d61031c565b965086891898508380600190039450506104b2565b6107766006600081548110151561066057fe5b9060005260206000209001546004600081548110151561067c57fe5b90600052602060002090018054600181600116156101000203166002900480601f01602080910402602001604051908101604052809291908181526020018280546001816001161561010002031660029004801561071b5780601f106106f05761010080835404028352916020019161071b565b820191906000526020600020905b8154815290600101906020018083116106fe57829003601f168201915b50505050506003600081548110151561073057fe5b90600052602060002090601091828204019190066002029054906101000a90047e010000000000000000000000000000000000000000000000000000000000000261025c565b9250610781896103ed565b91506107c66107bf6002600081548110151561079957fe5b90600052602060002090602091828204019190069054906101000a900460ff168c6107f5565b600061044a565b9050806000191682600019161480156107e6575088600019168360001916145b9a505050505050505050505090565b6000821561082e577f80000000000000000000000000000000000000000000000000000000000000008260019004016001029050610832565b8190505b92915050565b60008060019150600190505b8381111515610883576000818516141515610869578280151561086357fe5b85830991505b8280151561087357fe5b8586099450600281029050610844565b509392505050565b602060405190810160405280600081525090565b60006108ab8235610b7c565b905092915050565b60006108bf8235610ba8565b905092915050565b600082601f83011215156108da57600080fd5b81356108ed6108e882610b3a565b610b0d565b9150808252602083016020830185838301111561090957600080fd5b610914838284610bbc565b50505092915050565b60006109298235610bb2565b905092915050565b60006020828403121561094357600080fd5b6000610951848285016108b3565b91505092915050565b6000806040838503121561096d57600080fd5b600061097b858286016108b3565b925050602061098c8582860161091d565b9150509250929050565b6000602082840312156109a857600080fd5b600082013567ffffffffffffffff8111156109c257600080fd5b6109ce848285016108c7565b91505092915050565b6000806000606084860312156109ec57600080fd5b60006109fa8682870161091d565b935050602084013567ffffffffffffffff811115610a1757600080fd5b610a23868287016108c7565b9250506040610a348682870161089f565b9150509250925092565b60008060008060808587031215610a5457600080fd5b6000610a628782880161091d565b945050602085013567ffffffffffffffff811115610a7f57600080fd5b610a8b878288016108c7565b9350506040610a9c8782880161089f565b9250506060610aad878288016108b3565b91505092959194509250565b610ac281610b66565b82525050565b610ad181610b72565b82525050565b6000602082019050610aec6000830184610ab9565b92915050565b6000602082019050610b076000830184610ac8565b92915050565b6000604051905081810181811067ffffffffffffffff82111715610b3057600080fd5b8060405250919050565b600067ffffffffffffffff821115610b5157600080fd5b601f19601f8301169050602081019050919050565b60008115159050919050565b6000819050919050565b60007fffff00000000000000000000000000000000000000000000000000000000000082169050919050565b6000819050919050565b6000819050919050565b828183376000838301525050505600a265627a7a723058202ee5bd2ee63666c7bd8530d3871a8367a7b1eb62330034c795a52f26663d7a926c6578706572696d656e74616cf50037",
  "source": "pragma solidity 0.4.21;\npragma experimental ABIEncoderV2;\n\ncontract BGRSmall {\n\n    bytes32 x = bytes32(45798797345008441471296603407528195405884422386972752514202061831699762520421);\n    bytes32 h = bytes32(24669754057063388723536308177062567109991751309402131776417060733734807937861);\n\n    bool[] b = [false, false];\n    bytes2[] r = [bytes2(23016), bytes2(54291)];\n\n    string[] messages = [\n    \"MESSAGE 0\",\n    \"MESSAGE 1\"\n    ];\n\n    //Simulation of PKI\n    uint256 e = 65537;\n    uint256[] modulus = [\n    74568943577140306903732898029939400960367738012421432848789416632191998814509,\n    84196605858849977364210888348878080667870125182309695527302283662066731432657\n    ];\n\n    function test() returns(bytes32) {\n        return h;\n    }\n\n    //function verify(string[] messages, bytes32 x, bytes32 h, bytes2[] r, bool[] b) returns (bool) {\n    function verify() returns (bool) {\n        bytes32 x_prev = x;\n        bytes32 h_prev = h;\n\n        bytes32 g;\n        bytes32 eta;\n        bytes32 y;\n        bytes32 X;\n\n        for (uint i = modulus.length - 1; i > 0; i--) {\n            //Line 2\n            X = split_inverse(b[i], x_prev);\n            y = pi(x_prev, i);\n\n            //Line 3 G\n            g = GHash(h_prev);\n\n            //Line 4\n            x_prev = g ^ y;\n\n            //Line 5 H\n            eta = HHash(modulus[i], messages[i], r[i], x_prev);\n\n            //Line 6\n            h_prev = h_prev ^ eta;\n        }\n\n        //Line 7\n        //bytes32 h_hash = HHash(modulus[0], messages[0], r[0], bytes32(0)); //this is tested\n        bytes32 h_hash = HHashBase(modulus[0], messages[0], r[0]);\n        bytes32 g_hash = GHash(h_prev); //this is tested\n\n        bytes32 pig = pi(split_inverse(b[0], x_prev), 0); //this is tested\n\n        return g_hash == pig && h_hash == h_prev;\n    }\n\n    function GHash(bytes32 x) pure returns (bytes32) {\n        bytes32 hash = keccak256(x);\n        //hash[0] = 0x00;\n        return hash;\n    }\n\n    function HHash(uint256 pk, string m, bytes2 r, bytes32 x) pure returns (bytes32) {\n        return keccak256(pk, m, r, x);\n    }\n\n    function HHashBase(uint256 pk, string m, bytes2 r) pure returns (bytes32) {\n        // this seems to work if Go uses x=nil\n        return keccak256(pk, m, r);\n    }\n\n    function pi(bytes32 val, uint256 signer) returns (bytes32) {\n        return bytes32(modExp(uint256(val), e, modulus[signer]));\n    }\n\n    function modExp(uint256 base, uint256 exp, uint256 mod) internal returns (uint256 result)  {\n        result = 1;\n        for (uint count = 1; count <= exp; count *= 2) {\n            if (exp & count != 0)\n                result = mulmod(result, base, mod);\n            base = mulmod(base, base, mod);\n        }\n    }\n\n    function stringToBytes32(string memory source) returns (bytes32 result) {\n        bytes memory tempEmptyStringTest = bytes(source);\n        if (tempEmptyStringTest.length == 0) {\n            return 0x0;\n        }\n\n        assembly {\n            result := mload(add(source, 32))\n        }\n    }\n\n    function split_inverse(bool b, bytes32 x) internal returns (bytes32) {\n        if (b) {\n            return bytes32(uint256(x) + uint256(57896044618658097711785492504343953926634992332820282019728792003956564819968));\n            //NOTE: 2 ** 255 = 57896044618658097711785492504343953926634992332820282019728792003956564819968\n        }\n        else {\n            return x;\n        }\n    }\n\n\n    function testsplitreverse() returns (bytes32) {\n        //output should be\n        //{206, 119, 223, 247, 50, 131, 194, 188, 88, 248, 137, 233, 130, 2, 141, 71, 11, 164, 233, 127, 219, 134, 220, 38, 255, 153, 198, 120, 110, 214, 92, 229}\n        bytes32 test = bytes32(35492202744065384896209724461799058330743915199574411635769998350682397498597);\n        bytes32 test_joined = split_inverse(true, test);\n        return test_joined;\n    }\n\n}\n",
  "sourcePath": "/home/bjorn/Projects/BGRVerify/contracts/BGRSmall.sol",
  "compiler": {
    "name": "solc",
    "version": "0.4.21+commit.dfe3193c.Emscripten.clang"
  },
  "schemaVersion": "2.0.0",
  "updatedAt": "2018-05-29T14:18:57.656Z"
}