{
  "contractName": "BGRSmall",
  "abi": [
    {
      "constant": false,
      "inputs": [],
      "name": "test",
      "outputs": [
        {
          "name": "",
          "type": "bool"
        }
      ],
      "payable": false,
      "stateMutability": "nonpayable",
      "type": "function"
    },
    {
      "constant": false,
      "inputs": [
        {
          "name": "messages",
          "type": "string[]"
        },
        {
          "name": "x",
          "type": "bytes32"
        },
        {
          "name": "h",
          "type": "bytes32"
        },
        {
          "name": "r",
          "type": "bytes2[]"
        },
        {
          "name": "b",
          "type": "bool[]"
        }
      ],
      "name": "verify",
      "outputs": [
        {
          "name": "",
          "type": "bool"
        }
      ],
      "payable": false,
      "stateMutability": "nonpayable",
      "type": "function"
    },
    {
      "constant": true,
      "inputs": [
        {
          "name": "x",
          "type": "bytes32"
        }
      ],
      "name": "GHash",
      "outputs": [
        {
          "name": "",
          "type": "bytes32"
        }
      ],
      "payable": false,
      "stateMutability": "pure",
      "type": "function"
    },
    {
      "constant": true,
      "inputs": [
        {
          "name": "pk",
          "type": "uint256"
        },
        {
          "name": "m",
          "type": "string"
        },
        {
          "name": "r",
          "type": "bytes2"
        },
        {
          "name": "x",
          "type": "bytes32"
        }
      ],
      "name": "HHash",
      "outputs": [
        {
          "name": "",
          "type": "bytes32"
        }
      ],
      "payable": false,
      "stateMutability": "pure",
      "type": "function"
    },
    {
      "constant": false,
      "inputs": [
        {
          "name": "val",
          "type": "bytes32"
        },
        {
          "name": "signer",
          "type": "uint256"
        }
      ],
      "name": "pi",
      "outputs": [
        {
          "name": "",
          "type": "bytes32"
        }
      ],
      "payable": false,
      "stateMutability": "nonpayable",
      "type": "function"
    },
    {
      "constant": false,
      "inputs": [
        {
          "name": "source",
          "type": "string"
        }
      ],
      "name": "stringToBytes32",
      "outputs": [
        {
          "name": "result",
          "type": "bytes32"
        }
      ],
      "payable": false,
      "stateMutability": "nonpayable",
      "type": "function"
    }
  ],
  "bytecode": "0x60606040526201000160005560408051908101604052807ff64e362569e2a50f90204d9a16f6834e130c8b9f2a590feecfa21a37487344d381526020017fe222aa72c1f6d4178b34005d1c3a4b7b523163379e643ab5c6a2ea0a78740e9b8152506001906002610070929190610081565b50341561007c57600080fd5b6100f3565b8280548282559060005260206000209081019282156100bd579160200282015b828111156100bc5782518255916020019190600101906100a1565b5b5090506100ca91906100ce565b5090565b6100f091905b808211156100ec5760008160009055506001016100d4565b5090565b90565b610f21806101026000396000f300606060405260043610610078576000357c0100000000000000000000000000000000000000000000000000000000900463ffffffff1680630f266a841461007d57806357db91fc146100b3578063b99c5ce9146100e9578063cfb519281461011f578063f394a6bd14610155578063f8a8fd6d1461018b575b600080fd5b341561008857600080fd5b61009d6004610098903690610b45565b6101b4565b6040516100aa9190610d43565b60405180910390f35b34156100be57600080fd5b6100d360046100ce903690610caa565b61026e565b6040516100e09190610d5e565b60405180910390f35b34156100f457600080fd5b6101096004610104903690610c04565b61033f565b6040516101169190610d5e565b60405180910390f35b341561012a57600080fd5b61013f600461013a903690610c69565b61036b565b60405161014c9190610d5e565b60405180910390f35b341561016057600080fd5b6101756004610170903690610c2d565b61039c565b6040516101829190610d5e565b60405180910390f35b341561019657600080fd5b61019e6103dc565b6040516101ab9190610d43565b60405180910390f35b60008060008060008060008060008c97508b9650610223600160008154811015156101db57fe5b9060005260206000209001548f60008151811015156101f657fe5b906020019060200201518d600081518110151561020f57fe5b90602001906020020151600060010261026e565b925061022e8761033f565b915061023b88600061039c565b90508260001916876000191614801561025b575081600019168160001916145b9850505050505050505095945050505050565b6000848484846040518085815260200184805190602001908083835b6020831015156102af578051825260208201915060208101905060208303925061028a565b6001836020036101000a038019825116818451168082178552505050505050905001837dffffffffffffffffffffffffffffffffffffffffffffffffffffffffffff19167dffffffffffffffffffffffffffffffffffffffffffffffffffffffffffff19168152600201826000191660001916815260200194505050505060405180910390209050949350505050565b600080826040518082600019166000191681526020019150506040518091039020905080915050919050565b6000610375610810565b82905060008151141561038e5760006001029150610396565b602083015191505b50919050565b6000806001838154811015156103ae57fe5b9060005260206000209001546000548560019004188115156103cc57fe5b0690508060010291505092915050565b60008060008060008060008094505b6002851015610464576040805190810160405280600881526020017f4d45535341474520000000000000000000000000000000000000000000000000815250868681548110151561043857fe5b90600052602060002090019080519060200190610456929190610824565b5084806001019550506103eb565b670dd8055bea70f4776001029350670dd8055bea70f4776001029250600182600081548110151561049157fe5b90600052602060002090602091828204019190066101000a81548160ff02191690831515021790555060008260018154811015156104cb57fe5b90600052602060002090602091828204019190066101000a81548160ff02191690831515021790555060027e010000000000000000000000000000000000000000000000000000000000000281600081548110151561052657fe5b90600052602060002090601091828204019190066002026101000a81548161ffff02191690837e010000000000000000000000000000000000000000000000000000000000009004021790555060027e01000000000000000000000000000000000000000000000000000000000000028160018154811015156105a557fe5b90600052602060002090601091828204019190066002026101000a81548161ffff02191690837e010000000000000000000000000000000000000000000000000000000000009004021790555061080586805480602002602001604051908101604052809291908181526020016000905b828210156106d357838290600052602060002090018054600181600116156101000203166002900480601f0160208091040260200160405190810160405280929190818152602001828054600181600116156101000203166002900480156106bf5780601f10610694576101008083540402835291602001916106bf565b820191906000526020600020905b8154815290600101906020018083116106a257829003601f168201915b505050505081526020019060010190610616565b5050505085858480548060200260200160405190810160405280929190818152602001828054801561078657602002820191906000526020600020906000905b82829054906101000a90047e01000000000000000000000000000000000000000000000000000000000000027dffffffffffffffffffffffffffffffffffffffffffffffffffffffffffff1916815260200190600201906020826001010492830192600103820291508084116107135790505b5050505050868054806020026020016040519081016040528092919081815260200182805480156107fb57602002820191906000526020600020906000905b82829054906101000a900460ff161515815260200190600101906020826000010492830192600103820291508084116107c55790505b50505050506101b4565b965050505050505090565b602060405190810160405280600081525090565b828054600181600116156101000203166002900490600052602060002090601f016020900481019282601f1061086557805160ff1916838001178555610893565b82800160010185558215610893579182015b82811115610892578251825591602001919060010190610877565b5b5090506108a091906108a4565b5090565b6108c691905b808211156108c25760008160009055506001016108aa565b5090565b90565b600082601f83011215156108dc57600080fd5b81356108ef6108ea82610da6565b610d79565b9150818183526020840193506020810190508385602084028201111561091457600080fd5b60005b83811015610944578161092a8882610a49565b845260208401935060208301925050600181019050610917565b5050505092915050565b600082601f830112151561096157600080fd5b813561097461096f82610dce565b610d79565b9150818183526020840193506020810190508385602084028201111561099957600080fd5b60005b838110156109c957816109af8882610a5d565b84526020840193506020830192505060018101905061099c565b5050505092915050565b600082601f83011215156109e657600080fd5b81356109f96109f482610df6565b610d79565b9150818183526020840193506020810190508360005b83811015610a3f5781358601610a258882610a85565b845260208401935060208301925050600181019050610a0f565b5050505092915050565b6000610a558235610e8c565b905092915050565b6000610a698235610e98565b905092915050565b6000610a7d8235610ec4565b905092915050565b600082601f8301121515610a9857600080fd5b8135610aab610aa682610e1e565b610d79565b91508082526020830160208301858383011115610ac757600080fd5b610ad2838284610ed8565b50505092915050565b600082601f8301121515610aee57600080fd5b8135610b01610afc82610e4a565b610d79565b91508082526020830160208301858383011115610b1d57600080fd5b610b28838284610ed8565b50505092915050565b6000610b3d8235610ece565b905092915050565b600080600080600060a08688031215610b5d57600080fd5b600086013567ffffffffffffffff811115610b7757600080fd5b610b83888289016109d3565b9550506020610b9488828901610a71565b9450506040610ba588828901610a71565b935050606086013567ffffffffffffffff811115610bc257600080fd5b610bce8882890161094e565b925050608086013567ffffffffffffffff811115610beb57600080fd5b610bf7888289016108c9565b9150509295509295909350565b600060208284031215610c1657600080fd5b6000610c2484828501610a71565b91505092915050565b60008060408385031215610c4057600080fd5b6000610c4e85828601610a71565b9250506020610c5f85828601610b31565b9150509250929050565b600060208284031215610c7b57600080fd5b600082013567ffffffffffffffff811115610c9557600080fd5b610ca184828501610adb565b91505092915050565b60008060008060808587031215610cc057600080fd5b6000610cce87828801610b31565b945050602085013567ffffffffffffffff811115610ceb57600080fd5b610cf787828801610adb565b9350506040610d0887828801610a5d565b9250506060610d1987828801610a71565b91505092959194509250565b610d2e81610e76565b82525050565b610d3d81610e82565b82525050565b6000602082019050610d586000830184610d25565b92915050565b6000602082019050610d736000830184610d34565b92915050565b6000604051905081810181811067ffffffffffffffff82111715610d9c57600080fd5b8060405250919050565b600067ffffffffffffffff821115610dbd57600080fd5b602082029050602081019050919050565b600067ffffffffffffffff821115610de557600080fd5b602082029050602081019050919050565b600067ffffffffffffffff821115610e0d57600080fd5b602082029050602081019050919050565b600067ffffffffffffffff821115610e3557600080fd5b601f19601f8301169050602081019050919050565b600067ffffffffffffffff821115610e6157600080fd5b601f19601f8301169050602081019050919050565b60008115159050919050565b6000819050919050565b60008115159050919050565b60007fffff00000000000000000000000000000000000000000000000000000000000082169050919050565b6000819050919050565b6000819050919050565b828183376000838301525050505600a265627a7a72305820e2cd3c0ce9c2c487c350acb2bb254b637ba3799a268a4b545636c94120eb2ef66c6578706572696d656e74616cf50037",
  "source": "pragma solidity 0.4.21;\npragma experimental ABIEncoderV2;\n\ncontract BGRSmall {\n    //Simulation of PKI\n    uint e = 65537;\n    uint[] modulus = [\n        111407148525508025767718379751758291964614386688624532754672299329456855794899,\n        102283952970760354931552657672140997299422871062984001550601562917514908012187\n    ];\n\n\n    function test() returns (bool) {\n        string[] messages;\n        for(uint i = 0; i < 2; i++) {\n            messages[i] = \"MESSAGE \";\n        }\n\n        bytes32 x = bytes32(997553209795998839);\n        bytes32 h = bytes32(997553209795998839);\n\n        bool[] b;\n        b[0] = true;\n        b[1] = false;\n\n        bytes2[] r; //= [byte(2), byte(2), byte(2), byte(2), byte(2)];\n        r[0] = bytes2(2);\n        r[1] = bytes2(2);\n\n        return verify(messages, x, h, r, b);\n    }\n\n    function verify(string[] messages, bytes32 x, bytes32 h, bytes2[] r, bool[] b) returns (bool) {\n        bytes32 x_prev = x;\n        bytes32 h_prev = h;\n\n        bytes32 g;\n        bytes32 eta;\n        bytes32 y;\n\n\n        /*\n        for (uint i = modulus.length; i > 0; i--) {\n            //Line 2\n            //X := split_inverse(signature.b[i], x_prev)\n            y = pi(x_prev, i); //pi(X, publickeys[i])\n\n            //Line 3\n            g = GHash(h_prev);\n\n            //Line 4\n            x_prev = g ^ y;\n\n            //Line 5\n            eta = HHash(r[i]);\n\n            //Line 6\n            h_prev = h_prev ^ eta;\n        }*/\n\n        //Line 7\n        bytes32 h_hash = HHash(modulus[0], messages[0], r[0], bytes32(0)); //H(publickeys[0], messages[0], r[0], []byte{})\n        bytes32 g_hash = GHash(h_prev);\n        bytes32 pig = pi(x_prev, 0); //pi(split_inverse(signature.b[0], x_prev), publickeys[0])\n\n        //return h_prev_num.Cmp(HHash_num) == 0 && pig_num.Cmp(GHash_num) == 0;\n        return (h_prev == h_hash) && (pig == g_hash);\n    }\n\n    function GHash(bytes32 x) pure returns (bytes32) {\n        bytes32 hash = keccak256(x);\n        //hash[0] = 0x00;\n        return hash;\n    }\n\n    function HHash(uint pk, string m, bytes2 r, bytes32 x) pure returns (bytes32) {\n        return keccak256(pk, m, r, x);\n    }\n\n    function pi(bytes32 val, uint signer) returns (bytes32) {\n        //uint numval = uint(val);\n        uint res = (uint(val)^e) % modulus[signer];\n        return bytes32(res);\n    }\n\n    function stringToBytes32(string memory source) returns (bytes32 result) {\n        bytes memory tempEmptyStringTest = bytes(source);\n        if (tempEmptyStringTest.length == 0) {\n            return 0x0;\n        }\n\n        assembly {\n            result := mload(add(source, 32))\n        }\n    }\n\n}\n",
  "sourcePath": "/home/bjorn/Projects/BGRVerify/contracts/BGRSmall.sol",
  "compiler": {
    "name": "solc",
    "version": "0.4.21+commit.dfe3193c.Emscripten.clang"
  },
  "schemaVersion": "2.0.0",
  "updatedAt": "2018-05-28T14:27:33.419Z"
}