{
  "contractName": "BGRSmall",
  "abi": [
    {
      "constant": false,
      "inputs": [],
      "name": "verify",
      "outputs": [
        {
          "name": "",
          "type": "bool"
        }
      ],
      "payable": false,
      "stateMutability": "nonpayable",
      "type": "function"
    },
    {
      "constant": true,
      "inputs": [
        {
          "name": "x",
          "type": "bytes32"
        }
      ],
      "name": "GHash",
      "outputs": [
        {
          "name": "",
          "type": "bytes32"
        }
      ],
      "payable": false,
      "stateMutability": "pure",
      "type": "function"
    },
    {
      "constant": true,
      "inputs": [
        {
          "name": "pk",
          "type": "uint256"
        },
        {
          "name": "m",
          "type": "string"
        },
        {
          "name": "r",
          "type": "bytes2"
        },
        {
          "name": "x",
          "type": "bytes32"
        }
      ],
      "name": "HHash",
      "outputs": [
        {
          "name": "",
          "type": "bytes32"
        }
      ],
      "payable": false,
      "stateMutability": "pure",
      "type": "function"
    },
    {
      "constant": false,
      "inputs": [
        {
          "name": "val",
          "type": "bytes32"
        },
        {
          "name": "signer",
          "type": "uint256"
        }
      ],
      "name": "pi",
      "outputs": [
        {
          "name": "",
          "type": "bytes32"
        }
      ],
      "payable": false,
      "stateMutability": "nonpayable",
      "type": "function"
    },
    {
      "constant": false,
      "inputs": [
        {
          "name": "source",
          "type": "string"
        }
      ],
      "name": "stringToBytes32",
      "outputs": [
        {
          "name": "result",
          "type": "bytes32"
        }
      ],
      "payable": false,
      "stateMutability": "nonpayable",
      "type": "function"
    }
  ],
  "bytecode": "0x60606040527f77ee95e03e54ae48d3b887920c60c2e5cc16b535453e6b66edbad03fc6f436776001026000906000191690557f018467067ccb410b54b415fb0530c134f05907b9a84bc30bf1e6a072ed02b5bb600102600190600019169055602060405190810160405280600015151515815250600290600162000085929190620001c2565b5060206040519081016040528061ed637e01000000000000000000000000000000000000000000000000000000000000027dffffffffffffffffffffffffffffffffffffffffffffffffffffffffffff19167dffffffffffffffffffffffffffffffffffffffffffffffffffffffffffff191681525060039060016200010d9291906200026f565b506020604051908101604052806040805190810160405280600981526020017f4d455353414745203000000000000000000000000000000000000000000000008152508152506004906001620001659291906200033e565b50620100016005556020604051908101604052807fe06dd21d4302ff5adfacef21e75c712e8fa921b8aaef126dee8dc2ef48e8bef18152506006906001620001af929190620003a5565b503415620001bc57600080fd5b6200058a565b82805482825590600052602060002090601f016020900481019282156200025c5791602002820160005b838211156200022b57835183826101000a81548160ff0219169083151502179055509260200192600101602081600001049283019260010302620001ec565b80156200025a5782816101000a81549060ff02191690556001016020816000010492830192600103026200022b565b505b5090506200026b9190620003f7565b5090565b82805482825590600052602060002090600f016010900481019282156200032b5791602002820160005b83821115620002f957835183826101000a81548161ffff02191690837e0100000000000000000000000000000000000000000000000000000000000090040217905550926020019260020160208160010104928301926001030262000299565b8015620003295782816101000a81549061ffff0219169055600201602081600101049283019260010302620002f9565b505b5090506200033a91906200042a565b5090565b82805482825590600052602060002090810192821562000392579160200282015b8281111562000391578251829080519060200190620003809291906200045e565b50916020019190600101906200035f565b5b509050620003a19190620004e5565b5090565b828054828255906000526020600020908101928215620003e4579160200282015b82811115620003e3578251825591602001919060010190620003c6565b5b509050620003f3919062000516565b5090565b6200042791905b808211156200042357600081816101000a81549060ff021916905550600101620003fe565b5090565b90565b6200045b91905b808211156200045757600081816101000a81549061ffff02191690555060010162000431565b5090565b90565b828054600181600116156101000203166002900490600052602060002090601f016020900481019282601f10620004a157805160ff1916838001178555620004d2565b82800160010185558215620004d2579182015b82811115620004d1578251825591602001919060010190620004b4565b5b509050620004e1919062000516565b5090565b6200051391905b808211156200050f57600081816200050591906200053e565b50600101620004ec565b5090565b90565b6200053b91905b80821115620005375760008160009055506001016200051d565b5090565b90565b50805460018160011615610100020316600290046000825580601f1062000566575062000587565b601f01602090049060005260206000209081019062000586919062000516565b5b50565b6107de806200059a6000396000f30060606040526004361061006d576000357c0100000000000000000000000000000000000000000000000000000000900463ffffffff16806357db91fc14610072578063b99c5ce9146100a8578063cfb51928146100de578063f394a6bd14610114578063fc735e991461014a575b600080fd5b341561007d57600080fd5b610092600461008d903690610617565b610173565b60405161009f91906106cb565b60405180910390f35b34156100b357600080fd5b6100c860046100c3903690610571565b610244565b6040516100d591906106cb565b60405180910390f35b34156100e957600080fd5b6100fe60046100f99036906105d6565b610270565b60405161010b91906106cb565b60405180910390f35b341561011f57600080fd5b610134600461012f90369061059a565b6102a1565b60405161014191906106cb565b60405180910390f35b341561015557600080fd5b61015d6102d9565b60405161016a91906106b0565b60405180910390f35b6000848484846040518085815260200184805190602001908083835b6020831015156101b4578051825260208201915060208101905060208303925061018f565b6001836020036101000a038019825116818451168082178552505050505050905001837dffffffffffffffffffffffffffffffffffffffffffffffffffffffffffff19167dffffffffffffffffffffffffffffffffffffffffffffffffffffffffffff19168152600201826000191660001916815260200194505050505060405180910390209050949350505050565b600080826040518082600019166000191681526020019150506040518091039020905080915050919050565b600061027a6104cb565b829050600081511415610293576000600102915061029b565b602083015191505b50919050565b60006102ce83600190046005546006858154811015156102bd57fe5b906000526020600020900154610478565b600102905092915050565b600080600080600080600080600080600054985060015497506006600081548110151561030257fe5b9060005260206000209001546004600081548110151561031e57fe5b90600052602060002090016003600081548110151561033957fe5b90600052602060002090601091828204019190066002029054906101000a90047e010000000000000000000000000000000000000000000000000000000000000260405180848152602001838054600181600116156101000203166002900480156103db5780601f106103b95761010080835404028352918201916103db565b820191906000526020600020905b8154815290600101906020018083116103c7575b5050827dffffffffffffffffffffffffffffffffffffffffffffffffffffffffffff19167dffffffffffffffffffffffffffffffffffffffffffffffffffffffffffff1916815260020193505050506040518091039020925061043d88610244565b915061044a8960006102a1565b90508060001916826000191614801561046a575087600019168360001916145b995050505050505050505090565b60008060019150600190505b83811115156104c35760008185161415156104a957828015156104a357fe5b85830991505b828015156104b357fe5b8586099450600281029050610484565b509392505050565b602060405190810160405280600081525090565b60006104eb8235610755565b905092915050565b60006104ff8235610781565b905092915050565b600082601f830112151561051a57600080fd5b813561052d61052882610713565b6106e6565b9150808252602083016020830185838301111561054957600080fd5b610554838284610795565b50505092915050565b6000610569823561078b565b905092915050565b60006020828403121561058357600080fd5b6000610591848285016104f3565b91505092915050565b600080604083850312156105ad57600080fd5b60006105bb858286016104f3565b92505060206105cc8582860161055d565b9150509250929050565b6000602082840312156105e857600080fd5b600082013567ffffffffffffffff81111561060257600080fd5b61060e84828501610507565b91505092915050565b6000806000806080858703121561062d57600080fd5b600061063b8782880161055d565b945050602085013567ffffffffffffffff81111561065857600080fd5b61066487828801610507565b9350506040610675878288016104df565b9250506060610686878288016104f3565b91505092959194509250565b61069b8161073f565b82525050565b6106aa8161074b565b82525050565b60006020820190506106c56000830184610692565b92915050565b60006020820190506106e060008301846106a1565b92915050565b6000604051905081810181811067ffffffffffffffff8211171561070957600080fd5b8060405250919050565b600067ffffffffffffffff82111561072a57600080fd5b601f19601f8301169050602081019050919050565b60008115159050919050565b6000819050919050565b60007fffff00000000000000000000000000000000000000000000000000000000000082169050919050565b6000819050919050565b6000819050919050565b828183376000838301525050505600a265627a7a723058208da229b8f089d6c9caad3c7ec980538f69f42a8fa32e08c1544cf3c4b13677966c6578706572696d656e74616cf50037",
  "source": "pragma solidity 0.4.21;\npragma experimental ABIEncoderV2;\n\ncontract BGRSmall {\n\n    bytes32 x = bytes32(54246772988623878666130737933778763861701211658513702228860328065872587667063);\n    bytes32 h = bytes32(686247715909750596135325064604597544989919342482424756002022515589561628091);\n\n    bool[] b = [false];\n    bytes2[] r = [bytes2(60771)];\n\n    string[] messages = [\n        \"MESSAGE 0\"\n    ];\n\n    //Simulation of PKI\n    uint256 e = 65537;\n    uint256[] modulus = [\n    101512114568340950887010048880300901107587236119931590350595534951329361870577\n    ];\n\n\n//function verify(string[] messages, bytes32 x, bytes32 h, bytes2[] r, bool[] b) returns (bool) {\n    function verify() returns (bool) {\n        bytes32 x_prev = x;\n        bytes32 h_prev = h;\n\n        bytes32 g;\n        bytes32 eta;\n        bytes32 y;\n        bytes32 X;\n\n        /*\n        for (uint i = modulus.length - 1; i > 0; i--) {\n            //Line 2\n            X = split_inverse(b[i], x_prev);\n            y = pi(x_prev, i);\n\n            //Line 3 G\n            g = keccak256(h_prev);\n\n            //Line 4\n            x_prev = g ^ y;\n\n            //Line 5 H\n            eta = keccak256(modulus[i], messages[i], r[i], x_prev);\n\n            //Line 6\n            h_prev = h_prev ^ eta;\n        }\n        */\n\n        //Line 7\n        //bytes32 h_hash = HHash(modulus[0], messages[0], r[0], bytes32(0)); //this is tested\n        bytes32 h_hash = keccak256(modulus[0], messages[0], r[0]); // this seems to work if GO uses nil\n        bytes32 g_hash = GHash(h_prev); //this is tested\n\n        bytes32 pig = pi(x_prev, 0); //this is tested\n\n        return g_hash == pig && h_hash == h_prev;\n    }\n\n    function GHash(bytes32 x) pure returns (bytes32) {\n        bytes32 hash = keccak256(x);\n        //hash[0] = 0x00;\n        return hash;\n    }\n\n    function HHash(uint256 pk, string m, bytes2 r, bytes32 x) pure returns (bytes32) {\n        return keccak256(pk, m, r, x);\n        //return keccak256(pk, m, r, x);\n    }\n\n    function pi(bytes32 val, uint256 signer) returns (bytes32) {\n        return bytes32(modExp(uint256(val), e, modulus[signer]));\n    }\n\n    function modExp(uint256 base, uint256 exp, uint256 mod) internal returns (uint256 result)  {\n        result = 1;\n        for (uint count = 1; count <= exp; count *= 2) {\n            if (exp & count != 0)\n                result = mulmod(result, base, mod);\n            base = mulmod(base, base, mod);\n        }\n    }\n\n    function stringToBytes32(string memory source) returns (bytes32 result) {\n        bytes memory tempEmptyStringTest = bytes(source);\n        if (tempEmptyStringTest.length == 0) {\n            return 0x0;\n        }\n\n        assembly {\n            result := mload(add(source, 32))\n        }\n    }\n\n    function split_inverse(bool b, bytes32 x) internal returns (bytes32) {\n        if (b) {\n            return bytes32(uint256(x) - 2147483648); //2 ** 31\n        }\n        else {\n            return x;\n        }\n    }\n}\n",
  "sourcePath": "/home/bjorn/Projects/BGRVerify/contracts/BGRSmall.sol",
  "compiler": {
    "name": "solc",
    "version": "0.4.21+commit.dfe3193c.Emscripten.clang"
  },
  "schemaVersion": "2.0.0",
  "updatedAt": "2018-05-29T09:55:08.376Z"
}