{
  "contractName": "BGRSmall",
  "abi": [
    {
      "constant": false,
      "inputs": [
        {
          "name": "x",
          "type": "bytes32"
        },
        {
          "name": "h",
          "type": "bytes32"
        },
        {
          "name": "r",
          "type": "bytes2[]"
        },
        {
          "name": "b",
          "type": "bool[]"
        },
        {
          "name": "modulus",
          "type": "uint256[]"
        }
      ],
      "name": "verify",
      "outputs": [
        {
          "name": "",
          "type": "bool"
        }
      ],
      "payable": false,
      "stateMutability": "nonpayable",
      "type": "function"
    },
    {
      "constant": false,
      "inputs": [
        {
          "name": "val",
          "type": "bytes32"
        },
        {
          "name": "e",
          "type": "uint256"
        },
        {
          "name": "mod",
          "type": "uint256"
        }
      ],
      "name": "pi",
      "outputs": [
        {
          "name": "",
          "type": "bytes32"
        }
      ],
      "payable": false,
      "stateMutability": "nonpayable",
      "type": "function"
    }
  ],
  "bytecode": "0x60606040526060604051908101604052806040805190810160405280600981526020017f4d4553534147452030000000000000000000000000000000000000000000000081525081526020016040805190810160405280600981526020017f4d4553534147452031000000000000000000000000000000000000000000000081525081526020016040805190810160405280600981526020017f4d455353414745203200000000000000000000000000000000000000000000008152508152506000906003620000d1929190620000e4565b503415620000de57600080fd5b62000277565b82805482825590600052602060002090810192821562000138579160200282015b8281111562000137578251829080519060200190620001269291906200014b565b509160200191906001019062000105565b5b509050620001479190620001d2565b5090565b828054600181600116156101000203166002900490600052602060002090601f016020900481019282601f106200018e57805160ff1916838001178555620001bf565b82800160010185558215620001bf579182015b82811115620001be578251825591602001919060010190620001a1565b5b509050620001ce919062000203565b5090565b6200020091905b80821115620001fc5760008181620001f291906200022b565b50600101620001d9565b5090565b90565b6200022891905b80821115620002245760008160009055506001016200020a565b5090565b90565b50805460018160011615610100020316600290046000825580601f1062000253575062000274565b601f01602090049060005260206000209081019062000273919062000203565b5b50565b61096280620002876000396000f30060606040526004361061004c576000357c0100000000000000000000000000000000000000000000000000000000900463ffffffff1680631d1d556914610051578063c72d18ed14610087575b600080fd5b341561005c57600080fd5b610071600461006c90369061077e565b6100bd565b60405161007e9190610806565b60405180910390f35b341561009257600080fd5b6100a760046100a29036906106bf565b6100da565b6040516100b491906107eb565b60405180910390f35b60006100ce846001900484846103fa565b60010290509392505050565b60008060008060008060008b95508a9450600188510393505b6000841115610271576101416101208a8681518110151561011057fe5b906020019060200201518861044d565b620100018a8781518110151561013257fe5b906020019060200201516100bd565b61014a86610490565b189550878481518110151561015b57fe5b9060200190602002015160008581548110151561017457fe5b90600052602060002090018b8681518110151561018d57fe5b906020019060200201518860405180858152602001848054600181600116156101000203166002900480156101f95780601f106101d75761010080835404028352918201916101f9565b820191906000526020600020905b8154815290600101906020018083116101e5575b5050837dffffffffffffffffffffffffffffffffffffffffffffffffffffffffffff19167dffffffffffffffffffffffffffffffffffffffffffffffffffffffffffff1916815260020182600019166000191681526020019450505050506040518091039020851894508380600190039450506100f3565b87600081518110151561028057fe5b9060200190602002015160008081548110151561029957fe5b90600052602060002090018b60008151811015156102b357fe5b90602001906020020151604051808481526020018380546001816001161561010002031660029004801561031e5780601f106102fc57610100808354040283529182019161031e565b820191906000526020600020905b81548152906001019060200180831161030a575b5050827dffffffffffffffffffffffffffffffffffffffffffffffffffffffffffff19167dffffffffffffffffffffffffffffffffffffffffffffffffffffffffffff1916815260020193505050506040518091039020925061038085610490565b91506103c96103a78a600081518110151561039757fe5b906020019060200201518861044d565b620100018a60008151811015156103ba57fe5b906020019060200201516100bd565b9050806000191682600019161480156103e9575084600019168360001916145b965050505050505095945050505050565b60008060019150600190505b838111151561044557600081851614151561042b578280151561042557fe5b85830991505b8280151561043557fe5b8586099450600281029050610406565b509392505050565b60008215610486577f8000000000000000000000000000000000000000000000000000000000000000826001900401600102905061048a565b8190505b92915050565b60008082604051808260001916600019168152602001915050604051809103902090507effffffffffffffffffffffffffffffffffffffffffffffffffffffffffffff6001028116915050919050565b600082601f83011215156104f357600080fd5b81356105066105018261084e565b610821565b9150818183526020840193506020810190508385602084028201111561052b57600080fd5b60005b8381101561055b5781610541888261066f565b84526020840193506020830192505060018101905061052e565b5050505092915050565b600082601f830112151561057857600080fd5b813561058b61058682610876565b610821565b915081818352602084019350602081019050838560208402820111156105b057600080fd5b60005b838110156105e057816105c68882610683565b8452602084019350602083019250506001810190506105b3565b5050505092915050565b600082601f83011215156105fd57600080fd5b813561061061060b8261089e565b610821565b9150818183526020840193506020810190508385602084028201111561063557600080fd5b60005b83811015610665578161064b88826106ab565b845260208401935060208301925050600181019050610638565b5050505092915050565b600061067b82356108dc565b905092915050565b600061068f82356108e8565b905092915050565b60006106a38235610914565b905092915050565b60006106b7823561091e565b905092915050565b600080600080600060a086880312156106d757600080fd5b60006106e588828901610697565b95505060206106f688828901610697565b945050604086013567ffffffffffffffff81111561071357600080fd5b61071f88828901610565565b935050606086013567ffffffffffffffff81111561073c57600080fd5b610748888289016104e0565b925050608086013567ffffffffffffffff81111561076557600080fd5b610771888289016105ea565b9150509295509295909350565b60008060006060848603121561079357600080fd5b60006107a186828701610697565b93505060206107b2868287016106ab565b92505060406107c3868287016106ab565b9150509250925092565b6107d6816108c6565b82525050565b6107e5816108d2565b82525050565b600060208201905061080060008301846107cd565b92915050565b600060208201905061081b60008301846107dc565b92915050565b6000604051905081810181811067ffffffffffffffff8211171561084457600080fd5b8060405250919050565b600067ffffffffffffffff82111561086557600080fd5b602082029050602081019050919050565b600067ffffffffffffffff82111561088d57600080fd5b602082029050602081019050919050565b600067ffffffffffffffff8211156108b557600080fd5b602082029050602081019050919050565b60008115159050919050565b6000819050919050565b60008115159050919050565b60007fffff00000000000000000000000000000000000000000000000000000000000082169050919050565b6000819050919050565b60008190509190505600a265627a7a723058202a3792c1ff7fcbf4ecd40d08010b30addaf6f364e5130ec18f7ba19c554088b66c6578706572696d656e74616cf50037",
  "source": "pragma solidity 0.4.21;\npragma experimental ABIEncoderV2;\n\ncontract BGRSmall {\n\n    uint256 constant e = 65537;\n\n    string[] messages = [\n    \"MESSAGE 0\",\n    \"MESSAGE 1\",\n    \"MESSAGE 2\"\n    ];\n\n    function verify(bytes32 x, bytes32 h, bytes2[] r, bool[] b, uint256[] modulus) returns (bool) {\n        bytes32 x_prev = x;\n        bytes32 h_prev = h;\n\n        for (uint i = modulus.length - 1; i > 0; i--) {\n            //Line 2, 3, 4\n            x_prev = GHash(h_prev) ^ pi(split_inverse(b[i], x_prev), e, modulus[i]); //g ^ y\n\n            //Line 5, 6\n            h_prev = h_prev ^ keccak256(modulus[i], messages[i], r[i], x_prev); // ^ eta\n        }\n\n        //Line 7\n        bytes32 h_hash = keccak256(modulus[0], messages[0], r[0]); // this seems to work if Go uses x=nil\n        bytes32 g_hash = GHash(h_prev);\n\n        bytes32 pig = pi(split_inverse(b[0], x_prev), e, modulus[0]);\n\n        return g_hash == pig && h_hash == h_prev;\n    }\n\n    function GHash(bytes32 x) internal pure returns (bytes32) {\n        bytes32 hash = keccak256(x);\n        return hash & 0x00ffffffffffffffffffffffffffffffffffffffffffffffffffffffffffffff;\n    }\n\n    function pi(bytes32 val, uint256 e, uint256 mod) returns (bytes32) {\n        return bytes32(modExp(uint256(val), e, mod));\n    }\n\n    function modExp(uint256 base, uint256 exp, uint256 mod) internal pure returns (uint256 result)  {\n        result = 1;\n        for (uint count = 1; count <= exp; count *= 2) {\n            if (exp & count != 0)\n                result = mulmod(result, base, mod);\n            base = mulmod(base, base, mod);\n        }\n    }\n\n    function split_inverse(bool b, bytes32 x) internal pure returns (bytes32) {\n        if (b) {\n            return bytes32(uint256(x) + uint256(57896044618658097711785492504343953926634992332820282019728792003956564819968));\n            //NOTE: 2 ** 255 = 57896044618658097711785492504343953926634992332820282019728792003956564819968\n        }\n        else {\n            return x;\n        }\n    }\n\n}\n",
  "sourcePath": "/home/bjorn/Projects/BGRVerify/contracts/BGRSmall.sol",
  "compiler": {
    "name": "solc",
    "version": "0.4.21+commit.dfe3193c.Emscripten.clang"
  },
  "schemaVersion": "2.0.0",
  "updatedAt": "2018-06-03T09:40:46.761Z"
}