{
  "contractName": "BGRUtils",
  "abi": [
    {
      "constant": false,
      "inputs": [
        {
          "name": "x",
          "type": "bytes"
        }
      ],
      "name": "GHash",
      "outputs": [
        {
          "name": "",
          "type": "bytes32"
        }
      ],
      "payable": false,
      "stateMutability": "nonpayable",
      "type": "function"
    },
    {
      "constant": false,
      "inputs": [
        {
          "name": "x",
          "type": "bytes"
        }
      ],
      "name": "HHash",
      "outputs": [
        {
          "name": "",
          "type": "bytes32"
        }
      ],
      "payable": false,
      "stateMutability": "nonpayable",
      "type": "function"
    },
    {
      "constant": true,
      "inputs": [
        {
          "name": "a",
          "type": "bytes"
        },
        {
          "name": "b",
          "type": "bytes"
        }
      ],
      "name": "MergeBytes",
      "outputs": [
        {
          "name": "c",
          "type": "bytes"
        }
      ],
      "payable": false,
      "stateMutability": "pure",
      "type": "function"
    }
  ],
  "bytecode": "0x6060604052341561000f57600080fd5b6104328061001e6000396000f300606060405260043610610057576000357c0100000000000000000000000000000000000000000000000000000000900463ffffffff16806331537cdc1461005c5780637f39473d146100d5578063d1f6d4c51461014e575b600080fd5b341561006757600080fd5b6100b7600480803590602001908201803590602001908080601f01602080910402602001604051908101604052809392919081815260200183838082843782019150505050505091905050610267565b60405180826000191660001916815260200191505060405180910390f35b34156100e057600080fd5b610130600480803590602001908201803590602001908080601f016020809104026020016040519081016040528093929190818152602001838380828437820191505050505050919050506102d3565b60405180826000191660001916815260200191505060405180910390f35b341561015957600080fd5b6101ec600480803590602001908201803590602001908080601f0160208091040260200160405190810160405280939291908181526020018383808284378201915050505050509190803590602001908201803590602001908080601f0160208091040260200160405190810160405280939291908181526020018383808284378201915050505050509190505061033f565b6040518080602001828103825283818151815260200191508051906020019080838360005b8381101561022c578082015181840152602081019050610211565b50505050905090810190601f1680156102595780820380516001836020036101000a031916815260200191505b509250505060405180910390f35b6000816040518082805190602001908083835b60208310151561029f578051825260208201915060208101905060208303925061027a565b6001836020036101000a03801982511681845116808217855250505050505090500191505060405180910390209050919050565b6000816040518082805190602001908083835b60208310151561030b57805182526020820191506020810190506020830392506102e6565b6001836020036101000a03801982511681845116808217855250505050505090500191505060405180910390209050919050565b6103476103f2565b600080600080865193508551840192506020601f88510181151561036757fe5b0491506020601f87510181151561037a57fe5b04905060405183815260005b838110156103ad578060010160200289015181600101602002830152806001019050610386565b5060005b828110156103da57806001016020028801518682600101602002018301528060010190506103b1565b50836020018101604052809550505050505092915050565b6020604051908101604052806000815250905600a165627a7a723058208ecf45312737b492eeee32d168de5cee01a7135763f1974aec0fb007d52bf2070029",
  "source": "pragma solidity 0.4.21;\n\n\ncontract BGRUtils {\n    function GHash(bytes x) returns (bytes32) {\n        return keccak256(x); //+ hash + hash + hash + hash + hash + hash + hash;\n        //bytes empty = [byte(0), ];\n    }\n\n    function HHash(bytes x) returns (bytes32) {\n        return keccak256(x);\n    }\n\n    function MergeBytes(bytes memory a, bytes memory b) public pure returns (bytes memory c) {\n        // Store the length of the first array\n        uint alen = a.length;\n        // Store the length of BOTH arrays\n        uint totallen = alen + b.length;\n        // Count the loops required for array a (sets of 32 bytes)\n        uint loopsa = (a.length + 31) / 32;\n        // Count the loops required for array b (sets of 32 bytes)\n        uint loopsb = (b.length + 31) / 32;\n        assembly {\n            let m := mload(0x40)\n        // Load the length of both arrays to the head of the new bytes array\n            mstore(m, totallen)\n        // Add the contents of a to the array\n            for {  let i := 0 } lt(i, loopsa) { i := add(1, i) } { mstore(add(m, mul(32, add(1, i))), mload(add(a, mul(32, add(1, i))))) }\n        // Add the contents of b to the array\n            for {  let i := 0 } lt(i, loopsb) { i := add(1, i) } { mstore(add(m, add(mul(32, add(1, i)), alen)), mload(add(b, mul(32, add(1, i))))) }\n            mstore(0x40, add(m, add(32, totallen)))\n            c := m\n        }\n    }\n}\n",
  "sourcePath": "/home/bjorn/Projects/BGRVerify/contracts/BGRUtils.sol",
  "compiler": {
    "name": "solc",
    "version": "0.4.21+commit.dfe3193c.Emscripten.clang"
  },
  "schemaVersion": "2.0.0",
  "updatedAt": "2018-05-28T13:14:47.564Z"
}