{
  "contractName": "BLS",
  "abi": [
    {
      "constant": false,
      "inputs": [
        {
          "name": "_sigs",
          "type": "uint256[]"
        },
        {
          "name": "_messages",
          "type": "bytes"
        }
      ],
      "name": "doNothing",
      "outputs": [
        {
          "name": "",
          "type": "bool"
        }
      ],
      "payable": false,
      "stateMutability": "nonpayable",
      "type": "function"
    },
    {
      "constant": false,
      "inputs": [],
      "name": "store",
      "outputs": [],
      "payable": false,
      "stateMutability": "nonpayable",
      "type": "function"
    },
    {
      "constant": false,
      "inputs": [],
      "name": "sendNothing",
      "outputs": [],
      "payable": false,
      "stateMutability": "nonpayable",
      "type": "function"
    },
    {
      "constant": false,
      "inputs": [
        {
          "name": "sig",
          "type": "uint256[]"
        },
        {
          "name": "msg",
          "type": "bytes"
        }
      ],
      "name": "verify",
      "outputs": [
        {
          "name": "",
          "type": "bool"
        }
      ],
      "payable": false,
      "stateMutability": "nonpayable",
      "type": "function"
    },
    {
      "constant": false,
      "inputs": [
        {
          "name": "sig",
          "type": "uint256[]"
        },
        {
          "name": "vs",
          "type": "uint256[]"
        },
        {
          "name": "msg",
          "type": "bytes"
        }
      ],
      "name": "verifyBLS",
      "outputs": [
        {
          "name": "",
          "type": "bool"
        }
      ],
      "payable": false,
      "stateMutability": "nonpayable",
      "type": "function"
    },
    {
      "constant": false,
      "inputs": [],
      "name": "verifyBLSTest",
      "outputs": [
        {
          "name": "",
          "type": "bool"
        }
      ],
      "payable": false,
      "stateMutability": "nonpayable",
      "type": "function"
    }
  ],
  "bytecode": "0x60606040526101c0604051908101604052806101948152602001620015db61019491396000908051906020019062000039929190620000d6565b5060408051908101604052807f18b89d143e40a94525c9e9aaa01317d3a13878fd3f89fe4bfb49825366b837b681526020017f0e536811c346ede14c615d4a0da23cb39bdb13b98f54f8726f4cb1ce0aef31178152506001906002620000a19291906200015d565b506000600260006101000a81548163ffffffff021916908363ffffffff1602179055503415620000d057600080fd5b620001d7565b828054600181600116156101000203166002900490600052602060002090601f016020900481019282601f106200011957805160ff19168380011785556200014a565b828001600101855582156200014a579182015b82811115620001495782518255916020019190600101906200012c565b5b509050620001599190620001af565b5090565b8280548282559060005260206000209081019282156200019c579160200282015b828111156200019b5782518255916020019190600101906200017e565b5b509050620001ab9190620001af565b5090565b620001d491905b80821115620001d0576000816000905550600101620001b6565b5090565b90565b6113f480620001e76000396000f300606060405260043610610078576000357c0100000000000000000000000000000000000000000000000000000000900463ffffffff16806309e0ab9a1461007d5780633f16ddcb146100a6578063975057e7146100dc578063bd205a90146100f1578063eb69520114610127578063ffeaa5961461015d575b600080fd5b341561008857600080fd5b610090610172565b60405161009d9190611165565b60405180910390f35b34156100b157600080fd5b6100c660046100c19036906110ea565b6102f8565b6040516100d39190611165565b60405180910390f35b34156100e757600080fd5b6100ef6102ff565b005b34156100fc57600080fd5b610111600461010c9036906110ea565b6103ef565b60405161011e9190611165565b60405180910390f35b341561013257600080fd5b6101476004610142903690611053565b61054c565b6040516101549190611165565b60405180910390f35b341561016857600080fd5b61017061068a565b005b600061017c610d1d565b610184610d31565b61018c610d4b565b610194610d31565b6101c06040519081016040528061019481526020016112276101949139935060408051908101604052807f18b89d143e40a94525c9e9aaa01317d3a13878fd3f89fe4bfb49825366b837b681526020017f0e536811c346ede14c615d4a0da23cb39bdb13b98f54f8726f4cb1ce0aef31178152509250604080519081016040528060408051908101604052807f28f3c1a3abbcecf79ce9055575c4fc64977ca155d970d0acfacdbd9e955d2cf981526020017f0ca87dc9b1b7f6d50e88661e5d26563d711cd303d1cfd4c41a9f570c59fe3bc6815250815260200160408051908101604052807f087026b1d11d41c57704d49dcc7f06ca45bd645410bcf176625dc1e3fd67090c81526020017f017f53b7486693313c0bcc3b6a2538cc1a56cd56579a7c051779acadb229040e81525081525091506102d2846106b8565b90506102ef6102e084610744565b6102e86107df565b83856108a9565b94505050505090565b6000806000fd5b600080600a9150600090505b818110156103eb57600060046000600260009054906101000a900463ffffffff1663ffffffff1663ffffffff1681526020019081526020016000209080546001816001161561010002031660029004610365929190610d72565b50600160036000600260009054906101000a900463ffffffff1663ffffffff1663ffffffff1681526020019081526020016000209080546103a7929190610df9565b506001600260009054906101000a900463ffffffff1601600260006101000a81548163ffffffff021916908363ffffffff160217905550808060010191505061030b565b5050565b60006103f9610d1d565b610401610d31565b610409610d4b565b610411610d31565b859350604080519081016040528088600081518110151561042e57fe5b90602001906020020151815260200188600181518110151561044c57fe5b906020019060200201518152509250604080519081016040528060408051908101604052807f28f3c1a3abbcecf79ce9055575c4fc64977ca155d970d0acfacdbd9e955d2cf981526020017f0ca87dc9b1b7f6d50e88661e5d26563d711cd303d1cfd4c41a9f570c59fe3bc6815250815260200160408051908101604052807f087026b1d11d41c57704d49dcc7f06ca45bd645410bcf176625dc1e3fd67090c81526020017f017f53b7486693313c0bcc3b6a2538cc1a56cd56579a7c051779acadb229040e8152508152509150610523846106b8565b905061054061053184610744565b6105396107df565b83856108a9565b94505050505092915050565b6000610556610d1d565b61055e610d31565b610566610d4b565b61056e610d31565b859350604080519081016040528089600081518110151561058b57fe5b9060200190602002015181526020018960018151811015156105a957fe5b906020019060200201518152509250604080519081016040528060408051908101604052808a60008151811015156105dd57fe5b9060200190602002015181526020018a60018151811015156105fb57fe5b90602001906020020151815250815260200160408051908101604052808a600281518110151561062757fe5b9060200190602002015181526020018a600381518110151561064557fe5b906020019060200201518152508152509150610660846106b8565b905061067d61066e84610744565b6106766107df565b83856108a9565b9450505050509392505050565b600080600a9150600090505b818110156106b4576106a6610172565b508080600101915050610696565b5050565b6106c0610d31565b6000826040518082805190602001908083835b6020831015156106f857805182526020820191506020810190506020830392506106d3565b6001836020036101000a038019825116818451168082178552505050505050905001915050604051809103902060019004905061073c6107366109d5565b826109f9565b915050919050565b61074c610d31565b60007f30644e72e131a029b85045b68181585d97816a916871ca8d3c208c16d87cfd47905060008360000151148015610789575060008360200151145b156107ac57604080519081016040528060008152602001600081525091506107d9565b6040805190810160405280846000015181526020018285602001518115156107d057fe5b06830381525091505b50919050565b6107e7610d4b565b604080519081016040528060408051908101604052807f198e9393920d483a7260bfb731fb5d25f1aa493335a9e71297e485b7aef312c281526020017f1800deef121f1e76426a00665e5c4479674322d4f75edadd46debd5cd992f6ed815250815260200160408051908101604052807f090689d0585ff075ec9e99ad690c3395bc4b313370b38ef355acdadcd122975b81526020017f12c85ea5db8c6deb4aab71808dcb408fe3d1e7690c43d37b4ce6cc0166fa7daa815250815250905090565b60006108b3610e4b565b6108bb610e5f565b60026040518059106108ca5750595b90808252806020026020018201604052801561090057816020015b6108ed610e73565b8152602001906001900390816108e55790505b50915060026040518059106109125750595b90808252806020026020018201604052801561094857816020015b610935610e8d565b81526020019060019003908161092d5790505b5090508682600081518110151561095b57fe5b906020019060200201819052508482600181518110151561097857fe5b906020019060200201819052508581600081518110151561099557fe5b90602001906020020181905250838160018151811015156109b257fe5b906020019060200201819052506109c98282610a95565b92505050949350505050565b6109dd610d31565b6040805190810160405280600181526020016002815250905090565b610a01610d31565b610a09610eb4565b60008460000151826000600381101515610a1f57fe5b6020020181815250508460200151826001600381101515610a3c57fe5b60200201818152505083826002600381101515610a5557fe5b602002018181525050606083608084600060076107d05a03f190508060008114610a7e57610a80565bfe5b50801515610a8d57600080fd5b505092915050565b6000806000610aa2610edc565b6000610aac610ef0565b600087518951141515610abe57600080fd5b8851955060068602945084604051805910610ad65750595b90808252806020026020018201604052509350600092505b85831015610cc3578883815181101515610b0457fe5b90602001906020020151600001518460006006860201815181101515610b2657fe5b90602001906020020181815250508883815181101515610b4257fe5b90602001906020020151602001518460016006860201815181101515610b6457fe5b90602001906020020181815250508783815181101515610b8057fe5b90602001906020020151600001516000600281101515610b9c57fe5b60200201518460026006860201815181101515610bb557fe5b90602001906020020181815250508783815181101515610bd157fe5b90602001906020020151600001516001600281101515610bed57fe5b60200201518460036006860201815181101515610c0657fe5b90602001906020020181815250508783815181101515610c2257fe5b90602001906020020151602001516000600281101515610c3e57fe5b60200201518460046006860201815181101515610c5757fe5b90602001906020020181815250508783815181101515610c7357fe5b90602001906020020151602001516001600281101515610c8f57fe5b60200201518460056006860201815181101515610ca857fe5b90602001906020020181815250508280600101935050610aee565b6020826020870260208701600060086107d05a03f190508060008114610ce857610cea565bfe5b50801515610cf757600080fd5b6000826000600181101515610d0857fe5b60200201511415965050505050505092915050565b602060405190810160405280600081525090565b604080519081016040528060008152602001600081525090565b608060405190810160405280610d5f610f18565b8152602001610d6c610f18565b81525090565b828054600181600116156101000203166002900490600052602060002090601f016020900481019282601f10610dab5780548555610de8565b82800160010185558215610de857600052602060002091601f016020900482015b82811115610de7578254825591600101919060010190610dcc565b5b509050610df59190610f3f565b5090565b828054828255906000526020600020908101928215610e3a5760005260206000209182015b82811115610e39578254825591600101919060010190610e1e565b5b509050610e479190610f3f565b5090565b602060405190810160405280600081525090565b602060405190810160405280600081525090565b604080519081016040528060008152602001600081525090565b608060405190810160405280610ea1610f18565b8152602001610eae610f18565b81525090565b6060604051908101604052806003905b6000815260200190600190039081610ec45790505090565b602060405190810160405280600081525090565b6020604051908101604052806001905b6000815260200190600190039081610f005790505090565b60408051908101604052806002905b6000815260200190600190039081610f275790505090565b610f6191905b80821115610f5d576000816000905550600101610f45565b5090565b90565b600082601f8301121515610f7757600080fd5b8135610f8a610f85826111ad565b611180565b91508181835260208401935060208101905083856020840282011115610faf57600080fd5b60005b83811015610fdf5781610fc5888261103f565b845260208401935060208301925050600181019050610fb2565b5050505092915050565b600082601f8301121515610ffc57600080fd5b813561100f61100a826111d5565b611180565b9150808252602083016020830185838301111561102b57600080fd5b611036838284611217565b50505092915050565b600061104b823561120d565b905092915050565b60008060006060848603121561106857600080fd5b600084013567ffffffffffffffff81111561108257600080fd5b61108e86828701610f64565b935050602084013567ffffffffffffffff8111156110ab57600080fd5b6110b786828701610f64565b925050604084013567ffffffffffffffff8111156110d457600080fd5b6110e086828701610fe9565b9150509250925092565b600080604083850312156110fd57600080fd5b600083013567ffffffffffffffff81111561111757600080fd5b61112385828601610f64565b925050602083013567ffffffffffffffff81111561114057600080fd5b61114c85828601610fe9565b9150509250929050565b61115f81611201565b82525050565b600060208201905061117a6000830184611156565b92915050565b6000604051905081810181811067ffffffffffffffff821117156111a357600080fd5b8060405250919050565b600067ffffffffffffffff8211156111c457600080fd5b602082029050602081019050919050565b600067ffffffffffffffff8211156111ec57600080fd5b601f19601f8301169050602081019050919050565b60008115159050919050565b6000819050919050565b8281833760008383015250505056007b0a2020226f70656e223a207b0a20202020227072696365223a2039353931372c0a202020202274696d65223a207b0a20202020202022756e6978223a20313438333134323430302c0a2020202020202269736f223a2022323031362d31322d33315430303a30303a30302e3030305a220a202020207d0a20207d2c0a202022636c6f7365223a207b0a20202020227072696365223a2039363736302c0a202020202274696d65223a207b0a20202020202022756e6978223a20313438333232383830302c0a2020202020202269736f223a2022323031372d30312d30315430303a30303a30302e3030305a220a202020207d0a20207d2c0a2020226c6f6f6b7570223a207b0a20202020227072696365223a2039363736302c0a20202020226b223a20312c0a202020202274696d65223a207b0a20202020202022756e6978223a20313438333232383830302c0a2020202020202269736f223a2022323031372d30312d30315430303a30303a30302e3030305a220a202020207d0a20207d0a7d0a6578616d706c652e636f6d2f6170692f31a265627a7a72305820f153ece8464cd695ebe1d3b292ea3ff8a9899fd1c237044afc509eca01a7a40a6c6578706572696d656e74616cf500377b0a2020226f70656e223a207b0a20202020227072696365223a2039353931372c0a202020202274696d65223a207b0a20202020202022756e6978223a20313438333134323430302c0a2020202020202269736f223a2022323031362d31322d33315430303a30303a30302e3030305a220a202020207d0a20207d2c0a202022636c6f7365223a207b0a20202020227072696365223a2039363736302c0a202020202274696d65223a207b0a20202020202022756e6978223a20313438333232383830302c0a2020202020202269736f223a2022323031372d30312d30315430303a30303a30302e3030305a220a202020207d0a20207d2c0a2020226c6f6f6b7570223a207b0a20202020227072696365223a2039363736302c0a20202020226b223a20312c0a202020202274696d65223a207b0a20202020202022756e6978223a20313438333232383830302c0a2020202020202269736f223a2022323031372d30312d30315430303a30303a30302e3030305a220a202020207d0a20207d0a7d0a6578616d706c652e636f6d2f6170692f31",
  "source": "pragma solidity ^0.4.14;\npragma experimental ABIEncoderV2;\n\n\n//https://github.com/jstoxrocky/zksnarks_example\ncontract BLS {\n\n    //Representative example to measure storage costs\n    bytes message_ex = hex\"7b0a2020226f70656e223a207b0a20202020227072696365223a2039353931372c0a202020202274696d65223a207b0a20202020202022756e6978223a20313438333134323430302c0a2020202020202269736f223a2022323031362d31322d33315430303a30303a30302e3030305a220a202020207d0a20207d2c0a202022636c6f7365223a207b0a20202020227072696365223a2039363736302c0a202020202274696d65223a207b0a20202020202022756e6978223a20313438333232383830302c0a2020202020202269736f223a2022323031372d30312d30315430303a30303a30302e3030305a220a202020207d0a20207d2c0a2020226c6f6f6b7570223a207b0a20202020227072696365223a2039363736302c0a20202020226b223a20312c0a202020202274696d65223a207b0a20202020202022756e6978223a20313438333232383830302c0a2020202020202269736f223a2022323031372d30312d30315430303a30303a30302e3030305a220a202020207d0a20207d0a7d0a6578616d706c652e636f6d2f6170692f31\";\n    uint[] signature_ex = [11181692345848957662074290878138344227085597134981019040735323471731897153462, 6479746447046570360435714249272776082787932146211764251347798668447381926167];\n\n    struct G1Point {\n        uint X;\n        uint Y;\n    }\n    // Encoding of field elements is: X[0] * z + X[1]\n    struct G2Point {\n        uint[2] X;\n        uint[2] Y;\n    }\n\n    /// @return the generator of G1\n    function P1() internal returns (G1Point) {\n        return G1Point(1, 2);\n    }\n\n    /// @return the generator of G2\n    function P2() internal returns (G2Point) {\n        return G2Point(\n            [11559732032986387107991004021392285783925812861821192530917403151452391805634,\n            10857046999023057135944570762232829481370756359578518086990519993285655852781],\n\n            [4082367875863433681332203403145435568316851327593401208105741076214120093531,\n            8495653923123431417604973247489272438418190587263600148770280649306958101930]\n        );\n    }\n\n    /**\n    This method is used to measure only the transaction costs\n    */\n    function doNothing(uint[] _sigs, bytes _messages) returns (bool) {\n       revert();\n    }\n\n    /**\n    This method is used to measure only the storage costs\n    */\n    uint32 counter = 0;\n    mapping(uint32 => uint[]) sig_storage;\n    mapping(uint32 => bytes) msg_storage;\n    function store() {\n\n        uint n = 10; //NOTE: change this parameter to set the number of messages signatures that will be stored\n\n        for (uint i = 0; i < n; i++) {\n            msg_storage[counter] = message_ex;\n            sig_storage[counter] = signature_ex;\n\n            counter = counter + 1;\n        }\n    }\n\n    /**\n    This method is used to measure only the verification costs\n    */\n    function sendNothing() {\n        uint n = 10; //NOTE: change this parameter to set the amount of signatures that will be verified\n\n        for (uint i = 0; i < n; i++) {\n            verifyBLSTest();\n        }\n    }\n\n    /*\n    Verification with internal keys\n    */\n    function verify(uint[] memory sig, bytes msg) returns (bool) {\n        bytes memory message = msg;\n\n        G1Point memory signature = G1Point(sig[0], sig[1]);\n\n        G2Point memory v = G2Point(\n            [18523194229674161632574346342370534213928970227736813349975332190798837787897, 5725452645840548248571879966249653216818629536104756116202892528545334967238],\n            [3816656720215352836236372430537606984911914992659540439626020770732736710924, 677280212051826798882467475639465784259337739185938192379192340908771705870]\n        );\n\n        G1Point memory h = hashToG1(message);\n\n        return pairing2(negate(signature), P2(), h, v);\n    }\n\n    /*\n    Verification with external keys\n    */\n    function verifyBLS(uint[] memory sig, uint[] vs, bytes msg) returns (bool) {\n        bytes memory message = msg;\n\n        G1Point memory signature = G1Point(sig[0], sig[1]);\n\n        G2Point memory v = G2Point([vs[0], vs[1]], [vs[2], vs[3]]);\n\n        G1Point memory h = hashToG1(message);\n\n        return pairing2(negate(signature), P2(), h, v);\n    }\n\n    function verifyBLSTest() returns (bool) {\n\n        bytes memory message = hex\"7b0a2020226f70656e223a207b0a20202020227072696365223a2039353931372c0a202020202274696d65223a207b0a20202020202022756e6978223a20313438333134323430302c0a2020202020202269736f223a2022323031362d31322d33315430303a30303a30302e3030305a220a202020207d0a20207d2c0a202022636c6f7365223a207b0a20202020227072696365223a2039363736302c0a202020202274696d65223a207b0a20202020202022756e6978223a20313438333232383830302c0a2020202020202269736f223a2022323031372d30312d30315430303a30303a30302e3030305a220a202020207d0a20207d2c0a2020226c6f6f6b7570223a207b0a20202020227072696365223a2039363736302c0a20202020226b223a20312c0a202020202274696d65223a207b0a20202020202022756e6978223a20313438333232383830302c0a2020202020202269736f223a2022323031372d30312d30315430303a30303a30302e3030305a220a202020207d0a20207d0a7d0a6578616d706c652e636f6d2f6170692f31\";\n\n        G1Point memory signature = G1Point(11181692345848957662074290878138344227085597134981019040735323471731897153462, 6479746447046570360435714249272776082787932146211764251347798668447381926167);\n\n        G2Point memory v = G2Point(\n            [18523194229674161632574346342370534213928970227736813349975332190798837787897, 5725452645840548248571879966249653216818629536104756116202892528545334967238],\n            [3816656720215352836236372430537606984911914992659540439626020770732736710924, 677280212051826798882467475639465784259337739185938192379192340908771705870]\n        );\n\n        G1Point memory h = hashToG1(message);\n\n        return pairing2(negate(signature), P2(), h, v);\n    }\n\n    /// @return the result of computing the pairing check\n    /// e(p1[0], p2[0]) *  .... * e(p1[n], p2[n]) == 1\n    /// For example pairing([P1(), P1().negate()], [P2(), P2()]) should\n    /// return true.\n    function pairing(G1Point[] p1, G2Point[] p2) internal returns (bool) {\n        require(p1.length == p2.length);\n        uint elements = p1.length;\n        uint inputSize = elements * 6;\n        uint[] memory input = new uint[](inputSize);\n\n        for (uint i = 0; i < elements; i++)\n        {\n            input[i * 6 + 0] = p1[i].X;\n            input[i * 6 + 1] = p1[i].Y;\n            input[i * 6 + 2] = p2[i].X[0];\n            input[i * 6 + 3] = p2[i].X[1];\n            input[i * 6 + 4] = p2[i].Y[0];\n            input[i * 6 + 5] = p2[i].Y[1];\n        }\n\n        uint[1] memory out;\n        bool success;\n\n        assembly {\n            success := call(sub(gas, 2000), 8, 0, add(input, 0x20), mul(inputSize, 0x20), out, 0x20)\n        // Use \"invalid\" to make gas estimation work\n            switch success case 0 {invalid}\n        }\n        require(success);\n        return out[0] != 0;\n    }\n\n    /// Convenience method for a pairing check for two pairs.\n    function pairing2(G1Point a1, G2Point a2, G1Point b1, G2Point b2) internal returns (bool) {\n        G1Point[] memory p1 = new G1Point[](2);\n        G2Point[] memory p2 = new G2Point[](2);\n        p1[0] = a1;\n        p1[1] = b1;\n        p2[0] = a2;\n        p2[1] = b2;\n        return pairing(p1, p2);\n    }\n\n    function hashToG1(bytes message) internal returns (G1Point) {\n        uint256 h = uint256(keccak256(message));\n        return mul(P1(), h);\n    }\n\n    function modPow(uint256 base, uint256 exponent, uint256 modulus) internal returns (uint256) {\n        uint256[6] memory input = [32, 32, 32, base, exponent, modulus];\n        uint256[1] memory result;\n        assembly {\n            if iszero(call(not(0), 0x05, 0, input, 0xc0, result, 0x20)) {\n                revert(0, 0)\n            }\n        }\n        return result[0];\n    }\n\n    /// @return the negation of p, i.e. p.add(p.negate()) should be zero.\n    function negate(G1Point p) internal returns (G1Point) {\n        // The prime q in the base field F_q for G1\n        uint q = 21888242871839275222246405745257275088696311157297823662689037894645226208583;\n        if (p.X == 0 && p.Y == 0)\n            return G1Point(0, 0);\n        return G1Point(p.X, q - (p.Y % q));\n    }\n\n    /// @return the sum of two points of G1\n    function add(G1Point p1, G1Point p2) internal returns (G1Point r) {\n        uint[4] memory input;\n        input[0] = p1.X;\n        input[1] = p1.Y;\n        input[2] = p2.X;\n        input[3] = p2.Y;\n        bool success;\n        assembly {\n            success := call(sub(gas, 2000), 6, 0, input, 0xc0, r, 0x60)\n        // Use \"invalid\" to make gas estimation work\n            switch success case 0 {invalid}\n        }\n        require(success);\n    }\n    /// @return the product of a point on G1 and a scalar, i.e.\n    /// p == p.mul(1) and p.add(p) == p.mul(2) for all points p.\n    function mul(G1Point p, uint s) internal returns (G1Point r) {\n        uint[3] memory input;\n        input[0] = p.X;\n        input[1] = p.Y;\n        input[2] = s;\n        bool success;\n        assembly {\n            success := call(sub(gas, 2000), 7, 0, input, 0x80, r, 0x60)\n        // Use \"invalid\" to make gas estimation work\n            switch success case 0 {invalid}\n        }\n        require(success);\n    }\n\n    /*function getSignature(uint i) view internal returns (bytes) {\n        if (i == 0) {\n            return signature0;\n        } else if (i == 1) {\n            return signature1;\n        } else if (i == 2) {\n            return signature2;\n        } else if (i == 3) {\n            return signature3;\n        } else if (i == 4) {\n            return signature4;\n        } else if (i == 5) {\n            return signature5;\n        } else if (i == 6) {\n            return signature6;\n        } else if (i == 7) {\n            return signature7;\n        } else if (i == 8) {\n            return signature8;\n        } else if (i == 9) {\n            return signature9;\n        }\n    }*/\n\n}\n",
  "sourcePath": "/home/bjorn/Projects/BGRVerify/contracts/BLS.sol",
  "compiler": {
    "name": "solc",
    "version": "0.4.21+commit.dfe3193c.Emscripten.clang"
  },
  "schemaVersion": "2.0.0",
  "updatedAt": "2018-06-21T15:09:25.321Z"
}