{
  "contractName": "BLS",
  "abi": [
    {
      "constant": false,
      "inputs": [
        {
          "name": "_sigs",
          "type": "uint256[]"
        },
        {
          "name": "_messages",
          "type": "bytes"
        }
      ],
      "name": "doNothing",
      "outputs": [
        {
          "name": "",
          "type": "bool"
        }
      ],
      "payable": false,
      "stateMutability": "nonpayable",
      "type": "function"
    },
    {
      "constant": false,
      "inputs": [],
      "name": "store",
      "outputs": [],
      "payable": false,
      "stateMutability": "nonpayable",
      "type": "function"
    },
    {
      "constant": false,
      "inputs": [],
      "name": "sendNothing",
      "outputs": [],
      "payable": false,
      "stateMutability": "nonpayable",
      "type": "function"
    },
    {
      "constant": false,
      "inputs": [
        {
          "name": "sig",
          "type": "uint256[]"
        },
        {
          "name": "msg",
          "type": "bytes"
        }
      ],
      "name": "verify",
      "outputs": [
        {
          "name": "",
          "type": "bool"
        }
      ],
      "payable": false,
      "stateMutability": "nonpayable",
      "type": "function"
    },
    {
      "constant": false,
      "inputs": [
        {
          "name": "sig",
          "type": "uint256[]"
        },
        {
          "name": "vs",
          "type": "uint256[]"
        },
        {
          "name": "msg",
          "type": "bytes"
        }
      ],
      "name": "verifyBLS",
      "outputs": [
        {
          "name": "",
          "type": "bool"
        }
      ],
      "payable": false,
      "stateMutability": "nonpayable",
      "type": "function"
    },
    {
      "constant": false,
      "inputs": [],
      "name": "verifyBLSTest",
      "outputs": [
        {
          "name": "",
          "type": "bool"
        }
      ],
      "payable": false,
      "stateMutability": "nonpayable",
      "type": "function"
    }
  ],
  "bytecode": "0x60606040526101c060405190810160405280610194815260200162002aee6101949139600090805190602001906200003992919062000734565b5060408051908101604052807f18b89d143e40a94525c9e9aaa01317d3a13878fd3f89fe4bfb49825366b837b681526020017f0e536811c346ede14c615d4a0da23cb39bdb13b98f54f8726f4cb1ce0aef31178152506001906002620000a1929190620007bb565b506101c060405190810160405280610194815260200162002c82610194913960029080519060200190620000d792919062000734565b506101c060405190810160405280610194815260200162002aee6101949139600390805190602001906200010d92919062000734565b506101c060405190810160405280610194815260200162002faa6101949139600490805190602001906200014392919062000734565b506101c060405190810160405280610194815260200162002e166101949139600590805190602001906200017992919062000734565b506101c0604051908101604052806101948152602001620027c6610194913960069080519060200190620001af92919062000734565b506101c0604051908101604052806101948152602001620032d2610194913960079080519060200190620001e592919062000734565b506101c06040519081016040528061019481526020016200249e6101949139600890805190602001906200021b92919062000734565b506101c06040519081016040528061019481526020016200295a6101949139600990805190602001906200025192919062000734565b506101c06040519081016040528061019481526020016200313e6101949139600a90805190602001906200028792919062000734565b506101c0604051908101604052806101948152602001620026326101949139600b9080519060200190620002bd92919062000734565b5060408051908101604052807f0b76699d71aa78a85d6d2a588c1791d2de9b3df75ce7568bc39f6980b7fe26cd81526020017f126b23c79c17a78ee8f846670f5249251515d4145b3b8d70798ac599fdae0fec815250600c6000820151816000015560208201518160010155505060408051908101604052807f0af9e946d435e294b1a1c83e0d5086fbbe24b57af7e37fc4ef19c94bd7fa649881526020017f1a50df0a23bfaa9174793bd2739bf01c4696ba67e2813e972a02a727f0d6e239815250600e6000820151816000015560208201518160010155505060408051908101604052807f14a3de660c2d2a144fa2eb8a869e545d24adff9a3bebd894e14929f6b5f9627c81526020017f167fcb01a97e7cf8a875dc225b701f13db9d105be46bca6dad250a143105075881525060106000820151816000015560208201518160010155505060408051908101604052807f1637f830e65eae298438e436e9dcff9e4c99744703da98684ba8245e1c9c4bf981526020017f1accdc0dde2250a3605b1245f54b40028437cb9301e2f1ebdb0d69243a0dfbf881525060126000820151816000015560208201518160010155505060408051908101604052807f2e339edd0760ffcb61b97e9a02f24187f9df3a8c9b72ff9210b0548620af92f281526020017f085c0e39097d05e1ba16825d6fee7e02f6350cbf3cf35ca3092f6dedfaa692a181525060146000820151816000015560208201518160010155505060408051908101604052807f18b84c4e225cc2126f4a70017a8877d05eaff80633e800b5b05ded03ab70103081526020017f0d075e7c28f797edb331449740f904d5fa2397d2b141a66bef980bc398aab69c81525060166000820151816000015560208201518160010155505060408051908101604052807f2ea9116145b4efc72f11b53c6425b6fff88402957f2ee70c1c24730498f64d7481526020017f169384d65d33e2d62d07e601fe3f58cc71712be7bf3c38b44ddd6017da28cf6481525060186000820151816000015560208201518160010155505060408051908101604052807f0a4f278e090f92fddde627f39df2198445175202fa975f9e7e16c50b9c51888481526020017f18c9fa0c82d8809c3bbb79376c0b7547de43111c9382c1210cb0fe38611caa4a815250601a6000820151816000015560208201518160010155505060408051908101604052807f2d7306ca5f2cbc880ce8e7da477c82e8ba5d2ad67322876fae7e0c1d463551f681526020017f1fa07916bd1251719c921ef568f32bac6f8499ed2099ff502845e475f55118c6815250601c6000820151816000015560208201518160010155505060408051908101604052807f1cd42a3edd5fd0b387d011ee2f107b2e24cd9f11c1a8152923de84e89766645981526020017f2c6231d44ee75047ae74d19b6757a81b9269efb5aad329c758d6c078c89f4f70815250601e600082015181600001556020820151816001015550506000602060006101000a81548163ffffffff021916908363ffffffff16021790555034156200072e57600080fd5b62000835565b828054600181600116156101000203166002900490600052602060002090601f016020900481019282601f106200077757805160ff1916838001178555620007a8565b82800160010185558215620007a8579182015b82811115620007a75782518255916020019190600101906200078a565b5b509050620007b791906200080d565b5090565b828054828255906000526020600020908101928215620007fa579160200282015b82811115620007f9578251825591602001919060010190620007dc565b5b5090506200080991906200080d565b5090565b6200083291905b808211156200082e57600081600090555060010162000814565b5090565b90565b611c5980620008456000396000f300606060405260043610610078576000357c0100000000000000000000000000000000000000000000000000000000900463ffffffff16806309e0ab9a1461007d5780633f16ddcb146100a6578063975057e7146100dc578063bd205a90146100f1578063eb69520114610127578063ffeaa5961461015d575b600080fd5b341561008857600080fd5b610090610172565b60405161009d91906119ca565b60405180910390f35b34156100b157600080fd5b6100c660046100c190369061194f565b6102f8565b6040516100d391906119ca565b60405180910390f35b34156100e757600080fd5b6100ef6102ff565b005b34156100fc57600080fd5b610111600461010c90369061194f565b6103f9565b60405161011e91906119ca565b60405180910390f35b341561013257600080fd5b61014760046101429036906118b8565b610556565b60405161015491906119ca565b60405180910390f35b341561016857600080fd5b610170610694565b005b600061017c6115db565b6101846115ef565b61018c611609565b6101946115ef565b6101c0604051908101604052806101948152602001611a8c6101949139935060408051908101604052807f18b89d143e40a94525c9e9aaa01317d3a13878fd3f89fe4bfb49825366b837b681526020017f0e536811c346ede14c615d4a0da23cb39bdb13b98f54f8726f4cb1ce0aef31178152509250604080519081016040528060408051908101604052807f28f3c1a3abbcecf79ce9055575c4fc64977ca155d970d0acfacdbd9e955d2cf981526020017f0ca87dc9b1b7f6d50e88661e5d26563d711cd303d1cfd4c41a9f570c59fe3bc6815250815260200160408051908101604052807f087026b1d11d41c57704d49dcc7f06ca45bd645410bcf176625dc1e3fd67090c81526020017f017f53b7486693313c0bcc3b6a2538cc1a56cd56579a7c051779acadb229040e81525081525091506102d2846106c2565b90506102ef6102e08461074e565b6102e86107e9565b83856108b3565b94505050505090565b6000806000fd5b600080600a9150600090505b818110156103f55761031c816109df565b60226000602060009054906101000a900463ffffffff1663ffffffff1663ffffffff1681526020019081526020016000209080519060200190610360929190611630565b5061036a8161109b565b60216000602060009054906101000a900463ffffffff1663ffffffff1663ffffffff16815260200190815260200160002060008201518160000155602082015181600101559050506001602060009054906101000a900463ffffffff1601602060006101000a81548163ffffffff021916908363ffffffff160217905550808060010191505061030b565b5050565b60006104036115db565b61040b6115ef565b610413611609565b61041b6115ef565b859350604080519081016040528088600081518110151561043857fe5b90602001906020020151815260200188600181518110151561045657fe5b906020019060200201518152509250604080519081016040528060408051908101604052807f28f3c1a3abbcecf79ce9055575c4fc64977ca155d970d0acfacdbd9e955d2cf981526020017f0ca87dc9b1b7f6d50e88661e5d26563d711cd303d1cfd4c41a9f570c59fe3bc6815250815260200160408051908101604052807f087026b1d11d41c57704d49dcc7f06ca45bd645410bcf176625dc1e3fd67090c81526020017f017f53b7486693313c0bcc3b6a2538cc1a56cd56579a7c051779acadb229040e815250815250915061052d846106c2565b905061054a61053b8461074e565b6105436107e9565b83856108b3565b94505050505092915050565b60006105606115db565b6105686115ef565b610570611609565b6105786115ef565b859350604080519081016040528089600081518110151561059557fe5b9060200190602002015181526020018960018151811015156105b357fe5b906020019060200201518152509250604080519081016040528060408051908101604052808a60008151811015156105e757fe5b9060200190602002015181526020018a600181518110151561060557fe5b90602001906020020151815250815260200160408051908101604052808a600281518110151561063157fe5b9060200190602002015181526020018a600381518110151561064f57fe5b90602001906020020151815250815250915061066a846106c2565b90506106876106788461074e565b6106806107e9565b83856108b3565b9450505050509392505050565b600080600a9150600090505b818110156106be576106b0610172565b5080806001019150506106a0565b5050565b6106ca6115ef565b6000826040518082805190602001908083835b60208310151561070257805182526020820191506020810190506020830392506106dd565b6001836020036101000a0380198251168184511680821785525050505050509050019150506040518091039020600190049050610746610740611293565b826112b7565b915050919050565b6107566115ef565b60007f30644e72e131a029b85045b68181585d97816a916871ca8d3c208c16d87cfd47905060008360000151148015610793575060008360200151145b156107b657604080519081016040528060008152602001600081525091506107e3565b6040805190810160405280846000015181526020018285602001518115156107da57fe5b06830381525091505b50919050565b6107f1611609565b604080519081016040528060408051908101604052807f198e9393920d483a7260bfb731fb5d25f1aa493335a9e71297e485b7aef312c281526020017f1800deef121f1e76426a00665e5c4479674322d4f75edadd46debd5cd992f6ed815250815260200160408051908101604052807f090689d0585ff075ec9e99ad690c3395bc4b313370b38ef355acdadcd122975b81526020017f12c85ea5db8c6deb4aab71808dcb408fe3d1e7690c43d37b4ce6cc0166fa7daa815250815250905090565b60006108bd6116b0565b6108c56116c4565b60026040518059106108d45750595b90808252806020026020018201604052801561090a57816020015b6108f76116d8565b8152602001906001900390816108ef5790505b509150600260405180591061091c5750595b90808252806020026020018201604052801561095257816020015b61093f6116f2565b8152602001906001900390816109375790505b5090508682600081518110151561096557fe5b906020019060200201819052508482600181518110151561098257fe5b906020019060200201819052508581600081518110151561099f57fe5b90602001906020020181905250838160018151811015156109bc57fe5b906020019060200201819052506109d38282611353565b92505050949350505050565b6109e76115db565b6000821415610a925760028054600181600116156101000203166002900480601f016020809104026020016040519081016040528092919081815260200182805460018160011615610100020316600290048015610a865780601f10610a5b57610100808354040283529160200191610a86565b820191906000526020600020905b815481529060010190602001808311610a6957829003601f168201915b50505050509050611096565b6001821415610b3d5760038054600181600116156101000203166002900480601f016020809104026020016040519081016040528092919081815260200182805460018160011615610100020316600290048015610b315780601f10610b0657610100808354040283529160200191610b31565b820191906000526020600020905b815481529060010190602001808311610b1457829003601f168201915b50505050509050611096565b6002821415610be85760048054600181600116156101000203166002900480601f016020809104026020016040519081016040528092919081815260200182805460018160011615610100020316600290048015610bdc5780601f10610bb157610100808354040283529160200191610bdc565b820191906000526020600020905b815481529060010190602001808311610bbf57829003601f168201915b50505050509050611096565b6003821415610c935760058054600181600116156101000203166002900480601f016020809104026020016040519081016040528092919081815260200182805460018160011615610100020316600290048015610c875780601f10610c5c57610100808354040283529160200191610c87565b820191906000526020600020905b815481529060010190602001808311610c6a57829003601f168201915b50505050509050611096565b6004821415610d3e5760068054600181600116156101000203166002900480601f016020809104026020016040519081016040528092919081815260200182805460018160011615610100020316600290048015610d325780601f10610d0757610100808354040283529160200191610d32565b820191906000526020600020905b815481529060010190602001808311610d1557829003601f168201915b50505050509050611096565b6005821415610de95760078054600181600116156101000203166002900480601f016020809104026020016040519081016040528092919081815260200182805460018160011615610100020316600290048015610ddd5780601f10610db257610100808354040283529160200191610ddd565b820191906000526020600020905b815481529060010190602001808311610dc057829003601f168201915b50505050509050611096565b6006821415610e945760088054600181600116156101000203166002900480601f016020809104026020016040519081016040528092919081815260200182805460018160011615610100020316600290048015610e885780601f10610e5d57610100808354040283529160200191610e88565b820191906000526020600020905b815481529060010190602001808311610e6b57829003601f168201915b50505050509050611096565b6007821415610f3f5760098054600181600116156101000203166002900480601f016020809104026020016040519081016040528092919081815260200182805460018160011615610100020316600290048015610f335780601f10610f0857610100808354040283529160200191610f33565b820191906000526020600020905b815481529060010190602001808311610f1657829003601f168201915b50505050509050611096565b6008821415610fea57600a8054600181600116156101000203166002900480601f016020809104026020016040519081016040528092919081815260200182805460018160011615610100020316600290048015610fde5780601f10610fb357610100808354040283529160200191610fde565b820191906000526020600020905b815481529060010190602001808311610fc157829003601f168201915b50505050509050611096565b600982141561109557600b8054600181600116156101000203166002900480601f0160208091040260200160405190810160405280929190818152602001828054600181600116156101000203166002900480156110895780601f1061105e57610100808354040283529160200191611089565b820191906000526020600020905b81548152906001019060200180831161106c57829003601f168201915b50505050509050611096565b5b919050565b6110a36115ef565b60008214156110d457600c60408051908101604052908160008201548152602001600182015481525050905061128e565b600182141561110557600e60408051908101604052908160008201548152602001600182015481525050905061128e565b600282141561113657601060408051908101604052908160008201548152602001600182015481525050905061128e565b600382141561116757601260408051908101604052908160008201548152602001600182015481525050905061128e565b600482141561119857601460408051908101604052908160008201548152602001600182015481525050905061128e565b60058214156111c957601660408051908101604052908160008201548152602001600182015481525050905061128e565b60068214156111fa57601860408051908101604052908160008201548152602001600182015481525050905061128e565b600782141561122b57601a60408051908101604052908160008201548152602001600182015481525050905061128e565b600882141561125c57601c60408051908101604052908160008201548152602001600182015481525050905061128e565b600982141561128d57601e60408051908101604052908160008201548152602001600182015481525050905061128e565b5b919050565b61129b6115ef565b6040805190810160405280600181526020016002815250905090565b6112bf6115ef565b6112c7611719565b600084600001518260006003811015156112dd57fe5b60200201818152505084602001518260016003811015156112fa57fe5b6020020181815250508382600260038110151561131357fe5b602002018181525050606083608084600060076107d05a03f19050806000811461133c5761133e565bfe5b5080151561134b57600080fd5b505092915050565b6000806000611360611741565b600061136a611755565b60008751895114151561137c57600080fd5b88519550600686029450846040518059106113945750595b90808252806020026020018201604052509350600092505b858310156115815788838151811015156113c257fe5b906020019060200201516000015184600060068602018151811015156113e457fe5b9060200190602002018181525050888381518110151561140057fe5b9060200190602002015160200151846001600686020181518110151561142257fe5b9060200190602002018181525050878381518110151561143e57fe5b9060200190602002015160000151600060028110151561145a57fe5b6020020151846002600686020181518110151561147357fe5b9060200190602002018181525050878381518110151561148f57fe5b906020019060200201516000015160016002811015156114ab57fe5b602002015184600360068602018151811015156114c457fe5b906020019060200201818152505087838151811015156114e057fe5b906020019060200201516020015160006002811015156114fc57fe5b6020020151846004600686020181518110151561151557fe5b9060200190602002018181525050878381518110151561153157fe5b9060200190602002015160200151600160028110151561154d57fe5b6020020151846005600686020181518110151561156657fe5b906020019060200201818152505082806001019350506113ac565b6020826020870260208701600060086107d05a03f1905080600081146115a6576115a8565bfe5b508015156115b557600080fd5b60008260006001811015156115c657fe5b60200201511415965050505050505092915050565b602060405190810160405280600081525090565b604080519081016040528060008152602001600081525090565b60806040519081016040528061161d61177d565b815260200161162a61177d565b81525090565b828054600181600116156101000203166002900490600052602060002090601f016020900481019282601f1061167157805160ff191683800117855561169f565b8280016001018555821561169f579182015b8281111561169e578251825591602001919060010190611683565b5b5090506116ac91906117a4565b5090565b602060405190810160405280600081525090565b602060405190810160405280600081525090565b604080519081016040528060008152602001600081525090565b60806040519081016040528061170661177d565b815260200161171361177d565b81525090565b6060604051908101604052806003905b60008152602001906001900390816117295790505090565b602060405190810160405280600081525090565b6020604051908101604052806001905b60008152602001906001900390816117655790505090565b60408051908101604052806002905b600081526020019060019003908161178c5790505090565b6117c691905b808211156117c25760008160009055506001016117aa565b5090565b90565b600082601f83011215156117dc57600080fd5b81356117ef6117ea82611a12565b6119e5565b9150818183526020840193506020810190508385602084028201111561181457600080fd5b60005b83811015611844578161182a88826118a4565b845260208401935060208301925050600181019050611817565b5050505092915050565b600082601f830112151561186157600080fd5b813561187461186f82611a3a565b6119e5565b9150808252602083016020830185838301111561189057600080fd5b61189b838284611a7c565b50505092915050565b60006118b08235611a72565b905092915050565b6000806000606084860312156118cd57600080fd5b600084013567ffffffffffffffff8111156118e757600080fd5b6118f3868287016117c9565b935050602084013567ffffffffffffffff81111561191057600080fd5b61191c868287016117c9565b925050604084013567ffffffffffffffff81111561193957600080fd5b6119458682870161184e565b9150509250925092565b6000806040838503121561196257600080fd5b600083013567ffffffffffffffff81111561197c57600080fd5b611988858286016117c9565b925050602083013567ffffffffffffffff8111156119a557600080fd5b6119b18582860161184e565b9150509250929050565b6119c481611a66565b82525050565b60006020820190506119df60008301846119bb565b92915050565b6000604051905081810181811067ffffffffffffffff82111715611a0857600080fd5b8060405250919050565b600067ffffffffffffffff821115611a2957600080fd5b602082029050602081019050919050565b600067ffffffffffffffff821115611a5157600080fd5b601f19601f8301169050602081019050919050565b60008115159050919050565b6000819050919050565b8281833760008383015250505056007b0a2020226f70656e223a207b0a20202020227072696365223a2039353931372c0a202020202274696d65223a207b0a20202020202022756e6978223a20313438333134323430302c0a2020202020202269736f223a2022323031362d31322d33315430303a30303a30302e3030305a220a202020207d0a20207d2c0a202022636c6f7365223a207b0a20202020227072696365223a2039363736302c0a202020202274696d65223a207b0a20202020202022756e6978223a20313438333232383830302c0a2020202020202269736f223a2022323031372d30312d30315430303a30303a30302e3030305a220a202020207d0a20207d2c0a2020226c6f6f6b7570223a207b0a20202020227072696365223a2039363736302c0a20202020226b223a20312c0a202020202274696d65223a207b0a20202020202022756e6978223a20313438333232383830302c0a2020202020202269736f223a2022323031372d30312d30315430303a30303a30302e3030305a220a202020207d0a20207d0a7d0a6578616d706c652e636f6d2f6170692f31a265627a7a723058203c7c23f1be1e6291aa30ac5eced42e1e505146fdab73e474eb977d74d06218d06c6578706572696d656e74616cf500377b0a2020226f70656e223a207b0a20202020227072696365223a2039353931372c0a202020202274696d65223a207b0a20202020202022756e6978223a20313438333134323430302c0a2020202020202269736f223a2022323031362d31322d33315430303a30303a30302e3030305a220a202020207d0a20207d2c0a202022636c6f7365223a207b0a20202020227072696365223a2039363736302c0a202020202274696d65223a207b0a20202020202022756e6978223a20313438333232383830302c0a2020202020202269736f223a2022323031372d30312d30315430303a30303a30302e3030305a220a202020207d0a20207d2c0a2020226c6f6f6b7570223a207b0a20202020227072696365223a2039363736302c0a20202020226b223a20312c0a202020202274696d65223a207b0a20202020202022756e6978223a20313438333232383830302c0a2020202020202269736f223a2022323031372d30312d30315430303a30303a30302e3030305a220a202020207d0a20207d0a7d0a6578616d706c652e636f6d2f6170692f367b0a2020226f70656e223a207b0a20202020227072696365223a2039353931372c0a202020202274696d65223a207b0a20202020202022756e6978223a20313438333134323430302c0a2020202020202269736f223a2022323031362d31322d33315430303a30303a30302e3030305a220a202020207d0a20207d2c0a202022636c6f7365223a207b0a20202020227072696365223a2039363736302c0a202020202274696d65223a207b0a20202020202022756e6978223a20313438333232383830302c0a2020202020202269736f223a2022323031372d30312d30315430303a30303a30302e3030305a220a202020207d0a20207d2c0a2020226c6f6f6b7570223a207b0a20202020227072696365223a2039363736302c0a20202020226b223a20312c0a202020202274696d65223a207b0a20202020202022756e6978223a20313438333232383830302c0a2020202020202269736f223a2022323031372d30312d30315430303a30303a30302e3030305a220a202020207d0a20207d0a7d0a6578616d706c652e636f6d2f6170692f397b0a2020226f70656e223a207b0a20202020227072696365223a2039353931372c0a202020202274696d65223a207b0a20202020202022756e6978223a20313438333134323430302c0a2020202020202269736f223a2022323031362d31322d33315430303a30303a30302e3030305a220a202020207d0a20207d2c0a202022636c6f7365223a207b0a20202020227072696365223a2039363736302c0a202020202274696d65223a207b0a20202020202022756e6978223a20313438333232383830302c0a2020202020202269736f223a2022323031372d30312d30315430303a30303a30302e3030305a220a202020207d0a20207d2c0a2020226c6f6f6b7570223a207b0a20202020227072696365223a2039363736302c0a20202020226b223a20312c0a202020202274696d65223a207b0a20202020202022756e6978223a20313438333232383830302c0a2020202020202269736f223a2022323031372d30312d30315430303a30303a30302e3030305a220a202020207d0a20207d0a7d0a6578616d706c652e636f6d2f6170692f347b0a2020226f70656e223a207b0a20202020227072696365223a2039353931372c0a202020202274696d65223a207b0a20202020202022756e6978223a20313438333134323430302c0a2020202020202269736f223a2022323031362d31322d33315430303a30303a30302e3030305a220a202020207d0a20207d2c0a202022636c6f7365223a207b0a20202020227072696365223a2039363736302c0a202020202274696d65223a207b0a20202020202022756e6978223a20313438333232383830302c0a2020202020202269736f223a2022323031372d30312d30315430303a30303a30302e3030305a220a202020207d0a20207d2c0a2020226c6f6f6b7570223a207b0a20202020227072696365223a2039363736302c0a20202020226b223a20312c0a202020202274696d65223a207b0a20202020202022756e6978223a20313438333232383830302c0a2020202020202269736f223a2022323031372d30312d30315430303a30303a30302e3030305a220a202020207d0a20207d0a7d0a6578616d706c652e636f6d2f6170692f377b0a2020226f70656e223a207b0a20202020227072696365223a2039353931372c0a202020202274696d65223a207b0a20202020202022756e6978223a20313438333134323430302c0a2020202020202269736f223a2022323031362d31322d33315430303a30303a30302e3030305a220a202020207d0a20207d2c0a202022636c6f7365223a207b0a20202020227072696365223a2039363736302c0a202020202274696d65223a207b0a20202020202022756e6978223a20313438333232383830302c0a2020202020202269736f223a2022323031372d30312d30315430303a30303a30302e3030305a220a202020207d0a20207d2c0a2020226c6f6f6b7570223a207b0a20202020227072696365223a2039363736302c0a20202020226b223a20312c0a202020202274696d65223a207b0a20202020202022756e6978223a20313438333232383830302c0a2020202020202269736f223a2022323031372d30312d30315430303a30303a30302e3030305a220a202020207d0a20207d0a7d0a6578616d706c652e636f6d2f6170692f317b0a2020226f70656e223a207b0a20202020227072696365223a2039353931372c0a202020202274696d65223a207b0a20202020202022756e6978223a20313438333134323430302c0a2020202020202269736f223a2022323031362d31322d33315430303a30303a30302e3030305a220a202020207d0a20207d2c0a202022636c6f7365223a207b0a20202020227072696365223a2039363736302c0a202020202274696d65223a207b0a20202020202022756e6978223a20313438333232383830302c0a2020202020202269736f223a2022323031372d30312d30315430303a30303a30302e3030305a220a202020207d0a20207d2c0a2020226c6f6f6b7570223a207b0a20202020227072696365223a2039363736302c0a20202020226b223a20312c0a202020202274696d65223a207b0a20202020202022756e6978223a20313438333232383830302c0a2020202020202269736f223a2022323031372d30312d30315430303a30303a30302e3030305a220a202020207d0a20207d0a7d0a6578616d706c652e636f6d2f6170692f307b0a2020226f70656e223a207b0a20202020227072696365223a2039353931372c0a202020202274696d65223a207b0a20202020202022756e6978223a20313438333134323430302c0a2020202020202269736f223a2022323031362d31322d33315430303a30303a30302e3030305a220a202020207d0a20207d2c0a202022636c6f7365223a207b0a20202020227072696365223a2039363736302c0a202020202274696d65223a207b0a20202020202022756e6978223a20313438333232383830302c0a2020202020202269736f223a2022323031372d30312d30315430303a30303a30302e3030305a220a202020207d0a20207d2c0a2020226c6f6f6b7570223a207b0a20202020227072696365223a2039363736302c0a20202020226b223a20312c0a202020202274696d65223a207b0a20202020202022756e6978223a20313438333232383830302c0a2020202020202269736f223a2022323031372d30312d30315430303a30303a30302e3030305a220a202020207d0a20207d0a7d0a6578616d706c652e636f6d2f6170692f337b0a2020226f70656e223a207b0a20202020227072696365223a2039353931372c0a202020202274696d65223a207b0a20202020202022756e6978223a20313438333134323430302c0a2020202020202269736f223a2022323031362d31322d33315430303a30303a30302e3030305a220a202020207d0a20207d2c0a202022636c6f7365223a207b0a20202020227072696365223a2039363736302c0a202020202274696d65223a207b0a20202020202022756e6978223a20313438333232383830302c0a2020202020202269736f223a2022323031372d30312d30315430303a30303a30302e3030305a220a202020207d0a20207d2c0a2020226c6f6f6b7570223a207b0a20202020227072696365223a2039363736302c0a20202020226b223a20312c0a202020202274696d65223a207b0a20202020202022756e6978223a20313438333232383830302c0a2020202020202269736f223a2022323031372d30312d30315430303a30303a30302e3030305a220a202020207d0a20207d0a7d0a6578616d706c652e636f6d2f6170692f327b0a2020226f70656e223a207b0a20202020227072696365223a2039353931372c0a202020202274696d65223a207b0a20202020202022756e6978223a20313438333134323430302c0a2020202020202269736f223a2022323031362d31322d33315430303a30303a30302e3030305a220a202020207d0a20207d2c0a202022636c6f7365223a207b0a20202020227072696365223a2039363736302c0a202020202274696d65223a207b0a20202020202022756e6978223a20313438333232383830302c0a2020202020202269736f223a2022323031372d30312d30315430303a30303a30302e3030305a220a202020207d0a20207d2c0a2020226c6f6f6b7570223a207b0a20202020227072696365223a2039363736302c0a20202020226b223a20312c0a202020202274696d65223a207b0a20202020202022756e6978223a20313438333232383830302c0a2020202020202269736f223a2022323031372d30312d30315430303a30303a30302e3030305a220a202020207d0a20207d0a7d0a6578616d706c652e636f6d2f6170692f387b0a2020226f70656e223a207b0a20202020227072696365223a2039353931372c0a202020202274696d65223a207b0a20202020202022756e6978223a20313438333134323430302c0a2020202020202269736f223a2022323031362d31322d33315430303a30303a30302e3030305a220a202020207d0a20207d2c0a202022636c6f7365223a207b0a20202020227072696365223a2039363736302c0a202020202274696d65223a207b0a20202020202022756e6978223a20313438333232383830302c0a2020202020202269736f223a2022323031372d30312d30315430303a30303a30302e3030305a220a202020207d0a20207d2c0a2020226c6f6f6b7570223a207b0a20202020227072696365223a2039363736302c0a20202020226b223a20312c0a202020202274696d65223a207b0a20202020202022756e6978223a20313438333232383830302c0a2020202020202269736f223a2022323031372d30312d30315430303a30303a30302e3030305a220a202020207d0a20207d0a7d0a6578616d706c652e636f6d2f6170692f35",
  "source": "pragma solidity ^0.4.14;\npragma experimental ABIEncoderV2;\n\n\n//https://github.com/jstoxrocky/zksnarks_example\ncontract BLS {\n\n    //Representative example to measure storage costs\n    bytes message_ex = hex\"7b0a2020226f70656e223a207b0a20202020227072696365223a2039353931372c0a202020202274696d65223a207b0a20202020202022756e6978223a20313438333134323430302c0a2020202020202269736f223a2022323031362d31322d33315430303a30303a30302e3030305a220a202020207d0a20207d2c0a202022636c6f7365223a207b0a20202020227072696365223a2039363736302c0a202020202274696d65223a207b0a20202020202022756e6978223a20313438333232383830302c0a2020202020202269736f223a2022323031372d30312d30315430303a30303a30302e3030305a220a202020207d0a20207d2c0a2020226c6f6f6b7570223a207b0a20202020227072696365223a2039363736302c0a20202020226b223a20312c0a202020202274696d65223a207b0a20202020202022756e6978223a20313438333232383830302c0a2020202020202269736f223a2022323031372d30312d30315430303a30303a30302e3030305a220a202020207d0a20207d0a7d0a6578616d706c652e636f6d2f6170692f31\";\n    uint[] signature_ex = [11181692345848957662074290878138344227085597134981019040735323471731897153462, 6479746447046570360435714249272776082787932146211764251347798668447381926167];\n\n    bytes message0 = hex\"7b0a2020226f70656e223a207b0a20202020227072696365223a2039353931372c0a202020202274696d65223a207b0a20202020202022756e6978223a20313438333134323430302c0a2020202020202269736f223a2022323031362d31322d33315430303a30303a30302e3030305a220a202020207d0a20207d2c0a202022636c6f7365223a207b0a20202020227072696365223a2039363736302c0a202020202274696d65223a207b0a20202020202022756e6978223a20313438333232383830302c0a2020202020202269736f223a2022323031372d30312d30315430303a30303a30302e3030305a220a202020207d0a20207d2c0a2020226c6f6f6b7570223a207b0a20202020227072696365223a2039363736302c0a20202020226b223a20312c0a202020202274696d65223a207b0a20202020202022756e6978223a20313438333232383830302c0a2020202020202269736f223a2022323031372d30312d30315430303a30303a30302e3030305a220a202020207d0a20207d0a7d0a6578616d706c652e636f6d2f6170692f30\";\n    bytes message1 = hex\"7b0a2020226f70656e223a207b0a20202020227072696365223a2039353931372c0a202020202274696d65223a207b0a20202020202022756e6978223a20313438333134323430302c0a2020202020202269736f223a2022323031362d31322d33315430303a30303a30302e3030305a220a202020207d0a20207d2c0a202022636c6f7365223a207b0a20202020227072696365223a2039363736302c0a202020202274696d65223a207b0a20202020202022756e6978223a20313438333232383830302c0a2020202020202269736f223a2022323031372d30312d30315430303a30303a30302e3030305a220a202020207d0a20207d2c0a2020226c6f6f6b7570223a207b0a20202020227072696365223a2039363736302c0a20202020226b223a20312c0a202020202274696d65223a207b0a20202020202022756e6978223a20313438333232383830302c0a2020202020202269736f223a2022323031372d30312d30315430303a30303a30302e3030305a220a202020207d0a20207d0a7d0a6578616d706c652e636f6d2f6170692f31\";\n    bytes message2 = hex\"7b0a2020226f70656e223a207b0a20202020227072696365223a2039353931372c0a202020202274696d65223a207b0a20202020202022756e6978223a20313438333134323430302c0a2020202020202269736f223a2022323031362d31322d33315430303a30303a30302e3030305a220a202020207d0a20207d2c0a202022636c6f7365223a207b0a20202020227072696365223a2039363736302c0a202020202274696d65223a207b0a20202020202022756e6978223a20313438333232383830302c0a2020202020202269736f223a2022323031372d30312d30315430303a30303a30302e3030305a220a202020207d0a20207d2c0a2020226c6f6f6b7570223a207b0a20202020227072696365223a2039363736302c0a20202020226b223a20312c0a202020202274696d65223a207b0a20202020202022756e6978223a20313438333232383830302c0a2020202020202269736f223a2022323031372d30312d30315430303a30303a30302e3030305a220a202020207d0a20207d0a7d0a6578616d706c652e636f6d2f6170692f32\";\n    bytes message3 = hex\"7b0a2020226f70656e223a207b0a20202020227072696365223a2039353931372c0a202020202274696d65223a207b0a20202020202022756e6978223a20313438333134323430302c0a2020202020202269736f223a2022323031362d31322d33315430303a30303a30302e3030305a220a202020207d0a20207d2c0a202022636c6f7365223a207b0a20202020227072696365223a2039363736302c0a202020202274696d65223a207b0a20202020202022756e6978223a20313438333232383830302c0a2020202020202269736f223a2022323031372d30312d30315430303a30303a30302e3030305a220a202020207d0a20207d2c0a2020226c6f6f6b7570223a207b0a20202020227072696365223a2039363736302c0a20202020226b223a20312c0a202020202274696d65223a207b0a20202020202022756e6978223a20313438333232383830302c0a2020202020202269736f223a2022323031372d30312d30315430303a30303a30302e3030305a220a202020207d0a20207d0a7d0a6578616d706c652e636f6d2f6170692f33\";\n    bytes message4 = hex\"7b0a2020226f70656e223a207b0a20202020227072696365223a2039353931372c0a202020202274696d65223a207b0a20202020202022756e6978223a20313438333134323430302c0a2020202020202269736f223a2022323031362d31322d33315430303a30303a30302e3030305a220a202020207d0a20207d2c0a202022636c6f7365223a207b0a20202020227072696365223a2039363736302c0a202020202274696d65223a207b0a20202020202022756e6978223a20313438333232383830302c0a2020202020202269736f223a2022323031372d30312d30315430303a30303a30302e3030305a220a202020207d0a20207d2c0a2020226c6f6f6b7570223a207b0a20202020227072696365223a2039363736302c0a20202020226b223a20312c0a202020202274696d65223a207b0a20202020202022756e6978223a20313438333232383830302c0a2020202020202269736f223a2022323031372d30312d30315430303a30303a30302e3030305a220a202020207d0a20207d0a7d0a6578616d706c652e636f6d2f6170692f34\";\n    bytes message5 = hex\"7b0a2020226f70656e223a207b0a20202020227072696365223a2039353931372c0a202020202274696d65223a207b0a20202020202022756e6978223a20313438333134323430302c0a2020202020202269736f223a2022323031362d31322d33315430303a30303a30302e3030305a220a202020207d0a20207d2c0a202022636c6f7365223a207b0a20202020227072696365223a2039363736302c0a202020202274696d65223a207b0a20202020202022756e6978223a20313438333232383830302c0a2020202020202269736f223a2022323031372d30312d30315430303a30303a30302e3030305a220a202020207d0a20207d2c0a2020226c6f6f6b7570223a207b0a20202020227072696365223a2039363736302c0a20202020226b223a20312c0a202020202274696d65223a207b0a20202020202022756e6978223a20313438333232383830302c0a2020202020202269736f223a2022323031372d30312d30315430303a30303a30302e3030305a220a202020207d0a20207d0a7d0a6578616d706c652e636f6d2f6170692f35\";\n    bytes message6 = hex\"7b0a2020226f70656e223a207b0a20202020227072696365223a2039353931372c0a202020202274696d65223a207b0a20202020202022756e6978223a20313438333134323430302c0a2020202020202269736f223a2022323031362d31322d33315430303a30303a30302e3030305a220a202020207d0a20207d2c0a202022636c6f7365223a207b0a20202020227072696365223a2039363736302c0a202020202274696d65223a207b0a20202020202022756e6978223a20313438333232383830302c0a2020202020202269736f223a2022323031372d30312d30315430303a30303a30302e3030305a220a202020207d0a20207d2c0a2020226c6f6f6b7570223a207b0a20202020227072696365223a2039363736302c0a20202020226b223a20312c0a202020202274696d65223a207b0a20202020202022756e6978223a20313438333232383830302c0a2020202020202269736f223a2022323031372d30312d30315430303a30303a30302e3030305a220a202020207d0a20207d0a7d0a6578616d706c652e636f6d2f6170692f36\";\n    bytes message7 = hex\"7b0a2020226f70656e223a207b0a20202020227072696365223a2039353931372c0a202020202274696d65223a207b0a20202020202022756e6978223a20313438333134323430302c0a2020202020202269736f223a2022323031362d31322d33315430303a30303a30302e3030305a220a202020207d0a20207d2c0a202022636c6f7365223a207b0a20202020227072696365223a2039363736302c0a202020202274696d65223a207b0a20202020202022756e6978223a20313438333232383830302c0a2020202020202269736f223a2022323031372d30312d30315430303a30303a30302e3030305a220a202020207d0a20207d2c0a2020226c6f6f6b7570223a207b0a20202020227072696365223a2039363736302c0a20202020226b223a20312c0a202020202274696d65223a207b0a20202020202022756e6978223a20313438333232383830302c0a2020202020202269736f223a2022323031372d30312d30315430303a30303a30302e3030305a220a202020207d0a20207d0a7d0a6578616d706c652e636f6d2f6170692f37\";\n    bytes message8 = hex\"7b0a2020226f70656e223a207b0a20202020227072696365223a2039353931372c0a202020202274696d65223a207b0a20202020202022756e6978223a20313438333134323430302c0a2020202020202269736f223a2022323031362d31322d33315430303a30303a30302e3030305a220a202020207d0a20207d2c0a202022636c6f7365223a207b0a20202020227072696365223a2039363736302c0a202020202274696d65223a207b0a20202020202022756e6978223a20313438333232383830302c0a2020202020202269736f223a2022323031372d30312d30315430303a30303a30302e3030305a220a202020207d0a20207d2c0a2020226c6f6f6b7570223a207b0a20202020227072696365223a2039363736302c0a20202020226b223a20312c0a202020202274696d65223a207b0a20202020202022756e6978223a20313438333232383830302c0a2020202020202269736f223a2022323031372d30312d30315430303a30303a30302e3030305a220a202020207d0a20207d0a7d0a6578616d706c652e636f6d2f6170692f38\";\n    bytes message9 = hex\"7b0a2020226f70656e223a207b0a20202020227072696365223a2039353931372c0a202020202274696d65223a207b0a20202020202022756e6978223a20313438333134323430302c0a2020202020202269736f223a2022323031362d31322d33315430303a30303a30302e3030305a220a202020207d0a20207d2c0a202022636c6f7365223a207b0a20202020227072696365223a2039363736302c0a202020202274696d65223a207b0a20202020202022756e6978223a20313438333232383830302c0a2020202020202269736f223a2022323031372d30312d30315430303a30303a30302e3030305a220a202020207d0a20207d2c0a2020226c6f6f6b7570223a207b0a20202020227072696365223a2039363736302c0a20202020226b223a20312c0a202020202274696d65223a207b0a20202020202022756e6978223a20313438333232383830302c0a2020202020202269736f223a2022323031372d30312d30315430303a30303a30302e3030305a220a202020207d0a20207d0a7d0a6578616d706c652e636f6d2f6170692f39\";\n    G1Point signature0 = G1Point(5184658216108236166487848590876511837733486685529854097237373095672855537357, 8330930853020054953908886276405410407605755848046343130652944150060164059116);\n    G1Point signature1 = G1Point(4964683421405923354189952561127131299600678657175782192782812654459615339672, 11903021191146774954818876248058294968399466569679779846266461117746825847353);\n    G1Point signature2 = G1Point(9335787982110079012899752669336264719999639595771323406104569023183351014012, 10176673345376872012380837139327929658295429681445767283777625906774299445080);\n    G1Point signature3 = G1Point(10049772208826892074078360049754757547383458472865127955279550289645720587257, 12122089622448762217663659173606664038196539482239647295165165052693230517240);\n    G1Point signature4 = G1Point(20897596669982047012256216358436682714326423527671525130369975433938653385458, 3781150880790799654822025846563667085269458113748431789740014171763402773153);\n    G1Point signature5 = G1Point(11181134865134588541447446956736695081803467720433999740984747105416723304496, 5893087072540242491704103065445282485279471840155944935944912730441101522588);\n    G1Point signature6 = G1Point(21105108140921504108768791246247952056709049914278198591148085663886850018676, 10211525997116033986002324660156156491953065524860727343769001798578345660260);\n    G1Point signature7 = G1Point(4662982401324325286758001774585824577368567647331459015103880114724655958148, 11212370399904568049730506319952152449400183976378849307210770959770456992330);\n    G1Point signature8 = G1Point(20557312465106880399511799333507484461854746082438075734535340786441577124342, 14305229560784146638837170918963079144014433376829690716613557252611680311494);\n    G1Point signature9 = G1Point(13039622906241167481375528011380905714713410136392551797917354560189440091225, 20075260259401204569614827720682174091453991454301770386233592927370082209648);\n\n    struct G1Point {\n        uint X;\n        uint Y;\n    }\n    // Encoding of field elements is: X[0] * z + X[1]\n    struct G2Point {\n        uint[2] X;\n        uint[2] Y;\n    }\n\n    /// @return the generator of G1\n    function P1() internal returns (G1Point) {\n        return G1Point(1, 2);\n    }\n\n    /// @return the generator of G2\n    function P2() internal returns (G2Point) {\n        return G2Point(\n            [11559732032986387107991004021392285783925812861821192530917403151452391805634,\n            10857046999023057135944570762232829481370756359578518086990519993285655852781],\n\n            [4082367875863433681332203403145435568316851327593401208105741076214120093531,\n            8495653923123431417604973247489272438418190587263600148770280649306958101930]\n        );\n    }\n\n    /**\n    This method is used to measure only the transaction costs\n    */\n    function doNothing(uint[] _sigs, bytes _messages) returns (bool) {\n       revert();\n    }\n\n    /**\n    This method is used to measure only the storage costs\n    */\n    uint32 counter = 0;\n    mapping(uint32 => G1Point) sig_storage;\n    mapping(uint32 => bytes) msg_storage;\n    function store() {\n\n        uint n = 10; //NOTE: change this parameter to set the number of messages signatures that will be stored\n\n        for (uint i = 0; i < n; i++) {\n            msg_storage[counter] = getMessage(i);\n            sig_storage[counter] = getSignature(i);\n\n            counter = counter + 1;\n        }\n    }\n\n    /**\n    This method is used to measure only the verification costs\n    */\n    function sendNothing() {\n        uint n = 10; //NOTE: change this parameter to set the amount of signatures that will be verified\n\n        for (uint i = 0; i < n; i++) {\n            verifyBLSTest();\n        }\n    }\n\n    /*\n    Verification with internal keys\n    */\n    function verify(uint[] memory sig, bytes msg) returns (bool) {\n        bytes memory message = msg;\n\n        G1Point memory signature = G1Point(sig[0], sig[1]);\n\n        G2Point memory v = G2Point(\n            [18523194229674161632574346342370534213928970227736813349975332190798837787897, 5725452645840548248571879966249653216818629536104756116202892528545334967238],\n            [3816656720215352836236372430537606984911914992659540439626020770732736710924, 677280212051826798882467475639465784259337739185938192379192340908771705870]\n        );\n\n        G1Point memory h = hashToG1(message);\n\n        return pairing2(negate(signature), P2(), h, v);\n    }\n\n    /*\n    Verification with external keys\n    */\n    function verifyBLS(uint[] memory sig, uint[] vs, bytes msg) returns (bool) {\n        bytes memory message = msg;\n\n        G1Point memory signature = G1Point(sig[0], sig[1]);\n\n        G2Point memory v = G2Point([vs[0], vs[1]], [vs[2], vs[3]]);\n\n        G1Point memory h = hashToG1(message);\n\n        return pairing2(negate(signature), P2(), h, v);\n    }\n\n    function verifyBLSTest() returns (bool) {\n\n        bytes memory message = hex\"7b0a2020226f70656e223a207b0a20202020227072696365223a2039353931372c0a202020202274696d65223a207b0a20202020202022756e6978223a20313438333134323430302c0a2020202020202269736f223a2022323031362d31322d33315430303a30303a30302e3030305a220a202020207d0a20207d2c0a202022636c6f7365223a207b0a20202020227072696365223a2039363736302c0a202020202274696d65223a207b0a20202020202022756e6978223a20313438333232383830302c0a2020202020202269736f223a2022323031372d30312d30315430303a30303a30302e3030305a220a202020207d0a20207d2c0a2020226c6f6f6b7570223a207b0a20202020227072696365223a2039363736302c0a20202020226b223a20312c0a202020202274696d65223a207b0a20202020202022756e6978223a20313438333232383830302c0a2020202020202269736f223a2022323031372d30312d30315430303a30303a30302e3030305a220a202020207d0a20207d0a7d0a6578616d706c652e636f6d2f6170692f31\";\n\n        G1Point memory signature = G1Point(11181692345848957662074290878138344227085597134981019040735323471731897153462, 6479746447046570360435714249272776082787932146211764251347798668447381926167);\n\n        G2Point memory v = G2Point(\n            [18523194229674161632574346342370534213928970227736813349975332190798837787897, 5725452645840548248571879966249653216818629536104756116202892528545334967238],\n            [3816656720215352836236372430537606984911914992659540439626020770732736710924, 677280212051826798882467475639465784259337739185938192379192340908771705870]\n        );\n\n        G1Point memory h = hashToG1(message);\n\n        return pairing2(negate(signature), P2(), h, v);\n    }\n\n    /// @return the result of computing the pairing check\n    /// e(p1[0], p2[0]) *  .... * e(p1[n], p2[n]) == 1\n    /// For example pairing([P1(), P1().negate()], [P2(), P2()]) should\n    /// return true.\n    function pairing(G1Point[] p1, G2Point[] p2) internal returns (bool) {\n        require(p1.length == p2.length);\n        uint elements = p1.length;\n        uint inputSize = elements * 6;\n        uint[] memory input = new uint[](inputSize);\n\n        for (uint i = 0; i < elements; i++)\n        {\n            input[i * 6 + 0] = p1[i].X;\n            input[i * 6 + 1] = p1[i].Y;\n            input[i * 6 + 2] = p2[i].X[0];\n            input[i * 6 + 3] = p2[i].X[1];\n            input[i * 6 + 4] = p2[i].Y[0];\n            input[i * 6 + 5] = p2[i].Y[1];\n        }\n\n        uint[1] memory out;\n        bool success;\n\n        assembly {\n            success := call(sub(gas, 2000), 8, 0, add(input, 0x20), mul(inputSize, 0x20), out, 0x20)\n        // Use \"invalid\" to make gas estimation work\n            switch success case 0 {invalid}\n        }\n        require(success);\n        return out[0] != 0;\n    }\n\n    /// Convenience method for a pairing check for two pairs.\n    function pairing2(G1Point a1, G2Point a2, G1Point b1, G2Point b2) internal returns (bool) {\n        G1Point[] memory p1 = new G1Point[](2);\n        G2Point[] memory p2 = new G2Point[](2);\n        p1[0] = a1;\n        p1[1] = b1;\n        p2[0] = a2;\n        p2[1] = b2;\n        return pairing(p1, p2);\n    }\n\n    function hashToG1(bytes message) internal returns (G1Point) {\n        uint256 h = uint256(keccak256(message));\n        return mul(P1(), h);\n    }\n\n    function modPow(uint256 base, uint256 exponent, uint256 modulus) internal returns (uint256) {\n        uint256[6] memory input = [32, 32, 32, base, exponent, modulus];\n        uint256[1] memory result;\n        assembly {\n            if iszero(call(not(0), 0x05, 0, input, 0xc0, result, 0x20)) {\n                revert(0, 0)\n            }\n        }\n        return result[0];\n    }\n\n    /// @return the negation of p, i.e. p.add(p.negate()) should be zero.\n    function negate(G1Point p) internal returns (G1Point) {\n        // The prime q in the base field F_q for G1\n        uint q = 21888242871839275222246405745257275088696311157297823662689037894645226208583;\n        if (p.X == 0 && p.Y == 0)\n            return G1Point(0, 0);\n        return G1Point(p.X, q - (p.Y % q));\n    }\n\n    /// @return the sum of two points of G1\n    function add(G1Point p1, G1Point p2) internal returns (G1Point r) {\n        uint[4] memory input;\n        input[0] = p1.X;\n        input[1] = p1.Y;\n        input[2] = p2.X;\n        input[3] = p2.Y;\n        bool success;\n        assembly {\n            success := call(sub(gas, 2000), 6, 0, input, 0xc0, r, 0x60)\n        // Use \"invalid\" to make gas estimation work\n            switch success case 0 {invalid}\n        }\n        require(success);\n    }\n    /// @return the product of a point on G1 and a scalar, i.e.\n    /// p == p.mul(1) and p.add(p) == p.mul(2) for all points p.\n    function mul(G1Point p, uint s) internal returns (G1Point r) {\n        uint[3] memory input;\n        input[0] = p.X;\n        input[1] = p.Y;\n        input[2] = s;\n        bool success;\n        assembly {\n            success := call(sub(gas, 2000), 7, 0, input, 0x80, r, 0x60)\n        // Use \"invalid\" to make gas estimation work\n            switch success case 0 {invalid}\n        }\n        require(success);\n    }\n\n    function getSignature(uint i) view internal returns (G1Point) {\n        if (i == 0) {\n            return signature0;\n        } else if (i == 1) {\n            return signature1;\n        } else if (i == 2) {\n            return signature2;\n        } else if (i == 3) {\n            return signature3;\n        } else if (i == 4) {\n            return signature4;\n        } else if (i == 5) {\n            return signature5;\n        } else if (i == 6) {\n            return signature6;\n        } else if (i == 7) {\n            return signature7;\n        } else if (i == 8) {\n            return signature8;\n        } else if (i == 9) {\n            return signature9;\n        }\n    }\n\n    function getMessage(uint i) internal returns (bytes) {\n        if (i == 0) {\n            return message0;\n        } else if (i == 1) {\n            return message1;\n        } else if (i == 2) {\n            return message2;\n        } else if (i == 3) {\n            return message3;\n        } else if (i == 4) {\n            return message4;\n        } else if (i == 5) {\n            return message5;\n        } else if (i == 6) {\n            return message6;\n        } else if (i == 7) {\n            return message7;\n        } else if (i == 8) {\n            return message8;\n        } else if (i == 9) {\n            return message9;\n        }\n    }\n\n}\n",
  "sourcePath": "/home/bjorn/Projects/BGRVerify/contracts/BLS.sol",
  "compiler": {
    "name": "solc",
    "version": "0.4.21+commit.dfe3193c.Emscripten.clang"
  },
  "schemaVersion": "2.0.0",
  "updatedAt": "2018-06-22T07:15:51.898Z"
}