{
  "contractName": "BLS",
  "abi": [
    {
      "constant": false,
      "inputs": [
        {
          "name": "_sigs",
          "type": "uint256[]"
        },
        {
          "name": "_messages",
          "type": "bytes"
        }
      ],
      "name": "transactioncost",
      "outputs": [
        {
          "name": "",
          "type": "bool"
        }
      ],
      "payable": false,
      "stateMutability": "nonpayable",
      "type": "function"
    },
    {
      "constant": false,
      "inputs": [],
      "name": "storagecost",
      "outputs": [],
      "payable": false,
      "stateMutability": "nonpayable",
      "type": "function"
    },
    {
      "constant": false,
      "inputs": [],
      "name": "verificationcost",
      "outputs": [],
      "payable": false,
      "stateMutability": "nonpayable",
      "type": "function"
    },
    {
      "constant": false,
      "inputs": [
        {
          "name": "sig",
          "type": "uint256[]"
        },
        {
          "name": "vs",
          "type": "uint256[]"
        },
        {
          "name": "msg",
          "type": "bytes"
        }
      ],
      "name": "verifyBLS",
      "outputs": [
        {
          "name": "",
          "type": "bool"
        }
      ],
      "payable": false,
      "stateMutability": "nonpayable",
      "type": "function"
    },
    {
      "constant": false,
      "inputs": [],
      "name": "verifyBLSTest",
      "outputs": [
        {
          "name": "",
          "type": "bool"
        }
      ],
      "payable": false,
      "stateMutability": "nonpayable",
      "type": "function"
    }
  ],
  "bytecode": "0x60606040526101c060405190810160405280610194815260200162002bb6610194913960009080519060200190620000399291906200082e565b5060408051908101604052807f18b89d143e40a94525c9e9aaa01317d3a13878fd3f89fe4bfb49825366b837b681526020017f0e536811c346ede14c615d4a0da23cb39bdb13b98f54f8726f4cb1ce0aef3117815250600160008201518160000155602082015181600101555050604080519081016040528060408051908101604052807f28f3c1a3abbcecf79ce9055575c4fc64977ca155d970d0acfacdbd9e955d2cf981526020017f0ca87dc9b1b7f6d50e88661e5d26563d711cd303d1cfd4c41a9f570c59fe3bc6815250815260200160408051908101604052807f087026b1d11d41c57704d49dcc7f06ca45bd645410bcf176625dc1e3fd67090c81526020017f017f53b7486693313c0bcc3b6a2538cc1a56cd56579a7c051779acadb229040e81525081525060036000820151816000019060026200017f929190620008b5565b5060208201518160020190600262000199929190620008b5565b5050506101c060405190810160405280610194815260200162002d4a610194913960079080519060200190620001d19291906200082e565b506101c060405190810160405280610194815260200162002bb6610194913960089080519060200190620002079291906200082e565b506101c0604051908101604052806101948152602001620030726101949139600990805190602001906200023d9291906200082e565b506101c060405190810160405280610194815260200162002ede6101949139600a9080519060200190620002739291906200082e565b506101c06040519081016040528061019481526020016200288e6101949139600b9080519060200190620002a99291906200082e565b506101c06040519081016040528061019481526020016200339a6101949139600c9080519060200190620002df9291906200082e565b506101c0604051908101604052806101948152602001620025666101949139600d9080519060200190620003159291906200082e565b506101c060405190810160405280610194815260200162002a226101949139600e90805190602001906200034b9291906200082e565b506101c0604051908101604052806101948152602001620032066101949139600f9080519060200190620003819291906200082e565b506101c0604051908101604052806101948152602001620026fa610194913960109080519060200190620003b79291906200082e565b5060408051908101604052807f0b76699d71aa78a85d6d2a588c1791d2de9b3df75ce7568bc39f6980b7fe26cd81526020017f126b23c79c17a78ee8f846670f5249251515d4145b3b8d70798ac599fdae0fec81525060116000820151816000015560208201518160010155505060408051908101604052807f0af9e946d435e294b1a1c83e0d5086fbbe24b57af7e37fc4ef19c94bd7fa649881526020017f1a50df0a23bfaa9174793bd2739bf01c4696ba67e2813e972a02a727f0d6e23981525060136000820151816000015560208201518160010155505060408051908101604052807f14a3de660c2d2a144fa2eb8a869e545d24adff9a3bebd894e14929f6b5f9627c81526020017f167fcb01a97e7cf8a875dc225b701f13db9d105be46bca6dad250a143105075881525060156000820151816000015560208201518160010155505060408051908101604052807f1637f830e65eae298438e436e9dcff9e4c99744703da98684ba8245e1c9c4bf981526020017f1accdc0dde2250a3605b1245f54b40028437cb9301e2f1ebdb0d69243a0dfbf881525060176000820151816000015560208201518160010155505060408051908101604052807f2e339edd0760ffcb61b97e9a02f24187f9df3a8c9b72ff9210b0548620af92f281526020017f085c0e39097d05e1ba16825d6fee7e02f6350cbf3cf35ca3092f6dedfaa692a181525060196000820151816000015560208201518160010155505060408051908101604052807f18b84c4e225cc2126f4a70017a8877d05eaff80633e800b5b05ded03ab70103081526020017f0d075e7c28f797edb331449740f904d5fa2397d2b141a66bef980bc398aab69c815250601b6000820151816000015560208201518160010155505060408051908101604052807f2ea9116145b4efc72f11b53c6425b6fff88402957f2ee70c1c24730498f64d7481526020017f169384d65d33e2d62d07e601fe3f58cc71712be7bf3c38b44ddd6017da28cf64815250601d6000820151816000015560208201518160010155505060408051908101604052807f0a4f278e090f92fddde627f39df2198445175202fa975f9e7e16c50b9c51888481526020017f18c9fa0c82d8809c3bbb79376c0b7547de43111c9382c1210cb0fe38611caa4a815250601f6000820151816000015560208201518160010155505060408051908101604052807f2d7306ca5f2cbc880ce8e7da477c82e8ba5d2ad67322876fae7e0c1d463551f681526020017f1fa07916bd1251719c921ef568f32bac6f8499ed2099ff502845e475f55118c681525060216000820151816000015560208201518160010155505060408051908101604052807f1cd42a3edd5fd0b387d011ee2f107b2e24cd9f11c1a8152923de84e89766645981526020017f2c6231d44ee75047ae74d19b6757a81b9269efb5aad329c758d6c078c89f4f708152506023600082015181600001556020820151816001015550506000602560006101000a81548163ffffffff021916908363ffffffff16021790555034156200082857600080fd5b62000922565b828054600181600116156101000203166002900490600052602060002090601f016020900481019282601f106200087157805160ff1916838001178555620008a2565b82800160010185558215620008a2579182015b82811115620008a157825182559160200191906001019062000884565b5b509050620008b19190620008fa565b5090565b8260028101928215620008e7579160200282015b82811115620008e6578251825591602001919060010190620008c9565b5b509050620008f69190620008fa565b5090565b6200091f91905b808211156200091b57600081600090555060010162000901565b5090565b90565b611c3480620009326000396000f30060606040526004361061006d576000357c0100000000000000000000000000000000000000000000000000000000900463ffffffff16806309e0ab9a1461007257806312943d6b1461009b5780634d75c628146100b0578063ca647a5d146100e6578063eb695201146100fb575b600080fd5b341561007d57600080fd5b610085610131565b60405161009291906119a5565b60405180910390f35b34156100a657600080fd5b6100ae6102b7565b005b34156100bb57600080fd5b6100d060046100cb90369061192a565b6103b1565b6040516100dd91906119a5565b60405180910390f35b34156100f157600080fd5b6100f96103b8565b005b341561010657600080fd5b61011b6004610116903690611893565b610539565b60405161012891906119a5565b60405180910390f35b600061013b6115b6565b6101436115ca565b61014b6115e4565b6101536115ca565b6101c0604051908101604052806101948152602001611a676101949139935060408051908101604052807f18b89d143e40a94525c9e9aaa01317d3a13878fd3f89fe4bfb49825366b837b681526020017f0e536811c346ede14c615d4a0da23cb39bdb13b98f54f8726f4cb1ce0aef31178152509250604080519081016040528060408051908101604052807f28f3c1a3abbcecf79ce9055575c4fc64977ca155d970d0acfacdbd9e955d2cf981526020017f0ca87dc9b1b7f6d50e88661e5d26563d711cd303d1cfd4c41a9f570c59fe3bc6815250815260200160408051908101604052807f087026b1d11d41c57704d49dcc7f06ca45bd645410bcf176625dc1e3fd67090c81526020017f017f53b7486693313c0bcc3b6a2538cc1a56cd56579a7c051779acadb229040e815250815250915061029184610677565b90506102ae61029f84610703565b6102a761079e565b8385610868565b94505050505090565b600080600a9150600090505b818110156103ad576102d481610c08565b60276000602560009054906101000a900463ffffffff1663ffffffff1663ffffffff168152602001908152602001600020908051906020019061031892919061160b565b50610322816112c4565b60266000602560009054906101000a900463ffffffff1663ffffffff1663ffffffff16815260200190815260200160002060008201518160000155602082015181600101559050506001602560009054906101000a900463ffffffff1601602560006101000a81548163ffffffff021916908363ffffffff16021790555080806001019150506102c3565b5050565b6000806000fd5b600080600a9150600090505b818110156105355761052760016040805190810160405290816000820154815260200160018201548152505060008054600181600116156101000203166002900480601f0160208091040260200160405190810160405280929190818152602001828054600181600116156101000203166002900480156104865780601f1061045b57610100808354040283529160200191610486565b820191906000526020600020905b81548152906001019060200180831161046957829003601f168201915b50505050506003604080519081016040529081600082016002806020026040519081016040528092919082600280156104d4576020028201915b8154815260200190600101908083116104c0575b5050505050815260200160028201600280602002604051908101604052809291908260028015610519576020028201915b815481526020019060010190808311610505575b5050505050815250506114bc565b5080806001019150506103c4565b5050565b60006105436115b6565b61054b6115ca565b6105536115e4565b61055b6115ca565b859350604080519081016040528089600081518110151561057857fe5b90602001906020020151815260200189600181518110151561059657fe5b906020019060200201518152509250604080519081016040528060408051908101604052808a60008151811015156105ca57fe5b9060200190602002015181526020018a60018151811015156105e857fe5b90602001906020020151815250815260200160408051908101604052808a600281518110151561061457fe5b9060200190602002015181526020018a600381518110151561063257fe5b90602001906020020151815250815250915061064d84610677565b905061066a61065b84610703565b61066361079e565b8385610868565b9450505050509392505050565b61067f6115ca565b6000826040518082805190602001908083835b6020831015156106b75780518252602082019150602081019050602083039250610692565b6001836020036101000a03801982511681845116808217855250505050505090500191505060405180910390206001900490506106fb6106f56114f6565b8261151a565b915050919050565b61070b6115ca565b60007f30644e72e131a029b85045b68181585d97816a916871ca8d3c208c16d87cfd47905060008360000151148015610748575060008360200151145b1561076b5760408051908101604052806000815260200160008152509150610798565b60408051908101604052808460000151815260200182856020015181151561078f57fe5b06830381525091505b50919050565b6107a66115e4565b604080519081016040528060408051908101604052807f198e9393920d483a7260bfb731fb5d25f1aa493335a9e71297e485b7aef312c281526020017f1800deef121f1e76426a00665e5c4479674322d4f75edadd46debd5cd992f6ed815250815260200160408051908101604052807f090689d0585ff075ec9e99ad690c3395bc4b313370b38ef355acdadcd122975b81526020017f12c85ea5db8c6deb4aab71808dcb408fe3d1e7690c43d37b4ce6cc0166fa7daa815250815250905090565b600061087261168b565b61087a61169f565b6000806108856116b3565b600061088f6116c7565b600060026040518059106108a05750595b9080825280602002602001820160405280156108d657816020015b6108c36116ef565b8152602001906001900390816108bb5790505b50975060026040518059106108e85750595b90808252806020026020018201604052801561091e57816020015b61090b611709565b8152602001906001900390816109035790505b5096508c88600081518110151561093157fe5b906020019060200201819052508a88600181518110151561094e57fe5b906020019060200201819052508b87600081518110151561096b57fe5b906020019060200201819052508987600181518110151561098857fe5b90602001906020020181905250865188511415156109a557600080fd5b87519550600686029450846040518059106109bd5750595b90808252806020026020018201604052509350600092505b85831015610baa5787838151811015156109eb57fe5b90602001906020020151600001518460006006860201815181101515610a0d57fe5b90602001906020020181815250508783815181101515610a2957fe5b90602001906020020151602001518460016006860201815181101515610a4b57fe5b90602001906020020181815250508683815181101515610a6757fe5b90602001906020020151600001516000600281101515610a8357fe5b60200201518460026006860201815181101515610a9c57fe5b90602001906020020181815250508683815181101515610ab857fe5b90602001906020020151600001516001600281101515610ad457fe5b60200201518460036006860201815181101515610aed57fe5b90602001906020020181815250508683815181101515610b0957fe5b90602001906020020151602001516000600281101515610b2557fe5b60200201518460046006860201815181101515610b3e57fe5b90602001906020020181815250508683815181101515610b5a57fe5b90602001906020020151602001516001600281101515610b7657fe5b60200201518460056006860201815181101515610b8f57fe5b906020019060200201818152505082806001019350506109d5565b6020826020870260208701600060086107d05a03f190508060008114610bcf57610bd1565bfe5b50801515610bde57600080fd5b6000826000600181101515610bef57fe5b6020020151141598505050505050505050949350505050565b610c106115b6565b6000821415610cbb5760078054600181600116156101000203166002900480601f016020809104026020016040519081016040528092919081815260200182805460018160011615610100020316600290048015610caf5780601f10610c8457610100808354040283529160200191610caf565b820191906000526020600020905b815481529060010190602001808311610c9257829003601f168201915b505050505090506112bf565b6001821415610d665760088054600181600116156101000203166002900480601f016020809104026020016040519081016040528092919081815260200182805460018160011615610100020316600290048015610d5a5780601f10610d2f57610100808354040283529160200191610d5a565b820191906000526020600020905b815481529060010190602001808311610d3d57829003601f168201915b505050505090506112bf565b6002821415610e115760098054600181600116156101000203166002900480601f016020809104026020016040519081016040528092919081815260200182805460018160011615610100020316600290048015610e055780601f10610dda57610100808354040283529160200191610e05565b820191906000526020600020905b815481529060010190602001808311610de857829003601f168201915b505050505090506112bf565b6003821415610ebc57600a8054600181600116156101000203166002900480601f016020809104026020016040519081016040528092919081815260200182805460018160011615610100020316600290048015610eb05780601f10610e8557610100808354040283529160200191610eb0565b820191906000526020600020905b815481529060010190602001808311610e9357829003601f168201915b505050505090506112bf565b6004821415610f6757600b8054600181600116156101000203166002900480601f016020809104026020016040519081016040528092919081815260200182805460018160011615610100020316600290048015610f5b5780601f10610f3057610100808354040283529160200191610f5b565b820191906000526020600020905b815481529060010190602001808311610f3e57829003601f168201915b505050505090506112bf565b600582141561101257600c8054600181600116156101000203166002900480601f0160208091040260200160405190810160405280929190818152602001828054600181600116156101000203166002900480156110065780601f10610fdb57610100808354040283529160200191611006565b820191906000526020600020905b815481529060010190602001808311610fe957829003601f168201915b505050505090506112bf565b60068214156110bd57600d8054600181600116156101000203166002900480601f0160208091040260200160405190810160405280929190818152602001828054600181600116156101000203166002900480156110b15780601f10611086576101008083540402835291602001916110b1565b820191906000526020600020905b81548152906001019060200180831161109457829003601f168201915b505050505090506112bf565b600782141561116857600e8054600181600116156101000203166002900480601f01602080910402602001604051908101604052809291908181526020018280546001816001161561010002031660029004801561115c5780601f106111315761010080835404028352916020019161115c565b820191906000526020600020905b81548152906001019060200180831161113f57829003601f168201915b505050505090506112bf565b600882141561121357600f8054600181600116156101000203166002900480601f0160208091040260200160405190810160405280929190818152602001828054600181600116156101000203166002900480156112075780601f106111dc57610100808354040283529160200191611207565b820191906000526020600020905b8154815290600101906020018083116111ea57829003601f168201915b505050505090506112bf565b60098214156112be5760108054600181600116156101000203166002900480601f0160208091040260200160405190810160405280929190818152602001828054600181600116156101000203166002900480156112b25780601f10611287576101008083540402835291602001916112b2565b820191906000526020600020905b81548152906001019060200180831161129557829003601f168201915b505050505090506112bf565b5b919050565b6112cc6115ca565b60008214156112fd5760116040805190810160405290816000820154815260200160018201548152505090506114b7565b600182141561132e5760136040805190810160405290816000820154815260200160018201548152505090506114b7565b600282141561135f5760156040805190810160405290816000820154815260200160018201548152505090506114b7565b60038214156113905760176040805190810160405290816000820154815260200160018201548152505090506114b7565b60048214156113c15760196040805190810160405290816000820154815260200160018201548152505090506114b7565b60058214156113f257601b6040805190810160405290816000820154815260200160018201548152505090506114b7565b600682141561142357601d6040805190810160405290816000820154815260200160018201548152505090506114b7565b600782141561145457601f6040805190810160405290816000820154815260200160018201548152505090506114b7565b60088214156114855760216040805190810160405290816000820154815260200160018201548152505090506114b7565b60098214156114b65760236040805190810160405290816000820154815260200160018201548152505090506114b7565b5b919050565b60006114c66115ca565b6114cf84610677565b90506114ec6114dd86610703565b6114e561079e565b8386610868565b9150509392505050565b6114fe6115ca565b6040805190810160405280600181526020016002815250905090565b6115226115ca565b61152a611730565b6000846000015182600060038110151561154057fe5b602002018181525050846020015182600160038110151561155d57fe5b6020020181815250508382600260038110151561157657fe5b602002018181525050606083608084600060076107d05a03f19050806000811461159f576115a1565bfe5b508015156115ae57600080fd5b505092915050565b602060405190810160405280600081525090565b604080519081016040528060008152602001600081525090565b6080604051908101604052806115f8611758565b8152602001611605611758565b81525090565b828054600181600116156101000203166002900490600052602060002090601f016020900481019282601f1061164c57805160ff191683800117855561167a565b8280016001018555821561167a579182015b8281111561167957825182559160200191906001019061165e565b5b509050611687919061177f565b5090565b602060405190810160405280600081525090565b602060405190810160405280600081525090565b602060405190810160405280600081525090565b6020604051908101604052806001905b60008152602001906001900390816116d75790505090565b604080519081016040528060008152602001600081525090565b60806040519081016040528061171d611758565b815260200161172a611758565b81525090565b6060604051908101604052806003905b60008152602001906001900390816117405790505090565b60408051908101604052806002905b60008152602001906001900390816117675790505090565b6117a191905b8082111561179d576000816000905550600101611785565b5090565b90565b600082601f83011215156117b757600080fd5b81356117ca6117c5826119ed565b6119c0565b915081818352602084019350602081019050838560208402820111156117ef57600080fd5b60005b8381101561181f5781611805888261187f565b8452602084019350602083019250506001810190506117f2565b5050505092915050565b600082601f830112151561183c57600080fd5b813561184f61184a82611a15565b6119c0565b9150808252602083016020830185838301111561186b57600080fd5b611876838284611a57565b50505092915050565b600061188b8235611a4d565b905092915050565b6000806000606084860312156118a857600080fd5b600084013567ffffffffffffffff8111156118c257600080fd5b6118ce868287016117a4565b935050602084013567ffffffffffffffff8111156118eb57600080fd5b6118f7868287016117a4565b925050604084013567ffffffffffffffff81111561191457600080fd5b61192086828701611829565b9150509250925092565b6000806040838503121561193d57600080fd5b600083013567ffffffffffffffff81111561195757600080fd5b611963858286016117a4565b925050602083013567ffffffffffffffff81111561198057600080fd5b61198c85828601611829565b9150509250929050565b61199f81611a41565b82525050565b60006020820190506119ba6000830184611996565b92915050565b6000604051905081810181811067ffffffffffffffff821117156119e357600080fd5b8060405250919050565b600067ffffffffffffffff821115611a0457600080fd5b602082029050602081019050919050565b600067ffffffffffffffff821115611a2c57600080fd5b601f19601f8301169050602081019050919050565b60008115159050919050565b6000819050919050565b8281833760008383015250505056007b0a2020226f70656e223a207b0a20202020227072696365223a2039353931372c0a202020202274696d65223a207b0a20202020202022756e6978223a20313438333134323430302c0a2020202020202269736f223a2022323031362d31322d33315430303a30303a30302e3030305a220a202020207d0a20207d2c0a202022636c6f7365223a207b0a20202020227072696365223a2039363736302c0a202020202274696d65223a207b0a20202020202022756e6978223a20313438333232383830302c0a2020202020202269736f223a2022323031372d30312d30315430303a30303a30302e3030305a220a202020207d0a20207d2c0a2020226c6f6f6b7570223a207b0a20202020227072696365223a2039363736302c0a20202020226b223a20312c0a202020202274696d65223a207b0a20202020202022756e6978223a20313438333232383830302c0a2020202020202269736f223a2022323031372d30312d30315430303a30303a30302e3030305a220a202020207d0a20207d0a7d0a6578616d706c652e636f6d2f6170692f31a265627a7a723058202ee899118271c2d9719163bbbb6769baa3fb1c911b1d6538bb4418ddf981b6ef6c6578706572696d656e74616cf500377b0a2020226f70656e223a207b0a20202020227072696365223a2039353931372c0a202020202274696d65223a207b0a20202020202022756e6978223a20313438333134323430302c0a2020202020202269736f223a2022323031362d31322d33315430303a30303a30302e3030305a220a202020207d0a20207d2c0a202022636c6f7365223a207b0a20202020227072696365223a2039363736302c0a202020202274696d65223a207b0a20202020202022756e6978223a20313438333232383830302c0a2020202020202269736f223a2022323031372d30312d30315430303a30303a30302e3030305a220a202020207d0a20207d2c0a2020226c6f6f6b7570223a207b0a20202020227072696365223a2039363736302c0a20202020226b223a20312c0a202020202274696d65223a207b0a20202020202022756e6978223a20313438333232383830302c0a2020202020202269736f223a2022323031372d30312d30315430303a30303a30302e3030305a220a202020207d0a20207d0a7d0a6578616d706c652e636f6d2f6170692f367b0a2020226f70656e223a207b0a20202020227072696365223a2039353931372c0a202020202274696d65223a207b0a20202020202022756e6978223a20313438333134323430302c0a2020202020202269736f223a2022323031362d31322d33315430303a30303a30302e3030305a220a202020207d0a20207d2c0a202022636c6f7365223a207b0a20202020227072696365223a2039363736302c0a202020202274696d65223a207b0a20202020202022756e6978223a20313438333232383830302c0a2020202020202269736f223a2022323031372d30312d30315430303a30303a30302e3030305a220a202020207d0a20207d2c0a2020226c6f6f6b7570223a207b0a20202020227072696365223a2039363736302c0a20202020226b223a20312c0a202020202274696d65223a207b0a20202020202022756e6978223a20313438333232383830302c0a2020202020202269736f223a2022323031372d30312d30315430303a30303a30302e3030305a220a202020207d0a20207d0a7d0a6578616d706c652e636f6d2f6170692f397b0a2020226f70656e223a207b0a20202020227072696365223a2039353931372c0a202020202274696d65223a207b0a20202020202022756e6978223a20313438333134323430302c0a2020202020202269736f223a2022323031362d31322d33315430303a30303a30302e3030305a220a202020207d0a20207d2c0a202022636c6f7365223a207b0a20202020227072696365223a2039363736302c0a202020202274696d65223a207b0a20202020202022756e6978223a20313438333232383830302c0a2020202020202269736f223a2022323031372d30312d30315430303a30303a30302e3030305a220a202020207d0a20207d2c0a2020226c6f6f6b7570223a207b0a20202020227072696365223a2039363736302c0a20202020226b223a20312c0a202020202274696d65223a207b0a20202020202022756e6978223a20313438333232383830302c0a2020202020202269736f223a2022323031372d30312d30315430303a30303a30302e3030305a220a202020207d0a20207d0a7d0a6578616d706c652e636f6d2f6170692f347b0a2020226f70656e223a207b0a20202020227072696365223a2039353931372c0a202020202274696d65223a207b0a20202020202022756e6978223a20313438333134323430302c0a2020202020202269736f223a2022323031362d31322d33315430303a30303a30302e3030305a220a202020207d0a20207d2c0a202022636c6f7365223a207b0a20202020227072696365223a2039363736302c0a202020202274696d65223a207b0a20202020202022756e6978223a20313438333232383830302c0a2020202020202269736f223a2022323031372d30312d30315430303a30303a30302e3030305a220a202020207d0a20207d2c0a2020226c6f6f6b7570223a207b0a20202020227072696365223a2039363736302c0a20202020226b223a20312c0a202020202274696d65223a207b0a20202020202022756e6978223a20313438333232383830302c0a2020202020202269736f223a2022323031372d30312d30315430303a30303a30302e3030305a220a202020207d0a20207d0a7d0a6578616d706c652e636f6d2f6170692f377b0a2020226f70656e223a207b0a20202020227072696365223a2039353931372c0a202020202274696d65223a207b0a20202020202022756e6978223a20313438333134323430302c0a2020202020202269736f223a2022323031362d31322d33315430303a30303a30302e3030305a220a202020207d0a20207d2c0a202022636c6f7365223a207b0a20202020227072696365223a2039363736302c0a202020202274696d65223a207b0a20202020202022756e6978223a20313438333232383830302c0a2020202020202269736f223a2022323031372d30312d30315430303a30303a30302e3030305a220a202020207d0a20207d2c0a2020226c6f6f6b7570223a207b0a20202020227072696365223a2039363736302c0a20202020226b223a20312c0a202020202274696d65223a207b0a20202020202022756e6978223a20313438333232383830302c0a2020202020202269736f223a2022323031372d30312d30315430303a30303a30302e3030305a220a202020207d0a20207d0a7d0a6578616d706c652e636f6d2f6170692f317b0a2020226f70656e223a207b0a20202020227072696365223a2039353931372c0a202020202274696d65223a207b0a20202020202022756e6978223a20313438333134323430302c0a2020202020202269736f223a2022323031362d31322d33315430303a30303a30302e3030305a220a202020207d0a20207d2c0a202022636c6f7365223a207b0a20202020227072696365223a2039363736302c0a202020202274696d65223a207b0a20202020202022756e6978223a20313438333232383830302c0a2020202020202269736f223a2022323031372d30312d30315430303a30303a30302e3030305a220a202020207d0a20207d2c0a2020226c6f6f6b7570223a207b0a20202020227072696365223a2039363736302c0a20202020226b223a20312c0a202020202274696d65223a207b0a20202020202022756e6978223a20313438333232383830302c0a2020202020202269736f223a2022323031372d30312d30315430303a30303a30302e3030305a220a202020207d0a20207d0a7d0a6578616d706c652e636f6d2f6170692f307b0a2020226f70656e223a207b0a20202020227072696365223a2039353931372c0a202020202274696d65223a207b0a20202020202022756e6978223a20313438333134323430302c0a2020202020202269736f223a2022323031362d31322d33315430303a30303a30302e3030305a220a202020207d0a20207d2c0a202022636c6f7365223a207b0a20202020227072696365223a2039363736302c0a202020202274696d65223a207b0a20202020202022756e6978223a20313438333232383830302c0a2020202020202269736f223a2022323031372d30312d30315430303a30303a30302e3030305a220a202020207d0a20207d2c0a2020226c6f6f6b7570223a207b0a20202020227072696365223a2039363736302c0a20202020226b223a20312c0a202020202274696d65223a207b0a20202020202022756e6978223a20313438333232383830302c0a2020202020202269736f223a2022323031372d30312d30315430303a30303a30302e3030305a220a202020207d0a20207d0a7d0a6578616d706c652e636f6d2f6170692f337b0a2020226f70656e223a207b0a20202020227072696365223a2039353931372c0a202020202274696d65223a207b0a20202020202022756e6978223a20313438333134323430302c0a2020202020202269736f223a2022323031362d31322d33315430303a30303a30302e3030305a220a202020207d0a20207d2c0a202022636c6f7365223a207b0a20202020227072696365223a2039363736302c0a202020202274696d65223a207b0a20202020202022756e6978223a20313438333232383830302c0a2020202020202269736f223a2022323031372d30312d30315430303a30303a30302e3030305a220a202020207d0a20207d2c0a2020226c6f6f6b7570223a207b0a20202020227072696365223a2039363736302c0a20202020226b223a20312c0a202020202274696d65223a207b0a20202020202022756e6978223a20313438333232383830302c0a2020202020202269736f223a2022323031372d30312d30315430303a30303a30302e3030305a220a202020207d0a20207d0a7d0a6578616d706c652e636f6d2f6170692f327b0a2020226f70656e223a207b0a20202020227072696365223a2039353931372c0a202020202274696d65223a207b0a20202020202022756e6978223a20313438333134323430302c0a2020202020202269736f223a2022323031362d31322d33315430303a30303a30302e3030305a220a202020207d0a20207d2c0a202022636c6f7365223a207b0a20202020227072696365223a2039363736302c0a202020202274696d65223a207b0a20202020202022756e6978223a20313438333232383830302c0a2020202020202269736f223a2022323031372d30312d30315430303a30303a30302e3030305a220a202020207d0a20207d2c0a2020226c6f6f6b7570223a207b0a20202020227072696365223a2039363736302c0a20202020226b223a20312c0a202020202274696d65223a207b0a20202020202022756e6978223a20313438333232383830302c0a2020202020202269736f223a2022323031372d30312d30315430303a30303a30302e3030305a220a202020207d0a20207d0a7d0a6578616d706c652e636f6d2f6170692f387b0a2020226f70656e223a207b0a20202020227072696365223a2039353931372c0a202020202274696d65223a207b0a20202020202022756e6978223a20313438333134323430302c0a2020202020202269736f223a2022323031362d31322d33315430303a30303a30302e3030305a220a202020207d0a20207d2c0a202022636c6f7365223a207b0a20202020227072696365223a2039363736302c0a202020202274696d65223a207b0a20202020202022756e6978223a20313438333232383830302c0a2020202020202269736f223a2022323031372d30312d30315430303a30303a30302e3030305a220a202020207d0a20207d2c0a2020226c6f6f6b7570223a207b0a20202020227072696365223a2039363736302c0a20202020226b223a20312c0a202020202274696d65223a207b0a20202020202022756e6978223a20313438333232383830302c0a2020202020202269736f223a2022323031372d30312d30315430303a30303a30302e3030305a220a202020207d0a20207d0a7d0a6578616d706c652e636f6d2f6170692f35",
  "source": "pragma solidity ^0.4.14;\npragma experimental ABIEncoderV2;\n\n\n//https://github.com/jstoxrocky/zksnarks_example\ncontract BLS {\n\n    //Representative example to measure verification costs\n    bytes message_ex = hex\"7b0a2020226f70656e223a207b0a20202020227072696365223a2039353931372c0a202020202274696d65223a207b0a20202020202022756e6978223a20313438333134323430302c0a2020202020202269736f223a2022323031362d31322d33315430303a30303a30302e3030305a220a202020207d0a20207d2c0a202022636c6f7365223a207b0a20202020227072696365223a2039363736302c0a202020202274696d65223a207b0a20202020202022756e6978223a20313438333232383830302c0a2020202020202269736f223a2022323031372d30312d30315430303a30303a30302e3030305a220a202020207d0a20207d2c0a2020226c6f6f6b7570223a207b0a20202020227072696365223a2039363736302c0a20202020226b223a20312c0a202020202274696d65223a207b0a20202020202022756e6978223a20313438333232383830302c0a2020202020202269736f223a2022323031372d30312d30315430303a30303a30302e3030305a220a202020207d0a20207d0a7d0a6578616d706c652e636f6d2f6170692f31\";\n    G1Point signature_ex = G1Point(11181692345848957662074290878138344227085597134981019040735323471731897153462, 6479746447046570360435714249272776082787932146211764251347798668447381926167);\n    G2Point v_ex = G2Point(\n        [18523194229674161632574346342370534213928970227736813349975332190798837787897, 5725452645840548248571879966249653216818629536104756116202892528545334967238],\n        [3816656720215352836236372430537606984911914992659540439626020770732736710924, 677280212051826798882467475639465784259337739185938192379192340908771705870]\n    );\n\n    bytes message0 = hex\"7b0a2020226f70656e223a207b0a20202020227072696365223a2039353931372c0a202020202274696d65223a207b0a20202020202022756e6978223a20313438333134323430302c0a2020202020202269736f223a2022323031362d31322d33315430303a30303a30302e3030305a220a202020207d0a20207d2c0a202022636c6f7365223a207b0a20202020227072696365223a2039363736302c0a202020202274696d65223a207b0a20202020202022756e6978223a20313438333232383830302c0a2020202020202269736f223a2022323031372d30312d30315430303a30303a30302e3030305a220a202020207d0a20207d2c0a2020226c6f6f6b7570223a207b0a20202020227072696365223a2039363736302c0a20202020226b223a20312c0a202020202274696d65223a207b0a20202020202022756e6978223a20313438333232383830302c0a2020202020202269736f223a2022323031372d30312d30315430303a30303a30302e3030305a220a202020207d0a20207d0a7d0a6578616d706c652e636f6d2f6170692f30\";\n    bytes message1 = hex\"7b0a2020226f70656e223a207b0a20202020227072696365223a2039353931372c0a202020202274696d65223a207b0a20202020202022756e6978223a20313438333134323430302c0a2020202020202269736f223a2022323031362d31322d33315430303a30303a30302e3030305a220a202020207d0a20207d2c0a202022636c6f7365223a207b0a20202020227072696365223a2039363736302c0a202020202274696d65223a207b0a20202020202022756e6978223a20313438333232383830302c0a2020202020202269736f223a2022323031372d30312d30315430303a30303a30302e3030305a220a202020207d0a20207d2c0a2020226c6f6f6b7570223a207b0a20202020227072696365223a2039363736302c0a20202020226b223a20312c0a202020202274696d65223a207b0a20202020202022756e6978223a20313438333232383830302c0a2020202020202269736f223a2022323031372d30312d30315430303a30303a30302e3030305a220a202020207d0a20207d0a7d0a6578616d706c652e636f6d2f6170692f31\";\n    bytes message2 = hex\"7b0a2020226f70656e223a207b0a20202020227072696365223a2039353931372c0a202020202274696d65223a207b0a20202020202022756e6978223a20313438333134323430302c0a2020202020202269736f223a2022323031362d31322d33315430303a30303a30302e3030305a220a202020207d0a20207d2c0a202022636c6f7365223a207b0a20202020227072696365223a2039363736302c0a202020202274696d65223a207b0a20202020202022756e6978223a20313438333232383830302c0a2020202020202269736f223a2022323031372d30312d30315430303a30303a30302e3030305a220a202020207d0a20207d2c0a2020226c6f6f6b7570223a207b0a20202020227072696365223a2039363736302c0a20202020226b223a20312c0a202020202274696d65223a207b0a20202020202022756e6978223a20313438333232383830302c0a2020202020202269736f223a2022323031372d30312d30315430303a30303a30302e3030305a220a202020207d0a20207d0a7d0a6578616d706c652e636f6d2f6170692f32\";\n    bytes message3 = hex\"7b0a2020226f70656e223a207b0a20202020227072696365223a2039353931372c0a202020202274696d65223a207b0a20202020202022756e6978223a20313438333134323430302c0a2020202020202269736f223a2022323031362d31322d33315430303a30303a30302e3030305a220a202020207d0a20207d2c0a202022636c6f7365223a207b0a20202020227072696365223a2039363736302c0a202020202274696d65223a207b0a20202020202022756e6978223a20313438333232383830302c0a2020202020202269736f223a2022323031372d30312d30315430303a30303a30302e3030305a220a202020207d0a20207d2c0a2020226c6f6f6b7570223a207b0a20202020227072696365223a2039363736302c0a20202020226b223a20312c0a202020202274696d65223a207b0a20202020202022756e6978223a20313438333232383830302c0a2020202020202269736f223a2022323031372d30312d30315430303a30303a30302e3030305a220a202020207d0a20207d0a7d0a6578616d706c652e636f6d2f6170692f33\";\n    bytes message4 = hex\"7b0a2020226f70656e223a207b0a20202020227072696365223a2039353931372c0a202020202274696d65223a207b0a20202020202022756e6978223a20313438333134323430302c0a2020202020202269736f223a2022323031362d31322d33315430303a30303a30302e3030305a220a202020207d0a20207d2c0a202022636c6f7365223a207b0a20202020227072696365223a2039363736302c0a202020202274696d65223a207b0a20202020202022756e6978223a20313438333232383830302c0a2020202020202269736f223a2022323031372d30312d30315430303a30303a30302e3030305a220a202020207d0a20207d2c0a2020226c6f6f6b7570223a207b0a20202020227072696365223a2039363736302c0a20202020226b223a20312c0a202020202274696d65223a207b0a20202020202022756e6978223a20313438333232383830302c0a2020202020202269736f223a2022323031372d30312d30315430303a30303a30302e3030305a220a202020207d0a20207d0a7d0a6578616d706c652e636f6d2f6170692f34\";\n    bytes message5 = hex\"7b0a2020226f70656e223a207b0a20202020227072696365223a2039353931372c0a202020202274696d65223a207b0a20202020202022756e6978223a20313438333134323430302c0a2020202020202269736f223a2022323031362d31322d33315430303a30303a30302e3030305a220a202020207d0a20207d2c0a202022636c6f7365223a207b0a20202020227072696365223a2039363736302c0a202020202274696d65223a207b0a20202020202022756e6978223a20313438333232383830302c0a2020202020202269736f223a2022323031372d30312d30315430303a30303a30302e3030305a220a202020207d0a20207d2c0a2020226c6f6f6b7570223a207b0a20202020227072696365223a2039363736302c0a20202020226b223a20312c0a202020202274696d65223a207b0a20202020202022756e6978223a20313438333232383830302c0a2020202020202269736f223a2022323031372d30312d30315430303a30303a30302e3030305a220a202020207d0a20207d0a7d0a6578616d706c652e636f6d2f6170692f35\";\n    bytes message6 = hex\"7b0a2020226f70656e223a207b0a20202020227072696365223a2039353931372c0a202020202274696d65223a207b0a20202020202022756e6978223a20313438333134323430302c0a2020202020202269736f223a2022323031362d31322d33315430303a30303a30302e3030305a220a202020207d0a20207d2c0a202022636c6f7365223a207b0a20202020227072696365223a2039363736302c0a202020202274696d65223a207b0a20202020202022756e6978223a20313438333232383830302c0a2020202020202269736f223a2022323031372d30312d30315430303a30303a30302e3030305a220a202020207d0a20207d2c0a2020226c6f6f6b7570223a207b0a20202020227072696365223a2039363736302c0a20202020226b223a20312c0a202020202274696d65223a207b0a20202020202022756e6978223a20313438333232383830302c0a2020202020202269736f223a2022323031372d30312d30315430303a30303a30302e3030305a220a202020207d0a20207d0a7d0a6578616d706c652e636f6d2f6170692f36\";\n    bytes message7 = hex\"7b0a2020226f70656e223a207b0a20202020227072696365223a2039353931372c0a202020202274696d65223a207b0a20202020202022756e6978223a20313438333134323430302c0a2020202020202269736f223a2022323031362d31322d33315430303a30303a30302e3030305a220a202020207d0a20207d2c0a202022636c6f7365223a207b0a20202020227072696365223a2039363736302c0a202020202274696d65223a207b0a20202020202022756e6978223a20313438333232383830302c0a2020202020202269736f223a2022323031372d30312d30315430303a30303a30302e3030305a220a202020207d0a20207d2c0a2020226c6f6f6b7570223a207b0a20202020227072696365223a2039363736302c0a20202020226b223a20312c0a202020202274696d65223a207b0a20202020202022756e6978223a20313438333232383830302c0a2020202020202269736f223a2022323031372d30312d30315430303a30303a30302e3030305a220a202020207d0a20207d0a7d0a6578616d706c652e636f6d2f6170692f37\";\n    bytes message8 = hex\"7b0a2020226f70656e223a207b0a20202020227072696365223a2039353931372c0a202020202274696d65223a207b0a20202020202022756e6978223a20313438333134323430302c0a2020202020202269736f223a2022323031362d31322d33315430303a30303a30302e3030305a220a202020207d0a20207d2c0a202022636c6f7365223a207b0a20202020227072696365223a2039363736302c0a202020202274696d65223a207b0a20202020202022756e6978223a20313438333232383830302c0a2020202020202269736f223a2022323031372d30312d30315430303a30303a30302e3030305a220a202020207d0a20207d2c0a2020226c6f6f6b7570223a207b0a20202020227072696365223a2039363736302c0a20202020226b223a20312c0a202020202274696d65223a207b0a20202020202022756e6978223a20313438333232383830302c0a2020202020202269736f223a2022323031372d30312d30315430303a30303a30302e3030305a220a202020207d0a20207d0a7d0a6578616d706c652e636f6d2f6170692f38\";\n    bytes message9 = hex\"7b0a2020226f70656e223a207b0a20202020227072696365223a2039353931372c0a202020202274696d65223a207b0a20202020202022756e6978223a20313438333134323430302c0a2020202020202269736f223a2022323031362d31322d33315430303a30303a30302e3030305a220a202020207d0a20207d2c0a202022636c6f7365223a207b0a20202020227072696365223a2039363736302c0a202020202274696d65223a207b0a20202020202022756e6978223a20313438333232383830302c0a2020202020202269736f223a2022323031372d30312d30315430303a30303a30302e3030305a220a202020207d0a20207d2c0a2020226c6f6f6b7570223a207b0a20202020227072696365223a2039363736302c0a20202020226b223a20312c0a202020202274696d65223a207b0a20202020202022756e6978223a20313438333232383830302c0a2020202020202269736f223a2022323031372d30312d30315430303a30303a30302e3030305a220a202020207d0a20207d0a7d0a6578616d706c652e636f6d2f6170692f39\";\n    G1Point signature0 = G1Point(5184658216108236166487848590876511837733486685529854097237373095672855537357, 8330930853020054953908886276405410407605755848046343130652944150060164059116);\n    G1Point signature1 = G1Point(4964683421405923354189952561127131299600678657175782192782812654459615339672, 11903021191146774954818876248058294968399466569679779846266461117746825847353);\n    G1Point signature2 = G1Point(9335787982110079012899752669336264719999639595771323406104569023183351014012, 10176673345376872012380837139327929658295429681445767283777625906774299445080);\n    G1Point signature3 = G1Point(10049772208826892074078360049754757547383458472865127955279550289645720587257, 12122089622448762217663659173606664038196539482239647295165165052693230517240);\n    G1Point signature4 = G1Point(20897596669982047012256216358436682714326423527671525130369975433938653385458, 3781150880790799654822025846563667085269458113748431789740014171763402773153);\n    G1Point signature5 = G1Point(11181134865134588541447446956736695081803467720433999740984747105416723304496, 5893087072540242491704103065445282485279471840155944935944912730441101522588);\n    G1Point signature6 = G1Point(21105108140921504108768791246247952056709049914278198591148085663886850018676, 10211525997116033986002324660156156491953065524860727343769001798578345660260);\n    G1Point signature7 = G1Point(4662982401324325286758001774585824577368567647331459015103880114724655958148, 11212370399904568049730506319952152449400183976378849307210770959770456992330);\n    G1Point signature8 = G1Point(20557312465106880399511799333507484461854746082438075734535340786441577124342, 14305229560784146638837170918963079144014433376829690716613557252611680311494);\n    G1Point signature9 = G1Point(13039622906241167481375528011380905714713410136392551797917354560189440091225, 20075260259401204569614827720682174091453991454301770386233592927370082209648);\n\n    struct G1Point {\n        uint X;\n        uint Y;\n    }\n    // Encoding of field elements is: X[0] * z + X[1]\n    struct G2Point {\n        uint[2] X;\n        uint[2] Y;\n    }\n\n    /// @return the generator of G1\n    function P1() internal returns (G1Point) {\n        return G1Point(1, 2);\n    }\n\n    /// @return the generator of G2\n    function P2() internal returns (G2Point) {\n        return G2Point(\n            [11559732032986387107991004021392285783925812861821192530917403151452391805634,\n            10857046999023057135944570762232829481370756359578518086990519993285655852781],\n\n            [4082367875863433681332203403145435568316851327593401208105741076214120093531,\n            8495653923123431417604973247489272438418190587263600148770280649306958101930]\n        );\n    }\n\n    /**\n    This method is used to measure only the transaction costs\n    */\n    function transactioncost(uint[] _sigs, bytes _messages) returns (bool) {\n       revert();\n    }\n\n    /**\n    This method is used to measure only the storage costs\n    */\n    uint32 counter = 0;\n    mapping(uint32 => G1Point) sig_storage;\n    mapping(uint32 => bytes) msg_storage;\n    function storagecost() {\n\n        uint n = 10; //NOTE: change this parameter to set the number of messages signatures that will be stored\n\n        for (uint i = 0; i < n; i++) {\n            msg_storage[counter] = getMessage(i);\n            sig_storage[counter] = getSignature(i);\n\n            counter = counter + 1;\n        }\n    }\n\n    /**\n    This method is used to measure only the verification costs\n    */\n    function verificationcost() {\n        uint n = 10; //NOTE: change this parameter to set the amount of signatures that will be verified\n\n        for (uint i = 0; i < n; i++) {\n            verifyInternal(signature_ex, message_ex, v_ex);\n        }\n    }\n\n    /*\n    Verification with structs\n    */\n    function verifyInternal(G1Point signature, bytes message, G2Point key) internal returns (bool) {\n        G1Point memory h = hashToG1(message);\n        return pairing2(negate(signature), P2(), h, key);\n    }\n\n    /*\n    Verification with external keys\n    */\n    function verifyBLS(uint[] memory sig, uint[] vs, bytes msg) returns (bool) {\n        bytes memory message = msg;\n\n        G1Point memory signature = G1Point(sig[0], sig[1]);\n\n        G2Point memory v = G2Point([vs[0], vs[1]], [vs[2], vs[3]]);\n\n        G1Point memory h = hashToG1(message);\n\n        return pairing2(negate(signature), P2(), h, v);\n    }\n\n    function verifyBLSTest() returns (bool) {\n\n        bytes memory message = hex\"7b0a2020226f70656e223a207b0a20202020227072696365223a2039353931372c0a202020202274696d65223a207b0a20202020202022756e6978223a20313438333134323430302c0a2020202020202269736f223a2022323031362d31322d33315430303a30303a30302e3030305a220a202020207d0a20207d2c0a202022636c6f7365223a207b0a20202020227072696365223a2039363736302c0a202020202274696d65223a207b0a20202020202022756e6978223a20313438333232383830302c0a2020202020202269736f223a2022323031372d30312d30315430303a30303a30302e3030305a220a202020207d0a20207d2c0a2020226c6f6f6b7570223a207b0a20202020227072696365223a2039363736302c0a20202020226b223a20312c0a202020202274696d65223a207b0a20202020202022756e6978223a20313438333232383830302c0a2020202020202269736f223a2022323031372d30312d30315430303a30303a30302e3030305a220a202020207d0a20207d0a7d0a6578616d706c652e636f6d2f6170692f31\";\n\n        G1Point memory signature = G1Point(11181692345848957662074290878138344227085597134981019040735323471731897153462, 6479746447046570360435714249272776082787932146211764251347798668447381926167);\n\n        G2Point memory v = G2Point(\n            [18523194229674161632574346342370534213928970227736813349975332190798837787897, 5725452645840548248571879966249653216818629536104756116202892528545334967238],\n            [3816656720215352836236372430537606984911914992659540439626020770732736710924, 677280212051826798882467475639465784259337739185938192379192340908771705870]\n        );\n\n        G1Point memory h = hashToG1(message);\n\n        return pairing2(negate(signature), P2(), h, v);\n    }\n\n    /// @return the result of computing the pairing check\n    function pairing2(G1Point a1, G2Point a2, G1Point b1, G2Point b2) internal returns (bool) {\n        G1Point[] memory p1 = new G1Point[](2);\n        G2Point[] memory p2 = new G2Point[](2);\n        p1[0] = a1;\n        p1[1] = b1;\n        p2[0] = a2;\n        p2[1] = b2;\n\n        require(p1.length == p2.length);\n        uint elements = p1.length;\n        uint inputSize = elements * 6;\n        uint[] memory input = new uint[](inputSize);\n\n        for (uint i = 0; i < elements; i++)\n        {\n            input[i * 6 + 0] = p1[i].X;\n            input[i * 6 + 1] = p1[i].Y;\n            input[i * 6 + 2] = p2[i].X[0];\n            input[i * 6 + 3] = p2[i].X[1];\n            input[i * 6 + 4] = p2[i].Y[0];\n            input[i * 6 + 5] = p2[i].Y[1];\n        }\n\n        uint[1] memory out;\n        bool success;\n\n        assembly {\n            success := call(sub(gas, 2000), 8, 0, add(input, 0x20), mul(inputSize, 0x20), out, 0x20)\n        // Use \"invalid\" to make gas estimation work\n            switch success case 0 {invalid}\n        }\n        require(success);\n        return out[0] != 0;\n    }\n\n    function hashToG1(bytes message) internal returns (G1Point) {\n        uint256 h = uint256(keccak256(message));\n        return mul(P1(), h);\n    }\n\n    function modPow(uint256 base, uint256 exponent, uint256 modulus) internal returns (uint256) {\n        uint256[6] memory input = [32, 32, 32, base, exponent, modulus];\n        uint256[1] memory result;\n        assembly {\n            if iszero(call(not(0), 0x05, 0, input, 0xc0, result, 0x20)) {\n                revert(0, 0)\n            }\n        }\n        return result[0];\n    }\n\n    /// @return the negation of p, i.e. p.add(p.negate()) should be zero.\n    function negate(G1Point p) internal returns (G1Point) {\n        // The prime q in the base field F_q for G1\n        uint q = 21888242871839275222246405745257275088696311157297823662689037894645226208583;\n        if (p.X == 0 && p.Y == 0)\n            return G1Point(0, 0);\n        return G1Point(p.X, q - (p.Y % q));\n    }\n\n    /// @return the sum of two points of G1\n    function add(G1Point p1, G1Point p2) internal returns (G1Point r) {\n        uint[4] memory input;\n        input[0] = p1.X;\n        input[1] = p1.Y;\n        input[2] = p2.X;\n        input[3] = p2.Y;\n        bool success;\n        assembly {\n            success := call(sub(gas, 2000), 6, 0, input, 0xc0, r, 0x60)\n        // Use \"invalid\" to make gas estimation work\n            switch success case 0 {invalid}\n        }\n        require(success);\n    }\n    /// @return the product of a point on G1 and a scalar, i.e.\n    /// p == p.mul(1) and p.add(p) == p.mul(2) for all points p.\n    function mul(G1Point p, uint s) internal returns (G1Point r) {\n        uint[3] memory input;\n        input[0] = p.X;\n        input[1] = p.Y;\n        input[2] = s;\n        bool success;\n        assembly {\n            success := call(sub(gas, 2000), 7, 0, input, 0x80, r, 0x60)\n        // Use \"invalid\" to make gas estimation work\n            switch success case 0 {invalid}\n        }\n        require(success);\n    }\n\n    function getSignature(uint i) view internal returns (G1Point) {\n        if (i == 0) {\n            return signature0;\n        } else if (i == 1) {\n            return signature1;\n        } else if (i == 2) {\n            return signature2;\n        } else if (i == 3) {\n            return signature3;\n        } else if (i == 4) {\n            return signature4;\n        } else if (i == 5) {\n            return signature5;\n        } else if (i == 6) {\n            return signature6;\n        } else if (i == 7) {\n            return signature7;\n        } else if (i == 8) {\n            return signature8;\n        } else if (i == 9) {\n            return signature9;\n        }\n    }\n\n    function getMessage(uint i) internal returns (bytes) {\n        if (i == 0) {\n            return message0;\n        } else if (i == 1) {\n            return message1;\n        } else if (i == 2) {\n            return message2;\n        } else if (i == 3) {\n            return message3;\n        } else if (i == 4) {\n            return message4;\n        } else if (i == 5) {\n            return message5;\n        } else if (i == 6) {\n            return message6;\n        } else if (i == 7) {\n            return message7;\n        } else if (i == 8) {\n            return message8;\n        } else if (i == 9) {\n            return message9;\n        }\n    }\n\n}\n",
  "sourcePath": "/home/bjorn/Projects/BGRVerify/contracts/BLS.sol",
  "compiler": {
    "name": "solc",
    "version": "0.4.21+commit.dfe3193c.Emscripten.clang"
  },
  "schemaVersion": "2.0.1",
  "updatedAt": "2018-08-15T21:43:10.352Z"
}