{
  "contractName": "BLS",
  "abi": [
    {
      "constant": false,
      "inputs": [
        {
          "name": "_sig",
          "type": "uint256[]"
        },
        {
          "name": "_messages",
          "type": "bytes"
        }
      ],
      "name": "doNothing",
      "outputs": [
        {
          "name": "",
          "type": "bool"
        }
      ],
      "payable": false,
      "stateMutability": "nonpayable",
      "type": "function"
    },
    {
      "constant": false,
      "inputs": [],
      "name": "store",
      "outputs": [],
      "payable": false,
      "stateMutability": "nonpayable",
      "type": "function"
    },
    {
      "constant": false,
      "inputs": [],
      "name": "sendNothing",
      "outputs": [],
      "payable": false,
      "stateMutability": "nonpayable",
      "type": "function"
    },
    {
      "constant": false,
      "inputs": [
        {
          "name": "sig",
          "type": "uint256[]"
        },
        {
          "name": "msg",
          "type": "bytes"
        }
      ],
      "name": "verify",
      "outputs": [
        {
          "name": "",
          "type": "bool"
        }
      ],
      "payable": false,
      "stateMutability": "nonpayable",
      "type": "function"
    },
    {
      "constant": false,
      "inputs": [],
      "name": "verifyBLSTest",
      "outputs": [
        {
          "name": "",
          "type": "bool"
        }
      ],
      "payable": false,
      "stateMutability": "nonpayable",
      "type": "function"
    }
  ],
  "bytecode": "0x606060405260008060006101000a81548163ffffffff021916908363ffffffff160217905550341561003057600080fd5b610f0e8061003f6000396000f30060606040526004361061006d576000357c0100000000000000000000000000000000000000000000000000000000900463ffffffff16806309e0ab9a146100725780633f16ddcb1461009f578063975057e714610154578063bd205a9014610169578063ffeaa5961461021e575b600080fd5b341561007d57600080fd5b610085610233565b604051808215151515815260200191505060405180910390f35b34156100aa57600080fd5b61013a60048080359060200190820180359060200190808060200260200160405190810160405280939291908181526020018383602002808284378201915050505050509190803590602001908201803590602001908080601f016020809104026020016040519081016040528093929190818152602001838380828437820191505050505050919050506103b9565b604051808215151515815260200191505060405180910390f35b341561015f57600080fd5b6101676103c5565b005b341561017457600080fd5b61020460048080359060200190820180359060200190808060200260200160405190810160405280939291908181526020018383602002808284378201915050505050509190803590602001908201803590602001908080601f0160208091040260200160405190810160405280939291908181526020018383808284378201915050505050509190505061041e565b604051808215151515815260200191505060405180910390f35b341561022957600080fd5b61023161057b565b005b600061023d610c05565b610245610c19565b61024d610c33565b610255610c19565b6101c0604051908101604052806101948152602001610d4f6101949139935060408051908101604052807f18b89d143e40a94525c9e9aaa01317d3a13878fd3f89fe4bfb49825366b837b681526020017f0e536811c346ede14c615d4a0da23cb39bdb13b98f54f8726f4cb1ce0aef31178152509250604080519081016040528060408051908101604052807f28f3c1a3abbcecf79ce9055575c4fc64977ca155d970d0acfacdbd9e955d2cf981526020017f0ca87dc9b1b7f6d50e88661e5d26563d711cd303d1cfd4c41a9f570c59fe3bc6815250815260200160408051908101604052807f087026b1d11d41c57704d49dcc7f06ca45bd645410bcf176625dc1e3fd67090c81526020017f017f53b7486693313c0bcc3b6a2538cc1a56cd56579a7c051779acadb229040e8152508152509150610393846105a0565b90506103b06103a18461062c565b6103a96106c7565b8385610791565b94505050505090565b60006001905092915050565b60008060019150600090505b8181101561041a5760016000809054906101000a900463ffffffff16016000806101000a81548163ffffffff021916908363ffffffff16021790555080806001019150506103d1565b5050565b6000610428610c05565b610430610c19565b610438610c33565b610440610c19565b859350604080519081016040528088600081518110151561045d57fe5b90602001906020020151815260200188600181518110151561047b57fe5b906020019060200201518152509250604080519081016040528060408051908101604052807f28f3c1a3abbcecf79ce9055575c4fc64977ca155d970d0acfacdbd9e955d2cf981526020017f0ca87dc9b1b7f6d50e88661e5d26563d711cd303d1cfd4c41a9f570c59fe3bc6815250815260200160408051908101604052807f087026b1d11d41c57704d49dcc7f06ca45bd645410bcf176625dc1e3fd67090c81526020017f017f53b7486693313c0bcc3b6a2538cc1a56cd56579a7c051779acadb229040e8152508152509150610552846105a0565b905061056f6105608461062c565b6105686106c7565b8385610791565b94505050505092915050565b600080600a9150600090505b8181101561059c578080600101915050610587565b5050565b6105a8610c19565b6000826040518082805190602001908083835b6020831015156105e057805182526020820191506020810190506020830392506105bb565b6001836020036101000a038019825116818451168082178552505050505050905001915050604051809103902060019004905061062461061e6108bd565b826108e1565b915050919050565b610634610c19565b60007f30644e72e131a029b85045b68181585d97816a916871ca8d3c208c16d87cfd47905060008360000151148015610671575060008360200151145b1561069457604080519081016040528060008152602001600081525091506106c1565b6040805190810160405280846000015181526020018285602001518115156106b857fe5b06830381525091505b50919050565b6106cf610c33565b604080519081016040528060408051908101604052807f198e9393920d483a7260bfb731fb5d25f1aa493335a9e71297e485b7aef312c281526020017f1800deef121f1e76426a00665e5c4479674322d4f75edadd46debd5cd992f6ed815250815260200160408051908101604052807f090689d0585ff075ec9e99ad690c3395bc4b313370b38ef355acdadcd122975b81526020017f12c85ea5db8c6deb4aab71808dcb408fe3d1e7690c43d37b4ce6cc0166fa7daa815250815250905090565b600061079b610c5a565b6107a3610c6e565b60026040518059106107b25750595b9080825280602002602001820160405280156107e857816020015b6107d5610c82565b8152602001906001900390816107cd5790505b50915060026040518059106107fa5750595b90808252806020026020018201604052801561083057816020015b61081d610c9c565b8152602001906001900390816108155790505b5090508682600081518110151561084357fe5b906020019060200201819052508482600181518110151561086057fe5b906020019060200201819052508581600081518110151561087d57fe5b906020019060200201819052508381600181518110151561089a57fe5b906020019060200201819052506108b1828261097d565b92505050949350505050565b6108c5610c19565b6040805190810160405280600181526020016002815250905090565b6108e9610c19565b6108f1610cc3565b6000846000015182600060038110151561090757fe5b602002018181525050846020015182600160038110151561092457fe5b6020020181815250508382600260038110151561093d57fe5b602002018181525050606083608084600060076107d05a03f19050806000811461096657610968565bfe5b5080151561097557600080fd5b505092915050565b600080600061098a610ceb565b6000610994610cff565b6000875189511415156109a657600080fd5b88519550600686029450846040518059106109be5750595b90808252806020026020018201604052509350600092505b85831015610bab5788838151811015156109ec57fe5b90602001906020020151600001518460006006860201815181101515610a0e57fe5b90602001906020020181815250508883815181101515610a2a57fe5b90602001906020020151602001518460016006860201815181101515610a4c57fe5b90602001906020020181815250508783815181101515610a6857fe5b90602001906020020151600001516000600281101515610a8457fe5b60200201518460026006860201815181101515610a9d57fe5b90602001906020020181815250508783815181101515610ab957fe5b90602001906020020151600001516001600281101515610ad557fe5b60200201518460036006860201815181101515610aee57fe5b90602001906020020181815250508783815181101515610b0a57fe5b90602001906020020151602001516000600281101515610b2657fe5b60200201518460046006860201815181101515610b3f57fe5b90602001906020020181815250508783815181101515610b5b57fe5b90602001906020020151602001516001600281101515610b7757fe5b60200201518460056006860201815181101515610b9057fe5b906020019060200201818152505082806001019350506109d6565b6020826020870260208701600060086107d05a03f190508060008114610bd057610bd2565bfe5b50801515610bdf57600080fd5b6000826000600181101515610bf057fe5b60200201511415965050505050505092915050565b602060405190810160405280600081525090565b604080519081016040528060008152602001600081525090565b608060405190810160405280610c47610d27565b8152602001610c54610d27565b81525090565b602060405190810160405280600081525090565b602060405190810160405280600081525090565b604080519081016040528060008152602001600081525090565b608060405190810160405280610cb0610d27565b8152602001610cbd610d27565b81525090565b6060604051908101604052806003905b6000815260200190600190039081610cd35790505090565b602060405190810160405280600081525090565b6020604051908101604052806001905b6000815260200190600190039081610d0f5790505090565b60408051908101604052806002905b6000815260200190600190039081610d36579050509056007b0a2020226f70656e223a207b0a20202020227072696365223a2039353931372c0a202020202274696d65223a207b0a20202020202022756e6978223a20313438333134323430302c0a2020202020202269736f223a2022323031362d31322d33315430303a30303a30302e3030305a220a202020207d0a20207d2c0a202022636c6f7365223a207b0a20202020227072696365223a2039363736302c0a202020202274696d65223a207b0a20202020202022756e6978223a20313438333232383830302c0a2020202020202269736f223a2022323031372d30312d30315430303a30303a30302e3030305a220a202020207d0a20207d2c0a2020226c6f6f6b7570223a207b0a20202020227072696365223a2039363736302c0a20202020226b223a20312c0a202020202274696d65223a207b0a20202020202022756e6978223a20313438333232383830302c0a2020202020202269736f223a2022323031372d30312d30315430303a30303a30302e3030305a220a202020207d0a20207d0a7d0a6578616d706c652e636f6d2f6170692f31a165627a7a7230582028b4bd9e6e66a6f0c1ccd77f662a64695156160c5aa8a5127d35e82db5fb12be0029",
  "source": "pragma solidity ^0.4.14;\n\n\n//https://github.com/jstoxrocky/zksnarks_example\ncontract BLS {\n\n    struct G1Point {\n        uint X;\n        uint Y;\n    }\n    // Encoding of field elements is: X[0] * z + X[1]\n    struct G2Point {\n        uint[2] X;\n        uint[2] Y;\n    }\n\n    /// @return the generator of G1\n    function P1() internal returns (G1Point) {\n        return G1Point(1, 2);\n    }\n\n    /// @return the generator of G2\n    function P2() internal returns (G2Point) {\n        return G2Point(\n            [11559732032986387107991004021392285783925812861821192530917403151452391805634,\n            10857046999023057135944570762232829481370756359578518086990519993285655852781],\n\n            [4082367875863433681332203403145435568316851327593401208105741076214120093531,\n            8495653923123431417604973247489272438418190587263600148770280649306958101930]\n        );\n    }\n\n    /**\n    This method is used to measure only the transaction costs\n    */\n    function doNothing(uint[] _sig, bytes _messages) returns (bool) {\n        return true;\n    }\n\n    /**\n    This method is used to measure only the storage costs\n    */\n    uint32 counter = 0;\n    mapping(uint32 => uint[]) sig_storage;\n    mapping(uint32 => bytes) msg_storage;\n    function store() {\n\n        uint n = 1; //NOTE: change this parameter to set the number of messages signatures that will be stored\n\n        for (uint i = 0; i < n; i++) {\n            //msg_storage[counter] = message;\n            //sig_storage[counter] = getSignature(i);\n\n            counter = counter + 1;\n        }\n    }\n\n    /**\n    This method is used to measure only the verification costs\n    */\n    function sendNothing() {\n        uint n = 10; //NOTE: change this parameter to set the amount of signatures that will be verified\n\n        for (uint i = 0; i < n; i++) {\n            //verifyBGLS(message, getSignature(i), e, getModulus(i));\n        }\n    }\n\n    function verify(uint[] memory sig, bytes msg) returns (bool) {\n        bytes memory message = msg;\n\n        G1Point memory signature = G1Point(sig[0], sig[1]);\n\n        G2Point memory v = G2Point(\n            [18523194229674161632574346342370534213928970227736813349975332190798837787897, 5725452645840548248571879966249653216818629536104756116202892528545334967238],\n            [3816656720215352836236372430537606984911914992659540439626020770732736710924, 677280212051826798882467475639465784259337739185938192379192340908771705870]\n        );\n\n        G1Point memory h = hashToG1(message);\n\n        return pairing2(negate(signature), P2(), h, v);\n    }\n\n    function verifyBLSTest() returns (bool) {\n\n        bytes memory message = hex\"7b0a2020226f70656e223a207b0a20202020227072696365223a2039353931372c0a202020202274696d65223a207b0a20202020202022756e6978223a20313438333134323430302c0a2020202020202269736f223a2022323031362d31322d33315430303a30303a30302e3030305a220a202020207d0a20207d2c0a202022636c6f7365223a207b0a20202020227072696365223a2039363736302c0a202020202274696d65223a207b0a20202020202022756e6978223a20313438333232383830302c0a2020202020202269736f223a2022323031372d30312d30315430303a30303a30302e3030305a220a202020207d0a20207d2c0a2020226c6f6f6b7570223a207b0a20202020227072696365223a2039363736302c0a20202020226b223a20312c0a202020202274696d65223a207b0a20202020202022756e6978223a20313438333232383830302c0a2020202020202269736f223a2022323031372d30312d30315430303a30303a30302e3030305a220a202020207d0a20207d0a7d0a6578616d706c652e636f6d2f6170692f31\";\n\n        G1Point memory signature = G1Point(11181692345848957662074290878138344227085597134981019040735323471731897153462, 6479746447046570360435714249272776082787932146211764251347798668447381926167);\n\n        G2Point memory v = G2Point(\n            [18523194229674161632574346342370534213928970227736813349975332190798837787897, 5725452645840548248571879966249653216818629536104756116202892528545334967238],\n            [3816656720215352836236372430537606984911914992659540439626020770732736710924, 677280212051826798882467475639465784259337739185938192379192340908771705870]\n        );\n\n        G1Point memory h = hashToG1(message);\n\n        return pairing2(negate(signature), P2(), h, v);\n    }\n\n    /// @return the result of computing the pairing check\n    /// e(p1[0], p2[0]) *  .... * e(p1[n], p2[n]) == 1\n    /// For example pairing([P1(), P1().negate()], [P2(), P2()]) should\n    /// return true.\n    function pairing(G1Point[] p1, G2Point[] p2) internal returns (bool) {\n        require(p1.length == p2.length);\n        uint elements = p1.length;\n        uint inputSize = elements * 6;\n        uint[] memory input = new uint[](inputSize);\n\n        for (uint i = 0; i < elements; i++)\n        {\n            input[i * 6 + 0] = p1[i].X;\n            input[i * 6 + 1] = p1[i].Y;\n            input[i * 6 + 2] = p2[i].X[0];\n            input[i * 6 + 3] = p2[i].X[1];\n            input[i * 6 + 4] = p2[i].Y[0];\n            input[i * 6 + 5] = p2[i].Y[1];\n        }\n\n        uint[1] memory out;\n        bool success;\n\n        assembly {\n            success := call(sub(gas, 2000), 8, 0, add(input, 0x20), mul(inputSize, 0x20), out, 0x20)\n        // Use \"invalid\" to make gas estimation work\n            switch success case 0 {invalid}\n        }\n        require(success);\n        return out[0] != 0;\n    }\n\n    /// Convenience method for a pairing check for two pairs.\n    function pairing2(G1Point a1, G2Point a2, G1Point b1, G2Point b2) internal returns (bool) {\n        G1Point[] memory p1 = new G1Point[](2);\n        G2Point[] memory p2 = new G2Point[](2);\n        p1[0] = a1;\n        p1[1] = b1;\n        p2[0] = a2;\n        p2[1] = b2;\n        return pairing(p1, p2);\n    }\n\n    function hashToG1(bytes message) internal returns (G1Point) {\n        uint256 h = uint256(keccak256(message));\n        return mul(P1(), h);\n    }\n\n    function modPow(uint256 base, uint256 exponent, uint256 modulus) internal returns (uint256) {\n        uint256[6] memory input = [32, 32, 32, base, exponent, modulus];\n        uint256[1] memory result;\n        assembly {\n            if iszero(call(not(0), 0x05, 0, input, 0xc0, result, 0x20)) {\n                revert(0, 0)\n            }\n        }\n        return result[0];\n    }\n\n    /// @return the negation of p, i.e. p.add(p.negate()) should be zero.\n    function negate(G1Point p) internal returns (G1Point) {\n        // The prime q in the base field F_q for G1\n        uint q = 21888242871839275222246405745257275088696311157297823662689037894645226208583;\n        if (p.X == 0 && p.Y == 0)\n            return G1Point(0, 0);\n        return G1Point(p.X, q - (p.Y % q));\n    }\n\n    /// @return the sum of two points of G1\n    function add(G1Point p1, G1Point p2) internal returns (G1Point r) {\n        uint[4] memory input;\n        input[0] = p1.X;\n        input[1] = p1.Y;\n        input[2] = p2.X;\n        input[3] = p2.Y;\n        bool success;\n        assembly {\n            success := call(sub(gas, 2000), 6, 0, input, 0xc0, r, 0x60)\n        // Use \"invalid\" to make gas estimation work\n            switch success case 0 {invalid}\n        }\n        require(success);\n    }\n    /// @return the product of a point on G1 and a scalar, i.e.\n    /// p == p.mul(1) and p.add(p) == p.mul(2) for all points p.\n    function mul(G1Point p, uint s) internal returns (G1Point r) {\n        uint[3] memory input;\n        input[0] = p.X;\n        input[1] = p.Y;\n        input[2] = s;\n        bool success;\n        assembly {\n            success := call(sub(gas, 2000), 7, 0, input, 0x80, r, 0x60)\n        // Use \"invalid\" to make gas estimation work\n            switch success case 0 {invalid}\n        }\n        require(success);\n    }\n\n    /*function getSignature(uint i) view internal returns (bytes) {\n        if (i == 0) {\n            return signature0;\n        } else if (i == 1) {\n            return signature1;\n        } else if (i == 2) {\n            return signature2;\n        } else if (i == 3) {\n            return signature3;\n        } else if (i == 4) {\n            return signature4;\n        } else if (i == 5) {\n            return signature5;\n        } else if (i == 6) {\n            return signature6;\n        } else if (i == 7) {\n            return signature7;\n        } else if (i == 8) {\n            return signature8;\n        } else if (i == 9) {\n            return signature9;\n        }\n    }*/\n\n}\n",
  "sourcePath": "/home/bjorn/Projects/BGRVerify/contracts/BLS.sol",
  "compiler": {
    "name": "solc",
    "version": "0.4.21+commit.dfe3193c.Emscripten.clang"
  },
  "schemaVersion": "2.0.0",
  "updatedAt": "2018-06-21T11:20:14.966Z"
}