{
  "contractName": "BTCPriceFeed",
  "abi": [
    {
      "constant": false,
      "inputs": [
        {
          "name": "json",
          "type": "string"
        }
      ],
      "name": "parseBitcoinComFeed",
      "outputs": [
        {
          "name": "timestamp0",
          "type": "uint32"
        },
        {
          "name": "price0",
          "type": "uint32"
        },
        {
          "name": "timestamp1",
          "type": "uint32"
        },
        {
          "name": "price1",
          "type": "uint32"
        }
      ],
      "payable": false,
      "stateMutability": "nonpayable",
      "type": "function"
    },
    {
      "constant": false,
      "inputs": [
        {
          "name": "proof",
          "type": "bytes"
        }
      ],
      "name": "submitProofOfPrice",
      "outputs": [],
      "payable": false,
      "stateMutability": "nonpayable",
      "type": "function"
    },
    {
      "constant": false,
      "inputs": [
        {
          "name": "timestamp",
          "type": "uint32"
        }
      ],
      "name": "getPrice",
      "outputs": [
        {
          "name": "",
          "type": "uint32"
        }
      ],
      "payable": false,
      "stateMutability": "nonpayable",
      "type": "function"
    }
  ],
  "bytecode": "0x6060604052341561000f57600080fd5b613fca8061001e6000396000f300606060405260043610610057576000357c0100000000000000000000000000000000000000000000000000000000900463ffffffff1680635322175e1461005c57806378a9e88a146100b9578063da26663a14610140575b600080fd5b341561006757600080fd5b6100b7600480803590602001908201803590602001908080601f01602080910402602001604051908101604052809392919081815260200183838082843782019150505050505091905050610189565b005b34156100c457600080fd5b6100e560048080359060200190820180359060200191909192905050610625565b604051808563ffffffff1663ffffffff1681526020018463ffffffff1663ffffffff1681526020018363ffffffff1663ffffffff1681526020018263ffffffff1663ffffffff16815260200194505050505060405180910390f35b341561014b57600080fd5b610167600480803563ffffffff16906020019091905050610e21565b604051808263ffffffff1663ffffffff16815260200191505060405180910390f35b600080610194613e94565b61019c613e94565b6101a4613e94565b6000806000807f0de2583dc1b70c4d17936f6ca4d2a07aa2aba06b76a97e60e62af286adc1cc0998507f68ba8822c94e79903406a002f4bc6a982d1b473f109debb2aa020c66f642144a975073__tlsnutils_____________________________635569909f8b8b8b6040518463ffffffff167c01000000000000000000000000000000000000000000000000000000000281526004018080602001848152602001838152602001828103825285818151815260200191508051906020019080838360005b83811015610284578082015181840152602081019050610269565b50505050905090810190601f1680156102b15780820380516001836020036101000a031916815260200191505b5094505050505060206040518083038186803b15156102cf57600080fd5b5af415156102dc57600080fd5b5050506040518051905015156102f157600080fd5b6102fa8a610e73565b96506103a161038a608060405190810160405280604181526020017f2f70726f78792e70793f75726c3d68747470732533412f2f696e6465782e626981526020017f74636f696e2e636f6d2f6170692f76302f6c6f6f6b757025334674696d65253381526020017f4400000000000000000000000000000000000000000000000000000000000000815250610f87565b61039389610f87565b610fb590919063ffffffff16565b15156103ac57600080fd5b600d61040e6104096103f26040805190810160405280600381526020017f2533440000000000000000000000000000000000000000000000000000000000815250610f87565b6103fb8b610f87565b61100d90919063ffffffff16565b61105f565b14151561041a57600080fd5b6104238a61106d565b955061047d6104666040805190810160405280600981526020017f746c732d6e2e6f72670000000000000000000000000000000000000000000000815250610f87565b61046f88610f87565b61123290919063ffffffff16565b151561048857600080fd5b6104918a611248565b94503073ffffffffffffffffffffffffffffffffffffffff166378a9e88a866040518263ffffffff167c01000000000000000000000000000000000000000000000000000000000281526004018080602001828103825283818151815260200191508051906020019080838360005b8381101561051b578082015181840152602081019050610500565b50505050905090810190601f1680156105485780820380516001836020036101000a031916815260200191505b5092505050608060405180830381600087803b151561056657600080fd5b5af1151561057357600080fd5b5050506040518051906020018051906020018051906020018051905080945081955082965083975050505050826000808663ffffffff1663ffffffff16815260200190815260200160002060006101000a81548163ffffffff021916908363ffffffff160217905550806000808463ffffffff1663ffffffff16815260200190815260200160002060006101000a81548163ffffffff021916908363ffffffff16021790555050505050505050505050565b6000806000806000610635613ea8565b61063d613ebc565b610645613ed0565b60006106848b8b8080601f016020809104026020016040519081016040528093929190818152602001838380828437820191505050505050603261136e565b80935081955082975050505060008514151561069f57600080fd5b8260018151811015156106ae57fe5b9060200190602002015191506106ff8b8b8080601f01602080910402602001604051908101604052809392919081815260200183838082843782019150505050505083602001518460600151612144565b93506000610742856040805190810160405280600481526020017f6f70656e00000000000000000000000000000000000000000000000000000000815250612247565b14151561074e57600080fd5b82600381518110151561075d57fe5b9060200190602002015191506107ae8b8b8080601f01602080910402602001604051908101604052809392919081815260200183838082843782019150505050505083602001518460600151612144565b935060006107f1856040805190810160405280600581526020017f7072696365000000000000000000000000000000000000000000000000000000815250612247565b1415156107fd57600080fd5b82600481518110151561080c57fe5b9060200190602002015191506108656108608c8c8080601f01602080910402602001604051908101604052809392919081815260200183838082843782019150505050505084602001518560600151612144565b61250b565b975060008863ffffffff1611151561087c57600080fd5b82600581518110151561088b57fe5b9060200190602002015191506108dc8b8b8080601f01602080910402602001604051908101604052809392919081815260200183838082843782019150505050505083602001518460600151612144565b9350600061091f856040805190810160405280600481526020017f74696d6500000000000000000000000000000000000000000000000000000000815250612247565b14151561092b57600080fd5b82600781518110151561093a57fe5b90602001906020020151915061098b8b8b8080601f01602080910402602001604051908101604052809392919081815260200183838082843782019150505050505083602001518460600151612144565b935060006109ce856040805190810160405280600481526020017f756e697800000000000000000000000000000000000000000000000000000000815250612247565b1415156109da57600080fd5b8260088151811015156109e957fe5b906020019060200201519150610a42610a3d8c8c8080601f01602080910402602001604051908101604052809392919081815260200183838082843782019150505050505084602001518560600151612144565b61250b565b985060008963ffffffff16111515610a5957600080fd5b82600b815181101515610a6857fe5b906020019060200201519150610ab98b8b8080601f01602080910402602001604051908101604052809392919081815260200183838082843782019150505050505083602001518460600151612144565b93506000610afc856040805190810160405280600581526020017f636c6f7365000000000000000000000000000000000000000000000000000000815250612247565b141515610b0857600080fd5b82600d815181101515610b1757fe5b906020019060200201519150610b688b8b8080601f01602080910402602001604051908101604052809392919081815260200183838082843782019150505050505083602001518460600151612144565b93506000610bab856040805190810160405280600581526020017f7072696365000000000000000000000000000000000000000000000000000000815250612247565b141515610bb757600080fd5b82600e815181101515610bc657fe5b906020019060200201519150610c1f610c1a8c8c8080601f01602080910402602001604051908101604052809392919081815260200183838082843782019150505050505084602001518560600151612144565b61250b565b955060008663ffffffff16111515610c3657600080fd5b82600f815181101515610c4557fe5b906020019060200201519150610c968b8b8080601f01602080910402602001604051908101604052809392919081815260200183838082843782019150505050505083602001518460600151612144565b93506000610cd9856040805190810160405280600481526020017f74696d6500000000000000000000000000000000000000000000000000000000815250612247565b141515610ce557600080fd5b826011815181101515610cf457fe5b906020019060200201519150610d458b8b8080601f01602080910402602001604051908101604052809392919081815260200183838082843782019150505050505083602001518460600151612144565b93506000610d88856040805190810160405280600481526020017f756e697800000000000000000000000000000000000000000000000000000000815250612247565b141515610d9457600080fd5b826012815181101515610da357fe5b906020019060200201519150610dfc610df78c8c8080601f01602080910402602001604051908101604052809392919081815260200183838082843782019150505050505084602001518560600151612144565b61250b565b965060008763ffffffff16111515610e1357600080fd5b505050505092959194509250565b6000806000808463ffffffff1663ffffffff16815260200190815260200160002060009054906101000a900463ffffffff16905060008163ffffffff16111515610e6a57600080fd5b80915050919050565b610e7b613e94565b610e83613e94565b610e8b613f19565b610e93613f19565b610e9b613f19565b610ea48661251f565b9350610eaf84610f87565b9250610eef6040805190810160405280600181526020017f2000000000000000000000000000000000000000000000000000000000000000815250610f87565b9150610f04828461255b90919063ffffffff16565b9050610f56610f476040805190810160405280600381526020017f4745540000000000000000000000000000000000000000000000000000000000815250610f87565b8261123290919063ffffffff16565b1515610f6157600080fd5b610f7c610f77838561255b90919063ffffffff16565b612575565b945050505050919050565b610f8f613f19565b600060208301905060408051908101604052808451815260200182815250915050919050565b600080826000015184600001511015610fd15760009150611006565b826020015184602001511415610fea5760019150611006565b8251602085015160208501518281208383201493505050508091505b5092915050565b611015613f19565b600061103384600001518560200151856000015186602001516125d3565b905083602001518103846000018181510391508181525050808460200181815250508391505092915050565b600081600001519050919050565b611075613e94565b61107d613f19565b61108e6110898461251f565b610f87565b90506110e06110d16040805190810160405280600481526020017f0d0a0d0a00000000000000000000000000000000000000000000000000000000815250610f87565b8261255b90919063ffffffff16565b90506111326111236040805190810160405280600581526020017f486f73743a000000000000000000000000000000000000000000000000000000815250610f87565b8261100d90919063ffffffff16565b5061114760058261268f90919063ffffffff16565b506111986111896040805190810160405280600281526020017f0d0a000000000000000000000000000000000000000000000000000000000000815250610f87565b8261255b90919063ffffffff16565b90505b6111eb6111dc6040805190810160405280600181526020017f2000000000000000000000000000000000000000000000000000000000000000815250610f87565b82610fb590919063ffffffff16565b1561120a5761120460018261268f90919063ffffffff16565b5061119b565b60006112158261105f565b11151561122157600080fd5b61122a81612575565b915050919050565b60008061123f84846126e5565b14905092915050565b611250613e94565b611258613e94565b611260613f19565b611268613f19565b6112718561279f565b925061128f600f61128185610f87565b6127db90919063ffffffff16565b91506112e16112d26040805190810160405280600f81526020017f485454502f312e3120323030204f4b0000000000000000000000000000000000815250610f87565b8361123290919063ffffffff16565b15156112ec57600080fd5b61134461132d6040805190810160405280600481526020017f0d0a0d0a00000000000000000000000000000000000000000000000000000000815250610f87565b61133685610f87565b61100d90919063ffffffff16565b905061135a60048261268f90919063ffffffff16565b5061136481612575565b9350505050919050565b6000611378613ebc565b6000611382613e94565b61138a613f33565b611392613ebc565b60008060008060006113a2613ed0565b6000808f9a506113b18f612803565b99509950896020015196505b8a518a600001511015612123578a8a600001518151811015156113dc57fe5b9060200101517f010000000000000000000000000000000000000000000000000000000000000090047f0100000000000000000000000000000000000000000000000000000000000000029450607b7f010000000000000000000000000000000000000000000000000000000000000002857effffffffffffffffffffffffffffffffffffffffffffffffffffffffffffff191614806114c05750605b7f010000000000000000000000000000000000000000000000000000000000000002857effffffffffffffffffffffffffffffffffffffffffffffffffffffffffffff1916145b156116005786806001019750506114d78a8a6128b7565b935093508315156114f55760038960008090509d509d509d50612132565b7fffffffffffffffffffffffffffffffffffffffffffffffffffffffffffffffff8a6040015114151561155457888a6040015181518110151561153457fe5b9060200190602002015160a001805180919060010160ff1660ff16815250505b607b7f010000000000000000000000000000000000000000000000000000000000000002857effffffffffffffffffffffffffffffffffffffffffffffffffffffffffffff1916146115a75760026115aa565b60015b836000019060048111156115ba57fe5b908160048111156115c757fe5b815250508960000151836020018181525050600183604001901515908115158152505060018a60200151038a604001818152505061210e565b607d7f010000000000000000000000000000000000000000000000000000000000000002857effffffffffffffffffffffffffffffffffffffffffffffffffffffffffffff191614806116975750605d7f010000000000000000000000000000000000000000000000000000000000000002857effffffffffffffffffffffffffffffffffffffffffffffffffffffffffffff1916145b156118d757607d7f010000000000000000000000000000000000000000000000000000000000000002857effffffffffffffffffffffffffffffffffffffffffffffffffffffffffffff1916146116ef5760026116f2565b60015b91506000905060018a602001510395505b60008610151561180657888681518110151561171b57fe5b9060200190602002015192508260400151801561173a57508260800151155b156117f85781600481111561174b57fe5b8360000151600481111561175b57fe5b1415156117755760018960008090509d509d509d50612132565b7fffffffffffffffffffffffffffffffffffffffffffffffffffffffffffffffff8a604001818152505060018a600001510189878151811015156117b557fe5b906020019060200201516060018181525050600189878151811015156117d757fe5b90602001906020020151608001901515908115158152505060019050611806565b858060019003965050611703565b8015156118205760018960008090509d509d509d50612132565b5b600086111561187957888681518110151561183857fe5b9060200190602002015192508260400151801561185757508260800151155b1561186b57858a6040018181525050611879565b858060019003965050611821565b60008614156118d257888681518110151561189057fe5b906020019060200201519250826040015180156118af57508260800151155b156118d157856fffffffffffffffffffffffffffffffff168a60400181815250505b5b61210e565b7f2200000000000000000000000000000000000000000000000000000000000000857effffffffffffffffffffffffffffffffffffffffffffffffffffffffffffff191614156119b65761192c8a8a8d612989565b975060008814151561194a57878960008090509d509d509d50612132565b86806001019750507fffffffffffffffffffffffffffffffffffffffffffffffffffffffffffffffff8a604001511415156119b157888a6040015181518110151561199157fe5b9060200190602002015160a001805180919060010160ff1660ff16815250505b61210e565b7f2000000000000000000000000000000000000000000000000000000000000000857effffffffffffffffffffffffffffffffffffffffffffffffffffffffffffff19161480611a4a575060117f010000000000000000000000000000000000000000000000000000000000000002857effffffffffffffffffffffffffffffffffffffffffffffffffffffffffffff1916145b80611a99575060127f010000000000000000000000000000000000000000000000000000000000000002857effffffffffffffffffffffffffffffffffffffffffffffffffffffffffffff1916145b80611ae8575060147f010000000000000000000000000000000000000000000000000000000000000002857effffffffffffffffffffffffffffffffffffffffffffffffffffffffffffff1916145b15611af25761210e565b7f3a00000000000000000000000000000000000000000000000000000000000000857effffffffffffffffffffffffffffffffffffffffffffffffffffffffffffff19161415611b525760018a60200151038a604001818152505061210e565b7f2c00000000000000000000000000000000000000000000000000000000000000857effffffffffffffffffffffffffffffffffffffffffffffffffffffffffffff19161415611d42577fffffffffffffffffffffffffffffffffffffffffffffffffffffffffffffffff8a6040015114158015611c06575060026004811115611bd857fe5b898b60400151815181101515611bea57fe5b90602001906020020151600001516004811115611c0357fe5b14155b8015611c48575060016004811115611c1a57fe5b898b60400151815181101515611c2c57fe5b90602001906020020151600001516004811115611c4557fe5b14155b15611d3d5760018a602001510395505b600086101515611d3c5760026004811115611c6f57fe5b8987815181101515611c7d57fe5b90602001906020020151600001516004811115611c9657fe5b1480611cd3575060016004811115611caa57fe5b8987815181101515611cb857fe5b90602001906020020151600001516004811115611cd157fe5b145b15611d2e578886815181101515611ce657fe5b90602001906020020151604001518015611d1957508886815181101515611d0957fe5b9060200190602002015160800151155b15611d2d57858a6040018181525050611d3c565b5b858060019003965050611c58565b5b61210e565b7f3000000000000000000000000000000000000000000000000000000000000000857effffffffffffffffffffffffffffffffffffffffffffffffffffffffffffff191610158015611dd657507f3900000000000000000000000000000000000000000000000000000000000000857effffffffffffffffffffffffffffffffffffffffffffffffffffffffffffff191611155b80611e2257507f2d00000000000000000000000000000000000000000000000000000000000000857effffffffffffffffffffffffffffffffffffffffffffffffffffffffffffff1916145b80611e6e57507f6600000000000000000000000000000000000000000000000000000000000000857effffffffffffffffffffffffffffffffffffffffffffffffffffffffffffff1916145b80611eba57507f7400000000000000000000000000000000000000000000000000000000000000857effffffffffffffffffffffffffffffffffffffffffffffffffffffffffffff1916145b80611f0657507f6e00000000000000000000000000000000000000000000000000000000000000857effffffffffffffffffffffffffffffffffffffffffffffffffffffffffffff1916145b1561205b577fffffffffffffffffffffffffffffffffffffffffffffffffffffffffffffffff8a60400151141515611fc657888a60400151815181101515611f4a57fe5b90602001906020020151925060016004811115611f6357fe5b83600001516004811115611f7357fe5b1480611fad575060036004811115611f8757fe5b83600001516004811115611f9757fe5b148015611fac575060008360a0015160ff1614155b5b15611fc55760018960008090509d509d509d50612132565b5b611fd18a8a8d6130a0565b9750600088141515611fef57878960008090509d509d509d50612132565b86806001019750507fffffffffffffffffffffffffffffffffffffffffffffffffffffffffffffffff8a6040015114151561205657888a6040015181518110151561203657fe5b9060200190602002015160a001805180919060010160ff1660ff16815250505b61210e565b60207f010000000000000000000000000000000000000000000000000000000000000002857effffffffffffffffffffffffffffffffffffffffffffffffffffffffffffff1916101580156120f55750607e7f010000000000000000000000000000000000000000000000000000000000000002857effffffffffffffffffffffffffffffffffffffffffffffffffffffffffffff191611155b1561210d5760018960008090509d509d509d50612132565b5b896000018051809190600101815250506113bd565b6000898b602001519d509d509d505b50505050505050505050509250925092565b61214c613ea8565b612154613e94565b61215c613e94565b60008692508585036040518059106121715750595b9080825280601f01601f191660200182016040525091508590505b8481101561223a5782818151811015156121a257fe5b9060200101517f010000000000000000000000000000000000000000000000000000000000000090047f010000000000000000000000000000000000000000000000000000000000000002828783038151811015156121fd57fe5b9060200101907effffffffffffffffffffffffffffffffffffffffffffffffffffffffffffff1916908160001a905350808060010191505061218c565b8193505050509392505050565b6000612251613e94565b612259613e94565b60008086935085925083519150818351101561227457825191505b600090505b818110156124b757828181518110151561228f57fe5b9060200101517f010000000000000000000000000000000000000000000000000000000000000090047f0100000000000000000000000000000000000000000000000000000000000000027effffffffffffffffffffffffffffffffffffffffffffffffffffffffffffff1916848281518110151561230a57fe5b9060200101517f010000000000000000000000000000000000000000000000000000000000000090047f0100000000000000000000000000000000000000000000000000000000000000027effffffffffffffffffffffffffffffffffffffffffffffffffffffffffffff191610156123a5577fffffffffffffffffffffffffffffffffffffffffffffffffffffffffffffffff9450612501565b82818151811015156123b357fe5b9060200101517f010000000000000000000000000000000000000000000000000000000000000090047f0100000000000000000000000000000000000000000000000000000000000000027effffffffffffffffffffffffffffffffffffffffffffffffffffffffffffff1916848281518110151561242e57fe5b9060200101517f010000000000000000000000000000000000000000000000000000000000000090047f0100000000000000000000000000000000000000000000000000000000000000027effffffffffffffffffffffffffffffffffffffffffffffffffffffffffffff191611156124aa5760019450612501565b8080600101915050612279565b8251845110156124e9577fffffffffffffffffffffffffffffffffffffffffffffffffffffffffffffffff9450612501565b8251845111156124fc5760019450612501565b600094505b5050505092915050565b6000612518826000613482565b9050919050565b612527613e94565b6125548260007f010000000000000000000000000000000000000000000000000000000000000002613861565b9050919050565b612563613f19565b61256e838383613c8e565b5092915050565b61257d613e94565b612585613e94565b600083600001516040518059106125995750595b9080825280601f01601f191660200182016040525091506020820190506125c98185602001518660000151613d2c565b8192505050919050565b6000806000806000888711151561267d576020871115156126345760018760200360080260020a031980875116888b038a018a96505b81838851161461262957600187019650806001880310612609578b8b0196505b505050839450612683565b8686209150879350600092505b8689038311151561267c57868420905080600019168260001916141561266957839450612683565b6001840193508280600101935050612641565b5b88880194505b50505050949350505050565b612697613f19565b82600001518263ffffffff16111515156126b057600080fd5b8163ffffffff168360200181815101915081815250508163ffffffff1683600001818151039150818152505082905092915050565b60008060008060008060008060008a6000015197508a600001518a60000151101561271257896000015197505b8a60200151965089602001519550600094505b87851015612783578651935085519250828414151561276c57600185896020030160080260020a0319915081831682851603905060008114151561276b57809850612791565b5b602087019650602086019550602085019450612725565b89600001518b600001510398505b505050505050505092915050565b6127a7613e94565b6127d48260017f010000000000000000000000000000000000000000000000000000000000000002613861565b9050919050565b6127e3613f19565b81836000015111156127fa57818360000181815250505b82905092915050565b61280b613f33565b612813613ebc565b61281b613f33565b612823613ebc565b60606040519081016040528060008152602001600081526020017fffffffffffffffffffffffffffffffffffffffffffffffffffffffffffffffff8152509150846040518059106128715750595b9080825280602002602001820160405280156128a757816020015b612894613f55565b81526020019060019003908161288c5790505b5090508181935093505050915091565b60006128c1613ed0565b6128c9613ed0565b835185602001511015156129015760008460018651038151811015156128eb57fe5b9060200190602002015180905092509250612981565b60c0604051908101604052806000600481111561291a57fe5b81526020016000815260200160001515815260200160008152602001600015158152602001600060ff1681525090508084866020015181518110151561295c57fe5b9060200190602002018190525084602001805180919060010181525050600181925092505b509250929050565b600080600080612997613ed0565b87600001519350876000018051809190600101815250505b855188600001511015613086578588600001518151811015156129ce57fe5b9060200101517f010000000000000000000000000000000000000000000000000000000000000090047f01000000000000000000000000000000000000000000000000000000000000000292507f2200000000000000000000000000000000000000000000000000000000000000837effffffffffffffffffffffffffffffffffffffffffffffffffffffffffffff19161415612aaa57612a6f88886128b7565b91509150811515612a8d578388600001818152505060039450613095565b612aa1816003600187018b60000151613d77565b60009450613095565b605c7f010000000000000000000000000000000000000000000000000000000000000002837effffffffffffffffffffffffffffffffffffffffffffffffffffffffffffff1916148015612b05575085516001896000015101105b1561307057876000018051809190600101815250507f2200000000000000000000000000000000000000000000000000000000000000868960000151815181101515612b4d57fe5b9060200101517f010000000000000000000000000000000000000000000000000000000000000090047f0100000000000000000000000000000000000000000000000000000000000000027effffffffffffffffffffffffffffffffffffffffffffffffffffffffffffff19161480612c6357507f2f00000000000000000000000000000000000000000000000000000000000000868960000151815181101515612bf457fe5b9060200101517f010000000000000000000000000000000000000000000000000000000000000090047f0100000000000000000000000000000000000000000000000000000000000000027effffffffffffffffffffffffffffffffffffffffffffffffffffffffffffff1916145b80612d0b57507f5c00000000000000000000000000000000000000000000000000000000000000868960000151815181101515612c9c57fe5b9060200101517f010000000000000000000000000000000000000000000000000000000000000090047f0100000000000000000000000000000000000000000000000000000000000000027effffffffffffffffffffffffffffffffffffffffffffffffffffffffffffff1916145b80612db357507f6600000000000000000000000000000000000000000000000000000000000000868960000151815181101515612d4457fe5b9060200101517f010000000000000000000000000000000000000000000000000000000000000090047f0100000000000000000000000000000000000000000000000000000000000000027effffffffffffffffffffffffffffffffffffffffffffffffffffffffffffff1916145b80612e5b57507f7200000000000000000000000000000000000000000000000000000000000000868960000151815181101515612dec57fe5b9060200101517f010000000000000000000000000000000000000000000000000000000000000090047f0100000000000000000000000000000000000000000000000000000000000000027effffffffffffffffffffffffffffffffffffffffffffffffffffffffffffff1916145b80612f0357507f6e00000000000000000000000000000000000000000000000000000000000000868960000151815181101515612e9457fe5b9060200101517f010000000000000000000000000000000000000000000000000000000000000090047f0100000000000000000000000000000000000000000000000000000000000000027effffffffffffffffffffffffffffffffffffffffffffffffffffffffffffff1916145b80612fab57507f6200000000000000000000000000000000000000000000000000000000000000868960000151815181101515612f3c57fe5b9060200101517f010000000000000000000000000000000000000000000000000000000000000090047f0100000000000000000000000000000000000000000000000000000000000000027effffffffffffffffffffffffffffffffffffffffffffffffffffffffffffff1916145b8061305357507f7400000000000000000000000000000000000000000000000000000000000000868960000151815181101515612fe457fe5b9060200101517f010000000000000000000000000000000000000000000000000000000000000090047f0100000000000000000000000000000000000000000000000000000000000000027effffffffffffffffffffffffffffffffffffffffffffffffffffffffffffff1916145b1561305d57613071565b8388600001818152505060019450613095565b5b876000018051809190600101815250506129af565b83886000018181525050600294505b505050509392505050565b60008060008060006130b0613ed0565b60009450886000015193505b86518960000151101561340d578689600001518151811015156130db57fe5b9060200101517f010000000000000000000000000000000000000000000000000000000000000090047f01000000000000000000000000000000000000000000000000000000000000000292507f2000000000000000000000000000000000000000000000000000000000000000837effffffffffffffffffffffffffffffffffffffffffffffffffffffffffffff191614806131b957507f0900000000000000000000000000000000000000000000000000000000000000837effffffffffffffffffffffffffffffffffffffffffffffffffffffffffffff1916145b8061320557507f0a00000000000000000000000000000000000000000000000000000000000000837effffffffffffffffffffffffffffffffffffffffffffffffffffffffffffff1916145b8061325157507f0d00000000000000000000000000000000000000000000000000000000000000837effffffffffffffffffffffffffffffffffffffffffffffffffffffffffffff1916145b8061329d57507f2c00000000000000000000000000000000000000000000000000000000000000837effffffffffffffffffffffffffffffffffffffffffffffffffffffffffffff1916145b806132ec5750607d7f010000000000000000000000000000000000000000000000000000000000000002837effffffffffffffffffffffffffffffffffffffffffffffffffffffffffffff1916145b8061333b5750605d7f010000000000000000000000000000000000000000000000000000000000000002837effffffffffffffffffffffffffffffffffffffffffffffffffffffffffffff1916145b15613349576001945061340d565b60207f010000000000000000000000000000000000000000000000000000000000000002837effffffffffffffffffffffffffffffffffffffffffffffffffffffffffffff191610806133e05750607f7f010000000000000000000000000000000000000000000000000000000000000002837effffffffffffffffffffffffffffffffffffffffffffffffffffffffffffff1916115b156133f8578389600001818152505060019550613476565b886000018051809190600101815250506130bc565b841515613427578389600001818152505060029550613476565b61343189896128b7565b9150915081151561344f578389600001818152505060039550613476565b613460816004868c60000151613d77565b8860000180518091906001900381525050600095505b50505050509392505050565b600061348c613e94565b600080600080879450600093506000925060009150600090505b84518110156138155760008114801561355857507f2d0000000000000000000000000000000000000000000000000000000000000085828151811015156134e957fe5b9060200101517f010000000000000000000000000000000000000000000000000000000000000090047f0100000000000000000000000000000000000000000000000000000000000000027effffffffffffffffffffffffffffffffffffffffffffffffffffffffffffff1916145b1561356257600191505b60307f010000000000000000000000000000000000000000000000000000000000000002858281518110151561359457fe5b9060200101517f010000000000000000000000000000000000000000000000000000000000000090047f0100000000000000000000000000000000000000000000000000000000000000027effffffffffffffffffffffffffffffffffffffffffffffffffffffffffffff1916101580156136ac575060397f010000000000000000000000000000000000000000000000000000000000000002858281518110151561363c57fe5b9060200101517f010000000000000000000000000000000000000000000000000000000000000090047f0100000000000000000000000000000000000000000000000000000000000000027effffffffffffffffffffffffffffffffffffffffffffffffffffffffffffff191611155b1561375d5782156136cf5760008714156136c557613815565b8680600190039750505b600a84029350603085828151811015156136e557fe5b9060200101517f010000000000000000000000000000000000000000000000000000000000000090047f0100000000000000000000000000000000000000000000000000000000000000027f010000000000000000000000000000000000000000000000000000000000000090040384019350613808565b602e7f010000000000000000000000000000000000000000000000000000000000000002858281518110151561378f57fe5b9060200101517f010000000000000000000000000000000000000000000000000000000000000090047f0100000000000000000000000000000000000000000000000000000000000000027effffffffffffffffffffffffffffffffffffffffffffffffffffffffffffff1916141561380757600192505b5b80806001019150506134a6565b60008711156138275786600a0a840293505b8115613853577fffffffffffffffffffffffffffffffffffffffffffffffffffffffffffffffff840293505b839550505050505092915050565b613869613e94565b613871613e94565b6000806000806000613881613f19565b602060405190810160405280600081525096506060955089601b8151811015156138a757fe5b9060200101517f010000000000000000000000000000000000000000000000000000000000000090047f0100000000000000000000000000000000000000000000000000000000000000027f01000000000000000000000000000000000000000000000000000000000000009004610100028a601a81518110151561392857fe5b9060200101517f010000000000000000000000000000000000000000000000000000000000000090047f0100000000000000000000000000000000000000000000000000000000000000027f010000000000000000000000000000000000000000000000000000000000000090040186019550600093505b8960078151811015156139af57fe5b9060200101517f010000000000000000000000000000000000000000000000000000000000000090047f0100000000000000000000000000000000000000000000000000000000000000027f01000000000000000000000000000000000000000000000000000000000000009004610100028a6006815181101515613a3057fe5b9060200101517f010000000000000000000000000000000000000000000000000000000000000090047f0100000000000000000000000000000000000000000000000000000000000000027f010000000000000000000000000000000000000000000000000000000000000090040161ffff168461ffff161015613c7e57602186018a01519250826001600281101515613ac657fe5b1a7f0100000000000000000000000000000000000000000000000000000000000000027f0100000000000000000000000000000000000000000000000000000000000000900461010002836000600281101515613b1f57fe5b1a7f0100000000000000000000000000000000000000000000000000000000000000027f01000000000000000000000000000000000000000000000000000000000000009004019150896003870161ffff16815181101515613b7d57fe5b9060200101517f010000000000000000000000000000000000000000000000000000000000000090047f0100000000000000000000000000000000000000000000000000000000000000029450600486019550887effffffffffffffffffffffffffffffffffffffffffffffffffffffffffffff1916857effffffffffffffffffffffffffffffffffffffffffffffffffffffffffffff19161415613c6957613c498261ffff16613c3b8861ffff168d613de890919063ffffffff16565b6127db90919063ffffffff16565b9050613c6681613c5889610f87565b613e1690919063ffffffff16565b96505b601082018601955083806001019450506139a0565b8697505050505050505092915050565b613c96613f19565b6000613cb485600001518660200151866000015187602001516125d3565b90508460200151836020018181525050846020015181038360000181815250508460000151856020015101811415613cf6576000856000018181525050613d21565b8360000151836000015101856000018181510391508181525050836000015181018560200181815250505b829150509392505050565b60005b602082101515613d545782518452602084019350602083019250602082039150613d2f565b6001826020036101000a0390508019835116818551168181178652505050505050565b8284600001906004811115613d8857fe5b90816004811115613d9557fe5b8152505081846020018181525050600184604001901515908115158152505080846060018181525050600184608001901515908115158152505060008460a0019060ff16908160ff168152505050505050565b613df0613f19565b613df8613f19565b613e0184610f87565b9050613e0d818461268f565b91505092915050565b613e1e613e94565b613e26613e94565b60008360000151856000015101604051805910613e405750595b9080825280601f01601f19166020018201604052509150602082019050613e708186602001518760000151613d2c565b613e898560000151820185602001518660000151613d2c565b819250505092915050565b602060405190810160405280600081525090565b602060405190810160405280600081525090565b602060405190810160405280600081525090565b60c06040519081016040528060006004811115613ee957fe5b81526020016000815260200160001515815260200160008152602001600015158152602001600060ff1681525090565b604080519081016040528060008152602001600081525090565b6060604051908101604052806000815260200160008152602001600081525090565b60c06040519081016040528060006004811115613f6e57fe5b81526020016000815260200160001515815260200160008152602001600015158152602001600060ff16815250905600a165627a7a72305820c58862dd006e399c0aab085c18482449cef800fb7272fef4c0d0a77c4c50e8d50029",
  "source": "pragma solidity ^0.4.1;\n\nimport \"./imported/JsmnSolLib.sol\";\nimport \"./imported/bytesutils.sol\";\nimport \"./imported/tlsnutils.sol\";\n\n\ncontract BTCPriceFeed {\n    using bytesutils for *;\n\n\t// Mapping from timestamp to BTC price in USD cents (= 10**-2 USD)\n    mapping(uint32 => uint32) timestamp_to_price;\n\n\t// Perform parsing of result using JsmnSolLib\n\t// Returns: opening timestamp, opening price, closing timestamp, closing price\n    function parseBitcoinComFeed(string json) external returns(uint32 timestamp0, uint32 price0, uint32 timestamp1, uint32 price1){\n        uint res;\n\t\tstring memory val;\n        JsmnSolLib.Token[] memory tokens;\n        JsmnSolLib.Token memory t;\n        uint num_tokens;\n\t\t// Parse JSON\n        (res, tokens, num_tokens) = JsmnSolLib.parse(json, 50);\n        require(res == 0);\n\n\t\t// Find opening tag\n        t = tokens[1];\n        val = JsmnSolLib.getBytes(json, t.start, t.end);\n\t\trequire(JsmnSolLib.strCompare(val, \"open\") == 0);\n\n\t\t// Ensure price is in result\n        t = tokens[3];\n        val = JsmnSolLib.getBytes(json, t.start, t.end);\n\t\trequire(JsmnSolLib.strCompare(val, \"price\") == 0);\n\n\t\t// Read start price of the day\n        t = tokens[4];\n        price0 = uint32(JsmnSolLib.parseInt(JsmnSolLib.getBytes(json, t.start, t.end)));\n\t\trequire(price0 > 0);\n\n\t\t// Read time tag \n        t = tokens[5];\n        val = JsmnSolLib.getBytes(json, t.start, t.end);\n\t\trequire(JsmnSolLib.strCompare(val, \"time\") == 0);\n\n\t\t// Ensure time is unix timestamp\n        t = tokens[7];\n        val = JsmnSolLib.getBytes(json, t.start, t.end);\n\t\trequire(JsmnSolLib.strCompare(val, \"unix\") == 0);\n\n\t\t// Get opening timestamp\n        t = tokens[8];\n        timestamp0 = uint32(JsmnSolLib.parseInt(JsmnSolLib.getBytes(json, t.start, t.end)));\n\t\trequire(timestamp0 > 0);\n\n\t\t// Get closing tag\n        t = tokens[11];\n        val = JsmnSolLib.getBytes(json, t.start, t.end);\n\t\trequire(JsmnSolLib.strCompare(val, \"close\") == 0);\n\n\t\t// Get price tag\n        t = tokens[13];\n        val = JsmnSolLib.getBytes(json, t.start, t.end);\n\t\trequire(JsmnSolLib.strCompare(val, \"price\") == 0);\n\n\t\t// Get closing price\n        t = tokens[14];\n\t\tprice1 = uint32(JsmnSolLib.parseInt(JsmnSolLib.getBytes(json, t.start, t.end)));\n\t\trequire(price1 > 0);\n \n\t\t// Get time tag\n        t = tokens[15];\n        val = JsmnSolLib.getBytes(json, t.start, t.end);\n\t\trequire(JsmnSolLib.strCompare(val, \"time\") == 0);\n\n\t\t// Ensure time is unix timestamp\n        t = tokens[17];\n        val = JsmnSolLib.getBytes(json, t.start, t.end);\n\t\trequire(JsmnSolLib.strCompare(val, \"unix\") == 0);\n\n\t\t// Get closing timestamp\n        t = tokens[18];\n        timestamp1 = uint32(JsmnSolLib.parseInt(JsmnSolLib.getBytes(json, t.start, t.end)));\n\t\trequire(timestamp1 > 0);\n\n    }\n \n\n\t// Function that allows proof submission\n    function submitProofOfPrice(bytes memory proof){\n        // Check if proof is valid\n        // Elliptic curve parameters for the TLS certificate of tls-n.org\n        uint256 qx = 0x0de2583dc1b70c4d17936f6ca4d2a07aa2aba06b76a97e60e62af286adc1cc09;\n        uint256 qy = 0x68ba8822c94e79903406a002f4bc6a982d1b473f109debb2aa020c66f642144a;\n        require(tlsnutils.verifyProof(proof, qx, qy));\n\n        // Check HTTP Request\n        bytes memory request = tlsnutils.getHTTPRequestURL(proof);\n        // Check that the first part is correct \n        require(request.toSlice().startsWith(\"/proxy.py?url=https%3A//index.bitcoin.com/api/v0/lookup%3Ftime%3D\".toSlice()));\n        // Check that the second part is not too long\n        require(request.toSlice().find(\"%3D\".toSlice()).len() == 13);\n\n        // Check the host (kind of redundant due to signature check) \n        bytes memory host = tlsnutils.getHost(proof);\n        require(host.toSlice().equals(\"tls-n.org\".toSlice()));\n\n        // Get the body\n        bytes memory body = tlsnutils.getHTTPBody(proof);\n\n        uint32 timestamp0;\n        uint32 price0;\n        uint32 timestamp1;\n        uint32 price1;\n\t\t// Parse the timestamps\n        (timestamp0, price0, timestamp1, price1) = this.parseBitcoinComFeed(string(body));\n\t\t// Insert the timestamps\n        timestamp_to_price[timestamp0] = price0; \n        timestamp_to_price[timestamp1] = price1; \n    }\n\n\t// Request a securely inserted price\n\t// Throws if no price found for given timestamp\n\tfunction getPrice(uint32 timestamp) returns (uint32){\n\t\tuint32 price = timestamp_to_price[timestamp];\n\t\t// Make sure this mapping element exists\n\t\trequire(price > 0);\n\t\treturn price;\n\t}\n}\n\n",
  "sourcePath": "/home/bjorn/Projects/BGRVerify/contracts/BTCPriceFeed.sol",
  "compiler": {
    "name": "solc",
    "version": "0.4.21+commit.dfe3193c.Emscripten.clang"
  },
  "schemaVersion": "2.0.0",
  "updatedAt": "2018-06-04T14:47:02.875Z"
}