{
  "contractName": "BTCPriceFeed",
  "abi": [
    {
      "constant": false,
      "inputs": [
        {
          "name": "json",
          "type": "string"
        }
      ],
      "name": "parseBitcoinComFeed",
      "outputs": [
        {
          "name": "timestamp0",
          "type": "uint32"
        },
        {
          "name": "price0",
          "type": "uint32"
        },
        {
          "name": "timestamp1",
          "type": "uint32"
        },
        {
          "name": "price1",
          "type": "uint32"
        }
      ],
      "payable": false,
      "stateMutability": "nonpayable",
      "type": "function"
    },
    {
      "constant": false,
      "inputs": [
        {
          "name": "proof",
          "type": "bytes"
        }
      ],
      "name": "verify",
      "outputs": [
        {
          "name": "",
          "type": "bool"
        }
      ],
      "payable": false,
      "stateMutability": "nonpayable",
      "type": "function"
    },
    {
      "constant": false,
      "inputs": [
        {
          "name": "proof",
          "type": "bytes"
        }
      ],
      "name": "submitProofOfPrice",
      "outputs": [],
      "payable": false,
      "stateMutability": "nonpayable",
      "type": "function"
    },
    {
      "constant": false,
      "inputs": [
        {
          "name": "timestamp",
          "type": "uint32"
        }
      ],
      "name": "getPrice",
      "outputs": [
        {
          "name": "",
          "type": "uint32"
        }
      ],
      "payable": false,
      "stateMutability": "nonpayable",
      "type": "function"
    }
  ],
  "bytecode": "0x6060604052341561000f57600080fd5b6141948061001e6000396000f300606060405260043610610062576000357c0100000000000000000000000000000000000000000000000000000000900463ffffffff1680635322175e1461006757806378a9e88a146100c45780638e760afe1461014b578063da26663a146101c0575b600080fd5b341561007257600080fd5b6100c2600480803590602001908201803590602001908080601f01602080910402602001604051908101604052809392919081815260200183838082843782019150505050505091905050610209565b005b34156100cf57600080fd5b6100f0600480803590602001908201803590602001919091929050506106a5565b604051808563ffffffff1663ffffffff1681526020018463ffffffff1663ffffffff1681526020018363ffffffff1663ffffffff1681526020018263ffffffff1663ffffffff16815260200194505050505060405180910390f35b341561015657600080fd5b6101a6600480803590602001908201803590602001908080601f01602080910402602001604051908101604052809392919081815260200183838082843782019150505050505091905050610ea1565b604051808215151515815260200191505060405180910390f35b34156101cb57600080fd5b6101e7600480803563ffffffff16906020019091905050610feb565b604051808263ffffffff1663ffffffff16815260200191505060405180910390f35b60008061021461405e565b61021c61405e565b61022461405e565b6000806000807f0de2583dc1b70c4d17936f6ca4d2a07aa2aba06b76a97e60e62af286adc1cc0998507f68ba8822c94e79903406a002f4bc6a982d1b473f109debb2aa020c66f642144a975073__tlsnutils_____________________________635569909f8b8b8b6040518463ffffffff167c01000000000000000000000000000000000000000000000000000000000281526004018080602001848152602001838152602001828103825285818151815260200191508051906020019080838360005b838110156103045780820151818401526020810190506102e9565b50505050905090810190601f1680156103315780820380516001836020036101000a031916815260200191505b5094505050505060206040518083038186803b151561034f57600080fd5b5af4151561035c57600080fd5b50505060405180519050151561037157600080fd5b61037a8a61103d565b965061042161040a608060405190810160405280604181526020017f2f70726f78792e70793f75726c3d68747470732533412f2f696e6465782e626981526020017f74636f696e2e636f6d2f6170692f76302f6c6f6f6b757025334674696d65253381526020017f4400000000000000000000000000000000000000000000000000000000000000815250611151565b61041389611151565b61117f90919063ffffffff16565b151561042c57600080fd5b600d61048e6104896104726040805190810160405280600381526020017f2533440000000000000000000000000000000000000000000000000000000000815250611151565b61047b8b611151565b6111d790919063ffffffff16565b611229565b14151561049a57600080fd5b6104a38a611237565b95506104fd6104e66040805190810160405280600981526020017f746c732d6e2e6f72670000000000000000000000000000000000000000000000815250611151565b6104ef88611151565b6113fc90919063ffffffff16565b151561050857600080fd5b6105118a611412565b94503073ffffffffffffffffffffffffffffffffffffffff166378a9e88a866040518263ffffffff167c01000000000000000000000000000000000000000000000000000000000281526004018080602001828103825283818151815260200191508051906020019080838360005b8381101561059b578082015181840152602081019050610580565b50505050905090810190601f1680156105c85780820380516001836020036101000a031916815260200191505b5092505050608060405180830381600087803b15156105e657600080fd5b5af115156105f357600080fd5b5050506040518051906020018051906020018051906020018051905080945081955082965083975050505050826000808663ffffffff1663ffffffff16815260200190815260200160002060006101000a81548163ffffffff021916908363ffffffff160217905550806000808463ffffffff1663ffffffff16815260200190815260200160002060006101000a81548163ffffffff021916908363ffffffff16021790555050505050505050505050565b60008060008060006106b5614072565b6106bd614086565b6106c561409a565b60006107048b8b8080601f0160208091040260200160405190810160405280939291908181526020018383808284378201915050505050506032611538565b80935081955082975050505060008514151561071f57600080fd5b82600181518110151561072e57fe5b90602001906020020151915061077f8b8b8080601f0160208091040260200160405190810160405280939291908181526020018383808284378201915050505050508360200151846060015161230e565b935060006107c2856040805190810160405280600481526020017f6f70656e00000000000000000000000000000000000000000000000000000000815250612411565b1415156107ce57600080fd5b8260038151811015156107dd57fe5b90602001906020020151915061082e8b8b8080601f0160208091040260200160405190810160405280939291908181526020018383808284378201915050505050508360200151846060015161230e565b93506000610871856040805190810160405280600581526020017f7072696365000000000000000000000000000000000000000000000000000000815250612411565b14151561087d57600080fd5b82600481518110151561088c57fe5b9060200190602002015191506108e56108e08c8c8080601f0160208091040260200160405190810160405280939291908181526020018383808284378201915050505050508460200151856060015161230e565b6126d5565b975060008863ffffffff161115156108fc57600080fd5b82600581518110151561090b57fe5b90602001906020020151915061095c8b8b8080601f0160208091040260200160405190810160405280939291908181526020018383808284378201915050505050508360200151846060015161230e565b9350600061099f856040805190810160405280600481526020017f74696d6500000000000000000000000000000000000000000000000000000000815250612411565b1415156109ab57600080fd5b8260078151811015156109ba57fe5b906020019060200201519150610a0b8b8b8080601f0160208091040260200160405190810160405280939291908181526020018383808284378201915050505050508360200151846060015161230e565b93506000610a4e856040805190810160405280600481526020017f756e697800000000000000000000000000000000000000000000000000000000815250612411565b141515610a5a57600080fd5b826008815181101515610a6957fe5b906020019060200201519150610ac2610abd8c8c8080601f0160208091040260200160405190810160405280939291908181526020018383808284378201915050505050508460200151856060015161230e565b6126d5565b985060008963ffffffff16111515610ad957600080fd5b82600b815181101515610ae857fe5b906020019060200201519150610b398b8b8080601f0160208091040260200160405190810160405280939291908181526020018383808284378201915050505050508360200151846060015161230e565b93506000610b7c856040805190810160405280600581526020017f636c6f7365000000000000000000000000000000000000000000000000000000815250612411565b141515610b8857600080fd5b82600d815181101515610b9757fe5b906020019060200201519150610be88b8b8080601f0160208091040260200160405190810160405280939291908181526020018383808284378201915050505050508360200151846060015161230e565b93506000610c2b856040805190810160405280600581526020017f7072696365000000000000000000000000000000000000000000000000000000815250612411565b141515610c3757600080fd5b82600e815181101515610c4657fe5b906020019060200201519150610c9f610c9a8c8c8080601f0160208091040260200160405190810160405280939291908181526020018383808284378201915050505050508460200151856060015161230e565b6126d5565b955060008663ffffffff16111515610cb657600080fd5b82600f815181101515610cc557fe5b906020019060200201519150610d168b8b8080601f0160208091040260200160405190810160405280939291908181526020018383808284378201915050505050508360200151846060015161230e565b93506000610d59856040805190810160405280600481526020017f74696d6500000000000000000000000000000000000000000000000000000000815250612411565b141515610d6557600080fd5b826011815181101515610d7457fe5b906020019060200201519150610dc58b8b8080601f0160208091040260200160405190810160405280939291908181526020018383808284378201915050505050508360200151846060015161230e565b93506000610e08856040805190810160405280600481526020017f756e697800000000000000000000000000000000000000000000000000000000815250612411565b141515610e1457600080fd5b826012815181101515610e2357fe5b906020019060200201519150610e7c610e778c8c8080601f0160208091040260200160405190810160405280939291908181526020018383808284378201915050505050508460200151856060015161230e565b6126d5565b965060008763ffffffff16111515610e9357600080fd5b505050505092959194509250565b60008060007f0de2583dc1b70c4d17936f6ca4d2a07aa2aba06b76a97e60e62af286adc1cc0991507f68ba8822c94e79903406a002f4bc6a982d1b473f109debb2aa020c66f642144a905073__tlsnutils_____________________________635569909f8584846040518463ffffffff167c01000000000000000000000000000000000000000000000000000000000281526004018080602001848152602001838152602001828103825285818151815260200191508051906020019080838360005b83811015610f80578082015181840152602081019050610f65565b50505050905090810190601f168015610fad5780820380516001836020036101000a031916815260200191505b5094505050505060206040518083038186803b1515610fcb57600080fd5b5af41515610fd857600080fd5b5050506040518051905092505050919050565b6000806000808463ffffffff1663ffffffff16815260200190815260200160002060009054906101000a900463ffffffff16905060008163ffffffff1611151561103457600080fd5b80915050919050565b61104561405e565b61104d61405e565b6110556140e3565b61105d6140e3565b6110656140e3565b61106e866126e9565b935061107984611151565b92506110b96040805190810160405280600181526020017f2000000000000000000000000000000000000000000000000000000000000000815250611151565b91506110ce828461272590919063ffffffff16565b90506111206111116040805190810160405280600381526020017f4745540000000000000000000000000000000000000000000000000000000000815250611151565b826113fc90919063ffffffff16565b151561112b57600080fd5b611146611141838561272590919063ffffffff16565b61273f565b945050505050919050565b6111596140e3565b600060208301905060408051908101604052808451815260200182815250915050919050565b60008082600001518460000151101561119b57600091506111d0565b8260200151846020015114156111b457600191506111d0565b8251602085015160208501518281208383201493505050508091505b5092915050565b6111df6140e3565b60006111fd846000015185602001518560000151866020015161279d565b905083602001518103846000018181510391508181525050808460200181815250508391505092915050565b600081600001519050919050565b61123f61405e565b6112476140e3565b611258611253846126e9565b611151565b90506112aa61129b6040805190810160405280600481526020017f0d0a0d0a00000000000000000000000000000000000000000000000000000000815250611151565b8261272590919063ffffffff16565b90506112fc6112ed6040805190810160405280600581526020017f486f73743a000000000000000000000000000000000000000000000000000000815250611151565b826111d790919063ffffffff16565b5061131160058261285990919063ffffffff16565b506113626113536040805190810160405280600281526020017f0d0a000000000000000000000000000000000000000000000000000000000000815250611151565b8261272590919063ffffffff16565b90505b6113b56113a66040805190810160405280600181526020017f2000000000000000000000000000000000000000000000000000000000000000815250611151565b8261117f90919063ffffffff16565b156113d4576113ce60018261285990919063ffffffff16565b50611365565b60006113df82611229565b1115156113eb57600080fd5b6113f48161273f565b915050919050565b60008061140984846128af565b14905092915050565b61141a61405e565b61142261405e565b61142a6140e3565b6114326140e3565b61143b85612969565b9250611459600f61144b85611151565b6129a590919063ffffffff16565b91506114ab61149c6040805190810160405280600f81526020017f485454502f312e3120323030204f4b0000000000000000000000000000000000815250611151565b836113fc90919063ffffffff16565b15156114b657600080fd5b61150e6114f76040805190810160405280600481526020017f0d0a0d0a00000000000000000000000000000000000000000000000000000000815250611151565b61150085611151565b6111d790919063ffffffff16565b905061152460048261285990919063ffffffff16565b5061152e8161273f565b9350505050919050565b6000611542614086565b600061154c61405e565b6115546140fd565b61155c614086565b600080600080600061156c61409a565b6000808f9a5061157b8f6129cd565b99509950896020015196505b8a518a6000015110156122ed578a8a600001518151811015156115a657fe5b9060200101517f010000000000000000000000000000000000000000000000000000000000000090047f0100000000000000000000000000000000000000000000000000000000000000029450607b7f010000000000000000000000000000000000000000000000000000000000000002857effffffffffffffffffffffffffffffffffffffffffffffffffffffffffffff1916148061168a5750605b7f010000000000000000000000000000000000000000000000000000000000000002857effffffffffffffffffffffffffffffffffffffffffffffffffffffffffffff1916145b156117ca5786806001019750506116a18a8a612a81565b935093508315156116bf5760038960008090509d509d509d506122fc565b7fffffffffffffffffffffffffffffffffffffffffffffffffffffffffffffffff8a6040015114151561171e57888a604001518151811015156116fe57fe5b9060200190602002015160a001805180919060010160ff1660ff16815250505b607b7f010000000000000000000000000000000000000000000000000000000000000002857effffffffffffffffffffffffffffffffffffffffffffffffffffffffffffff191614611771576002611774565b60015b8360000190600481111561178457fe5b9081600481111561179157fe5b815250508960000151836020018181525050600183604001901515908115158152505060018a60200151038a60400181815250506122d8565b607d7f010000000000000000000000000000000000000000000000000000000000000002857effffffffffffffffffffffffffffffffffffffffffffffffffffffffffffff191614806118615750605d7f010000000000000000000000000000000000000000000000000000000000000002857effffffffffffffffffffffffffffffffffffffffffffffffffffffffffffff1916145b15611aa157607d7f010000000000000000000000000000000000000000000000000000000000000002857effffffffffffffffffffffffffffffffffffffffffffffffffffffffffffff1916146118b95760026118bc565b60015b91506000905060018a602001510395505b6000861015156119d05788868151811015156118e557fe5b9060200190602002015192508260400151801561190457508260800151155b156119c25781600481111561191557fe5b8360000151600481111561192557fe5b14151561193f5760018960008090509d509d509d506122fc565b7fffffffffffffffffffffffffffffffffffffffffffffffffffffffffffffffff8a604001818152505060018a6000015101898781518110151561197f57fe5b906020019060200201516060018181525050600189878151811015156119a157fe5b906020019060200201516080019015159081151581525050600190506119d0565b8580600190039650506118cd565b8015156119ea5760018960008090509d509d509d506122fc565b5b6000861115611a43578886815181101515611a0257fe5b90602001906020020151925082604001518015611a2157508260800151155b15611a3557858a6040018181525050611a43565b8580600190039650506119eb565b6000861415611a9c578886815181101515611a5a57fe5b90602001906020020151925082604001518015611a7957508260800151155b15611a9b57856fffffffffffffffffffffffffffffffff168a60400181815250505b5b6122d8565b7f2200000000000000000000000000000000000000000000000000000000000000857effffffffffffffffffffffffffffffffffffffffffffffffffffffffffffff19161415611b8057611af68a8a8d612b53565b9750600088141515611b1457878960008090509d509d509d506122fc565b86806001019750507fffffffffffffffffffffffffffffffffffffffffffffffffffffffffffffffff8a60400151141515611b7b57888a60400151815181101515611b5b57fe5b9060200190602002015160a001805180919060010160ff1660ff16815250505b6122d8565b7f2000000000000000000000000000000000000000000000000000000000000000857effffffffffffffffffffffffffffffffffffffffffffffffffffffffffffff19161480611c14575060117f010000000000000000000000000000000000000000000000000000000000000002857effffffffffffffffffffffffffffffffffffffffffffffffffffffffffffff1916145b80611c63575060127f010000000000000000000000000000000000000000000000000000000000000002857effffffffffffffffffffffffffffffffffffffffffffffffffffffffffffff1916145b80611cb2575060147f010000000000000000000000000000000000000000000000000000000000000002857effffffffffffffffffffffffffffffffffffffffffffffffffffffffffffff1916145b15611cbc576122d8565b7f3a00000000000000000000000000000000000000000000000000000000000000857effffffffffffffffffffffffffffffffffffffffffffffffffffffffffffff19161415611d1c5760018a60200151038a60400181815250506122d8565b7f2c00000000000000000000000000000000000000000000000000000000000000857effffffffffffffffffffffffffffffffffffffffffffffffffffffffffffff19161415611f0c577fffffffffffffffffffffffffffffffffffffffffffffffffffffffffffffffff8a6040015114158015611dd0575060026004811115611da257fe5b898b60400151815181101515611db457fe5b90602001906020020151600001516004811115611dcd57fe5b14155b8015611e12575060016004811115611de457fe5b898b60400151815181101515611df657fe5b90602001906020020151600001516004811115611e0f57fe5b14155b15611f075760018a602001510395505b600086101515611f065760026004811115611e3957fe5b8987815181101515611e4757fe5b90602001906020020151600001516004811115611e6057fe5b1480611e9d575060016004811115611e7457fe5b8987815181101515611e8257fe5b90602001906020020151600001516004811115611e9b57fe5b145b15611ef8578886815181101515611eb057fe5b90602001906020020151604001518015611ee357508886815181101515611ed357fe5b9060200190602002015160800151155b15611ef757858a6040018181525050611f06565b5b858060019003965050611e22565b5b6122d8565b7f3000000000000000000000000000000000000000000000000000000000000000857effffffffffffffffffffffffffffffffffffffffffffffffffffffffffffff191610158015611fa057507f3900000000000000000000000000000000000000000000000000000000000000857effffffffffffffffffffffffffffffffffffffffffffffffffffffffffffff191611155b80611fec57507f2d00000000000000000000000000000000000000000000000000000000000000857effffffffffffffffffffffffffffffffffffffffffffffffffffffffffffff1916145b8061203857507f6600000000000000000000000000000000000000000000000000000000000000857effffffffffffffffffffffffffffffffffffffffffffffffffffffffffffff1916145b8061208457507f7400000000000000000000000000000000000000000000000000000000000000857effffffffffffffffffffffffffffffffffffffffffffffffffffffffffffff1916145b806120d057507f6e00000000000000000000000000000000000000000000000000000000000000857effffffffffffffffffffffffffffffffffffffffffffffffffffffffffffff1916145b15612225577fffffffffffffffffffffffffffffffffffffffffffffffffffffffffffffffff8a6040015114151561219057888a6040015181518110151561211457fe5b9060200190602002015192506001600481111561212d57fe5b8360000151600481111561213d57fe5b148061217757506003600481111561215157fe5b8360000151600481111561216157fe5b148015612176575060008360a0015160ff1614155b5b1561218f5760018960008090509d509d509d506122fc565b5b61219b8a8a8d61326a565b97506000881415156121b957878960008090509d509d509d506122fc565b86806001019750507fffffffffffffffffffffffffffffffffffffffffffffffffffffffffffffffff8a6040015114151561222057888a6040015181518110151561220057fe5b9060200190602002015160a001805180919060010160ff1660ff16815250505b6122d8565b60207f010000000000000000000000000000000000000000000000000000000000000002857effffffffffffffffffffffffffffffffffffffffffffffffffffffffffffff1916101580156122bf5750607e7f010000000000000000000000000000000000000000000000000000000000000002857effffffffffffffffffffffffffffffffffffffffffffffffffffffffffffff191611155b156122d75760018960008090509d509d509d506122fc565b5b89600001805180919060010181525050611587565b6000898b602001519d509d509d505b50505050505050505050509250925092565b612316614072565b61231e61405e565b61232661405e565b600086925085850360405180591061233b5750595b9080825280601f01601f191660200182016040525091508590505b8481101561240457828181518110151561236c57fe5b9060200101517f010000000000000000000000000000000000000000000000000000000000000090047f010000000000000000000000000000000000000000000000000000000000000002828783038151811015156123c757fe5b9060200101907effffffffffffffffffffffffffffffffffffffffffffffffffffffffffffff1916908160001a9053508080600101915050612356565b8193505050509392505050565b600061241b61405e565b61242361405e565b60008086935085925083519150818351101561243e57825191505b600090505b8181101561268157828181518110151561245957fe5b9060200101517f010000000000000000000000000000000000000000000000000000000000000090047f0100000000000000000000000000000000000000000000000000000000000000027effffffffffffffffffffffffffffffffffffffffffffffffffffffffffffff191684828151811015156124d457fe5b9060200101517f010000000000000000000000000000000000000000000000000000000000000090047f0100000000000000000000000000000000000000000000000000000000000000027effffffffffffffffffffffffffffffffffffffffffffffffffffffffffffff1916101561256f577fffffffffffffffffffffffffffffffffffffffffffffffffffffffffffffffff94506126cb565b828181518110151561257d57fe5b9060200101517f010000000000000000000000000000000000000000000000000000000000000090047f0100000000000000000000000000000000000000000000000000000000000000027effffffffffffffffffffffffffffffffffffffffffffffffffffffffffffff191684828151811015156125f857fe5b9060200101517f010000000000000000000000000000000000000000000000000000000000000090047f0100000000000000000000000000000000000000000000000000000000000000027effffffffffffffffffffffffffffffffffffffffffffffffffffffffffffff1916111561267457600194506126cb565b8080600101915050612443565b8251845110156126b3577fffffffffffffffffffffffffffffffffffffffffffffffffffffffffffffffff94506126cb565b8251845111156126c657600194506126cb565b600094505b5050505092915050565b60006126e282600061364c565b9050919050565b6126f161405e565b61271e8260007f010000000000000000000000000000000000000000000000000000000000000002613a2b565b9050919050565b61272d6140e3565b612738838383613e58565b5092915050565b61274761405e565b61274f61405e565b600083600001516040518059106127635750595b9080825280601f01601f191660200182016040525091506020820190506127938185602001518660000151613ef6565b8192505050919050565b60008060008060008887111515612847576020871115156127fe5760018760200360080260020a031980875116888b038a018a96505b8183885116146127f3576001870196508060018803106127d3578b8b0196505b50505083945061284d565b8686209150879350600092505b868903831115156128465786842090508060001916826000191614156128335783945061284d565b600184019350828060010193505061280b565b5b88880194505b50505050949350505050565b6128616140e3565b82600001518263ffffffff161115151561287a57600080fd5b8163ffffffff168360200181815101915081815250508163ffffffff1683600001818151039150818152505082905092915050565b60008060008060008060008060008a6000015197508a600001518a6000015110156128dc57896000015197505b8a60200151965089602001519550600094505b8785101561294d578651935085519250828414151561293657600185896020030160080260020a031991508183168285160390506000811415156129355780985061295b565b5b6020870196506020860195506020850194506128ef565b89600001518b600001510398505b505050505050505092915050565b61297161405e565b61299e8260017f010000000000000000000000000000000000000000000000000000000000000002613a2b565b9050919050565b6129ad6140e3565b81836000015111156129c457818360000181815250505b82905092915050565b6129d56140fd565b6129dd614086565b6129e56140fd565b6129ed614086565b60606040519081016040528060008152602001600081526020017fffffffffffffffffffffffffffffffffffffffffffffffffffffffffffffffff815250915084604051805910612a3b5750595b908082528060200260200182016040528015612a7157816020015b612a5e61411f565b815260200190600190039081612a565790505b5090508181935093505050915091565b6000612a8b61409a565b612a9361409a565b83518560200151101515612acb576000846001865103815181101515612ab557fe5b9060200190602002015180905092509250612b4b565b60c06040519081016040528060006004811115612ae457fe5b81526020016000815260200160001515815260200160008152602001600015158152602001600060ff16815250905080848660200151815181101515612b2657fe5b9060200190602002018190525084602001805180919060010181525050600181925092505b509250929050565b600080600080612b6161409a565b87600001519350876000018051809190600101815250505b85518860000151101561325057858860000151815181101515612b9857fe5b9060200101517f010000000000000000000000000000000000000000000000000000000000000090047f01000000000000000000000000000000000000000000000000000000000000000292507f2200000000000000000000000000000000000000000000000000000000000000837effffffffffffffffffffffffffffffffffffffffffffffffffffffffffffff19161415612c7457612c398888612a81565b91509150811515612c5757838860000181815250506003945061325f565b612c6b816003600187018b60000151613f41565b6000945061325f565b605c7f010000000000000000000000000000000000000000000000000000000000000002837effffffffffffffffffffffffffffffffffffffffffffffffffffffffffffff1916148015612ccf575085516001896000015101105b1561323a57876000018051809190600101815250507f2200000000000000000000000000000000000000000000000000000000000000868960000151815181101515612d1757fe5b9060200101517f010000000000000000000000000000000000000000000000000000000000000090047f0100000000000000000000000000000000000000000000000000000000000000027effffffffffffffffffffffffffffffffffffffffffffffffffffffffffffff19161480612e2d57507f2f00000000000000000000000000000000000000000000000000000000000000868960000151815181101515612dbe57fe5b9060200101517f010000000000000000000000000000000000000000000000000000000000000090047f0100000000000000000000000000000000000000000000000000000000000000027effffffffffffffffffffffffffffffffffffffffffffffffffffffffffffff1916145b80612ed557507f5c00000000000000000000000000000000000000000000000000000000000000868960000151815181101515612e6657fe5b9060200101517f010000000000000000000000000000000000000000000000000000000000000090047f0100000000000000000000000000000000000000000000000000000000000000027effffffffffffffffffffffffffffffffffffffffffffffffffffffffffffff1916145b80612f7d57507f6600000000000000000000000000000000000000000000000000000000000000868960000151815181101515612f0e57fe5b9060200101517f010000000000000000000000000000000000000000000000000000000000000090047f0100000000000000000000000000000000000000000000000000000000000000027effffffffffffffffffffffffffffffffffffffffffffffffffffffffffffff1916145b8061302557507f7200000000000000000000000000000000000000000000000000000000000000868960000151815181101515612fb657fe5b9060200101517f010000000000000000000000000000000000000000000000000000000000000090047f0100000000000000000000000000000000000000000000000000000000000000027effffffffffffffffffffffffffffffffffffffffffffffffffffffffffffff1916145b806130cd57507f6e0000000000000000000000000000000000000000000000000000000000000086896000015181518110151561305e57fe5b9060200101517f010000000000000000000000000000000000000000000000000000000000000090047f0100000000000000000000000000000000000000000000000000000000000000027effffffffffffffffffffffffffffffffffffffffffffffffffffffffffffff1916145b8061317557507f620000000000000000000000000000000000000000000000000000000000000086896000015181518110151561310657fe5b9060200101517f010000000000000000000000000000000000000000000000000000000000000090047f0100000000000000000000000000000000000000000000000000000000000000027effffffffffffffffffffffffffffffffffffffffffffffffffffffffffffff1916145b8061321d57507f74000000000000000000000000000000000000000000000000000000000000008689600001518151811015156131ae57fe5b9060200101517f010000000000000000000000000000000000000000000000000000000000000090047f0100000000000000000000000000000000000000000000000000000000000000027effffffffffffffffffffffffffffffffffffffffffffffffffffffffffffff1916145b156132275761323b565b838860000181815250506001945061325f565b5b87600001805180919060010181525050612b79565b83886000018181525050600294505b505050509392505050565b600080600080600061327a61409a565b60009450886000015193505b8651896000015110156135d7578689600001518151811015156132a557fe5b9060200101517f010000000000000000000000000000000000000000000000000000000000000090047f01000000000000000000000000000000000000000000000000000000000000000292507f2000000000000000000000000000000000000000000000000000000000000000837effffffffffffffffffffffffffffffffffffffffffffffffffffffffffffff1916148061338357507f0900000000000000000000000000000000000000000000000000000000000000837effffffffffffffffffffffffffffffffffffffffffffffffffffffffffffff1916145b806133cf57507f0a00000000000000000000000000000000000000000000000000000000000000837effffffffffffffffffffffffffffffffffffffffffffffffffffffffffffff1916145b8061341b57507f0d00000000000000000000000000000000000000000000000000000000000000837effffffffffffffffffffffffffffffffffffffffffffffffffffffffffffff1916145b8061346757507f2c00000000000000000000000000000000000000000000000000000000000000837effffffffffffffffffffffffffffffffffffffffffffffffffffffffffffff1916145b806134b65750607d7f010000000000000000000000000000000000000000000000000000000000000002837effffffffffffffffffffffffffffffffffffffffffffffffffffffffffffff1916145b806135055750605d7f010000000000000000000000000000000000000000000000000000000000000002837effffffffffffffffffffffffffffffffffffffffffffffffffffffffffffff1916145b1561351357600194506135d7565b60207f010000000000000000000000000000000000000000000000000000000000000002837effffffffffffffffffffffffffffffffffffffffffffffffffffffffffffff191610806135aa5750607f7f010000000000000000000000000000000000000000000000000000000000000002837effffffffffffffffffffffffffffffffffffffffffffffffffffffffffffff1916115b156135c2578389600001818152505060019550613640565b88600001805180919060010181525050613286565b8415156135f1578389600001818152505060029550613640565b6135fb8989612a81565b91509150811515613619578389600001818152505060039550613640565b61362a816004868c60000151613f41565b8860000180518091906001900381525050600095505b50505050509392505050565b600061365661405e565b600080600080879450600093506000925060009150600090505b84518110156139df5760008114801561372257507f2d0000000000000000000000000000000000000000000000000000000000000085828151811015156136b357fe5b9060200101517f010000000000000000000000000000000000000000000000000000000000000090047f0100000000000000000000000000000000000000000000000000000000000000027effffffffffffffffffffffffffffffffffffffffffffffffffffffffffffff1916145b1561372c57600191505b60307f010000000000000000000000000000000000000000000000000000000000000002858281518110151561375e57fe5b9060200101517f010000000000000000000000000000000000000000000000000000000000000090047f0100000000000000000000000000000000000000000000000000000000000000027effffffffffffffffffffffffffffffffffffffffffffffffffffffffffffff191610158015613876575060397f010000000000000000000000000000000000000000000000000000000000000002858281518110151561380657fe5b9060200101517f010000000000000000000000000000000000000000000000000000000000000090047f0100000000000000000000000000000000000000000000000000000000000000027effffffffffffffffffffffffffffffffffffffffffffffffffffffffffffff191611155b1561392757821561389957600087141561388f576139df565b8680600190039750505b600a84029350603085828151811015156138af57fe5b9060200101517f010000000000000000000000000000000000000000000000000000000000000090047f0100000000000000000000000000000000000000000000000000000000000000027f0100000000000000000000000000000000000000000000000000000000000000900403840193506139d2565b602e7f010000000000000000000000000000000000000000000000000000000000000002858281518110151561395957fe5b9060200101517f010000000000000000000000000000000000000000000000000000000000000090047f0100000000000000000000000000000000000000000000000000000000000000027effffffffffffffffffffffffffffffffffffffffffffffffffffffffffffff191614156139d157600192505b5b8080600101915050613670565b60008711156139f15786600a0a840293505b8115613a1d577fffffffffffffffffffffffffffffffffffffffffffffffffffffffffffffffff840293505b839550505050505092915050565b613a3361405e565b613a3b61405e565b6000806000806000613a4b6140e3565b602060405190810160405280600081525096506060955089601b815181101515613a7157fe5b9060200101517f010000000000000000000000000000000000000000000000000000000000000090047f0100000000000000000000000000000000000000000000000000000000000000027f01000000000000000000000000000000000000000000000000000000000000009004610100028a601a815181101515613af257fe5b9060200101517f010000000000000000000000000000000000000000000000000000000000000090047f0100000000000000000000000000000000000000000000000000000000000000027f010000000000000000000000000000000000000000000000000000000000000090040186019550600093505b896007815181101515613b7957fe5b9060200101517f010000000000000000000000000000000000000000000000000000000000000090047f0100000000000000000000000000000000000000000000000000000000000000027f01000000000000000000000000000000000000000000000000000000000000009004610100028a6006815181101515613bfa57fe5b9060200101517f010000000000000000000000000000000000000000000000000000000000000090047f0100000000000000000000000000000000000000000000000000000000000000027f010000000000000000000000000000000000000000000000000000000000000090040161ffff168461ffff161015613e4857602186018a01519250826001600281101515613c9057fe5b1a7f0100000000000000000000000000000000000000000000000000000000000000027f0100000000000000000000000000000000000000000000000000000000000000900461010002836000600281101515613ce957fe5b1a7f0100000000000000000000000000000000000000000000000000000000000000027f01000000000000000000000000000000000000000000000000000000000000009004019150896003870161ffff16815181101515613d4757fe5b9060200101517f010000000000000000000000000000000000000000000000000000000000000090047f0100000000000000000000000000000000000000000000000000000000000000029450600486019550887effffffffffffffffffffffffffffffffffffffffffffffffffffffffffffff1916857effffffffffffffffffffffffffffffffffffffffffffffffffffffffffffff19161415613e3357613e138261ffff16613e058861ffff168d613fb290919063ffffffff16565b6129a590919063ffffffff16565b9050613e3081613e2289611151565b613fe090919063ffffffff16565b96505b60108201860195508380600101945050613b6a565b8697505050505050505092915050565b613e606140e3565b6000613e7e856000015186602001518660000151876020015161279d565b90508460200151836020018181525050846020015181038360000181815250508460000151856020015101811415613ec0576000856000018181525050613eeb565b8360000151836000015101856000018181510391508181525050836000015181018560200181815250505b829150509392505050565b60005b602082101515613f1e5782518452602084019350602083019250602082039150613ef9565b6001826020036101000a0390508019835116818551168181178652505050505050565b8284600001906004811115613f5257fe5b90816004811115613f5f57fe5b8152505081846020018181525050600184604001901515908115158152505080846060018181525050600184608001901515908115158152505060008460a0019060ff16908160ff168152505050505050565b613fba6140e3565b613fc26140e3565b613fcb84611151565b9050613fd78184612859565b91505092915050565b613fe861405e565b613ff061405e565b6000836000015185600001510160405180591061400a5750595b9080825280601f01601f1916602001820160405250915060208201905061403a8186602001518760000151613ef6565b6140538560000151820185602001518660000151613ef6565b819250505092915050565b602060405190810160405280600081525090565b602060405190810160405280600081525090565b602060405190810160405280600081525090565b60c060405190810160405280600060048111156140b357fe5b81526020016000815260200160001515815260200160008152602001600015158152602001600060ff1681525090565b604080519081016040528060008152602001600081525090565b6060604051908101604052806000815260200160008152602001600081525090565b60c0604051908101604052806000600481111561413857fe5b81526020016000815260200160001515815260200160008152602001600015158152602001600060ff16815250905600a165627a7a72305820a9b7750b0732be00690af287b647f785afbee93323c1e741231f7bffe03debe70029",
  "source": "pragma solidity ^0.4.1;\n\nimport \"./imported/JsmnSolLib.sol\";\nimport \"./imported/bytesutils.sol\";\nimport \"./imported/tlsnutils.sol\";\n\n\ncontract BTCPriceFeed {\n    using bytesutils for *;\n\n\t// Mapping from timestamp to BTC price in USD cents (= 10**-2 USD)\n    mapping(uint32 => uint32) timestamp_to_price;\n\n\t// Perform parsing of result using JsmnSolLib\n\t// Returns: opening timestamp, opening price, closing timestamp, closing price\n    function parseBitcoinComFeed(string json) external returns(uint32 timestamp0, uint32 price0, uint32 timestamp1, uint32 price1){\n        uint res;\n\t\tstring memory val;\n        JsmnSolLib.Token[] memory tokens;\n        JsmnSolLib.Token memory t;\n        uint num_tokens;\n\t\t// Parse JSON\n        (res, tokens, num_tokens) = JsmnSolLib.parse(json, 50);\n        require(res == 0);\n\n\t\t// Find opening tag\n        t = tokens[1];\n        val = JsmnSolLib.getBytes(json, t.start, t.end);\n\t\trequire(JsmnSolLib.strCompare(val, \"open\") == 0);\n\n\t\t// Ensure price is in result\n        t = tokens[3];\n        val = JsmnSolLib.getBytes(json, t.start, t.end);\n\t\trequire(JsmnSolLib.strCompare(val, \"price\") == 0);\n\n\t\t// Read start price of the day\n        t = tokens[4];\n        price0 = uint32(JsmnSolLib.parseInt(JsmnSolLib.getBytes(json, t.start, t.end)));\n\t\trequire(price0 > 0);\n\n\t\t// Read time tag\n        t = tokens[5];\n        val = JsmnSolLib.getBytes(json, t.start, t.end);\n\t\trequire(JsmnSolLib.strCompare(val, \"time\") == 0);\n\n\t\t// Ensure time is unix timestamp\n        t = tokens[7];\n        val = JsmnSolLib.getBytes(json, t.start, t.end);\n\t\trequire(JsmnSolLib.strCompare(val, \"unix\") == 0);\n\n\t\t// Get opening timestamp\n        t = tokens[8];\n        timestamp0 = uint32(JsmnSolLib.parseInt(JsmnSolLib.getBytes(json, t.start, t.end)));\n\t\trequire(timestamp0 > 0);\n\n\t\t// Get closing tag\n        t = tokens[11];\n        val = JsmnSolLib.getBytes(json, t.start, t.end);\n\t\trequire(JsmnSolLib.strCompare(val, \"close\") == 0);\n\n\t\t// Get price tag\n        t = tokens[13];\n        val = JsmnSolLib.getBytes(json, t.start, t.end);\n\t\trequire(JsmnSolLib.strCompare(val, \"price\") == 0);\n\n\t\t// Get closing price\n        t = tokens[14];\n\t\tprice1 = uint32(JsmnSolLib.parseInt(JsmnSolLib.getBytes(json, t.start, t.end)));\n\t\trequire(price1 > 0);\n\n\t\t// Get time tag\n        t = tokens[15];\n        val = JsmnSolLib.getBytes(json, t.start, t.end);\n\t\trequire(JsmnSolLib.strCompare(val, \"time\") == 0);\n\n\t\t// Ensure time is unix timestamp\n        t = tokens[17];\n        val = JsmnSolLib.getBytes(json, t.start, t.end);\n\t\trequire(JsmnSolLib.strCompare(val, \"unix\") == 0);\n\n\t\t// Get closing timestamp\n        t = tokens[18];\n        timestamp1 = uint32(JsmnSolLib.parseInt(JsmnSolLib.getBytes(json, t.start, t.end)));\n\t\trequire(timestamp1 > 0);\n\n    }\n\n    function verify(bytes memory proof) returns (bool) {\n        // Check if proof is valid\n        // Elliptic curve parameters for the TLS certificate of tls-n.org\n        uint256 qx = 0x0de2583dc1b70c4d17936f6ca4d2a07aa2aba06b76a97e60e62af286adc1cc09;\n        uint256 qy = 0x68ba8822c94e79903406a002f4bc6a982d1b473f109debb2aa020c66f642144a;\n        return tlsnutils.verifyProof(proof, qx, qy);\n    }\n\n\n\t// Function that allows proof submission\n    function submitProofOfPrice(bytes memory proof){\n        // Check if proof is valid\n        // Elliptic curve parameters for the TLS certificate of tls-n.org\n        uint256 qx = 0x0de2583dc1b70c4d17936f6ca4d2a07aa2aba06b76a97e60e62af286adc1cc09;\n        uint256 qy = 0x68ba8822c94e79903406a002f4bc6a982d1b473f109debb2aa020c66f642144a;\n        require(tlsnutils.verifyProof(proof, qx, qy));\n\n        // Check HTTP Request\n        bytes memory request = tlsnutils.getHTTPRequestURL(proof);\n        // Check that the first part is correct\n        require(request.toSlice().startsWith(\"/proxy.py?url=https%3A//index.bitcoin.com/api/v0/lookup%3Ftime%3D\".toSlice()));\n        // Check that the second part is not too long\n        require(request.toSlice().find(\"%3D\".toSlice()).len() == 13);\n\n        // Check the host (kind of redundant due to signature check)\n        bytes memory host = tlsnutils.getHost(proof);\n        require(host.toSlice().equals(\"tls-n.org\".toSlice()));\n\n        // Get the body\n        bytes memory body = tlsnutils.getHTTPBody(proof);\n\n        uint32 timestamp0;\n        uint32 price0;\n        uint32 timestamp1;\n        uint32 price1;\n\t\t// Parse the timestamps\n        (timestamp0, price0, timestamp1, price1) = this.parseBitcoinComFeed(string(body));\n\t\t// Insert the timestamps\n        timestamp_to_price[timestamp0] = price0;\n        timestamp_to_price[timestamp1] = price1;\n    }\n\n\t// Request a securely inserted price\n\t// Throws if no price found for given timestamp\n\tfunction getPrice(uint32 timestamp) returns (uint32){\n\t\tuint32 price = timestamp_to_price[timestamp];\n\t\t// Make sure this mapping element exists\n\t\trequire(price > 0);\n\t\treturn price;\n\t}\n}\n\n",
  "sourcePath": "/home/bjorn/Projects/BGRVerify/contracts/BTCPriceFeed.sol",
  "compiler": {
    "name": "solc",
    "version": "0.4.21+commit.dfe3193c.Emscripten.clang"
  },
  "schemaVersion": "2.0.0",
  "updatedAt": "2018-06-04T15:03:12.346Z"
}