{
  "contractName": "BTCPriceFeed",
  "abi": [
    {
      "constant": false,
      "inputs": [
        {
          "name": "json",
          "type": "string"
        }
      ],
      "name": "parseBitcoinComFeed",
      "outputs": [
        {
          "name": "timestamp0",
          "type": "uint32"
        },
        {
          "name": "price0",
          "type": "uint32"
        },
        {
          "name": "timestamp1",
          "type": "uint32"
        },
        {
          "name": "price1",
          "type": "uint32"
        }
      ],
      "payable": false,
      "stateMutability": "nonpayable",
      "type": "function"
    },
    {
      "constant": false,
      "inputs": [
        {
          "name": "proof",
          "type": "bytes"
        }
      ],
      "name": "doNothing",
      "outputs": [
        {
          "name": "",
          "type": "bool"
        }
      ],
      "payable": false,
      "stateMutability": "nonpayable",
      "type": "function"
    },
    {
      "constant": false,
      "inputs": [],
      "name": "sendNothing",
      "outputs": [],
      "payable": false,
      "stateMutability": "nonpayable",
      "type": "function"
    },
    {
      "constant": false,
      "inputs": [
        {
          "name": "proof",
          "type": "bytes"
        }
      ],
      "name": "submitProofOfPrice",
      "outputs": [],
      "payable": false,
      "stateMutability": "nonpayable",
      "type": "function"
    },
    {
      "constant": false,
      "inputs": [
        {
          "name": "timestamp",
          "type": "uint32"
        }
      ],
      "name": "getPrice",
      "outputs": [
        {
          "name": "",
          "type": "uint32"
        }
      ],
      "payable": false,
      "stateMutability": "nonpayable",
      "type": "function"
    }
  ],
  "bytecode": "0x606060405261046060405190810160405280610424815260200162004247610424913960009080519060200190620000399291906200004c565b5034156200004657600080fd5b620000fb565b828054600181600116156101000203166002900490600052602060002090601f016020900481019282601f106200008f57805160ff1916838001178555620000c0565b82800160010185558215620000c0579182015b82811115620000bf578251825591602001919060010190620000a2565b5b509050620000cf9190620000d3565b5090565b620000f891905b80821115620000f4576000816000905550600101620000da565b5090565b90565b61413c806200010b6000396000f30060606040526004361061006d576000357c0100000000000000000000000000000000000000000000000000000000900463ffffffff1680635322175e1461007257806356fd66e1146100cf57806378a9e88a14610144578063da26663a146101cb578063ffeaa59614610214575b600080fd5b341561007d57600080fd5b6100cd600480803590602001908201803590602001908080601f01602080910402602001604051908101604052809392919081815260200183838082843782019150505050505091905050610229565b005b34156100da57600080fd5b61012a600480803590602001908201803590602001908080601f016020809104026020016040519081016040528093929190818152602001838380828437820191505050505050919050506106c7565b604051808215151515815260200191505060405180910390f35b341561014f57600080fd5b610170600480803590602001908201803590602001919091929050506106ce565b604051808563ffffffff1663ffffffff1681526020018463ffffffff1663ffffffff1681526020018363ffffffff1663ffffffff1681526020018263ffffffff1663ffffffff16815260200194505050505060405180910390f35b34156101d657600080fd5b6101f2600480803563ffffffff16906020019091905050610eca565b604051808263ffffffff1663ffffffff16815260200191505060405180910390f35b341561021f57600080fd5b610227610f1d565b005b600080610234614006565b61023c614006565b610244614006565b6000806000807f0de2583dc1b70c4d17936f6ca4d2a07aa2aba06b76a97e60e62af286adc1cc0998507f68ba8822c94e79903406a002f4bc6a982d1b473f109debb2aa020c66f642144a975073__tlsnutils_____________________________635569909f8b8b8b6040518463ffffffff167c01000000000000000000000000000000000000000000000000000000000281526004018080602001848152602001838152602001828103825285818151815260200191508051906020019080838360005b83811015610324578082015181840152602081019050610309565b50505050905090810190601f1680156103515780820380516001836020036101000a031916815260200191505b5094505050505060206040518083038186803b151561036f57600080fd5b5af4151561037c57600080fd5b50505060405180519050151561039157600080fd5b61039a8a610fe5565b965061044161042a608060405190810160405280604181526020017f2f70726f78792e70793f75726c3d68747470732533412f2f696e6465782e626981526020017f74636f696e2e636f6d2f6170692f76302f6c6f6f6b757025334674696d65253381526020017f44000000000000000000000000000000000000000000000000000000000000008152506110f9565b610433896110f9565b61112790919063ffffffff16565b151561044c57600080fd5b600d6104ae6104a96104926040805190810160405280600381526020017f25334400000000000000000000000000000000000000000000000000000000008152506110f9565b61049b8b6110f9565b61117f90919063ffffffff16565b6111d1565b1415156104ba57600080fd5b6104c38a6111df565b955061051d6105066040805190810160405280600981526020017f746c732d6e2e6f726700000000000000000000000000000000000000000000008152506110f9565b61050f886110f9565b6113a490919063ffffffff16565b151561052857600080fd5b6105318a6113ba565b94503073ffffffffffffffffffffffffffffffffffffffff166378a9e88a866040518263ffffffff167c01000000000000000000000000000000000000000000000000000000000281526004018080602001828103825283818151815260200191508051906020019080838360005b838110156105bb5780820151818401526020810190506105a0565b50505050905090810190601f1680156105e85780820380516001836020036101000a031916815260200191505b5092505050608060405180830381600087803b151561060657600080fd5b5af1151561061357600080fd5b505050604051805190602001805190602001805190602001805190508094508195508296508397505050505082600160008663ffffffff1663ffffffff16815260200190815260200160002060006101000a81548163ffffffff021916908363ffffffff16021790555080600160008463ffffffff1663ffffffff16815260200190815260200160002060006101000a81548163ffffffff021916908363ffffffff16021790555050505050505050505050565b6000806000fd5b60008060008060006106de61401a565b6106e661402e565b6106ee614042565b600061072d8b8b8080601f01602080910402602001604051908101604052809392919081815260200183838082843782019150505050505060326114e0565b80935081955082975050505060008514151561074857600080fd5b82600181518110151561075757fe5b9060200190602002015191506107a88b8b8080601f016020809104026020016040519081016040528093929190818152602001838380828437820191505050505050836020015184606001516122b6565b935060006107eb856040805190810160405280600481526020017f6f70656e000000000000000000000000000000000000000000000000000000008152506123b9565b1415156107f757600080fd5b82600381518110151561080657fe5b9060200190602002015191506108578b8b8080601f016020809104026020016040519081016040528093929190818152602001838380828437820191505050505050836020015184606001516122b6565b9350600061089a856040805190810160405280600581526020017f70726963650000000000000000000000000000000000000000000000000000008152506123b9565b1415156108a657600080fd5b8260048151811015156108b557fe5b90602001906020020151915061090e6109098c8c8080601f016020809104026020016040519081016040528093929190818152602001838380828437820191505050505050846020015185606001516122b6565b61267d565b975060008863ffffffff1611151561092557600080fd5b82600581518110151561093457fe5b9060200190602002015191506109858b8b8080601f016020809104026020016040519081016040528093929190818152602001838380828437820191505050505050836020015184606001516122b6565b935060006109c8856040805190810160405280600481526020017f74696d65000000000000000000000000000000000000000000000000000000008152506123b9565b1415156109d457600080fd5b8260078151811015156109e357fe5b906020019060200201519150610a348b8b8080601f016020809104026020016040519081016040528093929190818152602001838380828437820191505050505050836020015184606001516122b6565b93506000610a77856040805190810160405280600481526020017f756e6978000000000000000000000000000000000000000000000000000000008152506123b9565b141515610a8357600080fd5b826008815181101515610a9257fe5b906020019060200201519150610aeb610ae68c8c8080601f016020809104026020016040519081016040528093929190818152602001838380828437820191505050505050846020015185606001516122b6565b61267d565b985060008963ffffffff16111515610b0257600080fd5b82600b815181101515610b1157fe5b906020019060200201519150610b628b8b8080601f016020809104026020016040519081016040528093929190818152602001838380828437820191505050505050836020015184606001516122b6565b93506000610ba5856040805190810160405280600581526020017f636c6f73650000000000000000000000000000000000000000000000000000008152506123b9565b141515610bb157600080fd5b82600d815181101515610bc057fe5b906020019060200201519150610c118b8b8080601f016020809104026020016040519081016040528093929190818152602001838380828437820191505050505050836020015184606001516122b6565b93506000610c54856040805190810160405280600581526020017f70726963650000000000000000000000000000000000000000000000000000008152506123b9565b141515610c6057600080fd5b82600e815181101515610c6f57fe5b906020019060200201519150610cc8610cc38c8c8080601f016020809104026020016040519081016040528093929190818152602001838380828437820191505050505050846020015185606001516122b6565b61267d565b955060008663ffffffff16111515610cdf57600080fd5b82600f815181101515610cee57fe5b906020019060200201519150610d3f8b8b8080601f016020809104026020016040519081016040528093929190818152602001838380828437820191505050505050836020015184606001516122b6565b93506000610d82856040805190810160405280600481526020017f74696d65000000000000000000000000000000000000000000000000000000008152506123b9565b141515610d8e57600080fd5b826011815181101515610d9d57fe5b906020019060200201519150610dee8b8b8080601f016020809104026020016040519081016040528093929190818152602001838380828437820191505050505050836020015184606001516122b6565b93506000610e31856040805190810160405280600481526020017f756e6978000000000000000000000000000000000000000000000000000000008152506123b9565b141515610e3d57600080fd5b826012815181101515610e4c57fe5b906020019060200201519150610ea5610ea08c8c8080601f016020809104026020016040519081016040528093929190818152602001838380828437820191505050505050846020015185606001516122b6565b61267d565b965060008763ffffffff16111515610ebc57600080fd5b505050505092959194509250565b600080600160008463ffffffff1663ffffffff16815260200190815260200160002060009054906101000a900463ffffffff16905060008163ffffffff16111515610f1457600080fd5b80915050919050565b60008060019150600090505b81811015610fe157610fd460008054600181600116156101000203166002900480601f016020809104026020016040519081016040528092919081815260200182805460018160011615610100020316600290048015610fca5780601f10610f9f57610100808354040283529160200191610fca565b820191906000526020600020905b815481529060010190602001808311610fad57829003601f168201915b5050505050610229565b8080600101915050610f29565b5050565b610fed614006565b610ff5614006565b610ffd61408b565b61100561408b565b61100d61408b565b61101686612691565b9350611021846110f9565b92506110616040805190810160405280600181526020017f20000000000000000000000000000000000000000000000000000000000000008152506110f9565b915061107682846126cd90919063ffffffff16565b90506110c86110b96040805190810160405280600381526020017f47455400000000000000000000000000000000000000000000000000000000008152506110f9565b826113a490919063ffffffff16565b15156110d357600080fd5b6110ee6110e983856126cd90919063ffffffff16565b6126e7565b945050505050919050565b61110161408b565b600060208301905060408051908101604052808451815260200182815250915050919050565b6000808260000151846000015110156111435760009150611178565b82602001518460200151141561115c5760019150611178565b8251602085015160208501518281208383201493505050508091505b5092915050565b61118761408b565b60006111a58460000151856020015185600001518660200151612745565b905083602001518103846000018181510391508181525050808460200181815250508391505092915050565b600081600001519050919050565b6111e7614006565b6111ef61408b565b6112006111fb84612691565b6110f9565b90506112526112436040805190810160405280600481526020017f0d0a0d0a000000000000000000000000000000000000000000000000000000008152506110f9565b826126cd90919063ffffffff16565b90506112a46112956040805190810160405280600581526020017f486f73743a0000000000000000000000000000000000000000000000000000008152506110f9565b8261117f90919063ffffffff16565b506112b960058261280190919063ffffffff16565b5061130a6112fb6040805190810160405280600281526020017f0d0a0000000000000000000000000000000000000000000000000000000000008152506110f9565b826126cd90919063ffffffff16565b90505b61135d61134e6040805190810160405280600181526020017f20000000000000000000000000000000000000000000000000000000000000008152506110f9565b8261112790919063ffffffff16565b1561137c5761137660018261280190919063ffffffff16565b5061130d565b6000611387826111d1565b11151561139357600080fd5b61139c816126e7565b915050919050565b6000806113b18484612857565b14905092915050565b6113c2614006565b6113ca614006565b6113d261408b565b6113da61408b565b6113e385612911565b9250611401600f6113f3856110f9565b61294d90919063ffffffff16565b91506114536114446040805190810160405280600f81526020017f485454502f312e3120323030204f4b00000000000000000000000000000000008152506110f9565b836113a490919063ffffffff16565b151561145e57600080fd5b6114b661149f6040805190810160405280600481526020017f0d0a0d0a000000000000000000000000000000000000000000000000000000008152506110f9565b6114a8856110f9565b61117f90919063ffffffff16565b90506114cc60048261280190919063ffffffff16565b506114d6816126e7565b9350505050919050565b60006114ea61402e565b60006114f4614006565b6114fc6140a5565b61150461402e565b6000806000806000611514614042565b6000808f9a506115238f612975565b99509950896020015196505b8a518a600001511015612295578a8a6000015181518110151561154e57fe5b9060200101517f010000000000000000000000000000000000000000000000000000000000000090047f0100000000000000000000000000000000000000000000000000000000000000029450607b7f010000000000000000000000000000000000000000000000000000000000000002857effffffffffffffffffffffffffffffffffffffffffffffffffffffffffffff191614806116325750605b7f010000000000000000000000000000000000000000000000000000000000000002857effffffffffffffffffffffffffffffffffffffffffffffffffffffffffffff1916145b156117725786806001019750506116498a8a612a29565b935093508315156116675760038960008090509d509d509d506122a4565b7fffffffffffffffffffffffffffffffffffffffffffffffffffffffffffffffff8a604001511415156116c657888a604001518151811015156116a657fe5b9060200190602002015160a001805180919060010160ff1660ff16815250505b607b7f010000000000000000000000000000000000000000000000000000000000000002857effffffffffffffffffffffffffffffffffffffffffffffffffffffffffffff19161461171957600261171c565b60015b8360000190600481111561172c57fe5b9081600481111561173957fe5b815250508960000151836020018181525050600183604001901515908115158152505060018a60200151038a6040018181525050612280565b607d7f010000000000000000000000000000000000000000000000000000000000000002857effffffffffffffffffffffffffffffffffffffffffffffffffffffffffffff191614806118095750605d7f010000000000000000000000000000000000000000000000000000000000000002857effffffffffffffffffffffffffffffffffffffffffffffffffffffffffffff1916145b15611a4957607d7f010000000000000000000000000000000000000000000000000000000000000002857effffffffffffffffffffffffffffffffffffffffffffffffffffffffffffff191614611861576002611864565b60015b91506000905060018a602001510395505b60008610151561197857888681518110151561188d57fe5b906020019060200201519250826040015180156118ac57508260800151155b1561196a578160048111156118bd57fe5b836000015160048111156118cd57fe5b1415156118e75760018960008090509d509d509d506122a4565b7fffffffffffffffffffffffffffffffffffffffffffffffffffffffffffffffff8a604001818152505060018a6000015101898781518110151561192757fe5b9060200190602002015160600181815250506001898781518110151561194957fe5b90602001906020020151608001901515908115158152505060019050611978565b858060019003965050611875565b8015156119925760018960008090509d509d509d506122a4565b5b60008611156119eb5788868151811015156119aa57fe5b906020019060200201519250826040015180156119c957508260800151155b156119dd57858a60400181815250506119eb565b858060019003965050611993565b6000861415611a44578886815181101515611a0257fe5b90602001906020020151925082604001518015611a2157508260800151155b15611a4357856fffffffffffffffffffffffffffffffff168a60400181815250505b5b612280565b7f2200000000000000000000000000000000000000000000000000000000000000857effffffffffffffffffffffffffffffffffffffffffffffffffffffffffffff19161415611b2857611a9e8a8a8d612afb565b9750600088141515611abc57878960008090509d509d509d506122a4565b86806001019750507fffffffffffffffffffffffffffffffffffffffffffffffffffffffffffffffff8a60400151141515611b2357888a60400151815181101515611b0357fe5b9060200190602002015160a001805180919060010160ff1660ff16815250505b612280565b7f2000000000000000000000000000000000000000000000000000000000000000857effffffffffffffffffffffffffffffffffffffffffffffffffffffffffffff19161480611bbc575060117f010000000000000000000000000000000000000000000000000000000000000002857effffffffffffffffffffffffffffffffffffffffffffffffffffffffffffff1916145b80611c0b575060127f010000000000000000000000000000000000000000000000000000000000000002857effffffffffffffffffffffffffffffffffffffffffffffffffffffffffffff1916145b80611c5a575060147f010000000000000000000000000000000000000000000000000000000000000002857effffffffffffffffffffffffffffffffffffffffffffffffffffffffffffff1916145b15611c6457612280565b7f3a00000000000000000000000000000000000000000000000000000000000000857effffffffffffffffffffffffffffffffffffffffffffffffffffffffffffff19161415611cc45760018a60200151038a6040018181525050612280565b7f2c00000000000000000000000000000000000000000000000000000000000000857effffffffffffffffffffffffffffffffffffffffffffffffffffffffffffff19161415611eb4577fffffffffffffffffffffffffffffffffffffffffffffffffffffffffffffffff8a6040015114158015611d78575060026004811115611d4a57fe5b898b60400151815181101515611d5c57fe5b90602001906020020151600001516004811115611d7557fe5b14155b8015611dba575060016004811115611d8c57fe5b898b60400151815181101515611d9e57fe5b90602001906020020151600001516004811115611db757fe5b14155b15611eaf5760018a602001510395505b600086101515611eae5760026004811115611de157fe5b8987815181101515611def57fe5b90602001906020020151600001516004811115611e0857fe5b1480611e45575060016004811115611e1c57fe5b8987815181101515611e2a57fe5b90602001906020020151600001516004811115611e4357fe5b145b15611ea0578886815181101515611e5857fe5b90602001906020020151604001518015611e8b57508886815181101515611e7b57fe5b9060200190602002015160800151155b15611e9f57858a6040018181525050611eae565b5b858060019003965050611dca565b5b612280565b7f3000000000000000000000000000000000000000000000000000000000000000857effffffffffffffffffffffffffffffffffffffffffffffffffffffffffffff191610158015611f4857507f3900000000000000000000000000000000000000000000000000000000000000857effffffffffffffffffffffffffffffffffffffffffffffffffffffffffffff191611155b80611f9457507f2d00000000000000000000000000000000000000000000000000000000000000857effffffffffffffffffffffffffffffffffffffffffffffffffffffffffffff1916145b80611fe057507f6600000000000000000000000000000000000000000000000000000000000000857effffffffffffffffffffffffffffffffffffffffffffffffffffffffffffff1916145b8061202c57507f7400000000000000000000000000000000000000000000000000000000000000857effffffffffffffffffffffffffffffffffffffffffffffffffffffffffffff1916145b8061207857507f6e00000000000000000000000000000000000000000000000000000000000000857effffffffffffffffffffffffffffffffffffffffffffffffffffffffffffff1916145b156121cd577fffffffffffffffffffffffffffffffffffffffffffffffffffffffffffffffff8a6040015114151561213857888a604001518151811015156120bc57fe5b906020019060200201519250600160048111156120d557fe5b836000015160048111156120e557fe5b148061211f5750600360048111156120f957fe5b8360000151600481111561210957fe5b14801561211e575060008360a0015160ff1614155b5b156121375760018960008090509d509d509d506122a4565b5b6121438a8a8d613212565b975060008814151561216157878960008090509d509d509d506122a4565b86806001019750507fffffffffffffffffffffffffffffffffffffffffffffffffffffffffffffffff8a604001511415156121c857888a604001518151811015156121a857fe5b9060200190602002015160a001805180919060010160ff1660ff16815250505b612280565b60207f010000000000000000000000000000000000000000000000000000000000000002857effffffffffffffffffffffffffffffffffffffffffffffffffffffffffffff1916101580156122675750607e7f010000000000000000000000000000000000000000000000000000000000000002857effffffffffffffffffffffffffffffffffffffffffffffffffffffffffffff191611155b1561227f5760018960008090509d509d509d506122a4565b5b8960000180518091906001018152505061152f565b6000898b602001519d509d509d505b50505050505050505050509250925092565b6122be61401a565b6122c6614006565b6122ce614006565b60008692508585036040518059106122e35750595b9080825280601f01601f191660200182016040525091508590505b848110156123ac57828181518110151561231457fe5b9060200101517f010000000000000000000000000000000000000000000000000000000000000090047f0100000000000000000000000000000000000000000000000000000000000000028287830381518110151561236f57fe5b9060200101907effffffffffffffffffffffffffffffffffffffffffffffffffffffffffffff1916908160001a90535080806001019150506122fe565b8193505050509392505050565b60006123c3614006565b6123cb614006565b6000808693508592508351915081835110156123e657825191505b600090505b8181101561262957828181518110151561240157fe5b9060200101517f010000000000000000000000000000000000000000000000000000000000000090047f0100000000000000000000000000000000000000000000000000000000000000027effffffffffffffffffffffffffffffffffffffffffffffffffffffffffffff1916848281518110151561247c57fe5b9060200101517f010000000000000000000000000000000000000000000000000000000000000090047f0100000000000000000000000000000000000000000000000000000000000000027effffffffffffffffffffffffffffffffffffffffffffffffffffffffffffff19161015612517577fffffffffffffffffffffffffffffffffffffffffffffffffffffffffffffffff9450612673565b828181518110151561252557fe5b9060200101517f010000000000000000000000000000000000000000000000000000000000000090047f0100000000000000000000000000000000000000000000000000000000000000027effffffffffffffffffffffffffffffffffffffffffffffffffffffffffffff191684828151811015156125a057fe5b9060200101517f010000000000000000000000000000000000000000000000000000000000000090047f0100000000000000000000000000000000000000000000000000000000000000027effffffffffffffffffffffffffffffffffffffffffffffffffffffffffffff1916111561261c5760019450612673565b80806001019150506123eb565b82518451101561265b577fffffffffffffffffffffffffffffffffffffffffffffffffffffffffffffffff9450612673565b82518451111561266e5760019450612673565b600094505b5050505092915050565b600061268a8260006135f4565b9050919050565b612699614006565b6126c68260007f0100000000000000000000000000000000000000000000000000000000000000026139d3565b9050919050565b6126d561408b565b6126e0838383613e00565b5092915050565b6126ef614006565b6126f7614006565b6000836000015160405180591061270b5750595b9080825280601f01601f1916602001820160405250915060208201905061273b8185602001518660000151613e9e565b8192505050919050565b600080600080600088871115156127ef576020871115156127a65760018760200360080260020a031980875116888b038a018a96505b81838851161461279b5760018701965080600188031061277b578b8b0196505b5050508394506127f5565b8686209150879350600092505b868903831115156127ee5786842090508060001916826000191614156127db578394506127f5565b60018401935082806001019350506127b3565b5b88880194505b50505050949350505050565b61280961408b565b82600001518263ffffffff161115151561282257600080fd5b8163ffffffff168360200181815101915081815250508163ffffffff1683600001818151039150818152505082905092915050565b60008060008060008060008060008a6000015197508a600001518a60000151101561288457896000015197505b8a60200151965089602001519550600094505b878510156128f557865193508551925082841415156128de57600185896020030160080260020a031991508183168285160390506000811415156128dd57809850612903565b5b602087019650602086019550602085019450612897565b89600001518b600001510398505b505050505050505092915050565b612919614006565b6129468260017f0100000000000000000000000000000000000000000000000000000000000000026139d3565b9050919050565b61295561408b565b818360000151111561296c57818360000181815250505b82905092915050565b61297d6140a5565b61298561402e565b61298d6140a5565b61299561402e565b60606040519081016040528060008152602001600081526020017fffffffffffffffffffffffffffffffffffffffffffffffffffffffffffffffff8152509150846040518059106129e35750595b908082528060200260200182016040528015612a1957816020015b612a066140c7565b8152602001906001900390816129fe5790505b5090508181935093505050915091565b6000612a33614042565b612a3b614042565b83518560200151101515612a73576000846001865103815181101515612a5d57fe5b9060200190602002015180905092509250612af3565b60c06040519081016040528060006004811115612a8c57fe5b81526020016000815260200160001515815260200160008152602001600015158152602001600060ff16815250905080848660200151815181101515612ace57fe5b9060200190602002018190525084602001805180919060010181525050600181925092505b509250929050565b600080600080612b09614042565b87600001519350876000018051809190600101815250505b8551886000015110156131f857858860000151815181101515612b4057fe5b9060200101517f010000000000000000000000000000000000000000000000000000000000000090047f01000000000000000000000000000000000000000000000000000000000000000292507f2200000000000000000000000000000000000000000000000000000000000000837effffffffffffffffffffffffffffffffffffffffffffffffffffffffffffff19161415612c1c57612be18888612a29565b91509150811515612bff578388600001818152505060039450613207565b612c13816003600187018b60000151613ee9565b60009450613207565b605c7f010000000000000000000000000000000000000000000000000000000000000002837effffffffffffffffffffffffffffffffffffffffffffffffffffffffffffff1916148015612c77575085516001896000015101105b156131e257876000018051809190600101815250507f2200000000000000000000000000000000000000000000000000000000000000868960000151815181101515612cbf57fe5b9060200101517f010000000000000000000000000000000000000000000000000000000000000090047f0100000000000000000000000000000000000000000000000000000000000000027effffffffffffffffffffffffffffffffffffffffffffffffffffffffffffff19161480612dd557507f2f00000000000000000000000000000000000000000000000000000000000000868960000151815181101515612d6657fe5b9060200101517f010000000000000000000000000000000000000000000000000000000000000090047f0100000000000000000000000000000000000000000000000000000000000000027effffffffffffffffffffffffffffffffffffffffffffffffffffffffffffff1916145b80612e7d57507f5c00000000000000000000000000000000000000000000000000000000000000868960000151815181101515612e0e57fe5b9060200101517f010000000000000000000000000000000000000000000000000000000000000090047f0100000000000000000000000000000000000000000000000000000000000000027effffffffffffffffffffffffffffffffffffffffffffffffffffffffffffff1916145b80612f2557507f6600000000000000000000000000000000000000000000000000000000000000868960000151815181101515612eb657fe5b9060200101517f010000000000000000000000000000000000000000000000000000000000000090047f0100000000000000000000000000000000000000000000000000000000000000027effffffffffffffffffffffffffffffffffffffffffffffffffffffffffffff1916145b80612fcd57507f7200000000000000000000000000000000000000000000000000000000000000868960000151815181101515612f5e57fe5b9060200101517f010000000000000000000000000000000000000000000000000000000000000090047f0100000000000000000000000000000000000000000000000000000000000000027effffffffffffffffffffffffffffffffffffffffffffffffffffffffffffff1916145b8061307557507f6e0000000000000000000000000000000000000000000000000000000000000086896000015181518110151561300657fe5b9060200101517f010000000000000000000000000000000000000000000000000000000000000090047f0100000000000000000000000000000000000000000000000000000000000000027effffffffffffffffffffffffffffffffffffffffffffffffffffffffffffff1916145b8061311d57507f62000000000000000000000000000000000000000000000000000000000000008689600001518151811015156130ae57fe5b9060200101517f010000000000000000000000000000000000000000000000000000000000000090047f0100000000000000000000000000000000000000000000000000000000000000027effffffffffffffffffffffffffffffffffffffffffffffffffffffffffffff1916145b806131c557507f740000000000000000000000000000000000000000000000000000000000000086896000015181518110151561315657fe5b9060200101517f010000000000000000000000000000000000000000000000000000000000000090047f0100000000000000000000000000000000000000000000000000000000000000027effffffffffffffffffffffffffffffffffffffffffffffffffffffffffffff1916145b156131cf576131e3565b8388600001818152505060019450613207565b5b87600001805180919060010181525050612b21565b83886000018181525050600294505b505050509392505050565b6000806000806000613222614042565b60009450886000015193505b86518960000151101561357f5786896000015181518110151561324d57fe5b9060200101517f010000000000000000000000000000000000000000000000000000000000000090047f01000000000000000000000000000000000000000000000000000000000000000292507f2000000000000000000000000000000000000000000000000000000000000000837effffffffffffffffffffffffffffffffffffffffffffffffffffffffffffff1916148061332b57507f0900000000000000000000000000000000000000000000000000000000000000837effffffffffffffffffffffffffffffffffffffffffffffffffffffffffffff1916145b8061337757507f0a00000000000000000000000000000000000000000000000000000000000000837effffffffffffffffffffffffffffffffffffffffffffffffffffffffffffff1916145b806133c357507f0d00000000000000000000000000000000000000000000000000000000000000837effffffffffffffffffffffffffffffffffffffffffffffffffffffffffffff1916145b8061340f57507f2c00000000000000000000000000000000000000000000000000000000000000837effffffffffffffffffffffffffffffffffffffffffffffffffffffffffffff1916145b8061345e5750607d7f010000000000000000000000000000000000000000000000000000000000000002837effffffffffffffffffffffffffffffffffffffffffffffffffffffffffffff1916145b806134ad5750605d7f010000000000000000000000000000000000000000000000000000000000000002837effffffffffffffffffffffffffffffffffffffffffffffffffffffffffffff1916145b156134bb576001945061357f565b60207f010000000000000000000000000000000000000000000000000000000000000002837effffffffffffffffffffffffffffffffffffffffffffffffffffffffffffff191610806135525750607f7f010000000000000000000000000000000000000000000000000000000000000002837effffffffffffffffffffffffffffffffffffffffffffffffffffffffffffff1916115b1561356a5783896000018181525050600195506135e8565b8860000180518091906001018152505061322e565b8415156135995783896000018181525050600295506135e8565b6135a38989612a29565b915091508115156135c15783896000018181525050600395506135e8565b6135d2816004868c60000151613ee9565b8860000180518091906001900381525050600095505b50505050509392505050565b60006135fe614006565b600080600080879450600093506000925060009150600090505b8451811015613987576000811480156136ca57507f2d00000000000000000000000000000000000000000000000000000000000000858281518110151561365b57fe5b9060200101517f010000000000000000000000000000000000000000000000000000000000000090047f0100000000000000000000000000000000000000000000000000000000000000027effffffffffffffffffffffffffffffffffffffffffffffffffffffffffffff1916145b156136d457600191505b60307f010000000000000000000000000000000000000000000000000000000000000002858281518110151561370657fe5b9060200101517f010000000000000000000000000000000000000000000000000000000000000090047f0100000000000000000000000000000000000000000000000000000000000000027effffffffffffffffffffffffffffffffffffffffffffffffffffffffffffff19161015801561381e575060397f01000000000000000000000000000000000000000000000000000000000000000285828151811015156137ae57fe5b9060200101517f010000000000000000000000000000000000000000000000000000000000000090047f0100000000000000000000000000000000000000000000000000000000000000027effffffffffffffffffffffffffffffffffffffffffffffffffffffffffffff191611155b156138cf57821561384157600087141561383757613987565b8680600190039750505b600a840293506030858281518110151561385757fe5b9060200101517f010000000000000000000000000000000000000000000000000000000000000090047f0100000000000000000000000000000000000000000000000000000000000000027f01000000000000000000000000000000000000000000000000000000000000009004038401935061397a565b602e7f010000000000000000000000000000000000000000000000000000000000000002858281518110151561390157fe5b9060200101517f010000000000000000000000000000000000000000000000000000000000000090047f0100000000000000000000000000000000000000000000000000000000000000027effffffffffffffffffffffffffffffffffffffffffffffffffffffffffffff1916141561397957600192505b5b8080600101915050613618565b60008711156139995786600a0a840293505b81156139c5577fffffffffffffffffffffffffffffffffffffffffffffffffffffffffffffffff840293505b839550505050505092915050565b6139db614006565b6139e3614006565b60008060008060006139f361408b565b602060405190810160405280600081525096506060955089601b815181101515613a1957fe5b9060200101517f010000000000000000000000000000000000000000000000000000000000000090047f0100000000000000000000000000000000000000000000000000000000000000027f01000000000000000000000000000000000000000000000000000000000000009004610100028a601a815181101515613a9a57fe5b9060200101517f010000000000000000000000000000000000000000000000000000000000000090047f0100000000000000000000000000000000000000000000000000000000000000027f010000000000000000000000000000000000000000000000000000000000000090040186019550600093505b896007815181101515613b2157fe5b9060200101517f010000000000000000000000000000000000000000000000000000000000000090047f0100000000000000000000000000000000000000000000000000000000000000027f01000000000000000000000000000000000000000000000000000000000000009004610100028a6006815181101515613ba257fe5b9060200101517f010000000000000000000000000000000000000000000000000000000000000090047f0100000000000000000000000000000000000000000000000000000000000000027f010000000000000000000000000000000000000000000000000000000000000090040161ffff168461ffff161015613df057602186018a01519250826001600281101515613c3857fe5b1a7f0100000000000000000000000000000000000000000000000000000000000000027f0100000000000000000000000000000000000000000000000000000000000000900461010002836000600281101515613c9157fe5b1a7f0100000000000000000000000000000000000000000000000000000000000000027f01000000000000000000000000000000000000000000000000000000000000009004019150896003870161ffff16815181101515613cef57fe5b9060200101517f010000000000000000000000000000000000000000000000000000000000000090047f0100000000000000000000000000000000000000000000000000000000000000029450600486019550887effffffffffffffffffffffffffffffffffffffffffffffffffffffffffffff1916857effffffffffffffffffffffffffffffffffffffffffffffffffffffffffffff19161415613ddb57613dbb8261ffff16613dad8861ffff168d613f5a90919063ffffffff16565b61294d90919063ffffffff16565b9050613dd881613dca896110f9565b613f8890919063ffffffff16565b96505b60108201860195508380600101945050613b12565b8697505050505050505092915050565b613e0861408b565b6000613e268560000151866020015186600001518760200151612745565b90508460200151836020018181525050846020015181038360000181815250508460000151856020015101811415613e68576000856000018181525050613e93565b8360000151836000015101856000018181510391508181525050836000015181018560200181815250505b829150509392505050565b60005b602082101515613ec65782518452602084019350602083019250602082039150613ea1565b6001826020036101000a0390508019835116818551168181178652505050505050565b8284600001906004811115613efa57fe5b90816004811115613f0757fe5b8152505081846020018181525050600184604001901515908115158152505080846060018181525050600184608001901515908115158152505060008460a0019060ff16908160ff168152505050505050565b613f6261408b565b613f6a61408b565b613f73846110f9565b9050613f7f8184612801565b91505092915050565b613f90614006565b613f98614006565b60008360000151856000015101604051805910613fb25750595b9080825280601f01601f19166020018201604052509150602082019050613fe28186602001518760000151613e9e565b613ffb8560000151820185602001518660000151613e9e565b819250505092915050565b602060405190810160405280600081525090565b602060405190810160405280600081525090565b602060405190810160405280600081525090565b60c0604051908101604052806000600481111561405b57fe5b81526020016000815260200160001515815260200160008152602001600015158152602001600060ff1681525090565b604080519081016040528060008152602001600081525090565b6060604051908101604052806000815260200160008152602001600081525090565b60c060405190810160405280600060048111156140e057fe5b81526020016000815260200160001515815260200160008152602001600015158152602001600060ff16815250905600a165627a7a723058209a86c21ffb8c5240fe56b8adc485e4725f6e6b814601f10a1922289cf2fb3343002920001000ffff03000f342cb6795605002e1b34b67956050040000000040000004747b4bc12342f8f1284ade439dab6c9e65c8c1a21baf5aad04826f92f322dbfa329b5e234c8e667ee67d48f93cffdb6618711b1cf41086923136f5acbda498802850000474554202f70726f78792e70793f75726c3d68747470732533412f2f696e6465782e626974636f696e2e636f6d2f6170692f76302f6c6f6f6b757025334674696d652533443135303135343536303020485454502f312e310d0a486f73743a20746c732d6e2e6f72670d0a436f6e6e656374696f6e3a206b6565702d616c6976650d0a0d0a48cbc6d79e5d485108825791a8b93cb4027e0101485454502f312e3120323030204f4b0d0a446174653a204672692c2031312041756720323031372031323a34373a313020474d540d0a5365727665723a204170616368652f322e342e3620285265642048617420456e7465727072697365204c696e757829204f70656e53534c2f312e302e31652d66697073205048502f352e342e3136206d6f645f6e73732f312e302e3134204e53532f332e33302e310d0a436f6e6e656374696f6e3a20636c6f73650d0a582d506f77657265642d42793a20457870726573730d0a4163636573732d436f6e74726f6c2d416c6c6f772d4f726967696e3a202a0d0a457870697265733a205361742c2031322041756720323031372030303a31353a303020474d540d0a436f6e74656e742d4c656e6774683a203338390d0a455461673a20572f223138352d682b7163754d5a6a337470702b5a6e4b2f714f703641220d0a436f6e74656e742d547970653a206170706c69636174696f6e2f6a736f6e3b20636861727365743d7574662d380d0a0d0a42635e88507a700fc6f26c78ee946e9d028501017b0a2020226f70656e223a207b0a20202020227072696365223a203237343433352c0a202020202274696d65223a207b0a20202020202022756e6978223a20313530313435393230302c0a2020202020202269736f223a2022323031372d30372d33315430303a30303a30302e3030305a220a202020207d0a20207d2c0a202022636c6f7365223a207b0a20202020227072696365223a203238333931382c0a202020202274696d65223a207b0a20202020202022756e6978223a20313530313534353630302c0a2020202020202269736f223a2022323031372d30382d30315430303a30303a30302e3030305a220a202020207d0a20207d2c0a2020226c6f6f6b7570223a207b0a20202020227072696365223a203238333931382c0a20202020226b223a20312c0a202020202274696d65223a207b0a20202020202022756e6978223a20313530313534353630302c0a2020202020202269736f223a2022323031372d30382d30315430303a30303a30302e3030305a220a202020207d0a20207d0a7d61bf0574796575ddff1b1155f5919f28",
  "source": "pragma solidity ^0.4.1;\n\nimport \"./imported/JsmnSolLib.sol\";\nimport \"./imported/bytesutils.sol\";\nimport \"./imported/tlsnutils.sol\";\n\ncontract BTCPriceFeed {\n    using bytesutils for *;\n\n    bytes prf = hex\"20001000ffff03000f342cb6795605002e1b34b67956050040000000040000004747b4bc12342f8f1284ade439dab6c9e65c8c1a21baf5aad04826f92f322dbfa329b5e234c8e667ee67d48f93cffdb6618711b1cf41086923136f5acbda498802850000474554202f70726f78792e70793f75726c3d68747470732533412f2f696e6465782e626974636f696e2e636f6d2f6170692f76302f6c6f6f6b757025334674696d652533443135303135343536303020485454502f312e310d0a486f73743a20746c732d6e2e6f72670d0a436f6e6e656374696f6e3a206b6565702d616c6976650d0a0d0a48cbc6d79e5d485108825791a8b93cb4027e0101485454502f312e3120323030204f4b0d0a446174653a204672692c2031312041756720323031372031323a34373a313020474d540d0a5365727665723a204170616368652f322e342e3620285265642048617420456e7465727072697365204c696e757829204f70656e53534c2f312e302e31652d66697073205048502f352e342e3136206d6f645f6e73732f312e302e3134204e53532f332e33302e310d0a436f6e6e656374696f6e3a20636c6f73650d0a582d506f77657265642d42793a20457870726573730d0a4163636573732d436f6e74726f6c2d416c6c6f772d4f726967696e3a202a0d0a457870697265733a205361742c2031322041756720323031372030303a31353a303020474d540d0a436f6e74656e742d4c656e6774683a203338390d0a455461673a20572f223138352d682b7163754d5a6a337470702b5a6e4b2f714f703641220d0a436f6e74656e742d547970653a206170706c69636174696f6e2f6a736f6e3b20636861727365743d7574662d380d0a0d0a42635e88507a700fc6f26c78ee946e9d028501017b0a2020226f70656e223a207b0a20202020227072696365223a203237343433352c0a202020202274696d65223a207b0a20202020202022756e6978223a20313530313435393230302c0a2020202020202269736f223a2022323031372d30372d33315430303a30303a30302e3030305a220a202020207d0a20207d2c0a202022636c6f7365223a207b0a20202020227072696365223a203238333931382c0a202020202274696d65223a207b0a20202020202022756e6978223a20313530313534353630302c0a2020202020202269736f223a2022323031372d30382d30315430303a30303a30302e3030305a220a202020207d0a20207d2c0a2020226c6f6f6b7570223a207b0a20202020227072696365223a203238333931382c0a20202020226b223a20312c0a202020202274696d65223a207b0a20202020202022756e6978223a20313530313534353630302c0a2020202020202269736f223a2022323031372d30382d30315430303a30303a30302e3030305a220a202020207d0a20207d0a7d61bf0574796575ddff1b1155f5919f28\";\n\n    // Mapping from timestamp to BTC price in USD cents (= 10**-2 USD)\n    mapping(uint32 => uint32) timestamp_to_price;\n\n\t// Perform parsing of result using JsmnSolLib\n\t// Returns: opening timestamp, opening price, closing timestamp, closing price\n    function parseBitcoinComFeed(string json) external returns(uint32 timestamp0, uint32 price0, uint32 timestamp1, uint32 price1){\n        uint res;\n\t\tstring memory val;\n        JsmnSolLib.Token[] memory tokens;\n        JsmnSolLib.Token memory t;\n        uint num_tokens;\n\t\t// Parse JSON\n        (res, tokens, num_tokens) = JsmnSolLib.parse(json, 50);\n        require(res == 0);\n\n\t\t// Find opening tag\n        t = tokens[1];\n        val = JsmnSolLib.getBytes(json, t.start, t.end);\n\t\trequire(JsmnSolLib.strCompare(val, \"open\") == 0);\n\n\t\t// Ensure price is in result\n        t = tokens[3];\n        val = JsmnSolLib.getBytes(json, t.start, t.end);\n\t\trequire(JsmnSolLib.strCompare(val, \"price\") == 0);\n\n\t\t// Read start price of the day\n        t = tokens[4];\n        price0 = uint32(JsmnSolLib.parseInt(JsmnSolLib.getBytes(json, t.start, t.end)));\n\t\trequire(price0 > 0);\n\n\t\t// Read time tag\n        t = tokens[5];\n        val = JsmnSolLib.getBytes(json, t.start, t.end);\n\t\trequire(JsmnSolLib.strCompare(val, \"time\") == 0);\n\n\t\t// Ensure time is unix timestamp\n        t = tokens[7];\n        val = JsmnSolLib.getBytes(json, t.start, t.end);\n\t\trequire(JsmnSolLib.strCompare(val, \"unix\") == 0);\n\n\t\t// Get opening timestamp\n        t = tokens[8];\n        timestamp0 = uint32(JsmnSolLib.parseInt(JsmnSolLib.getBytes(json, t.start, t.end)));\n\t\trequire(timestamp0 > 0);\n\n\t\t// Get closing tag\n        t = tokens[11];\n        val = JsmnSolLib.getBytes(json, t.start, t.end);\n\t\trequire(JsmnSolLib.strCompare(val, \"close\") == 0);\n\n\t\t// Get price tag\n        t = tokens[13];\n        val = JsmnSolLib.getBytes(json, t.start, t.end);\n\t\trequire(JsmnSolLib.strCompare(val, \"price\") == 0);\n\n\t\t// Get closing price\n        t = tokens[14];\n\t\tprice1 = uint32(JsmnSolLib.parseInt(JsmnSolLib.getBytes(json, t.start, t.end)));\n\t\trequire(price1 > 0);\n\n\t\t// Get time tag\n        t = tokens[15];\n        val = JsmnSolLib.getBytes(json, t.start, t.end);\n\t\trequire(JsmnSolLib.strCompare(val, \"time\") == 0);\n\n\t\t// Ensure time is unix timestamp\n        t = tokens[17];\n        val = JsmnSolLib.getBytes(json, t.start, t.end);\n\t\trequire(JsmnSolLib.strCompare(val, \"unix\") == 0);\n\n\t\t// Get closing timestamp\n        t = tokens[18];\n        timestamp1 = uint32(JsmnSolLib.parseInt(JsmnSolLib.getBytes(json, t.start, t.end)));\n\t\trequire(timestamp1 > 0);\n\n    }\n\n    /**\n    This method is used to measure only the transaction costs\n    */\n    function doNothing(bytes memory proof) returns (bool) {\n        revert();\n    }\n\n    /**\n    This method is used to measure only the verification costs\n    */\n    function sendNothing() {\n        uint n = 1; //NOTE: change this parameter to set the amount of signatures that will be verified\n\n        for (uint i = 0; i < n; i++) {\n            submitProofOfPrice(prf);\n        }\n    }\n\n\t// Function that allows proof submission\n    function submitProofOfPrice(bytes memory proof){\n\n        // Check if proof is valid\n        // Elliptic curve parameters for the TLS certificate of tls-n.org\n        uint256 qx = 0x0de2583dc1b70c4d17936f6ca4d2a07aa2aba06b76a97e60e62af286adc1cc09;\n        uint256 qy = 0x68ba8822c94e79903406a002f4bc6a982d1b473f109debb2aa020c66f642144a;\n        require(tlsnutils.verifyProof(proof, qx, qy));\n\n        // Check HTTP Request\n        bytes memory request = tlsnutils.getHTTPRequestURL(proof);\n        // Check that the first part is correct\n        require(request.toSlice().startsWith(\"/proxy.py?url=https%3A//index.bitcoin.com/api/v0/lookup%3Ftime%3D\".toSlice()));\n        // Check that the second part is not too long\n        require(request.toSlice().find(\"%3D\".toSlice()).len() == 13);\n\n        // Check the host (kind of redundant due to signature check)\n        bytes memory host = tlsnutils.getHost(proof);\n        require(host.toSlice().equals(\"tls-n.org\".toSlice()));\n\n        // Get the body\n        bytes memory body = tlsnutils.getHTTPBody(proof);\n\n        uint32 timestamp0;\n        uint32 price0;\n        uint32 timestamp1;\n        uint32 price1;\n\t\t// Parse the timestamps\n        (timestamp0, price0, timestamp1, price1) = this.parseBitcoinComFeed(string(body));\n\t\t// Insert the timestamps\n        timestamp_to_price[timestamp0] = price0;\n        timestamp_to_price[timestamp1] = price1;\n    }\n\n\t// Request a securely inserted price\n\t// Throws if no price found for given timestamp\n\tfunction getPrice(uint32 timestamp) returns (uint32){\n\t\tuint32 price = timestamp_to_price[timestamp];\n\t\t// Make sure this mapping element exists\n\t\trequire(price > 0);\n\t\treturn price;\n\t}\n}\n\n",
  "sourcePath": "/home/bjorn/Projects/BGRVerify/contracts/BTCPriceFeed.sol",
  "compiler": {
    "name": "solc",
    "version": "0.4.21+commit.dfe3193c.Emscripten.clang"
  },
  "schemaVersion": "2.0.0",
  "updatedAt": "2018-06-09T19:13:58.380Z"
}