{
  "contractName": "BTCPriceFeed",
  "abi": [
    {
      "constant": false,
      "inputs": [
        {
          "name": "proof",
          "type": "bytes"
        }
      ],
      "name": "transactioncost",
      "outputs": [
        {
          "name": "",
          "type": "bool"
        }
      ],
      "payable": false,
      "stateMutability": "nonpayable",
      "type": "function"
    },
    {
      "constant": false,
      "inputs": [],
      "name": "verificationcost",
      "outputs": [],
      "payable": false,
      "stateMutability": "nonpayable",
      "type": "function"
    },
    {
      "constant": false,
      "inputs": [],
      "name": "storagecost",
      "outputs": [
        {
          "name": "",
          "type": "bool"
        }
      ],
      "payable": false,
      "stateMutability": "nonpayable",
      "type": "function"
    },
    {
      "constant": false,
      "inputs": [
        {
          "name": "proof",
          "type": "bytes"
        }
      ],
      "name": "verifyProof",
      "outputs": [
        {
          "name": "",
          "type": "bool"
        }
      ],
      "payable": false,
      "stateMutability": "nonpayable",
      "type": "function"
    },
    {
      "constant": false,
      "inputs": [
        {
          "name": "proof",
          "type": "bytes"
        }
      ],
      "name": "submitProofOfPrice",
      "outputs": [],
      "payable": false,
      "stateMutability": "nonpayable",
      "type": "function"
    },
    {
      "constant": false,
      "inputs": [
        {
          "name": "timestamp",
          "type": "uint32"
        }
      ],
      "name": "getPrice",
      "outputs": [
        {
          "name": "",
          "type": "uint32"
        }
      ],
      "payable": false,
      "stateMutability": "nonpayable",
      "type": "function"
    },
    {
      "constant": false,
      "inputs": [
        {
          "name": "json",
          "type": "string"
        }
      ],
      "name": "parseBitcoinComFeed",
      "outputs": [
        {
          "name": "timestamp0",
          "type": "uint32"
        },
        {
          "name": "price0",
          "type": "uint32"
        },
        {
          "name": "timestamp1",
          "type": "uint32"
        },
        {
          "name": "price1",
          "type": "uint32"
        }
      ],
      "payable": false,
      "stateMutability": "nonpayable",
      "type": "function"
    }
  ],
  "bytecode": "0x606060405261046060405190810160405280610424815260200162004993610424913960009080519060200190620000399291906200004c565b5034156200004657600080fd5b620000fb565b828054600181600116156101000203166002900490600052602060002090601f016020900481019282601f106200008f57805160ff1916838001178555620000c0565b82800160010185558215620000c0579182015b82811115620000bf578251825591602001919060010190620000a2565b5b509050620000cf9190620000d3565b5090565b620000f891905b80821115620000f4576000816000905550600101620000da565b5090565b90565b614888806200010b6000396000f300606060405260043610610083576000357c0100000000000000000000000000000000000000000000000000000000900463ffffffff16806312943d6b146100885780635322175e146100b557806355c265fe1461011257806378a9e88a14610187578063b043eaba1461020e578063ca647a5d14610283578063da26663a14610298575b600080fd5b341561009357600080fd5b61009b6102e1565b604051808215151515815260200191505060405180910390f35b34156100c057600080fd5b610110600480803590602001908201803590602001908080601f0160208091040260200160405190810160405280939291908181526020018383808284378201915050505050509190505061082a565b005b341561011d57600080fd5b61016d600480803590602001908201803590602001908080601f01602080910402602001604051908101604052809392919081815260200183838082843782019150505050505091905050610cc8565b604051808215151515815260200191505060405180910390f35b341561019257600080fd5b6101b360048080359060200190820180359060200191909192905050610e12565b604051808563ffffffff1663ffffffff1681526020018463ffffffff1663ffffffff1681526020018363ffffffff1663ffffffff1681526020018263ffffffff1663ffffffff16815260200194505050505060405180910390f35b341561021957600080fd5b610269600480803590602001908201803590602001908080601f0160208091040260200160405190810160405280939291908181526020018383808284378201915050505050509190505061160e565b604051808215151515815260200191505060405180910390f35b341561028e57600080fd5b610296611615565b005b34156102a357600080fd5b6102bf600480803563ffffffff169060200190919050506116de565b604051808263ffffffff1663ffffffff16815260200191505060405180910390f35b60008060006102ee614752565b6102f6614752565b6102fe614752565b600080600080600a9850600097505b8888101561081a576103b860008054600181600116156101000203166002900480601f0160208091040260200160405190810160405280929190818152602001828054600181600116156101000203166002900480156103ae5780601f10610383576101008083540402835291602001916103ae565b820191906000526020600020905b81548152906001019060200180831161039157829003601f168201915b5050505050611731565b965061045f610448608060405190810160405280604181526020017f2f70726f78792e70793f75726c3d68747470732533412f2f696e6465782e626981526020017f74636f696e2e636f6d2f6170692f76302f6c6f6f6b757025334674696d65253381526020017f4400000000000000000000000000000000000000000000000000000000000000815250611845565b61045189611845565b61187390919063ffffffff16565b151561046a57600080fd5b600d6104cc6104c76104b06040805190810160405280600381526020017f2533440000000000000000000000000000000000000000000000000000000000815250611845565b6104b98b611845565b6118cb90919063ffffffff16565b61191d565b1415156104d857600080fd5b61057b60008054600181600116156101000203166002900480601f0160208091040260200160405190810160405280929190818152602001828054600181600116156101000203166002900480156105715780601f1061054657610100808354040283529160200191610571565b820191906000526020600020905b81548152906001019060200180831161055457829003601f168201915b505050505061192b565b95506105d56105be6040805190810160405280600981526020017f746c732d6e2e6f72670000000000000000000000000000000000000000000000815250611845565b6105c788611845565b611af090919063ffffffff16565b15156105e057600080fd5b61068360008054600181600116156101000203166002900480601f0160208091040260200160405190810160405280929190818152602001828054600181600116156101000203166002900480156106795780601f1061064e57610100808354040283529160200191610679565b820191906000526020600020905b81548152906001019060200180831161065c57829003601f168201915b5050505050611b06565b94503073ffffffffffffffffffffffffffffffffffffffff166378a9e88a866040518263ffffffff167c01000000000000000000000000000000000000000000000000000000000281526004018080602001828103825283818151815260200191508051906020019080838360005b8381101561070d5780820151818401526020810190506106f2565b50505050905090810190601f16801561073a5780820380516001836020036101000a031916815260200191505b5092505050608060405180830381600087803b151561075857600080fd5b5af1151561076557600080fd5b505050604051805190602001805190602001805190602001805190508094508195508296508397505050505082600160008663ffffffff1663ffffffff16815260200190815260200160002060006101000a81548163ffffffff021916908363ffffffff16021790555080600160008463ffffffff1663ffffffff16815260200190815260200160002060006101000a81548163ffffffff021916908363ffffffff160217905550878060010198505061030d565b6001995050505050505050505090565b600080610835614752565b61083d614752565b610845614752565b6000806000807f0de2583dc1b70c4d17936f6ca4d2a07aa2aba06b76a97e60e62af286adc1cc0998507f68ba8822c94e79903406a002f4bc6a982d1b473f109debb2aa020c66f642144a975073__tlsnutils_____________________________635569909f8b8b8b6040518463ffffffff167c01000000000000000000000000000000000000000000000000000000000281526004018080602001848152602001838152602001828103825285818151815260200191508051906020019080838360005b8381101561092557808201518184015260208101905061090a565b50505050905090810190601f1680156109525780820380516001836020036101000a031916815260200191505b5094505050505060206040518083038186803b151561097057600080fd5b5af4151561097d57600080fd5b50505060405180519050151561099257600080fd5b61099b8a611731565b9650610a42610a2b608060405190810160405280604181526020017f2f70726f78792e70793f75726c3d68747470732533412f2f696e6465782e626981526020017f74636f696e2e636f6d2f6170692f76302f6c6f6f6b757025334674696d65253381526020017f4400000000000000000000000000000000000000000000000000000000000000815250611845565b610a3489611845565b61187390919063ffffffff16565b1515610a4d57600080fd5b600d610aaf610aaa610a936040805190810160405280600381526020017f2533440000000000000000000000000000000000000000000000000000000000815250611845565b610a9c8b611845565b6118cb90919063ffffffff16565b61191d565b141515610abb57600080fd5b610ac48a61192b565b9550610b1e610b076040805190810160405280600981526020017f746c732d6e2e6f72670000000000000000000000000000000000000000000000815250611845565b610b1088611845565b611af090919063ffffffff16565b1515610b2957600080fd5b610b328a611b06565b94503073ffffffffffffffffffffffffffffffffffffffff166378a9e88a866040518263ffffffff167c01000000000000000000000000000000000000000000000000000000000281526004018080602001828103825283818151815260200191508051906020019080838360005b83811015610bbc578082015181840152602081019050610ba1565b50505050905090810190601f168015610be95780820380516001836020036101000a031916815260200191505b5092505050608060405180830381600087803b1515610c0757600080fd5b5af11515610c1457600080fd5b505050604051805190602001805190602001805190602001805190508094508195508296508397505050505082600160008663ffffffff1663ffffffff16815260200190815260200160002060006101000a81548163ffffffff021916908363ffffffff16021790555080600160008463ffffffff1663ffffffff16815260200190815260200160002060006101000a81548163ffffffff021916908363ffffffff16021790555050505050505050505050565b60008060007f0de2583dc1b70c4d17936f6ca4d2a07aa2aba06b76a97e60e62af286adc1cc0991507f68ba8822c94e79903406a002f4bc6a982d1b473f109debb2aa020c66f642144a905073__tlsnutils_____________________________635569909f8584846040518463ffffffff167c01000000000000000000000000000000000000000000000000000000000281526004018080602001848152602001838152602001828103825285818151815260200191508051906020019080838360005b83811015610da7578082015181840152602081019050610d8c565b50505050905090810190601f168015610dd45780820380516001836020036101000a031916815260200191505b5094505050505060206040518083038186803b1515610df257600080fd5b5af41515610dff57600080fd5b5050506040518051905092505050919050565b6000806000806000610e22614766565b610e2a61477a565b610e3261478e565b6000610e718b8b8080601f0160208091040260200160405190810160405280939291908181526020018383808284378201915050505050506032611c2c565b809350819550829750505050600085141515610e8c57600080fd5b826001815181101515610e9b57fe5b906020019060200201519150610eec8b8b8080601f01602080910402602001604051908101604052809392919081815260200183838082843782019150505050505083602001518460600151612a02565b93506000610f2f856040805190810160405280600481526020017f6f70656e00000000000000000000000000000000000000000000000000000000815250612b05565b141515610f3b57600080fd5b826003815181101515610f4a57fe5b906020019060200201519150610f9b8b8b8080601f01602080910402602001604051908101604052809392919081815260200183838082843782019150505050505083602001518460600151612a02565b93506000610fde856040805190810160405280600581526020017f7072696365000000000000000000000000000000000000000000000000000000815250612b05565b141515610fea57600080fd5b826004815181101515610ff957fe5b90602001906020020151915061105261104d8c8c8080601f01602080910402602001604051908101604052809392919081815260200183838082843782019150505050505084602001518560600151612a02565b612dc9565b975060008863ffffffff1611151561106957600080fd5b82600581518110151561107857fe5b9060200190602002015191506110c98b8b8080601f01602080910402602001604051908101604052809392919081815260200183838082843782019150505050505083602001518460600151612a02565b9350600061110c856040805190810160405280600481526020017f74696d6500000000000000000000000000000000000000000000000000000000815250612b05565b14151561111857600080fd5b82600781518110151561112757fe5b9060200190602002015191506111788b8b8080601f01602080910402602001604051908101604052809392919081815260200183838082843782019150505050505083602001518460600151612a02565b935060006111bb856040805190810160405280600481526020017f756e697800000000000000000000000000000000000000000000000000000000815250612b05565b1415156111c757600080fd5b8260088151811015156111d657fe5b90602001906020020151915061122f61122a8c8c8080601f01602080910402602001604051908101604052809392919081815260200183838082843782019150505050505084602001518560600151612a02565b612dc9565b985060008963ffffffff1611151561124657600080fd5b82600b81518110151561125557fe5b9060200190602002015191506112a68b8b8080601f01602080910402602001604051908101604052809392919081815260200183838082843782019150505050505083602001518460600151612a02565b935060006112e9856040805190810160405280600581526020017f636c6f7365000000000000000000000000000000000000000000000000000000815250612b05565b1415156112f557600080fd5b82600d81518110151561130457fe5b9060200190602002015191506113558b8b8080601f01602080910402602001604051908101604052809392919081815260200183838082843782019150505050505083602001518460600151612a02565b93506000611398856040805190810160405280600581526020017f7072696365000000000000000000000000000000000000000000000000000000815250612b05565b1415156113a457600080fd5b82600e8151811015156113b357fe5b90602001906020020151915061140c6114078c8c8080601f01602080910402602001604051908101604052809392919081815260200183838082843782019150505050505084602001518560600151612a02565b612dc9565b955060008663ffffffff1611151561142357600080fd5b82600f81518110151561143257fe5b9060200190602002015191506114838b8b8080601f01602080910402602001604051908101604052809392919081815260200183838082843782019150505050505083602001518460600151612a02565b935060006114c6856040805190810160405280600481526020017f74696d6500000000000000000000000000000000000000000000000000000000815250612b05565b1415156114d257600080fd5b8260118151811015156114e157fe5b9060200190602002015191506115328b8b8080601f01602080910402602001604051908101604052809392919081815260200183838082843782019150505050505083602001518460600151612a02565b93506000611575856040805190810160405280600481526020017f756e697800000000000000000000000000000000000000000000000000000000815250612b05565b14151561158157600080fd5b82601281518110151561159057fe5b9060200190602002015191506115e96115e48c8c8080601f01602080910402602001604051908101604052809392919081815260200183838082843782019150505050505084602001518560600151612a02565b612dc9565b965060008763ffffffff1611151561160057600080fd5b505050505092959194509250565b6000806000fd5b600080600a9150600090505b818110156116da576116cc60008054600181600116156101000203166002900480601f0160208091040260200160405190810160405280929190818152602001828054600181600116156101000203166002900480156116c25780601f10611697576101008083540402835291602001916116c2565b820191906000526020600020905b8154815290600101906020018083116116a557829003601f168201915b5050505050610cc8565b508080600101915050611621565b5050565b600080600160008463ffffffff1663ffffffff16815260200190815260200160002060009054906101000a900463ffffffff16905060008163ffffffff1611151561172857600080fd5b80915050919050565b611739614752565b611741614752565b6117496147d7565b6117516147d7565b6117596147d7565b61176286612ddd565b935061176d84611845565b92506117ad6040805190810160405280600181526020017f2000000000000000000000000000000000000000000000000000000000000000815250611845565b91506117c28284612e1990919063ffffffff16565b90506118146118056040805190810160405280600381526020017f4745540000000000000000000000000000000000000000000000000000000000815250611845565b82611af090919063ffffffff16565b151561181f57600080fd5b61183a6118358385612e1990919063ffffffff16565b612e33565b945050505050919050565b61184d6147d7565b600060208301905060408051908101604052808451815260200182815250915050919050565b60008082600001518460000151101561188f57600091506118c4565b8260200151846020015114156118a857600191506118c4565b8251602085015160208501518281208383201493505050508091505b5092915050565b6118d36147d7565b60006118f18460000151856020015185600001518660200151612e91565b905083602001518103846000018181510391508181525050808460200181815250508391505092915050565b600081600001519050919050565b611933614752565b61193b6147d7565b61194c61194784612ddd565b611845565b905061199e61198f6040805190810160405280600481526020017f0d0a0d0a00000000000000000000000000000000000000000000000000000000815250611845565b82612e1990919063ffffffff16565b90506119f06119e16040805190810160405280600581526020017f486f73743a000000000000000000000000000000000000000000000000000000815250611845565b826118cb90919063ffffffff16565b50611a05600582612f4d90919063ffffffff16565b50611a56611a476040805190810160405280600281526020017f0d0a000000000000000000000000000000000000000000000000000000000000815250611845565b82612e1990919063ffffffff16565b90505b611aa9611a9a6040805190810160405280600181526020017f2000000000000000000000000000000000000000000000000000000000000000815250611845565b8261187390919063ffffffff16565b15611ac857611ac2600182612f4d90919063ffffffff16565b50611a59565b6000611ad38261191d565b111515611adf57600080fd5b611ae881612e33565b915050919050565b600080611afd8484612fa3565b14905092915050565b611b0e614752565b611b16614752565b611b1e6147d7565b611b266147d7565b611b2f8561305d565b9250611b4d600f611b3f85611845565b61309990919063ffffffff16565b9150611b9f611b906040805190810160405280600f81526020017f485454502f312e3120323030204f4b0000000000000000000000000000000000815250611845565b83611af090919063ffffffff16565b1515611baa57600080fd5b611c02611beb6040805190810160405280600481526020017f0d0a0d0a00000000000000000000000000000000000000000000000000000000815250611845565b611bf485611845565b6118cb90919063ffffffff16565b9050611c18600482612f4d90919063ffffffff16565b50611c2281612e33565b9350505050919050565b6000611c3661477a565b6000611c40614752565b611c486147f1565b611c5061477a565b6000806000806000611c6061478e565b6000808f9a50611c6f8f6130c1565b99509950896020015196505b8a518a6000015110156129e1578a8a60000151815181101515611c9a57fe5b9060200101517f010000000000000000000000000000000000000000000000000000000000000090047f0100000000000000000000000000000000000000000000000000000000000000029450607b7f010000000000000000000000000000000000000000000000000000000000000002857effffffffffffffffffffffffffffffffffffffffffffffffffffffffffffff19161480611d7e5750605b7f010000000000000000000000000000000000000000000000000000000000000002857effffffffffffffffffffffffffffffffffffffffffffffffffffffffffffff1916145b15611ebe578680600101975050611d958a8a613175565b93509350831515611db35760038960008090509d509d509d506129f0565b7fffffffffffffffffffffffffffffffffffffffffffffffffffffffffffffffff8a60400151141515611e1257888a60400151815181101515611df257fe5b9060200190602002015160a001805180919060010160ff1660ff16815250505b607b7f010000000000000000000000000000000000000000000000000000000000000002857effffffffffffffffffffffffffffffffffffffffffffffffffffffffffffff191614611e65576002611e68565b60015b83600001906004811115611e7857fe5b90816004811115611e8557fe5b815250508960000151836020018181525050600183604001901515908115158152505060018a60200151038a60400181815250506129cc565b607d7f010000000000000000000000000000000000000000000000000000000000000002857effffffffffffffffffffffffffffffffffffffffffffffffffffffffffffff19161480611f555750605d7f010000000000000000000000000000000000000000000000000000000000000002857effffffffffffffffffffffffffffffffffffffffffffffffffffffffffffff1916145b1561219557607d7f010000000000000000000000000000000000000000000000000000000000000002857effffffffffffffffffffffffffffffffffffffffffffffffffffffffffffff191614611fad576002611fb0565b60015b91506000905060018a602001510395505b6000861015156120c4578886815181101515611fd957fe5b90602001906020020151925082604001518015611ff857508260800151155b156120b65781600481111561200957fe5b8360000151600481111561201957fe5b1415156120335760018960008090509d509d509d506129f0565b7fffffffffffffffffffffffffffffffffffffffffffffffffffffffffffffffff8a604001818152505060018a6000015101898781518110151561207357fe5b9060200190602002015160600181815250506001898781518110151561209557fe5b906020019060200201516080019015159081151581525050600190506120c4565b858060019003965050611fc1565b8015156120de5760018960008090509d509d509d506129f0565b5b60008611156121375788868151811015156120f657fe5b9060200190602002015192508260400151801561211557508260800151155b1561212957858a6040018181525050612137565b8580600190039650506120df565b600086141561219057888681518110151561214e57fe5b9060200190602002015192508260400151801561216d57508260800151155b1561218f57856fffffffffffffffffffffffffffffffff168a60400181815250505b5b6129cc565b7f2200000000000000000000000000000000000000000000000000000000000000857effffffffffffffffffffffffffffffffffffffffffffffffffffffffffffff19161415612274576121ea8a8a8d613247565b975060008814151561220857878960008090509d509d509d506129f0565b86806001019750507fffffffffffffffffffffffffffffffffffffffffffffffffffffffffffffffff8a6040015114151561226f57888a6040015181518110151561224f57fe5b9060200190602002015160a001805180919060010160ff1660ff16815250505b6129cc565b7f2000000000000000000000000000000000000000000000000000000000000000857effffffffffffffffffffffffffffffffffffffffffffffffffffffffffffff19161480612308575060117f010000000000000000000000000000000000000000000000000000000000000002857effffffffffffffffffffffffffffffffffffffffffffffffffffffffffffff1916145b80612357575060127f010000000000000000000000000000000000000000000000000000000000000002857effffffffffffffffffffffffffffffffffffffffffffffffffffffffffffff1916145b806123a6575060147f010000000000000000000000000000000000000000000000000000000000000002857effffffffffffffffffffffffffffffffffffffffffffffffffffffffffffff1916145b156123b0576129cc565b7f3a00000000000000000000000000000000000000000000000000000000000000857effffffffffffffffffffffffffffffffffffffffffffffffffffffffffffff191614156124105760018a60200151038a60400181815250506129cc565b7f2c00000000000000000000000000000000000000000000000000000000000000857effffffffffffffffffffffffffffffffffffffffffffffffffffffffffffff19161415612600577fffffffffffffffffffffffffffffffffffffffffffffffffffffffffffffffff8a60400151141580156124c457506002600481111561249657fe5b898b604001518151811015156124a857fe5b906020019060200201516000015160048111156124c157fe5b14155b80156125065750600160048111156124d857fe5b898b604001518151811015156124ea57fe5b9060200190602002015160000151600481111561250357fe5b14155b156125fb5760018a602001510395505b6000861015156125fa576002600481111561252d57fe5b898781518110151561253b57fe5b9060200190602002015160000151600481111561255457fe5b148061259157506001600481111561256857fe5b898781518110151561257657fe5b9060200190602002015160000151600481111561258f57fe5b145b156125ec5788868151811015156125a457fe5b906020019060200201516040015180156125d7575088868151811015156125c757fe5b9060200190602002015160800151155b156125eb57858a60400181815250506125fa565b5b858060019003965050612516565b5b6129cc565b7f3000000000000000000000000000000000000000000000000000000000000000857effffffffffffffffffffffffffffffffffffffffffffffffffffffffffffff19161015801561269457507f3900000000000000000000000000000000000000000000000000000000000000857effffffffffffffffffffffffffffffffffffffffffffffffffffffffffffff191611155b806126e057507f2d00000000000000000000000000000000000000000000000000000000000000857effffffffffffffffffffffffffffffffffffffffffffffffffffffffffffff1916145b8061272c57507f6600000000000000000000000000000000000000000000000000000000000000857effffffffffffffffffffffffffffffffffffffffffffffffffffffffffffff1916145b8061277857507f7400000000000000000000000000000000000000000000000000000000000000857effffffffffffffffffffffffffffffffffffffffffffffffffffffffffffff1916145b806127c457507f6e00000000000000000000000000000000000000000000000000000000000000857effffffffffffffffffffffffffffffffffffffffffffffffffffffffffffff1916145b15612919577fffffffffffffffffffffffffffffffffffffffffffffffffffffffffffffffff8a6040015114151561288457888a6040015181518110151561280857fe5b9060200190602002015192506001600481111561282157fe5b8360000151600481111561283157fe5b148061286b57506003600481111561284557fe5b8360000151600481111561285557fe5b14801561286a575060008360a0015160ff1614155b5b156128835760018960008090509d509d509d506129f0565b5b61288f8a8a8d61395e565b97506000881415156128ad57878960008090509d509d509d506129f0565b86806001019750507fffffffffffffffffffffffffffffffffffffffffffffffffffffffffffffffff8a6040015114151561291457888a604001518151811015156128f457fe5b9060200190602002015160a001805180919060010160ff1660ff16815250505b6129cc565b60207f010000000000000000000000000000000000000000000000000000000000000002857effffffffffffffffffffffffffffffffffffffffffffffffffffffffffffff1916101580156129b35750607e7f010000000000000000000000000000000000000000000000000000000000000002857effffffffffffffffffffffffffffffffffffffffffffffffffffffffffffff191611155b156129cb5760018960008090509d509d509d506129f0565b5b89600001805180919060010181525050611c7b565b6000898b602001519d509d509d505b50505050505050505050509250925092565b612a0a614766565b612a12614752565b612a1a614752565b6000869250858503604051805910612a2f5750595b9080825280601f01601f191660200182016040525091508590505b84811015612af8578281815181101515612a6057fe5b9060200101517f010000000000000000000000000000000000000000000000000000000000000090047f01000000000000000000000000000000000000000000000000000000000000000282878303815181101515612abb57fe5b9060200101907effffffffffffffffffffffffffffffffffffffffffffffffffffffffffffff1916908160001a9053508080600101915050612a4a565b8193505050509392505050565b6000612b0f614752565b612b17614752565b600080869350859250835191508183511015612b3257825191505b600090505b81811015612d75578281815181101515612b4d57fe5b9060200101517f010000000000000000000000000000000000000000000000000000000000000090047f0100000000000000000000000000000000000000000000000000000000000000027effffffffffffffffffffffffffffffffffffffffffffffffffffffffffffff19168482815181101515612bc857fe5b9060200101517f010000000000000000000000000000000000000000000000000000000000000090047f0100000000000000000000000000000000000000000000000000000000000000027effffffffffffffffffffffffffffffffffffffffffffffffffffffffffffff19161015612c63577fffffffffffffffffffffffffffffffffffffffffffffffffffffffffffffffff9450612dbf565b8281815181101515612c7157fe5b9060200101517f010000000000000000000000000000000000000000000000000000000000000090047f0100000000000000000000000000000000000000000000000000000000000000027effffffffffffffffffffffffffffffffffffffffffffffffffffffffffffff19168482815181101515612cec57fe5b9060200101517f010000000000000000000000000000000000000000000000000000000000000090047f0100000000000000000000000000000000000000000000000000000000000000027effffffffffffffffffffffffffffffffffffffffffffffffffffffffffffff19161115612d685760019450612dbf565b8080600101915050612b37565b825184511015612da7577fffffffffffffffffffffffffffffffffffffffffffffffffffffffffffffffff9450612dbf565b825184511115612dba5760019450612dbf565b600094505b5050505092915050565b6000612dd6826000613d40565b9050919050565b612de5614752565b612e128260007f01000000000000000000000000000000000000000000000000000000000000000261411f565b9050919050565b612e216147d7565b612e2c83838361454c565b5092915050565b612e3b614752565b612e43614752565b60008360000151604051805910612e575750595b9080825280601f01601f19166020018201604052509150602082019050612e8781856020015186600001516145ea565b8192505050919050565b60008060008060008887111515612f3b57602087111515612ef25760018760200360080260020a031980875116888b038a018a96505b818388511614612ee757600187019650806001880310612ec7578b8b0196505b505050839450612f41565b8686209150879350600092505b86890383111515612f3a578684209050806000191682600019161415612f2757839450612f41565b6001840193508280600101935050612eff565b5b88880194505b50505050949350505050565b612f556147d7565b82600001518263ffffffff1611151515612f6e57600080fd5b8163ffffffff168360200181815101915081815250508163ffffffff1683600001818151039150818152505082905092915050565b60008060008060008060008060008a6000015197508a600001518a600001511015612fd057896000015197505b8a60200151965089602001519550600094505b87851015613041578651935085519250828414151561302a57600185896020030160080260020a031991508183168285160390506000811415156130295780985061304f565b5b602087019650602086019550602085019450612fe3565b89600001518b600001510398505b505050505050505092915050565b613065614752565b6130928260017f01000000000000000000000000000000000000000000000000000000000000000261411f565b9050919050565b6130a16147d7565b81836000015111156130b857818360000181815250505b82905092915050565b6130c96147f1565b6130d161477a565b6130d96147f1565b6130e161477a565b60606040519081016040528060008152602001600081526020017fffffffffffffffffffffffffffffffffffffffffffffffffffffffffffffffff81525091508460405180591061312f5750595b90808252806020026020018201604052801561316557816020015b613152614813565b81526020019060019003908161314a5790505b5090508181935093505050915091565b600061317f61478e565b61318761478e565b835185602001511015156131bf5760008460018651038151811015156131a957fe5b906020019060200201518090509250925061323f565b60c060405190810160405280600060048111156131d857fe5b81526020016000815260200160001515815260200160008152602001600015158152602001600060ff1681525090508084866020015181518110151561321a57fe5b9060200190602002018190525084602001805180919060010181525050600181925092505b509250929050565b60008060008061325561478e565b87600001519350876000018051809190600101815250505b8551886000015110156139445785886000015181518110151561328c57fe5b9060200101517f010000000000000000000000000000000000000000000000000000000000000090047f01000000000000000000000000000000000000000000000000000000000000000292507f2200000000000000000000000000000000000000000000000000000000000000837effffffffffffffffffffffffffffffffffffffffffffffffffffffffffffff191614156133685761332d8888613175565b9150915081151561334b578388600001818152505060039450613953565b61335f816003600187018b60000151614635565b60009450613953565b605c7f010000000000000000000000000000000000000000000000000000000000000002837effffffffffffffffffffffffffffffffffffffffffffffffffffffffffffff19161480156133c3575085516001896000015101105b1561392e57876000018051809190600101815250507f220000000000000000000000000000000000000000000000000000000000000086896000015181518110151561340b57fe5b9060200101517f010000000000000000000000000000000000000000000000000000000000000090047f0100000000000000000000000000000000000000000000000000000000000000027effffffffffffffffffffffffffffffffffffffffffffffffffffffffffffff1916148061352157507f2f000000000000000000000000000000000000000000000000000000000000008689600001518151811015156134b257fe5b9060200101517f010000000000000000000000000000000000000000000000000000000000000090047f0100000000000000000000000000000000000000000000000000000000000000027effffffffffffffffffffffffffffffffffffffffffffffffffffffffffffff1916145b806135c957507f5c0000000000000000000000000000000000000000000000000000000000000086896000015181518110151561355a57fe5b9060200101517f010000000000000000000000000000000000000000000000000000000000000090047f0100000000000000000000000000000000000000000000000000000000000000027effffffffffffffffffffffffffffffffffffffffffffffffffffffffffffff1916145b8061367157507f660000000000000000000000000000000000000000000000000000000000000086896000015181518110151561360257fe5b9060200101517f010000000000000000000000000000000000000000000000000000000000000090047f0100000000000000000000000000000000000000000000000000000000000000027effffffffffffffffffffffffffffffffffffffffffffffffffffffffffffff1916145b8061371957507f72000000000000000000000000000000000000000000000000000000000000008689600001518151811015156136aa57fe5b9060200101517f010000000000000000000000000000000000000000000000000000000000000090047f0100000000000000000000000000000000000000000000000000000000000000027effffffffffffffffffffffffffffffffffffffffffffffffffffffffffffff1916145b806137c157507f6e0000000000000000000000000000000000000000000000000000000000000086896000015181518110151561375257fe5b9060200101517f010000000000000000000000000000000000000000000000000000000000000090047f0100000000000000000000000000000000000000000000000000000000000000027effffffffffffffffffffffffffffffffffffffffffffffffffffffffffffff1916145b8061386957507f62000000000000000000000000000000000000000000000000000000000000008689600001518151811015156137fa57fe5b9060200101517f010000000000000000000000000000000000000000000000000000000000000090047f0100000000000000000000000000000000000000000000000000000000000000027effffffffffffffffffffffffffffffffffffffffffffffffffffffffffffff1916145b8061391157507f74000000000000000000000000000000000000000000000000000000000000008689600001518151811015156138a257fe5b9060200101517f010000000000000000000000000000000000000000000000000000000000000090047f0100000000000000000000000000000000000000000000000000000000000000027effffffffffffffffffffffffffffffffffffffffffffffffffffffffffffff1916145b1561391b5761392f565b8388600001818152505060019450613953565b5b8760000180518091906001018152505061326d565b83886000018181525050600294505b505050509392505050565b600080600080600061396e61478e565b60009450886000015193505b865189600001511015613ccb5786896000015181518110151561399957fe5b9060200101517f010000000000000000000000000000000000000000000000000000000000000090047f01000000000000000000000000000000000000000000000000000000000000000292507f2000000000000000000000000000000000000000000000000000000000000000837effffffffffffffffffffffffffffffffffffffffffffffffffffffffffffff19161480613a7757507f0900000000000000000000000000000000000000000000000000000000000000837effffffffffffffffffffffffffffffffffffffffffffffffffffffffffffff1916145b80613ac357507f0a00000000000000000000000000000000000000000000000000000000000000837effffffffffffffffffffffffffffffffffffffffffffffffffffffffffffff1916145b80613b0f57507f0d00000000000000000000000000000000000000000000000000000000000000837effffffffffffffffffffffffffffffffffffffffffffffffffffffffffffff1916145b80613b5b57507f2c00000000000000000000000000000000000000000000000000000000000000837effffffffffffffffffffffffffffffffffffffffffffffffffffffffffffff1916145b80613baa5750607d7f010000000000000000000000000000000000000000000000000000000000000002837effffffffffffffffffffffffffffffffffffffffffffffffffffffffffffff1916145b80613bf95750605d7f010000000000000000000000000000000000000000000000000000000000000002837effffffffffffffffffffffffffffffffffffffffffffffffffffffffffffff1916145b15613c075760019450613ccb565b60207f010000000000000000000000000000000000000000000000000000000000000002837effffffffffffffffffffffffffffffffffffffffffffffffffffffffffffff19161080613c9e5750607f7f010000000000000000000000000000000000000000000000000000000000000002837effffffffffffffffffffffffffffffffffffffffffffffffffffffffffffff1916115b15613cb6578389600001818152505060019550613d34565b8860000180518091906001018152505061397a565b841515613ce5578389600001818152505060029550613d34565b613cef8989613175565b91509150811515613d0d578389600001818152505060039550613d34565b613d1e816004868c60000151614635565b8860000180518091906001900381525050600095505b50505050509392505050565b6000613d4a614752565b600080600080879450600093506000925060009150600090505b84518110156140d357600081148015613e1657507f2d000000000000000000000000000000000000000000000000000000000000008582815181101515613da757fe5b9060200101517f010000000000000000000000000000000000000000000000000000000000000090047f0100000000000000000000000000000000000000000000000000000000000000027effffffffffffffffffffffffffffffffffffffffffffffffffffffffffffff1916145b15613e2057600191505b60307f0100000000000000000000000000000000000000000000000000000000000000028582815181101515613e5257fe5b9060200101517f010000000000000000000000000000000000000000000000000000000000000090047f0100000000000000000000000000000000000000000000000000000000000000027effffffffffffffffffffffffffffffffffffffffffffffffffffffffffffff191610158015613f6a575060397f0100000000000000000000000000000000000000000000000000000000000000028582815181101515613efa57fe5b9060200101517f010000000000000000000000000000000000000000000000000000000000000090047f0100000000000000000000000000000000000000000000000000000000000000027effffffffffffffffffffffffffffffffffffffffffffffffffffffffffffff191611155b1561401b578215613f8d576000871415613f83576140d3565b8680600190039750505b600a8402935060308582815181101515613fa357fe5b9060200101517f010000000000000000000000000000000000000000000000000000000000000090047f0100000000000000000000000000000000000000000000000000000000000000027f0100000000000000000000000000000000000000000000000000000000000000900403840193506140c6565b602e7f010000000000000000000000000000000000000000000000000000000000000002858281518110151561404d57fe5b9060200101517f010000000000000000000000000000000000000000000000000000000000000090047f0100000000000000000000000000000000000000000000000000000000000000027effffffffffffffffffffffffffffffffffffffffffffffffffffffffffffff191614156140c557600192505b5b8080600101915050613d64565b60008711156140e55786600a0a840293505b8115614111577fffffffffffffffffffffffffffffffffffffffffffffffffffffffffffffffff840293505b839550505050505092915050565b614127614752565b61412f614752565b600080600080600061413f6147d7565b602060405190810160405280600081525096506060955089601b81518110151561416557fe5b9060200101517f010000000000000000000000000000000000000000000000000000000000000090047f0100000000000000000000000000000000000000000000000000000000000000027f01000000000000000000000000000000000000000000000000000000000000009004610100028a601a8151811015156141e657fe5b9060200101517f010000000000000000000000000000000000000000000000000000000000000090047f0100000000000000000000000000000000000000000000000000000000000000027f010000000000000000000000000000000000000000000000000000000000000090040186019550600093505b89600781518110151561426d57fe5b9060200101517f010000000000000000000000000000000000000000000000000000000000000090047f0100000000000000000000000000000000000000000000000000000000000000027f01000000000000000000000000000000000000000000000000000000000000009004610100028a60068151811015156142ee57fe5b9060200101517f010000000000000000000000000000000000000000000000000000000000000090047f0100000000000000000000000000000000000000000000000000000000000000027f010000000000000000000000000000000000000000000000000000000000000090040161ffff168461ffff16101561453c57602186018a0151925082600160028110151561438457fe5b1a7f0100000000000000000000000000000000000000000000000000000000000000027f01000000000000000000000000000000000000000000000000000000000000009004610100028360006002811015156143dd57fe5b1a7f0100000000000000000000000000000000000000000000000000000000000000027f01000000000000000000000000000000000000000000000000000000000000009004019150896003870161ffff1681518110151561443b57fe5b9060200101517f010000000000000000000000000000000000000000000000000000000000000090047f0100000000000000000000000000000000000000000000000000000000000000029450600486019550887effffffffffffffffffffffffffffffffffffffffffffffffffffffffffffff1916857effffffffffffffffffffffffffffffffffffffffffffffffffffffffffffff19161415614527576145078261ffff166144f98861ffff168d6146a690919063ffffffff16565b61309990919063ffffffff16565b90506145248161451689611845565b6146d490919063ffffffff16565b96505b6010820186019550838060010194505061425e565b8697505050505050505092915050565b6145546147d7565b60006145728560000151866020015186600001518760200151612e91565b905084602001518360200181815250508460200151810383600001818152505084600001518560200151018114156145b45760008560000181815250506145df565b8360000151836000015101856000018181510391508181525050836000015181018560200181815250505b829150509392505050565b60005b60208210151561461257825184526020840193506020830192506020820391506145ed565b6001826020036101000a0390508019835116818551168181178652505050505050565b828460000190600481111561464657fe5b9081600481111561465357fe5b8152505081846020018181525050600184604001901515908115158152505080846060018181525050600184608001901515908115158152505060008460a0019060ff16908160ff168152505050505050565b6146ae6147d7565b6146b66147d7565b6146bf84611845565b90506146cb8184612f4d565b91505092915050565b6146dc614752565b6146e4614752565b600083600001518560000151016040518059106146fe5750595b9080825280601f01601f1916602001820160405250915060208201905061472e81866020015187600001516145ea565b61474785600001518201856020015186600001516145ea565b819250505092915050565b602060405190810160405280600081525090565b602060405190810160405280600081525090565b602060405190810160405280600081525090565b60c060405190810160405280600060048111156147a757fe5b81526020016000815260200160001515815260200160008152602001600015158152602001600060ff1681525090565b604080519081016040528060008152602001600081525090565b6060604051908101604052806000815260200160008152602001600081525090565b60c0604051908101604052806000600481111561482c57fe5b81526020016000815260200160001515815260200160008152602001600015158152602001600060ff16815250905600a165627a7a723058207db578e66682627243ba5f3e749c0c25a4dbb2e3f5a64329dd247f2cc4b3b82f002920001000ffff03000f342cb6795605002e1b34b67956050040000000040000004747b4bc12342f8f1284ade439dab6c9e65c8c1a21baf5aad04826f92f322dbfa329b5e234c8e667ee67d48f93cffdb6618711b1cf41086923136f5acbda498802850000474554202f70726f78792e70793f75726c3d68747470732533412f2f696e6465782e626974636f696e2e636f6d2f6170692f76302f6c6f6f6b757025334674696d652533443135303135343536303020485454502f312e310d0a486f73743a20746c732d6e2e6f72670d0a436f6e6e656374696f6e3a206b6565702d616c6976650d0a0d0a48cbc6d79e5d485108825791a8b93cb4027e0101485454502f312e3120323030204f4b0d0a446174653a204672692c2031312041756720323031372031323a34373a313020474d540d0a5365727665723a204170616368652f322e342e3620285265642048617420456e7465727072697365204c696e757829204f70656e53534c2f312e302e31652d66697073205048502f352e342e3136206d6f645f6e73732f312e302e3134204e53532f332e33302e310d0a436f6e6e656374696f6e3a20636c6f73650d0a582d506f77657265642d42793a20457870726573730d0a4163636573732d436f6e74726f6c2d416c6c6f772d4f726967696e3a202a0d0a457870697265733a205361742c2031322041756720323031372030303a31353a303020474d540d0a436f6e74656e742d4c656e6774683a203338390d0a455461673a20572f223138352d682b7163754d5a6a337470702b5a6e4b2f714f703641220d0a436f6e74656e742d547970653a206170706c69636174696f6e2f6a736f6e3b20636861727365743d7574662d380d0a0d0a42635e88507a700fc6f26c78ee946e9d028501017b0a2020226f70656e223a207b0a20202020227072696365223a203237343433352c0a202020202274696d65223a207b0a20202020202022756e6978223a20313530313435393230302c0a2020202020202269736f223a2022323031372d30372d33315430303a30303a30302e3030305a220a202020207d0a20207d2c0a202022636c6f7365223a207b0a20202020227072696365223a203238333931382c0a202020202274696d65223a207b0a20202020202022756e6978223a20313530313534353630302c0a2020202020202269736f223a2022323031372d30382d30315430303a30303a30302e3030305a220a202020207d0a20207d2c0a2020226c6f6f6b7570223a207b0a20202020227072696365223a203238333931382c0a20202020226b223a20312c0a202020202274696d65223a207b0a20202020202022756e6978223a20313530313534353630302c0a2020202020202269736f223a2022323031372d30382d30315430303a30303a30302e3030305a220a202020207d0a20207d0a7d61bf0574796575ddff1b1155f5919f28",
  "source": "pragma solidity ^0.4.1;\n\nimport \"./imported/JsmnSolLib.sol\";\nimport \"./imported/bytesutils.sol\";\nimport \"./imported/tlsnutils.sol\";\n\ncontract BTCPriceFeed {\n    using bytesutils for *;\n\n    bytes prf = hex\"20001000ffff03000f342cb6795605002e1b34b67956050040000000040000004747b4bc12342f8f1284ade439dab6c9e65c8c1a21baf5aad04826f92f322dbfa329b5e234c8e667ee67d48f93cffdb6618711b1cf41086923136f5acbda498802850000474554202f70726f78792e70793f75726c3d68747470732533412f2f696e6465782e626974636f696e2e636f6d2f6170692f76302f6c6f6f6b757025334674696d652533443135303135343536303020485454502f312e310d0a486f73743a20746c732d6e2e6f72670d0a436f6e6e656374696f6e3a206b6565702d616c6976650d0a0d0a48cbc6d79e5d485108825791a8b93cb4027e0101485454502f312e3120323030204f4b0d0a446174653a204672692c2031312041756720323031372031323a34373a313020474d540d0a5365727665723a204170616368652f322e342e3620285265642048617420456e7465727072697365204c696e757829204f70656e53534c2f312e302e31652d66697073205048502f352e342e3136206d6f645f6e73732f312e302e3134204e53532f332e33302e310d0a436f6e6e656374696f6e3a20636c6f73650d0a582d506f77657265642d42793a20457870726573730d0a4163636573732d436f6e74726f6c2d416c6c6f772d4f726967696e3a202a0d0a457870697265733a205361742c2031322041756720323031372030303a31353a303020474d540d0a436f6e74656e742d4c656e6774683a203338390d0a455461673a20572f223138352d682b7163754d5a6a337470702b5a6e4b2f714f703641220d0a436f6e74656e742d547970653a206170706c69636174696f6e2f6a736f6e3b20636861727365743d7574662d380d0a0d0a42635e88507a700fc6f26c78ee946e9d028501017b0a2020226f70656e223a207b0a20202020227072696365223a203237343433352c0a202020202274696d65223a207b0a20202020202022756e6978223a20313530313435393230302c0a2020202020202269736f223a2022323031372d30372d33315430303a30303a30302e3030305a220a202020207d0a20207d2c0a202022636c6f7365223a207b0a20202020227072696365223a203238333931382c0a202020202274696d65223a207b0a20202020202022756e6978223a20313530313534353630302c0a2020202020202269736f223a2022323031372d30382d30315430303a30303a30302e3030305a220a202020207d0a20207d2c0a2020226c6f6f6b7570223a207b0a20202020227072696365223a203238333931382c0a20202020226b223a20312c0a202020202274696d65223a207b0a20202020202022756e6978223a20313530313534353630302c0a2020202020202269736f223a2022323031372d30382d30315430303a30303a30302e3030305a220a202020207d0a20207d0a7d61bf0574796575ddff1b1155f5919f28\";\n\n    /**\n    This method is used to measure only the transaction costs\n    */\n    function transactioncost(bytes memory proof) returns (bool) {\n        revert();\n    }\n\n    /**\n    This method is used to measure only the verification costs\n    */\n    function verificationcost() {\n        uint n = 10; //NOTE: change this parameter to set the amount of signatures that will be verified\n\n        for (uint i = 0; i < n; i++) {\n            verifyProof(prf);\n        }\n    }\n\n    /**\n    This method is used to measure only the storage costs\n    */\n    // Mapping from timestamp to BTC price in USD cents (= 10**-2 USD)\n    mapping(uint32 => uint32) timestamp_to_price;\n    function storagecost() returns (bool) {\n\n        uint n = 10; //NOTE: change this parameter to set the number of messages signatures that will be stored\n\n        for (uint i = 0; i < n; i++) {\n\n            //The parser code from function submitProofOfPrice.\n\n            // Check HTTP Request\n            bytes memory request = tlsnutils.getHTTPRequestURL(prf);\n            // Check that the first part is correct\n            require(request.toSlice().startsWith(\"/proxy.py?url=https%3A//index.bitcoin.com/api/v0/lookup%3Ftime%3D\".toSlice()));\n            // Check that the second part is not too long\n            require(request.toSlice().find(\"%3D\".toSlice()).len() == 13);\n\n            // Check the host (kind of redundant due to signature check)\n            bytes memory host = tlsnutils.getHost(prf);\n            require(host.toSlice().equals(\"tls-n.org\".toSlice()));\n\n            // Get the body\n            bytes memory body = tlsnutils.getHTTPBody(prf);\n\n            uint32 timestamp0;\n            uint32 price0;\n            uint32 timestamp1;\n            uint32 price1;\n            // Parse the timestamps\n            (timestamp0, price0, timestamp1, price1) = this.parseBitcoinComFeed(string(body));\n            // Insert the timestamps\n            timestamp_to_price[timestamp0] = price0;\n            timestamp_to_price[timestamp1] = price1;\n        }\n\n        return true;\n    }\n\n    function verifyProof(bytes memory proof) returns (bool) {\n        // Check if proof is valid\n        // Elliptic curve parameters for the TLS certificate of tls-n.org\n        uint256 qx = 0x0de2583dc1b70c4d17936f6ca4d2a07aa2aba06b76a97e60e62af286adc1cc09;\n        uint256 qy = 0x68ba8822c94e79903406a002f4bc6a982d1b473f109debb2aa020c66f642144a;\n        return tlsnutils.verifyProof(proof, qx, qy);\n    }\n\n\t// Function that allows proof submission\n    function submitProofOfPrice(bytes memory proof) {\n        // Check if proof is valid\n        // Elliptic curve parameters for the TLS certificate of tls-n.org\n        uint256 qx = 0x0de2583dc1b70c4d17936f6ca4d2a07aa2aba06b76a97e60e62af286adc1cc09;\n        uint256 qy = 0x68ba8822c94e79903406a002f4bc6a982d1b473f109debb2aa020c66f642144a;\n        require(tlsnutils.verifyProof(proof, qx, qy));\n\n        // Check HTTP Request\n        bytes memory request = tlsnutils.getHTTPRequestURL(proof);\n        // Check that the first part is correct\n        require(request.toSlice().startsWith(\"/proxy.py?url=https%3A//index.bitcoin.com/api/v0/lookup%3Ftime%3D\".toSlice()));\n        // Check that the second part is not too long\n        require(request.toSlice().find(\"%3D\".toSlice()).len() == 13);\n\n        // Check the host (kind of redundant due to signature check)\n        bytes memory host = tlsnutils.getHost(proof);\n        require(host.toSlice().equals(\"tls-n.org\".toSlice()));\n\n        // Get the body\n        bytes memory body = tlsnutils.getHTTPBody(proof);\n\n        uint32 timestamp0;\n        uint32 price0;\n        uint32 timestamp1;\n        uint32 price1;\n\t\t// Parse the timestamps\n        (timestamp0, price0, timestamp1, price1) = this.parseBitcoinComFeed(string(body));\n\t\t// Insert the timestamps\n        timestamp_to_price[timestamp0] = price0;\n        timestamp_to_price[timestamp1] = price1;\n    }\n\n\t// Request a securely inserted price\n\t// Throws if no price found for given timestamp\n\tfunction getPrice(uint32 timestamp) returns (uint32){\n\t\tuint32 price = timestamp_to_price[timestamp];\n\t\t// Make sure this mapping element exists\n\t\trequire(price > 0);\n\t\treturn price;\n\t}\n\n    // Perform parsing of result using JsmnSolLib\n    // Returns: opening timestamp, opening price, closing timestamp, closing price\n    function parseBitcoinComFeed(string json) external returns(uint32 timestamp0, uint32 price0, uint32 timestamp1, uint32 price1){\n        uint res;\n        string memory val;\n        JsmnSolLib.Token[] memory tokens;\n        JsmnSolLib.Token memory t;\n        uint num_tokens;\n        // Parse JSON\n        (res, tokens, num_tokens) = JsmnSolLib.parse(json, 50);\n        require(res == 0);\n\n        // Find opening tag\n        t = tokens[1];\n        val = JsmnSolLib.getBytes(json, t.start, t.end);\n        require(JsmnSolLib.strCompare(val, \"open\") == 0);\n\n        // Ensure price is in result\n        t = tokens[3];\n        val = JsmnSolLib.getBytes(json, t.start, t.end);\n        require(JsmnSolLib.strCompare(val, \"price\") == 0);\n\n        // Read start price of the day\n        t = tokens[4];\n        price0 = uint32(JsmnSolLib.parseInt(JsmnSolLib.getBytes(json, t.start, t.end)));\n        require(price0 > 0);\n\n        // Read time tag\n        t = tokens[5];\n        val = JsmnSolLib.getBytes(json, t.start, t.end);\n        require(JsmnSolLib.strCompare(val, \"time\") == 0);\n\n        // Ensure time is unix timestamp\n        t = tokens[7];\n        val = JsmnSolLib.getBytes(json, t.start, t.end);\n        require(JsmnSolLib.strCompare(val, \"unix\") == 0);\n\n        // Get opening timestamp\n        t = tokens[8];\n        timestamp0 = uint32(JsmnSolLib.parseInt(JsmnSolLib.getBytes(json, t.start, t.end)));\n        require(timestamp0 > 0);\n\n        // Get closing tag\n        t = tokens[11];\n        val = JsmnSolLib.getBytes(json, t.start, t.end);\n        require(JsmnSolLib.strCompare(val, \"close\") == 0);\n\n        // Get price tag\n        t = tokens[13];\n        val = JsmnSolLib.getBytes(json, t.start, t.end);\n        require(JsmnSolLib.strCompare(val, \"price\") == 0);\n\n        // Get closing price\n        t = tokens[14];\n        price1 = uint32(JsmnSolLib.parseInt(JsmnSolLib.getBytes(json, t.start, t.end)));\n        require(price1 > 0);\n\n        // Get time tag\n        t = tokens[15];\n        val = JsmnSolLib.getBytes(json, t.start, t.end);\n        require(JsmnSolLib.strCompare(val, \"time\") == 0);\n\n        // Ensure time is unix timestamp\n        t = tokens[17];\n        val = JsmnSolLib.getBytes(json, t.start, t.end);\n        require(JsmnSolLib.strCompare(val, \"unix\") == 0);\n\n        // Get closing timestamp\n        t = tokens[18];\n        timestamp1 = uint32(JsmnSolLib.parseInt(JsmnSolLib.getBytes(json, t.start, t.end)));\n        require(timestamp1 > 0);\n\n    }\n\n}\n\n",
  "sourcePath": "/home/bjorn/Projects/BGRVerify/contracts/BTCPriceFeed.sol",
  "compiler": {
    "name": "solc",
    "version": "0.4.21+commit.dfe3193c.Emscripten.clang"
  },
  "schemaVersion": "2.0.0",
  "updatedAt": "2018-08-12T14:09:02.582Z"
}