{
  "contractName": "BTCPriceFeed",
  "abi": [
    {
      "constant": false,
      "inputs": [
        {
          "name": "json",
          "type": "string"
        }
      ],
      "name": "parseBitcoinComFeed",
      "outputs": [
        {
          "name": "timestamp0",
          "type": "uint32"
        },
        {
          "name": "price0",
          "type": "uint32"
        },
        {
          "name": "timestamp1",
          "type": "uint32"
        },
        {
          "name": "price1",
          "type": "uint32"
        }
      ],
      "payable": false,
      "stateMutability": "nonpayable",
      "type": "function"
    },
    {
      "constant": false,
      "inputs": [
        {
          "name": "proof",
          "type": "bytes"
        }
      ],
      "name": "doNothing",
      "outputs": [
        {
          "name": "",
          "type": "bool"
        }
      ],
      "payable": false,
      "stateMutability": "nonpayable",
      "type": "function"
    },
    {
      "constant": false,
      "inputs": [
        {
          "name": "proof",
          "type": "bytes"
        }
      ],
      "name": "test",
      "outputs": [
        {
          "name": "",
          "type": "bytes"
        }
      ],
      "payable": false,
      "stateMutability": "nonpayable",
      "type": "function"
    },
    {
      "constant": false,
      "inputs": [
        {
          "name": "p",
          "type": "bytes"
        }
      ],
      "name": "submitProofOfPrice",
      "outputs": [],
      "payable": false,
      "stateMutability": "nonpayable",
      "type": "function"
    },
    {
      "constant": false,
      "inputs": [
        {
          "name": "timestamp",
          "type": "uint32"
        }
      ],
      "name": "getPrice",
      "outputs": [
        {
          "name": "",
          "type": "uint32"
        }
      ],
      "payable": false,
      "stateMutability": "nonpayable",
      "type": "function"
    }
  ],
  "bytecode": "0x60606040526104a06040519081016040528061048081526020016200443c610480913960009080519060200190620000399291906200004c565b5034156200004657600080fd5b620000fb565b828054600181600116156101000203166002900490600052602060002090601f016020900481019282601f106200008f57805160ff1916838001178555620000c0565b82800160010185558215620000c0579182015b82811115620000bf578251825591602001919060010190620000a2565b5b509050620000cf9190620000d3565b5090565b620000f891905b80821115620000f4576000816000905550600101620000da565b5090565b90565b614331806200010b6000396000f30060606040526004361061006d576000357c0100000000000000000000000000000000000000000000000000000000900463ffffffff1680632f570a23146100725780635322175e1461014857806356fd66e1146101a557806378a9e88a1461021a578063da26663a146102a1575b600080fd5b341561007d57600080fd5b6100cd600480803590602001908201803590602001908080601f016020809104026020016040519081016040528093929190818152602001838380828437820191505050505050919050506102ea565b6040518080602001828103825283818151815260200191508051906020019080838360005b8381101561010d5780820151818401526020810190506100f2565b50505050905090810190601f16801561013a5780820380516001836020036101000a031916815260200191505b509250505060405180910390f35b341561015357600080fd5b6101a3600480803590602001908201803590602001908080601f016020809104026020016040519081016040528093929190818152602001838380828437820191505050505050919050506102fa565b005b34156101b057600080fd5b610200600480803590602001908201803590602001908080601f01602080910402602001604051908101604052809392919081815260200183838082843782019150505050505091905050610984565b604051808215151515815260200191505060405180910390f35b341561022557600080fd5b6102466004808035906020019082018035906020019190919290505061098b565b604051808563ffffffff1663ffffffff1681526020018463ffffffff1663ffffffff1681526020018363ffffffff1663ffffffff1681526020018263ffffffff1663ffffffff16815260200194505050505060405180910390f35b34156102ac57600080fd5b6102c8600480803563ffffffff16906020019091905050611187565b604051808263ffffffff1663ffffffff16815260200191505060405180910390f35b6102f26141fb565b819050919050565b6000806103056141fb565b61030d6141fb565b6103156141fb565b6000806000807f0de2583dc1b70c4d17936f6ca4d2a07aa2aba06b76a97e60e62af286adc1cc0998507f68ba8822c94e79903406a002f4bc6a982d1b473f109debb2aa020c66f642144a975073__tlsnutils_____________________________635569909f60008b8b6040518463ffffffff167c0100000000000000000000000000000000000000000000000000000000028152600401808060200184815260200183815260200182810382528581815460018160011615610100020316600290048152602001915080546001816001161561010002031660029004801561043f5780601f106104145761010080835404028352916020019161043f565b820191906000526020600020905b81548152906001019060200180831161042257829003601f168201915b505094505050505060206040518083038186803b151561045e57600080fd5b5af4151561046b57600080fd5b50505060405180519050151561048057600080fd5b61052360008054600181600116156101000203166002900480601f0160208091040260200160405190810160405280929190818152602001828054600181600116156101000203166002900480156105195780601f106104ee57610100808354040283529160200191610519565b820191906000526020600020905b8154815290600101906020018083116104fc57829003601f168201915b50505050506111da565b96506105ca6105b3608060405190810160405280604181526020017f2f70726f78792e70793f75726c3d68747470732533412f2f696e6465782e626981526020017f74636f696e2e636f6d2f6170692f76302f6c6f6f6b757025334674696d65253381526020017f44000000000000000000000000000000000000000000000000000000000000008152506112ee565b6105bc896112ee565b61131c90919063ffffffff16565b15156105d557600080fd5b600d61063761063261061b6040805190810160405280600381526020017f25334400000000000000000000000000000000000000000000000000000000008152506112ee565b6106248b6112ee565b61137490919063ffffffff16565b6113c6565b14151561064357600080fd5b6106e660008054600181600116156101000203166002900480601f0160208091040260200160405190810160405280929190818152602001828054600181600116156101000203166002900480156106dc5780601f106106b1576101008083540402835291602001916106dc565b820191906000526020600020905b8154815290600101906020018083116106bf57829003601f168201915b50505050506113d4565b95506107406107296040805190810160405280600981526020017f746c732d6e2e6f726700000000000000000000000000000000000000000000008152506112ee565b610732886112ee565b61159990919063ffffffff16565b151561074b57600080fd5b6107ee60008054600181600116156101000203166002900480601f0160208091040260200160405190810160405280929190818152602001828054600181600116156101000203166002900480156107e45780601f106107b9576101008083540402835291602001916107e4565b820191906000526020600020905b8154815290600101906020018083116107c757829003601f168201915b50505050506115af565b94503073ffffffffffffffffffffffffffffffffffffffff166378a9e88a866040518263ffffffff167c01000000000000000000000000000000000000000000000000000000000281526004018080602001828103825283818151815260200191508051906020019080838360005b8381101561087857808201518184015260208101905061085d565b50505050905090810190601f1680156108a55780820380516001836020036101000a031916815260200191505b5092505050608060405180830381600087803b15156108c357600080fd5b5af115156108d057600080fd5b505050604051805190602001805190602001805190602001805190508094508195508296508397505050505082600160008663ffffffff1663ffffffff16815260200190815260200160002060006101000a81548163ffffffff021916908363ffffffff16021790555080600160008463ffffffff1663ffffffff16815260200190815260200160002060006101000a81548163ffffffff021916908363ffffffff16021790555050505050505050505050565b6000806000fd5b600080600080600061099b61420f565b6109a3614223565b6109ab614237565b60006109ea8b8b8080601f01602080910402602001604051908101604052809392919081815260200183838082843782019150505050505060326116d5565b809350819550829750505050600085141515610a0557600080fd5b826001815181101515610a1457fe5b906020019060200201519150610a658b8b8080601f016020809104026020016040519081016040528093929190818152602001838380828437820191505050505050836020015184606001516124ab565b93506000610aa8856040805190810160405280600481526020017f6f70656e000000000000000000000000000000000000000000000000000000008152506125ae565b141515610ab457600080fd5b826003815181101515610ac357fe5b906020019060200201519150610b148b8b8080601f016020809104026020016040519081016040528093929190818152602001838380828437820191505050505050836020015184606001516124ab565b93506000610b57856040805190810160405280600581526020017f70726963650000000000000000000000000000000000000000000000000000008152506125ae565b141515610b6357600080fd5b826004815181101515610b7257fe5b906020019060200201519150610bcb610bc68c8c8080601f016020809104026020016040519081016040528093929190818152602001838380828437820191505050505050846020015185606001516124ab565b612872565b975060008863ffffffff16111515610be257600080fd5b826005815181101515610bf157fe5b906020019060200201519150610c428b8b8080601f016020809104026020016040519081016040528093929190818152602001838380828437820191505050505050836020015184606001516124ab565b93506000610c85856040805190810160405280600481526020017f74696d65000000000000000000000000000000000000000000000000000000008152506125ae565b141515610c9157600080fd5b826007815181101515610ca057fe5b906020019060200201519150610cf18b8b8080601f016020809104026020016040519081016040528093929190818152602001838380828437820191505050505050836020015184606001516124ab565b93506000610d34856040805190810160405280600481526020017f756e6978000000000000000000000000000000000000000000000000000000008152506125ae565b141515610d4057600080fd5b826008815181101515610d4f57fe5b906020019060200201519150610da8610da38c8c8080601f016020809104026020016040519081016040528093929190818152602001838380828437820191505050505050846020015185606001516124ab565b612872565b985060008963ffffffff16111515610dbf57600080fd5b82600b815181101515610dce57fe5b906020019060200201519150610e1f8b8b8080601f016020809104026020016040519081016040528093929190818152602001838380828437820191505050505050836020015184606001516124ab565b93506000610e62856040805190810160405280600581526020017f636c6f73650000000000000000000000000000000000000000000000000000008152506125ae565b141515610e6e57600080fd5b82600d815181101515610e7d57fe5b906020019060200201519150610ece8b8b8080601f016020809104026020016040519081016040528093929190818152602001838380828437820191505050505050836020015184606001516124ab565b93506000610f11856040805190810160405280600581526020017f70726963650000000000000000000000000000000000000000000000000000008152506125ae565b141515610f1d57600080fd5b82600e815181101515610f2c57fe5b906020019060200201519150610f85610f808c8c8080601f016020809104026020016040519081016040528093929190818152602001838380828437820191505050505050846020015185606001516124ab565b612872565b955060008663ffffffff16111515610f9c57600080fd5b82600f815181101515610fab57fe5b906020019060200201519150610ffc8b8b8080601f016020809104026020016040519081016040528093929190818152602001838380828437820191505050505050836020015184606001516124ab565b9350600061103f856040805190810160405280600481526020017f74696d65000000000000000000000000000000000000000000000000000000008152506125ae565b14151561104b57600080fd5b82601181518110151561105a57fe5b9060200190602002015191506110ab8b8b8080601f016020809104026020016040519081016040528093929190818152602001838380828437820191505050505050836020015184606001516124ab565b935060006110ee856040805190810160405280600481526020017f756e6978000000000000000000000000000000000000000000000000000000008152506125ae565b1415156110fa57600080fd5b82601281518110151561110957fe5b90602001906020020151915061116261115d8c8c8080601f016020809104026020016040519081016040528093929190818152602001838380828437820191505050505050846020015185606001516124ab565b612872565b965060008763ffffffff1611151561117957600080fd5b505050505092959194509250565b600080600160008463ffffffff1663ffffffff16815260200190815260200160002060009054906101000a900463ffffffff16905060008163ffffffff161115156111d157600080fd5b80915050919050565b6111e26141fb565b6111ea6141fb565b6111f2614280565b6111fa614280565b611202614280565b61120b86612886565b9350611216846112ee565b92506112566040805190810160405280600181526020017f20000000000000000000000000000000000000000000000000000000000000008152506112ee565b915061126b82846128c290919063ffffffff16565b90506112bd6112ae6040805190810160405280600381526020017f47455400000000000000000000000000000000000000000000000000000000008152506112ee565b8261159990919063ffffffff16565b15156112c857600080fd5b6112e36112de83856128c290919063ffffffff16565b6128dc565b945050505050919050565b6112f6614280565b600060208301905060408051908101604052808451815260200182815250915050919050565b600080826000015184600001511015611338576000915061136d565b826020015184602001511415611351576001915061136d565b8251602085015160208501518281208383201493505050508091505b5092915050565b61137c614280565b600061139a846000015185602001518560000151866020015161293a565b905083602001518103846000018181510391508181525050808460200181815250508391505092915050565b600081600001519050919050565b6113dc6141fb565b6113e4614280565b6113f56113f084612886565b6112ee565b90506114476114386040805190810160405280600481526020017f0d0a0d0a000000000000000000000000000000000000000000000000000000008152506112ee565b826128c290919063ffffffff16565b905061149961148a6040805190810160405280600581526020017f486f73743a0000000000000000000000000000000000000000000000000000008152506112ee565b8261137490919063ffffffff16565b506114ae6005826129f690919063ffffffff16565b506114ff6114f06040805190810160405280600281526020017f0d0a0000000000000000000000000000000000000000000000000000000000008152506112ee565b826128c290919063ffffffff16565b90505b6115526115436040805190810160405280600181526020017f20000000000000000000000000000000000000000000000000000000000000008152506112ee565b8261131c90919063ffffffff16565b156115715761156b6001826129f690919063ffffffff16565b50611502565b600061157c826113c6565b11151561158857600080fd5b611591816128dc565b915050919050565b6000806115a68484612a4c565b14905092915050565b6115b76141fb565b6115bf6141fb565b6115c7614280565b6115cf614280565b6115d885612b06565b92506115f6600f6115e8856112ee565b612b4290919063ffffffff16565b91506116486116396040805190810160405280600f81526020017f485454502f312e3120323030204f4b00000000000000000000000000000000008152506112ee565b8361159990919063ffffffff16565b151561165357600080fd5b6116ab6116946040805190810160405280600481526020017f0d0a0d0a000000000000000000000000000000000000000000000000000000008152506112ee565b61169d856112ee565b61137490919063ffffffff16565b90506116c16004826129f690919063ffffffff16565b506116cb816128dc565b9350505050919050565b60006116df614223565b60006116e96141fb565b6116f161429a565b6116f9614223565b6000806000806000611709614237565b6000808f9a506117188f612b6a565b99509950896020015196505b8a518a60000151101561248a578a8a6000015181518110151561174357fe5b9060200101517f010000000000000000000000000000000000000000000000000000000000000090047f0100000000000000000000000000000000000000000000000000000000000000029450607b7f010000000000000000000000000000000000000000000000000000000000000002857effffffffffffffffffffffffffffffffffffffffffffffffffffffffffffff191614806118275750605b7f010000000000000000000000000000000000000000000000000000000000000002857effffffffffffffffffffffffffffffffffffffffffffffffffffffffffffff1916145b1561196757868060010197505061183e8a8a612c1e565b9350935083151561185c5760038960008090509d509d509d50612499565b7fffffffffffffffffffffffffffffffffffffffffffffffffffffffffffffffff8a604001511415156118bb57888a6040015181518110151561189b57fe5b9060200190602002015160a001805180919060010160ff1660ff16815250505b607b7f010000000000000000000000000000000000000000000000000000000000000002857effffffffffffffffffffffffffffffffffffffffffffffffffffffffffffff19161461190e576002611911565b60015b8360000190600481111561192157fe5b9081600481111561192e57fe5b815250508960000151836020018181525050600183604001901515908115158152505060018a60200151038a6040018181525050612475565b607d7f010000000000000000000000000000000000000000000000000000000000000002857effffffffffffffffffffffffffffffffffffffffffffffffffffffffffffff191614806119fe5750605d7f010000000000000000000000000000000000000000000000000000000000000002857effffffffffffffffffffffffffffffffffffffffffffffffffffffffffffff1916145b15611c3e57607d7f010000000000000000000000000000000000000000000000000000000000000002857effffffffffffffffffffffffffffffffffffffffffffffffffffffffffffff191614611a56576002611a59565b60015b91506000905060018a602001510395505b600086101515611b6d578886815181101515611a8257fe5b90602001906020020151925082604001518015611aa157508260800151155b15611b5f57816004811115611ab257fe5b83600001516004811115611ac257fe5b141515611adc5760018960008090509d509d509d50612499565b7fffffffffffffffffffffffffffffffffffffffffffffffffffffffffffffffff8a604001818152505060018a60000151018987815181101515611b1c57fe5b90602001906020020151606001818152505060018987815181101515611b3e57fe5b90602001906020020151608001901515908115158152505060019050611b6d565b858060019003965050611a6a565b801515611b875760018960008090509d509d509d50612499565b5b6000861115611be0578886815181101515611b9f57fe5b90602001906020020151925082604001518015611bbe57508260800151155b15611bd257858a6040018181525050611be0565b858060019003965050611b88565b6000861415611c39578886815181101515611bf757fe5b90602001906020020151925082604001518015611c1657508260800151155b15611c3857856fffffffffffffffffffffffffffffffff168a60400181815250505b5b612475565b7f2200000000000000000000000000000000000000000000000000000000000000857effffffffffffffffffffffffffffffffffffffffffffffffffffffffffffff19161415611d1d57611c938a8a8d612cf0565b9750600088141515611cb157878960008090509d509d509d50612499565b86806001019750507fffffffffffffffffffffffffffffffffffffffffffffffffffffffffffffffff8a60400151141515611d1857888a60400151815181101515611cf857fe5b9060200190602002015160a001805180919060010160ff1660ff16815250505b612475565b7f2000000000000000000000000000000000000000000000000000000000000000857effffffffffffffffffffffffffffffffffffffffffffffffffffffffffffff19161480611db1575060117f010000000000000000000000000000000000000000000000000000000000000002857effffffffffffffffffffffffffffffffffffffffffffffffffffffffffffff1916145b80611e00575060127f010000000000000000000000000000000000000000000000000000000000000002857effffffffffffffffffffffffffffffffffffffffffffffffffffffffffffff1916145b80611e4f575060147f010000000000000000000000000000000000000000000000000000000000000002857effffffffffffffffffffffffffffffffffffffffffffffffffffffffffffff1916145b15611e5957612475565b7f3a00000000000000000000000000000000000000000000000000000000000000857effffffffffffffffffffffffffffffffffffffffffffffffffffffffffffff19161415611eb95760018a60200151038a6040018181525050612475565b7f2c00000000000000000000000000000000000000000000000000000000000000857effffffffffffffffffffffffffffffffffffffffffffffffffffffffffffff191614156120a9577fffffffffffffffffffffffffffffffffffffffffffffffffffffffffffffffff8a6040015114158015611f6d575060026004811115611f3f57fe5b898b60400151815181101515611f5157fe5b90602001906020020151600001516004811115611f6a57fe5b14155b8015611faf575060016004811115611f8157fe5b898b60400151815181101515611f9357fe5b90602001906020020151600001516004811115611fac57fe5b14155b156120a45760018a602001510395505b6000861015156120a35760026004811115611fd657fe5b8987815181101515611fe457fe5b90602001906020020151600001516004811115611ffd57fe5b148061203a57506001600481111561201157fe5b898781518110151561201f57fe5b9060200190602002015160000151600481111561203857fe5b145b1561209557888681518110151561204d57fe5b906020019060200201516040015180156120805750888681518110151561207057fe5b9060200190602002015160800151155b1561209457858a60400181815250506120a3565b5b858060019003965050611fbf565b5b612475565b7f3000000000000000000000000000000000000000000000000000000000000000857effffffffffffffffffffffffffffffffffffffffffffffffffffffffffffff19161015801561213d57507f3900000000000000000000000000000000000000000000000000000000000000857effffffffffffffffffffffffffffffffffffffffffffffffffffffffffffff191611155b8061218957507f2d00000000000000000000000000000000000000000000000000000000000000857effffffffffffffffffffffffffffffffffffffffffffffffffffffffffffff1916145b806121d557507f6600000000000000000000000000000000000000000000000000000000000000857effffffffffffffffffffffffffffffffffffffffffffffffffffffffffffff1916145b8061222157507f7400000000000000000000000000000000000000000000000000000000000000857effffffffffffffffffffffffffffffffffffffffffffffffffffffffffffff1916145b8061226d57507f6e00000000000000000000000000000000000000000000000000000000000000857effffffffffffffffffffffffffffffffffffffffffffffffffffffffffffff1916145b156123c2577fffffffffffffffffffffffffffffffffffffffffffffffffffffffffffffffff8a6040015114151561232d57888a604001518151811015156122b157fe5b906020019060200201519250600160048111156122ca57fe5b836000015160048111156122da57fe5b14806123145750600360048111156122ee57fe5b836000015160048111156122fe57fe5b148015612313575060008360a0015160ff1614155b5b1561232c5760018960008090509d509d509d50612499565b5b6123388a8a8d613407565b975060008814151561235657878960008090509d509d509d50612499565b86806001019750507fffffffffffffffffffffffffffffffffffffffffffffffffffffffffffffffff8a604001511415156123bd57888a6040015181518110151561239d57fe5b9060200190602002015160a001805180919060010160ff1660ff16815250505b612475565b60207f010000000000000000000000000000000000000000000000000000000000000002857effffffffffffffffffffffffffffffffffffffffffffffffffffffffffffff19161015801561245c5750607e7f010000000000000000000000000000000000000000000000000000000000000002857effffffffffffffffffffffffffffffffffffffffffffffffffffffffffffff191611155b156124745760018960008090509d509d509d50612499565b5b89600001805180919060010181525050611724565b6000898b602001519d509d509d505b50505050505050505050509250925092565b6124b361420f565b6124bb6141fb565b6124c36141fb565b60008692508585036040518059106124d85750595b9080825280601f01601f191660200182016040525091508590505b848110156125a157828181518110151561250957fe5b9060200101517f010000000000000000000000000000000000000000000000000000000000000090047f0100000000000000000000000000000000000000000000000000000000000000028287830381518110151561256457fe5b9060200101907effffffffffffffffffffffffffffffffffffffffffffffffffffffffffffff1916908160001a90535080806001019150506124f3565b8193505050509392505050565b60006125b86141fb565b6125c06141fb565b6000808693508592508351915081835110156125db57825191505b600090505b8181101561281e5782818151811015156125f657fe5b9060200101517f010000000000000000000000000000000000000000000000000000000000000090047f0100000000000000000000000000000000000000000000000000000000000000027effffffffffffffffffffffffffffffffffffffffffffffffffffffffffffff1916848281518110151561267157fe5b9060200101517f010000000000000000000000000000000000000000000000000000000000000090047f0100000000000000000000000000000000000000000000000000000000000000027effffffffffffffffffffffffffffffffffffffffffffffffffffffffffffff1916101561270c577fffffffffffffffffffffffffffffffffffffffffffffffffffffffffffffffff9450612868565b828181518110151561271a57fe5b9060200101517f010000000000000000000000000000000000000000000000000000000000000090047f0100000000000000000000000000000000000000000000000000000000000000027effffffffffffffffffffffffffffffffffffffffffffffffffffffffffffff1916848281518110151561279557fe5b9060200101517f010000000000000000000000000000000000000000000000000000000000000090047f0100000000000000000000000000000000000000000000000000000000000000027effffffffffffffffffffffffffffffffffffffffffffffffffffffffffffff191611156128115760019450612868565b80806001019150506125e0565b825184511015612850577fffffffffffffffffffffffffffffffffffffffffffffffffffffffffffffffff9450612868565b8251845111156128635760019450612868565b600094505b5050505092915050565b600061287f8260006137e9565b9050919050565b61288e6141fb565b6128bb8260007f010000000000000000000000000000000000000000000000000000000000000002613bc8565b9050919050565b6128ca614280565b6128d5838383613ff5565b5092915050565b6128e46141fb565b6128ec6141fb565b600083600001516040518059106129005750595b9080825280601f01601f191660200182016040525091506020820190506129308185602001518660000151614093565b8192505050919050565b600080600080600088871115156129e45760208711151561299b5760018760200360080260020a031980875116888b038a018a96505b81838851161461299057600187019650806001880310612970578b8b0196505b5050508394506129ea565b8686209150879350600092505b868903831115156129e35786842090508060001916826000191614156129d0578394506129ea565b60018401935082806001019350506129a8565b5b88880194505b50505050949350505050565b6129fe614280565b82600001518263ffffffff1611151515612a1757600080fd5b8163ffffffff168360200181815101915081815250508163ffffffff1683600001818151039150818152505082905092915050565b60008060008060008060008060008a6000015197508a600001518a600001511015612a7957896000015197505b8a60200151965089602001519550600094505b87851015612aea5786519350855192508284141515612ad357600185896020030160080260020a03199150818316828516039050600081141515612ad257809850612af8565b5b602087019650602086019550602085019450612a8c565b89600001518b600001510398505b505050505050505092915050565b612b0e6141fb565b612b3b8260017f010000000000000000000000000000000000000000000000000000000000000002613bc8565b9050919050565b612b4a614280565b8183600001511115612b6157818360000181815250505b82905092915050565b612b7261429a565b612b7a614223565b612b8261429a565b612b8a614223565b60606040519081016040528060008152602001600081526020017fffffffffffffffffffffffffffffffffffffffffffffffffffffffffffffffff815250915084604051805910612bd85750595b908082528060200260200182016040528015612c0e57816020015b612bfb6142bc565b815260200190600190039081612bf35790505b5090508181935093505050915091565b6000612c28614237565b612c30614237565b83518560200151101515612c68576000846001865103815181101515612c5257fe5b9060200190602002015180905092509250612ce8565b60c06040519081016040528060006004811115612c8157fe5b81526020016000815260200160001515815260200160008152602001600015158152602001600060ff16815250905080848660200151815181101515612cc357fe5b9060200190602002018190525084602001805180919060010181525050600181925092505b509250929050565b600080600080612cfe614237565b87600001519350876000018051809190600101815250505b8551886000015110156133ed57858860000151815181101515612d3557fe5b9060200101517f010000000000000000000000000000000000000000000000000000000000000090047f01000000000000000000000000000000000000000000000000000000000000000292507f2200000000000000000000000000000000000000000000000000000000000000837effffffffffffffffffffffffffffffffffffffffffffffffffffffffffffff19161415612e1157612dd68888612c1e565b91509150811515612df45783886000018181525050600394506133fc565b612e08816003600187018b600001516140de565b600094506133fc565b605c7f010000000000000000000000000000000000000000000000000000000000000002837effffffffffffffffffffffffffffffffffffffffffffffffffffffffffffff1916148015612e6c575085516001896000015101105b156133d757876000018051809190600101815250507f2200000000000000000000000000000000000000000000000000000000000000868960000151815181101515612eb457fe5b9060200101517f010000000000000000000000000000000000000000000000000000000000000090047f0100000000000000000000000000000000000000000000000000000000000000027effffffffffffffffffffffffffffffffffffffffffffffffffffffffffffff19161480612fca57507f2f00000000000000000000000000000000000000000000000000000000000000868960000151815181101515612f5b57fe5b9060200101517f010000000000000000000000000000000000000000000000000000000000000090047f0100000000000000000000000000000000000000000000000000000000000000027effffffffffffffffffffffffffffffffffffffffffffffffffffffffffffff1916145b8061307257507f5c0000000000000000000000000000000000000000000000000000000000000086896000015181518110151561300357fe5b9060200101517f010000000000000000000000000000000000000000000000000000000000000090047f0100000000000000000000000000000000000000000000000000000000000000027effffffffffffffffffffffffffffffffffffffffffffffffffffffffffffff1916145b8061311a57507f66000000000000000000000000000000000000000000000000000000000000008689600001518151811015156130ab57fe5b9060200101517f010000000000000000000000000000000000000000000000000000000000000090047f0100000000000000000000000000000000000000000000000000000000000000027effffffffffffffffffffffffffffffffffffffffffffffffffffffffffffff1916145b806131c257507f720000000000000000000000000000000000000000000000000000000000000086896000015181518110151561315357fe5b9060200101517f010000000000000000000000000000000000000000000000000000000000000090047f0100000000000000000000000000000000000000000000000000000000000000027effffffffffffffffffffffffffffffffffffffffffffffffffffffffffffff1916145b8061326a57507f6e000000000000000000000000000000000000000000000000000000000000008689600001518151811015156131fb57fe5b9060200101517f010000000000000000000000000000000000000000000000000000000000000090047f0100000000000000000000000000000000000000000000000000000000000000027effffffffffffffffffffffffffffffffffffffffffffffffffffffffffffff1916145b8061331257507f62000000000000000000000000000000000000000000000000000000000000008689600001518151811015156132a357fe5b9060200101517f010000000000000000000000000000000000000000000000000000000000000090047f0100000000000000000000000000000000000000000000000000000000000000027effffffffffffffffffffffffffffffffffffffffffffffffffffffffffffff1916145b806133ba57507f740000000000000000000000000000000000000000000000000000000000000086896000015181518110151561334b57fe5b9060200101517f010000000000000000000000000000000000000000000000000000000000000090047f0100000000000000000000000000000000000000000000000000000000000000027effffffffffffffffffffffffffffffffffffffffffffffffffffffffffffff1916145b156133c4576133d8565b83886000018181525050600194506133fc565b5b87600001805180919060010181525050612d16565b83886000018181525050600294505b505050509392505050565b6000806000806000613417614237565b60009450886000015193505b8651896000015110156137745786896000015181518110151561344257fe5b9060200101517f010000000000000000000000000000000000000000000000000000000000000090047f01000000000000000000000000000000000000000000000000000000000000000292507f2000000000000000000000000000000000000000000000000000000000000000837effffffffffffffffffffffffffffffffffffffffffffffffffffffffffffff1916148061352057507f0900000000000000000000000000000000000000000000000000000000000000837effffffffffffffffffffffffffffffffffffffffffffffffffffffffffffff1916145b8061356c57507f0a00000000000000000000000000000000000000000000000000000000000000837effffffffffffffffffffffffffffffffffffffffffffffffffffffffffffff1916145b806135b857507f0d00000000000000000000000000000000000000000000000000000000000000837effffffffffffffffffffffffffffffffffffffffffffffffffffffffffffff1916145b8061360457507f2c00000000000000000000000000000000000000000000000000000000000000837effffffffffffffffffffffffffffffffffffffffffffffffffffffffffffff1916145b806136535750607d7f010000000000000000000000000000000000000000000000000000000000000002837effffffffffffffffffffffffffffffffffffffffffffffffffffffffffffff1916145b806136a25750605d7f010000000000000000000000000000000000000000000000000000000000000002837effffffffffffffffffffffffffffffffffffffffffffffffffffffffffffff1916145b156136b05760019450613774565b60207f010000000000000000000000000000000000000000000000000000000000000002837effffffffffffffffffffffffffffffffffffffffffffffffffffffffffffff191610806137475750607f7f010000000000000000000000000000000000000000000000000000000000000002837effffffffffffffffffffffffffffffffffffffffffffffffffffffffffffff1916115b1561375f5783896000018181525050600195506137dd565b88600001805180919060010181525050613423565b84151561378e5783896000018181525050600295506137dd565b6137988989612c1e565b915091508115156137b65783896000018181525050600395506137dd565b6137c7816004868c600001516140de565b8860000180518091906001900381525050600095505b50505050509392505050565b60006137f36141fb565b600080600080879450600093506000925060009150600090505b8451811015613b7c576000811480156138bf57507f2d00000000000000000000000000000000000000000000000000000000000000858281518110151561385057fe5b9060200101517f010000000000000000000000000000000000000000000000000000000000000090047f0100000000000000000000000000000000000000000000000000000000000000027effffffffffffffffffffffffffffffffffffffffffffffffffffffffffffff1916145b156138c957600191505b60307f01000000000000000000000000000000000000000000000000000000000000000285828151811015156138fb57fe5b9060200101517f010000000000000000000000000000000000000000000000000000000000000090047f0100000000000000000000000000000000000000000000000000000000000000027effffffffffffffffffffffffffffffffffffffffffffffffffffffffffffff191610158015613a13575060397f01000000000000000000000000000000000000000000000000000000000000000285828151811015156139a357fe5b9060200101517f010000000000000000000000000000000000000000000000000000000000000090047f0100000000000000000000000000000000000000000000000000000000000000027effffffffffffffffffffffffffffffffffffffffffffffffffffffffffffff191611155b15613ac4578215613a36576000871415613a2c57613b7c565b8680600190039750505b600a8402935060308582815181101515613a4c57fe5b9060200101517f010000000000000000000000000000000000000000000000000000000000000090047f0100000000000000000000000000000000000000000000000000000000000000027f010000000000000000000000000000000000000000000000000000000000000090040384019350613b6f565b602e7f0100000000000000000000000000000000000000000000000000000000000000028582815181101515613af657fe5b9060200101517f010000000000000000000000000000000000000000000000000000000000000090047f0100000000000000000000000000000000000000000000000000000000000000027effffffffffffffffffffffffffffffffffffffffffffffffffffffffffffff19161415613b6e57600192505b5b808060010191505061380d565b6000871115613b8e5786600a0a840293505b8115613bba577fffffffffffffffffffffffffffffffffffffffffffffffffffffffffffffffff840293505b839550505050505092915050565b613bd06141fb565b613bd86141fb565b6000806000806000613be8614280565b602060405190810160405280600081525096506060955089601b815181101515613c0e57fe5b9060200101517f010000000000000000000000000000000000000000000000000000000000000090047f0100000000000000000000000000000000000000000000000000000000000000027f01000000000000000000000000000000000000000000000000000000000000009004610100028a601a815181101515613c8f57fe5b9060200101517f010000000000000000000000000000000000000000000000000000000000000090047f0100000000000000000000000000000000000000000000000000000000000000027f010000000000000000000000000000000000000000000000000000000000000090040186019550600093505b896007815181101515613d1657fe5b9060200101517f010000000000000000000000000000000000000000000000000000000000000090047f0100000000000000000000000000000000000000000000000000000000000000027f01000000000000000000000000000000000000000000000000000000000000009004610100028a6006815181101515613d9757fe5b9060200101517f010000000000000000000000000000000000000000000000000000000000000090047f0100000000000000000000000000000000000000000000000000000000000000027f010000000000000000000000000000000000000000000000000000000000000090040161ffff168461ffff161015613fe557602186018a01519250826001600281101515613e2d57fe5b1a7f0100000000000000000000000000000000000000000000000000000000000000027f0100000000000000000000000000000000000000000000000000000000000000900461010002836000600281101515613e8657fe5b1a7f0100000000000000000000000000000000000000000000000000000000000000027f01000000000000000000000000000000000000000000000000000000000000009004019150896003870161ffff16815181101515613ee457fe5b9060200101517f010000000000000000000000000000000000000000000000000000000000000090047f0100000000000000000000000000000000000000000000000000000000000000029450600486019550887effffffffffffffffffffffffffffffffffffffffffffffffffffffffffffff1916857effffffffffffffffffffffffffffffffffffffffffffffffffffffffffffff19161415613fd057613fb08261ffff16613fa28861ffff168d61414f90919063ffffffff16565b612b4290919063ffffffff16565b9050613fcd81613fbf896112ee565b61417d90919063ffffffff16565b96505b60108201860195508380600101945050613d07565b8697505050505050505092915050565b613ffd614280565b600061401b856000015186602001518660000151876020015161293a565b9050846020015183602001818152505084602001518103836000018181525050846000015185602001510181141561405d576000856000018181525050614088565b8360000151836000015101856000018181510391508181525050836000015181018560200181815250505b829150509392505050565b60005b6020821015156140bb5782518452602084019350602083019250602082039150614096565b6001826020036101000a0390508019835116818551168181178652505050505050565b82846000019060048111156140ef57fe5b908160048111156140fc57fe5b8152505081846020018181525050600184604001901515908115158152505080846060018181525050600184608001901515908115158152505060008460a0019060ff16908160ff168152505050505050565b614157614280565b61415f614280565b614168846112ee565b905061417481846129f6565b91505092915050565b6141856141fb565b61418d6141fb565b600083600001518560000151016040518059106141a75750595b9080825280601f01601f191660200182016040525091506020820190506141d78186602001518760000151614093565b6141f08560000151820185602001518660000151614093565b819250505092915050565b602060405190810160405280600081525090565b602060405190810160405280600081525090565b602060405190810160405280600081525090565b60c0604051908101604052806000600481111561425057fe5b81526020016000815260200160001515815260200160008152602001600015158152602001600060ff1681525090565b604080519081016040528060008152602001600081525090565b6060604051908101604052806000815260200160008152602001600081525090565b60c060405190810160405280600060048111156142d557fe5b81526020016000815260200160001515815260200160008152602001600015158152602001600060ff16815250905600a165627a7a723058201d1ba63e020a38d173404a199275a3c70eadb5d893381c98978117bc706188d000290000000000000000000000000000000000000000000000000000000000000020000000000000000000000000000000000000000000000000000000000000042420001000ffff03000f342cb6795605002e1b34b67956050040000000040000004747b4bc12342f8f1284ade439dab6c9e65c8c1a21baf5aad04826f92f322dbfa329b5e234c8e667ee67d48f93cffdb6618711b1cf41086923136f5acbda498802850000474554202f70726f78792e70793f75726c3d68747470732533412f2f696e6465782e626974636f696e2e636f6d2f6170692f76302f6c6f6f6b757025334674696d652533443135303135343536303020485454502f312e310d0a486f73743a20746c732d6e2e6f72670d0a436f6e6e656374696f6e3a206b6565702d616c6976650d0a0d0a48cbc6d79e5d485108825791a8b93cb4027e0101485454502f312e3120323030204f4b0d0a446174653a204672692c2031312041756720323031372031323a34373a313020474d540d0a5365727665723a204170616368652f322e342e3620285265642048617420456e7465727072697365204c696e757829204f70656e53534c2f312e302e31652d66697073205048502f352e342e3136206d6f645f6e73732f312e302e3134204e53532f332e33302e310d0a436f6e6e656374696f6e3a20636c6f73650d0a582d506f77657265642d42793a20457870726573730d0a4163636573732d436f6e74726f6c2d416c6c6f772d4f726967696e3a202a0d0a457870697265733a205361742c2031322041756720323031372030303a31353a303020474d540d0a436f6e74656e742d4c656e6774683a203338390d0a455461673a20572f223138352d682b7163754d5a6a337470702b5a6e4b2f714f703641220d0a436f6e74656e742d547970653a206170706c69636174696f6e2f6a736f6e3b20636861727365743d7574662d380d0a0d0a42635e88507a700fc6f26c78ee946e9d028501017b0a2020226f70656e223a207b0a20202020227072696365223a203237343433352c0a202020202274696d65223a207b0a20202020202022756e6978223a20313530313435393230302c0a2020202020202269736f223a2022323031372d30372d33315430303a30303a30302e3030305a220a202020207d0a20207d2c0a202022636c6f7365223a207b0a20202020227072696365223a203238333931382c0a202020202274696d65223a207b0a20202020202022756e6978223a20313530313534353630302c0a2020202020202269736f223a2022323031372d30382d30315430303a30303a30302e3030305a220a202020207d0a20207d2c0a2020226c6f6f6b7570223a207b0a20202020227072696365223a203238333931382c0a20202020226b223a20312c0a202020202274696d65223a207b0a20202020202022756e6978223a20313530313534353630302c0a2020202020202269736f223a2022323031372d30382d30315430303a30303a30302e3030305a220a202020207d0a20207d0a7d61bf0574796575ddff1b1155f5919f2800000000000000000000000000000000000000000000000000000000",
  "source": "pragma solidity ^0.4.1;\n\nimport \"./imported/JsmnSolLib.sol\";\nimport \"./imported/bytesutils.sol\";\nimport \"./imported/tlsnutils.sol\";\n\ncontract BTCPriceFeed {\n    using bytesutils for *;\n\n    bytes proof = hex\"0000000000000000000000000000000000000000000000000000000000000020000000000000000000000000000000000000000000000000000000000000042420001000ffff03000f342cb6795605002e1b34b67956050040000000040000004747b4bc12342f8f1284ade439dab6c9e65c8c1a21baf5aad04826f92f322dbfa329b5e234c8e667ee67d48f93cffdb6618711b1cf41086923136f5acbda498802850000474554202f70726f78792e70793f75726c3d68747470732533412f2f696e6465782e626974636f696e2e636f6d2f6170692f76302f6c6f6f6b757025334674696d652533443135303135343536303020485454502f312e310d0a486f73743a20746c732d6e2e6f72670d0a436f6e6e656374696f6e3a206b6565702d616c6976650d0a0d0a48cbc6d79e5d485108825791a8b93cb4027e0101485454502f312e3120323030204f4b0d0a446174653a204672692c2031312041756720323031372031323a34373a313020474d540d0a5365727665723a204170616368652f322e342e3620285265642048617420456e7465727072697365204c696e757829204f70656e53534c2f312e302e31652d66697073205048502f352e342e3136206d6f645f6e73732f312e302e3134204e53532f332e33302e310d0a436f6e6e656374696f6e3a20636c6f73650d0a582d506f77657265642d42793a20457870726573730d0a4163636573732d436f6e74726f6c2d416c6c6f772d4f726967696e3a202a0d0a457870697265733a205361742c2031322041756720323031372030303a31353a303020474d540d0a436f6e74656e742d4c656e6774683a203338390d0a455461673a20572f223138352d682b7163754d5a6a337470702b5a6e4b2f714f703641220d0a436f6e74656e742d547970653a206170706c69636174696f6e2f6a736f6e3b20636861727365743d7574662d380d0a0d0a42635e88507a700fc6f26c78ee946e9d028501017b0a2020226f70656e223a207b0a20202020227072696365223a203237343433352c0a202020202274696d65223a207b0a20202020202022756e6978223a20313530313435393230302c0a2020202020202269736f223a2022323031372d30372d33315430303a30303a30302e3030305a220a202020207d0a20207d2c0a202022636c6f7365223a207b0a20202020227072696365223a203238333931382c0a202020202274696d65223a207b0a20202020202022756e6978223a20313530313534353630302c0a2020202020202269736f223a2022323031372d30382d30315430303a30303a30302e3030305a220a202020207d0a20207d2c0a2020226c6f6f6b7570223a207b0a20202020227072696365223a203238333931382c0a20202020226b223a20312c0a202020202274696d65223a207b0a20202020202022756e6978223a20313530313534353630302c0a2020202020202269736f223a2022323031372d30382d30315430303a30303a30302e3030305a220a202020207d0a20207d0a7d61bf0574796575ddff1b1155f5919f2800000000000000000000000000000000000000000000000000000000\";\n\n    // Mapping from timestamp to BTC price in USD cents (= 10**-2 USD)\n    mapping(uint32 => uint32) timestamp_to_price;\n\n\t// Perform parsing of result using JsmnSolLib\n\t// Returns: opening timestamp, opening price, closing timestamp, closing price\n    function parseBitcoinComFeed(string json) external returns(uint32 timestamp0, uint32 price0, uint32 timestamp1, uint32 price1){\n        uint res;\n\t\tstring memory val;\n        JsmnSolLib.Token[] memory tokens;\n        JsmnSolLib.Token memory t;\n        uint num_tokens;\n\t\t// Parse JSON\n        (res, tokens, num_tokens) = JsmnSolLib.parse(json, 50);\n        require(res == 0);\n\n\t\t// Find opening tag\n        t = tokens[1];\n        val = JsmnSolLib.getBytes(json, t.start, t.end);\n\t\trequire(JsmnSolLib.strCompare(val, \"open\") == 0);\n\n\t\t// Ensure price is in result\n        t = tokens[3];\n        val = JsmnSolLib.getBytes(json, t.start, t.end);\n\t\trequire(JsmnSolLib.strCompare(val, \"price\") == 0);\n\n\t\t// Read start price of the day\n        t = tokens[4];\n        price0 = uint32(JsmnSolLib.parseInt(JsmnSolLib.getBytes(json, t.start, t.end)));\n\t\trequire(price0 > 0);\n\n\t\t// Read time tag\n        t = tokens[5];\n        val = JsmnSolLib.getBytes(json, t.start, t.end);\n\t\trequire(JsmnSolLib.strCompare(val, \"time\") == 0);\n\n\t\t// Ensure time is unix timestamp\n        t = tokens[7];\n        val = JsmnSolLib.getBytes(json, t.start, t.end);\n\t\trequire(JsmnSolLib.strCompare(val, \"unix\") == 0);\n\n\t\t// Get opening timestamp\n        t = tokens[8];\n        timestamp0 = uint32(JsmnSolLib.parseInt(JsmnSolLib.getBytes(json, t.start, t.end)));\n\t\trequire(timestamp0 > 0);\n\n\t\t// Get closing tag\n        t = tokens[11];\n        val = JsmnSolLib.getBytes(json, t.start, t.end);\n\t\trequire(JsmnSolLib.strCompare(val, \"close\") == 0);\n\n\t\t// Get price tag\n        t = tokens[13];\n        val = JsmnSolLib.getBytes(json, t.start, t.end);\n\t\trequire(JsmnSolLib.strCompare(val, \"price\") == 0);\n\n\t\t// Get closing price\n        t = tokens[14];\n\t\tprice1 = uint32(JsmnSolLib.parseInt(JsmnSolLib.getBytes(json, t.start, t.end)));\n\t\trequire(price1 > 0);\n\n\t\t// Get time tag\n        t = tokens[15];\n        val = JsmnSolLib.getBytes(json, t.start, t.end);\n\t\trequire(JsmnSolLib.strCompare(val, \"time\") == 0);\n\n\t\t// Ensure time is unix timestamp\n        t = tokens[17];\n        val = JsmnSolLib.getBytes(json, t.start, t.end);\n\t\trequire(JsmnSolLib.strCompare(val, \"unix\") == 0);\n\n\t\t// Get closing timestamp\n        t = tokens[18];\n        timestamp1 = uint32(JsmnSolLib.parseInt(JsmnSolLib.getBytes(json, t.start, t.end)));\n\t\trequire(timestamp1 > 0);\n\n    }\n\n    /**\n    This method is used to measure only the transaction costs\n    */\n    function doNothing(bytes memory proof) returns (bool) {\n        revert();\n    }\n\n    function test(bytes memory proof) returns (bytes) {\n        return proof;\n    }\n\n\t// Function that allows proof submission\n    function submitProofOfPrice(bytes memory p){\n\n        // Check if proof is valid\n        // Elliptic curve parameters for the TLS certificate of tls-n.org\n        uint256 qx = 0x0de2583dc1b70c4d17936f6ca4d2a07aa2aba06b76a97e60e62af286adc1cc09;\n        uint256 qy = 0x68ba8822c94e79903406a002f4bc6a982d1b473f109debb2aa020c66f642144a;\n        require(tlsnutils.verifyProof(proof, qx, qy));\n\n        // Check HTTP Request\n        bytes memory request = tlsnutils.getHTTPRequestURL(proof);\n        // Check that the first part is correct\n        require(request.toSlice().startsWith(\"/proxy.py?url=https%3A//index.bitcoin.com/api/v0/lookup%3Ftime%3D\".toSlice()));\n        // Check that the second part is not too long\n        require(request.toSlice().find(\"%3D\".toSlice()).len() == 13);\n\n        // Check the host (kind of redundant due to signature check)\n        bytes memory host = tlsnutils.getHost(proof);\n        require(host.toSlice().equals(\"tls-n.org\".toSlice()));\n\n        // Get the body\n        bytes memory body = tlsnutils.getHTTPBody(proof);\n\n        uint32 timestamp0;\n        uint32 price0;\n        uint32 timestamp1;\n        uint32 price1;\n\t\t// Parse the timestamps\n        (timestamp0, price0, timestamp1, price1) = this.parseBitcoinComFeed(string(body));\n\t\t// Insert the timestamps\n        timestamp_to_price[timestamp0] = price0;\n        timestamp_to_price[timestamp1] = price1;\n    }\n\n\t// Request a securely inserted price\n\t// Throws if no price found for given timestamp\n\tfunction getPrice(uint32 timestamp) returns (uint32){\n\t\tuint32 price = timestamp_to_price[timestamp];\n\t\t// Make sure this mapping element exists\n\t\trequire(price > 0);\n\t\treturn price;\n\t}\n}\n\n",
  "sourcePath": "/home/bjorn/Projects/BGRVerify/contracts/BTCPriceFeed.sol",
  "compiler": {
    "name": "solc",
    "version": "0.4.21+commit.dfe3193c.Emscripten.clang"
  },
  "schemaVersion": "2.0.0",
  "updatedAt": "2018-06-07T12:17:06.299Z"
}