{
  "contractName": "ECDSA",
  "abi": [
    {
      "constant": false,
      "inputs": [],
      "name": "verificationcost",
      "outputs": [
        {
          "name": "",
          "type": "bool"
        }
      ],
      "payable": false,
      "stateMutability": "nonpayable",
      "type": "function"
    }
  ],
  "bytecode": "0x6060604052341561000f57600080fd5b6102948061001e6000396000f300606060405260043610610041576000357c0100000000000000000000000000000000000000000000000000000000900463ffffffff168063ca647a5d14610046575b600080fd5b341561005157600080fd5b610059610073565b604051808215151515815260200191505060405180910390f35b60008061007e610254565b60007f2b350a58f723b94ef3992ad0d3046f2398aef2fe117dc3a36737fb29df4a706a6001029250608060405190810160405280604181526020017fe6ca6508de09cbb639216743721076bc8beb7bb45e796e0e3422872f9f0fcd3681526020017f2e693be7ca40e2123dd1efaf71ebb94d38052458281ad3b69ec8977c82949284815260200160008152509150738e6a1f13a9c6b9443fea4393291308ac4c965b6990508073ffffffffffffffffffffffffffffffffffffffff166101448484610163565b73ffffffffffffffffffffffffffffffffffffffff1614935050505090565b6000806000806041855114151561017d576000935061024b565b6020850151925060408501519150606085015160001a9050601b8160ff1610156101a857601b810190505b601b8160ff16141580156101c05750601c8160ff1614155b156101ce576000935061024b565b600186828585604051600081526020016040526040518085600019166000191681526020018460ff1660ff1681526020018360001916600019168152602001826000191660001916815260200194505050505060206040516020810390808403906000865af1151561023f57600080fd5b50506020604051035193505b50505092915050565b6020604051908101604052806000815250905600a165627a7a72305820468d1620c4f33d3074d442faa2400a78c602c5e7534c85b72a6df789f4a580cc0029",
  "source": "pragma solidity ^0.4.21;\n\n\n/**\n * Based on https://github.com/OpenZeppelin/openzeppelin-solidity/blob/master/contracts/ECRecovery.sol\n */\n\ncontract ECDSA {\n\n    function verificationcost() public returns (bool) {\n        bytes32 message = 0x2b350a58f723b94ef3992ad0d3046f2398aef2fe117dc3a36737fb29df4a706a;\n        bytes memory sig = hex\"e6ca6508de09cbb639216743721076bc8beb7bb45e796e0e3422872f9f0fcd362e693be7ca40e2123dd1efaf71ebb94d38052458281ad3b69ec8977c8294928400\";\n        address addr = 0x8e6a1f13a9c6b9443fea4393291308ac4c965b69;\n\n        return recover(message, sig) == addr;\n    }\n\n    /**\n     * @dev Recover signer address from a message by using their signature\n     * @param hash bytes32 message, the hash is the signed message. What is recovered is the signer address.\n     * @param sig bytes signature, the signature is generated using web3.eth.sign()\n     */\n    function recover(bytes32 hash, bytes sig) internal returns (address) {\n        bytes32 r;\n        bytes32 s;\n        uint8 v;\n\n        // Check the signature length\n        if (sig.length != 65) {\n            return (address(0));\n        }\n\n        // Divide the signature in r, s and v variables\n        // ecrecover takes the signature parameters, and the only way to get them\n        // currently is to use assembly.\n        // solium-disable-next-line security/no-inline-assembly\n        assembly {\n            r := mload(add(sig, 32))\n            s := mload(add(sig, 64))\n            v := byte(0, mload(add(sig, 96)))\n        }\n\n        // Version of signature should be 27 or 28, but 0 and 1 are also possible versions\n        if (v < 27) {\n            v += 27;\n        }\n\n        // If the version is correct return the signer address\n        if (v != 27 && v != 28) {\n            return (address(0));\n        } else {\n            // solium-disable-next-line arg-overflow\n            return ecrecover(hash, v, r, s);\n        }\n    }\n\n    /**\n     * toEthSignedMessageHash\n     * @dev prefix a bytes32 value with \"\\x19Ethereum Signed Message:\"\n     * and hash the result\n     */\n    /*function toEthSignedMessageHash(bytes32 _hash) internal pure returns (bytes32) {\n        // 32 is the length in bytes of hash,\n        // enforced by the type signature above\n        return keccak256(\n            abi.encodePacked(\"\\x19Ethereum Signed Message:\\n32\", _hash)\n        );\n    }*/\n}\n",
  "sourcePath": "/home/bjorn/Projects/BGRVerify/contracts/ECDSA.sol",
  "compiler": {
    "name": "solc",
    "version": "0.4.21+commit.dfe3193c.Emscripten.clang"
  },
  "schemaVersion": "2.0.0",
  "updatedAt": "2018-08-12T14:09:02.531Z"
}