{
  "contractName": "ECDSA",
  "abi": [
    {
      "constant": false,
      "inputs": [],
      "name": "verificationcost",
      "outputs": [
        {
          "name": "",
          "type": "bool"
        }
      ],
      "payable": false,
      "stateMutability": "nonpayable",
      "type": "function"
    }
  ],
  "bytecode": "0x608060405234801561001057600080fd5b5061036d806100206000396000f300608060405260043610610041576000357c0100000000000000000000000000000000000000000000000000000000900463ffffffff168063ca647a5d14610046575b600080fd5b34801561005257600080fd5b5061005b610075565b604051808215151515815260200191505060405180910390f35b600080606060006100ba6040805190810160405280600481526020017f5445535400000000000000000000000000000000000000000000000000000000815250610198565b9250608060405190810160405280604181526020017fbceab59162da5e511fb9c37fda207d443d05e438e5c843c57b2d5628580ce92181526020017f6ffa0335834d8bb63d86fb42a8dd4d18f41bc3a301546e2c47aa1041c3a1823781526020017f0100000000000000000000000000000000000000000000000000000000000000815250915073999471bb43b9c9789050386f90c1ad63dca8910690508073ffffffffffffffffffffffffffffffffffffffff166101798484610249565b73ffffffffffffffffffffffffffffffffffffffff1614935050505090565b6000816040518082805190602001908083835b6020831015156101d057805182526020820191506020810190506020830392506101ab565b6001836020036101000a038019825116818451168082178552505050505050905001915050604051809103902060405180807f19457468657265756d205369676e6564204d6573736167653a0a333200000000815250601c01826000191660001916815260200191505060405180910390209050919050565b600080600080604185511415156102635760009350610338565b6020850151925060408501519150606085015160001a9050601b8160ff16101561028e57601b810190505b601b8160ff16141580156102a65750601c8160ff1614155b156102b45760009350610338565b600186828585604051600081526020016040526040518085600019166000191681526020018460ff1660ff1681526020018360001916600019168152602001826000191660001916815260200194505050505060206040516020810390808403906000865af115801561032b573d6000803e3d6000fd5b5050506020604051035193505b505050929150505600a165627a7a72305820a7a1cf32a3d96b213e006af9f974abfd227614ef242ff34776689bb21954777e0029",
  "source": "pragma solidity ^0.4.24;\n\n\n/**\n * Solution from https://ethereum.stackexchange.com/questions/55474/verification-of-externally-created-ecdsa-signatures-in-solidity/55487#55487\n * Helper methods from https://github.com/OpenZeppelin/openzeppelin-solidity/blob/master/contracts/ECRecovery.sol\n */\n\ncontract ECDSA {\n\n    function verificationcost() public returns (bool) {\n        bytes32 message = ethMessageHash(\"TEST\");\n\n        bytes memory sig = hex\"bceab59162da5e511fb9c37fda207d443d05e438e5c843c57b2d5628580ce9216ffa0335834d8bb63d86fb42a8dd4d18f41bc3a301546e2c47aa1041c3a1823701\";\n        address addr = 0x999471bb43b9c9789050386f90c1ad63dca89106;\n\n        return recover(message, sig) == addr;\n    }\n\n    /**\n     * @dev Recover signer address from a message by using their signature\n     * @param hash bytes32 message, the hash is the signed message. What is recovered is the signer address.\n     * @param sig bytes signature, the signature is generated using web3.eth.sign()\n     */\n    function recover(bytes32 hash, bytes sig) internal returns (address) {\n        bytes32 r;\n        bytes32 s;\n        uint8 v;\n\n        // Check the signature length\n        if (sig.length != 65) {\n            return (address(0));\n        }\n\n        // Divide the signature in r, s and v variables\n        // ecrecover takes the signature parameters, and the only way to get them\n        // currently is to use assembly.\n        // solium-disable-next-line security/no-inline-assembly\n        assembly {\n            r := mload(add(sig, 32))\n            s := mload(add(sig, 64))\n            v := byte(0, mload(add(sig, 96)))\n        }\n\n        // Version of signature should be 27 or 28, but 0 and 1 are also possible versions\n        if (v < 27) {\n            v += 27;\n        }\n\n        // If the version is correct return the signer address\n        if (v != 27 && v != 28) {\n            return (address(0));\n        } else {\n            // solium-disable-next-line arg-overflow\n            return ecrecover(hash, v, r, s);\n        }\n    }\n\n    /**\n    * @dev prefix a bytes32 value with \"\\x19Ethereum Signed Message:\" and hash the result\n    */\n    function ethMessageHash(string message) internal pure returns (bytes32) {\n        return keccak256(\n            \"\\x19Ethereum Signed Message:\\n32\", keccak256(message)\n        );\n    }\n}\n",
  "sourcePath": "/home/bjorn/Projects/BGRVerify/contracts/ECDSA.sol",
  "compiler": {
    "name": "solc",
    "version": "0.4.24+commit.e67f0147.Emscripten.clang"
  },
  "schemaVersion": "2.0.1",
  "updatedAt": "2018-08-12T14:56:41.889Z"
}