{
  "contractName": "ECDSA",
  "abi": [
    {
      "constant": false,
      "inputs": [
        {
          "name": "msgs",
          "type": "bytes"
        },
        {
          "name": "sigs",
          "type": "bytes"
        }
      ],
      "name": "transactioncost",
      "outputs": [
        {
          "name": "",
          "type": "bool"
        }
      ],
      "payable": false,
      "stateMutability": "nonpayable",
      "type": "function"
    },
    {
      "constant": false,
      "inputs": [],
      "name": "storagecost",
      "outputs": [],
      "payable": false,
      "stateMutability": "nonpayable",
      "type": "function"
    },
    {
      "constant": false,
      "inputs": [],
      "name": "verificationcost",
      "outputs": [],
      "payable": false,
      "stateMutability": "nonpayable",
      "type": "function"
    }
  ],
  "bytecode": "0x60806040526101c060405190810160405280610194815260200161082f610194913960009080519060200190610036929190610118565b50608060405190810160405280604181526020017ff6da5793bcdbb8dba81fcbdba6b1b65121c326e0bc446d3ed8ae43d89b1a9f2b81526020017f1009f3befd307edd50f6ddafd6c61183156c72658174997ec70aabccc0e6e3c281526020016000815250600190805190602001906100b0929190610118565b5073c8bc9062c7b85f0f1feac5e4923b409ad93bd4cb600260006101000a81548173ffffffffffffffffffffffffffffffffffffffff021916908373ffffffffffffffffffffffffffffffffffffffff16021790555034801561011257600080fd5b506101bd565b828054600181600116156101000203166002900490600052602060002090601f016020900481019282601f1061015957805160ff1916838001178555610187565b82800160010185558215610187579182015b8281111561018657825182559160200191906001019061016b565b5b5090506101949190610198565b5090565b6101ba91905b808211156101b657600081600090555060010161019e565b5090565b90565b610663806101cc6000396000f300608060405260043610610057576000357c0100000000000000000000000000000000000000000000000000000000900463ffffffff16806312943d6b1461005c5780638de5b74714610073578063ca647a5d1461013a575b600080fd5b34801561006857600080fd5b50610071610151565b005b34801561007f57600080fd5b50610120600480360381019080803590602001908201803590602001908080601f0160208091040260200160405190810160405280939291908181526020018383808284378201915050505050509192919290803590602001908201803590602001908080601f0160208091040260200160405190810160405280939291908181526020018383808284378201915050505050509192919290505050610204565b604051808215151515815260200191505060405180910390f35b34801561014657600080fd5b5061014f61020b565b005b600080600a9150600090505b8163ffffffff168163ffffffff161015610200576000600360008363ffffffff1663ffffffff16815260200190815260200160002090805460018160011615610100020316600290046101b192919061058b565b506001600460008363ffffffff1663ffffffff16815260200190815260200160002090805460018160011615610100020316600290046101f292919061058b565b50808060010191505061015d565b5050565b6000806000fd5b600080600a9150600090505b818163ffffffff16101561023b5761022d610240565b508080600101915050610217565b600080fd5b6000806102e660008054600181600116156101000203166002900480601f0160208091040260200160405190810160405280929190818152602001828054600181600116156101000203166002900480156102dc5780601f106102b1576101008083540402835291602001916102dc565b820191906000526020600020905b8154815290600101906020018083116102bf57829003601f168201915b50505050506103e2565b9050600260009054906101000a900473ffffffffffffffffffffffffffffffffffffffff1673ffffffffffffffffffffffffffffffffffffffff166103c58260018054600181600116156101000203166002900480601f0160208091040260200160405190810160405280929190818152602001828054600181600116156101000203166002900480156103bb5780601f10610390576101008083540402835291602001916103bb565b820191906000526020600020905b81548152906001019060200180831161039e57829003601f168201915b5050505050610493565b73ffffffffffffffffffffffffffffffffffffffff161491505090565b6000816040518082805190602001908083835b60208310151561041a57805182526020820191506020810190506020830392506103f5565b6001836020036101000a038019825116818451168082178552505050505050905001915050604051809103902060405180807f19457468657265756d205369676e6564204d6573736167653a0a333200000000815250601c01826000191660001916815260200191505060405180910390209050919050565b600080600080604185511415156104ad5760009350610582565b6020850151925060408501519150606085015160001a9050601b8160ff1610156104d857601b810190505b601b8160ff16141580156104f05750601c8160ff1614155b156104fe5760009350610582565b600186828585604051600081526020016040526040518085600019166000191681526020018460ff1660ff1681526020018360001916600019168152602001826000191660001916815260200194505050505060206040516020810390808403906000865af1158015610575573d6000803e3d6000fd5b5050506020604051035193505b50505092915050565b828054600181600116156101000203166002900490600052602060002090601f016020900481019282601f106105c45780548555610601565b8280016001018555821561060157600052602060002091601f016020900482015b828111156106005782548255916001019190600101906105e5565b5b50905061060e9190610612565b5090565b61063491905b80821115610630576000816000905550600101610618565b5090565b905600a165627a7a7230582063b53d145b62e1e3bf3375bf9f8bad81b9573222ef891de601336656fb21a97300297b0a2020226f70656e223a207b0a20202020227072696365223a2039353931372c0a202020202274696d65223a207b0a20202020202022756e6978223a20313438333134323430302c0a2020202020202269736f223a2022323031362d31322d33315430303a30303a30302e3030305a220a202020207d0a20207d2c0a202022636c6f7365223a207b0a20202020227072696365223a2039363736302c0a202020202274696d65223a207b0a20202020202022756e6978223a20313438333232383830302c0a2020202020202269736f223a2022323031372d30312d30315430303a30303a30302e3030305a220a202020207d0a20207d2c0a2020226c6f6f6b7570223a207b0a20202020227072696365223a2039363736302c0a20202020226b223a20312c0a202020202274696d65223a207b0a20202020202022756e6978223a20313438333232383830302c0a2020202020202269736f223a2022323031372d30312d30315430303a30303a30302e3030305a220a202020207d0a20207d0a7d0a6578616d706c652e636f6d2f6170692f31",
  "source": "pragma solidity ^0.4.24;\n\n\n/**\n * Solution from https://ethereum.stackexchange.com/questions/55474/verification-of-externally-created-ecdsa-signatures-in-solidity/55487#55487\n * Helper methods from https://github.com/OpenZeppelin/openzeppelin-solidity/blob/master/contracts/ECRecovery.sol\n */\n\ncontract ECDSA {\n\n    bytes message0 = hex\"7b0a2020226f70656e223a207b0a20202020227072696365223a2039353931372c0a202020202274696d65223a207b0a20202020202022756e6978223a20313438333134323430302c0a2020202020202269736f223a2022323031362d31322d33315430303a30303a30302e3030305a220a202020207d0a20207d2c0a202022636c6f7365223a207b0a20202020227072696365223a2039363736302c0a202020202274696d65223a207b0a20202020202022756e6978223a20313438333232383830302c0a2020202020202269736f223a2022323031372d30312d30315430303a30303a30302e3030305a220a202020207d0a20207d2c0a2020226c6f6f6b7570223a207b0a20202020227072696365223a2039363736302c0a20202020226b223a20312c0a202020202274696d65223a207b0a20202020202022756e6978223a20313438333232383830302c0a2020202020202269736f223a2022323031372d30312d30315430303a30303a30302e3030305a220a202020207d0a20207d0a7d0a6578616d706c652e636f6d2f6170692f31\";\n    bytes signature0 = hex\"f6da5793bcdbb8dba81fcbdba6b1b65121c326e0bc446d3ed8ae43d89b1a9f2b1009f3befd307edd50f6ddafd6c61183156c72658174997ec70aabccc0e6e3c200\";\n    address address0 = 0xc8bc9062c7b85f0f1feac5e4923b409ad93bd4cb;\n\n    /**\n    This method is used to measure only the transaction costs\n    */\n    function transactioncost(bytes msgs, bytes sigs) public returns (bool) {\n        revert();\n    }\n\n    /**\n   This method is used to measure only the storage costs\n   */\n    mapping(uint32 => bytes) msg_storage;\n    mapping(uint32 => bytes) sig_storage;\n    function storagecost() public {\n\n        uint32 n = 10; //NOTE: change this parameter to set the number of messages signatures that will be stored\n\n        for (uint32 i = 0; i < n; i++) {\n            msg_storage[i] = message0;\n            sig_storage[i] = signature0;\n        }\n    }\n\n    /**\n    This method is used to measure only the verification costs\n    */\n    function verificationcost() public {\n        uint n = 10; //NOTE: change this parameter to set the amount of signatures that will be verified\n\n        for (uint32 i = 0; i < n; i++) {\n            verifyTest();\n        }\n        revert();\n    }\n\n\n    function verifyTest() internal returns (bool) {\n        bytes32 message = ethMessageHashHex(message0);\n\n        return recover(message, signature0) == address0;\n    }\n\n    /**\n     * @dev Recover signer address from a message by using their signature\n     * @param hash bytes32 message, the hash is the signed message. What is recovered is the signer address.\n     * @param sig bytes signature, the signature is generated using web3.eth.sign()\n     */\n    function recover(bytes32 hash, bytes sig) pure internal returns (address) {\n        bytes32 r;\n        bytes32 s;\n        uint8 v;\n\n        // Check the signature length\n        if (sig.length != 65) {\n            return (address(0));\n        }\n\n        // Divide the signature in r, s and v variables\n        // ecrecover takes the signature parameters, and the only way to get them\n        // currently is to use assembly.\n        // solium-disable-next-line security/no-inline-assembly\n        assembly {\n            r := mload(add(sig, 32))\n            s := mload(add(sig, 64))\n            v := byte(0, mload(add(sig, 96)))\n        }\n\n        // Version of signature should be 27 or 28, but 0 and 1 are also possible versions\n        if (v < 27) {\n            v += 27;\n        }\n\n        // If the version is correct return the signer address\n        if (v != 27 && v != 28) {\n            return (address(0));\n        } else {\n            // solium-disable-next-line arg-overflow\n            return ecrecover(hash, v, r, s);\n        }\n    }\n\n    /**\n    * @dev prefix a bytes32 value with \"\\x19Ethereum Signed Message:\" and hash the result\n    */\n    function ethMessageHash(string message) internal pure returns (bytes32) {\n        return keccak256(\n            \"\\x19Ethereum Signed Message:\\n32\", keccak256(message)\n        );\n    }\n\n    /**\n    * @dev prefix a bytes32 value with \"\\x19Ethereum Signed Message:\" and hash the result\n    */\n    function ethMessageHashHex(bytes message) internal pure returns (bytes32) {\n        return keccak256(\n            \"\\x19Ethereum Signed Message:\\n32\", keccak256(message)\n        );\n    }\n\n}\n",
  "sourcePath": "/home/bjorn/Projects/BGRVerify/contracts/ECDSA.sol",
  "compiler": {
    "name": "solc",
    "version": "0.4.24+commit.e67f0147.Emscripten.clang"
  },
  "schemaVersion": "2.0.1",
  "updatedAt": "2018-08-15T11:19:15.486Z"
}