{
  "contractName": "ECMath",
  "abi": [
    {
      "constant": false,
      "inputs": [
        {
          "name": "qx",
          "type": "uint256"
        },
        {
          "name": "qy",
          "type": "uint256"
        },
        {
          "name": "e",
          "type": "uint256"
        },
        {
          "name": "r",
          "type": "uint256"
        },
        {
          "name": "s",
          "type": "uint256"
        }
      ],
      "name": "ecdsaverify",
      "outputs": [
        {
          "name": "",
          "type": "bool"
        }
      ],
      "payable": false,
      "stateMutability": "nonpayable",
      "type": "function"
    }
  ],
  "bytecode": "0x61166a610030600b82828239805160001a6073146000811461002057610022565bfe5b5030600052607381538281f3007300000000000000000000000000000000000000003014606060405260043610610058576000357c0100000000000000000000000000000000000000000000000000000000900463ffffffff168063d2689abc1461005d575b600080fd5b811561006857600080fd5b6100a260048080359060200190919080359060200190919080359060200190919080359060200190919080359060200190919050506100bc565b604051808215151515815260200191505060405180910390f35b6000806000806100ca6115ef565b6100d26115ef565b6100dc8b8b610250565b15156100eb5760009550610242565b610115877fffffffff00000000ffffffffffffffffbce6faada7179e84f3b9cac2fc6325516103b6565b94507fffffffff00000000ffffffffffffffffbce6faada7179e84f3b9cac2fc63255180151561014157fe5b858a0993507fffffffff00000000ffffffffffffffffbce6faada7179e84f3b9cac2fc63255180151561017057fe5b85890992506101db6060604051908101604052807f6b17d1f2e12c4247f8bce6e563a440f277037d812deb33a0f4a13945d898c29681526020017f4fe342e2fe1a7f9b8ee7eb4a7c0f9e162bce33576b315ececbb6406837bf51f5815260200160018152508561042b565b91506102036060604051908101604052808d81526020018c815260200160018152508461042b565b905061020f82826105a8565b905061021a81610e37565b600060028110151561022857fe5b602002015188141561023d5760019550610242565b600095505b505050505095945050505050565b60007fffffffff00000001000000000000000000000000ffffffffffffffffffffffff80151561027c57fe5b7fffffffff00000001000000000000000000000000ffffffffffffffffffffffff8015156102a657fe5b7f5ac635d8aa3a93e7b3ebbd55769886bc651d06b0cc53b0f63bce3c3e27d2604b7fffffffff00000001000000000000000000000000ffffffffffffffffffffffff8015156102f157fe5b867fffffffff00000001000000000000000000000000fffffffffffffffffffffffc09087fffffffff00000001000000000000000000000000ffffffffffffffffffffffff80151561033f57fe5b7fffffffff00000001000000000000000000000000ffffffffffffffffffffffff80151561036957fe5b8687098609087fffffffff00000001000000000000000000000000ffffffffffffffffffffffff80151561039957fe5b83840914156103ab57600190506103b0565b600090505b92915050565b60008060008060008060009450600193508692508791505b60008214151561041d5781838115156103e357fe5b04905083878015156103f157fe5b888015156103fb57fe5b86840989038708809550819650505081828202840380935081945050506103ce565b849550505050505092915050565b6104336115ef565b61043b6115ef565b600082600060038110151561044c57fe5b602002018181525050600082600160038110151561046657fe5b602002018181525050600082600260038110151561048057fe5b60200201818152505060008314806104ca575060008460006003811015156104a457fe5b60200201511480156104c9575060008460016003811015156104c257fe5b6020020151145b5b156104d7578191506105a1565b8360006003811015156104e657fe5b60200201518160006003811015156104fa57fe5b60200201818152505083600160038110151561051257fe5b602002015181600160038110151561052657fe5b60200201818152505083600260038110151561053e57fe5b602002015181600260038110151561055257fe5b6020020181815250505b60008314151561059d576001808416141561057e5761057b81836105a8565b91505b61058781610f93565b905060028381151561059557fe5b04925061055c565b8191505b5092915050565b6105b06115ef565b60008060008060008060008860006003811015156105ca57fe5b60200201511480156105ef575060008860016003811015156105e857fe5b6020020151145b801561060e5750600088600260038110151561060757fe5b6020020151145b1561061b57889650610e2b565b7fffffffff00000001000000000000000000000000ffffffffffffffffffffffff80151561064557fe5b7fffffffff00000001000000000000000000000000ffffffffffffffffffffffff80151561066f57fe5b89600260038110151561067e57fe5b60200201518a600260038110151561069257fe5b6020020151098a60006003811015156106a757fe5b60200201510995507fffffffff00000001000000000000000000000000ffffffffffffffffffffffff8015156106d957fe5b7fffffffff00000001000000000000000000000000ffffffffffffffffffffffff80151561070357fe5b8a600260038110151561071257fe5b60200201518b600260038110151561072657fe5b60200201510989600060038110151561073b57fe5b60200201510994507fffffffff00000001000000000000000000000000ffffffffffffffffffffffff80151561076d57fe5b7fffffffff00000001000000000000000000000000ffffffffffffffffffffffff80151561079757fe5b8960026003811015156107a657fe5b60200201517fffffffff00000001000000000000000000000000ffffffffffffffffffffffff8015156107d557fe5b8b60026003811015156107e457fe5b60200201518c60026003811015156107f857fe5b602002015109098a600160038110151561080e57fe5b60200201510993507fffffffff00000001000000000000000000000000ffffffffffffffffffffffff80151561084057fe5b7fffffffff00000001000000000000000000000000ffffffffffffffffffffffff80151561086a57fe5b8a600260038110151561087957fe5b60200201517fffffffff00000001000000000000000000000000ffffffffffffffffffffffff8015156108a857fe5b8c60026003811015156108b757fe5b60200201518d60026003811015156108cb57fe5b602002015109098960016003811015156108e157fe5b60200201510992508486141561096057828414151561095057600187600060038110151561090b57fe5b602002018181525050600187600160038110151561092557fe5b602002018181525050600087600260038110151561093f57fe5b602002018181525050869650610e2b565b61095989610f93565b9650610e2b565b7fffffffff00000001000000000000000000000000ffffffffffffffffffffffff80151561098a57fe5b867fffffffff00000001000000000000000000000000ffffffffffffffffffffffff03860891507fffffffff00000001000000000000000000000000ffffffffffffffffffffffff8015156109db57fe5b847fffffffff00000001000000000000000000000000ffffffffffffffffffffffff03840890507fffffffff00000001000000000000000000000000ffffffffffffffffffffffff801515610a2c57fe5b7fffffffff00000001000000000000000000000000ffffffffffffffffffffffff801515610a5657fe5b7fffffffff00000001000000000000000000000000ffffffffffffffffffffffff801515610a8057fe5b7fffffffff00000001000000000000000000000000ffffffffffffffffffffffff801515610aaa57fe5b85860989096002097fffffffff00000001000000000000000000000000ffffffffffffffffffffffff037fffffffff00000001000000000000000000000000ffffffffffffffffffffffff801515610afe57fe5b7fffffffff00000001000000000000000000000000ffffffffffffffffffffffff801515610b2857fe5b7fffffffff00000001000000000000000000000000ffffffffffffffffffffffff801515610b5257fe5b86870986097fffffffff00000001000000000000000000000000ffffffffffffffffffffffff037fffffffff00000001000000000000000000000000ffffffffffffffffffffffff801515610ba357fe5b8586090808876000600381101515610bb757fe5b6020020181815250507fffffffff00000001000000000000000000000000ffffffffffffffffffffffff801515610bea57fe5b7fffffffff00000001000000000000000000000000ffffffffffffffffffffffff801515610c1457fe5b7fffffffff00000001000000000000000000000000ffffffffffffffffffffffff801515610c3e57fe5b7fffffffff00000001000000000000000000000000ffffffffffffffffffffffff801515610c6857fe5b858609850986097fffffffff00000001000000000000000000000000ffffffffffffffffffffffff037fffffffff00000001000000000000000000000000ffffffffffffffffffffffff801515610cbb57fe5b7fffffffff00000001000000000000000000000000ffffffffffffffffffffffff801515610ce557fe5b8a6000600381101515610cf457fe5b60200201517fffffffff00000001000000000000000000000000ffffffffffffffffffffffff037fffffffff00000001000000000000000000000000ffffffffffffffffffffffff801515610d4557fe5b7fffffffff00000001000000000000000000000000ffffffffffffffffffffffff801515610d6f57fe5b8889098c0908840908876001600381101515610d8757fe5b6020020181815250507fffffffff00000001000000000000000000000000ffffffffffffffffffffffff801515610dba57fe5b7fffffffff00000001000000000000000000000000ffffffffffffffffffffffff801515610de457fe5b896002600381101515610df357fe5b60200201518b6002600381101515610e0757fe5b6020020151098309876002600381101515610e1e57fe5b6020020181815250508696505b50505050505092915050565b610e3f611617565b600080610e7f846002600381101515610e5457fe5b60200201517fffffffff00000001000000000000000000000000ffffffffffffffffffffffff6103b6565b91507fffffffff00000001000000000000000000000000ffffffffffffffffffffffff801515610eab57fe5b82830990507fffffffff00000001000000000000000000000000ffffffffffffffffffffffff801515610eda57fe5b81856000600381101515610eea57fe5b602002015109836000600281101515610eff57fe5b6020020181815250507fffffffff00000001000000000000000000000000ffffffffffffffffffffffff801515610f3257fe5b7fffffffff00000001000000000000000000000000ffffffffffffffffffffffff801515610f5c57fe5b828409856001600381101515610f6e57fe5b602002015109836001600281101515610f8357fe5b6020020181815250505050919050565b610f9b6115ef565b6000806000846001600381101515610faf57fe5b60200201511415611010576001836000600381101515610fcb57fe5b6020020181815250506001836001600381101515610fe557fe5b6020020181815250506000836002600381101515610fff57fe5b6020020181815250508292506115e8565b7fffffffff00000001000000000000000000000000ffffffffffffffffffffffff80151561103a57fe5b7fffffffff00000001000000000000000000000000ffffffffffffffffffffffff80151561106457fe5b7fffffffff00000001000000000000000000000000ffffffffffffffffffffffff80151561108e57fe5b86600160038110151561109d57fe5b60200201518760016003811015156110b157fe5b6020020151098660006003811015156110c657fe5b60200201510960040990507fffffffff00000001000000000000000000000000ffffffffffffffffffffffff8015156110fb57fe5b7fffffffff00000001000000000000000000000000ffffffffffffffffffffffff80151561112557fe5b7fffffffff00000001000000000000000000000000ffffffffffffffffffffffff80151561114f57fe5b7fffffffff00000001000000000000000000000000ffffffffffffffffffffffff80151561117957fe5b87600260038110151561118857fe5b602002015188600260038110151561119c57fe5b6020020151097fffffffff00000001000000000000000000000000ffffffffffffffffffffffff8015156111cc57fe5b8860026003811015156111db57fe5b60200201518960026003811015156111ef57fe5b602002015109097fffffffff00000001000000000000000000000000fffffffffffffffffffffffc097fffffffff00000001000000000000000000000000ffffffffffffffffffffffff80151561124257fe5b7fffffffff00000001000000000000000000000000ffffffffffffffffffffffff80151561126c57fe5b87600060038110151561127b57fe5b602002015188600060038110151561128f57fe5b6020020151096003090891507fffffffff00000001000000000000000000000000ffffffffffffffffffffffff8015156112c557fe5b7fffffffff00000001000000000000000000000000ffffffffffffffffffffffff8015156112ef57fe5b600283097fffffffff00000001000000000000000000000000ffffffffffffffffffffffff037fffffffff00000001000000000000000000000000ffffffffffffffffffffffff80151561133f57fe5b8485090883600060038110151561135257fe5b6020020181815250507fffffffff00000001000000000000000000000000ffffffffffffffffffffffff80151561138557fe5b7fffffffff00000001000000000000000000000000ffffffffffffffffffffffff8015156113af57fe5b7fffffffff00000001000000000000000000000000ffffffffffffffffffffffff8015156113d957fe5b7fffffffff00000001000000000000000000000000ffffffffffffffffffffffff80151561140357fe5b87600160038110151561141257fe5b602002015188600160038110151561142657fe5b6020020151097fffffffff00000001000000000000000000000000ffffffffffffffffffffffff80151561145657fe5b88600160038110151561146557fe5b602002015189600160038110151561147957fe5b602002015109096008097fffffffff00000001000000000000000000000000ffffffffffffffffffffffff037fffffffff00000001000000000000000000000000ffffffffffffffffffffffff8015156114cf57fe5b7fffffffff00000001000000000000000000000000ffffffffffffffffffffffff8015156114f957fe5b86600060038110151561150857fe5b60200201517fffffffff00000001000000000000000000000000ffffffffffffffffffffffff03850885090883600160038110151561154357fe5b6020020181815250507fffffffff00000001000000000000000000000000ffffffffffffffffffffffff80151561157657fe5b7fffffffff00000001000000000000000000000000ffffffffffffffffffffffff8015156115a057fe5b8560026003811015156115af57fe5b60200201518660016003811015156115c357fe5b6020020151096002098360026003811015156115db57fe5b6020020181815250508292505b5050919050565b6060604051908101604052806003905b60008152602001906001900390816115ff5790505090565b60408051908101604052806002905b600081526020019060019003908161162657905050905600a165627a7a72305820980f79912489f01b1fac92716ceb1aabcef92f16ad2bdf904a9be31d889c58200029",
  "source": "pragma solidity ^0.4.8;\r\n\r\n// Library for secp256r1\r\nlibrary ECMath {\r\n\r\n\r\n  //curve parameters secp256r1\r\n  uint256 constant a=115792089210356248762697446949407573530086143415290314195533631308867097853948;\r\n  uint256 constant b=41058363725152142129326129780047268409114441015993725554835256314039467401291;\r\n  uint256 constant gx=48439561293906451759052585252797914202762949526041747995844080717082404635286;\r\n  uint256 constant gy=36134250956749795798585127919587881956611106672985015071877198253568414405109;\r\n  uint256 constant p=115792089210356248762697446949407573530086143415290314195533631308867097853951;\r\n  uint256 constant n=115792089210356248762697446949407573529996955224135760342422259061068512044369;\r\n  uint256 constant h=1;\r\n\r\n  /*\r\n  //signature parameters\r\n  //04 uncompressed public key, qx,qy exactly 128bit each\r\n  //signature: 30 indicates start, 44 indicates total length of signature\r\n  //02 indicates start of s; 20/21 length\r\n  //02 indicates start of r; 20/21 indicates length\r\n  //e sha256(message)\r\n  uint256 e=0x9834876dcfb05cb167a5c24953eba58c4ac89b1adf57f28f2f9d09af107ee8f0; //message\r\n  uint256 r=0x6933a06a9b5e654fad879364b58b819feb491810efcb90120423d5e827af4a74; //signature\r\n  uint256 s=0x0f9e643bc2b5124759040955312b6c0227ff21058d3f5bf1266741cc72a3a6ead; //signature\r\n  uint256 qx=0xb7435ff8eab13f5ddfd96a56f7cd23aa7d1d9fc6f5938b3f8f707b1e990be509; //public key x-coordinate signer\r\n  uint256 qy=0xa2e0d3cf29f61d6e49247f48f546b9569c5d7fba10a05bc25b7949db4a74e6d4; //public key y-coordinate signer\r\n\r\n  //Toy example\r\n  //curve parameters secp256r1\r\n  uint256 constant a=2;\r\n  uint256 constant b=2;\r\n  uint256 constant gx=5;\r\n  uint256 constant gy=1;\r\n  uint256 constant p=17;\r\n  uint256 constant n=19;\r\n  uint256 constant h=01;\r\n\r\n  //signature parameters\r\n  uint256 e=8; //message\r\n  uint256 r=10; //signature\r\n  uint256 s=13; //signature\r\n  uint256 qx=9; //public key x-coordinate signer\r\n  uint256 qy=16; //public key y-coordinate signer\r\n\r\n\r\n  function testsignature() returns(bool) {\r\n    return ecdsaverify(qx,qy,e,r,s);\r\n  }\r\n  */\r\n\r\n  function ecdsaverify(uint256 qx, uint256 qy, uint256 e, uint256 r, uint256 s) returns (bool) {\r\n\r\n    if (!isPoint(qx,qy)) {\r\n      return false;\r\n    }\r\n\r\n    //temporary variables\r\n    uint256 w;\r\n    uint256 u1;\r\n    uint256 u2;\r\n    uint256[3] memory T1;\r\n    uint256[3] memory T2;\r\n    w=invmod(s,n);\r\n    u1=mulmod(e,w,n);\r\n    u2=mulmod(r,w,n);\r\n    T1=ecmul([gx,gy,1],u1);\r\n    T2=ecmul([qx,qy,1],u2);\r\n    T2=ecadd(T1,T2);\r\n    if (r==JtoA(T2)[0]) {\r\n      return true;\r\n    }\r\n    return false;\r\n  }\r\n\r\n  //function checks if point (x1,y1) is on curve, x1 and y1 affine coordinate parameters\r\n  function isPoint(uint256 x1, uint256 y1) private returns (bool) {\r\n    //point fulfills y^2=x^3+ax+b?\r\n    if (mulmod(y1,y1,p) == addmod(mulmod(x1,mulmod(x1,x1,p),p),addmod(mulmod(a,x1,p),b,p),p)) {\r\n      return (true);\r\n    }\r\n    else {\r\n      return (false);\r\n    }\r\n  }\r\n\r\n  // point addition for elliptic curve in jacobian coordinates\r\n  // formula from https://en.wikibooks.org/wiki/Cryptography/Prime_Curve/Jacobian_Coordinates\r\n  function ecadd(uint256[3] P, uint256[3] Q) private returns (uint256[3] R) {\r\n\r\n    uint256 u1;\r\n    uint256 u2;\r\n    uint256 s1;\r\n    uint256 s2;\r\n\r\n    if (Q[0]==0 && Q[1]==0 && Q[2]==0) {\r\n      return P;\r\n    }\r\n\r\n    u1 = mulmod(P[0],mulmod(Q[2],Q[2],p),p);\r\n    u2 = mulmod(Q[0],mulmod(P[2],P[2],p),p);\r\n    s1 = mulmod(P[1],mulmod(mulmod(Q[2],Q[2],p),Q[2],p),p);\r\n    s2 = mulmod(Q[1],mulmod(mulmod(P[2],P[2],p),P[2],p),p);\r\n\r\n    if (u1==u2) {\r\n      if (s1 != s2) {\r\n        R[0]=1;\r\n        R[1]=1;\r\n        R[2]=0;\r\n        return R;\r\n      }\r\n      else {\r\n        return ecdouble(P);\r\n      }\r\n    }\r\n\r\n    uint256 h;\r\n    uint256 r;\r\n\r\n    h = addmod(u2,(p-u1),p);\r\n    r = addmod(s2,(p-s1),p);\r\n\r\n    R[0] = addmod(addmod(mulmod(r,r,p),(p-mulmod(h,mulmod(h,h,p),p)),p),(p-mulmod(2,mulmod(u1,mulmod(h,h,p),p),p)),p);\r\n    R[1] = addmod(mulmod(r,addmod(mulmod(u1,mulmod(h,h,p),p),(p-R[0]),p),p),(p-mulmod(s1,mulmod(h,mulmod(h,h,p),p),p)),p);\r\n    R[2] = mulmod(h,mulmod(P[2],Q[2],p),p);\r\n\r\n    return (R);\r\n  }\r\n\r\n  //point doubling for elliptic curve in jacobian coordinates\r\n  //formula from https://en.wikibooks.org/wiki/Cryptography/Prime_Curve/Jacobian_Coordinates\r\n  function ecdouble(uint256[3] P) private returns(uint256[3] R){\r\n\r\n    //return point at infinity\r\n    if (P[1]==0) {\r\n      R[0]=1;\r\n      R[1]=1;\r\n      R[2]=0;\r\n      return (R);\r\n    }\r\n\r\n    uint256 m;\r\n    uint256 s;\r\n\r\n    s = mulmod(4,mulmod(P[0],mulmod(P[1],P[1],p),p),p);\r\n    m = addmod(mulmod(3,mulmod(P[0],P[0],p),p),mulmod(a,mulmod(mulmod(P[2],P[2],p),mulmod(P[2],P[2],p),p),p),p);\r\n    R[0] = addmod(mulmod(m,m,p),(p-mulmod(s,2,p)),p);\r\n    R[1] = addmod(mulmod(m,addmod(s,(p-R[0]),p),p),(p-mulmod(8,mulmod(mulmod(P[1],P[1],p),mulmod(P[1],P[1],p),p),p)),p);\r\n    R[2] = mulmod(2,mulmod(P[1],P[2],p),p);\r\n\r\n    return (R);\r\n\r\n  }\r\n\r\n  // function for elliptic curve multiplication in jacobian coordinates using Double-and-add method\r\n  function ecmul(uint256[3] P, uint256 d) private returns (uint256[3] R) {\r\n\r\n    R[0]=0;\r\n    R[1]=0;\r\n    R[2]=0;\r\n\r\n    //return (0,0) if d=0 or (x1,y1)=(0,0)\r\n    if (d == 0 || ((P[0]==0) && (P[1]==0)) ) {\r\n      return (R);\r\n    }\r\n    uint256[3] memory T;\r\n    T[0]=P[0]; //x-coordinate temp\r\n    T[1]=P[1]; //y-coordinate temp\r\n    T[2]=P[2]; //z-coordiante temp\r\n\r\n    while (d != 0) {\r\n      if ((d & 1) == 1) {  //if last bit is 1 add T to result\r\n        R = ecadd(T,R);\r\n      }\r\n      T = ecdouble(T);    //double temporary coordinates\r\n      d=d/2;              //\"cut off\" last bit\r\n    }\r\n\r\n    return R;\r\n  }\r\n\r\n  //jacobian to affine coordinates transfomration\r\n  function JtoA(uint256[3] P) private returns (uint256[2] Pnew) {\r\n    uint zInv = invmod(P[2],p);\r\n    uint zInv2 = mulmod(zInv, zInv, p);\r\n    Pnew[0] = mulmod(P[0], zInv2, p);\r\n    Pnew[1] = mulmod(P[1], mulmod(zInv,zInv2,p), p);\r\n  }\r\n\r\n  //computing inverse by using euclidean algorithm\r\n  function invmod(uint256 a, uint p) private returns(uint256 invA) {\r\n    uint256 t=0;\r\n    uint256 newT=1;\r\n    uint256 r=p;\r\n    uint256 newR=a;\r\n    uint256 q;\r\n    while (newR != 0) {\r\n      q = r / newR;\r\n\r\n      (t, newT) = (newT, addmod(t , (p - mulmod(q, newT,p)) , p));\r\n      (r, newR) = (newR, r - q * newR );\r\n    }\r\n\r\n    return t;\r\n  }\r\n\r\n}\r\n",
  "sourcePath": "/home/bjorn/Projects/BGRVerify/contracts/imported/ECMath.sol",
  "compiler": {
    "name": "solc",
    "version": "0.4.21+commit.dfe3193c.Emscripten.clang"
  },
  "schemaVersion": "2.0.0",
  "updatedAt": "2018-06-08T12:12:16.563Z"
}