{
  "contractName": "ECRecovery",
  "abi": [
    {
      "constant": false,
      "inputs": [],
      "name": "verificationcost",
      "outputs": [
        {
          "name": "",
          "type": "address"
        }
      ],
      "payable": false,
      "stateMutability": "nonpayable",
      "type": "function"
    },
    {
      "constant": false,
      "inputs": [
        {
          "name": "hash",
          "type": "bytes32"
        },
        {
          "name": "sig",
          "type": "bytes"
        }
      ],
      "name": "recover",
      "outputs": [
        {
          "name": "",
          "type": "address"
        }
      ],
      "payable": false,
      "stateMutability": "nonpayable",
      "type": "function"
    }
  ],
  "bytecode": "0x60606040527f252daa74cc3c31fe64542bb9b8764cfb91cc30f9acf9389071ffb44a9eefde46600090600019169055608060405190810160405280604181526020017f200b25d2c8b2fdbc146cdbb44d03e0be5ce0da0f88e16d3c0c4edc281765405781526020017f1de23ca3d67a16ffa22403d24c9f5c17e784809cbfc4ef4eeee1f05d753e7bf281526020016000815250600190805190602001906100a79291906100b8565b5034156100b357600080fd5b61015d565b828054600181600116156101000203166002900490600052602060002090601f016020900481019282601f106100f957805160ff1916838001178555610127565b82800160010185558215610127579182015b8281111561012657825182559160200191906001019061010b565b5b5090506101349190610138565b5090565b61015a91905b8082111561015657600081600090555060010161013e565b5090565b90565b61031a8061016c6000396000f30060606040526004361061004c576000357c0100000000000000000000000000000000000000000000000000000000900463ffffffff16806319045a2514610051578063ca647a5d146100fb575b600080fd5b341561005c57600080fd5b6100b960048080356000191690602001909190803590602001908201803590602001908080601f01602080910402602001604051908101604052809392919081815260200183838082843782019150505050505091905050610150565b604051808273ffffffffffffffffffffffffffffffffffffffff1673ffffffffffffffffffffffffffffffffffffffff16815260200191505060405180910390f35b341561010657600080fd5b61010e610241565b604051808273ffffffffffffffffffffffffffffffffffffffff1673ffffffffffffffffffffffffffffffffffffffff16815260200191505060405180910390f35b6000806000806041855114151561016a5760009350610238565b6020850151925060408501519150606085015160001a9050601b8160ff16101561019557601b810190505b601b8160ff16141580156101ad5750601c8160ff1614155b156101bb5760009350610238565b600186828585604051600081526020016040526040518085600019166000191681526020018460ff1660ff1681526020018360001916600019168152602001826000191660001916815260200194505050505060206040516020810390808403906000865af1151561022c57600080fd5b50506020604051035193505b50505092915050565b60006102e960005460018054600181600116156101000203166002900480601f0160208091040260200160405190810160405280929190818152602001828054600181600116156101000203166002900480156102df5780601f106102b4576101008083540402835291602001916102df565b820191906000526020600020905b8154815290600101906020018083116102c257829003601f168201915b5050505050610150565b9050905600a165627a7a72305820261296ecceab0fdc731f7cd943999e741272418cf934d61e8e93363f7c5c7a960029",
  "source": "pragma solidity ^0.4.20;\n\n\n/**\n * @title Elliptic curve signature operations\n * @dev Based on https://gist.github.com/axic/5b33912c6f61ae6fd96d6c4a47afde6d\n * TODO Remove this library once solidity supports passing a signature to ecrecover.\n * See https://github.com/ethereum/solidity/issues/864\n */\n\ncontract ECRecovery {\n\n    bytes32 hash = hex\"252daa74cc3c31fe64542bb9b8764cfb91cc30f9acf9389071ffb44a9eefde46\";\n    bytes sig = hex\"200b25d2c8b2fdbc146cdbb44d03e0be5ce0da0f88e16d3c0c4edc28176540571de23ca3d67a16ffa22403d24c9f5c17e784809cbfc4ef4eeee1f05d753e7bf200\";\n\n    function verificationcost() returns(address)\n    {\n        return recover(hash, sig);\n    }\n\n    /**\n     * @dev Recover signer address from a message by using their signature\n     * @param hash bytes32 message, the hash is the signed message. What is recovered is the signer address.\n     * @param sig bytes signature, the signature is generated using web3.eth.sign()\n     */\n    function recover(bytes32 hash, bytes sig) returns (address)\n    {\n        bytes32 r;\n        bytes32 s;\n        uint8 v;\n\n        // Check the signature length\n        if (sig.length != 65) {\n            return (address(0));\n        }\n\n        // Divide the signature in r, s and v variables\n        // ecrecover takes the signature parameters, and the only way to get them\n        // currently is to use assembly.\n        // solium-disable-next-line security/no-inline-assembly\n        assembly {\n            r := mload(add(sig, 32))\n            s := mload(add(sig, 64))\n            v := byte(0, mload(add(sig, 96)))\n        }\n\n        // Version of signature should be 27 or 28, but 0 and 1 are also possible versions\n        if (v < 27) {\n            v += 27;\n        }\n\n        // If the version is correct return the signer address\n        if (v != 27 && v != 28) {\n            return (address(0));\n        } else {\n            // solium-disable-next-line arg-overflow\n            return ecrecover(hash, v, r, s);\n        }\n    }\n\n\n}\n\n\n/*\ncontract ECDSA {\n\n    bytes publickey = hex\"040ee1cd09d77dcbd9c4f78515c5d5091fa5f9633838128e7cf1f3babe5ce840475c845b1fcdbeebdd7c3b7406d54ad61d2cc77a105e5a5e762ee3c83a22af5c56\";\n    bytes32 hash = hex\"852daa74cc3c31fe64542bb9b8764cfb91cc30f9acf9389071ffb44a9eefde46\";\n    bytes32 r = hex\"bbf5cb59e1139f4be32dc3f32f67a5929dc39b1299a9fb5334727603a0fe1798\";\n    bytes32 s = hex\"526344939d5ada61fe2810d7db49558f5322afdb03900e7874e8b8159344492a\";\n    uint8 v = 0;\n\n    function verificationcost() returns(address)\n    {\n        address addr = address(keccak256(publickey));\n\n        return ecrecover(hash, v, r, s);\n        //return ecrecover(hash, v, r, s) == addr;\n    }\n}\n*/\n",
  "sourcePath": "/home/bjorn/Projects/BGRVerify/contracts/ECDSA.sol",
  "compiler": {
    "name": "solc",
    "version": "0.4.21+commit.dfe3193c.Emscripten.clang"
  },
  "schemaVersion": "2.0.0",
  "updatedAt": "2018-07-29T12:38:55.741Z"
}