{
  "contractName": "RSA",
  "abi": [
    {
      "constant": false,
      "inputs": [
        {
          "name": "_data",
          "type": "bytes"
        },
        {
          "name": "_s",
          "type": "bytes"
        },
        {
          "name": "_n",
          "type": "bytes"
        }
      ],
      "name": "verify",
      "outputs": [
        {
          "name": "",
          "type": "bool"
        }
      ],
      "payable": false,
      "stateMutability": "nonpayable",
      "type": "function"
    }
  ],
  "bytecode": "0x606060405261012060405190810160405280610100815260200161050a610100913960019080519060200190610036929190610047565b50341561004257600080fd5b6100ec565b828054600181600116156101000203166002900490600052602060002090601f016020900481019282601f1061008857805160ff19168380011785556100b6565b828001600101855582156100b6579182015b828111156100b557825182559160200191906001019061009a565b5b5090506100c391906100c7565b5090565b6100e991905b808211156100e55760008160009055506001016100cd565b5090565b90565b61040f806100fb6000396000f300606060405260043610610041576000357c0100000000000000000000000000000000000000000000000000000000900463ffffffff168063de8f50a114610046575b600080fd5b341561005157600080fd5b610127600480803590602001908201803590602001908080601f0160208091040260200160405190810160405280939291908181526020018383808284378201915050505050509190803590602001908201803590602001908080601f0160208091040260200160405190810160405280939291908181526020018383808284378201915050505050509190803590602001908201803590602001908080601f01602080910402602001604051908101604052809392919081815260200183838082843782019150505050505091905050610141565b604051808215151515815260200191505060405180910390f35b600082600080808152602001908152602001600020908051906020019061016992919061033e565b5073__SolRsaVerify__________________________635f6cfa22858562010001866040518563ffffffff167c010000000000000000000000000000000000000000000000000000000002815260040180806020018060200185815260200180602001848103845288818151815260200191508051906020019080838360005b838110156102045780820151818401526020810190506101e9565b50505050905090810190601f1680156102315780820380516001836020036101000a031916815260200191505b50848103835287818151815260200191508051906020019080838360005b8381101561026a57808201518184015260208101905061024f565b50505050905090810190601f1680156102975780820380516001836020036101000a031916815260200191505b50848103825285818151815260200191508051906020019080838360005b838110156102d05780820151818401526020810190506102b5565b50505050905090810190601f1680156102fd5780820380516001836020036101000a031916815260200191505b5097505050505050505060206040518083038186803b151561031e57600080fd5b5af4151561032b57600080fd5b5050506040518051905090509392505050565b828054600181600116156101000203166002900490600052602060002090601f016020900481019282601f1061037f57805160ff19168380011785556103ad565b828001600101855582156103ad579182015b828111156103ac578251825591602001919060010190610391565b5b5090506103ba91906103be565b5090565b6103e091905b808211156103dc5760008160009055506001016103c4565b5090565b905600a165627a7a72305820ca19753ec81f95fd15f546d1859daaa4ef775bbbbab53e3009ab426f41e0cefc0029981738fcbbb695c3d97599593c39f153a386ff630b59bc566a34e86ca414db193976ccbe5680e063c1409278caa9ded202f2570f1f72f17f86338515c548de8473b024d25df8ed6270f3b949da6216b87e8b782677855275419470d258ba4f33646c3c09c790561deff7f0a340134d110c492a0389eef545f8a07bca8ded97e1691f591f172889ced1ffc5932d913debc28dd884ebc80f94b0b8b3fc50c76beb5558917b8758ebf05c9fcf8b09a8d68e30430bf0a9c4c19b09ae387bb32816a9fec1c7faa5c6a4958959cbc909f0113601fc36cf419d89af67ba42b3aefaec07ab0a2583c78c4243ae060d9236eee94395c37d608a6587fe419f38215b5488ed",
  "source": "pragma solidity 0.4.21;\n\nimport \"./SolRsaVerify.sol\";\n\ncontract RSA {\n    using SolRsaVerify for *;\n\n    mapping (uint => bytes) signatures;\n\n    //Simulation of PKI (assumed to be available)\n    uint constant e = 65537;\n    //bytes e = hex\"0000000000000000000000000000000000000000000000000000000000000000000000000000000000000000000000000000000000000000000000000000000000000000000000000000000000000000000000000000000000000000000000000000000000000000000000000000000000000000000000000000000000010001\";\n    bytes N = hex\"981738fcbbb695c3d97599593c39f153a386ff630b59bc566a34e86ca414db193976ccbe5680e063c1409278caa9ded202f2570f1f72f17f86338515c548de8473b024d25df8ed6270f3b949da6216b87e8b782677855275419470d258ba4f33646c3c09c790561deff7f0a340134d110c492a0389eef545f8a07bca8ded97e1691f591f172889ced1ffc5932d913debc28dd884ebc80f94b0b8b3fc50c76beb5558917b8758ebf05c9fcf8b09a8d68e30430bf0a9c4c19b09ae387bb32816a9fec1c7faa5c6a4958959cbc909f0113601fc36cf419d89af67ba42b3aefaec07ab0a2583c78c4243ae060d9236eee94395c37d608a6587fe419f38215b5488ed\";\n\n    function verify(bytes _data, bytes _s, bytes _n) returns (bool) {\n        signatures[0] = _s;\n        return SolRsaVerify.pkcs1Sha256VerifyRaw(_data, _s, e, _n);\n    }\n\n\n}\n",
  "sourcePath": "/home/bjorn/Projects/BGRVerify/contracts/RSA.sol",
  "compiler": {
    "name": "solc",
    "version": "0.4.21+commit.dfe3193c.Emscripten.clang"
  },
  "schemaVersion": "2.0.0",
  "updatedAt": "2018-06-06T19:49:30.015Z"
}