{
  "contractName": "RSA",
  "abi": [
    {
      "constant": false,
      "inputs": [
        {
          "name": "_data",
          "type": "bytes"
        },
        {
          "name": "_s",
          "type": "bytes"
        }
      ],
      "name": "verify",
      "outputs": [
        {
          "name": "",
          "type": "bool"
        }
      ],
      "payable": false,
      "stateMutability": "nonpayable",
      "type": "function"
    }
  ],
  "bytecode": "0x60606040526201000160005560a06040519081016040528060808152602001600081526020016000815260200160008152602001620100018152506001908051906020019061004f929190610093565b50610120604051908101604052806101008152602001610463610100913960029080519060200190610082929190610093565b50341561008e57600080fd5b610138565b828054600181600116156101000203166002900490600052602060002090601f016020900481019282601f106100d457805160ff1916838001178555610102565b82800160010185558215610102579182015b828111156101015782518255916020019190600101906100e6565b5b50905061010f9190610113565b5090565b61013591905b80821115610131576000816000905550600101610119565b5090565b90565b61031c806101476000396000f300606060405260043610610041576000357c0100000000000000000000000000000000000000000000000000000000900463ffffffff168063f7e83aee14610046575b600080fd5b341561005157600080fd5b6100e4600480803590602001908201803590602001908080601f0160208091040260200160405190810160405280939291908181526020018383808284378201915050505050509190803590602001908201803590602001908080601f016020809104026020016040519081016040528093929190818152602001838380828437820191505050505050919050506100fe565b604051808215151515815260200191505060405180910390f35b600073__SolRsaVerify__________________________635f6cfa22848460005460026040518563ffffffff167c010000000000000000000000000000000000000000000000000000000002815260040180806020018060200185815260200180602001848103845288818151815260200191508051906020019080838360005b8381101561019a57808201518184015260208101905061017f565b50505050905090810190601f1680156101c75780820380516001836020036101000a031916815260200191505b50848103835287818151815260200191508051906020019080838360005b838110156102005780820151818401526020810190506101e5565b50505050905090810190601f16801561022d5780820380516001836020036101000a031916815260200191505b508481038252858181546001816001161561010002031660029004815260200191508054600181600116156101000203166002900480156102af5780601f10610284576101008083540402835291602001916102af565b820191906000526020600020905b81548152906001019060200180831161029257829003601f168201915b505097505050505050505060206040518083038186803b15156102d157600080fd5b5af415156102de57600080fd5b505050604051805190509050929150505600a165627a7a723058206d5307ccf1d5bccf5d5a61071feabd263d156b04c71bd2f9b7ee0cf48831c9800029981738fcbbb695c3d97599593c39f153a386ff630b59bc566a34e86ca414db193976ccbe5680e063c1409278caa9ded202f2570f1f72f17f86338515c548de8473b024d25df8ed6270f3b949da6216b87e8b782677855275419470d258ba4f33646c3c09c790561deff7f0a340134d110c492a0389eef545f8a07bca8ded97e1691f591f172889ced1ffc5932d913debc28dd884ebc80f94b0b8b3fc50c76beb5558917b8758ebf05c9fcf8b09a8d68e30430bf0a9c4c19b09ae387bb32816a9fec1c7faa5c6a4958959cbc909f0113601fc36cf419d89af67ba42b3aefaec07ab0a2583c78c4243ae060d9236eee94395c37d608a6587fe419f38215b5488ed",
  "source": "pragma solidity 0.4.21;\n\nimport \"./SolRsaVerify.sol\";\n\ncontract RSA {\n    using SolRsaVerify for *;\n\n    uint en = 65537;\n    bytes e = hex\"0000000000000000000000000000000000000000000000000000000000000000000000000000000000000000000000000000000000000000000000000000000000000000000000000000000000000000000000000000000000000000000000000000000000000000000000000000000000000000000000000000000000010001\";\n    bytes N = hex\"981738fcbbb695c3d97599593c39f153a386ff630b59bc566a34e86ca414db193976ccbe5680e063c1409278caa9ded202f2570f1f72f17f86338515c548de8473b024d25df8ed6270f3b949da6216b87e8b782677855275419470d258ba4f33646c3c09c790561deff7f0a340134d110c492a0389eef545f8a07bca8ded97e1691f591f172889ced1ffc5932d913debc28dd884ebc80f94b0b8b3fc50c76beb5558917b8758ebf05c9fcf8b09a8d68e30430bf0a9c4c19b09ae387bb32816a9fec1c7faa5c6a4958959cbc909f0113601fc36cf419d89af67ba42b3aefaec07ab0a2583c78c4243ae060d9236eee94395c37d608a6587fe419f38215b5488ed\";\n    //bytes Msg = hex\"4d455353414745\";\n    //bytes S = hex\"2eddfd1e51c014719d226f739fcde9724e246cf12c09ef9f9ff742b77bf8d4e6b2163aa2a42249e22b6d8660a552b2d39eef771be327210d1531ef6706e95866771530f0c37dcb703e5e6dc5dee0190c1c170419bdd1494427c784cf27b7c889bb2dbe45b4845bc296fbdaac9c09a8d0e9322e7bc1f241ba89231b58a96e4c0e1f1589b66fe69bba401fe4d849abfa2092aefe5f6501f050606691eb6195dce694837bc016eb30fe719f8a8f2bb7ea095cdaee754a209fc4464155b7654fde9fead1cf27a1105935680eb89b24ee7490a248abada100ab63df86593d04dd583a2ed79bce865e11bd62785fa75943f542467ef8e52b8cbb0cfad2d81309b1e641\";\n\n    function verify(bytes _data, bytes _s) returns (bool) {\n        return SolRsaVerify.pkcs1Sha256VerifyRaw(_data, _s, en, N);\n    }\n\n\n}\n",
  "sourcePath": "/home/bjorn/Projects/BGRVerify/contracts/RSA.sol",
  "compiler": {
    "name": "solc",
    "version": "0.4.21+commit.dfe3193c.Emscripten.clang"
  },
  "schemaVersion": "2.0.0",
  "updatedAt": "2018-06-06T16:11:51.930Z"
}