{
  "contractName": "RSA",
  "abi": [
    {
      "constant": false,
      "inputs": [
        {
          "name": "_data",
          "type": "bytes"
        },
        {
          "name": "_s",
          "type": "bytes"
        },
        {
          "name": "_e",
          "type": "bytes"
        },
        {
          "name": "_n",
          "type": "bytes"
        }
      ],
      "name": "verify",
      "outputs": [
        {
          "name": "",
          "type": "bool"
        }
      ],
      "payable": false,
      "stateMutability": "nonpayable",
      "type": "function"
    }
  ],
  "bytecode": "0x6060604052341561000f57600080fd5b6103e98061001e6000396000f300606060405260043610610041576000357c0100000000000000000000000000000000000000000000000000000000900463ffffffff168063067874cf14610046575b600080fd5b341561005157600080fd5b61016a600480803590602001908201803590602001908080601f0160208091040260200160405190810160405280939291908181526020018383808284378201915050505050509190803590602001908201803590602001908080601f0160208091040260200160405190810160405280939291908181526020018383808284378201915050505050509190803590602001908201803590602001908080601f0160208091040260200160405190810160405280939291908181526020018383808284378201915050505050509190803590602001908201803590602001908080601f01602080910402602001604051908101604052809392919081815260200183838082843782019150505050505091905050610184565b604051808215151515815260200191505060405180910390f35b600073__SolRsaVerify__________________________632ae0783d868686866040518563ffffffff167c01000000000000000000000000000000000000000000000000000000000281526004018080602001806020018060200180602001858103855289818151815260200191508051906020019080838360005b8381101561021b578082015181840152602081019050610200565b50505050905090810190601f1680156102485780820380516001836020036101000a031916815260200191505b50858103845288818151815260200191508051906020019080838360005b83811015610281578082015181840152602081019050610266565b50505050905090810190601f1680156102ae5780820380516001836020036101000a031916815260200191505b50858103835287818151815260200191508051906020019080838360005b838110156102e75780820151818401526020810190506102cc565b50505050905090810190601f1680156103145780820380516001836020036101000a031916815260200191505b50858103825286818151815260200191508051906020019080838360005b8381101561034d578082015181840152602081019050610332565b50505050905090810190601f16801561037a5780820380516001836020036101000a031916815260200191505b509850505050505050505060206040518083038186803b151561039c57600080fd5b5af415156103a957600080fd5b5050506040518051905090509493505050505600a165627a7a72305820559892da86919fa0c413666083043aac4005a5f5234d882d2d18848e91ff21fa0029",
  "source": "pragma solidity 0.4.21;\n\nimport \"./SolRsaVerify.sol\";\n\ncontract RSA {\n    using SolRsaVerify for *;\n\n    function verify(bytes _data, bytes _s, bytes _e, bytes _n) returns (bool) {\n        return SolRsaVerify.pkcs1Sha256VerifyRaw(_data, _s, _e, _n);\n    }\n\n\n}\n",
  "sourcePath": "/home/bjorn/Projects/BGRVerify/contracts/RSA.sol",
  "compiler": {
    "name": "solc",
    "version": "0.4.21+commit.dfe3193c.Emscripten.clang"
  },
  "schemaVersion": "2.0.0",
  "updatedAt": "2018-06-06T09:57:00.775Z"
}