{
  "contractName": "RSAVerify",
  "abi": [
    {
      "constant": false,
      "inputs": [
        {
          "name": "msg",
          "type": "bytes"
        },
        {
          "name": "N",
          "type": "bytes"
        },
        {
          "name": "e",
          "type": "uint256"
        },
        {
          "name": "S",
          "type": "bytes"
        },
        {
          "name": "paddingScheme",
          "type": "uint256"
        }
      ],
      "name": "rsaverify",
      "outputs": [
        {
          "name": "",
          "type": "bool"
        }
      ],
      "payable": false,
      "stateMutability": "nonpayable",
      "type": "function"
    }
  ],
  "bytecode": "0x6102ed610030600b82828239805160001a6073146000811461002057610022565bfe5b5030600052607381538281f3007300000000000000000000000000000000000000003014606060405260043610610058576000357c0100000000000000000000000000000000000000000000000000000000900463ffffffff168063d939f9101461005d575b600080fd5b811561006857600080fd5b610150600480803590602001908201803590602001908080601f0160208091040260200160405190810160405280939291908181526020018383808284378201915050505050509190803590602001908201803590602001908080601f0160208091040260200160405190810160405280939291908181526020018383808284378201915050505050509190803590602001909190803590602001908201803590602001908080601f0160208091040260200160405190810160405280939291908181526020018383808284378201915050505050509190803590602001909190505061016a565b604051808215151515815260200191505060405180910390f35b6000806101756102ad565b61017d6102ad565b6000369350600484036040518059106101935750595b9080825280601f01601f1916602001820160405250925060206040518059106101b95750595b9080825280601f01601f19166020018201604052509150838060048537602080840182866000600560965a03f19150506001811415156101fc57600094506102a0565b60017f01000000000000000000000000000000000000000000000000000000000000000282601f81518110151561022f57fe5b9060200101517f010000000000000000000000000000000000000000000000000000000000000090047f0100000000000000000000000000000000000000000000000000000000000000027effffffffffffffffffffffffffffffffffffffffffffffffffffffffffffff19161494505b5050505095945050505050565b6020604051908101604052806000815250905600a165627a7a72305820eceebb83f63288cd51d19b5aa4450401a5f86e41aeae457f9c9901010a2f5f9b0029",
  "source": "//\n// Solidity wrapper for the `rsaverify` precompiled contract.\n//\n// (C) 2016 Alex Beregszaszi\n//\n// MIT License\n//\n\nlibrary RSAVerify {\n    // This copies call data (everything, except the method signature) to the precompiled contract.\n    function rsaverify(bytes msg, bytes N, uint e, bytes S, uint paddingScheme) returns (bool) {\n        uint len;\n        assembly {\n            len := calldatasize()\n        }\n\n        bytes memory req = new bytes(len - 4);\n        bytes memory res = new bytes(32);\n\n        uint status;\n\n        assembly {\n            let alen := len\n            calldatacopy(req, 4, alen)\n            call(sub(gas, 150), 5, 0, req, alen, add(res, 32), 32)\n            =: status\n        }\n\n        if (status != 1)\n            return false;\n\n        return res[31] == 1;\n    }\n\n    /*function expmod(uint256 base, uint256 e, uint256 m) public constant returns (uint256 o) {\n\n        assembly {\n        // define pointer\n            let p := mload(0x40)\n        // store data assembly-favouring ways\n            mstore(p, 0x20)             // Length of Base\n            mstore(add(p, 0x20), 0x20)  // Length of Exponent\n            mstore(add(p, 0x40), 0x20)  // Length of Modulus\n            mstore(add(p, 0x60), base)  // Base\n            mstore(add(p, 0x80), e)     // Exponent\n            mstore(add(p, 0xa0), m)     // Modulus\n        // call modexp precompile! -- old school gas handling\n            let success := call(sub(gas, 2000), 0x05, 0, p, 0xc0, p, 0x20)\n        // gas fiddling\n            switch success case 0 {\n                revert(0, 0)\n            }\n        // data\n            o := mload(p)\n        }\n    }*/\n}\n\n",
  "sourcePath": "/home/bjorn/Projects/BGRVerify/contracts/rsaverify.sol",
  "compiler": {
    "name": "solc",
    "version": "0.4.21+commit.dfe3193c.Emscripten.clang"
  },
  "schemaVersion": "2.0.0",
  "updatedAt": "2018-06-06T08:02:11.992Z"
}