{
  "contractName": "SolRsaVerify",
  "abi": [
    {
      "constant": true,
      "inputs": [
        {
          "name": "_sha256",
          "type": "bytes32"
        },
        {
          "name": "_s",
          "type": "bytes"
        },
        {
          "name": "_e",
          "type": "bytes"
        },
        {
          "name": "_m",
          "type": "bytes"
        }
      ],
      "name": "pkcs1Sha256Verify",
      "outputs": [
        {
          "name": "",
          "type": "bool"
        }
      ],
      "payable": false,
      "stateMutability": "view",
      "type": "function"
    },
    {
      "constant": true,
      "inputs": [
        {
          "name": "_data",
          "type": "bytes"
        },
        {
          "name": "_s",
          "type": "bytes"
        },
        {
          "name": "_e",
          "type": "bytes"
        },
        {
          "name": "_m",
          "type": "bytes"
        }
      ],
      "name": "pkcs1Sha256VerifyRaw",
      "outputs": [
        {
          "name": "",
          "type": "bool"
        }
      ],
      "payable": false,
      "stateMutability": "view",
      "type": "function"
    }
  ],
  "bytecode": "0x610ad9610030600b82828239805160001a6073146000811461002057610022565bfe5b5030600052607381538281f3007300000000000000000000000000000000000000003014606060405260043610610063576000357c0100000000000000000000000000000000000000000000000000000000900463ffffffff1680632ae0783d14610068578063a1a8858f1461019b575b600080fd5b610181600480803590602001908201803590602001908080601f0160208091040260200160405190810160405280939291908181526020018383808284378201915050505050509190803590602001908201803590602001908080601f0160208091040260200160405190810160405280939291908181526020018383808284378201915050505050509190803590602001908201803590602001908080601f0160208091040260200160405190810160405280939291908181526020018383808284378201915050505050509190803590602001908201803590602001908080601f01602080910402602001604051908101604052809392919081815260200183838082843782019150505050505091905050610298565b604051808215151515815260200191505060405180910390f35b61027e60048080356000191690602001909190803590602001908201803590602001908080601f0160208091040260200160405190810160405280939291908181526020018383808284378201915050505050509190803590602001908201803590602001908080601f0160208091040260200160405190810160405280939291908181526020018383808284378201915050505050509190803590602001908201803590602001908080601f0160208091040260200160405190810160405280939291908181526020018383808284378201915050505050509190505061032e565b604051808215151515815260200191505060405180910390f35b60006103246002866040518082805190602001908083835b6020831015156102d557805182526020820191506020810190506020830392506102b0565b6001836020036101000a0380198251168184511680821785525050505050509050019150506020604051808303816000865af1151561031357600080fd5b50506040518051905085858561032e565b9050949350505050565b6000610338610a6d565b6000610342610a99565b60008061034d610a99565b60008061026060405190810160405280603060ff168152602001603160ff168152602001603060ff168152602001600d60ff168152602001600660ff168152602001600960ff168152602001606060ff168152602001608660ff168152602001604860ff168152602001600160ff168152602001606560ff168152602001600360ff168152602001600460ff168152602001600260ff168152602001600160ff168152602001600560ff168152602001600060ff168152602001600460ff168152602001602060ff168152509750600b602060ff16601301018a511015151561043557600080fd5b6104408c8c8c610955565b95508551945089519350836040518059106104585750595b9080825280601f01601f191660200182016040525092508360208401866020890160056107d05a03fa9150816000811461049157610493565bfe5b5060206013600386030303905060007f0100000000000000000000000000000000000000000000000000000000000000028360008151811015156104d357fe5b9060200101517f010000000000000000000000000000000000000000000000000000000000000090047f0100000000000000000000000000000000000000000000000000000000000000027effffffffffffffffffffffffffffffffffffffffffffffffffffffffffffff19161415806105eb575060017f01000000000000000000000000000000000000000000000000000000000000000283600181518110151561057b57fe5b9060200101517f010000000000000000000000000000000000000000000000000000000000000090047f0100000000000000000000000000000000000000000000000000000000000000027effffffffffffffffffffffffffffffffffffffffffffffffffffffffffffff191614155b156105f95760009850610945565b600296505b806002018710156106c55760ff7f010000000000000000000000000000000000000000000000000000000000000002838881518110151561063b57fe5b9060200101517f010000000000000000000000000000000000000000000000000000000000000090047f0100000000000000000000000000000000000000000000000000000000000000027effffffffffffffffffffffffffffffffffffffffffffffffffffffffffffff19161415156106b85760009850610945565b86806001019750506105fe565b60007f01000000000000000000000000000000000000000000000000000000000000000283826002018151811015156106fa57fe5b9060200101517f010000000000000000000000000000000000000000000000000000000000000090047f0100000000000000000000000000000000000000000000000000000000000000027effffffffffffffffffffffffffffffffffffffffffffffffffffffffffffff19161415156107775760009850610945565b600096505b601387101561083c57878760138110151561079357fe5b602002015160ff16838883600301018151811015156107ae57fe5b9060200101517f010000000000000000000000000000000000000000000000000000000000000090047f0100000000000000000000000000000000000000000000000000000000000000027f0100000000000000000000000000000000000000000000000000000000000000900460ff1614151561082f5760009850610945565b868060010197505061077c565b600096505b602060ff16871015610940578c8760208110151561085b57fe5b1a7f0100000000000000000000000000000000000000000000000000000000000000027effffffffffffffffffffffffffffffffffffffffffffffffffffffffffffff1916838860138460030101018151811015156108b657fe5b9060200101517f010000000000000000000000000000000000000000000000000000000000000090047f0100000000000000000000000000000000000000000000000000000000000000027effffffffffffffffffffffffffffffffffffffffffffffffffffffffffffff19161415156109335760009850610945565b8680600101975050610841565b600198505b5050505050505050949350505050565b61095d610a99565b600080600080600080600080610971610a99565b8a518c518e51606001010198508c5197508b5196508a519550886040518059106109985750595b9080825280601f01601f1916602001820160405250905060208d01945060208c01935060208b0192508760208201528660408201528560608201526020810191506109e860608301868f51610a22565b6109fa8d516060840101858e51610a22565b610a0f8c518e51606085010101848d51610a22565b8099505050505050505050509392505050565b60005b602082101515610a4a5782518452602084019350602083019250602082039150610a25565b6001826020036101000a0390508019835116818551168181178652505050505050565b610260604051908101604052806013905b600060ff16815260200190600190039081610a7e5790505090565b6020604051908101604052806000815250905600a165627a7a72305820e9a571fcfc9f0f78710e3af3a65284dee33706a9b89264d9b7785a3efc50f1640029",
  "source": "pragma solidity ^0.4.19;\n\n/*\n    Copyright 2016, Adrià Massanet\n\n    This program is free software: you can redistribute it and/or modify\n    it under the terms of the GNU General Public License as published by\n    the Free Software Foundation, either version 3 of the License, or\n    (at your option) any later version.\n\n    This program is distributed in the hope that it will be useful,\n    but WITHOUT ANY WARRANTY; without even the implied warranty of\n    MERCHANTABILITY or FITNESS FOR A PARTICULAR PURPOSE.  See the\n    GNU General Public License for more details.\n\n    You should have received a copy of the GNU General Public License\n    along with this program.  If not, see <http://www.gnu.org/licenses/>.\n\n    Checked results with FIPS test vectors\n    https://csrc.nist.gov/CSRC/media/Projects/Cryptographic-Algorithm-Validation-Program/documents/dss/186-2rsatestvectors.zip\n    file SigVer15_186-3.rsp\n\n */\n\nlibrary SolRsaVerify {\n\n    function memcpy(uint _dest, uint _src, uint _len) pure internal {\n        // Copy word-length chunks while possible\n        for ( ;_len >= 32; _len -= 32) {\n            assembly {\n                mstore(_dest, mload(_src))\n            }\n            _dest += 32;\n            _src += 32;\n        }\n\n        // Copy remaining bytes\n        uint mask = 256 ** (32 - _len) - 1;\n        assembly {\n            let srcpart := and(mload(_src), not(mask))\n            let destpart := and(mload(_dest), mask)\n            mstore(_dest, or(destpart, srcpart))\n        }\n    }\n\n\n    function join(bytes _s, bytes _e, bytes _m) pure internal returns (bytes) {\n        uint inputLen = 0x60+_s.length+_e.length+_m.length;\n\n        uint slen = _s.length;\n        uint elen = _e.length;\n        uint mlen = _m.length;\n        uint sptr;\n        uint eptr;\n        uint mptr;\n        uint inputPtr;\n\n        bytes memory input = new bytes(inputLen);\n        assembly {\n            sptr := add(_s,0x20)\n            eptr := add(_e,0x20)\n            mptr := add(_m,0x20)\n            mstore(add(input,0x20),slen)\n            mstore(add(input,0x40),elen)\n            mstore(add(input,0x60),mlen)\n            inputPtr := add(input,0x20)\n        }\n        memcpy(inputPtr+0x60,sptr,_s.length);\n        memcpy(inputPtr+0x60+_s.length,eptr,_e.length);\n        memcpy(inputPtr+0x60+_s.length+_e.length,mptr,_m.length);\n\n        return input;\n    }\n\n    /** @dev Verifies a PKCSv1.5 SHA256 signature\n      * @param _sha256 is the sha256 of the data\n      * @param _s is the signature\n      * @param _e is the exponent\n      * @param _m is the modulus\n      * @return 0 if success, >0 otherwise\n    */\n    function pkcs1Sha256Verify(bytes32 _sha256, bytes _s, bytes _e, bytes _m) public view returns (bool) {\n\n        uint8[19] memory sha256Prefix = [\n        0x30, 0x31, 0x30, 0x0d, 0x06, 0x09, 0x60, 0x86, 0x48, 0x01, 0x65, 0x03, 0x04, 0x02, 0x01, 0x05, 0x00, 0x04, 0x20\n        ];\n\n        require(_m.length >= sha256Prefix.length+_sha256.length+11);\n\n        uint i;\n\n        /// decipher\n        bytes memory input = join(_s,_e,_m);\n        uint inputlen = input.length;\n\n        uint decipherlen = _m.length;\n        bytes memory decipher = new bytes(decipherlen);\n        bool success;\n        assembly {\n            success := staticcall(sub(gas, 2000), 5, add(input,0x20), inputlen, add(decipher,0x20), decipherlen)\n            switch success case 0 { invalid }\n        }\n\n        /// 0x00 || 0x01 || PS || 0x00 || DigestInfo\n        /// PS is padding filled with 0xff\n        //  DigestInfo ::= SEQUENCE {\n        //     digestAlgorithm AlgorithmIdentifier,\n        //     digest OCTET STRING\n        //  }\n\n        uint paddingLen = decipherlen - 3 - sha256Prefix.length - 32;\n\n        if (decipher[0] != 0 || decipher[1] != 1) {\n            return false;\n        }\n        for (i = 2;i<2+paddingLen;i++) {\n            if (decipher[i] != 0xff) {\n                return false;\n            }\n        }\n        if (decipher[2+paddingLen] != 0) {\n            return false;\n        }\n        for (i = 0;i<sha256Prefix.length;i++) {\n            if (uint8(decipher[3+paddingLen+i])!=sha256Prefix[i]) {\n                return false;\n            }\n        }\n        for (i = 0;i<_sha256.length;i++) {\n            if (decipher[3+paddingLen+sha256Prefix.length+i]!=_sha256[i]) {\n                return false;\n            }\n        }\n\n        return true;\n    }\n\n    /** @dev Verifies a PKCSv1.5 SHA256 signature\n      * _data\n      * @param _s is the signature\n      * @param _e is the exponent\n      * @param _m is the modulus\n      * @return 0 if success, >0 otherwise\n    */\n    function pkcs1Sha256VerifyRaw(bytes _data, bytes _s, bytes _e, bytes _m) public view returns (bool) {\n        return pkcs1Sha256Verify(sha256(_data),_s,_e,_m);\n    }\n\n}\n",
  "sourcePath": "/home/bjorn/Projects/BGRVerify/contracts/SolRsaVerify.sol",
  "compiler": {
    "name": "solc",
    "version": "0.4.21+commit.dfe3193c.Emscripten.clang"
  },
  "schemaVersion": "2.0.0",
  "updatedAt": "2018-06-06T09:57:00.785Z"
}