{
  "contractName": "tlsnutils",
  "abi": [
    {
      "constant": false,
      "inputs": [
        {
          "name": "proof",
          "type": "bytes"
        },
        {
          "name": "qx",
          "type": "uint256"
        },
        {
          "name": "qy",
          "type": "uint256"
        }
      ],
      "name": "verifyProof",
      "outputs": [
        {
          "name": "",
          "type": "bool"
        }
      ],
      "payable": false,
      "stateMutability": "nonpayable",
      "type": "function"
    },
    {
      "constant": false,
      "inputs": [
        {
          "name": "proof",
          "type": "bytes"
        }
      ],
      "name": "verifyProof",
      "outputs": [
        {
          "name": "",
          "type": "bool"
        }
      ],
      "payable": false,
      "stateMutability": "nonpayable",
      "type": "function"
    },
    {
      "constant": false,
      "inputs": [
        {
          "name": "proof",
          "type": "bytes"
        }
      ],
      "name": "parseProof",
      "outputs": [
        {
          "name": "sig_r",
          "type": "uint256"
        },
        {
          "name": "sig_s",
          "type": "uint256"
        },
        {
          "name": "hashchain",
          "type": "bytes32"
        }
      ],
      "payable": false,
      "stateMutability": "nonpayable",
      "type": "function"
    }
  ],
  "bytecode": "0x610a72610030600b82828239805160001a6073146000811461002057610022565bfe5b5030600052607381538281f300730000000000000000000000000000000000000000301460606040526004361061006e576000357c0100000000000000000000000000000000000000000000000000000000900463ffffffff1680635569909f1461007357806355c265fe146100fa578063793deea31461016f575b600080fd5b811561007e57600080fd5b6100e0600480803590602001908201803590602001908080601f016020809104026020016040519081016040528093929190818152602001838380828437820191505050505050919080359060200190919080359060200190919050506101f6565b604051808215151515815260200191505060405180910390f35b811561010557600080fd5b610155600480803590602001908201803590602001908080601f016020809104026020016040519081016040528093929190818152602001838380828437820191505050505050919050506102c8565b604051808215151515815260200191505060405180910390f35b811561017a57600080fd5b6101ca600480803590602001908201803590602001908080601f01602080910402602001604051908101604052809392919081815260200183838082843782019150505050505091905050610327565b604051808481526020018381526020018260001916600019168152602001935050505060405180910390f35b600080600080600061020788610327565b8096508193508294505050508360019004925073__ECMath________________________________63d2689abc88888686866040518663ffffffff167c0100000000000000000000000000000000000000000000000000000000028152600401808681526020018581526020018481526020018381526020018281526020019550505050505060206040518083038186803b15156102a457600080fd5b5af415156102b157600080fd5b505050604051805190509450505050509392505050565b60008060007f0de2583dc1b70c4d17936f6ca4d2a07aa2aba06b76a97e60e62af286adc1cc0991507f68ba8822c94e79903406a002f4bc6a982d1b473f109debb2aa020c66f642144a905061031e8483836101f6565b92505050919050565b600080600080600080600061033a610a32565b600080600080600080995060288e0151985060208a01995060408e01519c5060608e01519b5060408a0199508d601b81518110151561037557fe5b9060200101517f010000000000000000000000000000000000000000000000000000000000000090047f0100000000000000000000000000000000000000000000000000000000000000027f01000000000000000000000000000000000000000000000000000000000000009004610100028e601a8151811015156103f657fe5b9060200101517f010000000000000000000000000000000000000000000000000000000000000090047f0100000000000000000000000000000000000000000000000000000000000000027f01000000000000000000000000000000000000000000000000000000000000009004018a019950600093505b8d600781518110151561047d57fe5b9060200101517f010000000000000000000000000000000000000000000000000000000000000090047f0100000000000000000000000000000000000000000000000000000000000000027f01000000000000000000000000000000000000000000000000000000000000009004610100028e60068151811015156104fe57fe5b9060200101517f010000000000000000000000000000000000000000000000000000000000000090047f0100000000000000000000000000000000000000000000000000000000000000027f010000000000000000000000000000000000000000000000000000000000000090040161ffff168461ffff1610156109395760218a018e0151975087600160028110151561059457fe5b1a7f0100000000000000000000000000000000000000000000000000000000000000027f01000000000000000000000000000000000000000000000000000000000000009004610100028860006002811015156105ed57fe5b1a7f0100000000000000000000000000000000000000000000000000000000000000027f010000000000000000000000000000000000000000000000000000000000000090040192508d60038b0161ffff1681518110151561064b57fe5b9060200101517f010000000000000000000000000000000000000000000000000000000000000090047f010000000000000000000000000000000000000000000000000000000000000002965060048a019950898e019550828652602083018a018e015194506002858760008b8b60405180866fffffffffffffffffffffffffffffffff19166fffffffffffffffffffffffffffffffff1916815260100185805190602001908083835b60208310151561071a57805182526020820191506020810190506020830392506106f5565b6001836020036101000a0380198251168184511680821785525050505050509050018460ff1660ff167f0100000000000000000000000000000000000000000000000000000000000000028152600101837dffffffffffffffffffffffffffffffffffffffffffffffffffffffffffff19167dffffffffffffffffffffffffffffffffffffffffffffffffffffffffffff19168152600201827effffffffffffffffffffffffffffffffffffffffffffffffffffffffffffff19167effffffffffffffffffffffffffffffffffffffffffffffffffffffffffffff19168152600101955050505050506020604051808303816000865af1151561081c57600080fd5b505060405180519050915060008461ffff1614156108a6576002600183604051808360ff1660ff167f01000000000000000000000000000000000000000000000000000000000000000281526001018260001916600019168152602001925050506020604051808303816000865af1151561089657600080fd5b5050604051805190509a50610924565b600260018c84604051808460ff1660ff167f01000000000000000000000000000000000000000000000000000000000000000281526001018360001916600019168152602001826000191660001916815260200193505050506020604051808303816000865af1151561091857600080fd5b5050604051805190509a505b601083018a019950838060010194505061046e565b60228e0151905060028b8a836304000000604051808560001916600019168152602001846fffffffffffffffffffffffffffffffff19166fffffffffffffffffffffffffffffffff19168152601001837bffffffffffffffffffffffffffffffffffffffffffffffffffffffff19167bffffffffffffffffffffffffffffffffffffffffffffffffffffffff191681526004018263ffffffff167c01000000000000000000000000000000000000000000000000000000000281526004019450505050506020604051808303816000865af11515610a1657600080fd5b5050604051805190509a50505050505050505050509193909250565b6020604051908101604052806000815250905600a165627a7a723058206211c4d4a44f116cba11e318044f4ffdf0153585969ed3bc4693f9b046b691360029",
  "source": "pragma solidity ^0.4.11;\nimport \"./bytesutils.sol\";\nimport \"./ECMath.sol\";\n\nlibrary tlsnutils{\n    \n    using bytesutils for *;\n\n    /*\n     * @dev Returns the complete conversation part of one peer (all generator records).\n     * @param proof The proof.\n     * @param conversation_part 0 = Requester(Client), 1 = Generator(Server).\n     * @return The response as a bytestring.\n    */\n    function getConversationPart(bytes memory proof, bytes1 conversation_part) private returns(bytes){\n        bytes memory response = \"\";\n        uint16 readPos = 96;\n        // Skipping the certificate chain\n        readPos += uint16(proof[26])+256*uint16(proof[27]);\n        bytes1 generator_originated;\n        // Parse one record after another ( i < num_proof_nodes )\n        for(uint16 i = 0; i < uint16(proof[6])+256*uint16(proof[7]); i++){\n\n            // Assume the request is in the first record\n            bytes2 len_record; // Length of the record\n            assembly { len_record := mload(add(proof,add(readPos,33))) }\n            \n            uint16 tmplen = uint16(len_record[0])+256*uint16(len_record[1]);\n\n            generator_originated = proof[readPos+3];\n\n            // Skip node, type, content len and generator info\n            readPos += 4;\n\n            if(generator_originated == conversation_part){\n                var chunk = proof.toSlice(readPos).truncate(tmplen); \n                response = response.toSlice().concat(chunk);\n            }\n            readPos += tmplen + 16;              \n        } \n        return response;\n    }\n\n\n\n    /*\n     * @dev Returns the complete request (all requester records).\n     * @param proof The proof.\n     * @return The request as a bytestring.\n    */\n    function getRequest(bytes memory proof) internal returns(bytes){\n        return getConversationPart(proof, 0);\n    }\n\n\n    /*\n     * @dev Returns the complete response (all generator records).\n     * @param proof The proof.\n     * @return The response as a bytestring.\n    */\n    function getResponse(bytes memory proof) internal returns(bytes){\n        return getConversationPart(proof, 1);\n    }\n\n\n\n    /*\n     * @dev Returns the HTTP body.\n     * @param proof The proof.\n     * @return The HTTP body in case the request was valid. (200 OK) \n    */\n    function getHTTPBody(bytes memory proof) internal returns(bytes){\n        bytes memory response = getResponse(proof);\n        bytesutils.slice memory code = response.toSlice().truncate(15);\n        require(code.equals(\"HTTP/1.1 200 OK\".toSlice()));\n        bytesutils.slice memory body = response.toSlice().find(\"\\r\\n\\r\\n\".toSlice());\n        body.addOffset(4);\n        return body.toBytes();  \n    }\n\n    \n    /*\n     * @dev Returns HTTP Host inside the request\n     * @param proof The proof.\n     * @return The Host as a bytestring.\n    */\n    function getHost(bytes memory proof) internal returns(bytes){\n        bytesutils.slice memory request = getRequest(proof).toSlice();\n        // Search in Headers\n        request = request.split(\"\\r\\n\\r\\n\".toSlice());\n        // Find host header\n        request.find(\"Host:\".toSlice());\n        request.addOffset(5);\n        // Until newline\n        request = request.split(\"\\r\\n\".toSlice());\n        while(request.startsWith(\" \".toSlice())){\n            request.addOffset(1);\n        }\n\t\trequire(request.len() > 0);\n        return request.toBytes();\n    }\n\n    /*\n     * @dev Returns the requested URL for HTTP\n     * @param proof The proof.\n     * @return The request as a bytestring. Empty string on error.\n    */\n    function getHTTPRequestURL(bytes memory proof) internal returns(bytes){\n        bytes memory request = getRequest(proof);\n        bytesutils.slice memory slice = request.toSlice();\n        bytesutils.slice memory delim = \" \".toSlice();\n        // Check the method is GET\n        bytesutils.slice memory method = slice.split(delim);\n        require(method.equals(\"GET\".toSlice()));\n        // Return the URL\n        return slice.split(delim).toBytes();\n    }\n\n    /*\n     * @dev Verify a proof signed by tls-n.org.\n     * @param proof The proof.\n     * @return True iff valid.\n    */\n\tfunction verifyProof(bytes memory proof) returns(bool) {\n\t\tuint256 qx = 0x0de2583dc1b70c4d17936f6ca4d2a07aa2aba06b76a97e60e62af286adc1cc09; //public key x-coordinate signer\n\t\tuint256 qy = 0x68ba8822c94e79903406a002f4bc6a982d1b473f109debb2aa020c66f642144a; //public key y-coordinate signer\n\t\treturn verifyProof(proof, qx, qy);\n\t}\n\n    /*\n     * @dev Verify a proof signed by the specified key.\n     * @param proof The proof.\n     * @return True iff valid.\n    */\n\tfunction verifyProof(bytes memory proof, uint256 qx, uint256 qy) returns(bool) {\n\t\tbytes32 m; // Evidence Hash in bytes32\n\t\tuint256 e; // Evidence Hash in uint256\n\t\tuint256 sig_r; //signature parameter\n\t\tuint256 sig_s; //signature parameter\n\n\t\t// Returns ECC signature parts and the evidence hash\n\t\t(sig_r, sig_s, m) = parseProof(proof);\n\n\t\t// Convert evidence hash to uint\n\t\te = uint256(m);\n\n\t\t// Verify signature\n\t\treturn ECMath.ecdsaverify(qx, qy, e, sig_r, sig_s);\n\n\t}\n\n    /*\n     * @dev Parses the provided proof and returns the signature parts and the evidence hash.\n\t * For 64-byte ECC proofs with SHA256.\n     * @param proof The proof.\n     * @return sig_r, sig_s: signature parts and hashchain: the final evidence hash.\n    */\n  function parseProof(bytes memory proof) returns(uint256 sig_r, uint256 sig_s, bytes32 hashchain) {\n\n      uint16 readPos = 0; // Initialize index in proof bytes array\n      bytes16 times; // Contains Timestamps for signature validation\n\t  bytes2 len_record; // Length of the record\n\t  bytes1 generator_originated; // Boolean whether originated by generator\n\t  bytes memory chunk; // One chunk for hashing\n\t  bytes16 saltsecret; // Salt secret from proof\n\n      // Parse times\n      assembly {\n        times := mload(add(proof, 40))\n      }\n      readPos += 32; //update readPos, skip parameters\n\n    assembly {\n        sig_r := mload(add(proof,64))\n        sig_s := mload(add(proof,96))\n\t    readPos := add(readPos, 64)\n    }\n\n      // Skipping the certificate chain\n      readPos += uint16(proof[26])+256*uint16(proof[27]);\n\n      // Parse one record after another ( i < num_proof_nodes )\n\t  for(uint16 i = 0; i < uint16(proof[6])+256*uint16(proof[7]); i++){\n\t\t\t// Get the Record length as a byte array\n\t\t\tassembly { len_record := mload(add(proof,add(readPos,33))) }\n\t\t\t// Convert the record length into a number\n\t\t\tuint16 tmplen = uint16(len_record[0])+256*uint16(len_record[1]);\n\t\t\t// Parse generator information\n\t\t\tgenerator_originated = proof[readPos+3];\n\t\t\t// Update readPos\n\t\t\treadPos += 4; \n\t\t\t// Set chunk pointer\n\t\t\tassembly { chunk := add(proof,readPos) }\n\t\t\t// Set length of chunks \n\t\t\tassembly { mstore(chunk, tmplen) }\n\t\t\t// Load saltsecret\n\t\t\tassembly { saltsecret := mload(add(proof,add(readPos,add(tmplen,32)))) }\n\t\t\t// Root hash\n\t\t\tbytes32 hash = sha256(saltsecret,chunk,uint8(0),len_record,generator_originated);\n\t\t\t// Hash chain\n\t\t\tif(i == 0){\n\t\t\t\thashchain = sha256(uint8(1),hash);\n\t\t\t}else{\n\t\t\t\thashchain = sha256(uint8(1),hashchain,hash);\n\t\t\t}\n\t\t\t// Jump over record and salt secret\n\t\t\treadPos += tmplen + 16; \n\t\t}\n\t\t// Compute Evidence Hash\n\t\t// Load chunk size and salt size \n\t\tbytes4 test; // Temporarily contains salt size and chunk size \n\t\tassembly { test := mload(add(proof,34)) } \n\t\t// Compute final hash chain\n\t\thashchain = sha256(hashchain, times, test, 0x04000000);\n    }\n}\n",
  "sourcePath": "/home/bjorn/Projects/BGRVerify/contracts/imported/tlsnutils.sol",
  "compiler": {
    "name": "solc",
    "version": "0.4.21+commit.dfe3193c.Emscripten.clang"
  },
  "schemaVersion": "2.0.0",
  "updatedAt": "2018-06-04T15:03:12.297Z"
}